{
  "address": "0x7bC6Ca69cA2fAcb8A3f80e0aB3cbE32a6259f163",
  "abi": [
    {
      "inputs": [
        {
          "internalType": "address",
          "name": "owner",
          "type": "address"
        },
        {
          "internalType": "contract IDrawCalculator",
          "name": "_calculator",
          "type": "address"
        },
        {
          "internalType": "uint32",
          "name": "_timelockDuration",
          "type": "uint32"
        }
      ],
      "stateMutability": "nonpayable",
      "type": "constructor"
    },
    {
      "anonymous": false,
      "inputs": [
        {
          "indexed": true,
          "internalType": "contract ClaimableDraw",
          "name": "claimableDraw",
          "type": "address"
        }
      ],
      "name": "ClaimableDrawSet",
      "type": "event"
    },
    {
      "anonymous": false,
      "inputs": [
        {
          "indexed": true,
          "internalType": "contract ITicket",
          "name": "ticket",
          "type": "address"
        }
      ],
      "name": "Deployed",
      "type": "event"
    },
    {
      "anonymous": false,
      "inputs": [
        {
          "indexed": true,
          "internalType": "address",
          "name": "previousManager",
          "type": "address"
        },
        {
          "indexed": true,
          "internalType": "address",
          "name": "newManager",
          "type": "address"
        }
      ],
      "name": "ManagerTransferred",
      "type": "event"
    },
    {
      "anonymous": false,
      "inputs": [
        {
          "indexed": true,
          "internalType": "address",
          "name": "pendingOwner",
          "type": "address"
        }
      ],
      "name": "OwnershipOffered",
      "type": "event"
    },
    {
      "anonymous": false,
      "inputs": [
        {
          "indexed": true,
          "internalType": "address",
          "name": "previousOwner",
          "type": "address"
        },
        {
          "indexed": true,
          "internalType": "address",
          "name": "newOwner",
          "type": "address"
        }
      ],
      "name": "OwnershipTransferred",
      "type": "event"
    },
    {
      "anonymous": false,
      "inputs": [
        {
          "indexed": false,
          "internalType": "uint32",
          "name": "duration",
          "type": "uint32"
        }
      ],
      "name": "TimelockDurationSet",
      "type": "event"
    },
    {
      "anonymous": false,
      "inputs": [
        {
          "components": [
            {
              "internalType": "uint128",
              "name": "timestamp",
              "type": "uint128"
            },
            {
              "internalType": "uint32",
              "name": "drawId",
              "type": "uint32"
            }
          ],
          "indexed": false,
          "internalType": "struct IDrawCalculatorTimelock.Timelock",
          "name": "timelock",
          "type": "tuple"
        }
      ],
      "name": "TimelockSet",
      "type": "event"
    },
    {
      "inputs": [
        {
          "internalType": "address",
          "name": "user",
          "type": "address"
        },
        {
          "internalType": "uint32[]",
          "name": "drawIds",
          "type": "uint32[]"
        },
        {
          "internalType": "bytes",
          "name": "data",
          "type": "bytes"
        }
      ],
      "name": "calculate",
      "outputs": [
        {
          "internalType": "uint256[]",
          "name": "",
          "type": "uint256[]"
        }
      ],
      "stateMutability": "view",
      "type": "function"
    },
    {
      "inputs": [],
      "name": "claimOwnership",
      "outputs": [],
      "stateMutability": "nonpayable",
      "type": "function"
    },
    {
      "inputs": [],
      "name": "getDrawCalculator",
      "outputs": [
        {
          "internalType": "contract IDrawCalculator",
          "name": "",
          "type": "address"
        }
      ],
      "stateMutability": "view",
      "type": "function"
    },
    {
      "inputs": [],
      "name": "getTimelock",
      "outputs": [
        {
          "components": [
            {
              "internalType": "uint128",
              "name": "timestamp",
              "type": "uint128"
            },
            {
              "internalType": "uint32",
              "name": "drawId",
              "type": "uint32"
            }
          ],
          "internalType": "struct IDrawCalculatorTimelock.Timelock",
          "name": "",
          "type": "tuple"
        }
      ],
      "stateMutability": "view",
      "type": "function"
    },
    {
      "inputs": [],
      "name": "getTimelockDuration",
      "outputs": [
        {
          "internalType": "uint32",
          "name": "",
          "type": "uint32"
        }
      ],
      "stateMutability": "view",
      "type": "function"
    },
    {
      "inputs": [],
      "name": "hasElapsed",
      "outputs": [
        {
          "internalType": "bool",
          "name": "",
          "type": "bool"
        }
      ],
      "stateMutability": "view",
      "type": "function"
    },
    {
      "inputs": [
        {
          "internalType": "uint32",
          "name": "_drawId",
          "type": "uint32"
        }
      ],
      "name": "lock",
      "outputs": [
        {
          "internalType": "bool",
          "name": "",
          "type": "bool"
        }
      ],
      "stateMutability": "nonpayable",
      "type": "function"
    },
    {
      "inputs": [],
      "name": "manager",
      "outputs": [
        {
          "internalType": "address",
          "name": "",
          "type": "address"
        }
      ],
      "stateMutability": "view",
      "type": "function"
    },
    {
      "inputs": [],
      "name": "owner",
      "outputs": [
        {
          "internalType": "address",
          "name": "",
          "type": "address"
        }
      ],
      "stateMutability": "view",
      "type": "function"
    },
    {
      "inputs": [],
      "name": "pendingOwner",
      "outputs": [
        {
          "internalType": "address",
          "name": "",
          "type": "address"
        }
      ],
      "stateMutability": "view",
      "type": "function"
    },
    {
      "inputs": [],
      "name": "renounceOwnership",
      "outputs": [],
      "stateMutability": "nonpayable",
      "type": "function"
    },
    {
      "inputs": [
        {
          "internalType": "address",
          "name": "_newManager",
          "type": "address"
        }
      ],
      "name": "setManager",
      "outputs": [
        {
          "internalType": "bool",
          "name": "",
          "type": "bool"
        }
      ],
      "stateMutability": "nonpayable",
      "type": "function"
    },
    {
      "inputs": [
        {
          "components": [
            {
              "internalType": "uint128",
              "name": "timestamp",
              "type": "uint128"
            },
            {
              "internalType": "uint32",
              "name": "drawId",
              "type": "uint32"
            }
          ],
          "internalType": "struct IDrawCalculatorTimelock.Timelock",
          "name": "_timelock",
          "type": "tuple"
        }
      ],
      "name": "setTimelock",
      "outputs": [],
      "stateMutability": "nonpayable",
      "type": "function"
    },
    {
      "inputs": [
        {
          "internalType": "uint32",
          "name": "_timelockDuration",
          "type": "uint32"
        }
      ],
      "name": "setTimelockDuration",
      "outputs": [],
      "stateMutability": "nonpayable",
      "type": "function"
    },
    {
      "inputs": [
        {
          "internalType": "address",
          "name": "_newOwner",
          "type": "address"
        }
      ],
      "name": "transferOwnership",
      "outputs": [],
      "stateMutability": "nonpayable",
      "type": "function"
    }
  ],
  "transactionHash": "0x5609e8ca8d40cdb094cc544b9b924e182e04b55b23dbe2ffbb08591ec0edc5ba",
  "args": [
    "0xE0F4217390221aF47855E094F6e112D43C8698fE",
    "0xB4760E772F7a4B49d94Ae7973838ff1Ae534559A",
    300
  ],
  "solcInputHash": "b0872f2c20298ba87c0d5bbb50dadae3",
  "bytecode": "0x60a060405234801561001057600080fd5b5060405161129438038061129483398101604081905261002f916100c8565b8261003981610078565b5060609190911b6001600160601b0319166080526002805463ffffffff60a01b1916600160a01b63ffffffff9093169290920291909117905550610136565b600080546001600160a01b038381166001600160a01b0319831681178455604051919092169283917f8be0079c531659141344cd1fd0a4f28419497f9722a3daafe3b4186f6b6457e09190a35050565b6000806000606084860312156100dd57600080fd5b83516100e88161011e565b60208501519093506100f98161011e565b604085015190925063ffffffff8116811461011357600080fd5b809150509250925092565b6001600160a01b038116811461013357600080fd5b50565b60805160601c61113961015b60003960008181610111015261057601526111396000f3fe608060405234801561001057600080fd5b50600436106100f55760003560e01c8063aaca392e11610097578063d3c45b8d11610066578063d3c45b8d1461023c578063e30c39781461024f578063f2fde38b14610260578063fdf2f3121461027357600080fd5b8063aaca392e146101de578063c9f2e0d9146101fe578063d0ebdbe714610211578063d3a9c6121461023457600080fd5b80634e71e0c8116100d35780634e71e0c81461015f5780636221a54b14610167578063715018a6146101c55780638da5cb5b146101cd57600080fd5b80630dc9c0f1146100fa5780632d680cfa1461010f578063481c6a751461014e575b600080fd5b61010d610108366004610eaf565b6102a9565b005b7f00000000000000000000000000000000000000000000000000000000000000005b6040516001600160a01b0390911681526020015b60405180910390f35b6002546001600160a01b0316610131565b61010d6103a7565b6040805180820182526000808252602091820152815180830183526003546fffffffffffffffffffffffffffffffff811680835263ffffffff600160801b909204821692840192835284519081529151169181019190915201610145565b61010d610435565b6000546001600160a01b0316610131565b6101f16101ec366004610d50565b6104aa565b6040516101459190610fc0565b61010d61020c366004610f21565b610612565b61022461021f366004610d2e565b6106f8565b6040519015158152602001610145565b610224610774565b61022461024a366004610f21565b6107b9565b6001546001600160a01b0316610131565b61010d61026e366004610d2e565b610973565b60025474010000000000000000000000000000000000000000900463ffffffff1660405163ffffffff9091168152602001610145565b336102bc6000546001600160a01b031690565b6001600160a01b0316146103175760405162461bcd60e51b815260206004820152601860248201527f4f776e61626c652f63616c6c65722d6e6f742d6f776e6572000000000000000060448201526064015b60405180910390fd5b805160038054602080850180516fffffffffffffffffffffffffffffffff90951673ffffffffffffffffffffffffffffffffffffffff199093168317600160801b63ffffffff9687160217909355604080519283529251909316928101929092527f42dd13ae53bb50ee7d7115673c106f053e02398f000e36d1e5969afc507e19ba91015b60405180910390a150565b6001546001600160a01b031633146104015760405162461bcd60e51b815260206004820152601f60248201527f4f776e61626c652f63616c6c65722d6e6f742d70656e64696e674f776e657200604482015260640161030e565b600154610416906001600160a01b0316610aaf565b6001805473ffffffffffffffffffffffffffffffffffffffff19169055565b336104486000546001600160a01b031690565b6001600160a01b03161461049e5760405162461bcd60e51b815260206004820152601860248201527f4f776e61626c652f63616c6c65722d6e6f742d6f776e65720000000000000000604482015260640161030e565b6104a86000610aaf565b565b604080518082019091526003546fffffffffffffffffffffffffffffffff81168252600160801b900463ffffffff16602082015260609060005b8581101561054557816020015163ffffffff16878783818110610509576105096110d7565b905060200201602081019061051e9190610f21565b63ffffffff1614156105335761053382610b0c565b8061053d81611088565b9150506104e4565b506040517faaca392e0000000000000000000000000000000000000000000000000000000081526001600160a01b037f0000000000000000000000000000000000000000000000000000000000000000169063aaca392e906105b3908a908a908a908a908a90600401610f3c565b60006040518083038186803b1580156105cb57600080fd5b505afa1580156105df573d6000803e3d6000fd5b505050506040513d6000823e601f3d908101601f191682016040526106079190810190610e02565b979650505050505050565b336106256000546001600160a01b031690565b6001600160a01b03161461067b5760405162461bcd60e51b815260206004820152601860248201527f4f776e61626c652f63616c6c65722d6e6f742d6f776e65720000000000000000604482015260640161030e565b600280547fffffffffffffffff00000000ffffffffffffffffffffffffffffffffffffffff167401000000000000000000000000000000000000000063ffffffff8416908102919091179091556040519081527f2607ecb03bc646643f6e6a7818db8d53cf9022e79f212f0275ab0e726ffb97de9060200161039c565b60003361070d6000546001600160a01b031690565b6001600160a01b0316146107635760405162461bcd60e51b815260206004820152601860248201527f4f776e61626c652f63616c6c65722d6e6f742d6f776e65720000000000000000604482015260640161030e565b61076c82610b64565b90505b919050565b604080518082019091526003546fffffffffffffffffffffffffffffffff81168252600160801b900463ffffffff1660208201526000906107b490610c50565b905090565b6000336107ce6002546001600160a01b031690565b6001600160a01b031614806107fc5750336107f16000546001600160a01b031690565b6001600160a01b0316145b61086e5760405162461bcd60e51b815260206004820152602660248201527f4d616e61676561626c652f63616c6c65722d6e6f742d6d616e616765722d6f7260448201527f2d6f776e65720000000000000000000000000000000000000000000000000000606482015260840161030e565b604080518082019091526003546fffffffffffffffffffffffffffffffff81168252600160801b900463ffffffff16602082018190526108af906001611069565b63ffffffff168363ffffffff16146109095760405162461bcd60e51b815260206004820152601660248201527f4f4d2f6e6f742d6472617769642d706c75732d6f6e6500000000000000000000604482015260640161030e565b61091281610b0c565b505060408051808201909152426fffffffffffffffffffffffffffffffff1680825263ffffffff9290921660209091018190526003805473ffffffffffffffffffffffffffffffffffffffff1916909217600160801b909102179055600190565b336109866000546001600160a01b031690565b6001600160a01b0316146109dc5760405162461bcd60e51b815260206004820152601860248201527f4f776e61626c652f63616c6c65722d6e6f742d6f776e65720000000000000000604482015260640161030e565b6001600160a01b038116610a585760405162461bcd60e51b815260206004820152602560248201527f4f776e61626c652f70656e64696e674f776e65722d6e6f742d7a65726f2d616460448201527f6472657373000000000000000000000000000000000000000000000000000000606482015260840161030e565b6001805473ffffffffffffffffffffffffffffffffffffffff19166001600160a01b0383169081179091556040517f239a2ddded15777fa246aed5f7e1a9bc69a39d4eb4a397034d1d85766cca7d4c90600090a250565b600080546001600160a01b0383811673ffffffffffffffffffffffffffffffffffffffff19831681178455604051919092169283917f8be0079c531659141344cd1fd0a4f28419497f9722a3daafe3b4186f6b6457e09190a35050565b610b1581610c50565b610b615760405162461bcd60e51b815260206004820152601760248201527f4f4d2f74696d656c6f636b2d6e6f742d65787069726564000000000000000000604482015260640161030e565b50565b6002546000906001600160a01b03908116908316811415610bed5760405162461bcd60e51b815260206004820152602360248201527f4d616e61676561626c652f6578697374696e672d6d616e616765722d6164647260448201527f6573730000000000000000000000000000000000000000000000000000000000606482015260840161030e565b6002805473ffffffffffffffffffffffffffffffffffffffff19166001600160a01b0385811691821790925560405190918316907f9cb45c728de594dab506a1f1a8554e24c8eeaf983618d5ec5dd7bc6f3c49feee90600090a350600192915050565b80516000906fffffffffffffffffffffffffffffffff16610c7357506001919050565b6002548251610ca09174010000000000000000000000000000000000000000900463ffffffff1690611035565b6fffffffffffffffffffffffffffffffff16421192915050565b80356001600160a01b038116811461076f57600080fd5b60008083601f840112610ce357600080fd5b50813567ffffffffffffffff811115610cfb57600080fd5b602083019150836020828501011115610d1357600080fd5b9250929050565b803563ffffffff8116811461076f57600080fd5b600060208284031215610d4057600080fd5b610d4982610cba565b9392505050565b600080600080600060608688031215610d6857600080fd5b610d7186610cba565b9450602086013567ffffffffffffffff80821115610d8e57600080fd5b818801915088601f830112610da257600080fd5b813581811115610db157600080fd5b8960208260051b8501011115610dc657600080fd5b602083019650809550506040880135915080821115610de457600080fd5b50610df188828901610cd1565b969995985093965092949392505050565b60006020808385031215610e1557600080fd5b825167ffffffffffffffff80821115610e2d57600080fd5b818501915085601f830112610e4157600080fd5b815181811115610e5357610e536110ed565b8060051b9150610e64848301611004565b8181528481019084860184860187018a1015610e7f57600080fd5b600095505b83861015610ea2578051835260019590950194918601918601610e84565b5098975050505050505050565b600060408284031215610ec157600080fd5b6040516040810181811067ffffffffffffffff82111715610ee457610ee46110ed565b60405282356fffffffffffffffffffffffffffffffff81168114610f0757600080fd5b8152610f1560208401610d1a565b60208201529392505050565b600060208284031215610f3357600080fd5b610d4982610d1a565b6001600160a01b038616815260606020808301829052908201859052600090869060808401835b88811015610f8c5763ffffffff610f7985610d1a565b1682529282019290820190600101610f63565b5084810360408601528581528587838301376000818701830152601f909501601f1916909401909301979650505050505050565b6020808252825182820181905260009190848201906040850190845b81811015610ff857835183529284019291840191600101610fdc565b50909695505050505050565b604051601f8201601f1916810167ffffffffffffffff8111828210171561102d5761102d6110ed565b604052919050565b60006fffffffffffffffffffffffffffffffff808316818516808303821115611060576110606110c1565b01949350505050565b600063ffffffff808316818516808303821115611060576110606110c1565b60007fffffffffffffffffffffffffffffffffffffffffffffffffffffffffffffffff8214156110ba576110ba6110c1565b5060010190565b634e487b7160e01b600052601160045260246000fd5b634e487b7160e01b600052603260045260246000fd5b634e487b7160e01b600052604160045260246000fdfea264697066735822122091fba82fa6dbc65445abfee9e644ca6bb82c6373fafc0f8542b4dc56b756004864736f6c63430008060033",
  "devdoc": {
    "author": "PoolTogether Inc Team",
    "kind": "dev",
    "methods": {
      "calculate(address,uint32[],bytes)": {
        "details": "Will enforce a \"cooldown period between when a Draw is pushed and when users can start to claim prizes. ",
        "params": {
          "data": "Encoded pick indices",
          "drawIds": "Draw.drawId",
          "user": "User address"
        },
        "returns": {
          "_0": "Prizes awardable array"
        }
      },
      "claimOwnership()": {
        "details": "This function is only callable by the `_pendingOwner`."
      },
      "constructor": {
        "params": {
          "_calculator": "DrawCalculator address",
          "_timelockDuration": "Elapsed seconds before new Draw is available"
        }
      },
      "getDrawCalculator()": {
        "returns": {
          "_0": "IDrawCalculator"
        }
      },
      "getTimelock()": {
        "returns": {
          "_0": "Timelock"
        }
      },
      "getTimelockDuration()": {
        "returns": {
          "_0": "Seconds to pass before Draw is valid."
        }
      },
      "hasElapsed()": {
        "returns": {
          "_0": "True if timelockDuration, since last timelock has elapsed, false otherwse."
        }
      },
      "lock(uint32)": {
        "details": "Restricts new draws by forcing a push timelock.",
        "params": {
          "_drawId": "Draw id"
        }
      },
      "manager()": {
        "returns": {
          "_0": "Current `_manager` address."
        }
      },
      "pendingOwner()": {
        "returns": {
          "_0": "Current `_pendingOwner` address."
        }
      },
      "renounceOwnership()": {
        "details": "Leaves the contract without owner. It will not be possible to call `onlyOwner` functions anymore. Can only be called by the current owner. NOTE: Renouncing ownership will leave the contract without an owner, thereby removing any functionality that is only available to the owner."
      },
      "setManager(address)": {
        "details": "Throws if called by any account other than the owner.",
        "params": {
          "_newManager": "New _manager address."
        },
        "returns": {
          "_0": "Boolean to indicate if the operation was successful or not."
        }
      },
      "setTimelock((uint128,uint32))": {
        "details": "Set new Timelock struct and emit TimelockSet event."
      },
      "setTimelockDuration(uint32)": {
        "details": "Set new timelockDuration and emit TimelockDurationSet event."
      },
      "transferOwnership(address)": {
        "params": {
          "_newOwner": "Address to transfer ownership to."
        }
      }
    },
    "title": "PoolTogether V4 OracleTimelock",
    "version": 1
  },
  "userdoc": {
    "events": {
      "ClaimableDrawSet(address)": {
        "notice": "Emitted when the claimableDraw is set/updated"
      },
      "Deployed(address)": {
        "notice": "Emitted when the contract is initialized"
      }
    },
    "kind": "user",
    "methods": {
      "calculate(address,uint32[],bytes)": {
        "notice": "Routes claim/calculate requests between ClaimableDraw and DrawCalculator."
      },
      "claimOwnership()": {
        "notice": "Allows the `_pendingOwner` address to finalize the transfer."
      },
      "constructor": {
        "notice": "Initialize DrawSettingsTimelockTrigger smart contract."
      },
      "getDrawCalculator()": {
        "notice": "Read internal DrawCalculator variable."
      },
      "getTimelock()": {
        "notice": "Read internal Timelock struct."
      },
      "getTimelockDuration()": {
        "notice": "Read internal timelockDuration variable."
      },
      "hasElapsed()": {
        "notice": "Returns bool for timelockDuration elapsing. "
      },
      "lock(uint32)": {
        "notice": "Push Draw onto draws ring buffer history."
      },
      "manager()": {
        "notice": "Gets current `_manager`."
      },
      "owner()": {
        "notice": "Returns the address of the current owner."
      },
      "pendingOwner()": {
        "notice": "Gets current `_pendingOwner`."
      },
      "renounceOwnership()": {
        "notice": "Renounce ownership of the contract."
      },
      "setManager(address)": {
        "notice": "Set or change of manager."
      },
      "setTimelock((uint128,uint32))": {
        "notice": "Set new Timelock struct."
      },
      "setTimelockDuration(uint32)": {
        "notice": "Set new timelockDuration."
      },
      "transferOwnership(address)": {
        "notice": "Allows current owner to set the `_pendingOwner` address."
      }
    },
    "notice": "OracleTimelock(s) acts as an intermediary between multiple V4 smart contracts. The OracleTimelock is responsible for pushing Draws to a DrawHistory and routing claim requests from a ClaimableDraw to a DrawCalculator. The primary objective is to  include a \"cooldown\" period for all new Draws. Allowing the correction of a malicously set Draw in the unfortunate event an Owner is compromised.",
    "version": 1
  },
  "storageLayout": {
    "storage": [
      {
        "astId": 3466,
        "contract": "@pooltogether/v4-oracle-timelocks/contracts/DrawCalculatorTimelock.sol:DrawCalculatorTimelock",
        "label": "_owner",
        "offset": 0,
        "slot": "0",
        "type": "t_address"
      },
      {
        "astId": 3468,
        "contract": "@pooltogether/v4-oracle-timelocks/contracts/DrawCalculatorTimelock.sol:DrawCalculatorTimelock",
        "label": "_pendingOwner",
        "offset": 0,
        "slot": "1",
        "type": "t_address"
      },
      {
        "astId": 3364,
        "contract": "@pooltogether/v4-oracle-timelocks/contracts/DrawCalculatorTimelock.sol:DrawCalculatorTimelock",
        "label": "_manager",
        "offset": 0,
        "slot": "2",
        "type": "t_address"
      },
      {
        "astId": 12939,
        "contract": "@pooltogether/v4-oracle-timelocks/contracts/DrawCalculatorTimelock.sol:DrawCalculatorTimelock",
        "label": "timelockDuration",
        "offset": 20,
        "slot": "2",
        "type": "t_uint32"
      },
      {
        "astId": 12943,
        "contract": "@pooltogether/v4-oracle-timelocks/contracts/DrawCalculatorTimelock.sol:DrawCalculatorTimelock",
        "label": "timelock",
        "offset": 0,
        "slot": "3",
        "type": "t_struct(Timelock)13348_storage"
      }
    ],
    "types": {
      "t_address": {
        "encoding": "inplace",
        "label": "address",
        "numberOfBytes": "20"
      },
      "t_struct(Timelock)13348_storage": {
        "encoding": "inplace",
        "label": "struct IDrawCalculatorTimelock.Timelock",
        "members": [
          {
            "astId": 13345,
            "contract": "@pooltogether/v4-oracle-timelocks/contracts/DrawCalculatorTimelock.sol:DrawCalculatorTimelock",
            "label": "timestamp",
            "offset": 0,
            "slot": "0",
            "type": "t_uint128"
          },
          {
            "astId": 13347,
            "contract": "@pooltogether/v4-oracle-timelocks/contracts/DrawCalculatorTimelock.sol:DrawCalculatorTimelock",
            "label": "drawId",
            "offset": 16,
            "slot": "0",
            "type": "t_uint32"
          }
        ],
        "numberOfBytes": "32"
      },
      "t_uint128": {
        "encoding": "inplace",
        "label": "uint128",
        "numberOfBytes": "16"
      },
      "t_uint32": {
        "encoding": "inplace",
        "label": "uint32",
        "numberOfBytes": "4"
      }
    }
  }
}