{
  "address": "0x4e3a9F9fBAFB2EC49727cFfa2a411F7a0C1C4cE1",
  "abi": [
    {
      "inputs": [
        {
          "internalType": "address",
          "name": "_owner",
          "type": "address"
        },
        {
          "internalType": "contract IDrawHistory",
          "name": "_drawHistory",
          "type": "address"
        },
        {
          "internalType": "contract RNGInterface",
          "name": "_rng",
          "type": "address"
        },
        {
          "internalType": "uint32",
          "name": "_nextDrawId",
          "type": "uint32"
        },
        {
          "internalType": "uint64",
          "name": "_beaconPeriodStart",
          "type": "uint64"
        },
        {
          "internalType": "uint32",
          "name": "_beaconPeriodSeconds",
          "type": "uint32"
        }
      ],
      "stateMutability": "nonpayable",
      "type": "constructor"
    },
    {
      "anonymous": false,
      "inputs": [
        {
          "indexed": false,
          "internalType": "uint32",
          "name": "drawPeriodSeconds",
          "type": "uint32"
        }
      ],
      "name": "BeaconPeriodSecondsUpdated",
      "type": "event"
    },
    {
      "anonymous": false,
      "inputs": [
        {
          "indexed": true,
          "internalType": "address",
          "name": "operator",
          "type": "address"
        },
        {
          "indexed": true,
          "internalType": "uint64",
          "name": "startedAt",
          "type": "uint64"
        }
      ],
      "name": "BeaconPeriodStarted",
      "type": "event"
    },
    {
      "anonymous": false,
      "inputs": [
        {
          "indexed": true,
          "internalType": "contract IDrawHistory",
          "name": "drawHistory",
          "type": "address"
        },
        {
          "indexed": true,
          "internalType": "contract RNGInterface",
          "name": "rng",
          "type": "address"
        },
        {
          "indexed": false,
          "internalType": "uint32",
          "name": "nextDrawId",
          "type": "uint32"
        },
        {
          "indexed": false,
          "internalType": "uint64",
          "name": "beaconPeriodStartedAt",
          "type": "uint64"
        },
        {
          "indexed": false,
          "internalType": "uint32",
          "name": "beaconPeriodSeconds",
          "type": "uint32"
        }
      ],
      "name": "Deployed",
      "type": "event"
    },
    {
      "anonymous": false,
      "inputs": [
        {
          "indexed": true,
          "internalType": "address",
          "name": "operator",
          "type": "address"
        },
        {
          "indexed": true,
          "internalType": "uint32",
          "name": "rngRequestId",
          "type": "uint32"
        },
        {
          "indexed": false,
          "internalType": "uint32",
          "name": "rngLockBlock",
          "type": "uint32"
        }
      ],
      "name": "DrawCancelled",
      "type": "event"
    },
    {
      "anonymous": false,
      "inputs": [
        {
          "indexed": true,
          "internalType": "address",
          "name": "operator",
          "type": "address"
        },
        {
          "indexed": false,
          "internalType": "uint256",
          "name": "randomNumber",
          "type": "uint256"
        }
      ],
      "name": "DrawCompleted",
      "type": "event"
    },
    {
      "anonymous": false,
      "inputs": [
        {
          "indexed": true,
          "internalType": "contract IDrawHistory",
          "name": "previousDrawHistory",
          "type": "address"
        },
        {
          "indexed": true,
          "internalType": "contract IDrawHistory",
          "name": "newDrawHistory",
          "type": "address"
        }
      ],
      "name": "DrawHistoryTransferred",
      "type": "event"
    },
    {
      "anonymous": false,
      "inputs": [
        {
          "indexed": true,
          "internalType": "address",
          "name": "operator",
          "type": "address"
        },
        {
          "indexed": true,
          "internalType": "uint32",
          "name": "rngRequestId",
          "type": "uint32"
        },
        {
          "indexed": false,
          "internalType": "uint32",
          "name": "rngLockBlock",
          "type": "uint32"
        }
      ],
      "name": "DrawStarted",
      "type": "event"
    },
    {
      "anonymous": false,
      "inputs": [
        {
          "indexed": true,
          "internalType": "address",
          "name": "pendingOwner",
          "type": "address"
        }
      ],
      "name": "OwnershipOffered",
      "type": "event"
    },
    {
      "anonymous": false,
      "inputs": [
        {
          "indexed": true,
          "internalType": "address",
          "name": "previousOwner",
          "type": "address"
        },
        {
          "indexed": true,
          "internalType": "address",
          "name": "newOwner",
          "type": "address"
        }
      ],
      "name": "OwnershipTransferred",
      "type": "event"
    },
    {
      "anonymous": false,
      "inputs": [
        {
          "indexed": true,
          "internalType": "contract RNGInterface",
          "name": "rngService",
          "type": "address"
        }
      ],
      "name": "RngServiceUpdated",
      "type": "event"
    },
    {
      "anonymous": false,
      "inputs": [
        {
          "indexed": false,
          "internalType": "uint32",
          "name": "rngTimeout",
          "type": "uint32"
        }
      ],
      "name": "RngTimeoutSet",
      "type": "event"
    },
    {
      "inputs": [],
      "name": "beaconPeriodEndAt",
      "outputs": [
        {
          "internalType": "uint64",
          "name": "",
          "type": "uint64"
        }
      ],
      "stateMutability": "view",
      "type": "function"
    },
    {
      "inputs": [],
      "name": "beaconPeriodRemainingSeconds",
      "outputs": [
        {
          "internalType": "uint32",
          "name": "",
          "type": "uint32"
        }
      ],
      "stateMutability": "view",
      "type": "function"
    },
    {
      "inputs": [],
      "name": "beaconPeriodSeconds",
      "outputs": [
        {
          "internalType": "uint32",
          "name": "",
          "type": "uint32"
        }
      ],
      "stateMutability": "view",
      "type": "function"
    },
    {
      "inputs": [],
      "name": "beaconPeriodStartedAt",
      "outputs": [
        {
          "internalType": "uint64",
          "name": "",
          "type": "uint64"
        }
      ],
      "stateMutability": "view",
      "type": "function"
    },
    {
      "inputs": [
        {
          "internalType": "uint256",
          "name": "currentTime",
          "type": "uint256"
        }
      ],
      "name": "calculateNextBeaconPeriodStartTime",
      "outputs": [
        {
          "internalType": "uint64",
          "name": "",
          "type": "uint64"
        }
      ],
      "stateMutability": "view",
      "type": "function"
    },
    {
      "inputs": [],
      "name": "canCompleteDraw",
      "outputs": [
        {
          "internalType": "bool",
          "name": "",
          "type": "bool"
        }
      ],
      "stateMutability": "view",
      "type": "function"
    },
    {
      "inputs": [],
      "name": "canStartDraw",
      "outputs": [
        {
          "internalType": "bool",
          "name": "",
          "type": "bool"
        }
      ],
      "stateMutability": "view",
      "type": "function"
    },
    {
      "inputs": [],
      "name": "cancelDraw",
      "outputs": [],
      "stateMutability": "nonpayable",
      "type": "function"
    },
    {
      "inputs": [],
      "name": "claimOwnership",
      "outputs": [],
      "stateMutability": "nonpayable",
      "type": "function"
    },
    {
      "inputs": [],
      "name": "completeDraw",
      "outputs": [],
      "stateMutability": "nonpayable",
      "type": "function"
    },
    {
      "inputs": [],
      "name": "drawHistory",
      "outputs": [
        {
          "internalType": "contract IDrawHistory",
          "name": "",
          "type": "address"
        }
      ],
      "stateMutability": "view",
      "type": "function"
    },
    {
      "inputs": [],
      "name": "getLastRngLockBlock",
      "outputs": [
        {
          "internalType": "uint32",
          "name": "",
          "type": "uint32"
        }
      ],
      "stateMutability": "view",
      "type": "function"
    },
    {
      "inputs": [],
      "name": "getLastRngRequestId",
      "outputs": [
        {
          "internalType": "uint32",
          "name": "",
          "type": "uint32"
        }
      ],
      "stateMutability": "view",
      "type": "function"
    },
    {
      "inputs": [],
      "name": "isBeaconPeriodOver",
      "outputs": [
        {
          "internalType": "bool",
          "name": "",
          "type": "bool"
        }
      ],
      "stateMutability": "view",
      "type": "function"
    },
    {
      "inputs": [],
      "name": "isRngCompleted",
      "outputs": [
        {
          "internalType": "bool",
          "name": "",
          "type": "bool"
        }
      ],
      "stateMutability": "view",
      "type": "function"
    },
    {
      "inputs": [],
      "name": "isRngRequested",
      "outputs": [
        {
          "internalType": "bool",
          "name": "",
          "type": "bool"
        }
      ],
      "stateMutability": "view",
      "type": "function"
    },
    {
      "inputs": [],
      "name": "isRngTimedOut",
      "outputs": [
        {
          "internalType": "bool",
          "name": "",
          "type": "bool"
        }
      ],
      "stateMutability": "view",
      "type": "function"
    },
    {
      "inputs": [],
      "name": "nextDrawId",
      "outputs": [
        {
          "internalType": "uint32",
          "name": "",
          "type": "uint32"
        }
      ],
      "stateMutability": "view",
      "type": "function"
    },
    {
      "inputs": [],
      "name": "owner",
      "outputs": [
        {
          "internalType": "address",
          "name": "",
          "type": "address"
        }
      ],
      "stateMutability": "view",
      "type": "function"
    },
    {
      "inputs": [],
      "name": "pendingOwner",
      "outputs": [
        {
          "internalType": "address",
          "name": "",
          "type": "address"
        }
      ],
      "stateMutability": "view",
      "type": "function"
    },
    {
      "inputs": [],
      "name": "renounceOwnership",
      "outputs": [],
      "stateMutability": "nonpayable",
      "type": "function"
    },
    {
      "inputs": [],
      "name": "rng",
      "outputs": [
        {
          "internalType": "contract RNGInterface",
          "name": "",
          "type": "address"
        }
      ],
      "stateMutability": "view",
      "type": "function"
    },
    {
      "inputs": [],
      "name": "rngTimeout",
      "outputs": [
        {
          "internalType": "uint32",
          "name": "",
          "type": "uint32"
        }
      ],
      "stateMutability": "view",
      "type": "function"
    },
    {
      "inputs": [
        {
          "internalType": "uint32",
          "name": "_beaconPeriodSeconds",
          "type": "uint32"
        }
      ],
      "name": "setBeaconPeriodSeconds",
      "outputs": [],
      "stateMutability": "nonpayable",
      "type": "function"
    },
    {
      "inputs": [
        {
          "internalType": "contract IDrawHistory",
          "name": "newDrawHistory",
          "type": "address"
        }
      ],
      "name": "setDrawHistory",
      "outputs": [
        {
          "internalType": "contract IDrawHistory",
          "name": "",
          "type": "address"
        }
      ],
      "stateMutability": "nonpayable",
      "type": "function"
    },
    {
      "inputs": [
        {
          "internalType": "contract RNGInterface",
          "name": "rngService",
          "type": "address"
        }
      ],
      "name": "setRngService",
      "outputs": [],
      "stateMutability": "nonpayable",
      "type": "function"
    },
    {
      "inputs": [
        {
          "internalType": "uint32",
          "name": "_rngTimeout",
          "type": "uint32"
        }
      ],
      "name": "setRngTimeout",
      "outputs": [],
      "stateMutability": "nonpayable",
      "type": "function"
    },
    {
      "inputs": [],
      "name": "startDraw",
      "outputs": [],
      "stateMutability": "nonpayable",
      "type": "function"
    },
    {
      "inputs": [
        {
          "internalType": "address",
          "name": "_newOwner",
          "type": "address"
        }
      ],
      "name": "transferOwnership",
      "outputs": [],
      "stateMutability": "nonpayable",
      "type": "function"
    }
  ],
  "transactionHash": "0xb1a8d0297ef616d2e20bf83a292e6b5cfadf1835f866e86061a61fad5d5eec4c",
  "args": [
    "0x94996399E8c5667f377460D0f3A5037BfC6c1275",
    "0x75a94aA59B2b2DB8724c9F55Ca856C0b7C0A01e3",
    "0xE1d06d492107F14AE024c357005c5c692158B13D",
    1,
    1632777780,
    600
  ],
  "solcInputHash": "9708f009c357312991df75253b2932ee",
  "bytecode": "0x60806040523480156200001157600080fd5b506040516200250438038062002504833981016040819052620000349162000585565b85620000408162000273565b506000826001600160401b031611620000a25760405162461bcd60e51b815260206004820152602a6024820152600080516020620024e48339815191526044820152692d7468616e2d7a65726f60b01b60648201526084015b60405180910390fd5b6001600160a01b038416620000fa5760405162461bcd60e51b815260206004820152601760248201527f44726177426561636f6e2f726e672d6e6f742d7a65726f000000000000000000604482015260640162000099565b600280546001600160a01b0319166001600160a01b0386161790556200012081620002c3565b600580546001600160401b0319166001600160401b038416179055620001468562000378565b5062000154610708620004b4565b60018363ffffffff161015620001ad5760405162461bcd60e51b815260206004820152601f60248201527f44726177426561636f6e2f6e6578742d647261772d69642d6774652d6f6e6500604482015260640162000099565b6005805463ffffffff60401b19166801000000000000000063ffffffff86811691820292909217909255604080519283526001600160401b0385166020840152908316908201526001600160a01b0385811691908716907fe76366e75c0f3663dabc798fc08e6d226aba84ec41bfbc7339714f848ca1d3fd9060600160405180910390a36040516001600160401b0383169033907fc62afd23932a5e15acb7e6f2ecb7d037af126ca52beebd43e88ba37b21274ae190600090a350505050505062000635565b600080546001600160a01b038381166001600160a01b0319831681178455604051919092169283917f8be0079c531659141344cd1fd0a4f28419497f9722a3daafe3b4186f6b6457e09190a35050565b60008163ffffffff16116200031d5760405162461bcd60e51b815260206004820152602a6024820152600080516020620024e48339815191526044820152692d7468616e2d7a65726f60b01b606482015260840162000099565b6004805463ffffffff60c01b1916600160c01b63ffffffff8416908102919091179091556040519081527f4727494dbd863e2084366f539d6ec569aaf7ab78582a34f006f004266777cd19906020015b60405180910390a150565b6004546000906001600160a01b03908116908316620003eb5760405162461bcd60e51b815260206004820152602860248201527f44726177426561636f6e2f647261772d686973746f72792d6e6f742d7a65726f6044820152672d6164647265737360c01b606482015260840162000099565b806001600160a01b0316836001600160a01b03161415620004605760405162461bcd60e51b815260206004820152602860248201527f44726177426561636f6e2f6578697374696e672d647261772d686973746f72796044820152672d6164647265737360c01b606482015260840162000099565b600480546001600160a01b0319166001600160a01b0385811691821790925560405190918316907f493214a1c2ee516671031b0d1ebfa3cce3620eb95e78ca8f7d75e097dc774cec90600090a35090919050565b603c8163ffffffff1611620005165760405162461bcd60e51b815260206004820152602160248201527f44726177426561636f6e2f726e672d74696d656f75742d67742d36302d7365636044820152607360f81b606482015260840162000099565b6004805463ffffffff60a01b1916600160a01b63ffffffff8416908102919091179091556040519081527f521671714dd36d366adf3fe2efec91d3f58a3131aad68e268821d8144b5d0845906020016200036d565b805163ffffffff811681146200058057600080fd5b919050565b60008060008060008060c087890312156200059f57600080fd5b8651620005ac816200061c565b6020880151909650620005bf816200061c565b6040880151909550620005d2816200061c565b9350620005e2606088016200056b565b60808801519093506001600160401b03811681146200060057600080fd5b91506200061060a088016200056b565b90509295509295509295565b6001600160a01b03811681146200063257600080fd5b50565b611e9f80620006456000396000f3fe608060405234801561001057600080fd5b50600436106101cf5760003560e01c8063738bbea811610104578063a47f55a6116100a2578063e11fb2bd11610071578063e11fb2bd146103af578063e30c3978146103c2578063e4a75bb8146103d3578063f2fde38b146103db57600080fd5b8063a47f55a614610358578063d1e7765714610380578063d605787b14610388578063df6e47631461039b57600080fd5b80637f4296d7116100de5780637f4296d7146103005780638da5cb5b14610313578063919bead014610324578063a104fd791461033757600080fd5b8063738bbea8146102dd57806375e38f16146102e55780637ec77aa4146102ed57600080fd5b8063412a616a116101715780635020ea561161014b5780635020ea56146102815780635ea5c74e146102945780636bea5344146102bf578063715018a6146102d557600080fd5b8063412a616a146102695780634aba4f6b146102715780634e71e0c81461027957600080fd5b8063111070e4116101ad578063111070e41461022757806322482f64146102375780632a7ad609146102535780632ae168a61461026157600080fd5b80630996f6e1146101d45780630bdeecbd146101f15780630ff100ef146101fb575b600080fd5b6101dc6103ee565b60405190151581526020015b60405180910390f35b6101f961040f565b005b60045461021290600160c01b900463ffffffff1681565b60405163ffffffff90911681526020016101e8565b60035463ffffffff1615156101dc565b6005546102129068010000000000000000900463ffffffff1681565b60035463ffffffff16610212565b6101f96107b0565b6101f9610aa7565b6101dc610b73565b6101f9610c12565b6101f961028f366004611c10565b610ca0565b6102a76102a2366004611b71565b610d1d565b6040516001600160a01b0390911681526020016101e8565b600354640100000000900463ffffffff16610212565b6101f9610d97565b6101dc610e0c565b610212610e8f565b6004546102a7906001600160a01b031681565b6101f961030e366004611b71565b610e99565b6000546001600160a01b03166102a7565b6101f9610332366004611c10565b610fb7565b61033f611031565b60405167ffffffffffffffff90911681526020016101e8565b6004546102129074010000000000000000000000000000000000000000900463ffffffff1681565b6101dc61103b565b6002546102a7906001600160a01b031681565b60055461033f9067ffffffffffffffff1681565b61033f6103bd366004611bde565b611045565b6001546001600160a01b03166102a7565b6101dc611072565b6101f96103e9366004611b71565b611094565b60006103f86111d0565b801561040a575060035463ffffffff16155b905090565b60035463ffffffff166104695760405162461bcd60e51b815260206004820152601c60248201527f44726177426561636f6e2f726e672d6e6f742d7265717565737465640000000060448201526064015b60405180910390fd5b610471610b73565b6104bd5760405162461bcd60e51b815260206004820152601b60248201527f44726177426561636f6e2f726e672d6e6f742d636f6d706c65746500000000006044820152606401610460565b6002546003546040517f9d2a5f9800000000000000000000000000000000000000000000000000000000815263ffffffff90911660048201526000916001600160a01b031690639d2a5f9890602401602060405180830381600087803b15801561052657600080fd5b505af115801561053a573d6000803e3d6000fd5b505050506040513d601f19601f8201168201806040525081019061055e9190611bf7565b60055460045491925063ffffffff68010000000000000000820481169267ffffffffffffffff90921691600160c01b90041660006105994290565b6040805160a08101825287815263ffffffff8781166020830190815267ffffffffffffffff85811684860190815289821660608601908152898516608087019081526004805498517f089eb925000000000000000000000000000000000000000000000000000000008152885191810191909152945186166024860152915183166044850152519091166064830152519091166084820152929350916001600160a01b039091169063089eb9259060a401602060405180830381600087803b15801561066457600080fd5b505af1158015610678573d6000803e3d6000fd5b505050506040513d601f19601f8201168201806040525081019061069c9190611c2d565b506106a88484846111f8565b6005805467ffffffffffffffff191667ffffffffffffffff831617905593506106d2856001611cf1565b6005805463ffffffff9290921668010000000000000000027fffffffffffffffffffffffffffffffffffffffff00000000ffffffffffffffff909216919091179055600380547fffffffffffffffffffffffffffffffff0000000000000000000000000000000016905560405186815233907fc8d9c06e6b370a882d253a9eab335ea149efddabf9e97685220258c6fc5726fb9060200160405180910390a260405167ffffffffffffffff85169033907fc62afd23932a5e15acb7e6f2ecb7d037af126ca52beebd43e88ba37b21274ae190600090a3505050505050565b6107b86111d0565b61082a5760405162461bcd60e51b815260206004820152602160248201527f44726177426561636f6e2f626561636f6e2d706572696f642d6e6f742d6f766560448201527f72000000000000000000000000000000000000000000000000000000000000006064820152608401610460565b60035463ffffffff16156108805760405162461bcd60e51b815260206004820181905260248201527f44726177426561636f6e2f726e672d616c72656164792d7265717565737465646044820152606401610460565b600254604080517f0d37b537000000000000000000000000000000000000000000000000000000008152815160009384936001600160a01b0390911692630d37b5379260048083019392829003018186803b1580156108de57600080fd5b505afa1580156108f2573d6000803e3d6000fd5b505050506040513d601f19601f820116820180604052508101906109169190611b8e565b90925090506001600160a01b038216158015906109335750600081115b1561095257600254610952906001600160a01b0384811691168361123d565b600254604080517f8678a7b2000000000000000000000000000000000000000000000000000000008152815160009384936001600160a01b0390911692638678a7b2926004808301939282900301818787803b1580156109b157600080fd5b505af11580156109c5573d6000803e3d6000fd5b505050506040513d601f19601f820116820180604052508101906109e99190611c4a565b6003805463ffffffff8084166401000000000267ffffffffffffffff19909216908516171790559092509050610a1c4290565b6003805467ffffffffffffffff9290921668010000000000000000027fffffffffffffffffffffffffffffffff0000000000000000ffffffffffffffff90921691909117905560405163ffffffff828116825283169033907f32c42f2f8791818cebc96a66e90c6abe290f112d07c95172418fd315e13dbd4a9060200160405180910390a350505050565b610aaf610e0c565b610afb5760405162461bcd60e51b815260206004820152601b60248201527f44726177426561636f6e2f726e672d6e6f742d74696d65646f757400000000006044820152606401610460565b600380547fffffffffffffffffffffffffffffffff00000000000000000000000000000000811690915560405163ffffffff6401000000008304811680835292169190829033907fd322c2dc1859a70438cd7d434377eb0c5e66753f48bf84a9c43dcfcc3df1e69d9060200160405180910390a35050565b6002546003546040517f3a19b9bc00000000000000000000000000000000000000000000000000000000815263ffffffff90911660048201526000916001600160a01b031690633a19b9bc9060240160206040518083038186803b158015610bda57600080fd5b505afa158015610bee573d6000803e3d6000fd5b505050506040513d601f19601f8201168201806040525081019061040a9190611bbc565b6001546001600160a01b03163314610c6c5760405162461bcd60e51b815260206004820152601f60248201527f4f776e61626c652f63616c6c65722d6e6f742d70656e64696e674f776e6572006044820152606401610460565b600154610c81906001600160a01b03166113d6565b6001805473ffffffffffffffffffffffffffffffffffffffff19169055565b33610cb36000546001600160a01b031690565b6001600160a01b031614610d095760405162461bcd60e51b815260206004820152601860248201527f4f776e61626c652f63616c6c65722d6e6f742d6f776e657200000000000000006044820152606401610460565b610d11611433565b610d1a816114ad565b50565b600033610d326000546001600160a01b031690565b6001600160a01b031614610d885760405162461bcd60e51b815260206004820152601860248201527f4f776e61626c652f63616c6c65722d6e6f742d6f776e657200000000000000006044820152606401610460565b610d91826115ad565b92915050565b33610daa6000546001600160a01b031690565b6001600160a01b031614610e005760405162461bcd60e51b815260206004820152601860248201527f4f776e61626c652f63616c6c65722d6e6f742d6f776e657200000000000000006044820152606401610460565b610e0a60006113d6565b565b60035460009068010000000000000000900467ffffffffffffffff16610e325750600090565b600354600454429167ffffffffffffffff80841692610e7e926801000000000000000090049091169074010000000000000000000000000000000000000000900463ffffffff16611d19565b67ffffffffffffffff161091505090565b600061040a61171c565b33610eac6000546001600160a01b031690565b6001600160a01b031614610f025760405162461bcd60e51b815260206004820152601860248201527f4f776e61626c652f63616c6c65722d6e6f742d6f776e657200000000000000006044820152606401610460565b610f0a611433565b60035463ffffffff1615610f605760405162461bcd60e51b815260206004820152601860248201527f44726177426561636f6e2f726e672d696e2d666c6967687400000000000000006044820152606401610460565b6002805473ffffffffffffffffffffffffffffffffffffffff19166001600160a01b0383169081179091556040517ff935763cc7c57ee8ed6318ed71e756cca0731294c9f46ff5b386f36d6ff1417a90600090a250565b33610fca6000546001600160a01b031690565b6001600160a01b0316146110205760405162461bcd60e51b815260206004820152601860248201527f4f776e61626c652f63616c6c65722d6e6f742d6f776e657200000000000000006044820152606401610460565b611028611433565b610d1a8161176a565b600061040a611852565b600061040a6111d0565b600554600454600091610d919167ffffffffffffffff90911690600160c01b900463ffffffff16846111f8565b600061108560035463ffffffff16151590565b801561040a575061040a610b73565b336110a76000546001600160a01b031690565b6001600160a01b0316146110fd5760405162461bcd60e51b815260206004820152601860248201527f4f776e61626c652f63616c6c65722d6e6f742d6f776e657200000000000000006044820152606401610460565b6001600160a01b0381166111795760405162461bcd60e51b815260206004820152602560248201527f4f776e61626c652f70656e64696e674f776e65722d6e6f742d7a65726f2d616460448201527f64726573730000000000000000000000000000000000000000000000000000006064820152608401610460565b6001805473ffffffffffffffffffffffffffffffffffffffff19166001600160a01b0383169081179091556040517f239a2ddded15777fa246aed5f7e1a9bc69a39d4eb4a397034d1d85766cca7d4c90600090a250565b60004267ffffffffffffffff81166111e6611852565b67ffffffffffffffff16111591505090565b60008063ffffffff841661120c8685611dba565b6112169190611d3c565b905061122863ffffffff851682611d8a565b6112329086611d19565b9150505b9392505050565b8015806112df57506040517fdd62ed3e0000000000000000000000000000000000000000000000000000000081523060048201526001600160a01b03838116602483015284169063dd62ed3e9060440160206040518083038186803b1580156112a557600080fd5b505afa1580156112b9573d6000803e3d6000fd5b505050506040513d601f19601f820116820180604052508101906112dd9190611bf7565b155b6113515760405162461bcd60e51b815260206004820152603660248201527f5361666545524332303a20617070726f76652066726f6d206e6f6e2d7a65726f60448201527f20746f206e6f6e2d7a65726f20616c6c6f77616e6365000000000000000000006064820152608401610460565b604080516001600160a01b038416602482015260448082018490528251808303909101815260649091019091526020810180517bffffffffffffffffffffffffffffffffffffffffffffffffffffffff167f095ea7b3000000000000000000000000000000000000000000000000000000001790526113d190849061187d565b505050565b600080546001600160a01b0383811673ffffffffffffffffffffffffffffffffffffffff19831681178455604051919092169283917f8be0079c531659141344cd1fd0a4f28419497f9722a3daafe3b4186f6b6457e09190a35050565b6003544390640100000000900463ffffffff1615806114615750600354640100000000900463ffffffff1681105b610d1a5760405162461bcd60e51b815260206004820152601860248201527f44726177426561636f6e2f726e672d696e2d666c6967687400000000000000006044820152606401610460565b603c8163ffffffff16116115295760405162461bcd60e51b815260206004820152602160248201527f44726177426561636f6e2f726e672d74696d656f75742d67742d36302d73656360448201527f73000000000000000000000000000000000000000000000000000000000000006064820152608401610460565b600480547fffffffffffffffff00000000ffffffffffffffffffffffffffffffffffffffff167401000000000000000000000000000000000000000063ffffffff8416908102919091179091556040519081527f521671714dd36d366adf3fe2efec91d3f58a3131aad68e268821d8144b5d0845906020015b60405180910390a150565b6004546000906001600160a01b039081169083166116335760405162461bcd60e51b815260206004820152602860248201527f44726177426561636f6e2f647261772d686973746f72792d6e6f742d7a65726f60448201527f2d616464726573730000000000000000000000000000000000000000000000006064820152608401610460565b806001600160a01b0316836001600160a01b031614156116bb5760405162461bcd60e51b815260206004820152602860248201527f44726177426561636f6e2f6578697374696e672d647261772d686973746f727960448201527f2d616464726573730000000000000000000000000000000000000000000000006064820152608401610460565b6004805473ffffffffffffffffffffffffffffffffffffffff19166001600160a01b0385811691821790925560405190918316907f493214a1c2ee516671031b0d1ebfa3cce3620eb95e78ca8f7d75e097dc774cec90600090a35090919050565b600080611727611852565b90504267ffffffffffffffff808216908316116117475760009250505090565b6117636117548284611dba565b67ffffffffffffffff16611962565b9250505090565b60008163ffffffff16116117e65760405162461bcd60e51b815260206004820152602a60248201527f44726177426561636f6e2f626561636f6e2d706572696f642d6772656174657260448201527f2d7468616e2d7a65726f000000000000000000000000000000000000000000006064820152608401610460565b600480547fffffffff00000000ffffffffffffffffffffffffffffffffffffffffffffffff16600160c01b63ffffffff8416908102919091179091556040519081527f4727494dbd863e2084366f539d6ec569aaf7ab78582a34f006f004266777cd19906020016115a2565b60045460055460009161040a91600160c01b90910463ffffffff169067ffffffffffffffff16611d19565b60006118d2826040518060400160405280602081526020017f5361666545524332303a206c6f772d6c6576656c2063616c6c206661696c6564815250856001600160a01b03166119e29092919063ffffffff16565b8051909150156113d157808060200190518101906118f09190611bbc565b6113d15760405162461bcd60e51b815260206004820152602a60248201527f5361666545524332303a204552433230206f7065726174696f6e20646964206e60448201527f6f742073756363656564000000000000000000000000000000000000000000006064820152608401610460565b600063ffffffff8211156119de5760405162461bcd60e51b815260206004820152602660248201527f53616665436173743a2076616c756520646f65736e27742066697420696e203360448201527f32206269747300000000000000000000000000000000000000000000000000006064820152608401610460565b5090565b60606119f184846000856119f9565b949350505050565b606082471015611a715760405162461bcd60e51b815260206004820152602660248201527f416464726573733a20696e73756666696369656e742062616c616e636520666f60448201527f722063616c6c00000000000000000000000000000000000000000000000000006064820152608401610460565b843b611abf5760405162461bcd60e51b815260206004820152601d60248201527f416464726573733a2063616c6c20746f206e6f6e2d636f6e74726163740000006044820152606401610460565b600080866001600160a01b03168587604051611adb9190611c84565b60006040518083038185875af1925050503d8060008114611b18576040519150601f19603f3d011682016040523d82523d6000602084013e611b1d565b606091505b5091509150611b2d828286611b38565b979650505050505050565b60608315611b47575081611236565b825115611b575782518084602001fd5b8160405162461bcd60e51b81526004016104609190611ca0565b600060208284031215611b8357600080fd5b813561123681611e42565b60008060408385031215611ba157600080fd5b8251611bac81611e42565b6020939093015192949293505050565b600060208284031215611bce57600080fd5b8151801515811461123657600080fd5b600060208284031215611bf057600080fd5b5035919050565b600060208284031215611c0957600080fd5b5051919050565b600060208284031215611c2257600080fd5b813561123681611e57565b600060208284031215611c3f57600080fd5b815161123681611e57565b60008060408385031215611c5d57600080fd5b8251611c6881611e57565b6020840151909250611c7981611e57565b809150509250929050565b60008251611c96818460208701611de3565b9190910192915050565b6020815260008251806020840152611cbf816040850160208701611de3565b601f017fffffffffffffffffffffffffffffffffffffffffffffffffffffffffffffffe0169190910160400192915050565b600063ffffffff808316818516808303821115611d1057611d10611e13565b01949350505050565b600067ffffffffffffffff808316818516808303821115611d1057611d10611e13565b600067ffffffffffffffff80841680611d7e577f4e487b7100000000000000000000000000000000000000000000000000000000600052601260045260246000fd5b92169190910492915050565b600067ffffffffffffffff80831681851681830481118215151615611db157611db1611e13565b02949350505050565b600067ffffffffffffffff83811690831681811015611ddb57611ddb611e13565b039392505050565b60005b83811015611dfe578181015183820152602001611de6565b83811115611e0d576000848401525b50505050565b7f4e487b7100000000000000000000000000000000000000000000000000000000600052601160045260246000fd5b6001600160a01b0381168114610d1a57600080fd5b63ffffffff81168114610d1a57600080fdfea2646970667358221220900b59b83c3e423456805475bde738c1611bd7b6a480aa47394ee9b2ce89ed0764736f6c6343000806003344726177426561636f6e2f626561636f6e2d706572696f642d67726561746572",
  "devdoc": {
    "author": "PoolTogether Inc Team",
    "events": {
      "Deployed(address,address,uint32,uint64,uint32)": {
        "params": {
          "beaconPeriodSeconds": "Minimum seconds between draw period.",
          "beaconPeriodStartedAt": "Timestamp when beacon period starts.",
          "drawHistory": "Address of the draw history to push draws to.",
          "nextDrawId": "Draw ID at which the DrawBeacon should start. Can't be inferior to 1.",
          "rng": "Address of RNG service."
        }
      }
    },
    "kind": "dev",
    "methods": {
      "beaconPeriodEndAt()": {
        "returns": {
          "_0": "The timestamp at which the beacon period ends."
        }
      },
      "beaconPeriodRemainingSeconds()": {
        "returns": {
          "_0": "The number of seconds remaining until the beacon period can be complete."
        }
      },
      "calculateNextBeaconPeriodStartTime(uint256)": {
        "params": {
          "currentTime": "The timestamp to use as the current time"
        },
        "returns": {
          "_0": "The timestamp at which the next beacon period would start"
        }
      },
      "canCompleteDraw()": {
        "returns": {
          "_0": "True if a Draw can be completed, false otherwise."
        }
      },
      "canStartDraw()": {
        "returns": {
          "_0": "True if a Draw can be started, false otherwise."
        }
      },
      "claimOwnership()": {
        "details": "This function is only callable by the `_pendingOwner`."
      },
      "constructor": {
        "params": {
          "_beaconPeriodSeconds": "The duration of the beacon period in seconds",
          "_beaconPeriodStart": "The starting timestamp of the beacon period.",
          "_drawHistory": "The address of the draw history to push draws to",
          "_nextDrawId": "Draw ID at which the DrawBeacon should start. Can't be inferior to 1.",
          "_owner": "Address of the DrawBeacon owner",
          "_rng": "The RNG service to use"
        }
      },
      "getLastRngLockBlock()": {
        "returns": {
          "_0": "The block number that the RNG request is locked to"
        }
      },
      "getLastRngRequestId()": {
        "returns": {
          "_0": "The current Request ID"
        }
      },
      "isBeaconPeriodOver()": {
        "returns": {
          "_0": "True if the beacon period is over, false otherwise"
        }
      },
      "isRngCompleted()": {
        "returns": {
          "_0": "True if a random number request has completed, false otherwise."
        }
      },
      "isRngRequested()": {
        "returns": {
          "_0": "True if a random number has been requested, false otherwise."
        }
      },
      "isRngTimedOut()": {
        "returns": {
          "_0": "True if a random number request has timed out, false otherwise."
        }
      },
      "pendingOwner()": {
        "returns": {
          "_0": "Current `_pendingOwner` address."
        }
      },
      "renounceOwnership()": {
        "details": "Leaves the contract without owner. It will not be possible to call `onlyOwner` functions anymore. Can only be called by the current owner. NOTE: Renouncing ownership will leave the contract without an owner, thereby removing any functionality that is only available to the owner."
      },
      "setBeaconPeriodSeconds(uint32)": {
        "params": {
          "beaconPeriodSeconds": "The new beacon period in seconds.  Must be greater than zero."
        }
      },
      "setDrawHistory(address)": {
        "details": "All subsequent Draw requests/completions will be pushed to the new DrawHistory.",
        "params": {
          "newDrawHistory": "DrawHistory address"
        },
        "returns": {
          "_0": "DrawHistory"
        }
      },
      "setRngService(address)": {
        "params": {
          "rngService": "The address of the new RNG service interface"
        }
      },
      "setRngTimeout(uint32)": {
        "params": {
          "_rngTimeout": "The RNG request timeout in seconds."
        }
      },
      "startDraw()": {
        "details": "The RNG-Request-Fee is expected to be held within this contract before calling this function"
      },
      "transferOwnership(address)": {
        "params": {
          "_newOwner": "Address to transfer ownership to."
        }
      }
    },
    "stateVariables": {
      "nextDrawId": {
        "details": "Starts at 1. This way we know that no Draw has been recorded at 0."
      },
      "rngTimeout": {
        "details": "If the rng completes the award can still be cancelled."
      }
    },
    "title": "PoolTogether V4 DrawBeacon",
    "version": 1
  },
  "userdoc": {
    "events": {
      "BeaconPeriodSecondsUpdated(uint32)": {
        "notice": "Emit when the drawPeriodSeconds is set."
      },
      "BeaconPeriodStarted(address,uint64)": {
        "notice": "Emit when a draw has opened."
      },
      "Deployed(address,address,uint32,uint64,uint32)": {
        "notice": "Emit when the DrawBeacon is initialized."
      },
      "DrawCancelled(address,uint32,uint32)": {
        "notice": "Emit when a draw has been cancelled."
      },
      "DrawCompleted(address,uint256)": {
        "notice": "Emit when a draw has been completed."
      },
      "DrawHistoryTransferred(address,address)": {
        "notice": "Emit when a new DrawHistory has been set."
      },
      "DrawStarted(address,uint32,uint32)": {
        "notice": "Emit when a draw has started."
      },
      "RngServiceUpdated(address)": {
        "notice": "Emit when a RNG service address is set."
      },
      "RngTimeoutSet(uint32)": {
        "notice": "Emit when a draw timeout param is set."
      }
    },
    "kind": "user",
    "methods": {
      "beaconPeriodEndAt()": {
        "notice": "Returns the timestamp at which the beacon period ends"
      },
      "beaconPeriodRemainingSeconds()": {
        "notice": "Returns the number of seconds remaining until the beacon period can be complete."
      },
      "beaconPeriodSeconds()": {
        "notice": "Seconds between beacon period request"
      },
      "beaconPeriodStartedAt()": {
        "notice": "Epoch timestamp when beacon period can start"
      },
      "calculateNextBeaconPeriodStartTime(uint256)": {
        "notice": "Calculates when the next beacon period will start."
      },
      "canCompleteDraw()": {
        "notice": "Returns whether an Draw request can be completed."
      },
      "canStartDraw()": {
        "notice": "Returns whether an Draw request can be started."
      },
      "cancelDraw()": {
        "notice": "Can be called by anyone to cancel the draw request if the RNG has timed out."
      },
      "claimOwnership()": {
        "notice": "Allows the `_pendingOwner` address to finalize the transfer."
      },
      "completeDraw()": {
        "notice": "Completes the Draw (RNG) request and pushes a Draw onto DrawHistory."
      },
      "constructor": {
        "notice": "Deploy the DrawBeacon smart contract."
      },
      "drawHistory()": {
        "notice": "DrawHistory address"
      },
      "getLastRngLockBlock()": {
        "notice": "Returns the block number that the current RNG request has been locked to."
      },
      "getLastRngRequestId()": {
        "notice": "Returns the current RNG Request ID."
      },
      "isBeaconPeriodOver()": {
        "notice": "Returns whether the beacon period is over"
      },
      "isRngCompleted()": {
        "notice": "Returns whether the random number request has completed."
      },
      "isRngRequested()": {
        "notice": "Returns whether a random number has been requested"
      },
      "isRngTimedOut()": {
        "notice": "Returns whether the random number request has timed out."
      },
      "nextDrawId()": {
        "notice": "Next Draw ID to use when pushing a Draw onto DrawHistory"
      },
      "owner()": {
        "notice": "Returns the address of the current owner."
      },
      "pendingOwner()": {
        "notice": "Gets current `_pendingOwner`."
      },
      "renounceOwnership()": {
        "notice": "Renounce ownership of the contract."
      },
      "rng()": {
        "notice": "RNG contract interface"
      },
      "rngTimeout()": {
        "notice": "RNG Request Timeout.  In fact, this is really a \"complete draw\" timeout."
      },
      "setBeaconPeriodSeconds(uint32)": {
        "notice": "Allows the owner to set the beacon period in seconds."
      },
      "setDrawHistory(address)": {
        "notice": "Set global DrawHistory variable."
      },
      "setRngService(address)": {
        "notice": "Sets the RNG service that the Prize Strategy is connected to"
      },
      "setRngTimeout(uint32)": {
        "notice": "Allows the owner to set the RNG request timeout in seconds. This is the time that must elapsed before the RNG request can be cancelled and the pool unlocked."
      },
      "startDraw()": {
        "notice": "Starts the Draw process by starting random number request. The previous beacon period must have ended."
      },
      "transferOwnership(address)": {
        "notice": "Allows current owner to set the `_pendingOwner` address."
      }
    },
    "notice": "Manages RNG (random number generator) requests and pushing Draws onto DrawHistory. The DrawBeacon has 3 major phases for requesting a random number: start, cancel and complete. Once the complete phase is executed a new Draw (using nextDrawId) is pushed to the currently set DrawHistory smart contracts. If the RNG service requires payment (i.e. ChainLink) the DrawBeacon should have an available balance to cover the fees associated with random number generation.",
    "version": 1
  },
  "storageLayout": {
    "storage": [
      {
        "astId": 3466,
        "contract": "@pooltogether/v4-core/contracts/DrawBeacon.sol:DrawBeacon",
        "label": "_owner",
        "offset": 0,
        "slot": "0",
        "type": "t_address"
      },
      {
        "astId": 3468,
        "contract": "@pooltogether/v4-core/contracts/DrawBeacon.sol:DrawBeacon",
        "label": "_pendingOwner",
        "offset": 0,
        "slot": "1",
        "type": "t_address"
      },
      {
        "astId": 3880,
        "contract": "@pooltogether/v4-core/contracts/DrawBeacon.sol:DrawBeacon",
        "label": "rng",
        "offset": 0,
        "slot": "2",
        "type": "t_contract(RNGInterface)3672"
      },
      {
        "astId": 3884,
        "contract": "@pooltogether/v4-core/contracts/DrawBeacon.sol:DrawBeacon",
        "label": "rngRequest",
        "offset": 0,
        "slot": "3",
        "type": "t_struct(RngRequest)3907_storage"
      },
      {
        "astId": 3888,
        "contract": "@pooltogether/v4-core/contracts/DrawBeacon.sol:DrawBeacon",
        "label": "drawHistory",
        "offset": 0,
        "slot": "4",
        "type": "t_contract(IDrawHistory)8958"
      },
      {
        "astId": 3891,
        "contract": "@pooltogether/v4-core/contracts/DrawBeacon.sol:DrawBeacon",
        "label": "rngTimeout",
        "offset": 20,
        "slot": "4",
        "type": "t_uint32"
      },
      {
        "astId": 3894,
        "contract": "@pooltogether/v4-core/contracts/DrawBeacon.sol:DrawBeacon",
        "label": "beaconPeriodSeconds",
        "offset": 24,
        "slot": "4",
        "type": "t_uint32"
      },
      {
        "astId": 3897,
        "contract": "@pooltogether/v4-core/contracts/DrawBeacon.sol:DrawBeacon",
        "label": "beaconPeriodStartedAt",
        "offset": 0,
        "slot": "5",
        "type": "t_uint64"
      },
      {
        "astId": 3900,
        "contract": "@pooltogether/v4-core/contracts/DrawBeacon.sol:DrawBeacon",
        "label": "nextDrawId",
        "offset": 8,
        "slot": "5",
        "type": "t_uint32"
      }
    ],
    "types": {
      "t_address": {
        "encoding": "inplace",
        "label": "address",
        "numberOfBytes": "20"
      },
      "t_contract(IDrawHistory)8958": {
        "encoding": "inplace",
        "label": "contract IDrawHistory",
        "numberOfBytes": "20"
      },
      "t_contract(RNGInterface)3672": {
        "encoding": "inplace",
        "label": "contract RNGInterface",
        "numberOfBytes": "20"
      },
      "t_struct(RngRequest)3907_storage": {
        "encoding": "inplace",
        "label": "struct DrawBeacon.RngRequest",
        "members": [
          {
            "astId": 3902,
            "contract": "@pooltogether/v4-core/contracts/DrawBeacon.sol:DrawBeacon",
            "label": "id",
            "offset": 0,
            "slot": "0",
            "type": "t_uint32"
          },
          {
            "astId": 3904,
            "contract": "@pooltogether/v4-core/contracts/DrawBeacon.sol:DrawBeacon",
            "label": "lockBlock",
            "offset": 4,
            "slot": "0",
            "type": "t_uint32"
          },
          {
            "astId": 3906,
            "contract": "@pooltogether/v4-core/contracts/DrawBeacon.sol:DrawBeacon",
            "label": "requestedAt",
            "offset": 8,
            "slot": "0",
            "type": "t_uint64"
          }
        ],
        "numberOfBytes": "32"
      },
      "t_uint32": {
        "encoding": "inplace",
        "label": "uint32",
        "numberOfBytes": "4"
      },
      "t_uint64": {
        "encoding": "inplace",
        "label": "uint64",
        "numberOfBytes": "8"
      }
    }
  }
}