{
  "address": "0x0C5Bc167E996987e664705f928e33e138d2f542E",
  "abi": [
    {
      "inputs": [
        {
          "internalType": "address",
          "name": "_owner",
          "type": "address"
        },
        {
          "internalType": "contract ITicket",
          "name": "_ticket",
          "type": "address"
        },
        {
          "internalType": "contract IDrawHistory",
          "name": "_drawHistory",
          "type": "address"
        },
        {
          "internalType": "contract PrizeDistributionHistory",
          "name": "_prizeDistributionHistory",
          "type": "address"
        }
      ],
      "stateMutability": "nonpayable",
      "type": "constructor"
    },
    {
      "anonymous": false,
      "inputs": [
        {
          "indexed": true,
          "internalType": "contract ITicket",
          "name": "ticket",
          "type": "address"
        }
      ],
      "name": "Deployed",
      "type": "event"
    },
    {
      "anonymous": false,
      "inputs": [
        {
          "indexed": true,
          "internalType": "contract IDrawHistory",
          "name": "drawHistory",
          "type": "address"
        }
      ],
      "name": "DrawHistorySet",
      "type": "event"
    },
    {
      "anonymous": false,
      "inputs": [
        {
          "indexed": true,
          "internalType": "contract DrawPrize",
          "name": "drawPrize",
          "type": "address"
        }
      ],
      "name": "DrawPrizeSet",
      "type": "event"
    },
    {
      "anonymous": false,
      "inputs": [
        {
          "indexed": true,
          "internalType": "address",
          "name": "pendingOwner",
          "type": "address"
        }
      ],
      "name": "OwnershipOffered",
      "type": "event"
    },
    {
      "anonymous": false,
      "inputs": [
        {
          "indexed": true,
          "internalType": "address",
          "name": "previousOwner",
          "type": "address"
        },
        {
          "indexed": true,
          "internalType": "address",
          "name": "newOwner",
          "type": "address"
        }
      ],
      "name": "OwnershipTransferred",
      "type": "event"
    },
    {
      "inputs": [],
      "name": "DISTRIBUTIONS_LENGTH",
      "outputs": [
        {
          "internalType": "uint8",
          "name": "",
          "type": "uint8"
        }
      ],
      "stateMutability": "view",
      "type": "function"
    },
    {
      "inputs": [
        {
          "internalType": "address",
          "name": "_user",
          "type": "address"
        },
        {
          "internalType": "uint32[]",
          "name": "_drawIds",
          "type": "uint32[]"
        },
        {
          "internalType": "bytes",
          "name": "_pickIndicesForDraws",
          "type": "bytes"
        }
      ],
      "name": "calculate",
      "outputs": [
        {
          "internalType": "uint256[]",
          "name": "",
          "type": "uint256[]"
        }
      ],
      "stateMutability": "view",
      "type": "function"
    },
    {
      "inputs": [
        {
          "internalType": "address",
          "name": "_user",
          "type": "address"
        },
        {
          "internalType": "uint64[]",
          "name": "_pickIndices",
          "type": "uint64[]"
        },
        {
          "internalType": "uint32",
          "name": "_drawId",
          "type": "uint32"
        }
      ],
      "name": "checkPrizeDistributionIndicesForDrawId",
      "outputs": [
        {
          "components": [
            {
              "internalType": "bool",
              "name": "won",
              "type": "bool"
            },
            {
              "internalType": "uint8",
              "name": "distributionIndex",
              "type": "uint8"
            }
          ],
          "internalType": "struct IDrawCalculator.PickPrize[]",
          "name": "",
          "type": "tuple[]"
        }
      ],
      "stateMutability": "view",
      "type": "function"
    },
    {
      "inputs": [],
      "name": "claimOwnership",
      "outputs": [],
      "stateMutability": "nonpayable",
      "type": "function"
    },
    {
      "inputs": [],
      "name": "getDrawHistory",
      "outputs": [
        {
          "internalType": "contract IDrawHistory",
          "name": "",
          "type": "address"
        }
      ],
      "stateMutability": "view",
      "type": "function"
    },
    {
      "inputs": [
        {
          "internalType": "address",
          "name": "_user",
          "type": "address"
        },
        {
          "internalType": "uint32[]",
          "name": "_drawIds",
          "type": "uint32[]"
        }
      ],
      "name": "getNormalizedBalancesForDrawIds",
      "outputs": [
        {
          "internalType": "uint256[]",
          "name": "",
          "type": "uint256[]"
        }
      ],
      "stateMutability": "view",
      "type": "function"
    },
    {
      "inputs": [],
      "name": "getPrizeDistributionHistory",
      "outputs": [
        {
          "internalType": "contract PrizeDistributionHistory",
          "name": "",
          "type": "address"
        }
      ],
      "stateMutability": "view",
      "type": "function"
    },
    {
      "inputs": [],
      "name": "owner",
      "outputs": [
        {
          "internalType": "address",
          "name": "",
          "type": "address"
        }
      ],
      "stateMutability": "view",
      "type": "function"
    },
    {
      "inputs": [],
      "name": "pendingOwner",
      "outputs": [
        {
          "internalType": "address",
          "name": "",
          "type": "address"
        }
      ],
      "stateMutability": "view",
      "type": "function"
    },
    {
      "inputs": [],
      "name": "renounceOwnership",
      "outputs": [],
      "stateMutability": "nonpayable",
      "type": "function"
    },
    {
      "inputs": [
        {
          "internalType": "contract IDrawHistory",
          "name": "_drawHistory",
          "type": "address"
        }
      ],
      "name": "setDrawHistory",
      "outputs": [
        {
          "internalType": "contract IDrawHistory",
          "name": "",
          "type": "address"
        }
      ],
      "stateMutability": "nonpayable",
      "type": "function"
    },
    {
      "inputs": [
        {
          "internalType": "address",
          "name": "_newOwner",
          "type": "address"
        }
      ],
      "name": "transferOwnership",
      "outputs": [],
      "stateMutability": "nonpayable",
      "type": "function"
    }
  ],
  "transactionHash": "0x7386f0bb715172ce4f85ef66eda82959de6efcfbe53337eaa7e868300e42b193",
  "args": [
    "0xE0F4217390221aF47855E094F6e112D43C8698fE",
    "0x8E974cf6f8F4C711256d4d47532a0e75AC055b13",
    "0x2FAd3e7B44751F15424232Ba16414Be72bB2d806",
    "0x1bB98333337406178754B4ECcE125a30a961f1FC"
  ],
  "solcInputHash": "3016cc01e6fa1ea04dcb1ee229d02cd3",
  "bytecode": "0x60c06040523480156200001157600080fd5b50604051620028d1380380620028d183398101604081905262000034916200024a565b83620000408162000158565b506001600160a01b0383166200009d5760405162461bcd60e51b815260206004820152601860248201527f4472617743616c632f7469636b65742d6e6f742d7a65726f000000000000000060448201526064015b60405180910390fd5b6001600160a01b038116620000f55760405162461bcd60e51b815260206004820152601660248201527f4472617743616c632f746473682d6e6f742d7a65726f00000000000000000000604482015260640162000094565b6200010082620001a8565b6001600160601b0319606082811b821660a05284901b166080526040516001600160a01b038416907ff40fcec21964ffb566044d083b4073f29f7f7929110ea19e1b3ebe375d89055e90600090a250505050620002cb565b600080546001600160a01b038381166001600160a01b0319831681178455604051919092169283917f8be0079c531659141344cd1fd0a4f28419497f9722a3daafe3b4186f6b6457e09190a35050565b6001600160a01b038116620002005760405162461bcd60e51b815260206004820152601460248201527f4472617743616c632f64682d6e6f742d7a65726f000000000000000000000000604482015260640162000094565b600280546001600160a01b0319166001600160a01b0383169081179091556040517fba0e8f3a74973e2a13826a827919baef53ee4eb218c95ac51cd17e62e7457e6690600090a250565b600080600080608085870312156200026157600080fd5b84516200026e81620002b2565b60208601519094506200028181620002b2565b60408601519093506200029481620002b2565b6060860151909250620002a781620002b2565b939692955090935050565b6001600160a01b0381168114620002c857600080fd5b50565b60805160601c60a05160601c6125be620003136000396000818161014f01528181610361015281816108a10152610a6f015260008181610eed0152610f8001526125be6000f3fe608060405234801561001057600080fd5b50600436106100d45760003560e01c80638045fbcf11610081578063b10820de1161005b578063b10820de146101bf578063e30c3978146101d0578063f2fde38b146101e157600080fd5b80638045fbcf1461017b5780638da5cb5b1461019b578063aaca392e146101ac57600080fd5b80635ea5c74e116100b25780635ea5c74e146101225780636c87b2211461014d578063715018a61461017357600080fd5b80633d350c4e146100d95780634e71e0c8146100f857806357b8718214610102575b600080fd5b6100e1601081565b60405160ff90911681526020015b60405180910390f35b6101006101f4565b005b610115610110366004611c13565b610287565b6040516100ef91906120e4565b610135610130366004611af4565b61071e565b6040516001600160a01b0390911681526020016100ef565b7f0000000000000000000000000000000000000000000000000000000000000000610135565b61010061079a565b61018e610189366004611b11565b61080f565b6040516100ef9190612138565b6000546001600160a01b0316610135565b61018e6101ba366004611b66565b61095a565b6002546001600160a01b0316610135565b6001546001600160a01b0316610135565b6101006101ef366004611af4565b610b77565b6001546001600160a01b031633146102535760405162461bcd60e51b815260206004820152601f60248201527f4f776e61626c652f63616c6c65722d6e6f742d70656e64696e674f776e65720060448201526064015b60405180910390fd5b600154610268906001600160a01b0316610cb3565b6001805473ffffffffffffffffffffffffffffffffffffffff19169055565b604080516001808252818301909252606091600091906020808301908036833701905050905082816000815181106102c1576102c161251c565b63ffffffff9092166020928302919091019091015260025460405163d0bb78f360e01b81526000916001600160a01b03169063d0bb78f3906103079085906004016121bc565b60006040518083038186803b15801561031f57600080fd5b505afa158015610333573d6000803e3d6000fd5b505050506040513d6000823e601f3d908101601f1916820160405261035b9190810190611d9b565b905060007f00000000000000000000000000000000000000000000000000000000000000006001600160a01b031663d30a5daf846040518263ffffffff1660e01b81526004016103ab91906121bc565b60006040518083038186803b1580156103c357600080fd5b505afa1580156103d7573d6000803e3d6000fd5b505050506040513d6000823e601f3d908101601f191682016040526103ff9190810190611e96565b9050600061040e898484610d10565b90506000610450836000815181106104285761042861251c565b6020026020010151836000815181106104435761044361251c565b602002602001015161116c565b905060006104778460008151811061046a5761046a61251c565b60200260200101516111ad565b905060008967ffffffffffffffff81111561049457610494612532565b6040519080825280602002602001820160405280156104d957816020015b60408051808201909152600080825260208201528152602001906001900390816104b25790505b506040516bffffffffffffffffffffffff1960608f901b16602082015290915060009060340160405160208183030381529060405280519060200120905060005b67ffffffffffffffff81168c111561070c576000828e8e8467ffffffffffffffff1681811061054b5761054b61251c565b90506020020160208101906105609190612048565b60405160200161058492919091825267ffffffffffffffff16602082015260400190565b6040516020818303038152906040528051906020012060001c9050858e8e8467ffffffffffffffff168181106105bc576105bc61251c565b90506020020160208101906105d19190612048565b67ffffffffffffffff16106106285760405162461bcd60e51b815260206004820181905260248201527f4472617743616c632f696e73756666696369656e742d757365722d7069636b73604482015260640161024a565b6000610653828b6000815181106106415761064161251c565b60200260200101516000015188611285565b60ff16905060405180604001604052808a6000815181106106765761067661251c565b50506010831080156106c2575060008b6000815181106106985761069861251c565b602002602001015160c0015184601081106106b5576106b561251c565b602002015163ffffffff16115b151581526020018260ff16815250858467ffffffffffffffff16815181106106ec576106ec61251c565b602002602001018190525050508080610704906124c8565b91505061051a565b50909c9b505050505050505050505050565b6000336107336000546001600160a01b031690565b6001600160a01b0316146107895760405162461bcd60e51b815260206004820152601860248201527f4f776e61626c652f63616c6c65722d6e6f742d6f776e65720000000000000000604482015260640161024a565b61079282611309565b50805b919050565b336107ad6000546001600160a01b031690565b6001600160a01b0316146108035760405162461bcd60e51b815260206004820152601860248201527f4f776e61626c652f63616c6c65722d6e6f742d6f776e65720000000000000000604482015260640161024a565b61080d6000610cb3565b565b60025460405163d0bb78f360e01b81526060916000916001600160a01b039091169063d0bb78f390610847908790879060040161217c565b60006040518083038186803b15801561085f57600080fd5b505afa158015610873573d6000803e3d6000fd5b505050506040513d6000823e601f3d908101601f1916820160405261089b9190810190611d9b565b905060007f00000000000000000000000000000000000000000000000000000000000000006001600160a01b031663d30a5daf86866040518363ffffffff1660e01b81526004016108ed92919061217c565b60006040518083038186803b15801561090557600080fd5b505afa158015610919573d6000803e3d6000fd5b505050506040513d6000823e601f3d908101601f191682016040526109419190810190611e96565b905061094e868383610d10565b925050505b9392505050565b6060600061096a83850185611c7b565b805190915085146109e25760405162461bcd60e51b8152602060048201526024808201527f4472617743616c632f696e76616c69642d7069636b2d696e64696365732d6c6560448201527f6e67746800000000000000000000000000000000000000000000000000000000606482015260840161024a565b60025460405163d0bb78f360e01b81526000916001600160a01b03169063d0bb78f390610a15908a908a9060040161217c565b60006040518083038186803b158015610a2d57600080fd5b505afa158015610a41573d6000803e3d6000fd5b505050506040513d6000823e601f3d908101601f19168201604052610a699190810190611d9b565b905060007f00000000000000000000000000000000000000000000000000000000000000006001600160a01b031663d30a5daf89896040518363ffffffff1660e01b8152600401610abb92919061217c565b60006040518083038186803b158015610ad357600080fd5b505afa158015610ae7573d6000803e3d6000fd5b505050506040513d6000823e601f3d908101601f19168201604052610b0f9190810190611e96565b90506000610b1e8a8484610d10565b6040516bffffffffffffffffffffffff1960608d901b166020820152909150600090603401604051602081830303815290604052805190602001209050610b6882828688876113b6565b9b9a5050505050505050505050565b33610b8a6000546001600160a01b031690565b6001600160a01b031614610be05760405162461bcd60e51b815260206004820152601860248201527f4f776e61626c652f63616c6c65722d6e6f742d6f776e65720000000000000000604482015260640161024a565b6001600160a01b038116610c5c5760405162461bcd60e51b815260206004820152602560248201527f4f776e61626c652f70656e64696e674f776e65722d6e6f742d7a65726f2d616460448201527f6472657373000000000000000000000000000000000000000000000000000000606482015260840161024a565b6001805473ffffffffffffffffffffffffffffffffffffffff19166001600160a01b0383169081179091556040517f239a2ddded15777fa246aed5f7e1a9bc69a39d4eb4a397034d1d85766cca7d4c90600090a250565b600080546001600160a01b0383811673ffffffffffffffffffffffffffffffffffffffff19831681178455604051919092169283917f8be0079c531659141344cd1fd0a4f28419497f9722a3daafe3b4186f6b6457e09190a35050565b60606000835167ffffffffffffffff811115610d2e57610d2e612532565b604051908082528060200260200182016040528015610d57578160200160208202803683370190505b5090506000845167ffffffffffffffff811115610d7657610d76612532565b604051908082528060200260200182016040528015610d9f578160200160208202803683370190505b50905060005b85518163ffffffff161015610eb957848163ffffffff1681518110610dcc57610dcc61251c565b60200260200101516040015163ffffffff16868263ffffffff1681518110610df657610df661251c565b60200260200101516040015103838263ffffffff1681518110610e1b57610e1b61251c565b63ffffffff9283166020918202929092010152855186918316908110610e4357610e4361251c565b60200260200101516060015163ffffffff16868263ffffffff1681518110610e6d57610e6d61251c565b60200260200101516040015103828263ffffffff1681518110610e9257610e9261251c565b63ffffffff9092166020928302919091019091015280610eb1816124a4565b915050610da5565b506040517f6cdd0be20000000000000000000000000000000000000000000000000000000081526000906001600160a01b037f00000000000000000000000000000000000000000000000000000000000000001690636cdd0be290610f26908a90879087906004016120a6565b60006040518083038186803b158015610f3e57600080fd5b505afa158015610f52573d6000803e3d6000fd5b505050506040513d6000823e601f3d908101601f19168201604052610f7a9190810190611fb0565b905060007f00000000000000000000000000000000000000000000000000000000000000006001600160a01b0316637966cd6785856040518363ffffffff1660e01b8152600401610fcc9291906121cf565b60006040518083038186803b158015610fe457600080fd5b505afa158015610ff8573d6000803e3d6000fd5b505050506040513d6000823e601f3d908101601f191682016040526110209190810190611fb0565b90506000875167ffffffffffffffff81111561103e5761103e612532565b604051908082528060200260200182016040528015611067578160200160208202803683370190505b50905060005b885181101561115f57600083828151811061108a5761108a61251c565b6020026020010151116110df5760405162461bcd60e51b815260206004820152601a60248201527f4472617743616c632f746f74616c2d737570706c792d7a65726f000000000000604482015260640161024a565b8281815181106110f1576110f161251c565b602002602001015184828151811061110b5761110b61251c565b6020026020010151670de0b6b3a764000061112691906123f0565b61113091906122d3565b8282815181106111425761114261251c565b60209081029190910101528061115781612489565b91505061106d565b5098975050505050505050565b6000670de0b6b3a76400008360a0015170ffffffffffffffffffffffffffffffffff168361119a91906123f0565b6111a491906122d3565b90505b92915050565b60606000826020015160ff1667ffffffffffffffff8111156111d1576111d1612532565b6040519080825280602002602001820160405280156111fa578160200160208202803683370190505b50905060006001846000015160026112129190612344565b61121c919061240f565b905060005b846020015160ff1681101561127c5784516000906112429060ff16836123f0565b90508061ffff1683901b84838151811061125e5761125e61251c565b6020908102919091010152508061127481612489565b915050611221565b50909392505050565b80516000908190815b8160ff168160ff1610156112fe576000858260ff16815181106112b3576112b361251c565b60200260200101519050808716818916146112dd576112d2848461244f565b945050505050610953565b836112e7816124e6565b9450505080806112f6906124e6565b91505061128e565b5061094e828261244f565b6001600160a01b03811661135f5760405162461bcd60e51b815260206004820152601460248201527f4472617743616c632f64682d6e6f742d7a65726f000000000000000000000000604482015260640161024a565b6002805473ffffffffffffffffffffffffffffffffffffffff19166001600160a01b0383169081179091556040517fba0e8f3a74973e2a13826a827919baef53ee4eb218c95ac51cd17e62e7457e6690600090a250565b60606000865167ffffffffffffffff8111156113d4576113d4612532565b6040519080825280602002602001820160405280156113fd578160200160208202803683370190505b50905060005b85518163ffffffff1610156114f557600061144f858363ffffffff168151811061142f5761142f61251c565b60200260200101518a8463ffffffff16815181106104435761044361251c565b90506114bf878363ffffffff168151811061146c5761146c61251c565b602002602001015160000151828a898663ffffffff16815181106114925761149261251c565b6020026020010151898763ffffffff16815181106114b2576114b261251c565b6020026020010151611500565b838363ffffffff16815181106114d7576114d761251c565b602090810291909101015250806114ed816124a4565b915050611403565b509695505050505050565b604080516010808252610220820190925260009182919060208201610200803683370190505090506000611533846111ad565b90506000855190506000856080015163ffffffff168211156115975760405162461bcd60e51b815260206004820152601f60248201527f4472617743616c632f657863656564732d6d61782d757365722d7069636b7300604482015260640161024a565b60005b828167ffffffffffffffff1610156117c15789888267ffffffffffffffff16815181106115c9576115c961251c565b602002602001015167ffffffffffffffff16106116285760405162461bcd60e51b815260206004820181905260248201527f4472617743616c632f696e73756666696369656e742d757365722d7069636b73604482015260640161024a565b67ffffffffffffffff8116156116eb5787611644600183612426565b67ffffffffffffffff168151811061165e5761165e61251c565b602002602001015167ffffffffffffffff16888267ffffffffffffffff168151811061168c5761168c61251c565b602002602001015167ffffffffffffffff16116116eb5760405162461bcd60e51b815260206004820152601860248201527f4472617743616c632f7069636b732d617363656e64696e670000000000000000604482015260640161024a565b600089898367ffffffffffffffff168151811061170a5761170a61251c565b602002602001015160405160200161173692919091825267ffffffffffffffff16602082015260400190565b6040516020818303038152906040528051906020012060001c9050600061175e828e88611285565b9050601060ff821610156117ac578360ff168160ff16111561177e578093505b868160ff16815181106117935761179361251c565b6020026020010180518091906117a890612489565b9052505b505080806117b9906124c8565b91505061159a565b506000806117cf888461188d565b905060005b8360ff16811161185d5760008782815181106117f2576117f261251c565b6020026020010151111561184b578681815181106118125761181261251c565b602002602001015182828151811061182c5761182c61251c565b602002602001015161183e91906123f0565b6118489084612296565b92505b8061185581612489565b9150506117d4565b50633b9aca008860e001518361187391906123f0565b61187d91906122d3565b9c9b505050505050505050505050565b6060600061189c8360016122ae565b60ff1667ffffffffffffffff8111156118b7576118b7612532565b6040519080825280602002602001820160405280156118e0578160200160208202803683370190505b50905060005b8360ff168160ff161161193257611900858260ff1661193a565b828260ff16815181106119155761191561251c565b60209081029190910101528061192a816124e6565b9150506118e6565b509392505050565b6000808360c0015183601081106119535761195361251c565b602002015163ffffffff1690506000611970856000015185611985565b905061197c81836122d3565b95945050505050565b60008061199660ff85166002612338565b905060006119a48483612338565b90505b83156119e0576119b860018561240f565b6119c29083612338565b6119cc908261240f565b9050836119d881612472565b9450506119a7565b949350505050565b600082601f8301126119f957600080fd5b60405161020080820182811067ffffffffffffffff82111715611a1e57611a1e612532565b6040528184828101871015611a3257600080fd5b600092505b6010831015611a60578051611a4b81612560565b82526001929092019160209182019101611a37565b509195945050505050565b60008083601f840112611a7d57600080fd5b50813567ffffffffffffffff811115611a9557600080fd5b6020830191508360208260051b8501011115611ab057600080fd5b9250929050565b805170ffffffffffffffffffffffffffffffffff8116811461079557600080fd5b805161079581612560565b805160ff8116811461079557600080fd5b600060208284031215611b0657600080fd5b813561095381612548565b600080600060408486031215611b2657600080fd5b8335611b3181612548565b9250602084013567ffffffffffffffff811115611b4d57600080fd5b611b5986828701611a6b565b9497909650939450505050565b600080600080600060608688031215611b7e57600080fd5b8535611b8981612548565b9450602086013567ffffffffffffffff80821115611ba657600080fd5b611bb289838a01611a6b565b90965094506040880135915080821115611bcb57600080fd5b818801915088601f830112611bdf57600080fd5b813581811115611bee57600080fd5b896020828501011115611c0057600080fd5b9699959850939650602001949392505050565b60008060008060608587031215611c2957600080fd5b8435611c3481612548565b9350602085013567ffffffffffffffff811115611c5057600080fd5b611c5c87828801611a6b565b9094509250506040850135611c7081612560565b939692955090935050565b60006020808385031215611c8e57600080fd5b823567ffffffffffffffff80821115611ca657600080fd5b818501915085601f830112611cba57600080fd5b8135611ccd611cc882612272565b612241565b80828252858201915085850189878560051b8801011115611ced57600080fd5b60005b84811015611d8c57813586811115611d0757600080fd5b8701603f81018c13611d1857600080fd5b88810135611d28611cc882612272565b808282528b82019150604084018f60408560051b8701011115611d4a57600080fd5b600094505b83851015611d76578035611d6281612572565b835260019490940193918c01918c01611d4f565b5087525050509287019290870190600101611cf0565b50909998505050505050505050565b60006020808385031215611dae57600080fd5b825167ffffffffffffffff811115611dc557600080fd5b8301601f81018513611dd657600080fd5b8051611de4611cc882612272565b8181528381019083850160a0808502860187018a1015611e0357600080fd5b60009550855b85811015611e875781838c031215611e1f578687fd5b611e276121f4565b8351815288840151611e3881612560565b818a0152604084810151611e4b81612572565b90820152606084810151611e5e81612572565b90820152608084810151611e7181612560565b9082015285529387019391810191600101611e09565b50919998505050505050505050565b60006020808385031215611ea957600080fd5b825167ffffffffffffffff811115611ec057600080fd5b8301601f81018513611ed157600080fd5b8051611edf611cc882612272565b818152838101908385016102e0808502860187018a1015611eff57600080fd5b60009550855b85811015611e875781838c031215611f1b578687fd5b611f2361221d565b611f2c84611ae3565b8152611f39898501611ae3565b898201526040611f4a818601611ad8565b908201526060611f5b858201611ad8565b908201526080611f6c858201611ad8565b9082015260a0611f7d858201611ab7565b9082015260c0611f8f8d8683016119e8565b908201526102c084015160e082015285529387019391810191600101611f05565b60006020808385031215611fc357600080fd5b825167ffffffffffffffff811115611fda57600080fd5b8301601f81018513611feb57600080fd5b8051611ff9611cc882612272565b80828252848201915084840188868560051b870101111561201957600080fd5b600094505b8385101561203c57805183526001949094019391850191850161201e565b50979650505050505050565b60006020828403121561205a57600080fd5b813561095381612572565b600081518084526020808501945080840160005b8381101561209b57815163ffffffff1687529582019590820190600101612079565b509495945050505050565b6001600160a01b03841681526060602082015260006120c86060830185612065565b82810360408401526120da8185612065565b9695505050505050565b602080825282518282018190526000919060409081850190868401855b8281101561212b57815180511515855286015160ff16868501529284019290850190600101612101565b5091979650505050505050565b6020808252825182820181905260009190848201906040850190845b8181101561217057835183529284019291840191600101612154565b50909695505050505050565b60208082528181018390526000908460408401835b868110156114f55782356121a481612560565b63ffffffff1682529183019190830190600101612191565b6020815260006111a46020830184612065565b6040815260006121e26040830185612065565b828103602084015261197c8185612065565b60405160a0810167ffffffffffffffff8111828210171561221757612217612532565b60405290565b604051610100810167ffffffffffffffff8111828210171561221757612217612532565b604051601f8201601f1916810167ffffffffffffffff8111828210171561226a5761226a612532565b604052919050565b600067ffffffffffffffff82111561228c5761228c612532565b5060051b60200190565b600082198211156122a9576122a9612506565b500190565b600060ff821660ff84168060ff038211156122cb576122cb612506565b019392505050565b6000826122f057634e487b7160e01b600052601260045260246000fd5b500490565b600181815b8085111561233057816000190482111561231657612316612506565b8085161561232357918102915b93841c93908002906122fa565b509250929050565b60006111a4838361234f565b60006111a460ff8416835b60008261235e575060016111a7565b8161236b575060006111a7565b8160018114612381576002811461238b576123a7565b60019150506111a7565b60ff84111561239c5761239c612506565b50506001821b6111a7565b5060208310610133831016604e8410600b84101617156123ca575081810a6111a7565b6123d483836122f5565b80600019048211156123e8576123e8612506565b029392505050565b600081600019048311821515161561240a5761240a612506565b500290565b60008282101561242157612421612506565b500390565b600067ffffffffffffffff8381169083168181101561244757612447612506565b039392505050565b600060ff821660ff84168082101561246957612469612506565b90039392505050565b60008161248157612481612506565b506000190190565b600060001982141561249d5761249d612506565b5060010190565b600063ffffffff808316818114156124be576124be612506565b6001019392505050565b600067ffffffffffffffff808316818114156124be576124be612506565b600060ff821660ff8114156124fd576124fd612506565b60010192915050565b634e487b7160e01b600052601160045260246000fd5b634e487b7160e01b600052603260045260246000fd5b634e487b7160e01b600052604160045260246000fd5b6001600160a01b038116811461255d57600080fd5b50565b63ffffffff8116811461255d57600080fd5b67ffffffffffffffff8116811461255d57600080fdfea26469706673582212203d3d34849a06c82bbb14fa00c7a7e501bfbc9e16b69e8bd9cabce3fefc05ee5864736f6c63430008060033",
  "devdoc": {
    "author": "PoolTogether Inc Team",
    "events": {
      "DrawHistorySet(address)": {
        "params": {
          "drawHistory": "DrawHistory address"
        }
      }
    },
    "kind": "dev",
    "methods": {
      "calculate(address,uint32[],bytes)": {
        "params": {
          "data": "The encoded pick indices for all Draws. Expected to be just indices of winning claims. Populated values must be less than totalUserPicks.",
          "drawIds": "draw array for which to calculate prize amounts for",
          "user": "User for which to calcualte prize amount"
        },
        "returns": {
          "_0": "List of awardable prizes ordered by linked drawId"
        }
      },
      "checkPrizeDistributionIndicesForDrawId(address,uint64[],uint32)": {
        "params": {
          "_drawId": "The draw for which to calculate the distribution indices",
          "_pickIndices": "The users pick indices for a draw",
          "_user": "The user for which to calculate the distribution indices"
        },
        "returns": {
          "_0": "List of distributions for Draw.drawId"
        }
      },
      "claimOwnership()": {
        "details": "This function is only callable by the `_pendingOwner`."
      },
      "constructor": {
        "params": {
          "_drawHistory": "The address of the draw history to push draws to",
          "_owner": "Address of the DrawCalculator owner",
          "_prizeDistributionHistory": "PrizeDistributionHistory address",
          "_ticket": "Ticket associated with this DrawCalculator"
        }
      },
      "getDrawHistory()": {
        "returns": {
          "_0": "IDrawHistory"
        }
      },
      "getNormalizedBalancesForDrawIds(address,uint32[])": {
        "params": {
          "_drawIds": "The drawsId to consider",
          "_user": "The users address"
        },
        "returns": {
          "_0": "Array of balances"
        }
      },
      "getPrizeDistributionHistory()": {
        "returns": {
          "_0": "IDrawHistory"
        }
      },
      "pendingOwner()": {
        "returns": {
          "_0": "Current `_pendingOwner` address."
        }
      },
      "renounceOwnership()": {
        "details": "Leaves the contract without owner. It will not be possible to call `onlyOwner` functions anymore. Can only be called by the current owner. NOTE: Renouncing ownership will leave the contract without an owner, thereby removing any functionality that is only available to the owner."
      },
      "setDrawHistory(address)": {
        "params": {
          "_drawHistory": "DrawHistory address"
        },
        "returns": {
          "_0": "New DrawHistory address"
        }
      },
      "transferOwnership(address)": {
        "params": {
          "_newOwner": "Address to transfer ownership to."
        }
      }
    },
    "title": "PoolTogether V4 DrawCalculator",
    "version": 1
  },
  "userdoc": {
    "events": {
      "Deployed(address)": {
        "notice": "Emitted when the contract is initialized"
      },
      "DrawHistorySet(address)": {
        "notice": "Emitted when a global DrawHistory variable is set."
      },
      "DrawPrizeSet(address)": {
        "notice": "Emitted when the drawPrize is set/updated"
      }
    },
    "kind": "user",
    "methods": {
      "DISTRIBUTIONS_LENGTH()": {
        "notice": "The distributions array length"
      },
      "calculate(address,uint32[],bytes)": {
        "notice": "Calulates the prize amount for a user for Multiple Draws. Typically called by a DrawPrize."
      },
      "checkPrizeDistributionIndicesForDrawId(address,uint64[],uint32)": {
        "notice": "Returns a users balances expressed as a fraction of the total supply over time."
      },
      "claimOwnership()": {
        "notice": "Allows the `_pendingOwner` address to finalize the transfer."
      },
      "constructor": {
        "notice": "Constructor for DrawCalculator"
      },
      "getDrawHistory()": {
        "notice": "Read global DrawHistory variable."
      },
      "getNormalizedBalancesForDrawIds(address,uint32[])": {
        "notice": "Returns a users balances expressed as a fraction of the total supply over time."
      },
      "getPrizeDistributionHistory()": {
        "notice": "Read global DrawHistory variable."
      },
      "owner()": {
        "notice": "Returns the address of the current owner."
      },
      "pendingOwner()": {
        "notice": "Gets current `_pendingOwner`."
      },
      "renounceOwnership()": {
        "notice": "Renounce ownership of the contract."
      },
      "setDrawHistory(address)": {
        "notice": "Set global DrawHistory reference."
      },
      "transferOwnership(address)": {
        "notice": "Allows current owner to set the `_pendingOwner` address."
      }
    },
    "notice": "The DrawCalculator calculates a user's prize by matching a winning random number against their picks. A users picks are generated deterministically based on their address and balance of tickets held. Prize payouts are divided into multiple tiers: grand prize, second place, etc... A user with a higher average weighted balance (during each draw perid) will be given a large number of pickIndices to choose from, and thus a higher chance to match the randomly generated winning numbers. The DrawCalculator will retrieve data, like average weighted balance and cost of picks per draw from the linked Ticket and PrizeDistributionHistory contracts when payouts are being calculated.",
    "version": 1
  },
  "storageLayout": {
    "storage": [
      {
        "astId": 3178,
        "contract": "@pooltogether/v4-core/contracts/DrawCalculator.sol:DrawCalculator",
        "label": "_owner",
        "offset": 0,
        "slot": "0",
        "type": "t_address"
      },
      {
        "astId": 3180,
        "contract": "@pooltogether/v4-core/contracts/DrawCalculator.sol:DrawCalculator",
        "label": "_pendingOwner",
        "offset": 0,
        "slot": "1",
        "type": "t_address"
      },
      {
        "astId": 4492,
        "contract": "@pooltogether/v4-core/contracts/DrawCalculator.sol:DrawCalculator",
        "label": "drawHistory",
        "offset": 0,
        "slot": "2",
        "type": "t_contract(IDrawHistory)8709"
      }
    ],
    "types": {
      "t_address": {
        "encoding": "inplace",
        "label": "address",
        "numberOfBytes": "20"
      },
      "t_contract(IDrawHistory)8709": {
        "encoding": "inplace",
        "label": "contract IDrawHistory",
        "numberOfBytes": "20"
      }
    }
  }
}