{
  "address": "0x3F915a6502104a5d44c9951B7071f6B942BC07F0",
  "abi": [
    {
      "inputs": [
        {
          "internalType": "address",
          "name": "_owner",
          "type": "address"
        },
        {
          "internalType": "contract IERC20",
          "name": "_token",
          "type": "address"
        },
        {
          "internalType": "contract IDrawCalculator",
          "name": "_drawCalculator",
          "type": "address"
        }
      ],
      "stateMutability": "nonpayable",
      "type": "constructor"
    },
    {
      "anonymous": false,
      "inputs": [
        {
          "indexed": true,
          "internalType": "address",
          "name": "user",
          "type": "address"
        },
        {
          "indexed": true,
          "internalType": "uint32",
          "name": "drawId",
          "type": "uint32"
        },
        {
          "indexed": false,
          "internalType": "uint256",
          "name": "payout",
          "type": "uint256"
        }
      ],
      "name": "ClaimedDraw",
      "type": "event"
    },
    {
      "anonymous": false,
      "inputs": [
        {
          "indexed": true,
          "internalType": "contract IDrawCalculator",
          "name": "calculator",
          "type": "address"
        }
      ],
      "name": "DrawCalculatorSet",
      "type": "event"
    },
    {
      "anonymous": false,
      "inputs": [
        {
          "indexed": true,
          "internalType": "contract IERC20",
          "name": "token",
          "type": "address"
        },
        {
          "indexed": true,
          "internalType": "address",
          "name": "to",
          "type": "address"
        },
        {
          "indexed": false,
          "internalType": "uint256",
          "name": "amount",
          "type": "uint256"
        }
      ],
      "name": "ERC20Withdrawn",
      "type": "event"
    },
    {
      "anonymous": false,
      "inputs": [
        {
          "indexed": true,
          "internalType": "address",
          "name": "pendingOwner",
          "type": "address"
        }
      ],
      "name": "OwnershipOffered",
      "type": "event"
    },
    {
      "anonymous": false,
      "inputs": [
        {
          "indexed": true,
          "internalType": "address",
          "name": "previousOwner",
          "type": "address"
        },
        {
          "indexed": true,
          "internalType": "address",
          "name": "newOwner",
          "type": "address"
        }
      ],
      "name": "OwnershipTransferred",
      "type": "event"
    },
    {
      "anonymous": false,
      "inputs": [
        {
          "indexed": true,
          "internalType": "contract IERC20",
          "name": "token",
          "type": "address"
        }
      ],
      "name": "TokenSet",
      "type": "event"
    },
    {
      "inputs": [
        {
          "internalType": "address",
          "name": "_user",
          "type": "address"
        },
        {
          "internalType": "uint32[]",
          "name": "_drawIds",
          "type": "uint32[]"
        },
        {
          "internalType": "bytes",
          "name": "_data",
          "type": "bytes"
        }
      ],
      "name": "claim",
      "outputs": [
        {
          "internalType": "uint256",
          "name": "",
          "type": "uint256"
        }
      ],
      "stateMutability": "nonpayable",
      "type": "function"
    },
    {
      "inputs": [],
      "name": "claimOwnership",
      "outputs": [],
      "stateMutability": "nonpayable",
      "type": "function"
    },
    {
      "inputs": [],
      "name": "getDrawCalculator",
      "outputs": [
        {
          "internalType": "contract IDrawCalculator",
          "name": "",
          "type": "address"
        }
      ],
      "stateMutability": "view",
      "type": "function"
    },
    {
      "inputs": [
        {
          "internalType": "address",
          "name": "user",
          "type": "address"
        },
        {
          "internalType": "uint32",
          "name": "drawId",
          "type": "uint32"
        }
      ],
      "name": "getDrawPayoutBalanceOf",
      "outputs": [
        {
          "internalType": "uint256",
          "name": "",
          "type": "uint256"
        }
      ],
      "stateMutability": "view",
      "type": "function"
    },
    {
      "inputs": [],
      "name": "getToken",
      "outputs": [
        {
          "internalType": "contract IERC20",
          "name": "",
          "type": "address"
        }
      ],
      "stateMutability": "view",
      "type": "function"
    },
    {
      "inputs": [],
      "name": "owner",
      "outputs": [
        {
          "internalType": "address",
          "name": "",
          "type": "address"
        }
      ],
      "stateMutability": "view",
      "type": "function"
    },
    {
      "inputs": [],
      "name": "pendingOwner",
      "outputs": [
        {
          "internalType": "address",
          "name": "",
          "type": "address"
        }
      ],
      "stateMutability": "view",
      "type": "function"
    },
    {
      "inputs": [],
      "name": "renounceOwnership",
      "outputs": [],
      "stateMutability": "nonpayable",
      "type": "function"
    },
    {
      "inputs": [
        {
          "internalType": "contract IDrawCalculator",
          "name": "_newCalculator",
          "type": "address"
        }
      ],
      "name": "setDrawCalculator",
      "outputs": [
        {
          "internalType": "contract IDrawCalculator",
          "name": "",
          "type": "address"
        }
      ],
      "stateMutability": "nonpayable",
      "type": "function"
    },
    {
      "inputs": [
        {
          "internalType": "address",
          "name": "_newOwner",
          "type": "address"
        }
      ],
      "name": "transferOwnership",
      "outputs": [],
      "stateMutability": "nonpayable",
      "type": "function"
    },
    {
      "inputs": [
        {
          "internalType": "contract IERC20",
          "name": "_erc20Token",
          "type": "address"
        },
        {
          "internalType": "address",
          "name": "_to",
          "type": "address"
        },
        {
          "internalType": "uint256",
          "name": "_amount",
          "type": "uint256"
        }
      ],
      "name": "withdrawERC20",
      "outputs": [
        {
          "internalType": "bool",
          "name": "",
          "type": "bool"
        }
      ],
      "stateMutability": "nonpayable",
      "type": "function"
    }
  ],
  "transactionHash": "0xaca67c56dfc7c0a0b189b56a21b512137e0bd9bd06878c4752685d94acfaaf10",
  "args": [
    "0x94996399E8c5667f377460D0f3A5037BfC6c1275",
    "0x3fD60Eb380Caf325287D59903555a365F6e6a6e3",
    "0x9081135166E4A100b8c0416e2B9d37aB34D6A469"
  ],
  "solcInputHash": "9708f009c357312991df75253b2932ee",
  "bytecode": "0x60a06040523480156200001157600080fd5b5060405162001431380380620014318339810160408190526200003491620001f3565b82620000408162000101565b506200004c8162000151565b6001600160a01b038216620000b25760405162461bcd60e51b815260206004820152602160248201527f447261775072697a65732f746f6b656e2d6e6f742d7a65726f2d6164647265736044820152607360f81b60648201526084015b60405180910390fd5b6001600160601b0319606083901b166080526040516001600160a01b038316907fa07c91c183e42229e705a9795a1c06d76528b673788b849597364528c96eefb790600090a250505062000260565b600080546001600160a01b038381166001600160a01b0319831681178455604051919092169283917f8be0079c531659141344cd1fd0a4f28419497f9722a3daafe3b4186f6b6457e09190a35050565b6001600160a01b038116620001a95760405162461bcd60e51b815260206004820152601860248201527f447261775072697a65732f63616c632d6e6f742d7a65726f00000000000000006044820152606401620000a9565b600280546001600160a01b0319166001600160a01b0383169081179091556040517fff37eafdc3779d387d79dcf458fdc36536d857426f03a53204694f8fbb0d8a6b90600090a250565b6000806000606084860312156200020957600080fd5b8351620002168162000247565b6020850151909350620002298162000247565b60408501519092506200023c8162000247565b809150509250925092565b6001600160a01b03811681146200025d57600080fd5b50565b60805160601c6111ac620002856000396000818160d00152610a6c01526111ac6000f3fe608060405234801561001057600080fd5b50600436106100c95760003560e01c8063715018a611610081578063bb7d4e2d1161005b578063bb7d4e2d14610198578063e30c3978146101ab578063f2fde38b146101bc57600080fd5b8063715018a61461015e5780638da5cb5b14610166578063b7f892d11461017757600080fd5b806344004cc1116100b257806344004cc11461011e578063454a8140146101415780634e71e0c81461015457600080fd5b806321df0da7146100ce5780632d680cfa1461010d575b600080fd5b7f00000000000000000000000000000000000000000000000000000000000000005b6040516001600160a01b0390911681526020015b60405180910390f35b6002546001600160a01b03166100f0565b61013161012c366004610f55565b6101cf565b6040519015158152602001610104565b6100f061014f366004610d68565b6103a3565b61015c61041f565b005b61015c6104ad565b6000546001600160a01b03166100f0565b61018a610185366004610e39565b610522565b604051908152602001610104565b61018a6101a6366004610d85565b610551565b6001546001600160a01b03166100f0565b61015c6101ca366004610d68565b610794565b6000336101e46000546001600160a01b031690565b6001600160a01b03161461023f5760405162461bcd60e51b815260206004820152601860248201527f4f776e61626c652f63616c6c65722d6e6f742d6f776e6572000000000000000060448201526064015b60405180910390fd5b6001600160a01b0383166102bb5760405162461bcd60e51b815260206004820152602560248201527f447261775072697a65732f726563697069656e742d6e6f742d7a65726f2d616460448201527f64726573730000000000000000000000000000000000000000000000000000006064820152608401610236565b6001600160a01b0384166103375760405162461bcd60e51b815260206004820152602160248201527f447261775072697a65732f45524332302d6e6f742d7a65726f2d61646472657360448201527f73000000000000000000000000000000000000000000000000000000000000006064820152608401610236565b61034b6001600160a01b03851684846108d0565b826001600160a01b0316846001600160a01b03167fbfed55bdcd242e3dd0f60ddd7d1e87c67f61c34cd9527b3e6455d841b10253628460405161039091815260200190565b60405180910390a35060015b9392505050565b6000336103b86000546001600160a01b031690565b6001600160a01b03161461040e5760405162461bcd60e51b815260206004820152601860248201527f4f776e61626c652f63616c6c65722d6e6f742d6f776e657200000000000000006044820152606401610236565b61041782610955565b50805b919050565b6001546001600160a01b031633146104795760405162461bcd60e51b815260206004820152601f60248201527f4f776e61626c652f63616c6c65722d6e6f742d70656e64696e674f776e6572006044820152606401610236565b60015461048e906001600160a01b0316610a02565b6001805473ffffffffffffffffffffffffffffffffffffffff19169055565b336104c06000546001600160a01b031690565b6001600160a01b0316146105165760405162461bcd60e51b815260206004820152601860248201527f4f776e61626c652f63616c6c65722d6e6f742d6f776e657200000000000000006044820152606401610236565b6105206000610a02565b565b6001600160a01b038216600090815260036020908152604080832063ffffffff8516845290915281205461039c565b6002546040517faaca392e000000000000000000000000000000000000000000000000000000008152600091829182916001600160a01b03169063aaca392e906105a7908b908b908b908b908b90600401610fcd565b60006040518083038186803b1580156105bf57600080fd5b505afa1580156105d3573d6000803e3d6000fd5b505050506040513d6000823e601f3d908101601f191682016040526105fb9190810190610e6e565b905060005b815181101561077e57600088888381811061061d5761061d611132565b90506020020160208101906106329190610f96565b9050600083838151811061064857610648611132565b6020908102919091018101516001600160a01b038d16600090815260038352604080822063ffffffff871683529093529182205490925090818311156106c157610692828461109c565b6001600160a01b038e16600090815260036020908152604080832063ffffffff89168452909152902084905590505b600081116107115760405162461bcd60e51b815260206004820152601660248201527f447261775072697a65732f7a65726f2d7061796f7574000000000000000000006044820152606401610236565b61071b8188611084565b96508363ffffffff168d6001600160a01b03167fda18d31fbb73ed04b84307ef1bc6602e02c855af9f65b53ed10ba43e8d35b7dd8360405161075f91815260200190565b60405180910390a3505050508080610776906110e3565b915050610600565b506107898883610a5f565b509695505050505050565b336107a76000546001600160a01b031690565b6001600160a01b0316146107fd5760405162461bcd60e51b815260206004820152601860248201527f4f776e61626c652f63616c6c65722d6e6f742d6f776e657200000000000000006044820152606401610236565b6001600160a01b0381166108795760405162461bcd60e51b815260206004820152602560248201527f4f776e61626c652f70656e64696e674f776e65722d6e6f742d7a65726f2d616460448201527f64726573730000000000000000000000000000000000000000000000000000006064820152608401610236565b6001805473ffffffffffffffffffffffffffffffffffffffff19166001600160a01b0383169081179091556040517f239a2ddded15777fa246aed5f7e1a9bc69a39d4eb4a397034d1d85766cca7d4c90600090a250565b604080516001600160a01b038416602482015260448082018490528251808303909101815260649091019091526020810180517bffffffffffffffffffffffffffffffffffffffffffffffffffffffff167fa9059cbb00000000000000000000000000000000000000000000000000000000179052610950908490610a97565b505050565b6001600160a01b0381166109ab5760405162461bcd60e51b815260206004820152601860248201527f447261775072697a65732f63616c632d6e6f742d7a65726f00000000000000006044820152606401610236565b6002805473ffffffffffffffffffffffffffffffffffffffff19166001600160a01b0383169081179091556040517fff37eafdc3779d387d79dcf458fdc36536d857426f03a53204694f8fbb0d8a6b90600090a250565b600080546001600160a01b0383811673ffffffffffffffffffffffffffffffffffffffff19831681178455604051919092169283917f8be0079c531659141344cd1fd0a4f28419497f9722a3daafe3b4186f6b6457e09190a35050565b610a936001600160a01b037f00000000000000000000000000000000000000000000000000000000000000001683836108d0565b5050565b6000610aec826040518060400160405280602081526020017f5361666545524332303a206c6f772d6c6576656c2063616c6c206661696c6564815250856001600160a01b0316610b7c9092919063ffffffff16565b8051909150156109505780806020019051810190610b0a9190610f33565b6109505760405162461bcd60e51b815260206004820152602a60248201527f5361666545524332303a204552433230206f7065726174696f6e20646964206e60448201527f6f742073756363656564000000000000000000000000000000000000000000006064820152608401610236565b6060610b8b8484600085610b93565b949350505050565b606082471015610c0b5760405162461bcd60e51b815260206004820152602660248201527f416464726573733a20696e73756666696369656e742062616c616e636520666f60448201527f722063616c6c00000000000000000000000000000000000000000000000000006064820152608401610236565b843b610c595760405162461bcd60e51b815260206004820152601d60248201527f416464726573733a2063616c6c20746f206e6f6e2d636f6e74726163740000006044820152606401610236565b600080866001600160a01b03168587604051610c759190610fb1565b60006040518083038185875af1925050503d8060008114610cb2576040519150601f19603f3d011682016040523d82523d6000602084013e610cb7565b606091505b5091509150610cc7828286610cd2565b979650505050505050565b60608315610ce157508161039c565b825115610cf15782518084602001fd5b8160405162461bcd60e51b81526004016102369190611051565b60008083601f840112610d1d57600080fd5b50813567ffffffffffffffff811115610d3557600080fd5b602083019150836020828501011115610d4d57600080fd5b9250929050565b803563ffffffff8116811461041a57600080fd5b600060208284031215610d7a57600080fd5b813561039c8161115e565b600080600080600060608688031215610d9d57600080fd5b8535610da88161115e565b9450602086013567ffffffffffffffff80821115610dc557600080fd5b818801915088601f830112610dd957600080fd5b813581811115610de857600080fd5b8960208260051b8501011115610dfd57600080fd5b602083019650809550506040880135915080821115610e1b57600080fd5b50610e2888828901610d0b565b969995985093965092949392505050565b60008060408385031215610e4c57600080fd5b8235610e578161115e565b9150610e6560208401610d54565b90509250929050565b60006020808385031215610e8157600080fd5b825167ffffffffffffffff80821115610e9957600080fd5b818501915085601f830112610ead57600080fd5b815181811115610ebf57610ebf611148565b8060051b604051601f19603f83011681018181108582111715610ee457610ee4611148565b604052828152858101935084860182860187018a1015610f0357600080fd5b600095505b83861015610f26578051855260019590950194938601938601610f08565b5098975050505050505050565b600060208284031215610f4557600080fd5b8151801515811461039c57600080fd5b600080600060608486031215610f6a57600080fd5b8335610f758161115e565b92506020840135610f858161115e565b929592945050506040919091013590565b600060208284031215610fa857600080fd5b61039c82610d54565b60008251610fc38184602087016110b3565b9190910192915050565b6001600160a01b038616815260606020808301829052908201859052600090869060808401835b8881101561101d5763ffffffff61100a85610d54565b1682529282019290820190600101610ff4565b5084810360408601528581528587838301376000818701830152601f909501601f1916909401909301979650505050505050565b60208152600082518060208401526110708160408501602087016110b3565b601f01601f19169190910160400192915050565b600082198211156110975761109761111c565b500190565b6000828210156110ae576110ae61111c565b500390565b60005b838110156110ce5781810151838201526020016110b6565b838111156110dd576000848401525b50505050565b60007fffffffffffffffffffffffffffffffffffffffffffffffffffffffffffffffff8214156111155761111561111c565b5060010190565b634e487b7160e01b600052601160045260246000fd5b634e487b7160e01b600052603260045260246000fd5b634e487b7160e01b600052604160045260246000fd5b6001600160a01b038116811461117357600080fd5b5056fea26469706673582212203ffb059aa41f9088e49afcbd6a9bb82e375cb768e29eb446cd5247f4debd96e464736f6c63430008060033",
  "devdoc": {
    "author": "PoolTogether Inc Team",
    "kind": "dev",
    "methods": {
      "claim(address,uint32[],bytes)": {
        "params": {
          "data": "The data to pass to the draw calculator",
          "drawIds": "Draw IDs from global DrawHistory reference",
          "user": "Address of user to claim awards for. Does NOT need to be msg.sender"
        },
        "returns": {
          "_0": "Actual claim payout.  If the user has previously claimed a draw, this may be less."
        }
      },
      "claimOwnership()": {
        "details": "This function is only callable by the `_pendingOwner`."
      },
      "constructor": {
        "params": {
          "_drawCalculator": "DrawCalculator address",
          "_owner": "Address of the DrawPrizes owner",
          "_token": "Token address"
        }
      },
      "getDrawCalculator()": {
        "returns": {
          "_0": "IDrawCalculator"
        }
      },
      "getDrawPayoutBalanceOf(address,uint32)": {
        "params": {
          "drawId": "Draw ID",
          "user": "User address"
        }
      },
      "getToken()": {
        "returns": {
          "_0": "IERC20"
        }
      },
      "pendingOwner()": {
        "returns": {
          "_0": "Current `_pendingOwner` address."
        }
      },
      "renounceOwnership()": {
        "details": "Leaves the contract without owner. It will not be possible to call `onlyOwner` functions anymore. Can only be called by the current owner. NOTE: Renouncing ownership will leave the contract without an owner, thereby removing any functionality that is only available to the owner."
      },
      "setDrawCalculator(address)": {
        "params": {
          "_newCalculator": "DrawCalculator address"
        },
        "returns": {
          "_0": "New DrawCalculator address"
        }
      },
      "transferOwnership(address)": {
        "params": {
          "_newOwner": "Address to transfer ownership to."
        }
      },
      "withdrawERC20(address,address,uint256)": {
        "details": "This function is only callable by the owner.",
        "params": {
          "_amount": "Amount of tokens to transfer.",
          "_erc20Token": "ERC20 token to transfer.",
          "_to": "Recipient of the tokens."
        },
        "returns": {
          "_0": "true if operation is successful."
        }
      }
    },
    "title": "PoolTogether V4 DrawPrizes",
    "version": 1
  },
  "userdoc": {
    "events": {
      "ClaimedDraw(address,uint32,uint256)": {
        "notice": "Emitted when a user has claimed N draw payouts."
      },
      "DrawCalculatorSet(address)": {
        "notice": "Emitted when a DrawCalculator is set"
      },
      "ERC20Withdrawn(address,address,uint256)": {
        "notice": "Emitted when ERC20 tokens are withdrawn from the claimable draw."
      },
      "TokenSet(address)": {
        "notice": "Emitted when a global Ticket variable is set."
      }
    },
    "kind": "user",
    "methods": {
      "claim(address,uint32[],bytes)": {
        "notice": "Claim a user token payouts via a collection of draw ids and pick indices."
      },
      "claimOwnership()": {
        "notice": "Allows the `_pendingOwner` address to finalize the transfer."
      },
      "constructor": {
        "notice": "Initialize DrawPrizes smart contract."
      },
      "getDrawCalculator()": {
        "notice": "Read DrawCalculator"
      },
      "getDrawPayoutBalanceOf(address,uint32)": {
        "notice": "Get the amount that a user has already been paid out for a draw"
      },
      "getToken()": {
        "notice": "Read global Ticket variable."
      },
      "owner()": {
        "notice": "Returns the address of the current owner."
      },
      "pendingOwner()": {
        "notice": "Gets current `_pendingOwner`."
      },
      "renounceOwnership()": {
        "notice": "Renounce ownership of the contract."
      },
      "setDrawCalculator(address)": {
        "notice": "Sets DrawCalculator reference for individual draw id."
      },
      "transferOwnership(address)": {
        "notice": "Allows current owner to set the `_pendingOwner` address."
      },
      "withdrawERC20(address,address,uint256)": {
        "notice": "Transfer ERC20 tokens out of this contract."
      }
    },
    "notice": "The DrawPrizes distributes claimable draw prizes to users via a pull model. Managing the regularly captured PrizePool interest, a DrawPrizes is the entrypoint for users to submit Draw.drawId(s) and winning pick indices. Communicating with a DrawCalculator, the DrawPrizes will determine the maximum prize payout and transfer those tokens directly to a user address. ",
    "version": 1
  },
  "storageLayout": {
    "storage": [
      {
        "astId": 3466,
        "contract": "@pooltogether/v4-core/contracts/DrawPrizes.sol:DrawPrizes",
        "label": "_owner",
        "offset": 0,
        "slot": "0",
        "type": "t_address"
      },
      {
        "astId": 3468,
        "contract": "@pooltogether/v4-core/contracts/DrawPrizes.sol:DrawPrizes",
        "label": "_pendingOwner",
        "offset": 0,
        "slot": "1",
        "type": "t_address"
      },
      {
        "astId": 6149,
        "contract": "@pooltogether/v4-core/contracts/DrawPrizes.sol:DrawPrizes",
        "label": "drawCalculator",
        "offset": 0,
        "slot": "2",
        "type": "t_contract(IDrawCalculator)8894"
      },
      {
        "astId": 6160,
        "contract": "@pooltogether/v4-core/contracts/DrawPrizes.sol:DrawPrizes",
        "label": "userDrawPayouts",
        "offset": 0,
        "slot": "3",
        "type": "t_mapping(t_address,t_mapping(t_uint256,t_uint256))"
      }
    ],
    "types": {
      "t_address": {
        "encoding": "inplace",
        "label": "address",
        "numberOfBytes": "20"
      },
      "t_contract(IDrawCalculator)8894": {
        "encoding": "inplace",
        "label": "contract IDrawCalculator",
        "numberOfBytes": "20"
      },
      "t_mapping(t_address,t_mapping(t_uint256,t_uint256))": {
        "encoding": "mapping",
        "key": "t_address",
        "label": "mapping(address => mapping(uint256 => uint256))",
        "numberOfBytes": "32",
        "value": "t_mapping(t_uint256,t_uint256)"
      },
      "t_mapping(t_uint256,t_uint256)": {
        "encoding": "mapping",
        "key": "t_uint256",
        "label": "mapping(uint256 => uint256)",
        "numberOfBytes": "32",
        "value": "t_uint256"
      },
      "t_uint256": {
        "encoding": "inplace",
        "label": "uint256",
        "numberOfBytes": "32"
      }
    }
  }
}