{
  "address": "0x651b748e340e0e821D551736eaa0eF45a0EcbeDb",
  "abi": [
    {
      "inputs": [
        {
          "internalType": "address",
          "name": "_owner",
          "type": "address"
        },
        {
          "internalType": "uint8",
          "name": "_cardinality",
          "type": "uint8"
        }
      ],
      "stateMutability": "nonpayable",
      "type": "constructor"
    },
    {
      "anonymous": false,
      "inputs": [
        {
          "indexed": true,
          "internalType": "uint32",
          "name": "drawId",
          "type": "uint32"
        },
        {
          "components": [
            {
              "internalType": "uint256",
              "name": "winningRandomNumber",
              "type": "uint256"
            },
            {
              "internalType": "uint32",
              "name": "drawId",
              "type": "uint32"
            },
            {
              "internalType": "uint64",
              "name": "timestamp",
              "type": "uint64"
            },
            {
              "internalType": "uint64",
              "name": "beaconPeriodStartedAt",
              "type": "uint64"
            },
            {
              "internalType": "uint32",
              "name": "beaconPeriodSeconds",
              "type": "uint32"
            }
          ],
          "indexed": false,
          "internalType": "struct DrawLib.Draw",
          "name": "draw",
          "type": "tuple"
        }
      ],
      "name": "DrawSet",
      "type": "event"
    },
    {
      "anonymous": false,
      "inputs": [
        {
          "indexed": true,
          "internalType": "address",
          "name": "previousManager",
          "type": "address"
        },
        {
          "indexed": true,
          "internalType": "address",
          "name": "newManager",
          "type": "address"
        }
      ],
      "name": "ManagerTransferred",
      "type": "event"
    },
    {
      "anonymous": false,
      "inputs": [
        {
          "indexed": true,
          "internalType": "address",
          "name": "pendingOwner",
          "type": "address"
        }
      ],
      "name": "OwnershipOffered",
      "type": "event"
    },
    {
      "anonymous": false,
      "inputs": [
        {
          "indexed": true,
          "internalType": "address",
          "name": "previousOwner",
          "type": "address"
        },
        {
          "indexed": true,
          "internalType": "address",
          "name": "newOwner",
          "type": "address"
        }
      ],
      "name": "OwnershipTransferred",
      "type": "event"
    },
    {
      "inputs": [],
      "name": "MAX_CARDINALITY",
      "outputs": [
        {
          "internalType": "uint16",
          "name": "",
          "type": "uint16"
        }
      ],
      "stateMutability": "view",
      "type": "function"
    },
    {
      "inputs": [],
      "name": "claimOwnership",
      "outputs": [],
      "stateMutability": "nonpayable",
      "type": "function"
    },
    {
      "inputs": [
        {
          "internalType": "uint32",
          "name": "drawId",
          "type": "uint32"
        }
      ],
      "name": "getDraw",
      "outputs": [
        {
          "components": [
            {
              "internalType": "uint256",
              "name": "winningRandomNumber",
              "type": "uint256"
            },
            {
              "internalType": "uint32",
              "name": "drawId",
              "type": "uint32"
            },
            {
              "internalType": "uint64",
              "name": "timestamp",
              "type": "uint64"
            },
            {
              "internalType": "uint64",
              "name": "beaconPeriodStartedAt",
              "type": "uint64"
            },
            {
              "internalType": "uint32",
              "name": "beaconPeriodSeconds",
              "type": "uint32"
            }
          ],
          "internalType": "struct DrawLib.Draw",
          "name": "",
          "type": "tuple"
        }
      ],
      "stateMutability": "view",
      "type": "function"
    },
    {
      "inputs": [
        {
          "internalType": "uint32[]",
          "name": "drawIds",
          "type": "uint32[]"
        }
      ],
      "name": "getDraws",
      "outputs": [
        {
          "components": [
            {
              "internalType": "uint256",
              "name": "winningRandomNumber",
              "type": "uint256"
            },
            {
              "internalType": "uint32",
              "name": "drawId",
              "type": "uint32"
            },
            {
              "internalType": "uint64",
              "name": "timestamp",
              "type": "uint64"
            },
            {
              "internalType": "uint64",
              "name": "beaconPeriodStartedAt",
              "type": "uint64"
            },
            {
              "internalType": "uint32",
              "name": "beaconPeriodSeconds",
              "type": "uint32"
            }
          ],
          "internalType": "struct DrawLib.Draw[]",
          "name": "",
          "type": "tuple[]"
        }
      ],
      "stateMutability": "view",
      "type": "function"
    },
    {
      "inputs": [],
      "name": "getNewestDraw",
      "outputs": [
        {
          "components": [
            {
              "internalType": "uint256",
              "name": "winningRandomNumber",
              "type": "uint256"
            },
            {
              "internalType": "uint32",
              "name": "drawId",
              "type": "uint32"
            },
            {
              "internalType": "uint64",
              "name": "timestamp",
              "type": "uint64"
            },
            {
              "internalType": "uint64",
              "name": "beaconPeriodStartedAt",
              "type": "uint64"
            },
            {
              "internalType": "uint32",
              "name": "beaconPeriodSeconds",
              "type": "uint32"
            }
          ],
          "internalType": "struct DrawLib.Draw",
          "name": "",
          "type": "tuple"
        }
      ],
      "stateMutability": "view",
      "type": "function"
    },
    {
      "inputs": [],
      "name": "getOldestDraw",
      "outputs": [
        {
          "components": [
            {
              "internalType": "uint256",
              "name": "winningRandomNumber",
              "type": "uint256"
            },
            {
              "internalType": "uint32",
              "name": "drawId",
              "type": "uint32"
            },
            {
              "internalType": "uint64",
              "name": "timestamp",
              "type": "uint64"
            },
            {
              "internalType": "uint64",
              "name": "beaconPeriodStartedAt",
              "type": "uint64"
            },
            {
              "internalType": "uint32",
              "name": "beaconPeriodSeconds",
              "type": "uint32"
            }
          ],
          "internalType": "struct DrawLib.Draw",
          "name": "",
          "type": "tuple"
        }
      ],
      "stateMutability": "view",
      "type": "function"
    },
    {
      "inputs": [],
      "name": "manager",
      "outputs": [
        {
          "internalType": "address",
          "name": "",
          "type": "address"
        }
      ],
      "stateMutability": "view",
      "type": "function"
    },
    {
      "inputs": [],
      "name": "owner",
      "outputs": [
        {
          "internalType": "address",
          "name": "",
          "type": "address"
        }
      ],
      "stateMutability": "view",
      "type": "function"
    },
    {
      "inputs": [],
      "name": "pendingOwner",
      "outputs": [
        {
          "internalType": "address",
          "name": "",
          "type": "address"
        }
      ],
      "stateMutability": "view",
      "type": "function"
    },
    {
      "inputs": [
        {
          "components": [
            {
              "internalType": "uint256",
              "name": "winningRandomNumber",
              "type": "uint256"
            },
            {
              "internalType": "uint32",
              "name": "drawId",
              "type": "uint32"
            },
            {
              "internalType": "uint64",
              "name": "timestamp",
              "type": "uint64"
            },
            {
              "internalType": "uint64",
              "name": "beaconPeriodStartedAt",
              "type": "uint64"
            },
            {
              "internalType": "uint32",
              "name": "beaconPeriodSeconds",
              "type": "uint32"
            }
          ],
          "internalType": "struct DrawLib.Draw",
          "name": "_draw",
          "type": "tuple"
        }
      ],
      "name": "pushDraw",
      "outputs": [
        {
          "internalType": "uint32",
          "name": "",
          "type": "uint32"
        }
      ],
      "stateMutability": "nonpayable",
      "type": "function"
    },
    {
      "inputs": [],
      "name": "renounceOwnership",
      "outputs": [],
      "stateMutability": "nonpayable",
      "type": "function"
    },
    {
      "inputs": [
        {
          "components": [
            {
              "internalType": "uint256",
              "name": "winningRandomNumber",
              "type": "uint256"
            },
            {
              "internalType": "uint32",
              "name": "drawId",
              "type": "uint32"
            },
            {
              "internalType": "uint64",
              "name": "timestamp",
              "type": "uint64"
            },
            {
              "internalType": "uint64",
              "name": "beaconPeriodStartedAt",
              "type": "uint64"
            },
            {
              "internalType": "uint32",
              "name": "beaconPeriodSeconds",
              "type": "uint32"
            }
          ],
          "internalType": "struct DrawLib.Draw",
          "name": "_newDraw",
          "type": "tuple"
        }
      ],
      "name": "setDraw",
      "outputs": [
        {
          "internalType": "uint32",
          "name": "",
          "type": "uint32"
        }
      ],
      "stateMutability": "nonpayable",
      "type": "function"
    },
    {
      "inputs": [
        {
          "internalType": "address",
          "name": "_newManager",
          "type": "address"
        }
      ],
      "name": "setManager",
      "outputs": [
        {
          "internalType": "bool",
          "name": "",
          "type": "bool"
        }
      ],
      "stateMutability": "nonpayable",
      "type": "function"
    },
    {
      "inputs": [
        {
          "internalType": "address",
          "name": "_newOwner",
          "type": "address"
        }
      ],
      "name": "transferOwnership",
      "outputs": [],
      "stateMutability": "nonpayable",
      "type": "function"
    }
  ],
  "transactionHash": "0x41fc3e55f4fec3116ad4d36556d568750f1dd1e9a0b55da58ed9eb693e156c74",
  "args": [
    "0x94996399E8c5667f377460D0f3A5037BfC6c1275",
    8
  ],
  "solcInputHash": "9708f009c357312991df75253b2932ee",
  "bytecode": "0x608060405234801561001057600080fd5b506040516116f63803806116f683398101604081905261002f916100b6565b8161003981610066565b50610203805463ffffffff60401b191660ff92909216680100000000000000000291909117905550610102565b600080546001600160a01b038381166001600160a01b0319831681178455604051919092169283917f8be0079c531659141344cd1fd0a4f28419497f9722a3daafe3b4186f6b6457e09190a35050565b600080604083850312156100c957600080fd5b82516001600160a01b03811681146100e057600080fd5b602084015190925060ff811681146100f757600080fd5b809150509250929050565b6115e5806101116000396000f3fe608060405234801561001057600080fd5b50600436106100ea5760003560e01c806383c34aaf1161008c578063d0ebdbe711610066578063d0ebdbe7146101d0578063d7bcb86b146101f3578063e30c397814610206578063f2fde38b1461021757600080fd5b806383c34aaf1461018c5780638da5cb5b1461019f578063d0bb78f3146101b057600080fd5b80634e71e0c8116100c85780634e71e0c814610156578063648b1b4f14610160578063715018a6146101685780638200d8731461017057600080fd5b8063089eb925146100ef5780630edb1d2e1461011c578063481c6a7514610131575b600080fd5b6101026100fd366004611318565b61022a565b60405163ffffffff90911681526020015b60405180910390f35b6101246102f5565b604051610113919061145e565b6002546001600160a01b03165b6040516001600160a01b039091168152602001610113565b61015e61036a565b005b6101246103f8565b61015e61054d565b61017961010081565b60405161ffff9091168152602001610113565b61012461019a3660046113ad565b6105c2565b6000546001600160a01b031661013e565b6101c36101be3660046112a3565b6106bd565b60405161011391906113c8565b6101e36101de36600461127a565b61086d565b6040519015158152602001610113565b610102610201366004611318565b6108e1565b6001546001600160a01b031661013e565b61015e61022536600461127a565b610ace565b60003361023f6002546001600160a01b031690565b6001600160a01b0316148061026d5750336102626000546001600160a01b031690565b6001600160a01b0316145b6102e45760405162461bcd60e51b815260206004820152602660248201527f4d616e61676561626c652f63616c6c65722d6e6f742d6d616e616765722d6f7260448201527f2d6f776e6572000000000000000000000000000000000000000000000000000060648201526084015b60405180910390fd5b6102ed82610c0a565b90505b919050565b6040805160a081018252600080825260208201819052918101829052606081018290526080810191909152604080516060810182526102035463ffffffff808216835264010000000082048116602084015268010000000000000000909104169181019190915261036590610e0c565b905090565b6001546001600160a01b031633146103c45760405162461bcd60e51b815260206004820152601f60248201527f4f776e61626c652f63616c6c65722d6e6f742d70656e64696e674f776e65720060448201526064016102db565b6001546103d9906001600160a01b0316610e47565b6001805473ffffffffffffffffffffffffffffffffffffffff19169055565b6040805160a081018252600080825260208201819052918101829052606081018290526080810191909152604080516060810182526102035463ffffffff8082168352640100000000820481166020840181905268010000000000000000909204169282019290925290600090600390610100811061047957610479611583565b6040805160a08101825260029290920292909201805482526001015463ffffffff808216602084015267ffffffffffffffff640100000000830481169484018590526c010000000000000000000000008304166060840152600160a01b909104166080820152915061054757506040805160a081018252600354815260045463ffffffff808216602084015267ffffffffffffffff64010000000083048116948401949094526c0100000000000000000000000082049093166060830152600160a01b900490911660808201525b92915050565b336105606000546001600160a01b031690565b6001600160a01b0316146105b65760405162461bcd60e51b815260206004820152601860248201527f4f776e61626c652f63616c6c65722d6e6f742d6f776e6572000000000000000060448201526064016102db565b6105c06000610e47565b565b6040805160a081018252600080825260208201819052918101829052606081018290526080810191909152604080516060810182526102035463ffffffff80821683526401000000008204811660208401526801000000000000000090910416918101919091526003906106369084610ea4565b63ffffffff16610100811061064d5761064d611583565b6040805160a08101825260029290920292909201805482526001015463ffffffff808216602084015267ffffffffffffffff64010000000083048116948401949094526c0100000000000000000000000082049093166060830152600160a01b9004909116608082015292915050565b606060008267ffffffffffffffff8111156106da576106da611599565b60405190808252806020026020018201604052801561073357816020015b6040805160a0810182526000808252602080830182905292820181905260608201819052608082015282526000199092019101816106f85790505b50604080516060810182526102035463ffffffff808216835264010000000082048116602084015268010000000000000000909104169181019190915290915060005b848110156108635760036107b08388888581811061079657610796611583565b90506020020160208101906107ab91906113ad565b610ea4565b63ffffffff1661010081106107c7576107c7611583565b6040805160a08101825260029290920292909201805482526001015463ffffffff808216602084015267ffffffffffffffff64010000000083048116948401949094526c0100000000000000000000000082049093166060830152600160a01b90049091166080820152835184908390811061084557610845611583565b6020026020010181905250808061085b90611530565b915050610776565b5090949350505050565b6000336108826000546001600160a01b031690565b6001600160a01b0316146108d85760405162461bcd60e51b815260206004820152601860248201527f4f776e61626c652f63616c6c65722d6e6f742d6f776e6572000000000000000060448201526064016102db565b6102ed82610eb7565b6000336108f66000546001600160a01b031690565b6001600160a01b03161461094c5760405162461bcd60e51b815260206004820152601860248201527f4f776e61626c652f63616c6c65722d6e6f742d6f776e6572000000000000000060448201526064016102db565b604080516060810182526102035463ffffffff8082168352640100000000820481166020808501919091526801000000000000000090920481169383019390935284015190916000916109a291849190610fa316565b90508360038263ffffffff1661010081106109bf576109bf611583565b82516002919091029190910190815560208083015160019092018054604080860151606087015160809097015163ffffffff9687166bffffffffffffffffffffffff199094169390931764010000000067ffffffffffffffff92831602177fffffffffffffffff000000000000000000000000ffffffffffffffffffffffff166c0100000000000000000000000091909716027fffffffffffffffff00000000ffffffffffffffffffffffffffffffffffffffff1695909517600160a01b9185169190910217905586015191519116907fc6f337e5507fd1bdebc6d79ed14168145e8c109d7b7139459692e24f06baed1790610abc90879061145e565b60405180910390a25050506020015190565b33610ae16000546001600160a01b031690565b6001600160a01b031614610b375760405162461bcd60e51b815260206004820152601860248201527f4f776e61626c652f63616c6c65722d6e6f742d6f776e6572000000000000000060448201526064016102db565b6001600160a01b038116610bb35760405162461bcd60e51b815260206004820152602560248201527f4f776e61626c652f70656e64696e674f776e65722d6e6f742d7a65726f2d616460448201527f647265737300000000000000000000000000000000000000000000000000000060648201526084016102db565b6001805473ffffffffffffffffffffffffffffffffffffffff19166001600160a01b0383169081179091556040517f239a2ddded15777fa246aed5f7e1a9bc69a39d4eb4a397034d1d85766cca7d4c90600090a250565b604080516060810182526102035463ffffffff8082168352640100000000820481166020840181905268010000000000000000909204169282019290925260009183906003906101008110610c6157610c61611583565b825160029190910291909101908155602080830151600190920180546040850151606086015160809096015163ffffffff9586166bffffffffffffffffffffffff199093169290921764010000000067ffffffffffffffff92831602177fffffffffffffffff000000000000000000000000ffffffffffffffffffffffff166c0100000000000000000000000091909616027fffffffffffffffff00000000ffffffffffffffffffffffffffffffffffffffff1694909417600160a01b948416949094029390931790925590840151610d3d918391906110d316565b8051610203805460208085015160409586015163ffffffff90811668010000000000000000027fffffffffffffffffffffffffffffffffffffffff00000000ffffffffffffffff928216640100000000027fffffffffffffffffffffffffffffffffffffffffffffffff0000000000000000909516968216969096179390931716939093179091559085015191519116907fc6f337e5507fd1bdebc6d79ed14168145e8c109d7b7139459692e24f06baed1790610dfb90869061145e565b60405180910390a250506020015190565b6040805160a0810182526000808252602082018190529181018290526060810182905260808101919091528151600390610636908490610fa3565b600080546001600160a01b0383811673ffffffffffffffffffffffffffffffffffffffff19831681178455604051919092169283917f8be0079c531659141344cd1fd0a4f28419497f9722a3daafe3b4186f6b6457e09190a35050565b6000610eb08383610fa3565b9392505050565b6002546000906001600160a01b03908116908316811415610f405760405162461bcd60e51b815260206004820152602360248201527f4d616e61676561626c652f6578697374696e672d6d616e616765722d6164647260448201527f657373000000000000000000000000000000000000000000000000000000000060648201526084016102db565b6002805473ffffffffffffffffffffffffffffffffffffffff19166001600160a01b0385811691821790925560405190918316907f9cb45c728de594dab506a1f1a8554e24c8eeaf983618d5ec5dd7bc6f3c49feee90600090a350600192915050565b6000610fae836111be565b8015610fca5750826000015163ffffffff168263ffffffff1611155b6110165760405162461bcd60e51b815260206004820152600f60248201527f4452422f6675747572652d64726177000000000000000000000000000000000060448201526064016102db565b825160009061102690849061150b565b9050836040015163ffffffff168163ffffffff16106110875760405162461bcd60e51b815260206004820152601060248201527f4452422f657870697265642d647261770000000000000000000000000000000060448201526064016102db565b60006110a7856020015163ffffffff16866040015163ffffffff166111e6565b90506110ca8163ffffffff168363ffffffff16876040015163ffffffff16611216565b95945050505050565b60408051606081018252600080825260208201819052918101919091526110f9836111be565b158061111c5750825161110d9060016114cc565b63ffffffff168263ffffffff16145b6111685760405162461bcd60e51b815260206004820152601260248201527f4452422f6d7573742d62652d636f6e746967000000000000000000000000000060448201526064016102db565b60405180606001604052808363ffffffff16815260200161119d856020015163ffffffff16866040015163ffffffff16611240565b63ffffffff168152602001846040015163ffffffff16815250905092915050565b6000816020015163ffffffff1660001480156111df5750815163ffffffff16155b1592915050565b6000816111f557506000610547565b81600161120282866114b4565b61120c91906114f4565b610eb0919061154b565b6000818361122482876114b4565b61122e91906114f4565b611238919061154b565b949350505050565b60008161120c8460016114b4565b803563ffffffff811681146102f057600080fd5b803567ffffffffffffffff811681146102f057600080fd5b60006020828403121561128c57600080fd5b81356001600160a01b0381168114610eb057600080fd5b600080602083850312156112b657600080fd5b823567ffffffffffffffff808211156112ce57600080fd5b818501915085601f8301126112e257600080fd5b8135818111156112f157600080fd5b8660208260051b850101111561130657600080fd5b60209290920196919550909350505050565b600060a0828403121561132a57600080fd5b60405160a0810181811067ffffffffffffffff8211171561135b57634e487b7160e01b600052604160045260246000fd5b6040528235815261136e6020840161124e565b602082015261137f60408401611262565b604082015261139060608401611262565b60608201526113a16080840161124e565b60808201529392505050565b6000602082840312156113bf57600080fd5b610eb08261124e565b6020808252825182820181905260009190848201906040850190845b818110156114525761143f83855180518252602081015163ffffffff80821660208501526040830151915067ffffffffffffffff80831660408601528060608501511660608601525080608084015116608085015250505050565b9284019260a092909201916001016113e4565b50909695505050505050565b60a08101610547828480518252602081015163ffffffff80821660208501526040830151915067ffffffffffffffff80831660408601528060608501511660608601525080608084015116608085015250505050565b600082198211156114c7576114c761156d565b500190565b600063ffffffff8083168185168083038211156114eb576114eb61156d565b01949350505050565b6000828210156115065761150661156d565b500390565b600063ffffffff838116908316818110156115285761152861156d565b039392505050565b60006000198214156115445761154461156d565b5060010190565b60008261156857634e487b7160e01b600052601260045260246000fd5b500690565b634e487b7160e01b600052601160045260246000fd5b634e487b7160e01b600052603260045260246000fd5b634e487b7160e01b600052604160045260246000fdfea264697066735822122012945f723367d2fa9a2a9500273147b515f2fcda90eeba3f05def9f51a29d01764736f6c63430008060033",
  "devdoc": {
    "author": "PoolTogether Inc Team",
    "kind": "dev",
    "methods": {
      "claimOwnership()": {
        "details": "This function is only callable by the `_pendingOwner`."
      },
      "constructor": {
        "params": {
          "_cardinality": "Draw ring buffer cardinality.",
          "_owner": "Address of the owner of the DrawHistory."
        }
      },
      "getDraw(uint32)": {
        "details": "Read a Draw using the Draw.drawId to calculate position in the draws ring buffer.",
        "params": {
          "drawId": "Draw.drawId"
        },
        "returns": {
          "_0": "DrawLib.Draw"
        }
      },
      "getDraws(uint32[])": {
        "details": "Read multiple Draws using each Draw.drawId to calculate position in the draws ring buffer.",
        "params": {
          "drawIds": "Array of Draw.drawIds"
        },
        "returns": {
          "_0": "DrawLib.Draw[]"
        }
      },
      "getNewestDraw()": {
        "details": "Uses the nextDrawIndex to calculate the most recently added Draw.",
        "returns": {
          "_0": "DrawLib.Draw"
        }
      },
      "getOldestDraw()": {
        "details": "Finds the oldest Draw by comparing and/or diffing totalDraws with the cardinality.",
        "returns": {
          "_0": "DrawLib.Draw"
        }
      },
      "manager()": {
        "returns": {
          "_0": "Current `_manager` address."
        }
      },
      "pendingOwner()": {
        "returns": {
          "_0": "Current `_pendingOwner` address."
        }
      },
      "pushDraw((uint256,uint32,uint64,uint64,uint32))": {
        "details": "Push new draw onto draws history via authorized manager or owner.",
        "params": {
          "draw": "DrawLib.Draw"
        },
        "returns": {
          "_0": "Draw.drawId"
        }
      },
      "renounceOwnership()": {
        "details": "Leaves the contract without owner. It will not be possible to call `onlyOwner` functions anymore. Can only be called by the current owner. NOTE: Renouncing ownership will leave the contract without an owner, thereby removing any functionality that is only available to the owner."
      },
      "setDraw((uint256,uint32,uint64,uint64,uint32))": {
        "details": "Updating a Draw should be used sparingly and only in the event an incorrect Draw parameter has been stored.",
        "params": {
          "newDraw": "DrawLib.Draw"
        },
        "returns": {
          "_0": "Draw.drawId"
        }
      },
      "setManager(address)": {
        "details": "Throws if called by any account other than the owner.",
        "params": {
          "_newManager": "New _manager address."
        },
        "returns": {
          "_0": "Boolean to indicate if the operation was successful or not."
        }
      },
      "transferOwnership(address)": {
        "params": {
          "_newOwner": "Address to transfer ownership to."
        }
      }
    },
    "title": "PoolTogether V4 DrawHistory",
    "version": 1
  },
  "userdoc": {
    "events": {
      "DrawSet(uint32,(uint256,uint32,uint64,uint64,uint32))": {
        "notice": "Emit when a new draw has been created."
      }
    },
    "kind": "user",
    "methods": {
      "MAX_CARDINALITY()": {
        "notice": "Draws ring buffer max length."
      },
      "claimOwnership()": {
        "notice": "Allows the `_pendingOwner` address to finalize the transfer."
      },
      "constructor": {
        "notice": "Deploy DrawHistory smart contract."
      },
      "getDraw(uint32)": {
        "notice": "Read a Draw from the draws ring buffer."
      },
      "getDraws(uint32[])": {
        "notice": "Read multiple Draws from the draws ring buffer."
      },
      "getNewestDraw()": {
        "notice": "Read newest Draw from the draws ring buffer."
      },
      "getOldestDraw()": {
        "notice": "Read oldest Draw from the draws ring buffer."
      },
      "manager()": {
        "notice": "Gets current `_manager`."
      },
      "owner()": {
        "notice": "Returns the address of the current owner."
      },
      "pendingOwner()": {
        "notice": "Gets current `_pendingOwner`."
      },
      "pushDraw((uint256,uint32,uint64,uint64,uint32))": {
        "notice": "Push Draw onto draws ring buffer history."
      },
      "renounceOwnership()": {
        "notice": "Renounce ownership of the contract."
      },
      "setDraw((uint256,uint32,uint64,uint64,uint32))": {
        "notice": "Set existing Draw in draws ring buffer with new parameters."
      },
      "setManager(address)": {
        "notice": "Set or change of manager."
      },
      "transferOwnership(address)": {
        "notice": "Allows current owner to set the `_pendingOwner` address."
      }
    },
    "notice": "The DrawHistory keeps a historical record of Draws created/pushed by DrawBeacon(s). Once a DrawBeacon (on mainnet) completes a RNG request, a new Draw will be added to the DrawHistory draws ring buffer. A DrawHistory will store a limited number of Draws before beginning to overwrite (managed via the cardinality) previous Draws. All mainnet DrawHistory(s) are updated directly from a DrawBeacon, but non-mainnet DrawHistory(s) (Matic, Optimism, Arbitrum, etc...) will receive a cross-chain message, duplicating the mainnet Draw configuration - enabling a prize savings liquidity network.",
    "version": 1
  },
  "storageLayout": {
    "storage": [
      {
        "astId": 3466,
        "contract": "@pooltogether/v4-core/contracts/DrawHistory.sol:DrawHistory",
        "label": "_owner",
        "offset": 0,
        "slot": "0",
        "type": "t_address"
      },
      {
        "astId": 3468,
        "contract": "@pooltogether/v4-core/contracts/DrawHistory.sol:DrawHistory",
        "label": "_pendingOwner",
        "offset": 0,
        "slot": "1",
        "type": "t_address"
      },
      {
        "astId": 3364,
        "contract": "@pooltogether/v4-core/contracts/DrawHistory.sol:DrawHistory",
        "label": "_manager",
        "offset": 0,
        "slot": "2",
        "type": "t_address"
      },
      {
        "astId": 5835,
        "contract": "@pooltogether/v4-core/contracts/DrawHistory.sol:DrawHistory",
        "label": "_draws",
        "offset": 0,
        "slot": "3",
        "type": "t_array(t_struct(Draw)9647_storage)256_storage"
      },
      {
        "astId": 5839,
        "contract": "@pooltogether/v4-core/contracts/DrawHistory.sol:DrawHistory",
        "label": "drawRingBuffer",
        "offset": 0,
        "slot": "515",
        "type": "t_struct(Buffer)9677_storage"
      }
    ],
    "types": {
      "t_address": {
        "encoding": "inplace",
        "label": "address",
        "numberOfBytes": "20"
      },
      "t_array(t_struct(Draw)9647_storage)256_storage": {
        "base": "t_struct(Draw)9647_storage",
        "encoding": "inplace",
        "label": "struct DrawLib.Draw[256]",
        "numberOfBytes": "16384"
      },
      "t_struct(Buffer)9677_storage": {
        "encoding": "inplace",
        "label": "struct DrawRingBufferLib.Buffer",
        "members": [
          {
            "astId": 9672,
            "contract": "@pooltogether/v4-core/contracts/DrawHistory.sol:DrawHistory",
            "label": "lastDrawId",
            "offset": 0,
            "slot": "0",
            "type": "t_uint32"
          },
          {
            "astId": 9674,
            "contract": "@pooltogether/v4-core/contracts/DrawHistory.sol:DrawHistory",
            "label": "nextIndex",
            "offset": 4,
            "slot": "0",
            "type": "t_uint32"
          },
          {
            "astId": 9676,
            "contract": "@pooltogether/v4-core/contracts/DrawHistory.sol:DrawHistory",
            "label": "cardinality",
            "offset": 8,
            "slot": "0",
            "type": "t_uint32"
          }
        ],
        "numberOfBytes": "32"
      },
      "t_struct(Draw)9647_storage": {
        "encoding": "inplace",
        "label": "struct DrawLib.Draw",
        "members": [
          {
            "astId": 9638,
            "contract": "@pooltogether/v4-core/contracts/DrawHistory.sol:DrawHistory",
            "label": "winningRandomNumber",
            "offset": 0,
            "slot": "0",
            "type": "t_uint256"
          },
          {
            "astId": 9640,
            "contract": "@pooltogether/v4-core/contracts/DrawHistory.sol:DrawHistory",
            "label": "drawId",
            "offset": 0,
            "slot": "1",
            "type": "t_uint32"
          },
          {
            "astId": 9642,
            "contract": "@pooltogether/v4-core/contracts/DrawHistory.sol:DrawHistory",
            "label": "timestamp",
            "offset": 4,
            "slot": "1",
            "type": "t_uint64"
          },
          {
            "astId": 9644,
            "contract": "@pooltogether/v4-core/contracts/DrawHistory.sol:DrawHistory",
            "label": "beaconPeriodStartedAt",
            "offset": 12,
            "slot": "1",
            "type": "t_uint64"
          },
          {
            "astId": 9646,
            "contract": "@pooltogether/v4-core/contracts/DrawHistory.sol:DrawHistory",
            "label": "beaconPeriodSeconds",
            "offset": 20,
            "slot": "1",
            "type": "t_uint32"
          }
        ],
        "numberOfBytes": "64"
      },
      "t_uint256": {
        "encoding": "inplace",
        "label": "uint256",
        "numberOfBytes": "32"
      },
      "t_uint32": {
        "encoding": "inplace",
        "label": "uint32",
        "numberOfBytes": "4"
      },
      "t_uint64": {
        "encoding": "inplace",
        "label": "uint64",
        "numberOfBytes": "8"
      }
    }
  }
}