{
  "address": "0x21720932C0dAeb1e75102EcE2CA67185834be1bc",
  "abi": [
    {
      "inputs": [
        {
          "internalType": "address",
          "name": "_owner",
          "type": "address"
        },
        {
          "internalType": "contract IDrawHistory",
          "name": "_drawHistory",
          "type": "address"
        },
        {
          "internalType": "contract IPrizeDistributionHistory",
          "name": "_prizeDistributionHistory",
          "type": "address"
        },
        {
          "internalType": "contract IDrawCalculatorTimelock",
          "name": "_timelock",
          "type": "address"
        }
      ],
      "stateMutability": "nonpayable",
      "type": "constructor"
    },
    {
      "anonymous": false,
      "inputs": [
        {
          "indexed": true,
          "internalType": "contract IDrawHistory",
          "name": "drawHistory",
          "type": "address"
        },
        {
          "indexed": true,
          "internalType": "contract IPrizeDistributionHistory",
          "name": "prizeDistributionHistory",
          "type": "address"
        },
        {
          "indexed": true,
          "internalType": "contract IDrawCalculatorTimelock",
          "name": "timelock",
          "type": "address"
        }
      ],
      "name": "Deployed",
      "type": "event"
    },
    {
      "anonymous": false,
      "inputs": [
        {
          "indexed": true,
          "internalType": "address",
          "name": "previousManager",
          "type": "address"
        },
        {
          "indexed": true,
          "internalType": "address",
          "name": "newManager",
          "type": "address"
        }
      ],
      "name": "ManagerTransferred",
      "type": "event"
    },
    {
      "anonymous": false,
      "inputs": [
        {
          "indexed": true,
          "internalType": "address",
          "name": "pendingOwner",
          "type": "address"
        }
      ],
      "name": "OwnershipOffered",
      "type": "event"
    },
    {
      "anonymous": false,
      "inputs": [
        {
          "indexed": true,
          "internalType": "address",
          "name": "previousOwner",
          "type": "address"
        },
        {
          "indexed": true,
          "internalType": "address",
          "name": "newOwner",
          "type": "address"
        }
      ],
      "name": "OwnershipTransferred",
      "type": "event"
    },
    {
      "inputs": [],
      "name": "claimOwnership",
      "outputs": [],
      "stateMutability": "nonpayable",
      "type": "function"
    },
    {
      "inputs": [],
      "name": "drawHistory",
      "outputs": [
        {
          "internalType": "contract IDrawHistory",
          "name": "",
          "type": "address"
        }
      ],
      "stateMutability": "view",
      "type": "function"
    },
    {
      "inputs": [],
      "name": "manager",
      "outputs": [
        {
          "internalType": "address",
          "name": "",
          "type": "address"
        }
      ],
      "stateMutability": "view",
      "type": "function"
    },
    {
      "inputs": [],
      "name": "owner",
      "outputs": [
        {
          "internalType": "address",
          "name": "",
          "type": "address"
        }
      ],
      "stateMutability": "view",
      "type": "function"
    },
    {
      "inputs": [],
      "name": "pendingOwner",
      "outputs": [
        {
          "internalType": "address",
          "name": "",
          "type": "address"
        }
      ],
      "stateMutability": "view",
      "type": "function"
    },
    {
      "inputs": [],
      "name": "prizeDistributionHistory",
      "outputs": [
        {
          "internalType": "contract IPrizeDistributionHistory",
          "name": "",
          "type": "address"
        }
      ],
      "stateMutability": "view",
      "type": "function"
    },
    {
      "inputs": [
        {
          "components": [
            {
              "internalType": "uint256",
              "name": "winningRandomNumber",
              "type": "uint256"
            },
            {
              "internalType": "uint32",
              "name": "drawId",
              "type": "uint32"
            },
            {
              "internalType": "uint64",
              "name": "timestamp",
              "type": "uint64"
            },
            {
              "internalType": "uint64",
              "name": "beaconPeriodStartedAt",
              "type": "uint64"
            },
            {
              "internalType": "uint32",
              "name": "beaconPeriodSeconds",
              "type": "uint32"
            }
          ],
          "internalType": "struct DrawLib.Draw",
          "name": "_draw",
          "type": "tuple"
        },
        {
          "components": [
            {
              "internalType": "uint8",
              "name": "bitRangeSize",
              "type": "uint8"
            },
            {
              "internalType": "uint8",
              "name": "matchCardinality",
              "type": "uint8"
            },
            {
              "internalType": "uint32",
              "name": "startOffsetTimestamp",
              "type": "uint32"
            },
            {
              "internalType": "uint32",
              "name": "endOffsetTimestamp",
              "type": "uint32"
            },
            {
              "internalType": "uint32",
              "name": "maxPicksPerUser",
              "type": "uint32"
            },
            {
              "internalType": "uint136",
              "name": "numberOfPicks",
              "type": "uint136"
            },
            {
              "internalType": "uint32[]",
              "name": "distributions",
              "type": "uint32[]"
            },
            {
              "internalType": "uint256",
              "name": "prize",
              "type": "uint256"
            }
          ],
          "internalType": "struct DrawLib.PrizeDistribution",
          "name": "_drawSetting",
          "type": "tuple"
        }
      ],
      "name": "push",
      "outputs": [],
      "stateMutability": "nonpayable",
      "type": "function"
    },
    {
      "inputs": [],
      "name": "renounceOwnership",
      "outputs": [],
      "stateMutability": "nonpayable",
      "type": "function"
    },
    {
      "inputs": [
        {
          "internalType": "address",
          "name": "_newManager",
          "type": "address"
        }
      ],
      "name": "setManager",
      "outputs": [
        {
          "internalType": "bool",
          "name": "",
          "type": "bool"
        }
      ],
      "stateMutability": "nonpayable",
      "type": "function"
    },
    {
      "inputs": [],
      "name": "timelock",
      "outputs": [
        {
          "internalType": "contract IDrawCalculatorTimelock",
          "name": "",
          "type": "address"
        }
      ],
      "stateMutability": "view",
      "type": "function"
    },
    {
      "inputs": [
        {
          "internalType": "address",
          "name": "_newOwner",
          "type": "address"
        }
      ],
      "name": "transferOwnership",
      "outputs": [],
      "stateMutability": "nonpayable",
      "type": "function"
    }
  ],
  "transactionHash": "0xa2d59fcd02c3eb5d9f197b3db6cfff4757db773386a7c1f46720cd34982db9e7",
  "args": [
    "0x94996399E8c5667f377460D0f3A5037BfC6c1275",
    "0xCf9496Fb6B681eD783204cda3aFC3c908FbbcCf1",
    "0x75a94aA59B2b2DB8724c9F55Ca856C0b7C0A01e3",
    "0x495BB8354D70D782dca25B16DC31D987F3a055d7"
  ],
  "solcInputHash": "9708f009c357312991df75253b2932ee",
  "bytecode": "0x60c060405234801561001057600080fd5b50604051610f47380380610f4783398101604081905261002f91610100565b83610039816100b0565b506001600160601b0319606084811b821660805283901b1660a052600380546001600160a01b038381166001600160a01b03199092168217909255604051909184811691908616907fc95935a66d15e0da5e412aca0ad27ae891d20b2fb91cf3994b6a3bf2b817808290600090a450505050610177565b600080546001600160a01b038381166001600160a01b0319831681178455604051919092169283917f8be0079c531659141344cd1fd0a4f28419497f9722a3daafe3b4186f6b6457e09190a35050565b6000806000806080858703121561011657600080fd5b84516101218161015f565b60208601519094506101328161015f565b60408601519093506101438161015f565b60608601519092506101548161015f565b939692955090935050565b6001600160a01b038116811461017457600080fd5b50565b60805160601c60a05160601c610d976101b060003960008181610107015261055d01526000818161013601526104a30152610d976000f3fe608060405234801561001057600080fd5b50600436106100c95760003560e01c80638d969c7511610081578063d33219b41161005b578063d33219b41461019f578063e30c3978146101b2578063f2fde38b146101c357600080fd5b80638d969c75146101585780638da5cb5b1461016b578063d0ebdbe71461017c57600080fd5b806351bb3282116100b257806351bb328214610102578063715018a6146101295780637ec77aa41461013157600080fd5b8063481c6a75146100ce5780634e71e0c8146100f8575b600080fd5b6002546001600160a01b03165b6040516001600160a01b0390911681526020015b60405180910390f35b6101006101d6565b005b6100db7f000000000000000000000000000000000000000000000000000000000000000081565b610100610269565b6100db7f000000000000000000000000000000000000000000000000000000000000000081565b610100610166366004610b13565b6102de565b6000546001600160a01b03166100db565b61018f61018a366004610ac1565b6105ea565b60405190151581526020016100ef565b6003546100db906001600160a01b031681565b6001546001600160a01b03166100db565b6101006101d1366004610ac1565b610666565b6001546001600160a01b031633146102355760405162461bcd60e51b815260206004820152601f60248201527f4f776e61626c652f63616c6c65722d6e6f742d70656e64696e674f776e65720060448201526064015b60405180910390fd5b60015461024a906001600160a01b03166107a2565b6001805473ffffffffffffffffffffffffffffffffffffffff19169055565b3361027c6000546001600160a01b031690565b6001600160a01b0316146102d25760405162461bcd60e51b815260206004820152601860248201527f4f776e61626c652f63616c6c65722d6e6f742d6f776e65720000000000000000604482015260640161022c565b6102dc60006107a2565b565b336102f16002546001600160a01b031690565b6001600160a01b0316148061031f5750336103146000546001600160a01b031690565b6001600160a01b0316145b6103915760405162461bcd60e51b815260206004820152602660248201527f4d616e61676561626c652f63616c6c65722d6e6f742d6d616e616765722d6f7260448201527f2d6f776e65720000000000000000000000000000000000000000000000000000606482015260840161022c565b60035460208301516040517fd3c45b8d00000000000000000000000000000000000000000000000000000000815263ffffffff90911660048201526001600160a01b039091169063d3c45b8d90602401602060405180830381600087803b1580156103fb57600080fd5b505af115801561040f573d6000803e3d6000fd5b505050506040513d601f19601f820116820180604052508101906104339190610af1565b50604080517f089eb92500000000000000000000000000000000000000000000000000000000815283516004820152602084015163ffffffff90811660248301529184015167ffffffffffffffff90811660448301526060850151166064820152608084015190911660848201527f00000000000000000000000000000000000000000000000000000000000000006001600160a01b03169063089eb9259060a401602060405180830381600087803b1580156104ef57600080fd5b505af1158015610503573d6000803e3d6000fd5b505050506040513d601f19601f820116820180604052508101906105279190610bdf565b5060208201516040517f5676460d0000000000000000000000000000000000000000000000000000000081526001600160a01b037f00000000000000000000000000000000000000000000000000000000000000001691635676460d9161059391908590600401610c3d565b602060405180830381600087803b1580156105ad57600080fd5b505af11580156105c1573d6000803e3d6000fd5b505050506040513d601f19601f820116820180604052508101906105e59190610af1565b505050565b6000336105ff6000546001600160a01b031690565b6001600160a01b0316146106555760405162461bcd60e51b815260206004820152601860248201527f4f776e61626c652f63616c6c65722d6e6f742d6f776e65720000000000000000604482015260640161022c565b61065e826107ff565b90505b919050565b336106796000546001600160a01b031690565b6001600160a01b0316146106cf5760405162461bcd60e51b815260206004820152601860248201527f4f776e61626c652f63616c6c65722d6e6f742d6f776e65720000000000000000604482015260640161022c565b6001600160a01b03811661074b5760405162461bcd60e51b815260206004820152602560248201527f4f776e61626c652f70656e64696e674f776e65722d6e6f742d7a65726f2d616460448201527f6472657373000000000000000000000000000000000000000000000000000000606482015260840161022c565b6001805473ffffffffffffffffffffffffffffffffffffffff19166001600160a01b0383169081179091556040517f239a2ddded15777fa246aed5f7e1a9bc69a39d4eb4a397034d1d85766cca7d4c90600090a250565b600080546001600160a01b0383811673ffffffffffffffffffffffffffffffffffffffff19831681178455604051919092169283917f8be0079c531659141344cd1fd0a4f28419497f9722a3daafe3b4186f6b6457e09190a35050565b6002546000906001600160a01b039081169083168114156108885760405162461bcd60e51b815260206004820152602360248201527f4d616e61676561626c652f6578697374696e672d6d616e616765722d6164647260448201527f6573730000000000000000000000000000000000000000000000000000000000606482015260840161022c565b6002805473ffffffffffffffffffffffffffffffffffffffff19166001600160a01b0385811691821790925560405190918316907f9cb45c728de594dab506a1f1a8554e24c8eeaf983618d5ec5dd7bc6f3c49feee90600090a350600192915050565b600082601f8301126108fc57600080fd5b8135602067ffffffffffffffff8083111561091957610919610d1d565b8260051b6040517fffffffffffffffffffffffffffffffffffffffffffffffffffffffffffffffe0603f8301168101818110848211171561095c5761095c610d1d565b6040528481528381019250868401828801850189101561097b57600080fd5b600092505b858310156109a757803561099381610d4c565b845292840192600192909201918401610980565b50979650505050505050565b600061010082840312156109c657600080fd5b6109ce610cf3565b90506109d982610ab0565b81526109e760208301610ab0565b60208201526109f860408301610a8d565b6040820152610a0960608301610a8d565b6060820152610a1a60808301610a8d565b6080820152610a2b60a08301610a6c565b60a082015260c082013567ffffffffffffffff811115610a4a57600080fd5b610a56848285016108eb565b60c08301525060e082013560e082015292915050565b803570ffffffffffffffffffffffffffffffffff8116811461066157600080fd5b803561066181610d4c565b803567ffffffffffffffff8116811461066157600080fd5b803560ff8116811461066157600080fd5b600060208284031215610ad357600080fd5b81356001600160a01b0381168114610aea57600080fd5b9392505050565b600060208284031215610b0357600080fd5b81518015158114610aea57600080fd5b60008082840360c0811215610b2757600080fd5b60a0811215610b3557600080fd5b5060405160a0810167ffffffffffffffff8282108183111715610b5a57610b5a610d1d565b816040528535835260208601359150610b7282610d4c565b816020840152610b8460408701610a98565b6040840152610b9560608701610a98565b606084015260808601359150610baa82610d4c565b81608084015282945060a0860135925080831115610bc757600080fd5b5050610bd5858286016109b3565b9150509250929050565b600060208284031215610bf157600080fd5b8151610aea81610d4c565b600081518084526020808501945080840160005b83811015610c3257815163ffffffff1687529582019590820190600101610c10565b509495945050505050565b63ffffffff831681526040602082015260ff825116604082015260ff602083015116606082015260006040830151610c7d608084018263ffffffff169052565b50606083015163ffffffff811660a084015250608083015163ffffffff811660c08401525060a083015170ffffffffffffffffffffffffffffffffff811660e08401525060c083015161010083810152610cdb610140840182610bfc565b905060e0840151610120840152809150509392505050565b604051610100810167ffffffffffffffff81118282101715610d1757610d17610d1d565b60405290565b7f4e487b7100000000000000000000000000000000000000000000000000000000600052604160045260246000fd5b63ffffffff81168114610d5e57600080fd5b5056fea26469706673582212209c9c321dda09c991f568b5be70df33f37521d1be5b740ac8fd55da370ed84e7264736f6c63430008060033",
  "devdoc": {
    "author": "PoolTogether Inc Team",
    "kind": "dev",
    "methods": {
      "claimOwnership()": {
        "details": "This function is only callable by the `_pendingOwner`."
      },
      "constructor": {
        "params": {
          "_drawHistory": "DrawHistory address",
          "_owner": "Address of the L1TimelockTrigger owner.",
          "_prizeDistributionHistory": "PrizeDistributionHistory address",
          "_timelock": "Elapsed seconds before new Draw is available"
        }
      },
      "manager()": {
        "returns": {
          "_0": "Current `_manager` address."
        }
      },
      "pendingOwner()": {
        "returns": {
          "_0": "Current `_pendingOwner` address."
        }
      },
      "push((uint256,uint32,uint64,uint64,uint32),(uint8,uint8,uint32,uint32,uint32,uint136,uint32[],uint256))": {
        "details": "Restricts new draws by forcing a push timelock.",
        "params": {
          "_draw": "DrawLib.Draw",
          "_drawSetting": "DrawLib.PrizeDistribution"
        }
      },
      "renounceOwnership()": {
        "details": "Leaves the contract without owner. It will not be possible to call `onlyOwner` functions anymore. Can only be called by the current owner. NOTE: Renouncing ownership will leave the contract without an owner, thereby removing any functionality that is only available to the owner."
      },
      "setManager(address)": {
        "details": "Throws if called by any account other than the owner.",
        "params": {
          "_newManager": "New _manager address."
        },
        "returns": {
          "_0": "Boolean to indicate if the operation was successful or not."
        }
      },
      "transferOwnership(address)": {
        "params": {
          "_newOwner": "Address to transfer ownership to."
        }
      }
    },
    "title": "PoolTogether V4 L1TimelockTrigger",
    "version": 1
  },
  "userdoc": {
    "events": {
      "Deployed(address,address,address)": {
        "notice": "Emitted when the contract is deployed."
      }
    },
    "kind": "user",
    "methods": {
      "claimOwnership()": {
        "notice": "Allows the `_pendingOwner` address to finalize the transfer."
      },
      "constructor": {
        "notice": "Initialize L1TimelockTrigger smart contract."
      },
      "manager()": {
        "notice": "Gets current `_manager`."
      },
      "owner()": {
        "notice": "Returns the address of the current owner."
      },
      "pendingOwner()": {
        "notice": "Gets current `_pendingOwner`."
      },
      "prizeDistributionHistory()": {
        "notice": "Internal PrizeDistributionHistory reference."
      },
      "push((uint256,uint32,uint64,uint64,uint32),(uint8,uint8,uint32,uint32,uint32,uint136,uint32[],uint256))": {
        "notice": "Push Draw onto draws ring buffer history."
      },
      "renounceOwnership()": {
        "notice": "Renounce ownership of the contract."
      },
      "setManager(address)": {
        "notice": "Set or change of manager."
      },
      "timelock()": {
        "notice": "Timelock struct reference."
      },
      "transferOwnership(address)": {
        "notice": "Allows current owner to set the `_pendingOwner` address."
      }
    },
    "notice": "L1TimelockTrigger(s) acts as an intermediary between multiple V4 smart contracts. The L1TimelockTrigger is responsible for pushing Draws to a DrawHistory and routing claim requests from a ClaimableDraw to a DrawCalculator. The primary objective is to  include a \"cooldown\" period for all new Draws. Allowing the correction of a malicously set Draw in the unfortunate event an Owner is compromised.",
    "version": 1
  },
  "storageLayout": {
    "storage": [
      {
        "astId": 3466,
        "contract": "@pooltogether/v4-timelocks/contracts/L1TimelockTrigger.sol:L1TimelockTrigger",
        "label": "_owner",
        "offset": 0,
        "slot": "0",
        "type": "t_address"
      },
      {
        "astId": 3468,
        "contract": "@pooltogether/v4-timelocks/contracts/L1TimelockTrigger.sol:L1TimelockTrigger",
        "label": "_pendingOwner",
        "offset": 0,
        "slot": "1",
        "type": "t_address"
      },
      {
        "astId": 3364,
        "contract": "@pooltogether/v4-timelocks/contracts/L1TimelockTrigger.sol:L1TimelockTrigger",
        "label": "_manager",
        "offset": 0,
        "slot": "2",
        "type": "t_address"
      },
      {
        "astId": 13431,
        "contract": "@pooltogether/v4-timelocks/contracts/L1TimelockTrigger.sol:L1TimelockTrigger",
        "label": "timelock",
        "offset": 0,
        "slot": "3",
        "type": "t_contract(IDrawCalculatorTimelock)13661"
      }
    ],
    "types": {
      "t_address": {
        "encoding": "inplace",
        "label": "address",
        "numberOfBytes": "20"
      },
      "t_contract(IDrawCalculatorTimelock)13661": {
        "encoding": "inplace",
        "label": "contract IDrawCalculatorTimelock",
        "numberOfBytes": "20"
      }
    }
  }
}