{
  "address": "0xEaE15ec8A403d59178ea35e0dE2f818b5E9BA016",
  "abi": [
    {
      "inputs": [
        {
          "internalType": "address",
          "name": "_owner",
          "type": "address"
        },
        {
          "internalType": "contract IDrawHistory",
          "name": "_drawHistory",
          "type": "address"
        },
        {
          "internalType": "contract IPrizeDistributionHistory",
          "name": "_prizeDistributionHistory",
          "type": "address"
        },
        {
          "internalType": "contract IDrawCalculatorTimelock",
          "name": "_timelock",
          "type": "address"
        }
      ],
      "stateMutability": "nonpayable",
      "type": "constructor"
    },
    {
      "anonymous": false,
      "inputs": [
        {
          "indexed": true,
          "internalType": "contract IDrawHistory",
          "name": "drawHistory",
          "type": "address"
        },
        {
          "indexed": true,
          "internalType": "contract IPrizeDistributionHistory",
          "name": "prizeDistributionHistory",
          "type": "address"
        },
        {
          "indexed": true,
          "internalType": "contract IDrawCalculatorTimelock",
          "name": "timelock",
          "type": "address"
        }
      ],
      "name": "Deployed",
      "type": "event"
    },
    {
      "anonymous": false,
      "inputs": [
        {
          "indexed": true,
          "internalType": "address",
          "name": "previousManager",
          "type": "address"
        },
        {
          "indexed": true,
          "internalType": "address",
          "name": "newManager",
          "type": "address"
        }
      ],
      "name": "ManagerTransferred",
      "type": "event"
    },
    {
      "anonymous": false,
      "inputs": [
        {
          "indexed": true,
          "internalType": "address",
          "name": "pendingOwner",
          "type": "address"
        }
      ],
      "name": "OwnershipOffered",
      "type": "event"
    },
    {
      "anonymous": false,
      "inputs": [
        {
          "indexed": true,
          "internalType": "address",
          "name": "previousOwner",
          "type": "address"
        },
        {
          "indexed": true,
          "internalType": "address",
          "name": "newOwner",
          "type": "address"
        }
      ],
      "name": "OwnershipTransferred",
      "type": "event"
    },
    {
      "inputs": [],
      "name": "claimOwnership",
      "outputs": [],
      "stateMutability": "nonpayable",
      "type": "function"
    },
    {
      "inputs": [],
      "name": "drawHistory",
      "outputs": [
        {
          "internalType": "contract IDrawHistory",
          "name": "",
          "type": "address"
        }
      ],
      "stateMutability": "view",
      "type": "function"
    },
    {
      "inputs": [],
      "name": "manager",
      "outputs": [
        {
          "internalType": "address",
          "name": "",
          "type": "address"
        }
      ],
      "stateMutability": "view",
      "type": "function"
    },
    {
      "inputs": [],
      "name": "owner",
      "outputs": [
        {
          "internalType": "address",
          "name": "",
          "type": "address"
        }
      ],
      "stateMutability": "view",
      "type": "function"
    },
    {
      "inputs": [],
      "name": "pendingOwner",
      "outputs": [
        {
          "internalType": "address",
          "name": "",
          "type": "address"
        }
      ],
      "stateMutability": "view",
      "type": "function"
    },
    {
      "inputs": [],
      "name": "prizeDistributionHistory",
      "outputs": [
        {
          "internalType": "contract IPrizeDistributionHistory",
          "name": "",
          "type": "address"
        }
      ],
      "stateMutability": "view",
      "type": "function"
    },
    {
      "inputs": [
        {
          "components": [
            {
              "internalType": "uint256",
              "name": "winningRandomNumber",
              "type": "uint256"
            },
            {
              "internalType": "uint32",
              "name": "drawId",
              "type": "uint32"
            },
            {
              "internalType": "uint64",
              "name": "timestamp",
              "type": "uint64"
            },
            {
              "internalType": "uint64",
              "name": "beaconPeriodStartedAt",
              "type": "uint64"
            },
            {
              "internalType": "uint32",
              "name": "beaconPeriodSeconds",
              "type": "uint32"
            }
          ],
          "internalType": "struct DrawLib.Draw",
          "name": "_draw",
          "type": "tuple"
        },
        {
          "components": [
            {
              "internalType": "uint8",
              "name": "bitRangeSize",
              "type": "uint8"
            },
            {
              "internalType": "uint8",
              "name": "matchCardinality",
              "type": "uint8"
            },
            {
              "internalType": "uint32",
              "name": "startTimestampOffset",
              "type": "uint32"
            },
            {
              "internalType": "uint32",
              "name": "endTimestampOffset",
              "type": "uint32"
            },
            {
              "internalType": "uint32",
              "name": "maxPicksPerUser",
              "type": "uint32"
            },
            {
              "internalType": "uint136",
              "name": "numberOfPicks",
              "type": "uint136"
            },
            {
              "internalType": "uint32[16]",
              "name": "distributions",
              "type": "uint32[16]"
            },
            {
              "internalType": "uint256",
              "name": "prize",
              "type": "uint256"
            }
          ],
          "internalType": "struct DrawLib.PrizeDistribution",
          "name": "_drawSetting",
          "type": "tuple"
        }
      ],
      "name": "push",
      "outputs": [],
      "stateMutability": "nonpayable",
      "type": "function"
    },
    {
      "inputs": [],
      "name": "renounceOwnership",
      "outputs": [],
      "stateMutability": "nonpayable",
      "type": "function"
    },
    {
      "inputs": [
        {
          "internalType": "address",
          "name": "_newManager",
          "type": "address"
        }
      ],
      "name": "setManager",
      "outputs": [
        {
          "internalType": "bool",
          "name": "",
          "type": "bool"
        }
      ],
      "stateMutability": "nonpayable",
      "type": "function"
    },
    {
      "inputs": [],
      "name": "timelock",
      "outputs": [
        {
          "internalType": "contract IDrawCalculatorTimelock",
          "name": "",
          "type": "address"
        }
      ],
      "stateMutability": "view",
      "type": "function"
    },
    {
      "inputs": [
        {
          "internalType": "address",
          "name": "_newOwner",
          "type": "address"
        }
      ],
      "name": "transferOwnership",
      "outputs": [],
      "stateMutability": "nonpayable",
      "type": "function"
    }
  ],
  "transactionHash": "0x71d6dad6ca5a70582f19bfd02c24ab567527ad4f4bc9a533e4035644649ee074",
  "args": [
    "0xE0F4217390221aF47855E094F6e112D43C8698fE",
    "0x2FAd3e7B44751F15424232Ba16414Be72bB2d806",
    "0x1bB98333337406178754B4ECcE125a30a961f1FC",
    "0xd90B4fb6c391f47fc7643ed695aA77318d23aC3B"
  ],
  "solcInputHash": "3016cc01e6fa1ea04dcb1ee229d02cd3",
  "bytecode": "0x60c060405234801561001057600080fd5b50604051610eb9380380610eb983398101604081905261002f91610100565b83610039816100b0565b506001600160601b0319606084811b821660805283901b1660a052600380546001600160a01b038381166001600160a01b03199092168217909255604051909184811691908616907fc95935a66d15e0da5e412aca0ad27ae891d20b2fb91cf3994b6a3bf2b817808290600090a450505050610177565b600080546001600160a01b038381166001600160a01b0319831681178455604051919092169283917f8be0079c531659141344cd1fd0a4f28419497f9722a3daafe3b4186f6b6457e09190a35050565b6000806000806080858703121561011657600080fd5b84516101218161015f565b60208601519094506101328161015f565b60408601519093506101438161015f565b60608601519092506101548161015f565b939692955090935050565b6001600160a01b038116811461017457600080fd5b50565b60805160601c60a05160601c610d096101b060003960008181610107015261055d01526000818161013601526104a30152610d096000f3fe608060405234801561001057600080fd5b50600436106100c95760003560e01c80638ba9299911610081578063d33219b41161005b578063d33219b41461019f578063e30c3978146101b2578063f2fde38b146101c357600080fd5b80638ba92999146101585780638da5cb5b1461016b578063d0ebdbe71461017c57600080fd5b806351bb3282116100b257806351bb328214610102578063715018a6146101295780637ec77aa41461013157600080fd5b8063481c6a75146100ce5780634e71e0c8146100f8575b600080fd5b6002546001600160a01b03165b6040516001600160a01b0390911681526020015b60405180910390f35b6101006101d6565b005b6100db7f000000000000000000000000000000000000000000000000000000000000000081565b610100610269565b6100db7f000000000000000000000000000000000000000000000000000000000000000081565b610100610166366004610a15565b6102de565b6000546001600160a01b03166100db565b61018f61018a3660046109c3565b6105ea565b60405190151581526020016100ef565b6003546100db906001600160a01b031681565b6001546001600160a01b03166100db565b6101006101d13660046109c3565b610666565b6001546001600160a01b031633146102355760405162461bcd60e51b815260206004820152601f60248201527f4f776e61626c652f63616c6c65722d6e6f742d70656e64696e674f776e65720060448201526064015b60405180910390fd5b60015461024a906001600160a01b03166107a2565b6001805473ffffffffffffffffffffffffffffffffffffffff19169055565b3361027c6000546001600160a01b031690565b6001600160a01b0316146102d25760405162461bcd60e51b815260206004820152601860248201527f4f776e61626c652f63616c6c65722d6e6f742d6f776e65720000000000000000604482015260640161022c565b6102dc60006107a2565b565b336102f16002546001600160a01b031690565b6001600160a01b0316148061031f5750336103146000546001600160a01b031690565b6001600160a01b0316145b6103915760405162461bcd60e51b815260206004820152602660248201527f4d616e61676561626c652f63616c6c65722d6e6f742d6d616e616765722d6f7260448201527f2d6f776e65720000000000000000000000000000000000000000000000000000606482015260840161022c565b60035460208301516040517fd3c45b8d00000000000000000000000000000000000000000000000000000000815263ffffffff90911660048201526001600160a01b039091169063d3c45b8d90602401602060405180830381600087803b1580156103fb57600080fd5b505af115801561040f573d6000803e3d6000fd5b505050506040513d601f19601f8201168201806040525081019061043391906109f3565b50604080517f089eb92500000000000000000000000000000000000000000000000000000000815283516004820152602084015163ffffffff90811660248301529184015167ffffffffffffffff90811660448301526060850151166064820152608084015190911660848201527f00000000000000000000000000000000000000000000000000000000000000006001600160a01b03169063089eb9259060a401602060405180830381600087803b1580156104ef57600080fd5b505af1158015610503573d6000803e3d6000fd5b505050506040513d601f19601f820116820180604052508101906105279190610b55565b5060208201516040517f606351300000000000000000000000000000000000000000000000000000000081526001600160a01b037f0000000000000000000000000000000000000000000000000000000000000000169163606351309161059391908590600401610ba1565b602060405180830381600087803b1580156105ad57600080fd5b505af11580156105c1573d6000803e3d6000fd5b505050506040513d601f19601f820116820180604052508101906105e591906109f3565b505050565b6000336105ff6000546001600160a01b031690565b6001600160a01b0316146106555760405162461bcd60e51b815260206004820152601860248201527f4f776e61626c652f63616c6c65722d6e6f742d6f776e65720000000000000000604482015260640161022c565b61065e826107ff565b90505b919050565b336106796000546001600160a01b031690565b6001600160a01b0316146106cf5760405162461bcd60e51b815260206004820152601860248201527f4f776e61626c652f63616c6c65722d6e6f742d6f776e65720000000000000000604482015260640161022c565b6001600160a01b03811661074b5760405162461bcd60e51b815260206004820152602560248201527f4f776e61626c652f70656e64696e674f776e65722d6e6f742d7a65726f2d616460448201527f6472657373000000000000000000000000000000000000000000000000000000606482015260840161022c565b6001805473ffffffffffffffffffffffffffffffffffffffff19166001600160a01b0383169081179091556040517f239a2ddded15777fa246aed5f7e1a9bc69a39d4eb4a397034d1d85766cca7d4c90600090a250565b600080546001600160a01b0383811673ffffffffffffffffffffffffffffffffffffffff19831681178455604051919092169283917f8be0079c531659141344cd1fd0a4f28419497f9722a3daafe3b4186f6b6457e09190a35050565b6002546000906001600160a01b039081169083168114156108885760405162461bcd60e51b815260206004820152602360248201527f4d616e61676561626c652f6578697374696e672d6d616e616765722d6164647260448201527f6573730000000000000000000000000000000000000000000000000000000000606482015260840161022c565b6002805473ffffffffffffffffffffffffffffffffffffffff19166001600160a01b0385811691821790925560405190918316907f9cb45c728de594dab506a1f1a8554e24c8eeaf983618d5ec5dd7bc6f3c49feee90600090a350600192915050565b600082601f8301126108fc57600080fd5b60405161020080820182811067ffffffffffffffff8211171561092157610921610c8f565b604052818482810187101561093557600080fd5b600092505b601083101561096357803561094e81610cbe565b8252600192909201916020918201910161093a565b509195945050505050565b803570ffffffffffffffffffffffffffffffffff8116811461066157600080fd5b803561066181610cbe565b803567ffffffffffffffff8116811461066157600080fd5b803560ff8116811461066157600080fd5b6000602082840312156109d557600080fd5b81356001600160a01b03811681146109ec57600080fd5b9392505050565b600060208284031215610a0557600080fd5b815180151581146109ec57600080fd5b600080828403610380811215610a2a57600080fd5b60a0811215610a3857600080fd5b610a40610c46565b843581526020850135610a5281610cbe565b6020820152610a636040860161099a565b6040820152610a746060860161099a565b60608201526080850135610a8781610cbe565b608082015292506102e07fffffffffffffffffffffffffffffffffffffffffffffffffffffffffffffff6082011215610abf57600080fd5b50610ac8610c6f565b610ad460a085016109b2565b8152610ae260c085016109b2565b6020820152610af360e0850161098f565b6040820152610b05610100850161098f565b6060820152610b17610120850161098f565b6080820152610b29610140850161096e565b60a0820152610b3c8561016086016108eb565b60c0820152610360939093013560e08401525092909150565b600060208284031215610b6757600080fd5b81516109ec81610cbe565b8060005b6010811015610b9b57815163ffffffff16845260209384019390910190600101610b76565b50505050565b60006103008201905063ffffffff808516835260ff845116602084015260ff6020850151166040840152806040850151166060840152506060830151610bef608084018263ffffffff169052565b50608083015163ffffffff811660a08401525060a083015170ffffffffffffffffffffffffffffffffff811660c08401525060c0830151610c3360e0840182610b72565b5060e08301516102e08301529392505050565b60405160a0810167ffffffffffffffff81118282101715610c6957610c69610c8f565b60405290565b604051610100810167ffffffffffffffff81118282101715610c6957610c695b7f4e487b7100000000000000000000000000000000000000000000000000000000600052604160045260246000fd5b63ffffffff81168114610cd057600080fd5b5056fea264697066735822122054a85986eb671312944623e9d6abe00a7e113c5cac7a5c6bc38930c95103e64c64736f6c63430008060033",
  "devdoc": {
    "author": "PoolTogether Inc Team",
    "kind": "dev",
    "methods": {
      "claimOwnership()": {
        "details": "This function is only callable by the `_pendingOwner`."
      },
      "constructor": {
        "params": {
          "_drawHistory": "DrawHistory address",
          "_owner": "Address of the L2TimelockTrigger owner.",
          "_prizeDistributionHistory": "PrizeDistributionHistory address",
          "_timelock": "Elapsed seconds before new Draw is available"
        }
      },
      "manager()": {
        "returns": {
          "_0": "Current `_manager` address."
        }
      },
      "pendingOwner()": {
        "returns": {
          "_0": "Current `_pendingOwner` address."
        }
      },
      "push((uint256,uint32,uint64,uint64,uint32),(uint8,uint8,uint32,uint32,uint32,uint136,uint32[16],uint256))": {
        "details": "Restricts new draws by forcing a push timelock.",
        "params": {
          "_draw": "DrawLib.Draw",
          "_drawSetting": "DrawLib.PrizeDistribution"
        }
      },
      "renounceOwnership()": {
        "details": "Leaves the contract without owner. It will not be possible to call `onlyOwner` functions anymore. Can only be called by the current owner. NOTE: Renouncing ownership will leave the contract without an owner, thereby removing any functionality that is only available to the owner."
      },
      "setManager(address)": {
        "details": "Throws if called by any account other than the owner.",
        "params": {
          "_newManager": "New _manager address."
        },
        "returns": {
          "_0": "Boolean to indicate if the operation was successful or not."
        }
      },
      "transferOwnership(address)": {
        "params": {
          "_newOwner": "Address to transfer ownership to."
        }
      }
    },
    "title": "PoolTogether V4 L2TimelockTrigger",
    "version": 1
  },
  "userdoc": {
    "events": {
      "Deployed(address,address,address)": {
        "notice": "Emitted when the contract is deployed."
      }
    },
    "kind": "user",
    "methods": {
      "claimOwnership()": {
        "notice": "Allows the `_pendingOwner` address to finalize the transfer."
      },
      "constructor": {
        "notice": "Initialize L2TimelockTrigger smart contract."
      },
      "manager()": {
        "notice": "Gets current `_manager`."
      },
      "owner()": {
        "notice": "Returns the address of the current owner."
      },
      "pendingOwner()": {
        "notice": "Gets current `_pendingOwner`."
      },
      "prizeDistributionHistory()": {
        "notice": "Internal PrizeDistributionHistory reference."
      },
      "push((uint256,uint32,uint64,uint64,uint32),(uint8,uint8,uint32,uint32,uint32,uint136,uint32[16],uint256))": {
        "notice": "Push Draw onto draws ring buffer history."
      },
      "renounceOwnership()": {
        "notice": "Renounce ownership of the contract."
      },
      "setManager(address)": {
        "notice": "Set or change of manager."
      },
      "timelock()": {
        "notice": "Timelock struct reference."
      },
      "transferOwnership(address)": {
        "notice": "Allows current owner to set the `_pendingOwner` address."
      }
    },
    "notice": "L2TimelockTrigger(s) acts as an intermediary between multiple V4 smart contracts. The L2TimelockTrigger is responsible for pushing Draws to a DrawHistory and routing claim requests from a ClaimableDraw to a DrawCalculator. The primary objective is to  include a \"cooldown\" period for all new Draws. Allowing the correction of a malicously set Draw in the unfortunate event an Owner is compromised.",
    "version": 1
  },
  "storageLayout": {
    "storage": [
      {
        "astId": 3178,
        "contract": "@pooltogether/v4-timelocks/contracts/L2TimelockTrigger.sol:L2TimelockTrigger",
        "label": "_owner",
        "offset": 0,
        "slot": "0",
        "type": "t_address"
      },
      {
        "astId": 3180,
        "contract": "@pooltogether/v4-timelocks/contracts/L2TimelockTrigger.sol:L2TimelockTrigger",
        "label": "_pendingOwner",
        "offset": 0,
        "slot": "1",
        "type": "t_address"
      },
      {
        "astId": 3076,
        "contract": "@pooltogether/v4-timelocks/contracts/L2TimelockTrigger.sol:L2TimelockTrigger",
        "label": "_manager",
        "offset": 0,
        "slot": "2",
        "type": "t_address"
      },
      {
        "astId": 13324,
        "contract": "@pooltogether/v4-timelocks/contracts/L2TimelockTrigger.sol:L2TimelockTrigger",
        "label": "timelock",
        "offset": 0,
        "slot": "3",
        "type": "t_contract(IDrawCalculatorTimelock)13474"
      }
    ],
    "types": {
      "t_address": {
        "encoding": "inplace",
        "label": "address",
        "numberOfBytes": "20"
      },
      "t_contract(IDrawCalculatorTimelock)13474": {
        "encoding": "inplace",
        "label": "contract IDrawCalculatorTimelock",
        "numberOfBytes": "20"
      }
    }
  }
}