{
  "address": "0x4656dBf59be0E4f1853649d4AC650805c153EE05",
  "abi": [
    {
      "inputs": [
        {
          "internalType": "string",
          "name": "_name",
          "type": "string"
        },
        {
          "internalType": "string",
          "name": "_symbol",
          "type": "string"
        },
        {
          "internalType": "uint8",
          "name": "_decimals",
          "type": "uint8"
        }
      ],
      "stateMutability": "nonpayable",
      "type": "constructor"
    },
    {
      "anonymous": false,
      "inputs": [
        {
          "indexed": true,
          "internalType": "address",
          "name": "owner",
          "type": "address"
        },
        {
          "indexed": true,
          "internalType": "address",
          "name": "spender",
          "type": "address"
        },
        {
          "indexed": false,
          "internalType": "uint256",
          "name": "value",
          "type": "uint256"
        }
      ],
      "name": "Approval",
      "type": "event"
    },
    {
      "anonymous": false,
      "inputs": [
        {
          "indexed": true,
          "internalType": "address",
          "name": "from",
          "type": "address"
        },
        {
          "indexed": true,
          "internalType": "address",
          "name": "to",
          "type": "address"
        },
        {
          "indexed": false,
          "internalType": "uint256",
          "name": "value",
          "type": "uint256"
        }
      ],
      "name": "Transfer",
      "type": "event"
    },
    {
      "inputs": [
        {
          "internalType": "address",
          "name": "owner",
          "type": "address"
        },
        {
          "internalType": "address",
          "name": "spender",
          "type": "address"
        }
      ],
      "name": "allowance",
      "outputs": [
        {
          "internalType": "uint256",
          "name": "",
          "type": "uint256"
        }
      ],
      "stateMutability": "view",
      "type": "function"
    },
    {
      "inputs": [
        {
          "internalType": "address",
          "name": "spender",
          "type": "address"
        },
        {
          "internalType": "uint256",
          "name": "amount",
          "type": "uint256"
        }
      ],
      "name": "approve",
      "outputs": [
        {
          "internalType": "bool",
          "name": "",
          "type": "bool"
        }
      ],
      "stateMutability": "nonpayable",
      "type": "function"
    },
    {
      "inputs": [
        {
          "internalType": "address",
          "name": "account",
          "type": "address"
        }
      ],
      "name": "balanceOf",
      "outputs": [
        {
          "internalType": "uint256",
          "name": "",
          "type": "uint256"
        }
      ],
      "stateMutability": "view",
      "type": "function"
    },
    {
      "inputs": [
        {
          "internalType": "address",
          "name": "addr",
          "type": "address"
        }
      ],
      "name": "balanceOfToken",
      "outputs": [
        {
          "internalType": "uint256",
          "name": "",
          "type": "uint256"
        }
      ],
      "stateMutability": "view",
      "type": "function"
    },
    {
      "inputs": [],
      "name": "decimals",
      "outputs": [
        {
          "internalType": "uint8",
          "name": "",
          "type": "uint8"
        }
      ],
      "stateMutability": "view",
      "type": "function"
    },
    {
      "inputs": [
        {
          "internalType": "address",
          "name": "spender",
          "type": "address"
        },
        {
          "internalType": "uint256",
          "name": "subtractedValue",
          "type": "uint256"
        }
      ],
      "name": "decreaseAllowance",
      "outputs": [
        {
          "internalType": "bool",
          "name": "",
          "type": "bool"
        }
      ],
      "stateMutability": "nonpayable",
      "type": "function"
    },
    {
      "inputs": [],
      "name": "depositToken",
      "outputs": [
        {
          "internalType": "address",
          "name": "",
          "type": "address"
        }
      ],
      "stateMutability": "view",
      "type": "function"
    },
    {
      "inputs": [
        {
          "internalType": "address",
          "name": "spender",
          "type": "address"
        },
        {
          "internalType": "uint256",
          "name": "addedValue",
          "type": "uint256"
        }
      ],
      "name": "increaseAllowance",
      "outputs": [
        {
          "internalType": "bool",
          "name": "",
          "type": "bool"
        }
      ],
      "stateMutability": "nonpayable",
      "type": "function"
    },
    {
      "inputs": [],
      "name": "name",
      "outputs": [
        {
          "internalType": "string",
          "name": "",
          "type": "string"
        }
      ],
      "stateMutability": "view",
      "type": "function"
    },
    {
      "inputs": [
        {
          "internalType": "uint256",
          "name": "amount",
          "type": "uint256"
        }
      ],
      "name": "redeemToken",
      "outputs": [
        {
          "internalType": "uint256",
          "name": "",
          "type": "uint256"
        }
      ],
      "stateMutability": "nonpayable",
      "type": "function"
    },
    {
      "inputs": [
        {
          "internalType": "uint256",
          "name": "shares",
          "type": "uint256"
        }
      ],
      "name": "sharesToTokens",
      "outputs": [
        {
          "internalType": "uint256",
          "name": "",
          "type": "uint256"
        }
      ],
      "stateMutability": "view",
      "type": "function"
    },
    {
      "inputs": [
        {
          "internalType": "uint256",
          "name": "amount",
          "type": "uint256"
        },
        {
          "internalType": "address",
          "name": "to",
          "type": "address"
        }
      ],
      "name": "supplyTokenTo",
      "outputs": [],
      "stateMutability": "nonpayable",
      "type": "function"
    },
    {
      "inputs": [],
      "name": "symbol",
      "outputs": [
        {
          "internalType": "string",
          "name": "",
          "type": "string"
        }
      ],
      "stateMutability": "view",
      "type": "function"
    },
    {
      "inputs": [],
      "name": "token",
      "outputs": [
        {
          "internalType": "contract ERC20Mintable",
          "name": "",
          "type": "address"
        }
      ],
      "stateMutability": "view",
      "type": "function"
    },
    {
      "inputs": [
        {
          "internalType": "uint256",
          "name": "tokens",
          "type": "uint256"
        }
      ],
      "name": "tokensToShares",
      "outputs": [
        {
          "internalType": "uint256",
          "name": "",
          "type": "uint256"
        }
      ],
      "stateMutability": "view",
      "type": "function"
    },
    {
      "inputs": [],
      "name": "totalSupply",
      "outputs": [
        {
          "internalType": "uint256",
          "name": "",
          "type": "uint256"
        }
      ],
      "stateMutability": "view",
      "type": "function"
    },
    {
      "inputs": [
        {
          "internalType": "address",
          "name": "recipient",
          "type": "address"
        },
        {
          "internalType": "uint256",
          "name": "amount",
          "type": "uint256"
        }
      ],
      "name": "transfer",
      "outputs": [
        {
          "internalType": "bool",
          "name": "",
          "type": "bool"
        }
      ],
      "stateMutability": "nonpayable",
      "type": "function"
    },
    {
      "inputs": [
        {
          "internalType": "address",
          "name": "sender",
          "type": "address"
        },
        {
          "internalType": "address",
          "name": "recipient",
          "type": "address"
        },
        {
          "internalType": "uint256",
          "name": "amount",
          "type": "uint256"
        }
      ],
      "name": "transferFrom",
      "outputs": [
        {
          "internalType": "bool",
          "name": "",
          "type": "bool"
        }
      ],
      "stateMutability": "nonpayable",
      "type": "function"
    },
    {
      "inputs": [
        {
          "internalType": "uint256",
          "name": "amount",
          "type": "uint256"
        }
      ],
      "name": "yield",
      "outputs": [],
      "stateMutability": "nonpayable",
      "type": "function"
    }
  ],
  "transactionHash": "0x2604a6af8710a9aa3a0e4cd0a20e9afe7e727b0bb5a68868b48087714dc24c8d",
  "args": [
    "Token",
    "TOK",
    6
  ],
  "solcInputHash": "85e203f4d5e0d05e2a4b0d7adf974cd9",
  "bytecode": "0x60806040523480156200001157600080fd5b506040516200229c3803806200229c833981016040819052620000349162000264565b60405180604001604052806005815260200164165251531160da1b8152506040518060400160405280600381526020016216531160ea1b81525060128260039080519060200190620000889291906200011f565b5081516200009e9060049060208501906200011f565b506005805460ff191660ff929092169190911790555050604051839083908390620000c990620001ae565b620000d79392919062000317565b604051809103906000f080158015620000f4573d6000803e3d6000fd5b50603380546001600160a01b0319166001600160a01b039290921691909117905550620003da915050565b8280546200012d9062000387565b90600052602060002090601f0160209004810192826200015157600085556200019c565b82601f106200016c57805160ff19168380011785556200019c565b828001600101855582156200019c579182015b828111156200019c5782518255916020019190600101906200017f565b50620001aa929150620001bc565b5090565b610e85806200141783390190565b5b80821115620001aa5760008155600101620001bd565b600082601f830112620001e557600080fd5b81516001600160401b0380821115620002025762000202620003c4565b604051601f8301601f19908116603f011681019082821181831017156200022d576200022d620003c4565b816040528381528660208588010111156200024757600080fd5b6200025a84602083016020890162000354565b9695505050505050565b6000806000606084860312156200027a57600080fd5b83516001600160401b03808211156200029257600080fd5b620002a087838801620001d3565b94506020860151915080821115620002b757600080fd5b50620002c686828701620001d3565b925050604084015160ff81168114620002de57600080fd5b809150509250925092565b600081518084526200030381602086016020860162000354565b601f01601f19169290920160200192915050565b6060815260006200032c6060830186620002e9565b8281036020840152620003408186620002e9565b91505060ff83166040830152949350505050565b60005b838110156200037157818101518382015260200162000357565b8381111562000381576000848401525b50505050565b600181811c908216806200039c57607f821691505b60208210811415620003be57634e487b7160e01b600052602260045260246000fd5b50919050565b634e487b7160e01b600052604160045260246000fd5b61102d80620003ea6000396000f3fe608060405234801561001057600080fd5b50600436106101215760003560e01c8063765287ef116100ad578063b99152d011610071578063b99152d014610259578063c89039c51461026c578063dd62ed3e14610291578063f3044ac7146102ca578063fc0c546a146102dd57600080fd5b8063765287ef1461020357806387a6eeef1461021857806395d89b411461022b578063a457c2d714610233578063a9059cbb1461024657600080fd5b806323b872dd116100f457806323b872dd1461018c57806327def4fd1461019f578063313ce567146101b257806339509351146101c757806370a08231146101da57600080fd5b8063013054c21461012657806306fdde031461014c578063095ea7b31461016157806318160ddd14610184575b600080fd5b610139610134366004610e92565b6102f0565b6040519081526020015b60405180910390f35b610154610394565b6040516101439190610ee7565b61017461016f366004610e46565b610426565b6040519015158152602001610143565b600254610139565b61017461019a366004610e0a565b61043c565b6101396101ad366004610e92565b6104eb565b60055460405160ff9091168152602001610143565b6101746101d5366004610e46565b6105a1565b6101396101e8366004610dbc565b6001600160a01b031660009081526020819052604090205490565b610216610211366004610e92565b6105dd565b005b610216610226366004610ec4565b610665565b61015461070b565b610174610241366004610e46565b61071a565b610174610254366004610e46565b6107b3565b610139610267366004610dbc565b6107c0565b6033546001600160a01b03165b6040516001600160a01b039091168152602001610143565b61013961029f366004610dd7565b6001600160a01b03918216600090815260016020908152604080832093909416825291909152205490565b6101396102d8366004610e92565b6107e8565b603354610279906001600160a01b031681565b6000806102fc836107e8565b90506103083382610880565b60335460405163a9059cbb60e01b8152336004820152602481018590526001600160a01b039091169063a9059cbb90604401602060405180830381600087803b15801561035457600080fd5b505af1158015610368573d6000803e3d6000fd5b505050506040513d601f19601f8201168201806040525081019061038c9190610e70565b509192915050565b6060600380546103a390610fac565b80601f01602080910402602001604051908101604052809291908181526020018280546103cf90610fac565b801561041c5780601f106103f15761010080835404028352916020019161041c565b820191906000526020600020905b8154815290600101906020018083116103ff57829003601f168201915b5050505050905090565b60006104333384846109ce565b50600192915050565b6000610449848484610af2565b6001600160a01b0384166000908152600160209081526040808320338452909152902054828110156104d35760405162461bcd60e51b815260206004820152602860248201527f45524332303a207472616e7366657220616d6f756e74206578636565647320616044820152676c6c6f77616e636560c01b60648201526084015b60405180910390fd5b6104e085338584036109ce565b506001949350505050565b6000806104f760025490565b905080610505575090919050565b6033546040516370a0823160e01b815230600482015282916001600160a01b0316906370a082319060240160206040518083038186803b15801561054857600080fd5b505afa15801561055c573d6000803e3d6000fd5b505050506040513d601f19601f820116820180604052508101906105809190610eab565b61058a9085610f76565b6105949190610f54565b9392505050565b50919050565b3360008181526001602090815260408083206001600160a01b038716845290915281205490916104339185906105d8908690610f3c565b6109ce565b6033546040516340c10f1960e01b8152306004820152602481018390526001600160a01b03909116906340c10f1990604401602060405180830381600087803b15801561062957600080fd5b505af115801561063d573d6000803e3d6000fd5b505050506040513d601f19601f820116820180604052508101906106619190610e70565b5050565b6000610670836107e8565b6033546040516323b872dd60e01b8152336004820152306024820152604481018690529192506001600160a01b0316906323b872dd90606401602060405180830381600087803b1580156106c357600080fd5b505af11580156106d7573d6000803e3d6000fd5b505050506040513d601f19601f820116820180604052508101906106fb9190610e70565b506107068282610cc1565b505050565b6060600480546103a390610fac565b3360009081526001602090815260408083206001600160a01b03861684529091528120548281101561079c5760405162461bcd60e51b815260206004820152602560248201527f45524332303a2064656372656173656420616c6c6f77616e63652062656c6f77604482015264207a65726f60d81b60648201526084016104ca565b6107a933858584036109ce565b5060019392505050565b6000610433338484610af2565b6001600160a01b0381166000908152602081905260408120546107e2906104eb565b92915050565b6033546040516370a0823160e01b815230600482015260009182916001600160a01b03909116906370a082319060240160206040518083038186803b15801561083057600080fd5b505afa158015610844573d6000803e3d6000fd5b505050506040513d601f19601f820116820180604052508101906108689190610eab565b905080610876575090919050565b8061058060025490565b6001600160a01b0382166108e05760405162461bcd60e51b815260206004820152602160248201527f45524332303a206275726e2066726f6d20746865207a65726f206164647265736044820152607360f81b60648201526084016104ca565b6001600160a01b038216600090815260208190526040902054818110156109545760405162461bcd60e51b815260206004820152602260248201527f45524332303a206275726e20616d6f756e7420657863656564732062616c616e604482015261636560f01b60648201526084016104ca565b6001600160a01b0383166000908152602081905260408120838303905560028054849290610983908490610f95565b90915550506040518281526000906001600160a01b038516907fddf252ad1be2c89b69c2b068fc378daa952ba7f163c4a11628f55a4df523b3ef9060200160405180910390a3505050565b6001600160a01b038316610a305760405162461bcd60e51b8152602060048201526024808201527f45524332303a20617070726f76652066726f6d20746865207a65726f206164646044820152637265737360e01b60648201526084016104ca565b6001600160a01b038216610a915760405162461bcd60e51b815260206004820152602260248201527f45524332303a20617070726f766520746f20746865207a65726f206164647265604482015261737360f01b60648201526084016104ca565b6001600160a01b0383811660008181526001602090815260408083209487168084529482529182902085905590518481527f8c5be1e5ebec7d5bd14f71427d1e84f3dd0314c0f7b2291e5b200ac8c7c3b925910160405180910390a3505050565b6001600160a01b038316610b565760405162461bcd60e51b815260206004820152602560248201527f45524332303a207472616e736665722066726f6d20746865207a65726f206164604482015264647265737360d81b60648201526084016104ca565b6001600160a01b038216610bb85760405162461bcd60e51b815260206004820152602360248201527f45524332303a207472616e7366657220746f20746865207a65726f206164647260448201526265737360e81b60648201526084016104ca565b6001600160a01b03831660009081526020819052604090205481811015610c305760405162461bcd60e51b815260206004820152602660248201527f45524332303a207472616e7366657220616d6f756e7420657863656564732062604482015265616c616e636560d01b60648201526084016104ca565b6001600160a01b03808516600090815260208190526040808220858503905591851681529081208054849290610c67908490610f3c565b92505081905550826001600160a01b0316846001600160a01b03167fddf252ad1be2c89b69c2b068fc378daa952ba7f163c4a11628f55a4df523b3ef84604051610cb391815260200190565b60405180910390a350505050565b6001600160a01b038216610d175760405162461bcd60e51b815260206004820152601f60248201527f45524332303a206d696e7420746f20746865207a65726f20616464726573730060448201526064016104ca565b8060026000828254610d299190610f3c565b90915550506001600160a01b03821660009081526020819052604081208054839290610d56908490610f3c565b90915550506040518181526001600160a01b038316906000907fddf252ad1be2c89b69c2b068fc378daa952ba7f163c4a11628f55a4df523b3ef9060200160405180910390a35050565b80356001600160a01b0381168114610db757600080fd5b919050565b600060208284031215610dce57600080fd5b61059482610da0565b60008060408385031215610dea57600080fd5b610df383610da0565b9150610e0160208401610da0565b90509250929050565b600080600060608486031215610e1f57600080fd5b610e2884610da0565b9250610e3660208501610da0565b9150604084013590509250925092565b60008060408385031215610e5957600080fd5b610e6283610da0565b946020939093013593505050565b600060208284031215610e8257600080fd5b8151801515811461059457600080fd5b600060208284031215610ea457600080fd5b5035919050565b600060208284031215610ebd57600080fd5b5051919050565b60008060408385031215610ed757600080fd5b82359150610e0160208401610da0565b600060208083528351808285015260005b81811015610f1457858101830151858201604001528201610ef8565b81811115610f26576000604083870101525b50601f01601f1916929092016040019392505050565b60008219821115610f4f57610f4f610fe1565b500190565b600082610f7157634e487b7160e01b600052601260045260246000fd5b500490565b6000816000190483118215151615610f9057610f90610fe1565b500290565b600082821015610fa757610fa7610fe1565b500390565b600181811c90821680610fc057607f821691505b6020821081141561059b57634e487b7160e01b600052602260045260246000fd5b634e487b7160e01b600052601160045260246000fdfea2646970667358221220feb3ee3698cfff07f78cad7c8a3416064983aed460c9767d52eeadf300d9d6f864736f6c6343000806003360806040523480156200001157600080fd5b5060405162000e8538038062000e858339810160408190526200003491620001e3565b82828282600390805190602001906200004f92919062000086565b5081516200006590600490602085019062000086565b506005805460ff191660ff9290921691909117905550620002bb9350505050565b828054620000949062000268565b90600052602060002090601f016020900481019282620000b8576000855562000103565b82601f10620000d357805160ff191683800117855562000103565b8280016001018555821562000103579182015b8281111562000103578251825591602001919060010190620000e6565b506200011192915062000115565b5090565b5b8082111562000111576000815560010162000116565b600082601f8301126200013e57600080fd5b81516001600160401b03808211156200015b576200015b620002a5565b604051601f8301601f19908116603f01168101908282118183101715620001865762000186620002a5565b81604052838152602092508683858801011115620001a357600080fd5b600091505b83821015620001c75785820183015181830184015290820190620001a8565b83821115620001d95760008385830101525b9695505050505050565b600080600060608486031215620001f957600080fd5b83516001600160401b03808211156200021157600080fd5b6200021f878388016200012c565b945060208601519150808211156200023657600080fd5b5062000245868287016200012c565b925050604084015160ff811681146200025d57600080fd5b809150509250925092565b600181811c908216806200027d57607f821691505b602082108114156200029f57634e487b7160e01b600052602260045260246000fd5b50919050565b634e487b7160e01b600052604160045260246000fd5b610bba80620002cb6000396000f3fe608060405234801561001057600080fd5b50600436106100ea5760003560e01c806340c10f191161008c5780639dc29fac116100665780639dc29fac146101d6578063a457c2d7146101e9578063a9059cbb146101fc578063dd62ed3e1461020f57600080fd5b806340c10f191461019257806370a08231146101a557806395d89b41146101ce57600080fd5b80631c9c7903116100c85780631c9c79031461014257806323b872dd14610157578063313ce5671461016a578063395093511461017f57600080fd5b806306fdde03146100ef578063095ea7b31461010d57806318160ddd14610130575b600080fd5b6100f7610248565b6040516101049190610aaf565b60405180910390f35b61012061011b366004610a85565b6102da565b6040519015158152602001610104565b6002545b604051908152602001610104565b610155610150366004610a49565b6102f0565b005b610120610165366004610a49565b610300565b60055460405160ff9091168152602001610104565b61012061018d366004610a85565b6103af565b6101206101a0366004610a85565b6103eb565b6101346101b33660046109f4565b6001600160a01b031660009081526020819052604090205490565b6100f76103f7565b6101206101e4366004610a85565b610406565b6101206101f7366004610a85565b610412565b61012061020a366004610a85565b6104ab565b61013461021d366004610a16565b6001600160a01b03918216600090815260016020908152604080832093909416825291909152205490565b60606003805461025790610b33565b80601f016020809104026020016040519081016040528092919081815260200182805461028390610b33565b80156102d05780601f106102a5576101008083540402835291602001916102d0565b820191906000526020600020905b8154815290600101906020018083116102b357829003601f168201915b5050505050905090565b60006102e73384846104b8565b50600192915050565b6102fb8383836105dc565b505050565b600061030d8484846105dc565b6001600160a01b0384166000908152600160209081526040808320338452909152902054828110156103975760405162461bcd60e51b815260206004820152602860248201527f45524332303a207472616e7366657220616d6f756e74206578636565647320616044820152676c6c6f77616e636560c01b60648201526084015b60405180910390fd5b6103a485338584036104b8565b506001949350505050565b3360008181526001602090815260408083206001600160a01b038716845290915281205490916102e79185906103e6908690610b04565b6104b8565b60006102e783836107ab565b60606004805461025790610b33565b60006102e7838361088a565b3360009081526001602090815260408083206001600160a01b0386168452909152812054828110156104945760405162461bcd60e51b815260206004820152602560248201527f45524332303a2064656372656173656420616c6c6f77616e63652062656c6f77604482015264207a65726f60d81b606482015260840161038e565b6104a133858584036104b8565b5060019392505050565b60006102e73384846105dc565b6001600160a01b03831661051a5760405162461bcd60e51b8152602060048201526024808201527f45524332303a20617070726f76652066726f6d20746865207a65726f206164646044820152637265737360e01b606482015260840161038e565b6001600160a01b03821661057b5760405162461bcd60e51b815260206004820152602260248201527f45524332303a20617070726f766520746f20746865207a65726f206164647265604482015261737360f01b606482015260840161038e565b6001600160a01b0383811660008181526001602090815260408083209487168084529482529182902085905590518481527f8c5be1e5ebec7d5bd14f71427d1e84f3dd0314c0f7b2291e5b200ac8c7c3b925910160405180910390a3505050565b6001600160a01b0383166106405760405162461bcd60e51b815260206004820152602560248201527f45524332303a207472616e736665722066726f6d20746865207a65726f206164604482015264647265737360d81b606482015260840161038e565b6001600160a01b0382166106a25760405162461bcd60e51b815260206004820152602360248201527f45524332303a207472616e7366657220746f20746865207a65726f206164647260448201526265737360e81b606482015260840161038e565b6001600160a01b0383166000908152602081905260409020548181101561071a5760405162461bcd60e51b815260206004820152602660248201527f45524332303a207472616e7366657220616d6f756e7420657863656564732062604482015265616c616e636560d01b606482015260840161038e565b6001600160a01b03808516600090815260208190526040808220858503905591851681529081208054849290610751908490610b04565b92505081905550826001600160a01b0316846001600160a01b03167fddf252ad1be2c89b69c2b068fc378daa952ba7f163c4a11628f55a4df523b3ef8460405161079d91815260200190565b60405180910390a350505050565b6001600160a01b0382166108015760405162461bcd60e51b815260206004820152601f60248201527f45524332303a206d696e7420746f20746865207a65726f206164647265737300604482015260640161038e565b80600260008282546108139190610b04565b90915550506001600160a01b03821660009081526020819052604081208054839290610840908490610b04565b90915550506040518181526001600160a01b038316906000907fddf252ad1be2c89b69c2b068fc378daa952ba7f163c4a11628f55a4df523b3ef9060200160405180910390a35050565b6001600160a01b0382166108ea5760405162461bcd60e51b815260206004820152602160248201527f45524332303a206275726e2066726f6d20746865207a65726f206164647265736044820152607360f81b606482015260840161038e565b6001600160a01b0382166000908152602081905260409020548181101561095e5760405162461bcd60e51b815260206004820152602260248201527f45524332303a206275726e20616d6f756e7420657863656564732062616c616e604482015261636560f01b606482015260840161038e565b6001600160a01b038316600090815260208190526040812083830390556002805484929061098d908490610b1c565b90915550506040518281526000906001600160a01b038516907fddf252ad1be2c89b69c2b068fc378daa952ba7f163c4a11628f55a4df523b3ef9060200160405180910390a3505050565b80356001600160a01b03811681146109ef57600080fd5b919050565b600060208284031215610a0657600080fd5b610a0f826109d8565b9392505050565b60008060408385031215610a2957600080fd5b610a32836109d8565b9150610a40602084016109d8565b90509250929050565b600080600060608486031215610a5e57600080fd5b610a67846109d8565b9250610a75602085016109d8565b9150604084013590509250925092565b60008060408385031215610a9857600080fd5b610aa1836109d8565b946020939093013593505050565b600060208083528351808285015260005b81811015610adc57858101830151858201604001528201610ac0565b81811115610aee576000604083870101525b50601f01601f1916929092016040019392505050565b60008219821115610b1757610b17610b6e565b500190565b600082821015610b2e57610b2e610b6e565b500390565b600181811c90821680610b4757607f821691505b60208210811415610b6857634e487b7160e01b600052602260045260246000fd5b50919050565b634e487b7160e01b600052601160045260246000fdfea2646970667358221220b84ddc3d52e5f296eb00438ea375bc83c094fcc5870700e9468300fdbbd5083e64736f6c63430008060033"
}