{
  "address": "0x71C5739c5B7f91585A58b6b400f297978b76faDa",
  "abi": [
    {
      "inputs": [
        {
          "internalType": "string",
          "name": "_name",
          "type": "string"
        },
        {
          "internalType": "string",
          "name": "_symbol",
          "type": "string"
        },
        {
          "internalType": "uint8",
          "name": "decimals_",
          "type": "uint8"
        }
      ],
      "stateMutability": "nonpayable",
      "type": "constructor"
    },
    {
      "anonymous": false,
      "inputs": [
        {
          "indexed": true,
          "internalType": "address",
          "name": "owner",
          "type": "address"
        },
        {
          "indexed": true,
          "internalType": "address",
          "name": "spender",
          "type": "address"
        },
        {
          "indexed": false,
          "internalType": "uint256",
          "name": "value",
          "type": "uint256"
        }
      ],
      "name": "Approval",
      "type": "event"
    },
    {
      "anonymous": false,
      "inputs": [
        {
          "indexed": true,
          "internalType": "address",
          "name": "from",
          "type": "address"
        },
        {
          "indexed": true,
          "internalType": "address",
          "name": "to",
          "type": "address"
        },
        {
          "indexed": false,
          "internalType": "uint256",
          "name": "value",
          "type": "uint256"
        }
      ],
      "name": "Transfer",
      "type": "event"
    },
    {
      "inputs": [
        {
          "internalType": "address",
          "name": "owner",
          "type": "address"
        },
        {
          "internalType": "address",
          "name": "spender",
          "type": "address"
        }
      ],
      "name": "allowance",
      "outputs": [
        {
          "internalType": "uint256",
          "name": "",
          "type": "uint256"
        }
      ],
      "stateMutability": "view",
      "type": "function"
    },
    {
      "inputs": [
        {
          "internalType": "address",
          "name": "spender",
          "type": "address"
        },
        {
          "internalType": "uint256",
          "name": "amount",
          "type": "uint256"
        }
      ],
      "name": "approve",
      "outputs": [
        {
          "internalType": "bool",
          "name": "",
          "type": "bool"
        }
      ],
      "stateMutability": "nonpayable",
      "type": "function"
    },
    {
      "inputs": [
        {
          "internalType": "address",
          "name": "account",
          "type": "address"
        }
      ],
      "name": "balanceOf",
      "outputs": [
        {
          "internalType": "uint256",
          "name": "",
          "type": "uint256"
        }
      ],
      "stateMutability": "view",
      "type": "function"
    },
    {
      "inputs": [
        {
          "internalType": "address",
          "name": "addr",
          "type": "address"
        }
      ],
      "name": "balanceOfToken",
      "outputs": [
        {
          "internalType": "uint256",
          "name": "",
          "type": "uint256"
        }
      ],
      "stateMutability": "nonpayable",
      "type": "function"
    },
    {
      "inputs": [],
      "name": "decimals",
      "outputs": [
        {
          "internalType": "uint8",
          "name": "",
          "type": "uint8"
        }
      ],
      "stateMutability": "view",
      "type": "function"
    },
    {
      "inputs": [
        {
          "internalType": "address",
          "name": "spender",
          "type": "address"
        },
        {
          "internalType": "uint256",
          "name": "subtractedValue",
          "type": "uint256"
        }
      ],
      "name": "decreaseAllowance",
      "outputs": [
        {
          "internalType": "bool",
          "name": "",
          "type": "bool"
        }
      ],
      "stateMutability": "nonpayable",
      "type": "function"
    },
    {
      "inputs": [],
      "name": "depositToken",
      "outputs": [
        {
          "internalType": "address",
          "name": "",
          "type": "address"
        }
      ],
      "stateMutability": "view",
      "type": "function"
    },
    {
      "inputs": [
        {
          "internalType": "address",
          "name": "spender",
          "type": "address"
        },
        {
          "internalType": "uint256",
          "name": "addedValue",
          "type": "uint256"
        }
      ],
      "name": "increaseAllowance",
      "outputs": [
        {
          "internalType": "bool",
          "name": "",
          "type": "bool"
        }
      ],
      "stateMutability": "nonpayable",
      "type": "function"
    },
    {
      "inputs": [],
      "name": "lastYieldTimestamp",
      "outputs": [
        {
          "internalType": "uint256",
          "name": "",
          "type": "uint256"
        }
      ],
      "stateMutability": "view",
      "type": "function"
    },
    {
      "inputs": [],
      "name": "name",
      "outputs": [
        {
          "internalType": "string",
          "name": "",
          "type": "string"
        }
      ],
      "stateMutability": "view",
      "type": "function"
    },
    {
      "inputs": [],
      "name": "ratePerSecond",
      "outputs": [
        {
          "internalType": "uint256",
          "name": "",
          "type": "uint256"
        }
      ],
      "stateMutability": "view",
      "type": "function"
    },
    {
      "inputs": [
        {
          "internalType": "uint256",
          "name": "amount",
          "type": "uint256"
        }
      ],
      "name": "redeemToken",
      "outputs": [
        {
          "internalType": "uint256",
          "name": "",
          "type": "uint256"
        }
      ],
      "stateMutability": "nonpayable",
      "type": "function"
    },
    {
      "inputs": [
        {
          "internalType": "uint256",
          "name": "_ratePerSecond",
          "type": "uint256"
        }
      ],
      "name": "setRatePerSecond",
      "outputs": [],
      "stateMutability": "nonpayable",
      "type": "function"
    },
    {
      "inputs": [
        {
          "internalType": "uint256",
          "name": "shares",
          "type": "uint256"
        }
      ],
      "name": "sharesToTokens",
      "outputs": [
        {
          "internalType": "uint256",
          "name": "",
          "type": "uint256"
        }
      ],
      "stateMutability": "view",
      "type": "function"
    },
    {
      "inputs": [
        {
          "internalType": "uint256",
          "name": "amount",
          "type": "uint256"
        },
        {
          "internalType": "address",
          "name": "to",
          "type": "address"
        }
      ],
      "name": "supplyTokenTo",
      "outputs": [],
      "stateMutability": "nonpayable",
      "type": "function"
    },
    {
      "inputs": [],
      "name": "symbol",
      "outputs": [
        {
          "internalType": "string",
          "name": "",
          "type": "string"
        }
      ],
      "stateMutability": "view",
      "type": "function"
    },
    {
      "inputs": [],
      "name": "token",
      "outputs": [
        {
          "internalType": "contract ERC20Mintable",
          "name": "",
          "type": "address"
        }
      ],
      "stateMutability": "view",
      "type": "function"
    },
    {
      "inputs": [
        {
          "internalType": "uint256",
          "name": "tokens",
          "type": "uint256"
        }
      ],
      "name": "tokensToShares",
      "outputs": [
        {
          "internalType": "uint256",
          "name": "",
          "type": "uint256"
        }
      ],
      "stateMutability": "view",
      "type": "function"
    },
    {
      "inputs": [],
      "name": "totalSupply",
      "outputs": [
        {
          "internalType": "uint256",
          "name": "",
          "type": "uint256"
        }
      ],
      "stateMutability": "view",
      "type": "function"
    },
    {
      "inputs": [
        {
          "internalType": "address",
          "name": "to",
          "type": "address"
        },
        {
          "internalType": "uint256",
          "name": "amount",
          "type": "uint256"
        }
      ],
      "name": "transfer",
      "outputs": [
        {
          "internalType": "bool",
          "name": "",
          "type": "bool"
        }
      ],
      "stateMutability": "nonpayable",
      "type": "function"
    },
    {
      "inputs": [
        {
          "internalType": "address",
          "name": "from",
          "type": "address"
        },
        {
          "internalType": "address",
          "name": "to",
          "type": "address"
        },
        {
          "internalType": "uint256",
          "name": "amount",
          "type": "uint256"
        }
      ],
      "name": "transferFrom",
      "outputs": [
        {
          "internalType": "bool",
          "name": "",
          "type": "bool"
        }
      ],
      "stateMutability": "nonpayable",
      "type": "function"
    },
    {
      "inputs": [
        {
          "internalType": "uint256",
          "name": "amount",
          "type": "uint256"
        }
      ],
      "name": "yield",
      "outputs": [],
      "stateMutability": "nonpayable",
      "type": "function"
    }
  ],
  "transactionHash": "0x9449a5517726cf6f8fa0102a05ee4a6ce3187b0e618a825b5d5815d24286db2e",
  "args": [
    "USD Coin",
    "USDC",
    6
  ],
  "numDeployments": 1,
  "solcInputHash": "3f8be40ecc8584ee8d9084aea6842aec",
  "bytecode": "0x60806040523480156200001157600080fd5b50604051620030e5380380620030e58339810160408190526200003491620002ad565b60405180604001604052806005815260200164165251531160da1b8152506040518060400160405280600381526020016216531160ea1b8152508160039080519060200190620000869291906200011f565b5080516200009c9060049060208401906200011f565b50505082828233604051620000b190620001ae565b620000c0949392919062000360565b604051809103906000f080158015620000dd573d6000803e3d6000fd5b50600580546001600160a01b0319166001600160a01b0392909216919091179055426007556008805460ff191660ff9290921691909117905550620003eb9050565b8280546200012d90620003ae565b90600052602060002090601f0160209004810192826200015157600085556200019c565b82601f106200016c57805160ff19168380011785556200019c565b828001600101855582156200019c579182015b828111156200019c5782518255916020019190600101906200017f565b50620001aa929150620001bc565b5090565b6119ec80620016f983390190565b5b80821115620001aa5760008155600101620001bd565b634e487b7160e01b600052604160045260246000fd5b60005b8381101562000206578181015183820152602001620001ec565b8381111562000216576000848401525b50505050565b600082601f8301126200022e57600080fd5b81516001600160401b03808211156200024b576200024b620001d3565b604051601f8301601f19908116603f01168101908282118183101715620002765762000276620001d3565b816040528381528660208588010111156200029057600080fd5b620002a3846020830160208901620001e9565b9695505050505050565b600080600060608486031215620002c357600080fd5b83516001600160401b0380821115620002db57600080fd5b620002e9878388016200021c565b945060208601519150808211156200030057600080fd5b506200030f868287016200021c565b925050604084015160ff811681146200032757600080fd5b809150509250925092565b600081518084526200034c816020860160208601620001e9565b601f01601f19169290920160200192915050565b60808152600062000375608083018762000332565b828103602084015262000389818762000332565b60ff95909516604084015250506001600160a01b039190911660609091015292915050565b600181811c90821680620003c357607f821691505b60208210811415620003e557634e487b7160e01b600052602260045260246000fd5b50919050565b6112fe80620003fb6000396000f3fe608060405234801561001057600080fd5b50600436106101825760003560e01c806387a6eeef116100d8578063b99152d01161008c578063e8fe76d511610066578063e8fe76d51461033d578063f3044ac714610350578063fc0c546a1461036357600080fd5b8063b99152d0146102cc578063c89039c5146102df578063dd62ed3e1461030457600080fd5b806395d89b41116100bd57806395d89b411461029e578063a457c2d7146102a6578063a9059cbb146102b957600080fd5b806387a6eeef146102825780638eff1a981461029557600080fd5b806323b872dd1161013a5780633950935111610114578063395093511461023157806370a0823114610244578063765287ef1461026d57600080fd5b806323b872dd146101f657806327def4fd14610209578063313ce5671461021c57600080fd5b8063095ea7b31161016b578063095ea7b3146101c257806318160ddd146101e5578063201469a8146101ed57600080fd5b8063013054c21461018757806306fdde03146101ad575b600080fd5b61019a610195366004611053565b610376565b6040519081526020015b60405180910390f35b6101b561042d565b6040516101a4919061106c565b6101d56101d03660046110fb565b6104bf565b60405190151581526020016101a4565b60025461019a565b61019a60075481565b6101d5610204366004611125565b6104d7565b61019a610217366004611053565b6104fb565b60085460405160ff90911681526020016101a4565b6101d561023f3660046110fb565b6105a2565b61019a610252366004611161565b6001600160a01b031660009081526020819052604090205490565b61028061027b366004611053565b6105e1565b005b61028061029036600461117c565b610661565b61019a60065481565b6101b5610719565b6101d56102b43660046110fb565b610728565b6101d56102c73660046110fb565b6107d7565b61019a6102da366004611161565b6107e5565b6005546001600160a01b03165b6040516001600160a01b0390911681526020016101a4565b61019a6103123660046111a8565b6001600160a01b03918216600090815260016020908152604080832093909416825291909152205490565b61028061034b366004611053565b610817565b61019a61035e366004611053565b610828565b6005546102ec906001600160a01b031681565b60006103806108b1565b600061038b83610828565b905061039733826109ee565b6005546040517fa9059cbb000000000000000000000000000000000000000000000000000000008152336004820152602481018590526001600160a01b039091169063a9059cbb906044016020604051808303816000875af1158015610401573d6000803e3d6000fd5b505050506040513d601f19601f8201168201806040525081019061042591906111d2565b509192915050565b60606003805461043c906111f4565b80601f0160208091040260200160405190810160405280929190818152602001828054610468906111f4565b80156104b55780601f1061048a576101008083540402835291602001916104b5565b820191906000526020600020905b81548152906001019060200180831161049857829003601f168201915b5050505050905090565b6000336104cd818585610b73565b5060019392505050565b6000336104e5858285610ccb565b6104f0858585610d5d565b506001949350505050565b60008061050760025490565b905080610515575090919050565b6005546040516370a0823160e01b815230600482015282916001600160a01b0316906370a0823190602401602060405180830381865afa15801561055d573d6000803e3d6000fd5b505050506040513d601f19601f820116820180604052508101906105819190611229565b61058b9085611258565b6105959190611277565b9392505050565b50919050565b3360008181526001602090815260408083206001600160a01b03871684529091528120549091906104cd90829086906105dc908790611299565b610b73565b6005546040517f40c10f19000000000000000000000000000000000000000000000000000000008152306004820152602481018390526001600160a01b03909116906340c10f1990604401600060405180830381600087803b15801561064657600080fd5b505af115801561065a573d6000803e3d6000fd5b5050505050565b6106696108b1565b600061067483610828565b6005546040517f23b872dd000000000000000000000000000000000000000000000000000000008152336004820152306024820152604481018690529192506001600160a01b0316906323b872dd906064016020604051808303816000875af11580156106e5573d6000803e3d6000fd5b505050506040513d601f19601f8201168201806040525081019061070991906111d2565b506107148282610f74565b505050565b60606004805461043c906111f4565b3360008181526001602090815260408083206001600160a01b0387168452909152812054909190838110156107ca5760405162461bcd60e51b815260206004820152602560248201527f45524332303a2064656372656173656420616c6c6f77616e63652062656c6f7760448201527f207a65726f00000000000000000000000000000000000000000000000000000060648201526084015b60405180910390fd5b6104f08286868403610b73565b6000336104cd818585610d5d565b60006107ef6108b1565b610811610217836001600160a01b031660009081526020819052604090205490565b92915050565b61081f6108b1565b42600755600655565b6005546040516370a0823160e01b815230600482015260009182916001600160a01b03909116906370a0823190602401602060405180830381865afa158015610875573d6000803e3d6000fd5b505050506040513d601f19601f820116820180604052508101906108999190611229565b9050806108a7575090919050565b8061058160025490565b6000600754426108c191906112b1565b90506000600654826108d39190611258565b6005546040516370a0823160e01b81523060048201529192506000916001600160a01b03909116906370a0823190602401602060405180830381865afa158015610921573d6000803e3d6000fd5b505050506040513d601f19601f820116820180604052508101906109459190611229565b90506000670de0b6b3a764000061095c8385611258565b6109669190611277565b6005546040517f40c10f19000000000000000000000000000000000000000000000000000000008152306004820152602481018390529192506001600160a01b0316906340c10f1990604401600060405180830381600087803b1580156109cc57600080fd5b505af11580156109e0573d6000803e3d6000fd5b505042600755505050505050565b6001600160a01b038216610a6a5760405162461bcd60e51b815260206004820152602160248201527f45524332303a206275726e2066726f6d20746865207a65726f2061646472657360448201527f730000000000000000000000000000000000000000000000000000000000000060648201526084016107c1565b6001600160a01b03821660009081526020819052604090205481811015610af95760405162461bcd60e51b815260206004820152602260248201527f45524332303a206275726e20616d6f756e7420657863656564732062616c616e60448201527f636500000000000000000000000000000000000000000000000000000000000060648201526084016107c1565b6001600160a01b0383166000908152602081905260408120838303905560028054849290610b289084906112b1565b90915550506040518281526000906001600160a01b038516907fddf252ad1be2c89b69c2b068fc378daa952ba7f163c4a11628f55a4df523b3ef9060200160405180910390a3505050565b6001600160a01b038316610bee5760405162461bcd60e51b8152602060048201526024808201527f45524332303a20617070726f76652066726f6d20746865207a65726f2061646460448201527f726573730000000000000000000000000000000000000000000000000000000060648201526084016107c1565b6001600160a01b038216610c6a5760405162461bcd60e51b815260206004820152602260248201527f45524332303a20617070726f766520746f20746865207a65726f20616464726560448201527f737300000000000000000000000000000000000000000000000000000000000060648201526084016107c1565b6001600160a01b0383811660008181526001602090815260408083209487168084529482529182902085905590518481527f8c5be1e5ebec7d5bd14f71427d1e84f3dd0314c0f7b2291e5b200ac8c7c3b925910160405180910390a3505050565b6001600160a01b038381166000908152600160209081526040808320938616835292905220546000198114610d575781811015610d4a5760405162461bcd60e51b815260206004820152601d60248201527f45524332303a20696e73756666696369656e7420616c6c6f77616e636500000060448201526064016107c1565b610d578484848403610b73565b50505050565b6001600160a01b038316610dd95760405162461bcd60e51b815260206004820152602560248201527f45524332303a207472616e736665722066726f6d20746865207a65726f20616460448201527f647265737300000000000000000000000000000000000000000000000000000060648201526084016107c1565b6001600160a01b038216610e555760405162461bcd60e51b815260206004820152602360248201527f45524332303a207472616e7366657220746f20746865207a65726f206164647260448201527f657373000000000000000000000000000000000000000000000000000000000060648201526084016107c1565b6001600160a01b03831660009081526020819052604090205481811015610ee45760405162461bcd60e51b815260206004820152602660248201527f45524332303a207472616e7366657220616d6f756e742065786365656473206260448201527f616c616e6365000000000000000000000000000000000000000000000000000060648201526084016107c1565b6001600160a01b03808516600090815260208190526040808220858503905591851681529081208054849290610f1b908490611299565b92505081905550826001600160a01b0316846001600160a01b03167fddf252ad1be2c89b69c2b068fc378daa952ba7f163c4a11628f55a4df523b3ef84604051610f6791815260200190565b60405180910390a3610d57565b6001600160a01b038216610fca5760405162461bcd60e51b815260206004820152601f60248201527f45524332303a206d696e7420746f20746865207a65726f20616464726573730060448201526064016107c1565b8060026000828254610fdc9190611299565b90915550506001600160a01b03821660009081526020819052604081208054839290611009908490611299565b90915550506040518181526001600160a01b038316906000907fddf252ad1be2c89b69c2b068fc378daa952ba7f163c4a11628f55a4df523b3ef9060200160405180910390a35050565b60006020828403121561106557600080fd5b5035919050565b600060208083528351808285015260005b818110156110995785810183015185820160400152820161107d565b818111156110ab576000604083870101525b50601f017fffffffffffffffffffffffffffffffffffffffffffffffffffffffffffffffe016929092016040019392505050565b80356001600160a01b03811681146110f657600080fd5b919050565b6000806040838503121561110e57600080fd5b611117836110df565b946020939093013593505050565b60008060006060848603121561113a57600080fd5b611143846110df565b9250611151602085016110df565b9150604084013590509250925092565b60006020828403121561117357600080fd5b610595826110df565b6000806040838503121561118f57600080fd5b8235915061119f602084016110df565b90509250929050565b600080604083850312156111bb57600080fd5b6111c4836110df565b915061119f602084016110df565b6000602082840312156111e457600080fd5b8151801515811461059557600080fd5b600181811c9082168061120857607f821691505b6020821081141561059c57634e487b7160e01b600052602260045260246000fd5b60006020828403121561123b57600080fd5b5051919050565b634e487b7160e01b600052601160045260246000fd5b600081600019048311821515161561127257611272611242565b500290565b60008261129457634e487b7160e01b600052601260045260246000fd5b500490565b600082198211156112ac576112ac611242565b500190565b6000828210156112c3576112c3611242565b50039056fea264697066735822122024b731f30d134077ced6ca75e21de0f7d1954099e4ead6eeebe765990e6cd05a64736f6c634300080a003360806040523480156200001157600080fd5b50604051620019ec380380620019ec8339810160408190526200003491620002d0565b8351849084906200004d9060039060208501906200015d565b508051620000639060049060208401906200015d565b50506006805460ff191660ff85161790555062000082600082620000b8565b620000ae7f9f2df0fed2c77648de5860a4cc508cd0818c85b8b8a1ab4ceeef8d981c8956a682620000b8565b50505050620003b1565b60008281526005602090815260408083206001600160a01b038516845290915290205460ff16620001595760008281526005602090815260408083206001600160a01b03851684529091529020805460ff19166001179055620001183390565b6001600160a01b0316816001600160a01b0316837f2f8788117e7eff1d82e926ec794901d17c78024a50270940304540a733656f0d60405160405180910390a45b5050565b8280546200016b9062000374565b90600052602060002090601f0160209004810192826200018f5760008555620001da565b82601f10620001aa57805160ff1916838001178555620001da565b82800160010185558215620001da579182015b82811115620001da578251825591602001919060010190620001bd565b50620001e8929150620001ec565b5090565b5b80821115620001e85760008155600101620001ed565b634e487b7160e01b600052604160045260246000fd5b600082601f8301126200022b57600080fd5b81516001600160401b038082111562000248576200024862000203565b604051601f8301601f19908116603f0116810190828211818310171562000273576200027362000203565b816040528381526020925086838588010111156200029057600080fd5b600091505b83821015620002b4578582018301518183018401529082019062000295565b83821115620002c65760008385830101525b9695505050505050565b60008060008060808587031215620002e757600080fd5b84516001600160401b0380821115620002ff57600080fd5b6200030d8883890162000219565b955060208701519150808211156200032457600080fd5b50620003338782880162000219565b935050604085015160ff811681146200034b57600080fd5b60608601519092506001600160a01b03811681146200036957600080fd5b939692955090935050565b600181811c908216806200038957607f821691505b60208210811415620003ab57634e487b7160e01b600052602260045260246000fd5b50919050565b61162b80620003c16000396000f3fe608060405234801561001057600080fd5b50600436106101825760003560e01c806340c10f19116100d8578063a217fddf1161008c578063d539139311610066578063d539139314610340578063d547741f14610367578063dd62ed3e1461037a57600080fd5b8063a217fddf14610312578063a457c2d71461031a578063a9059cbb1461032d57600080fd5b806391d14854116100bd57806391d14854146102be57806395d89b41146102f75780639dc29fac146102ff57600080fd5b806340c10f191461028257806370a082311461029557600080fd5b806323b872dd1161013a578063313ce56711610114578063313ce5671461024757806336568abe1461025c578063395093511461026f57600080fd5b806323b872dd146101fe578063248a9ca3146102115780632f2ff15d1461023457600080fd5b8063095ea7b31161016b578063095ea7b3146101c457806318160ddd146101d75780631c9c7903146101e957600080fd5b806301ffc9a71461018757806306fdde03146101af575b600080fd5b61019a6101953660046112e5565b6103b3565b60405190151581526020015b60405180910390f35b6101b761044c565b6040516101a69190611353565b61019a6101d23660046113a2565b6104de565b6002545b6040519081526020016101a6565b6101fc6101f73660046113cc565b6104f6565b005b61019a61020c3660046113cc565b610589565b6101db61021f366004611408565b60009081526005602052604090206001015490565b6101fc610242366004611421565b6105ad565b60065460405160ff90911681526020016101a6565b6101fc61026a366004611421565b6105d2565b61019a61027d3660046113a2565b61065e565b6101fc6102903660046113a2565b61069d565b6101db6102a336600461144d565b6001600160a01b031660009081526020819052604090205490565b61019a6102cc366004611421565b60009182526005602090815260408084206001600160a01b0393909316845291905290205460ff1690565b6101b7610725565b61019a61030d3660046113a2565b610734565b6101db600081565b61019a6103283660046113a2565b6107c5565b61019a61033b3660046113a2565b61086f565b6101db7f9f2df0fed2c77648de5860a4cc508cd0818c85b8b8a1ab4ceeef8d981c8956a681565b6101fc610375366004611421565b61087d565b6101db610388366004611468565b6001600160a01b03918216600090815260016020908152604080832093909416825291909152205490565b60007fffffffff0000000000000000000000000000000000000000000000000000000082167f7965db0b00000000000000000000000000000000000000000000000000000000148061044657507f01ffc9a7000000000000000000000000000000000000000000000000000000007fffffffff000000000000000000000000000000000000000000000000000000008316145b92915050565b60606003805461045b90611492565b80601f016020809104026020016040519081016040528092919081815260200182805461048790611492565b80156104d45780601f106104a9576101008083540402835291602001916104d4565b820191906000526020600020905b8154815290600101906020018083116104b757829003601f168201915b5050505050905090565b6000336104ec8185856108a2565b5060019392505050565b3360009081527f05b8ccbb9d4d8fb16ea74ce3c29a41f1b461fbdaff4714a0d9a8eb05499746bc602052604090205460ff166105795760405162461bcd60e51b815260206004820152601e60248201527f45524332304d696e7461626c652f63616c6c65722d6e6f742d61646d696e000060448201526064015b60405180910390fd5b6105848383836109fa565b505050565b600033610597858285610c13565b6105a28585856109fa565b506001949350505050565b6000828152600560205260409020600101546105c881610c9f565b6105848383610cac565b6001600160a01b03811633146106505760405162461bcd60e51b815260206004820152602f60248201527f416363657373436f6e74726f6c3a2063616e206f6e6c792072656e6f756e636560448201527f20726f6c657320666f722073656c6600000000000000000000000000000000006064820152608401610570565b61065a8282610d4e565b5050565b3360008181526001602090815260408083206001600160a01b03871684529091528120549091906104ec90829086906106989087906114e3565b6108a2565b3360009081527f15a28d26fa1bf736cf7edc9922607171ccb09c3c73b808e7772a3013e068a522602052604090205460ff1661071b5760405162461bcd60e51b815260206004820152601f60248201527f45524332304d696e7461626c652f63616c6c65722d6e6f742d6d696e746572006044820152606401610570565b61065a8282610dd1565b60606004805461045b90611492565b3360009081527f05b8ccbb9d4d8fb16ea74ce3c29a41f1b461fbdaff4714a0d9a8eb05499746bc602052604081205460ff166107b25760405162461bcd60e51b815260206004820152601e60248201527f45524332304d696e7461626c652f63616c6c65722d6e6f742d61646d696e00006044820152606401610570565b6107bc8383610eb0565b50600192915050565b3360008181526001602090815260408083206001600160a01b0387168452909152812054909190838110156108625760405162461bcd60e51b815260206004820152602560248201527f45524332303a2064656372656173656420616c6c6f77616e63652062656c6f7760448201527f207a65726f0000000000000000000000000000000000000000000000000000006064820152608401610570565b6105a282868684036108a2565b6000336104ec8185856109fa565b60008281526005602052604090206001015461089881610c9f565b6105848383610d4e565b6001600160a01b03831661091d5760405162461bcd60e51b8152602060048201526024808201527f45524332303a20617070726f76652066726f6d20746865207a65726f2061646460448201527f72657373000000000000000000000000000000000000000000000000000000006064820152608401610570565b6001600160a01b0382166109995760405162461bcd60e51b815260206004820152602260248201527f45524332303a20617070726f766520746f20746865207a65726f20616464726560448201527f73730000000000000000000000000000000000000000000000000000000000006064820152608401610570565b6001600160a01b0383811660008181526001602090815260408083209487168084529482529182902085905590518481527f8c5be1e5ebec7d5bd14f71427d1e84f3dd0314c0f7b2291e5b200ac8c7c3b925910160405180910390a3505050565b6001600160a01b038316610a765760405162461bcd60e51b815260206004820152602560248201527f45524332303a207472616e736665722066726f6d20746865207a65726f20616460448201527f64726573730000000000000000000000000000000000000000000000000000006064820152608401610570565b6001600160a01b038216610af25760405162461bcd60e51b815260206004820152602360248201527f45524332303a207472616e7366657220746f20746865207a65726f206164647260448201527f65737300000000000000000000000000000000000000000000000000000000006064820152608401610570565b6001600160a01b03831660009081526020819052604090205481811015610b815760405162461bcd60e51b815260206004820152602660248201527f45524332303a207472616e7366657220616d6f756e742065786365656473206260448201527f616c616e636500000000000000000000000000000000000000000000000000006064820152608401610570565b6001600160a01b03808516600090815260208190526040808220858503905591851681529081208054849290610bb89084906114e3565b92505081905550826001600160a01b0316846001600160a01b03167fddf252ad1be2c89b69c2b068fc378daa952ba7f163c4a11628f55a4df523b3ef84604051610c0491815260200190565b60405180910390a35b50505050565b6001600160a01b038381166000908152600160209081526040808320938616835292905220546000198114610c0d5781811015610c925760405162461bcd60e51b815260206004820152601d60248201527f45524332303a20696e73756666696369656e7420616c6c6f77616e63650000006044820152606401610570565b610c0d84848484036108a2565b610ca98133611035565b50565b60008281526005602090815260408083206001600160a01b038516845290915290205460ff1661065a5760008281526005602090815260408083206001600160a01b03851684529091529020805460ff19166001179055610d0a3390565b6001600160a01b0316816001600160a01b0316837f2f8788117e7eff1d82e926ec794901d17c78024a50270940304540a733656f0d60405160405180910390a45050565b60008281526005602090815260408083206001600160a01b038516845290915290205460ff161561065a5760008281526005602090815260408083206001600160a01b0385168085529252808320805460ff1916905551339285917ff6391f5c32d9c69d2a47ea670b442974b53935d1edc7fd64eb21e047a839171b9190a45050565b6001600160a01b038216610e275760405162461bcd60e51b815260206004820152601f60248201527f45524332303a206d696e7420746f20746865207a65726f2061646472657373006044820152606401610570565b8060026000828254610e3991906114e3565b90915550506001600160a01b03821660009081526020819052604081208054839290610e669084906114e3565b90915550506040518181526001600160a01b038316906000907fddf252ad1be2c89b69c2b068fc378daa952ba7f163c4a11628f55a4df523b3ef9060200160405180910390a35050565b6001600160a01b038216610f2c5760405162461bcd60e51b815260206004820152602160248201527f45524332303a206275726e2066726f6d20746865207a65726f2061646472657360448201527f73000000000000000000000000000000000000000000000000000000000000006064820152608401610570565b6001600160a01b03821660009081526020819052604090205481811015610fbb5760405162461bcd60e51b815260206004820152602260248201527f45524332303a206275726e20616d6f756e7420657863656564732062616c616e60448201527f63650000000000000000000000000000000000000000000000000000000000006064820152608401610570565b6001600160a01b0383166000908152602081905260408120838303905560028054849290610fea9084906114fb565b90915550506040518281526000906001600160a01b038516907fddf252ad1be2c89b69c2b068fc378daa952ba7f163c4a11628f55a4df523b3ef9060200160405180910390a3505050565b60008281526005602090815260408083206001600160a01b038516845290915290205460ff1661065a57611073816001600160a01b031660146110b5565b61107e8360206110b5565b60405160200161108f929190611512565b60408051601f198184030181529082905262461bcd60e51b825261057091600401611353565b606060006110c4836002611593565b6110cf9060026114e3565b67ffffffffffffffff8111156110e7576110e76115b2565b6040519080825280601f01601f191660200182016040528015611111576020820181803683370190505b5090507f300000000000000000000000000000000000000000000000000000000000000081600081518110611148576111486115c8565b60200101907effffffffffffffffffffffffffffffffffffffffffffffffffffffffffffff1916908160001a9053507f7800000000000000000000000000000000000000000000000000000000000000816001815181106111ab576111ab6115c8565b60200101907effffffffffffffffffffffffffffffffffffffffffffffffffffffffffffff1916908160001a90535060006111e7846002611593565b6111f29060016114e3565b90505b600181111561128f577f303132333435363738396162636465660000000000000000000000000000000085600f1660108110611233576112336115c8565b1a60f81b828281518110611249576112496115c8565b60200101907effffffffffffffffffffffffffffffffffffffffffffffffffffffffffffff1916908160001a90535060049490941c93611288816115de565b90506111f5565b5083156112de5760405162461bcd60e51b815260206004820181905260248201527f537472696e67733a20686578206c656e67746820696e73756666696369656e746044820152606401610570565b9392505050565b6000602082840312156112f757600080fd5b81357fffffffff00000000000000000000000000000000000000000000000000000000811681146112de57600080fd5b60005b8381101561134257818101518382015260200161132a565b83811115610c0d5750506000910152565b6020815260008251806020840152611372816040850160208701611327565b601f01601f19169190910160400192915050565b80356001600160a01b038116811461139d57600080fd5b919050565b600080604083850312156113b557600080fd5b6113be83611386565b946020939093013593505050565b6000806000606084860312156113e157600080fd5b6113ea84611386565b92506113f860208501611386565b9150604084013590509250925092565b60006020828403121561141a57600080fd5b5035919050565b6000806040838503121561143457600080fd5b8235915061144460208401611386565b90509250929050565b60006020828403121561145f57600080fd5b6112de82611386565b6000806040838503121561147b57600080fd5b61148483611386565b915061144460208401611386565b600181811c908216806114a657607f821691505b602082108114156114c757634e487b7160e01b600052602260045260246000fd5b50919050565b634e487b7160e01b600052601160045260246000fd5b600082198211156114f6576114f66114cd565b500190565b60008282101561150d5761150d6114cd565b500390565b7f416363657373436f6e74726f6c3a206163636f756e742000000000000000000081526000835161154a816017850160208801611327565b7f206973206d697373696e6720726f6c65200000000000000000000000000000006017918401918201528351611587816028840160208801611327565b01602801949350505050565b60008160001904831182151516156115ad576115ad6114cd565b500290565b634e487b7160e01b600052604160045260246000fd5b634e487b7160e01b600052603260045260246000fd5b6000816115ed576115ed6114cd565b50600019019056fea2646970667358221220c8befea24809442d5d380a3e1cb010d37bedf2a073813629b8db5bd0c06d6cf964736f6c634300080a0033",
  "devdoc": {
    "details": "Extension of {ERC20} that adds a set of accounts with the {MinterRole}, which have permission to mint (create) new tokens as they see fit. At construction, the deployer of the contract is the only minter.",
    "kind": "dev",
    "methods": {
      "allowance(address,address)": {
        "details": "See {IERC20-allowance}."
      },
      "approve(address,uint256)": {
        "details": "See {IERC20-approve}. NOTE: If `amount` is the maximum `uint256`, the allowance is not updated on `transferFrom`. This is semantically equivalent to an infinite approval. Requirements: - `spender` cannot be the zero address."
      },
      "balanceOf(address)": {
        "details": "See {IERC20-balanceOf}."
      },
      "balanceOfToken(address)": {
        "returns": {
          "_0": "The underlying balance of asset tokens."
        }
      },
      "decimals()": {
        "details": "Returns the number of decimals used to get its user representation. For example, if `decimals` equals `2`, a balance of `505` tokens should be displayed to a user as `5.05` (`505 / 10 ** 2`). Tokens usually opt for a value of 18, imitating the relationship between Ether and Wei. This is the value {ERC20} uses, unless this function is overridden; NOTE: This information is only used for _display_ purposes: it in no way affects any of the arithmetic of the contract, including {IERC20-balanceOf} and {IERC20-transfer}."
      },
      "decreaseAllowance(address,uint256)": {
        "details": "Atomically decreases the allowance granted to `spender` by the caller. This is an alternative to {approve} that can be used as a mitigation for problems described in {IERC20-approve}. Emits an {Approval} event indicating the updated allowance. Requirements: - `spender` cannot be the zero address. - `spender` must have allowance for the caller of at least `subtractedValue`."
      },
      "depositToken()": {
        "returns": {
          "_0": "The ERC20 asset token address."
        }
      },
      "increaseAllowance(address,uint256)": {
        "details": "Atomically increases the allowance granted to `spender` by the caller. This is an alternative to {approve} that can be used as a mitigation for problems described in {IERC20-approve}. Emits an {Approval} event indicating the updated allowance. Requirements: - `spender` cannot be the zero address."
      },
      "name()": {
        "details": "Returns the name of the token."
      },
      "redeemToken(uint256)": {
        "params": {
          "amount": "The amount of asset tokens to withdraw.  Denominated in `depositToken()` as above."
        },
        "returns": {
          "_0": "The actual amount of interst bearing tokens that were redeemed."
        }
      },
      "supplyTokenTo(uint256,address)": {
        "params": {
          "amount": "The amount of asset tokens to be supplied.  Denominated in `depositToken()` as above.",
          "to": "The user whose balance will receive the tokens"
        }
      },
      "symbol()": {
        "details": "Returns the symbol of the token, usually a shorter version of the name."
      },
      "totalSupply()": {
        "details": "See {IERC20-totalSupply}."
      },
      "transfer(address,uint256)": {
        "details": "See {IERC20-transfer}. Requirements: - `to` cannot be the zero address. - the caller must have a balance of at least `amount`."
      },
      "transferFrom(address,address,uint256)": {
        "details": "See {IERC20-transferFrom}. Emits an {Approval} event indicating the updated allowance. This is not required by the EIP. See the note at the beginning of {ERC20}. NOTE: Does not update the allowance if the current allowance is the maximum `uint256`. Requirements: - `from` and `to` cannot be the zero address. - `from` must have a balance of at least `amount`. - the caller must have allowance for ``from``'s tokens of at least `amount`."
      }
    },
    "version": 1
  },
  "userdoc": {
    "kind": "user",
    "methods": {
      "balanceOfToken(address)": {
        "notice": "Returns the total balance (in asset tokens).  This includes the deposits and interest."
      },
      "depositToken()": {
        "notice": "Returns the ERC20 asset token used for deposits."
      },
      "redeemToken(uint256)": {
        "notice": "Redeems tokens from the yield source."
      },
      "supplyTokenTo(uint256,address)": {
        "notice": "Supplies tokens to the yield source.  Allows assets to be supplied on other user's behalf using the `to` param."
      }
    },
    "version": 1
  },
  "storageLayout": {
    "storage": [
      {
        "astId": 2910,
        "contract": "@pooltogether/yield-source-interface/contracts/test/MockYieldSource.sol:MockYieldSource",
        "label": "_balances",
        "offset": 0,
        "slot": "0",
        "type": "t_mapping(t_address,t_uint256)"
      },
      {
        "astId": 2916,
        "contract": "@pooltogether/yield-source-interface/contracts/test/MockYieldSource.sol:MockYieldSource",
        "label": "_allowances",
        "offset": 0,
        "slot": "1",
        "type": "t_mapping(t_address,t_mapping(t_address,t_uint256))"
      },
      {
        "astId": 2918,
        "contract": "@pooltogether/yield-source-interface/contracts/test/MockYieldSource.sol:MockYieldSource",
        "label": "_totalSupply",
        "offset": 0,
        "slot": "2",
        "type": "t_uint256"
      },
      {
        "astId": 2920,
        "contract": "@pooltogether/yield-source-interface/contracts/test/MockYieldSource.sol:MockYieldSource",
        "label": "_name",
        "offset": 0,
        "slot": "3",
        "type": "t_string_storage"
      },
      {
        "astId": 2922,
        "contract": "@pooltogether/yield-source-interface/contracts/test/MockYieldSource.sol:MockYieldSource",
        "label": "_symbol",
        "offset": 0,
        "slot": "4",
        "type": "t_string_storage"
      },
      {
        "astId": 8675,
        "contract": "@pooltogether/yield-source-interface/contracts/test/MockYieldSource.sol:MockYieldSource",
        "label": "token",
        "offset": 0,
        "slot": "5",
        "type": "t_contract(ERC20Mintable)8663"
      },
      {
        "astId": 8677,
        "contract": "@pooltogether/yield-source-interface/contracts/test/MockYieldSource.sol:MockYieldSource",
        "label": "ratePerSecond",
        "offset": 0,
        "slot": "6",
        "type": "t_uint256"
      },
      {
        "astId": 8679,
        "contract": "@pooltogether/yield-source-interface/contracts/test/MockYieldSource.sol:MockYieldSource",
        "label": "lastYieldTimestamp",
        "offset": 0,
        "slot": "7",
        "type": "t_uint256"
      },
      {
        "astId": 8681,
        "contract": "@pooltogether/yield-source-interface/contracts/test/MockYieldSource.sol:MockYieldSource",
        "label": "_decimals",
        "offset": 0,
        "slot": "8",
        "type": "t_uint8"
      }
    ],
    "types": {
      "t_address": {
        "encoding": "inplace",
        "label": "address",
        "numberOfBytes": "20"
      },
      "t_contract(ERC20Mintable)8663": {
        "encoding": "inplace",
        "label": "contract ERC20Mintable",
        "numberOfBytes": "20"
      },
      "t_mapping(t_address,t_mapping(t_address,t_uint256))": {
        "encoding": "mapping",
        "key": "t_address",
        "label": "mapping(address => mapping(address => uint256))",
        "numberOfBytes": "32",
        "value": "t_mapping(t_address,t_uint256)"
      },
      "t_mapping(t_address,t_uint256)": {
        "encoding": "mapping",
        "key": "t_address",
        "label": "mapping(address => uint256)",
        "numberOfBytes": "32",
        "value": "t_uint256"
      },
      "t_string_storage": {
        "encoding": "bytes",
        "label": "string",
        "numberOfBytes": "32"
      },
      "t_uint256": {
        "encoding": "inplace",
        "label": "uint256",
        "numberOfBytes": "32"
      },
      "t_uint8": {
        "encoding": "inplace",
        "label": "uint8",
        "numberOfBytes": "1"
      }
    }
  }
}