{
  "address": "0x1bB98333337406178754B4ECcE125a30a961f1FC",
  "abi": [
    {
      "inputs": [
        {
          "internalType": "address",
          "name": "_owner",
          "type": "address"
        },
        {
          "internalType": "uint8",
          "name": "_cardinality",
          "type": "uint8"
        }
      ],
      "stateMutability": "nonpayable",
      "type": "constructor"
    },
    {
      "anonymous": false,
      "inputs": [
        {
          "indexed": false,
          "internalType": "uint8",
          "name": "cardinality",
          "type": "uint8"
        }
      ],
      "name": "Deployed",
      "type": "event"
    },
    {
      "anonymous": false,
      "inputs": [
        {
          "indexed": false,
          "internalType": "uint32",
          "name": "drawId",
          "type": "uint32"
        },
        {
          "indexed": false,
          "internalType": "uint32",
          "name": "timestamp",
          "type": "uint32"
        },
        {
          "indexed": false,
          "internalType": "uint256",
          "name": "winningRandomNumber",
          "type": "uint256"
        }
      ],
      "name": "DrawSet",
      "type": "event"
    },
    {
      "anonymous": false,
      "inputs": [
        {
          "indexed": true,
          "internalType": "address",
          "name": "previousManager",
          "type": "address"
        },
        {
          "indexed": true,
          "internalType": "address",
          "name": "newManager",
          "type": "address"
        }
      ],
      "name": "ManagerTransferred",
      "type": "event"
    },
    {
      "anonymous": false,
      "inputs": [
        {
          "indexed": true,
          "internalType": "address",
          "name": "pendingOwner",
          "type": "address"
        }
      ],
      "name": "OwnershipOffered",
      "type": "event"
    },
    {
      "anonymous": false,
      "inputs": [
        {
          "indexed": true,
          "internalType": "address",
          "name": "previousOwner",
          "type": "address"
        },
        {
          "indexed": true,
          "internalType": "address",
          "name": "newOwner",
          "type": "address"
        }
      ],
      "name": "OwnershipTransferred",
      "type": "event"
    },
    {
      "anonymous": false,
      "inputs": [
        {
          "indexed": true,
          "internalType": "uint32",
          "name": "drawId",
          "type": "uint32"
        },
        {
          "components": [
            {
              "internalType": "uint8",
              "name": "bitRangeSize",
              "type": "uint8"
            },
            {
              "internalType": "uint8",
              "name": "matchCardinality",
              "type": "uint8"
            },
            {
              "internalType": "uint32",
              "name": "startTimestampOffset",
              "type": "uint32"
            },
            {
              "internalType": "uint32",
              "name": "endTimestampOffset",
              "type": "uint32"
            },
            {
              "internalType": "uint32",
              "name": "maxPicksPerUser",
              "type": "uint32"
            },
            {
              "internalType": "uint136",
              "name": "numberOfPicks",
              "type": "uint136"
            },
            {
              "internalType": "uint32[16]",
              "name": "distributions",
              "type": "uint32[16]"
            },
            {
              "internalType": "uint256",
              "name": "prize",
              "type": "uint256"
            }
          ],
          "indexed": false,
          "internalType": "struct DrawLib.PrizeDistribution",
          "name": "prizeDistributions",
          "type": "tuple"
        }
      ],
      "name": "PrizeDistributionsSet",
      "type": "event"
    },
    {
      "inputs": [],
      "name": "claimOwnership",
      "outputs": [],
      "stateMutability": "nonpayable",
      "type": "function"
    },
    {
      "inputs": [],
      "name": "getNewestPrizeDistribution",
      "outputs": [
        {
          "components": [
            {
              "internalType": "uint8",
              "name": "bitRangeSize",
              "type": "uint8"
            },
            {
              "internalType": "uint8",
              "name": "matchCardinality",
              "type": "uint8"
            },
            {
              "internalType": "uint32",
              "name": "startTimestampOffset",
              "type": "uint32"
            },
            {
              "internalType": "uint32",
              "name": "endTimestampOffset",
              "type": "uint32"
            },
            {
              "internalType": "uint32",
              "name": "maxPicksPerUser",
              "type": "uint32"
            },
            {
              "internalType": "uint136",
              "name": "numberOfPicks",
              "type": "uint136"
            },
            {
              "internalType": "uint32[16]",
              "name": "distributions",
              "type": "uint32[16]"
            },
            {
              "internalType": "uint256",
              "name": "prize",
              "type": "uint256"
            }
          ],
          "internalType": "struct DrawLib.PrizeDistribution",
          "name": "prizeDistribution",
          "type": "tuple"
        },
        {
          "internalType": "uint32",
          "name": "drawId",
          "type": "uint32"
        }
      ],
      "stateMutability": "view",
      "type": "function"
    },
    {
      "inputs": [],
      "name": "getOldestPrizeDistribution",
      "outputs": [
        {
          "components": [
            {
              "internalType": "uint8",
              "name": "bitRangeSize",
              "type": "uint8"
            },
            {
              "internalType": "uint8",
              "name": "matchCardinality",
              "type": "uint8"
            },
            {
              "internalType": "uint32",
              "name": "startTimestampOffset",
              "type": "uint32"
            },
            {
              "internalType": "uint32",
              "name": "endTimestampOffset",
              "type": "uint32"
            },
            {
              "internalType": "uint32",
              "name": "maxPicksPerUser",
              "type": "uint32"
            },
            {
              "internalType": "uint136",
              "name": "numberOfPicks",
              "type": "uint136"
            },
            {
              "internalType": "uint32[16]",
              "name": "distributions",
              "type": "uint32[16]"
            },
            {
              "internalType": "uint256",
              "name": "prize",
              "type": "uint256"
            }
          ],
          "internalType": "struct DrawLib.PrizeDistribution",
          "name": "prizeDistribution",
          "type": "tuple"
        },
        {
          "internalType": "uint32",
          "name": "drawId",
          "type": "uint32"
        }
      ],
      "stateMutability": "view",
      "type": "function"
    },
    {
      "inputs": [
        {
          "internalType": "uint32",
          "name": "_drawId",
          "type": "uint32"
        }
      ],
      "name": "getPrizeDistribution",
      "outputs": [
        {
          "components": [
            {
              "internalType": "uint8",
              "name": "bitRangeSize",
              "type": "uint8"
            },
            {
              "internalType": "uint8",
              "name": "matchCardinality",
              "type": "uint8"
            },
            {
              "internalType": "uint32",
              "name": "startTimestampOffset",
              "type": "uint32"
            },
            {
              "internalType": "uint32",
              "name": "endTimestampOffset",
              "type": "uint32"
            },
            {
              "internalType": "uint32",
              "name": "maxPicksPerUser",
              "type": "uint32"
            },
            {
              "internalType": "uint136",
              "name": "numberOfPicks",
              "type": "uint136"
            },
            {
              "internalType": "uint32[16]",
              "name": "distributions",
              "type": "uint32[16]"
            },
            {
              "internalType": "uint256",
              "name": "prize",
              "type": "uint256"
            }
          ],
          "internalType": "struct DrawLib.PrizeDistribution",
          "name": "",
          "type": "tuple"
        }
      ],
      "stateMutability": "view",
      "type": "function"
    },
    {
      "inputs": [
        {
          "internalType": "uint32[]",
          "name": "_drawIds",
          "type": "uint32[]"
        }
      ],
      "name": "getPrizeDistributions",
      "outputs": [
        {
          "components": [
            {
              "internalType": "uint8",
              "name": "bitRangeSize",
              "type": "uint8"
            },
            {
              "internalType": "uint8",
              "name": "matchCardinality",
              "type": "uint8"
            },
            {
              "internalType": "uint32",
              "name": "startTimestampOffset",
              "type": "uint32"
            },
            {
              "internalType": "uint32",
              "name": "endTimestampOffset",
              "type": "uint32"
            },
            {
              "internalType": "uint32",
              "name": "maxPicksPerUser",
              "type": "uint32"
            },
            {
              "internalType": "uint136",
              "name": "numberOfPicks",
              "type": "uint136"
            },
            {
              "internalType": "uint32[16]",
              "name": "distributions",
              "type": "uint32[16]"
            },
            {
              "internalType": "uint256",
              "name": "prize",
              "type": "uint256"
            }
          ],
          "internalType": "struct DrawLib.PrizeDistribution[]",
          "name": "",
          "type": "tuple[]"
        }
      ],
      "stateMutability": "view",
      "type": "function"
    },
    {
      "inputs": [],
      "name": "manager",
      "outputs": [
        {
          "internalType": "address",
          "name": "",
          "type": "address"
        }
      ],
      "stateMutability": "view",
      "type": "function"
    },
    {
      "inputs": [],
      "name": "owner",
      "outputs": [
        {
          "internalType": "address",
          "name": "",
          "type": "address"
        }
      ],
      "stateMutability": "view",
      "type": "function"
    },
    {
      "inputs": [],
      "name": "pendingOwner",
      "outputs": [
        {
          "internalType": "address",
          "name": "",
          "type": "address"
        }
      ],
      "stateMutability": "view",
      "type": "function"
    },
    {
      "inputs": [
        {
          "internalType": "uint32",
          "name": "_drawId",
          "type": "uint32"
        },
        {
          "components": [
            {
              "internalType": "uint8",
              "name": "bitRangeSize",
              "type": "uint8"
            },
            {
              "internalType": "uint8",
              "name": "matchCardinality",
              "type": "uint8"
            },
            {
              "internalType": "uint32",
              "name": "startTimestampOffset",
              "type": "uint32"
            },
            {
              "internalType": "uint32",
              "name": "endTimestampOffset",
              "type": "uint32"
            },
            {
              "internalType": "uint32",
              "name": "maxPicksPerUser",
              "type": "uint32"
            },
            {
              "internalType": "uint136",
              "name": "numberOfPicks",
              "type": "uint136"
            },
            {
              "internalType": "uint32[16]",
              "name": "distributions",
              "type": "uint32[16]"
            },
            {
              "internalType": "uint256",
              "name": "prize",
              "type": "uint256"
            }
          ],
          "internalType": "struct DrawLib.PrizeDistribution",
          "name": "_prizeDistribution",
          "type": "tuple"
        }
      ],
      "name": "pushPrizeDistribution",
      "outputs": [
        {
          "internalType": "bool",
          "name": "",
          "type": "bool"
        }
      ],
      "stateMutability": "nonpayable",
      "type": "function"
    },
    {
      "inputs": [],
      "name": "renounceOwnership",
      "outputs": [],
      "stateMutability": "nonpayable",
      "type": "function"
    },
    {
      "inputs": [
        {
          "internalType": "address",
          "name": "_newManager",
          "type": "address"
        }
      ],
      "name": "setManager",
      "outputs": [
        {
          "internalType": "bool",
          "name": "",
          "type": "bool"
        }
      ],
      "stateMutability": "nonpayable",
      "type": "function"
    },
    {
      "inputs": [
        {
          "internalType": "uint32",
          "name": "_drawId",
          "type": "uint32"
        },
        {
          "components": [
            {
              "internalType": "uint8",
              "name": "bitRangeSize",
              "type": "uint8"
            },
            {
              "internalType": "uint8",
              "name": "matchCardinality",
              "type": "uint8"
            },
            {
              "internalType": "uint32",
              "name": "startTimestampOffset",
              "type": "uint32"
            },
            {
              "internalType": "uint32",
              "name": "endTimestampOffset",
              "type": "uint32"
            },
            {
              "internalType": "uint32",
              "name": "maxPicksPerUser",
              "type": "uint32"
            },
            {
              "internalType": "uint136",
              "name": "numberOfPicks",
              "type": "uint136"
            },
            {
              "internalType": "uint32[16]",
              "name": "distributions",
              "type": "uint32[16]"
            },
            {
              "internalType": "uint256",
              "name": "prize",
              "type": "uint256"
            }
          ],
          "internalType": "struct DrawLib.PrizeDistribution",
          "name": "_prizeDistribution",
          "type": "tuple"
        }
      ],
      "name": "setPrizeDistribution",
      "outputs": [
        {
          "internalType": "uint32",
          "name": "",
          "type": "uint32"
        }
      ],
      "stateMutability": "nonpayable",
      "type": "function"
    },
    {
      "inputs": [
        {
          "internalType": "address",
          "name": "_newOwner",
          "type": "address"
        }
      ],
      "name": "transferOwnership",
      "outputs": [],
      "stateMutability": "nonpayable",
      "type": "function"
    }
  ],
  "transactionHash": "0x64afb6b5b3b79d1a057a5aaaef4e3fb2fd679ed9ebb36e6ed03ec8d51c070b8b",
  "args": [
    "0xE0F4217390221aF47855E094F6e112D43C8698fE",
    8
  ],
  "solcInputHash": "3016cc01e6fa1ea04dcb1ee229d02cd3",
  "bytecode": "0x60806040523480156200001157600080fd5b5060405162001f2938038062001f298339810160408190526200003491620000f2565b816200004081620000a2565b50610403805463ffffffff60401b191660ff8316680100000000000000008102919091179091556040519081527f7da7688769fade6088b3de366e63c95090bc5b0db6e9b43f043dee741d7544fe9060200160405180910390a1505062000141565b600080546001600160a01b038381166001600160a01b0319831681178455604051919092169283917f8be0079c531659141344cd1fd0a4f28419497f9722a3daafe3b4186f6b6457e09190a35050565b600080604083850312156200010657600080fd5b82516001600160a01b03811681146200011e57600080fd5b602084015190925060ff811681146200013657600080fd5b809150509250929050565b611dd880620001516000396000f3fe608060405234801561001057600080fd5b50600436106100df5760003560e01c8063654673f01161008c578063d0ebdbe711610066578063d0ebdbe7146101be578063d30a5daf146101d1578063e30c3978146101f1578063f2fde38b1461020257600080fd5b8063654673f01461017d578063715018a6146101a55780638da5cb5b146101ad57600080fd5b8063481c6a75116100bd578063481c6a751461012b5780634e71e0c814610150578063606351301461015a57600080fd5b80632439093a146100e457806324c21446146101035780633cd8e2d51461010b575b600080fd5b6100ec610215565b6040516100fa9291906119a0565b60405180910390f35b6100ec6104b6565b61011e610119366004611712565b610632565b6040516100fa9190611991565b6002546001600160a01b03165b6040516001600160a01b0390911681526020016100fa565b610158610686565b005b61016d61016836600461172f565b610719565b60405190151581526020016100fa565b61019061018b36600461172f565b6107df565b60405163ffffffff90911681526020016100fa565b61015861090e565b6000546001600160a01b0316610138565b61016d6101cc366004611674565b610983565b6101e46101df36600461169d565b6109fc565b6040516100fa919061188d565b6001546001600160a01b0316610138565b610158610210366004611674565b610b04565b61021d6115f3565b604080516060810182526104035463ffffffff80821683526401000000008204811660208401819052680100000000000000009092041692820192909252600091600390610100811061027257610272611b42565b60408051610100808201835260049390930293909301805460ff8082168652938104909316602085015262010000830463ffffffff9081168584015266010000000000008404811660608601526a010000000000000000000084041660808501526e01000000000000000000000000000090920470ffffffffffffffffffffffffffffffffff1660a0840152805161020081019182905260c08401916001840190601090826000855b82829054906101000a900463ffffffff1663ffffffff168152602001906004019060208260030104928301926001038202915080841161031b5750505092845250505060039190910154602090910152815190935063ffffffff166103835760009150509091565b825160ff166104a4576040805161010080820183526003805460ff8082168552928104909216602084015262010000820463ffffffff9081168486015266010000000000008304811660608501526a010000000000000000000083041660808401526e01000000000000000000000000000090910470ffffffffffffffffffffffffffffffffff1660a083015282516102008101938490529192909160c0840191600490601090826000855b82829054906101000a900463ffffffff1663ffffffff168152602001906004019060208260030104928301926001038202915080841161042f57505050928452505050600391909101546020918201528201518251919450906104939060016119db565b61049d9190611a3b565b9150509091565b604081015181516104939060016119db565b6104be6115f3565b604080516060810182526104035463ffffffff8082168084526401000000008304821660208501526801000000000000000090920481169383019390935260009260039161050f91849190610c4016565b63ffffffff16610100811061052657610526611b42565b825160408051610100808201835260049490940294909401805460ff8082168752948104909416602086015262010000840463ffffffff9081168684015266010000000000008504811660608701526a010000000000000000000085041660808601526e01000000000000000000000000000090930470ffffffffffffffffffffffffffffffffff1660a0850152805161020081019182905292939192849160c0840191906001840190601090826000855b82829054906101000a900463ffffffff1663ffffffff16815260200190600401906020826003010492830192600103820291508084116105d857905050505050508152602001600382015481525050915092509250509091565b61063a6115f3565b604080516060810182526104035463ffffffff80821683526401000000008204811660208401526801000000000000000090910416918101919091526106809083610d70565b92915050565b6001546001600160a01b031633146106e55760405162461bcd60e51b815260206004820152601f60248201527f4f776e61626c652f63616c6c65722d6e6f742d70656e64696e674f776e65720060448201526064015b60405180910390fd5b6001546106fa906001600160a01b0316610e9b565b6001805473ffffffffffffffffffffffffffffffffffffffff19169055565b60003361072e6002546001600160a01b031690565b6001600160a01b0316148061075c5750336107516000546001600160a01b031690565b6001600160a01b0316145b6107ce5760405162461bcd60e51b815260206004820152602660248201527f4d616e61676561626c652f63616c6c65722d6e6f742d6d616e616765722d6f7260448201527f2d6f776e6572000000000000000000000000000000000000000000000000000060648201526084016106dc565b6107d88383610ef8565b9392505050565b6000336107f46000546001600160a01b031690565b6001600160a01b03161461084a5760405162461bcd60e51b815260206004820152601860248201527f4f776e61626c652f63616c6c65722d6e6f742d6f776e6572000000000000000060448201526064016106dc565b604080516060810182526104035463ffffffff808216835264010000000082048116602084015268010000000000000000909104811692820192909252906000906108999083908790610c4016565b90508360038263ffffffff1661010081106108b6576108b6611b42565b600402016108c48282611b88565b9050508463ffffffff167f85a42564e0dcbaa00e6c007d1c4c6230ed4848004f91688353e6f1d0facf2f73856040516108fd91906118dc565b60405180910390a250929392505050565b336109216000546001600160a01b031690565b6001600160a01b0316146109775760405162461bcd60e51b815260206004820152601860248201527f4f776e61626c652f63616c6c65722d6e6f742d6f776e6572000000000000000060448201526064016106dc565b6109816000610e9b565b565b6000336109986000546001600160a01b031690565b6001600160a01b0316146109ee5760405162461bcd60e51b815260206004820152601860248201527f4f776e61626c652f63616c6c65722d6e6f742d6f776e6572000000000000000060448201526064016106dc565b6106808261138c565b919050565b60408051606081810183526104035463ffffffff808216845264010000000082048116602085015268010000000000000000909104169282019290925260008367ffffffffffffffff811115610a5457610a54611b58565b604051908082528060200260200182016040528015610a8d57816020015b610a7a6115f3565b815260200190600190039081610a725790505b50905060005b84811015610afb57610acb83878784818110610ab157610ab1611b42565b9050602002016020810190610ac69190611712565b610d70565b828281518110610add57610add611b42565b60200260200101819052508080610af390611ac9565b915050610a93565b50949350505050565b33610b176000546001600160a01b031690565b6001600160a01b031614610b6d5760405162461bcd60e51b815260206004820152601860248201527f4f776e61626c652f63616c6c65722d6e6f742d6f776e6572000000000000000060448201526064016106dc565b6001600160a01b038116610be95760405162461bcd60e51b815260206004820152602560248201527f4f776e61626c652f70656e64696e674f776e65722d6e6f742d7a65726f2d616460448201527f647265737300000000000000000000000000000000000000000000000000000060648201526084016106dc565b6001805473ffffffffffffffffffffffffffffffffffffffff19166001600160a01b0383169081179091556040517f239a2ddded15777fa246aed5f7e1a9bc69a39d4eb4a397034d1d85766cca7d4c90600090a250565b6000610c4b83611478565b8015610c675750826000015163ffffffff168263ffffffff1611155b610cb35760405162461bcd60e51b815260206004820152600f60248201527f4452422f6675747572652d64726177000000000000000000000000000000000060448201526064016106dc565b8251600090610cc3908490611a3b565b9050836040015163ffffffff168163ffffffff1610610d245760405162461bcd60e51b815260206004820152601060248201527f4452422f657870697265642d647261770000000000000000000000000000000060448201526064016106dc565b6000610d44856020015163ffffffff16866040015163ffffffff166114a0565b9050610d678163ffffffff168363ffffffff16876040015163ffffffff166114d0565b95945050505050565b610d786115f3565b6003610d848484610c40565b63ffffffff166101008110610d9b57610d9b611b42565b60408051610100808201835260049390930293909301805460ff8082168652938104909316602085015262010000830463ffffffff9081168584015266010000000000008404811660608601526a010000000000000000000084041660808501526e01000000000000000000000000000090920470ffffffffffffffffffffffffffffffffff1660a0840152805161020081019182905260c08401916001840190601090826000855b82829054906101000a900463ffffffff1663ffffffff1681526020019060040190602082600301049283019260010382029150808411610e4457905050505050508152602001600382015481525050905092915050565b600080546001600160a01b0383811673ffffffffffffffffffffffffffffffffffffffff19831681178455604051919092169283917f8be0079c531659141344cd1fd0a4f28419497f9722a3daafe3b4186f6b6457e09190a35050565b6000808363ffffffff1611610f4f5760405162461bcd60e51b815260206004820152601560248201527f4472617743616c632f647261772d69642d67742d30000000000000000000000060448201526064016106dc565b610f5f6040830160208401611790565b610f6e9060ff16610100611a03565b61ffff16610f7f6020840184611790565b60ff161115610fd05760405162461bcd60e51b815260206004820152601f60248201527f4472617743616c632f62697452616e676553697a652d746f6f2d6c617267650060448201526064016106dc565b6000610fdf6020840184611790565b60ff161161102f5760405162461bcd60e51b815260206004820152601a60248201527f4472617743616c632f62697452616e676553697a652d67742d3000000000000060448201526064016106dc565b600061104160a0840160808501611712565b63ffffffff16116110945760405162461bcd60e51b815260206004820152601d60248201527f4472617743616c632f6d61785069636b73506572557365722d67742d3000000060448201526064016106dc565b6000806010815b81811015611133578560c00181601081106110b8576110b8611b42565b6020020160208101906110cb9190611712565b6110db9063ffffffff16856119c3565b935060008660c00182601081106110f4576110f4611b42565b6020020160208101906111079190611712565b63ffffffff161115611121578261111d81611ac9565b9350505b8061112b81611ac9565b91505061109b565b50633b9aca008311156111885760405162461bcd60e51b815260206004820152601e60248201527f4472617743616c632f646973747269627574696f6e732d67742d31303025000060448201526064016106dc565b816111996040870160208801611790565b60ff1610156112105760405162461bcd60e51b815260206004820152602b60248201527f4472617743616c632f6d6174636843617264696e616c6974792d6774652d646960448201527f73747269627574696f6e7300000000000000000000000000000000000000000060648201526084016106dc565b604080516060810182526104035463ffffffff80821683526401000000008204811660208401819052680100000000000000009092041692820192909252908690600390610100811061126557611265611b42565b600402016112738282611b88565b5050604080516060810182526104035463ffffffff8082168352640100000000820481166020840152680100000000000000009091048116928201929092526112be9189906114fa16565b80516104038054602084015160409485015163ffffffff90811668010000000000000000027fffffffffffffffffffffffffffffffffffffffff00000000ffffffffffffffff928216640100000000027fffffffffffffffffffffffffffffffffffffffffffffffff00000000000000009094169582169590951792909217169290921790559051908816907f85a42564e0dcbaa00e6c007d1c4c6230ed4848004f91688353e6f1d0facf2f73906113779089906118dc565b60405180910390a25060019695505050505050565b6002546000906001600160a01b039081169083168114156114155760405162461bcd60e51b815260206004820152602360248201527f4d616e61676561626c652f6578697374696e672d6d616e616765722d6164647260448201527f657373000000000000000000000000000000000000000000000000000000000060648201526084016106dc565b6002805473ffffffffffffffffffffffffffffffffffffffff19166001600160a01b0385811691821790925560405190918316907f9cb45c728de594dab506a1f1a8554e24c8eeaf983618d5ec5dd7bc6f3c49feee90600090a350600192915050565b6000816020015163ffffffff1660001480156114995750815163ffffffff16155b1592915050565b6000816114af57506000610680565b8160016114bc82866119c3565b6114c69190611a24565b6107d89190611b02565b600081836114de82876119c3565b6114e89190611a24565b6114f29190611b02565b949350505050565b604080516060810182526000808252602082018190529181019190915261152083611478565b1580611543575082516115349060016119db565b63ffffffff168263ffffffff16145b61158f5760405162461bcd60e51b815260206004820152601260248201527f4452422f6d7573742d62652d636f6e746967000000000000000000000000000060448201526064016106dc565b60405180606001604052808363ffffffff1681526020016115c4856020015163ffffffff16866040015163ffffffff166115e5565b63ffffffff168152602001846040015163ffffffff16815250905092915050565b6000816114c68460016119c3565b6040805161010081018252600080825260208201819052918101829052606081018290526080810182905260a081019190915260c0810161163261163f565b8152602001600081525090565b6040518061020001604052806010906020820280368337509192915050565b80356109f781611d5f565b80356109f781611d81565b60006020828403121561168657600080fd5b81356001600160a01b03811681146107d857600080fd5b600080602083850312156116b057600080fd5b823567ffffffffffffffff808211156116c857600080fd5b818501915085601f8301126116dc57600080fd5b8135818111156116eb57600080fd5b8660208260051b850101111561170057600080fd5b60209290920196919550909350505050565b60006020828403121561172457600080fd5b81356107d881611d81565b60008082840361030081121561174457600080fd5b833561174f81611d81565b92506102e07fffffffffffffffffffffffffffffffffffffffffffffffffffffffffffffffe08201121561178257600080fd5b506020830190509250929050565b6000602082840312156117a257600080fd5b81356107d881611d93565b8060005b60108110156117e05781356117c581611d81565b63ffffffff16845260209384019391909101906001016117b1565b50505050565b8060005b60108110156117e057815163ffffffff168452602093840193909101906001016117ea565b60ff815116825260ff6020820151166020830152604081015163ffffffff8082166040850152806060840151166060850152806080840151166080850152505070ffffffffffffffffffffffffffffffffff60a08201511660a083015260c081015161187e60c08401826117e6565b5060e001516102c09190910152565b6020808252825182820181905260009190848201906040850190845b818110156118d0576118bc83855161180f565b928401926102e092909201916001016118a9565b50909695505050505050565b6102e0810182356118ec81611d93565b60ff16825260208301356118ff81611d93565b60ff166020830152604083013561191581611d81565b63ffffffff16604083015261192c60608401611669565b63ffffffff16606083015261194360808401611669565b63ffffffff16608083015261195a60a0840161165e565b70ffffffffffffffffffffffffffffffffff1660a083015261198260c08084019085016117ad565b6102c092830135919092015290565b6102e08101610680828461180f565b61030081016119af828561180f565b63ffffffff83166102e08301529392505050565b600082198211156119d6576119d6611b16565b500190565b600063ffffffff8083168185168083038211156119fa576119fa611b16565b01949350505050565b600061ffff80841680611a1857611a18611b2c565b92169190910492915050565b600082821015611a3657611a36611b16565b500390565b600063ffffffff83811690831681811015611a5857611a58611b16565b039392505050565b81816000805b6010811015611ac1578335611a7a81611d81565b835463ffffffff600385901b81811b801990931693909116901b1617835560209390930192600490910190601c821115611ab957600091506001830192505b600101611a66565b505050505050565b60007fffffffffffffffffffffffffffffffffffffffffffffffffffffffffffffffff821415611afb57611afb611b16565b5060010190565b600082611b1157611b11611b2c565b500690565b634e487b7160e01b600052601160045260246000fd5b634e487b7160e01b600052601260045260246000fd5b634e487b7160e01b600052603260045260246000fd5b634e487b7160e01b600052604160045260246000fd5b6000813561068081611d5f565b6000813561068081611d81565b8135611b9381611d93565b60ff811690508154817fffffffffffffffffffffffffffffffffffffffffffffffffffffffffffffff0082161783556020840135611bd081611d93565b61ff008160081b16837fffffffffffffffffffffffffffffffffffffffffffffffffffffffffffff0000841617178455505050611c49611c1260408401611b7b565b82547fffffffffffffffffffffffffffffffffffffffffffffffffffff00000000ffff1660109190911b65ffffffff000016178255565b611c93611c5860608401611b7b565b82547fffffffffffffffffffffffffffffffffffffffffffff00000000ffffffffffff1660309190911b69ffffffff00000000000016178255565b611ce1611ca260808401611b7b565b82547fffffffffffffffffffffffffffffffffffff00000000ffffffffffffffffffff1660509190911b6dffffffff0000000000000000000016178255565b611d40611cf060a08401611b6e565b82547fff0000000000000000000000000000000000ffffffffffffffffffffffffffff1660709190911b7effffffffffffffffffffffffffffffffff000000000000000000000000000016178255565b611d5060c0830160018301611a60565b6102c082013560038201555050565b70ffffffffffffffffffffffffffffffffff81168114611d7e57600080fd5b50565b63ffffffff81168114611d7e57600080fd5b60ff81168114611d7e57600080fdfea26469706673582212208a4f4d96550427d963bdcf4a14382a6f53611dbf2a82faa7a8ded04768de43dd64736f6c63430008060033",
  "devdoc": {
    "author": "PoolTogether Inc Team",
    "kind": "dev",
    "methods": {
      "claimOwnership()": {
        "details": "This function is only callable by the `_pendingOwner`."
      },
      "constructor": {
        "params": {
          "_cardinality": "Cardinality of the `prizeDistributionsRingBufferData`",
          "_owner": "Address of the PrizeDistributionHistory owner"
        }
      },
      "getNewestPrizeDistribution()": {
        "details": "Uses the nextDrawIndex to calculate the most recently added Draw.",
        "returns": {
          "drawId": "Draw.drawId",
          "prizeDistribution": "DrawLib.PrizeDistribution"
        }
      },
      "getOldestPrizeDistribution()": {
        "details": "Finds the oldest Draw by buffer.nextIndex and buffer.lastDrawId",
        "returns": {
          "drawId": "Draw.drawId",
          "prizeDistribution": "DrawLib.PrizeDistribution"
        }
      },
      "getPrizeDistribution(uint32)": {
        "params": {
          "drawId": "Draw.drawId"
        }
      },
      "getPrizeDistributions(uint32[])": {
        "params": {
          "drawIds": "Draw.drawId"
        }
      },
      "manager()": {
        "returns": {
          "_0": "Current `_manager` address."
        }
      },
      "pendingOwner()": {
        "returns": {
          "_0": "Current `_pendingOwner` address."
        }
      },
      "pushPrizeDistribution(uint32,(uint8,uint8,uint32,uint32,uint32,uint136,uint32[16],uint256))": {
        "details": "Only callable by the owner or manager",
        "params": {
          "draw": "PrizeDistributionHistory struct",
          "drawId": "Draw.drawId"
        }
      },
      "renounceOwnership()": {
        "details": "Leaves the contract without owner. It will not be possible to call `onlyOwner` functions anymore. Can only be called by the current owner. NOTE: Renouncing ownership will leave the contract without an owner, thereby removing any functionality that is only available to the owner."
      },
      "setManager(address)": {
        "details": "Throws if called by any account other than the owner.",
        "params": {
          "_newManager": "New _manager address."
        },
        "returns": {
          "_0": "Boolean to indicate if the operation was successful or not."
        }
      },
      "setPrizeDistribution(uint32,(uint8,uint8,uint32,uint32,uint32,uint136,uint32[16],uint256))": {
        "details": "Updating a Draw should be used sparingly and only in the event an incorrect Draw parameter has been stored.",
        "returns": {
          "_0": "Draw.drawId"
        }
      },
      "transferOwnership(address)": {
        "params": {
          "_newOwner": "Address to transfer ownership to."
        }
      }
    },
    "title": "PoolTogether V4 PrizeDistributionHistory",
    "version": 1
  },
  "userdoc": {
    "events": {
      "DrawSet(uint32,uint32,uint256)": {
        "notice": "Emit when a new draw has been created."
      },
      "PrizeDistributionsSet(uint32,(uint8,uint8,uint32,uint32,uint32,uint136,uint32[16],uint256))": {
        "notice": "Emitted when the DrawParams are set/updated"
      }
    },
    "kind": "user",
    "methods": {
      "claimOwnership()": {
        "notice": "Allows the `_pendingOwner` address to finalize the transfer."
      },
      "constructor": {
        "notice": "Constructor for PrizeDistributionHistory"
      },
      "getNewestPrizeDistribution()": {
        "notice": "Read newest PrizeDistributions from the prize distributions ring buffer."
      },
      "getOldestPrizeDistribution()": {
        "notice": "Read oldest PrizeDistributions from the prize distributions ring buffer."
      },
      "getPrizeDistribution(uint32)": {
        "notice": "Gets the PrizeDistributionHistory for a Draw.drawID"
      },
      "getPrizeDistributions(uint32[])": {
        "notice": "Gets array of PrizeDistributionHistory for Draw.drawID(s)"
      },
      "manager()": {
        "notice": "Gets current `_manager`."
      },
      "owner()": {
        "notice": "Returns the address of the current owner."
      },
      "pendingOwner()": {
        "notice": "Gets current `_pendingOwner`."
      },
      "pushPrizeDistribution(uint32,(uint8,uint8,uint32,uint32,uint32,uint136,uint32[16],uint256))": {
        "notice": "Sets PrizeDistributionHistory for a Draw.drawID."
      },
      "renounceOwnership()": {
        "notice": "Renounce ownership of the contract."
      },
      "setManager(address)": {
        "notice": "Set or change of manager."
      },
      "setPrizeDistribution(uint32,(uint8,uint8,uint32,uint32,uint32,uint136,uint32[16],uint256))": {
        "notice": "Set existing Draw in prize distributions ring buffer with new parameters."
      },
      "transferOwnership(address)": {
        "notice": "Allows current owner to set the `_pendingOwner` address."
      }
    },
    "notice": "The PrizeDistributionHistory stores individual PrizeDistributions for each Draw.drawId. PrizeDistributions parameters like cardinality, bitRange, distributions, number of picks and prize. The settings determine the specific distribution model for each individual draw. Storage of the PrizeDistribution(s) is handled by ring buffer with a max cardinality of 256 or roughly 5 years of history with a weekly draw cadence.",
    "version": 1
  },
  "storageLayout": {
    "storage": [
      {
        "astId": 3178,
        "contract": "@pooltogether/v4-core/contracts/PrizeDistributionHistory.sol:PrizeDistributionHistory",
        "label": "_owner",
        "offset": 0,
        "slot": "0",
        "type": "t_address"
      },
      {
        "astId": 3180,
        "contract": "@pooltogether/v4-core/contracts/PrizeDistributionHistory.sol:PrizeDistributionHistory",
        "label": "_pendingOwner",
        "offset": 0,
        "slot": "1",
        "type": "t_address"
      },
      {
        "astId": 3076,
        "contract": "@pooltogether/v4-core/contracts/PrizeDistributionHistory.sol:PrizeDistributionHistory",
        "label": "_manager",
        "offset": 0,
        "slot": "2",
        "type": "t_address"
      },
      {
        "astId": 6394,
        "contract": "@pooltogether/v4-core/contracts/PrizeDistributionHistory.sol:PrizeDistributionHistory",
        "label": "_prizeDistributionsRingBuffer",
        "offset": 0,
        "slot": "3",
        "type": "t_array(t_struct(PrizeDistribution)9485_storage)256_storage"
      },
      {
        "astId": 6398,
        "contract": "@pooltogether/v4-core/contracts/PrizeDistributionHistory.sol:PrizeDistributionHistory",
        "label": "prizeDistributionsRingBufferData",
        "offset": 0,
        "slot": "1027",
        "type": "t_struct(Buffer)9497_storage"
      }
    ],
    "types": {
      "t_address": {
        "encoding": "inplace",
        "label": "address",
        "numberOfBytes": "20"
      },
      "t_array(t_struct(PrizeDistribution)9485_storage)256_storage": {
        "base": "t_struct(PrizeDistribution)9485_storage",
        "encoding": "inplace",
        "label": "struct DrawLib.PrizeDistribution[256]",
        "numberOfBytes": "32768"
      },
      "t_array(t_uint32)16_storage": {
        "base": "t_uint32",
        "encoding": "inplace",
        "label": "uint32[16]",
        "numberOfBytes": "64"
      },
      "t_struct(Buffer)9497_storage": {
        "encoding": "inplace",
        "label": "struct DrawRingBufferLib.Buffer",
        "members": [
          {
            "astId": 9492,
            "contract": "@pooltogether/v4-core/contracts/PrizeDistributionHistory.sol:PrizeDistributionHistory",
            "label": "lastDrawId",
            "offset": 0,
            "slot": "0",
            "type": "t_uint32"
          },
          {
            "astId": 9494,
            "contract": "@pooltogether/v4-core/contracts/PrizeDistributionHistory.sol:PrizeDistributionHistory",
            "label": "nextIndex",
            "offset": 4,
            "slot": "0",
            "type": "t_uint32"
          },
          {
            "astId": 9496,
            "contract": "@pooltogether/v4-core/contracts/PrizeDistributionHistory.sol:PrizeDistributionHistory",
            "label": "cardinality",
            "offset": 8,
            "slot": "0",
            "type": "t_uint32"
          }
        ],
        "numberOfBytes": "32"
      },
      "t_struct(PrizeDistribution)9485_storage": {
        "encoding": "inplace",
        "label": "struct DrawLib.PrizeDistribution",
        "members": [
          {
            "astId": 9468,
            "contract": "@pooltogether/v4-core/contracts/PrizeDistributionHistory.sol:PrizeDistributionHistory",
            "label": "bitRangeSize",
            "offset": 0,
            "slot": "0",
            "type": "t_uint8"
          },
          {
            "astId": 9470,
            "contract": "@pooltogether/v4-core/contracts/PrizeDistributionHistory.sol:PrizeDistributionHistory",
            "label": "matchCardinality",
            "offset": 1,
            "slot": "0",
            "type": "t_uint8"
          },
          {
            "astId": 9472,
            "contract": "@pooltogether/v4-core/contracts/PrizeDistributionHistory.sol:PrizeDistributionHistory",
            "label": "startTimestampOffset",
            "offset": 2,
            "slot": "0",
            "type": "t_uint32"
          },
          {
            "astId": 9474,
            "contract": "@pooltogether/v4-core/contracts/PrizeDistributionHistory.sol:PrizeDistributionHistory",
            "label": "endTimestampOffset",
            "offset": 6,
            "slot": "0",
            "type": "t_uint32"
          },
          {
            "astId": 9476,
            "contract": "@pooltogether/v4-core/contracts/PrizeDistributionHistory.sol:PrizeDistributionHistory",
            "label": "maxPicksPerUser",
            "offset": 10,
            "slot": "0",
            "type": "t_uint32"
          },
          {
            "astId": 9478,
            "contract": "@pooltogether/v4-core/contracts/PrizeDistributionHistory.sol:PrizeDistributionHistory",
            "label": "numberOfPicks",
            "offset": 14,
            "slot": "0",
            "type": "t_uint136"
          },
          {
            "astId": 9482,
            "contract": "@pooltogether/v4-core/contracts/PrizeDistributionHistory.sol:PrizeDistributionHistory",
            "label": "distributions",
            "offset": 0,
            "slot": "1",
            "type": "t_array(t_uint32)16_storage"
          },
          {
            "astId": 9484,
            "contract": "@pooltogether/v4-core/contracts/PrizeDistributionHistory.sol:PrizeDistributionHistory",
            "label": "prize",
            "offset": 0,
            "slot": "3",
            "type": "t_uint256"
          }
        ],
        "numberOfBytes": "128"
      },
      "t_uint136": {
        "encoding": "inplace",
        "label": "uint136",
        "numberOfBytes": "17"
      },
      "t_uint256": {
        "encoding": "inplace",
        "label": "uint256",
        "numberOfBytes": "32"
      },
      "t_uint32": {
        "encoding": "inplace",
        "label": "uint32",
        "numberOfBytes": "4"
      },
      "t_uint8": {
        "encoding": "inplace",
        "label": "uint8",
        "numberOfBytes": "1"
      }
    }
  }
}