{
  "address": "0xf5Ea8448237e981F82864e7e24Adac2561fa2Cf5",
  "abi": [
    {
      "inputs": [
        {
          "internalType": "address",
          "name": "_owner",
          "type": "address"
        },
        {
          "internalType": "address",
          "name": "_destination",
          "type": "address"
        },
        {
          "internalType": "contract IStrategy",
          "name": "_strategy",
          "type": "address"
        },
        {
          "internalType": "contract IReserve",
          "name": "_reserve",
          "type": "address"
        }
      ],
      "stateMutability": "nonpayable",
      "type": "constructor"
    },
    {
      "anonymous": false,
      "inputs": [
        {
          "indexed": false,
          "internalType": "address",
          "name": "destination",
          "type": "address"
        },
        {
          "indexed": false,
          "internalType": "contract IReserve",
          "name": "reserve",
          "type": "address"
        },
        {
          "indexed": false,
          "internalType": "contract IStrategy",
          "name": "strategy",
          "type": "address"
        }
      ],
      "name": "Deployed",
      "type": "event"
    },
    {
      "anonymous": false,
      "inputs": [
        {
          "indexed": true,
          "internalType": "address",
          "name": "recipient",
          "type": "address"
        },
        {
          "indexed": false,
          "internalType": "uint256",
          "name": "amount",
          "type": "uint256"
        }
      ],
      "name": "Flushed",
      "type": "event"
    },
    {
      "anonymous": false,
      "inputs": [
        {
          "indexed": true,
          "internalType": "address",
          "name": "previousManager",
          "type": "address"
        },
        {
          "indexed": true,
          "internalType": "address",
          "name": "newManager",
          "type": "address"
        }
      ],
      "name": "ManagerTransferred",
      "type": "event"
    },
    {
      "anonymous": false,
      "inputs": [
        {
          "indexed": true,
          "internalType": "address",
          "name": "pendingOwner",
          "type": "address"
        }
      ],
      "name": "OwnershipOffered",
      "type": "event"
    },
    {
      "anonymous": false,
      "inputs": [
        {
          "indexed": true,
          "internalType": "address",
          "name": "previousOwner",
          "type": "address"
        },
        {
          "indexed": true,
          "internalType": "address",
          "name": "newOwner",
          "type": "address"
        }
      ],
      "name": "OwnershipTransferred",
      "type": "event"
    },
    {
      "inputs": [],
      "name": "claimOwnership",
      "outputs": [],
      "stateMutability": "nonpayable",
      "type": "function"
    },
    {
      "inputs": [],
      "name": "flush",
      "outputs": [
        {
          "internalType": "bool",
          "name": "",
          "type": "bool"
        }
      ],
      "stateMutability": "nonpayable",
      "type": "function"
    },
    {
      "inputs": [],
      "name": "getDestination",
      "outputs": [
        {
          "internalType": "address",
          "name": "",
          "type": "address"
        }
      ],
      "stateMutability": "view",
      "type": "function"
    },
    {
      "inputs": [],
      "name": "getReserve",
      "outputs": [
        {
          "internalType": "contract IReserve",
          "name": "",
          "type": "address"
        }
      ],
      "stateMutability": "view",
      "type": "function"
    },
    {
      "inputs": [],
      "name": "getStrategy",
      "outputs": [
        {
          "internalType": "contract IStrategy",
          "name": "",
          "type": "address"
        }
      ],
      "stateMutability": "view",
      "type": "function"
    },
    {
      "inputs": [],
      "name": "manager",
      "outputs": [
        {
          "internalType": "address",
          "name": "",
          "type": "address"
        }
      ],
      "stateMutability": "view",
      "type": "function"
    },
    {
      "inputs": [],
      "name": "owner",
      "outputs": [
        {
          "internalType": "address",
          "name": "",
          "type": "address"
        }
      ],
      "stateMutability": "view",
      "type": "function"
    },
    {
      "inputs": [],
      "name": "pendingOwner",
      "outputs": [
        {
          "internalType": "address",
          "name": "",
          "type": "address"
        }
      ],
      "stateMutability": "view",
      "type": "function"
    },
    {
      "inputs": [],
      "name": "renounceOwnership",
      "outputs": [],
      "stateMutability": "nonpayable",
      "type": "function"
    },
    {
      "inputs": [
        {
          "internalType": "address",
          "name": "_destination",
          "type": "address"
        }
      ],
      "name": "setDestination",
      "outputs": [
        {
          "internalType": "address",
          "name": "",
          "type": "address"
        }
      ],
      "stateMutability": "nonpayable",
      "type": "function"
    },
    {
      "inputs": [
        {
          "internalType": "address",
          "name": "_newManager",
          "type": "address"
        }
      ],
      "name": "setManager",
      "outputs": [
        {
          "internalType": "bool",
          "name": "",
          "type": "bool"
        }
      ],
      "stateMutability": "nonpayable",
      "type": "function"
    },
    {
      "inputs": [
        {
          "internalType": "contract IReserve",
          "name": "_reserve",
          "type": "address"
        }
      ],
      "name": "setReserve",
      "outputs": [
        {
          "internalType": "contract IReserve",
          "name": "",
          "type": "address"
        }
      ],
      "stateMutability": "nonpayable",
      "type": "function"
    },
    {
      "inputs": [
        {
          "internalType": "contract IStrategy",
          "name": "_strategy",
          "type": "address"
        }
      ],
      "name": "setStrategy",
      "outputs": [
        {
          "internalType": "contract IStrategy",
          "name": "",
          "type": "address"
        }
      ],
      "stateMutability": "nonpayable",
      "type": "function"
    },
    {
      "inputs": [
        {
          "internalType": "address",
          "name": "_newOwner",
          "type": "address"
        }
      ],
      "name": "transferOwnership",
      "outputs": [],
      "stateMutability": "nonpayable",
      "type": "function"
    }
  ],
  "transactionHash": "0xda0c7ff2a44d933329aa4bd8a7a20cf23a8957c0c8ca919e071f060d891378a1",
  "args": [
    "0xE0F4217390221aF47855E094F6e112D43C8698fE",
    "0x9c63E8ad7f46A4ed7c1955eBF05Cbdf82fD30144",
    "0xf5a4d55fb7aD5a340A44394cB76955D15D9be003",
    "0xe210858360fe05203B96373Bc05CD95442f5730E"
  ],
  "solcInputHash": "b0872f2c20298ba87c0d5bbb50dadae3",
  "bytecode": "0x608060405234801561001057600080fd5b50604051610ee4380380610ee483398101604081905261002f91610111565b83610039816100c1565b50600380546001600160a01b038581166001600160a01b03199283168117909355600580548683169084168117909155600480549286169290931682179092556040805193845260208401919091528201527fc95935a66d15e0da5e412aca0ad27ae891d20b2fb91cf3994b6a3bf2b81780829060600160405180910390a150505050610188565b600080546001600160a01b038381166001600160a01b0319831681178455604051919092169283917f8be0079c531659141344cd1fd0a4f28419497f9722a3daafe3b4186f6b6457e09190a35050565b6000806000806080858703121561012757600080fd5b845161013281610170565b602086015190945061014381610170565b604086015190935061015481610170565b606086015190925061016581610170565b939692955090935050565b6001600160a01b038116811461018557600080fd5b50565b610d4d806101976000396000f3fe608060405234801561001057600080fd5b50600436106100ea5760003560e01c80636b9f96ea1161008c5780639cecc80a116100665780639cecc80a146101ad578063d0ebdbe7146101c0578063e30c3978146101d3578063f2fde38b146101e457600080fd5b80636b9f96ea1461017c578063715018a6146101945780638da5cb5b1461019c57600080fd5b806333a100ca116100c857806333a100ca1461013d578063481c6a75146101505780634e71e0c81461016157806359bf5d391461016b57600080fd5b806307da0603146100ef5780630a0a05e61461011957806316ad95421461012c575b600080fd5b6005546001600160a01b03165b6040516001600160a01b0390911681526020015b60405180910390f35b6100fc610127366004610ca5565b6101f7565b6003546001600160a01b03166100fc565b6100fc61014b366004610ca5565b61030f565b6002546001600160a01b03166100fc565b6101696103fc565b005b6004546001600160a01b03166100fc565b61018461048a565b6040519015158152602001610110565b610169610840565b6000546001600160a01b03166100fc565b6100fc6101bb366004610ca5565b6108b5565b6101846101ce366004610ca5565b6109a6565b6001546001600160a01b03166100fc565b6101696101f2366004610ca5565b610a20565b60003361020c6000546001600160a01b031690565b6001600160a01b0316146102675760405162461bcd60e51b815260206004820152601860248201527f4f776e61626c652f63616c6c65722d6e6f742d6f776e6572000000000000000060448201526064015b60405180910390fd5b6001600160a01b0382166102e35760405162461bcd60e51b815260206004820152602260248201527f466c7573682f64657374696e6174696f6e2d6e6f742d7a65726f2d616464726560448201527f7373000000000000000000000000000000000000000000000000000000000000606482015260840161025e565b506003805473ffffffffffffffffffffffffffffffffffffffff19166001600160a01b03831617905590565b6000336103246000546001600160a01b031690565b6001600160a01b03161461037a5760405162461bcd60e51b815260206004820152601860248201527f4f776e61626c652f63616c6c65722d6e6f742d6f776e65720000000000000000604482015260640161025e565b6001600160a01b0382166103d05760405162461bcd60e51b815260206004820152601f60248201527f466c7573682f73747261746567792d6e6f742d7a65726f2d6164647265737300604482015260640161025e565b506005805473ffffffffffffffffffffffffffffffffffffffff19166001600160a01b03831617905590565b6001546001600160a01b031633146104565760405162461bcd60e51b815260206004820152601f60248201527f4f776e61626c652f63616c6c65722d6e6f742d70656e64696e674f776e657200604482015260640161025e565b60015461046b906001600160a01b0316610b5c565b6001805473ffffffffffffffffffffffffffffffffffffffff19169055565b60003361049f6002546001600160a01b031690565b6001600160a01b031614806104cd5750336104c26000546001600160a01b031690565b6001600160a01b0316145b61053f5760405162461bcd60e51b815260206004820152602660248201527f4d616e61676561626c652f63616c6c65722d6e6f742d6d616e616765722d6f7260448201527f2d6f776e65720000000000000000000000000000000000000000000000000000606482015260840161025e565b600560009054906101000a90046001600160a01b03166001600160a01b031663e4fc6b6d6040518163ffffffff1660e01b8152600401600060405180830381600087803b15801561058f57600080fd5b505af11580156105a3573d6000803e3d6000fd5b505060048054604080517f21df0da700000000000000000000000000000000000000000000000000000000815290516001600160a01b0390921694506000935084926321df0da7928282019260209290829003018186803b15801561060757600080fd5b505afa15801561061b573d6000803e3d6000fd5b505050506040513d601f19601f8201168201806040525081019061063f9190610cc9565b6040517f70a082310000000000000000000000000000000000000000000000000000000081526001600160a01b0384811660048301529192506000918316906370a082319060240160206040518083038186803b15801561069f57600080fd5b505afa1580156106b3573d6000803e3d6000fd5b505050506040513d601f19601f820116820180604052508101906106d79190610ce6565b9050801561083a576003546040517f70a082310000000000000000000000000000000000000000000000000000000081526001600160a01b03858116600483018190529263205c287892908216918616906370a082319060240160206040518083038186803b15801561074957600080fd5b505afa15801561075d573d6000803e3d6000fd5b505050506040513d601f19601f820116820180604052508101906107819190610ce6565b6040517fffffffff0000000000000000000000000000000000000000000000000000000060e085901b1681526001600160a01b0390921660048301526024820152604401600060405180830381600087803b1580156107df57600080fd5b505af11580156107f3573d6000803e3d6000fd5b50506003546040518481526001600160a01b0390911692507f43a46ac5237b9605f9ffdc5ca9e3ada3bea496bd00815441705ff59446129fb1915060200160405180910390a25b50505090565b336108536000546001600160a01b031690565b6001600160a01b0316146108a95760405162461bcd60e51b815260206004820152601860248201527f4f776e61626c652f63616c6c65722d6e6f742d6f776e65720000000000000000604482015260640161025e565b6108b36000610b5c565b565b6000336108ca6000546001600160a01b031690565b6001600160a01b0316146109205760405162461bcd60e51b815260206004820152601860248201527f4f776e61626c652f63616c6c65722d6e6f742d6f776e65720000000000000000604482015260640161025e565b6001600160a01b0382166109765760405162461bcd60e51b815260206004820152601e60248201527f466c7573682f726573657276652d6e6f742d7a65726f2d616464726573730000604482015260640161025e565b506004805473ffffffffffffffffffffffffffffffffffffffff19166001600160a01b0392909216918217905590565b6000336109bb6000546001600160a01b031690565b6001600160a01b031614610a115760405162461bcd60e51b815260206004820152601860248201527f4f776e61626c652f63616c6c65722d6e6f742d6f776e65720000000000000000604482015260640161025e565b610a1a82610bb9565b92915050565b33610a336000546001600160a01b031690565b6001600160a01b031614610a895760405162461bcd60e51b815260206004820152601860248201527f4f776e61626c652f63616c6c65722d6e6f742d6f776e65720000000000000000604482015260640161025e565b6001600160a01b038116610b055760405162461bcd60e51b815260206004820152602560248201527f4f776e61626c652f70656e64696e674f776e65722d6e6f742d7a65726f2d616460448201527f6472657373000000000000000000000000000000000000000000000000000000606482015260840161025e565b6001805473ffffffffffffffffffffffffffffffffffffffff19166001600160a01b0383169081179091556040517f239a2ddded15777fa246aed5f7e1a9bc69a39d4eb4a397034d1d85766cca7d4c90600090a250565b600080546001600160a01b0383811673ffffffffffffffffffffffffffffffffffffffff19831681178455604051919092169283917f8be0079c531659141344cd1fd0a4f28419497f9722a3daafe3b4186f6b6457e09190a35050565b6002546000906001600160a01b03908116908316811415610c425760405162461bcd60e51b815260206004820152602360248201527f4d616e61676561626c652f6578697374696e672d6d616e616765722d6164647260448201527f6573730000000000000000000000000000000000000000000000000000000000606482015260840161025e565b6002805473ffffffffffffffffffffffffffffffffffffffff19166001600160a01b0385811691821790925560405190918316907f9cb45c728de594dab506a1f1a8554e24c8eeaf983618d5ec5dd7bc6f3c49feee90600090a350600192915050565b600060208284031215610cb757600080fd5b8135610cc281610cff565b9392505050565b600060208284031215610cdb57600080fd5b8151610cc281610cff565b600060208284031215610cf857600080fd5b5051919050565b6001600160a01b0381168114610d1457600080fd5b5056fea2646970667358221220b15e8748a50c3ba81180661ad260465c2fe6f75e63528383a06efcae988d6aa264736f6c63430008060033",
  "devdoc": {
    "author": "PoolTogether Inc Team",
    "events": {
      "Deployed(address,address,address)": {
        "params": {
          "reserve": "IReserve",
          "strategy": "IStrategy "
        }
      }
    },
    "kind": "dev",
    "methods": {
      "claimOwnership()": {
        "details": "This function is only callable by the `_pendingOwner`."
      },
      "constructor": {
        "params": {
          "_destination": "address",
          "_owner": "address",
          "_reserve": "IReserve ",
          "_strategy": "IStrategy"
        }
      },
      "flush()": {
        "details": "Captures interest, checkpoint data and transfers tokens to final destination. "
      },
      "manager()": {
        "returns": {
          "_0": "Current `_manager` address."
        }
      },
      "pendingOwner()": {
        "returns": {
          "_0": "Current `_pendingOwner` address."
        }
      },
      "renounceOwnership()": {
        "details": "Leaves the contract without owner. It will not be possible to call `onlyOwner` functions anymore. Can only be called by the current owner. NOTE: Renouncing ownership will leave the contract without an owner, thereby removing any functionality that is only available to the owner."
      },
      "setManager(address)": {
        "details": "Throws if called by any account other than the owner.",
        "params": {
          "_newManager": "New _manager address."
        },
        "returns": {
          "_0": "Boolean to indicate if the operation was successful or not."
        }
      },
      "transferOwnership(address)": {
        "params": {
          "_newOwner": "Address to transfer ownership to."
        }
      }
    },
    "title": "PoolTogether V4 PrizeFlush",
    "version": 1
  },
  "userdoc": {
    "events": {
      "Deployed(address,address,address)": {
        "notice": "Emit when contract deployed."
      }
    },
    "kind": "user",
    "methods": {
      "claimOwnership()": {
        "notice": "Allows the `_pendingOwner` address to finalize the transfer."
      },
      "constructor": {
        "notice": "Set owner, reserve and strategy when deployed."
      },
      "flush()": {
        "notice": "Migrate interest from PrizePool to DrawPrizes in single transaction."
      },
      "manager()": {
        "notice": "Gets current `_manager`."
      },
      "owner()": {
        "notice": "Returns the address of the current owner."
      },
      "pendingOwner()": {
        "notice": "Gets current `_pendingOwner`."
      },
      "renounceOwnership()": {
        "notice": "Renounce ownership of the contract."
      },
      "setManager(address)": {
        "notice": "Set or change of manager."
      },
      "transferOwnership(address)": {
        "notice": "Allows current owner to set the `_pendingOwner` address."
      }
    },
    "notice": "The PrizeFlush is a helper library to facilate interest distribution. ",
    "version": 1
  },
  "storageLayout": {
    "storage": [
      {
        "astId": 3466,
        "contract": "@pooltogether/v4-core/contracts/PrizeFlush.sol:PrizeFlush",
        "label": "_owner",
        "offset": 0,
        "slot": "0",
        "type": "t_address"
      },
      {
        "astId": 3468,
        "contract": "@pooltogether/v4-core/contracts/PrizeFlush.sol:PrizeFlush",
        "label": "_pendingOwner",
        "offset": 0,
        "slot": "1",
        "type": "t_address"
      },
      {
        "astId": 3364,
        "contract": "@pooltogether/v4-core/contracts/PrizeFlush.sol:PrizeFlush",
        "label": "_manager",
        "offset": 0,
        "slot": "2",
        "type": "t_address"
      },
      {
        "astId": 5373,
        "contract": "@pooltogether/v4-core/contracts/PrizeFlush.sol:PrizeFlush",
        "label": "destination",
        "offset": 0,
        "slot": "3",
        "type": "t_address"
      },
      {
        "astId": 5377,
        "contract": "@pooltogether/v4-core/contracts/PrizeFlush.sol:PrizeFlush",
        "label": "reserve",
        "offset": 0,
        "slot": "4",
        "type": "t_contract(IReserve)9612"
      },
      {
        "astId": 5381,
        "contract": "@pooltogether/v4-core/contracts/PrizeFlush.sol:PrizeFlush",
        "label": "strategy",
        "offset": 0,
        "slot": "5",
        "type": "t_contract(IStrategy)9618"
      }
    ],
    "types": {
      "t_address": {
        "encoding": "inplace",
        "label": "address",
        "numberOfBytes": "20"
      },
      "t_contract(IReserve)9612": {
        "encoding": "inplace",
        "label": "contract IReserve",
        "numberOfBytes": "20"
      },
      "t_contract(IStrategy)9618": {
        "encoding": "inplace",
        "label": "contract IStrategy",
        "numberOfBytes": "20"
      }
    }
  }
}