{
  "address": "0xf5a4d55fb7aD5a340A44394cB76955D15D9be003",
  "abi": [
    {
      "inputs": [
        {
          "internalType": "address",
          "name": "_owner",
          "type": "address"
        },
        {
          "internalType": "contract IPrizePool",
          "name": "_prizePool",
          "type": "address"
        }
      ],
      "stateMutability": "nonpayable",
      "type": "constructor"
    },
    {
      "anonymous": false,
      "inputs": [
        {
          "indexed": false,
          "internalType": "uint256",
          "name": "totalPrizeCaptured",
          "type": "uint256"
        }
      ],
      "name": "Distributed",
      "type": "event"
    },
    {
      "anonymous": false,
      "inputs": [
        {
          "indexed": true,
          "internalType": "address",
          "name": "pendingOwner",
          "type": "address"
        }
      ],
      "name": "OwnershipOffered",
      "type": "event"
    },
    {
      "anonymous": false,
      "inputs": [
        {
          "indexed": true,
          "internalType": "address",
          "name": "previousOwner",
          "type": "address"
        },
        {
          "indexed": true,
          "internalType": "address",
          "name": "newOwner",
          "type": "address"
        }
      ],
      "name": "OwnershipTransferred",
      "type": "event"
    },
    {
      "anonymous": false,
      "inputs": [
        {
          "indexed": true,
          "internalType": "address",
          "name": "user",
          "type": "address"
        },
        {
          "indexed": false,
          "internalType": "uint256",
          "name": "prizeAwarded",
          "type": "uint256"
        },
        {
          "indexed": true,
          "internalType": "contract IControlledToken",
          "name": "token",
          "type": "address"
        }
      ],
      "name": "PrizeSplitAwarded",
      "type": "event"
    },
    {
      "anonymous": false,
      "inputs": [
        {
          "indexed": true,
          "internalType": "uint256",
          "name": "target",
          "type": "uint256"
        }
      ],
      "name": "PrizeSplitRemoved",
      "type": "event"
    },
    {
      "anonymous": false,
      "inputs": [
        {
          "indexed": true,
          "internalType": "address",
          "name": "target",
          "type": "address"
        },
        {
          "indexed": false,
          "internalType": "uint16",
          "name": "percentage",
          "type": "uint16"
        },
        {
          "indexed": false,
          "internalType": "uint256",
          "name": "index",
          "type": "uint256"
        }
      ],
      "name": "PrizeSplitSet",
      "type": "event"
    },
    {
      "inputs": [],
      "name": "claimOwnership",
      "outputs": [],
      "stateMutability": "nonpayable",
      "type": "function"
    },
    {
      "inputs": [],
      "name": "distribute",
      "outputs": [
        {
          "internalType": "uint256",
          "name": "",
          "type": "uint256"
        }
      ],
      "stateMutability": "nonpayable",
      "type": "function"
    },
    {
      "inputs": [],
      "name": "owner",
      "outputs": [
        {
          "internalType": "address",
          "name": "",
          "type": "address"
        }
      ],
      "stateMutability": "view",
      "type": "function"
    },
    {
      "inputs": [],
      "name": "pendingOwner",
      "outputs": [
        {
          "internalType": "address",
          "name": "",
          "type": "address"
        }
      ],
      "stateMutability": "view",
      "type": "function"
    },
    {
      "inputs": [],
      "name": "prizePool",
      "outputs": [
        {
          "internalType": "contract IPrizePool",
          "name": "",
          "type": "address"
        }
      ],
      "stateMutability": "view",
      "type": "function"
    },
    {
      "inputs": [
        {
          "internalType": "uint256",
          "name": "prizeSplitIndex",
          "type": "uint256"
        }
      ],
      "name": "prizeSplit",
      "outputs": [
        {
          "components": [
            {
              "internalType": "address",
              "name": "target",
              "type": "address"
            },
            {
              "internalType": "uint16",
              "name": "percentage",
              "type": "uint16"
            }
          ],
          "internalType": "struct PrizeSplit.PrizeSplitConfig",
          "name": "",
          "type": "tuple"
        }
      ],
      "stateMutability": "view",
      "type": "function"
    },
    {
      "inputs": [],
      "name": "prizeSplits",
      "outputs": [
        {
          "components": [
            {
              "internalType": "address",
              "name": "target",
              "type": "address"
            },
            {
              "internalType": "uint16",
              "name": "percentage",
              "type": "uint16"
            }
          ],
          "internalType": "struct PrizeSplit.PrizeSplitConfig[]",
          "name": "",
          "type": "tuple[]"
        }
      ],
      "stateMutability": "view",
      "type": "function"
    },
    {
      "inputs": [],
      "name": "renounceOwnership",
      "outputs": [],
      "stateMutability": "nonpayable",
      "type": "function"
    },
    {
      "inputs": [
        {
          "components": [
            {
              "internalType": "address",
              "name": "target",
              "type": "address"
            },
            {
              "internalType": "uint16",
              "name": "percentage",
              "type": "uint16"
            }
          ],
          "internalType": "struct PrizeSplit.PrizeSplitConfig",
          "name": "prizeStrategySplit",
          "type": "tuple"
        },
        {
          "internalType": "uint8",
          "name": "prizeSplitIndex",
          "type": "uint8"
        }
      ],
      "name": "setPrizeSplit",
      "outputs": [],
      "stateMutability": "nonpayable",
      "type": "function"
    },
    {
      "inputs": [
        {
          "components": [
            {
              "internalType": "address",
              "name": "target",
              "type": "address"
            },
            {
              "internalType": "uint16",
              "name": "percentage",
              "type": "uint16"
            }
          ],
          "internalType": "struct PrizeSplit.PrizeSplitConfig[]",
          "name": "newPrizeSplits",
          "type": "tuple[]"
        }
      ],
      "name": "setPrizeSplits",
      "outputs": [],
      "stateMutability": "nonpayable",
      "type": "function"
    },
    {
      "inputs": [
        {
          "internalType": "address",
          "name": "_newOwner",
          "type": "address"
        }
      ],
      "name": "transferOwnership",
      "outputs": [],
      "stateMutability": "nonpayable",
      "type": "function"
    }
  ],
  "transactionHash": "0x41c2b6169a8b698174cb1f68226890ca79fcc2204d90afe6ed4c194152b34ab5",
  "args": [
    "0xE0F4217390221aF47855E094F6e112D43C8698fE",
    "0x81E87EB73A6df96Cfc4c9Fa6eCDfeA2DB7Cc70f6"
  ],
  "solcInputHash": "b0872f2c20298ba87c0d5bbb50dadae3",
  "bytecode": "0x60806040523480156200001157600080fd5b50604051620014823803806200148283398101604081905262000034916200012a565b816200004081620000da565b506001600160a01b038116620000b35760405162461bcd60e51b815260206004820152602e60248201527f5072697a6553706c697453747261746567792f7072697a652d706f6f6c2d6e6f60448201526d742d7a65726f2d6164647265737360901b606482015260840160405180910390fd5b600380546001600160a01b0319166001600160a01b03929092169190911790555062000182565b600080546001600160a01b038381166001600160a01b0319831681178455604051919092169283917f8be0079c531659141344cd1fd0a4f28419497f9722a3daafe3b4186f6b6457e09190a35050565b600080604083850312156200013e57600080fd5b82516200014b8162000169565b60208401519092506200015e8162000169565b809150509250929050565b6001600160a01b03811681146200017f57600080fd5b50565b6112f080620001926000396000f3fe608060405234801561001057600080fd5b50600436106100c95760003560e01c80638d5f10c411610081578063e4fc6b6d1161005b578063e4fc6b6d1461016d578063eefc8ad114610183578063f2fde38b146101a357600080fd5b80638d5f10c4146101365780638da5cb5b1461014b578063e30c39781461015c57600080fd5b80634e71e0c8116100b25780634e71e0c8146100f6578063715018a6146100fe578063719ce73e1461010657600080fd5b8063056ea84f146100ce578063063a2298146100e3575b600080fd5b6100e16100dc3660046110bd565b6101b6565b005b6100e16100f136600461100f565b610465565b6100e1610870565b6100e16108fe565b600354610119906001600160a01b031681565b6040516001600160a01b0390911681526020015b60405180910390f35b61013e610973565b60405161012d919061112d565b6000546001600160a01b0316610119565b6001546001600160a01b0316610119565b6101756109ea565b60405190815260200161012d565b6101966101913660046110fb565b610ab9565b60405161012d9190611191565b6100e16101b1366004610feb565b610b1c565b336101c96000546001600160a01b031690565b6001600160a01b0316146102245760405162461bcd60e51b815260206004820152601860248201527f4f776e61626c652f63616c6c65722d6e6f742d6f776e6572000000000000000060448201526064015b60405180910390fd5b60025460ff82161061029e5760405162461bcd60e51b815260206004820152602160248201527f5072697a6553706c69742f6e6f6e6578697374656e742d7072697a6573706c6960448201527f7400000000000000000000000000000000000000000000000000000000000000606482015260840161021b565b81516001600160a01b031661031a5760405162461bcd60e51b8152602060048201526024808201527f5072697a6553706c69742f696e76616c69642d7072697a6573706c69742d746160448201527f7267657400000000000000000000000000000000000000000000000000000000606482015260840161021b565b8160028260ff16815481106103315761033161128c565b60009182526020808320845192018054949091015161ffff16600160a01b0275ffffffffffffffffffffffffffffffffffffffffffff199094166001600160a01b039092169190911792909217909155610389610c58565b90506103e88111156104035760405162461bcd60e51b815260206004820152602e60248201527f5072697a6553706c69742f696e76616c69642d7072697a6573706c69742d706560448201527f7263656e746167652d746f74616c000000000000000000000000000000000000606482015260840161021b565b82600001516001600160a01b03167f0865d776fd684728838c688d6a6a82888f61c57a4032c8c320c24949317b9a3484602001518460405161045892919061ffff92909216825260ff16602082015260400190565b60405180910390a2505050565b336104786000546001600160a01b031690565b6001600160a01b0316146104ce5760405162461bcd60e51b815260206004820152601860248201527f4f776e61626c652f63616c6c65722d6e6f742d6f776e65720000000000000000604482015260640161021b565b8060005b818110156107535760008484838181106104ee576104ee61128c565b90506040020180360381019061050491906110a1565b80519091506001600160a01b03166105835760405162461bcd60e51b8152602060048201526024808201527f5072697a6553706c69742f696e76616c69642d7072697a6573706c69742d746160448201527f7267657400000000000000000000000000000000000000000000000000000000606482015260840161021b565b6002548210610608576002805460018101825560009190915281517f405787fa12a823e0f2b7631cc41b3ba8828b3321ca811111fa75cd3aa3bb5ace9091018054602084015161ffff16600160a01b0275ffffffffffffffffffffffffffffffffffffffffffff199091166001600160a01b03909316929092179190911790556106ee565b60006002838154811061061d5761061d61128c565b6000918252602091829020604080518082019091529101546001600160a01b03808216808452600160a01b90920461ffff16938301939093528451919350911614158061067a5750806020015161ffff16826020015161ffff1614155b156106e55781600284815481106106935761069361128c565b6000918252602091829020835191018054939092015161ffff16600160a01b0275ffffffffffffffffffffffffffffffffffffffffffff199093166001600160a01b03909116179190911790556106ec565b5050610741565b505b80516020808301516040805161ffff90921682529181018590526001600160a01b03909216917f0865d776fd684728838c688d6a6a82888f61c57a4032c8c320c24949317b9a34910160405180910390a2505b8061074b81611225565b9150506104d2565b505b6002548110156107e6576002546000906107719060019061120e565b9050600280548061078457610784611276565b6000828152602081208201600019908101805475ffffffffffffffffffffffffffffffffffffffffffff1916905590910190915560405182917f99fa473fdf53414bcd014cf6e7509fc58c68f7b86174767faa6ad5100cd5bae591a250610755565b60006107f0610c58565b90506103e881111561086a5760405162461bcd60e51b815260206004820152602e60248201527f5072697a6553706c69742f696e76616c69642d7072697a6573706c69742d706560448201527f7263656e746167652d746f74616c000000000000000000000000000000000000606482015260840161021b565b50505050565b6001546001600160a01b031633146108ca5760405162461bcd60e51b815260206004820152601f60248201527f4f776e61626c652f63616c6c65722d6e6f742d70656e64696e674f776e657200604482015260640161021b565b6001546108df906001600160a01b0316610ce4565b6001805473ffffffffffffffffffffffffffffffffffffffff19169055565b336109116000546001600160a01b031690565b6001600160a01b0316146109675760405162461bcd60e51b815260206004820152601860248201527f4f776e61626c652f63616c6c65722d6e6f742d6f776e65720000000000000000604482015260640161021b565b6109716000610ce4565b565b60606002805480602002602001604051908101604052809291908181526020016000905b828210156109e157600084815260209081902060408051808201909152908401546001600160a01b0381168252600160a01b900461ffff1681830152825260019092019101610997565b50505050905090565b600080600360009054906101000a90046001600160a01b03166001600160a01b031663e6d8a94b6040518163ffffffff1660e01b8152600401602060405180830381600087803b158015610a3d57600080fd5b505af1158015610a51573d6000803e3d6000fd5b505050506040513d601f19601f82011682018060405250810190610a759190611114565b9050610a8081610d41565b506040518181527fddc9c30275a04c48091f24199f9c405765de34d979d6847f5b9798a57232d2e59060200160405180910390a1919050565b604080518082019091526000808252602082015260028281548110610ae057610ae061128c565b6000918252602091829020604080518082019091529101546001600160a01b0381168252600160a01b900461ffff169181019190915292915050565b33610b2f6000546001600160a01b031690565b6001600160a01b031614610b855760405162461bcd60e51b815260206004820152601860248201527f4f776e61626c652f63616c6c65722d6e6f742d6f776e65720000000000000000604482015260640161021b565b6001600160a01b038116610c015760405162461bcd60e51b815260206004820152602560248201527f4f776e61626c652f70656e64696e674f776e65722d6e6f742d7a65726f2d616460448201527f6472657373000000000000000000000000000000000000000000000000000000606482015260840161021b565b6001805473ffffffffffffffffffffffffffffffffffffffff19166001600160a01b0383169081179091556040517f239a2ddded15777fa246aed5f7e1a9bc69a39d4eb4a397034d1d85766cca7d4c90600090a250565b6002546000908190815b818160ff161015610cdc57600060028260ff1681548110610c8557610c8561128c565b6000918252602091829020604080518082019091529101546001600160a01b0381168252600160a01b900461ffff169181018290529150610cc690856111b5565b9350508080610cd490611240565b915050610c62565b509092915050565b600080546001600160a01b0383811673ffffffffffffffffffffffffffffffffffffffff19831681178455604051919092169283917f8be0079c531659141344cd1fd0a4f28419497f9722a3daafe3b4186f6b6457e09190a35050565b6002546000908290825b81811015610ddb57600060028281548110610d6857610d6861128c565b60009182526020808320604080518082019091529201546001600160a01b0381168352600160a01b900461ffff16908201819052909250610daa908690610de4565b9050610dba826000015182610e0a565b610dc4818861120e565b965050508080610dd390611225565b915050610d4b565b50929392505050565b60006103e8610df761ffff8416856111ef565b610e0191906111cd565b90505b92915050565b600354604080517f6cc25db700000000000000000000000000000000000000000000000000000000815290516000926001600160a01b031691636cc25db7916004808301926020929190829003018186803b158015610e6857600080fd5b505afa158015610e7c573d6000803e3d6000fd5b505050506040513d601f19601f82011682018060405250810190610ea09190611084565b6003546040517f5d8a776e0000000000000000000000000000000000000000000000000000000081526001600160a01b03868116600483015260248201869052929350911690635d8a776e90604401600060405180830381600087803b158015610f0957600080fd5b505af1158015610f1d573d6000803e3d6000fd5b50505050806001600160a01b0316836001600160a01b03167f40b9722744d0ba62d8b847077d65a712335b6769aa37fff7ad7852ec299222a784604051610f6691815260200190565b60405180910390a3505050565b600060408284031215610f8557600080fd5b6040516040810181811067ffffffffffffffff82111715610fb657634e487b7160e01b600052604160045260246000fd5b6040529050808235610fc7816112a2565b8152602083013561ffff81168114610fde57600080fd5b6020919091015292915050565b600060208284031215610ffd57600080fd5b8135611008816112a2565b9392505050565b6000806020838503121561102257600080fd5b823567ffffffffffffffff8082111561103a57600080fd5b818501915085601f83011261104e57600080fd5b81358181111561105d57600080fd5b8660208260061b850101111561107257600080fd5b60209290920196919550909350505050565b60006020828403121561109657600080fd5b8151611008816112a2565b6000604082840312156110b357600080fd5b610e018383610f73565b600080606083850312156110d057600080fd5b6110da8484610f73565b9150604083013560ff811681146110f057600080fd5b809150509250929050565b60006020828403121561110d57600080fd5b5035919050565b60006020828403121561112657600080fd5b5051919050565b602080825282518282018190526000919060409081850190868401855b828110156111845761117484835180516001600160a01b0316825260209081015161ffff16910152565b928401929085019060010161114a565b5091979650505050505050565b81516001600160a01b0316815260208083015161ffff169082015260408101610e04565b600082198211156111c8576111c8611260565b500190565b6000826111ea57634e487b7160e01b600052601260045260246000fd5b500490565b600081600019048311821515161561120957611209611260565b500290565b60008282101561122057611220611260565b500390565b600060001982141561123957611239611260565b5060010190565b600060ff821660ff81141561125757611257611260565b60010192915050565b634e487b7160e01b600052601160045260246000fd5b634e487b7160e01b600052603160045260246000fd5b634e487b7160e01b600052603260045260246000fd5b6001600160a01b03811681146112b757600080fd5b5056fea264697066735822122047622618c8129f1fdf9f69ee63b3ccdfbb9172623be2842656c19a3d5eda33c964736f6c63430008060033",
  "devdoc": {
    "author": "PoolTogether Inc Team",
    "events": {
      "Distributed(uint256)": {
        "params": {
          "totalPrizeCaptured": "Total prize captured from the PrizePool"
        }
      },
      "PrizeSplitAwarded(address,uint256,address)": {
        "params": {
          "prizeAwarded": "Awarded prize amount",
          "token": "Token address",
          "user": "User address being awarded"
        }
      }
    },
    "kind": "dev",
    "methods": {
      "claimOwnership()": {
        "details": "This function is only callable by the `_pendingOwner`."
      },
      "constructor": {
        "params": {
          "_owner": "Address of the PrizeSplitStrategy owner",
          "_prizePool": "PrizePool contract address"
        }
      },
      "distribute()": {
        "details": "Can be executed by any wallet at any time. Optimal executation (minimal wasted gas) is coordination when pushing Draw(s) to DrawHistory to cover upcoming prize distribution.",
        "returns": {
          "_0": "Prize captured from PrizePool"
        }
      },
      "pendingOwner()": {
        "returns": {
          "_0": "Current `_pendingOwner` address."
        }
      },
      "prizeSplit(uint256)": {
        "details": "Read PrizeSplitConfig struct from _prizeSplits array.",
        "params": {
          "prizeSplitIndex": "Index position of PrizeSplitConfig"
        },
        "returns": {
          "_0": "PrizeSplitConfig Single prize split config"
        }
      },
      "prizeSplits()": {
        "details": "Read all PrizeSplitConfig structs stored in _prizeSplits.",
        "returns": {
          "_0": "_prizeSplits Array of PrizeSplitConfig structs"
        }
      },
      "renounceOwnership()": {
        "details": "Leaves the contract without owner. It will not be possible to call `onlyOwner` functions anymore. Can only be called by the current owner. NOTE: Renouncing ownership will leave the contract without an owner, thereby removing any functionality that is only available to the owner."
      },
      "setPrizeSplit((address,uint16),uint8)": {
        "details": "Updates a prize split config by passing a new PrizeSplitConfig struct and current index position. Limited to contract owner.",
        "params": {
          "prizeSplitIndex": "Index position of PrizeSplitConfig to update",
          "prizeStrategySplit": "PrizeSplitConfig config struct"
        }
      },
      "setPrizeSplits((address,uint16)[])": {
        "details": "Set and remove prize split configs by passing a new PrizeSplitConfig structs array. Will remove existing PrizeSplitConfig(s) if passed array length is less than existing _prizeSplits length.",
        "params": {
          "newPrizeSplits": "Array of PrizeSplitConfig structs"
        }
      },
      "transferOwnership(address)": {
        "params": {
          "_newOwner": "Address to transfer ownership to."
        }
      }
    },
    "title": "PoolTogether V4 PrizeSplitStrategy",
    "version": 1
  },
  "userdoc": {
    "events": {
      "Distributed(uint256)": {
        "notice": "Emit when a strategy captures award amount from PrizePool."
      },
      "PrizeSplitAwarded(address,uint256,address)": {
        "notice": "Emit when an individual prize split is awarded."
      },
      "PrizeSplitRemoved(uint256)": {
        "notice": "Emitted when a PrizeSplitConfig config is removed."
      },
      "PrizeSplitSet(address,uint16,uint256)": {
        "notice": "Emitted when a PrizeSplitConfig config is added or updated."
      }
    },
    "kind": "user",
    "methods": {
      "claimOwnership()": {
        "notice": "Allows the `_pendingOwner` address to finalize the transfer."
      },
      "constructor": {
        "notice": "Deploy the PrizeSplitStrategy smart contract."
      },
      "distribute()": {
        "notice": "Capture the award balance and distribute to prize splits."
      },
      "owner()": {
        "notice": "Returns the address of the current owner."
      },
      "pendingOwner()": {
        "notice": "Gets current `_pendingOwner`."
      },
      "prizePool()": {
        "notice": "PrizePool address"
      },
      "prizeSplit(uint256)": {
        "notice": "Read prize split config from active PrizeSplits."
      },
      "prizeSplits()": {
        "notice": "Read all prize splits configs."
      },
      "renounceOwnership()": {
        "notice": "Renounce ownership of the contract."
      },
      "setPrizeSplit((address,uint16),uint8)": {
        "notice": "Updates a previously set prize split config."
      },
      "setPrizeSplits((address,uint16)[])": {
        "notice": "Set and remove prize split(s) configs."
      },
      "transferOwnership(address)": {
        "notice": "Allows current owner to set the `_pendingOwner` address."
      }
    },
    "notice": "Captures PrizePool interest for PrizeReserve and additional PrizeSplit recipients. The PrizeSplitStrategy will have at minimum a single PrizeSplit with 100% of the captured interest transfered to the PrizeReserve. Additional PrizeSplits can be added, depending on the deployers requirements (i.e. percentage to charity). In contrast to previous PoolTogether iterations, interest can be captured independent of a new Draw. Ideally (to save gas) interest is only captured when also distributing the captured prize(s) to applicable ClaimbableDraw(s).",
    "version": 1
  },
  "storageLayout": {
    "storage": [
      {
        "astId": 3466,
        "contract": "@pooltogether/v4-core/contracts/PrizeSplitStrategy.sol:PrizeSplitStrategy",
        "label": "_owner",
        "offset": 0,
        "slot": "0",
        "type": "t_address"
      },
      {
        "astId": 3468,
        "contract": "@pooltogether/v4-core/contracts/PrizeSplitStrategy.sol:PrizeSplitStrategy",
        "label": "_pendingOwner",
        "offset": 0,
        "slot": "1",
        "type": "t_address"
      },
      {
        "astId": 12492,
        "contract": "@pooltogether/v4-core/contracts/PrizeSplitStrategy.sol:PrizeSplitStrategy",
        "label": "_prizeSplits",
        "offset": 0,
        "slot": "2",
        "type": "t_array(t_struct(PrizeSplitConfig)12497_storage)dyn_storage"
      },
      {
        "astId": 5620,
        "contract": "@pooltogether/v4-core/contracts/PrizeSplitStrategy.sol:PrizeSplitStrategy",
        "label": "prizePool",
        "offset": 0,
        "slot": "3",
        "type": "t_contract(IPrizePool)9571"
      }
    ],
    "types": {
      "t_address": {
        "encoding": "inplace",
        "label": "address",
        "numberOfBytes": "20"
      },
      "t_array(t_struct(PrizeSplitConfig)12497_storage)dyn_storage": {
        "base": "t_struct(PrizeSplitConfig)12497_storage",
        "encoding": "dynamic_array",
        "label": "struct PrizeSplit.PrizeSplitConfig[]",
        "numberOfBytes": "32"
      },
      "t_contract(IPrizePool)9571": {
        "encoding": "inplace",
        "label": "contract IPrizePool",
        "numberOfBytes": "20"
      },
      "t_struct(PrizeSplitConfig)12497_storage": {
        "encoding": "inplace",
        "label": "struct PrizeSplit.PrizeSplitConfig",
        "members": [
          {
            "astId": 12494,
            "contract": "@pooltogether/v4-core/contracts/PrizeSplitStrategy.sol:PrizeSplitStrategy",
            "label": "target",
            "offset": 0,
            "slot": "0",
            "type": "t_address"
          },
          {
            "astId": 12496,
            "contract": "@pooltogether/v4-core/contracts/PrizeSplitStrategy.sol:PrizeSplitStrategy",
            "label": "percentage",
            "offset": 20,
            "slot": "0",
            "type": "t_uint16"
          }
        ],
        "numberOfBytes": "32"
      },
      "t_uint16": {
        "encoding": "inplace",
        "label": "uint16",
        "numberOfBytes": "2"
      }
    }
  }
}