{
  "address": "0x1151650Fa47268308Ff944757bD6fBFa14815fE8",
  "abi": [
    {
      "inputs": [
        {
          "internalType": "string",
          "name": "_name",
          "type": "string"
        },
        {
          "internalType": "string",
          "name": "_symbol",
          "type": "string"
        },
        {
          "internalType": "uint8",
          "name": "decimals_",
          "type": "uint8"
        },
        {
          "internalType": "address",
          "name": "_controller",
          "type": "address"
        }
      ],
      "stateMutability": "nonpayable",
      "type": "constructor"
    },
    {
      "anonymous": false,
      "inputs": [
        {
          "indexed": true,
          "internalType": "address",
          "name": "owner",
          "type": "address"
        },
        {
          "indexed": true,
          "internalType": "address",
          "name": "spender",
          "type": "address"
        },
        {
          "indexed": false,
          "internalType": "uint256",
          "name": "value",
          "type": "uint256"
        }
      ],
      "name": "Approval",
      "type": "event"
    },
    {
      "anonymous": false,
      "inputs": [
        {
          "indexed": true,
          "internalType": "address",
          "name": "user",
          "type": "address"
        },
        {
          "indexed": true,
          "internalType": "address",
          "name": "delegate",
          "type": "address"
        }
      ],
      "name": "Delegated",
      "type": "event"
    },
    {
      "anonymous": false,
      "inputs": [
        {
          "indexed": false,
          "internalType": "string",
          "name": "name",
          "type": "string"
        },
        {
          "indexed": false,
          "internalType": "string",
          "name": "symbol",
          "type": "string"
        },
        {
          "indexed": false,
          "internalType": "uint8",
          "name": "decimals",
          "type": "uint8"
        },
        {
          "indexed": false,
          "internalType": "address",
          "name": "controller",
          "type": "address"
        }
      ],
      "name": "Deployed",
      "type": "event"
    },
    {
      "anonymous": false,
      "inputs": [
        {
          "components": [
            {
              "internalType": "uint224",
              "name": "amount",
              "type": "uint224"
            },
            {
              "internalType": "uint32",
              "name": "timestamp",
              "type": "uint32"
            }
          ],
          "indexed": false,
          "internalType": "struct ObservationLib.Observation",
          "name": "newTotalSupplyTwab",
          "type": "tuple"
        }
      ],
      "name": "NewTotalSupplyTwab",
      "type": "event"
    },
    {
      "anonymous": false,
      "inputs": [
        {
          "indexed": true,
          "internalType": "address",
          "name": "ticketHolder",
          "type": "address"
        },
        {
          "indexed": true,
          "internalType": "address",
          "name": "user",
          "type": "address"
        },
        {
          "components": [
            {
              "internalType": "uint224",
              "name": "amount",
              "type": "uint224"
            },
            {
              "internalType": "uint32",
              "name": "timestamp",
              "type": "uint32"
            }
          ],
          "indexed": false,
          "internalType": "struct ObservationLib.Observation",
          "name": "newTwab",
          "type": "tuple"
        }
      ],
      "name": "NewUserTwab",
      "type": "event"
    },
    {
      "anonymous": false,
      "inputs": [
        {
          "indexed": false,
          "internalType": "string",
          "name": "name",
          "type": "string"
        },
        {
          "indexed": false,
          "internalType": "string",
          "name": "symbol",
          "type": "string"
        },
        {
          "indexed": false,
          "internalType": "uint8",
          "name": "decimals",
          "type": "uint8"
        },
        {
          "indexed": false,
          "internalType": "address",
          "name": "controller",
          "type": "address"
        }
      ],
      "name": "TicketInitialized",
      "type": "event"
    },
    {
      "anonymous": false,
      "inputs": [
        {
          "indexed": true,
          "internalType": "address",
          "name": "from",
          "type": "address"
        },
        {
          "indexed": true,
          "internalType": "address",
          "name": "to",
          "type": "address"
        },
        {
          "indexed": false,
          "internalType": "uint256",
          "name": "value",
          "type": "uint256"
        }
      ],
      "name": "Transfer",
      "type": "event"
    },
    {
      "inputs": [],
      "name": "DOMAIN_SEPARATOR",
      "outputs": [
        {
          "internalType": "bytes32",
          "name": "",
          "type": "bytes32"
        }
      ],
      "stateMutability": "view",
      "type": "function"
    },
    {
      "inputs": [],
      "name": "MAX_CARDINALITY",
      "outputs": [
        {
          "internalType": "uint16",
          "name": "",
          "type": "uint16"
        }
      ],
      "stateMutability": "view",
      "type": "function"
    },
    {
      "inputs": [],
      "name": "TWAB_TIME_TO_LIVE",
      "outputs": [
        {
          "internalType": "uint32",
          "name": "",
          "type": "uint32"
        }
      ],
      "stateMutability": "view",
      "type": "function"
    },
    {
      "inputs": [
        {
          "internalType": "address",
          "name": "owner",
          "type": "address"
        },
        {
          "internalType": "address",
          "name": "spender",
          "type": "address"
        }
      ],
      "name": "allowance",
      "outputs": [
        {
          "internalType": "uint256",
          "name": "",
          "type": "uint256"
        }
      ],
      "stateMutability": "view",
      "type": "function"
    },
    {
      "inputs": [
        {
          "internalType": "address",
          "name": "spender",
          "type": "address"
        },
        {
          "internalType": "uint256",
          "name": "amount",
          "type": "uint256"
        }
      ],
      "name": "approve",
      "outputs": [
        {
          "internalType": "bool",
          "name": "",
          "type": "bool"
        }
      ],
      "stateMutability": "nonpayable",
      "type": "function"
    },
    {
      "inputs": [
        {
          "internalType": "address",
          "name": "_user",
          "type": "address"
        }
      ],
      "name": "balanceOf",
      "outputs": [
        {
          "internalType": "uint256",
          "name": "",
          "type": "uint256"
        }
      ],
      "stateMutability": "view",
      "type": "function"
    },
    {
      "inputs": [],
      "name": "controller",
      "outputs": [
        {
          "internalType": "address",
          "name": "",
          "type": "address"
        }
      ],
      "stateMutability": "view",
      "type": "function"
    },
    {
      "inputs": [
        {
          "internalType": "address",
          "name": "_user",
          "type": "address"
        },
        {
          "internalType": "uint256",
          "name": "_amount",
          "type": "uint256"
        }
      ],
      "name": "controllerBurn",
      "outputs": [],
      "stateMutability": "nonpayable",
      "type": "function"
    },
    {
      "inputs": [
        {
          "internalType": "address",
          "name": "_operator",
          "type": "address"
        },
        {
          "internalType": "address",
          "name": "_user",
          "type": "address"
        },
        {
          "internalType": "uint256",
          "name": "_amount",
          "type": "uint256"
        }
      ],
      "name": "controllerBurnFrom",
      "outputs": [],
      "stateMutability": "nonpayable",
      "type": "function"
    },
    {
      "inputs": [
        {
          "internalType": "address",
          "name": "_user",
          "type": "address"
        },
        {
          "internalType": "uint256",
          "name": "_amount",
          "type": "uint256"
        }
      ],
      "name": "controllerMint",
      "outputs": [],
      "stateMutability": "nonpayable",
      "type": "function"
    },
    {
      "inputs": [],
      "name": "decimals",
      "outputs": [
        {
          "internalType": "uint8",
          "name": "",
          "type": "uint8"
        }
      ],
      "stateMutability": "view",
      "type": "function"
    },
    {
      "inputs": [
        {
          "internalType": "address",
          "name": "spender",
          "type": "address"
        },
        {
          "internalType": "uint256",
          "name": "subtractedValue",
          "type": "uint256"
        }
      ],
      "name": "decreaseAllowance",
      "outputs": [
        {
          "internalType": "bool",
          "name": "",
          "type": "bool"
        }
      ],
      "stateMutability": "nonpayable",
      "type": "function"
    },
    {
      "inputs": [
        {
          "internalType": "address",
          "name": "to",
          "type": "address"
        }
      ],
      "name": "delegate",
      "outputs": [],
      "stateMutability": "nonpayable",
      "type": "function"
    },
    {
      "inputs": [
        {
          "internalType": "address",
          "name": "_user",
          "type": "address"
        }
      ],
      "name": "delegateOf",
      "outputs": [
        {
          "internalType": "address",
          "name": "",
          "type": "address"
        }
      ],
      "stateMutability": "view",
      "type": "function"
    },
    {
      "inputs": [
        {
          "internalType": "address",
          "name": "_user",
          "type": "address"
        }
      ],
      "name": "getAccountDetails",
      "outputs": [
        {
          "components": [
            {
              "internalType": "uint208",
              "name": "balance",
              "type": "uint208"
            },
            {
              "internalType": "uint24",
              "name": "nextTwabIndex",
              "type": "uint24"
            },
            {
              "internalType": "uint24",
              "name": "cardinality",
              "type": "uint24"
            }
          ],
          "internalType": "struct TwabLib.AccountDetails",
          "name": "",
          "type": "tuple"
        }
      ],
      "stateMutability": "view",
      "type": "function"
    },
    {
      "inputs": [
        {
          "internalType": "address",
          "name": "_user",
          "type": "address"
        },
        {
          "internalType": "uint256",
          "name": "_startTime",
          "type": "uint256"
        },
        {
          "internalType": "uint256",
          "name": "_endTime",
          "type": "uint256"
        }
      ],
      "name": "getAverageBalanceBetween",
      "outputs": [
        {
          "internalType": "uint256",
          "name": "",
          "type": "uint256"
        }
      ],
      "stateMutability": "view",
      "type": "function"
    },
    {
      "inputs": [
        {
          "internalType": "address",
          "name": "user",
          "type": "address"
        },
        {
          "internalType": "uint32[]",
          "name": "startTimes",
          "type": "uint32[]"
        },
        {
          "internalType": "uint32[]",
          "name": "endTimes",
          "type": "uint32[]"
        }
      ],
      "name": "getAverageBalancesBetween",
      "outputs": [
        {
          "internalType": "uint256[]",
          "name": "",
          "type": "uint256[]"
        }
      ],
      "stateMutability": "view",
      "type": "function"
    },
    {
      "inputs": [
        {
          "internalType": "uint32[]",
          "name": "startTimes",
          "type": "uint32[]"
        },
        {
          "internalType": "uint32[]",
          "name": "endTimes",
          "type": "uint32[]"
        }
      ],
      "name": "getAverageTotalSuppliesBetween",
      "outputs": [
        {
          "internalType": "uint256[]",
          "name": "",
          "type": "uint256[]"
        }
      ],
      "stateMutability": "view",
      "type": "function"
    },
    {
      "inputs": [
        {
          "internalType": "address",
          "name": "_user",
          "type": "address"
        },
        {
          "internalType": "uint256",
          "name": "_target",
          "type": "uint256"
        }
      ],
      "name": "getBalanceAt",
      "outputs": [
        {
          "internalType": "uint256",
          "name": "",
          "type": "uint256"
        }
      ],
      "stateMutability": "view",
      "type": "function"
    },
    {
      "inputs": [
        {
          "internalType": "address",
          "name": "_user",
          "type": "address"
        },
        {
          "internalType": "uint32[]",
          "name": "_targets",
          "type": "uint32[]"
        }
      ],
      "name": "getBalancesAt",
      "outputs": [
        {
          "internalType": "uint256[]",
          "name": "",
          "type": "uint256[]"
        }
      ],
      "stateMutability": "view",
      "type": "function"
    },
    {
      "inputs": [
        {
          "internalType": "uint32[]",
          "name": "_targets",
          "type": "uint32[]"
        }
      ],
      "name": "getTotalSuppliesAt",
      "outputs": [
        {
          "internalType": "uint256[]",
          "name": "",
          "type": "uint256[]"
        }
      ],
      "stateMutability": "view",
      "type": "function"
    },
    {
      "inputs": [
        {
          "internalType": "uint32",
          "name": "_target",
          "type": "uint32"
        }
      ],
      "name": "getTotalSupplyAt",
      "outputs": [
        {
          "internalType": "uint256",
          "name": "",
          "type": "uint256"
        }
      ],
      "stateMutability": "view",
      "type": "function"
    },
    {
      "inputs": [
        {
          "internalType": "address",
          "name": "_user",
          "type": "address"
        },
        {
          "internalType": "uint16",
          "name": "_index",
          "type": "uint16"
        }
      ],
      "name": "getTwab",
      "outputs": [
        {
          "components": [
            {
              "internalType": "uint224",
              "name": "amount",
              "type": "uint224"
            },
            {
              "internalType": "uint32",
              "name": "timestamp",
              "type": "uint32"
            }
          ],
          "internalType": "struct ObservationLib.Observation",
          "name": "",
          "type": "tuple"
        }
      ],
      "stateMutability": "view",
      "type": "function"
    },
    {
      "inputs": [
        {
          "internalType": "address",
          "name": "spender",
          "type": "address"
        },
        {
          "internalType": "uint256",
          "name": "addedValue",
          "type": "uint256"
        }
      ],
      "name": "increaseAllowance",
      "outputs": [
        {
          "internalType": "bool",
          "name": "",
          "type": "bool"
        }
      ],
      "stateMutability": "nonpayable",
      "type": "function"
    },
    {
      "inputs": [],
      "name": "name",
      "outputs": [
        {
          "internalType": "string",
          "name": "",
          "type": "string"
        }
      ],
      "stateMutability": "view",
      "type": "function"
    },
    {
      "inputs": [
        {
          "internalType": "address",
          "name": "owner",
          "type": "address"
        }
      ],
      "name": "nonces",
      "outputs": [
        {
          "internalType": "uint256",
          "name": "",
          "type": "uint256"
        }
      ],
      "stateMutability": "view",
      "type": "function"
    },
    {
      "inputs": [
        {
          "internalType": "address",
          "name": "owner",
          "type": "address"
        },
        {
          "internalType": "address",
          "name": "spender",
          "type": "address"
        },
        {
          "internalType": "uint256",
          "name": "value",
          "type": "uint256"
        },
        {
          "internalType": "uint256",
          "name": "deadline",
          "type": "uint256"
        },
        {
          "internalType": "uint8",
          "name": "v",
          "type": "uint8"
        },
        {
          "internalType": "bytes32",
          "name": "r",
          "type": "bytes32"
        },
        {
          "internalType": "bytes32",
          "name": "s",
          "type": "bytes32"
        }
      ],
      "name": "permit",
      "outputs": [],
      "stateMutability": "nonpayable",
      "type": "function"
    },
    {
      "inputs": [],
      "name": "symbol",
      "outputs": [
        {
          "internalType": "string",
          "name": "",
          "type": "string"
        }
      ],
      "stateMutability": "view",
      "type": "function"
    },
    {
      "inputs": [],
      "name": "totalSupply",
      "outputs": [
        {
          "internalType": "uint256",
          "name": "",
          "type": "uint256"
        }
      ],
      "stateMutability": "view",
      "type": "function"
    },
    {
      "inputs": [
        {
          "internalType": "address",
          "name": "recipient",
          "type": "address"
        },
        {
          "internalType": "uint256",
          "name": "amount",
          "type": "uint256"
        }
      ],
      "name": "transfer",
      "outputs": [
        {
          "internalType": "bool",
          "name": "",
          "type": "bool"
        }
      ],
      "stateMutability": "nonpayable",
      "type": "function"
    },
    {
      "inputs": [
        {
          "internalType": "address",
          "name": "sender",
          "type": "address"
        },
        {
          "internalType": "address",
          "name": "recipient",
          "type": "address"
        },
        {
          "internalType": "uint256",
          "name": "amount",
          "type": "uint256"
        }
      ],
      "name": "transferFrom",
      "outputs": [
        {
          "internalType": "bool",
          "name": "",
          "type": "bool"
        }
      ],
      "stateMutability": "nonpayable",
      "type": "function"
    }
  ],
  "transactionHash": "0xd077e7281b6583a0265f95c5a65e46f9ec8e5d29d6a82902d171817660aee082",
  "args": [
    "Ticket",
    "TICK",
    18,
    "0x7902159116c98Fc26730ea2FFc952502402E7A11"
  ],
  "solcInputHash": "9708f009c357312991df75253b2932ee",
  "bytecode": "0x6101606040527f6e71edae12b1b97f4d1f60370fef10105fa2faae0126114a169c64845d6126c9610120523480156200003757600080fd5b5060405162003da438038062003da48339810160408190526200005a91620003f9565b838383836040518060400160405280601c81526020017f506f6f6c546f67657468657220436f6e74726f6c6c6564546f6b656e0000000081525080604051806040016040528060018152602001603160f81b81525086868160039080519060200190620000c9929190620002c2565b508051620000df906004906020840190620002c2565b5050825160209384012082519284019290922060c083815260e08290524660a0818152604080517f8b73c3c69bb8fe3d512ecc4cf759cc79239f7b179b0ffacaa9a75d522b39400f818a018190528183019890985260608101959095526080808601939093523085830152805180860390920182529390920190925280519401939093209092526101005250506001600160a01b038116620001dc5760405162461bcd60e51b815260206004820152602b60248201527f436f6e74726f6c6c6564546f6b656e2f636f6e74726f6c6c65722d6e6f742d7a60448201526a65726f2d6164647265737360a81b60648201526084015b60405180910390fd5b600680546001600160a01b0319166001600160a01b03831617905560ff8216620002495760405162461bcd60e51b815260206004820181905260248201527f436f6e74726f6c6c6564546f6b656e2f646563696d616c732d67742d7a65726f6044820152606401620001d3565b7fff0000000000000000000000000000000000000000000000000000000000000060f883901b16610140526040517fde72fc29218361f33503847e6f32be813f9ec92fc7c772bb59e46675c890fd0e90620002ac908690869086908690620004cb565b60405180910390a150505050505050506200059f565b828054620002d0906200054c565b90600052602060002090601f016020900481019282620002f457600085556200033f565b82601f106200030f57805160ff19168380011785556200033f565b828001600101855582156200033f579182015b828111156200033f57825182559160200191906001019062000322565b506200034d92915062000351565b5090565b5b808211156200034d576000815560010162000352565b600082601f8301126200037a57600080fd5b81516001600160401b038082111562000397576200039762000589565b604051601f8301601f19908116603f01168101908282118183101715620003c257620003c262000589565b81604052838152866020858801011115620003dc57600080fd5b620003ef84602083016020890162000519565b9695505050505050565b600080600080608085870312156200041057600080fd5b84516001600160401b03808211156200042857600080fd5b620004368883890162000368565b955060208701519150808211156200044d57600080fd5b506200045c8782880162000368565b935050604085015160ff811681146200047457600080fd5b60608601519092506001600160a01b03811681146200049257600080fd5b939692955090935050565b60008151808452620004b781602086016020860162000519565b601f01601f19169290920160200192915050565b608081526000620004e060808301876200049d565b8281036020840152620004f481876200049d565b60ff95909516604084015250506001600160a01b039190911660609091015292915050565b60005b83811015620005365781810151838201526020016200051c565b8381111562000546576000848401525b50505050565b600181811c908216806200056157607f821691505b602082108114156200058357634e487b7160e01b600052602260045260246000fd5b50919050565b634e487b7160e01b600052604160045260246000fd5b60805160a05160c05160e05161010051610120516101405160f81c6137a7620005fd600039600061033701526000610e6701526000611511015260006115600152600061153b015260006114bf015260006114e801526137a76000f3fe608060405234801561001057600080fd5b50600436106101e55760003560e01c8063631b5dfb1161010f57806390596dd1116100a2578063d505accf11610071578063d505accf14610536578063dd62ed3e14610549578063f77c479114610582578063f95946e31461059557600080fd5b806390596dd1146104f557806395d89b4114610508578063a457c2d714610510578063a9059cbb1461052357600080fd5b80637ecebe00116100de5780637ecebe001461046c5780638200d8731461047f5780638d22ea2a1461049b5780638f02fee4146104e257600080fd5b8063631b5dfb146104205780636cdd0be21461043357806370a08231146104465780637966cd671461045957600080fd5b8063313ce56711610187578063395093511161015657806339509351146103c5578063405e22ad146103d85780635c19a95c146103f85780635d7b07581461040d57600080fd5b8063313ce567146103305780633613f921146103615780633644e5151461038057806336bb2a381461038857600080fd5b806318160ddd116101c357806318160ddd1461024857806323b872dd1461025957806326ca8adb1461026c5780632aceb5341461027f57600080fd5b806301292efb146101ea57806306fdde0314610210578063095ea7b314610225575b600080fd5b6101fd6101f8366004613433565b6105a8565b6040519081526020015b60405180910390f35b6102186105fa565b604051610207919061349d565b610238610233366004613328565b61068c565b6040519015158152602001610207565b6008546001600160d01b03166101fd565b610238610267366004613167565b6106a2565b6101fd61027a366004613328565b610768565b6102f861028d366004613119565b6040805160608082018352600080835260208084018290529284018190526001600160a01b03949094168452600782529282902082519384018352546001600160d01b038116845262ffffff600160d01b8204811692850192909252600160e81b9004169082015290565b6040805182516001600160d01b0316815260208084015162ffffff908116918301919091529282015190921690820152606001610207565b60405160ff7f0000000000000000000000000000000000000000000000000000000000000000168152602001610207565b61036b62dd7c0081565b60405163ffffffff9091168152602001610207565b6101fd6107d7565b61039b6103963660046132ea565b6107e6565b6040805182516001600160e01b0316815260209283015163ffffffff169281019290925201610207565b6102386103d3366004613328565b61085e565b6103eb6103e6366004613216565b61089a565b6040516102079190613459565b61040b610406366004613119565b6109b6565b005b61040b61041b366004613328565b610ac4565b61040b61042e366004613167565b610b2c565b6103eb610441366004613269565b610bf0565b6101fd610454366004613119565b610c22565b6103eb6104673660046133c7565b610c43565b6101fd61047a366004613119565b610c5c565b61048861ffff81565b60405161ffff9091168152602001610207565b6104ca6104a9366004613119565b6001600160a01b039081166000908152630100000860205260409020541690565b6040516001600160a01b039091168152602001610207565b6101fd6104f0366004613352565b610c7a565b61040b610503366004613328565b610ce2565b610218610d46565b61023861051e366004613328565b610d55565b610238610531366004613328565b610e06565b61040b6105443660046131a3565b610e13565b6101fd610557366004613134565b6001600160a01b03918216600090815260016020908152604080832093909416825291909152205490565b6006546104ca906001600160a01b031681565b6103eb6105a3366004613385565b610f77565b604080516060810182526008546001600160d01b038116825262ffffff600160d01b820481166020840152600160e81b90910416918101919091526000906105f490600990844261105a565b92915050565b6060600380546106099061367d565b80601f01602080910402602001604051908101604052809291908181526020018280546106359061367d565b80156106825780601f1061065757610100808354040283529160200191610682565b820191906000526020600020905b81548152906001019060200180831161066557829003601f168201915b5050505050905090565b6000610699338484611086565b50600192915050565b60006106af8484846111de565b6001600160a01b03841660009081526001602090815260408083203384529091529020548281101561074e5760405162461bcd60e51b815260206004820152602860248201527f45524332303a207472616e7366657220616d6f756e742065786365656473206160448201527f6c6c6f77616e636500000000000000000000000000000000000000000000000060648201526084015b60405180910390fd5b61075b8533858403611086565b60019150505b9392505050565b6001600160a01b0382166000908152600760209081526040808320815160608101835281546001600160d01b038116825262ffffff600160d01b8204811695830195909552600160e81b900490931691830191909152906107cf906001830190854261105a565b949350505050565b60006107e16114bb565b905090565b60408051808201909152600080825260208201526001600160a01b038316600090815260076020526040902060010161ffff831662ffffff811061082c5761082c613723565b604080518082019091529101546001600160e01b0381168252600160e01b900463ffffffff1660208201529392505050565b3360008181526001602090815260408083206001600160a01b0387168452909152812054909161069991859061089590869061353b565b611086565b60608160008167ffffffffffffffff8111156108b8576108b8613739565b6040519080825280602002602001820160405280156108e1578160200160208202803683370190505b506001600160a01b0387166000908152600760209081526040808320815160608101835281546001600160d01b038116825262ffffff600160d01b8204811695830195909552600160e81b900490931691830191909152929350905b848110156109a95761097a83600101838a8a8581811061095f5761095f613723565b90506020020160208101906109749190613433565b4261105a565b84828151811061098c5761098c613723565b6020908102919091010152806109a1816136b2565b91505061093d565b5091979650505050505050565b336000908152630100000960209081526040808320546301000008909252909120546001600160a01b03168015610a00576109fb3382846001600160e01b03166115ae565b610a14565b610a143333846001600160e01b03166115ae565b6001600160a01b03831615610a3c57610a373384846001600160e01b03166116f2565b610a50565b610a503333846001600160e01b03166116f2565b3360008181526301000008602052604080822080547fffffffffffffffffffffffff0000000000000000000000000000000000000000166001600160a01b03881690811790915590519092917f4bc154dd35d6a5cb9206482ecb473cdbf2473006d6bce728b9cc0741bcc59ea291a3505050565b6006546001600160a01b03163314610b1e5760405162461bcd60e51b815260206004820152601f60248201527f436f6e74726f6c6c6564546f6b656e2f6f6e6c792d636f6e74726f6c6c6572006044820152606401610745565b610b28828261171c565b5050565b6006546001600160a01b03163314610b865760405162461bcd60e51b815260206004820152601f60248201527f436f6e74726f6c6c6564546f6b656e2f6f6e6c792d636f6e74726f6c6c6572006044820152606401610745565b816001600160a01b0316836001600160a01b031614610be1576001600160a01b038281166000908152600160209081526040808320938716835292905290812054610bd2908390613649565b9050610bdf838583611086565b505b610beb8282611947565b505050565b6001600160a01b0385166000908152600760205260409020606090610c189086868686611c33565b9695505050505050565b6001600160a01b0381166000908152630100000960205260408120546105f4565b6060610c53600886868686611c33565b95945050505050565b6001600160a01b0381166000908152600560205260408120546105f4565b6001600160a01b0383166000908152600760209081526040808320815160608101835281546001600160d01b038116825262ffffff600160d01b8204811695830195909552600160e81b90049093169183019190915290610c53906001830190868642611dcf565b6006546001600160a01b03163314610d3c5760405162461bcd60e51b815260206004820152601f60248201527f436f6e74726f6c6c6564546f6b656e2f6f6e6c792d636f6e74726f6c6c6572006044820152606401610745565b610b288282611947565b6060600480546106099061367d565b3360009081526001602090815260408083206001600160a01b038616845290915281205482811015610def5760405162461bcd60e51b815260206004820152602560248201527f45524332303a2064656372656173656420616c6c6f77616e63652062656c6f7760448201527f207a65726f0000000000000000000000000000000000000000000000000000006064820152608401610745565b610dfc3385858403611086565b5060019392505050565b60006106993384846111de565b83421115610e635760405162461bcd60e51b815260206004820152601d60248201527f45524332305065726d69743a206578706972656420646561646c696e650000006044820152606401610745565b60007f0000000000000000000000000000000000000000000000000000000000000000888888610e928c611e07565b6040805160208101969096526001600160a01b0394851690860152929091166060840152608083015260a082015260c0810186905260e0016040516020818303038152906040528051906020012090506000610eed82611e2f565b90506000610efd82878787611e98565b9050896001600160a01b0316816001600160a01b031614610f605760405162461bcd60e51b815260206004820152601e60248201527f45524332305065726d69743a20696e76616c6964207369676e617475726500006044820152606401610745565b610f6b8a8a8a611086565b50505050505050505050565b60608160008167ffffffffffffffff811115610f9557610f95613739565b604051908082528060200260200182016040528015610fbe578160200160208202803683370190505b50604080516060810182526008546001600160d01b038116825262ffffff600160d01b820481166020840152600160e81b909104169181019190915290915060005b8381101561104f5761102060098389898581811061095f5761095f613723565b83828151811061103257611032613723565b602090810291909101015280611047816136b2565b915050611000565b509095945050505050565b6000808263ffffffff168463ffffffff16116110765783611078565b825b9050610c1886868386611ec0565b6001600160a01b0383166111015760405162461bcd60e51b8152602060048201526024808201527f45524332303a20617070726f76652066726f6d20746865207a65726f2061646460448201527f72657373000000000000000000000000000000000000000000000000000000006064820152608401610745565b6001600160a01b03821661117d5760405162461bcd60e51b815260206004820152602260248201527f45524332303a20617070726f766520746f20746865207a65726f20616464726560448201527f73730000000000000000000000000000000000000000000000000000000000006064820152608401610745565b6001600160a01b0383811660008181526001602090815260408083209487168084529482529182902085905590518481527f8c5be1e5ebec7d5bd14f71427d1e84f3dd0314c0f7b2291e5b200ac8c7c3b925910160405180910390a3505050565b6001600160a01b03831661125a5760405162461bcd60e51b815260206004820152602560248201527f45524332303a207472616e736665722066726f6d20746865207a65726f20616460448201527f64726573730000000000000000000000000000000000000000000000000000006064820152608401610745565b6001600160a01b0382166112d65760405162461bcd60e51b815260206004820152602360248201527f45524332303a207472616e7366657220746f20746865207a65726f206164647260448201527f65737300000000000000000000000000000000000000000000000000000000006064820152608401610745565b80826001600160a01b0316846001600160a01b031614611468576001600160a01b0384166000908152630100000960205260409020546001600160e01b03821681101561138b5760405162461bcd60e51b815260206004820152602660248201527f45524332303a207472616e7366657220616d6f756e742065786365656473206260448201527f616c616e636500000000000000000000000000000000000000000000000000006064820152608401610745565b6001600160a01b038086166000908152630100000960205260408082206001600160e01b0386168086039091559287168252812080549091906113cf90849061353b565b90915550506001600160a01b03808616600090815263010000086020526040902054168015611408576114038682866115ae565b611413565b6114138687866115ae565b6001600160a01b038086166000908152630100000860205260409020541680156114505761144b8682866001600160e01b03166116f2565b611464565b6114648687866001600160e01b03166116f2565b5050505b826001600160a01b0316846001600160a01b03167fddf252ad1be2c89b69c2b068fc378daa952ba7f163c4a11628f55a4df523b3ef846040516114ad91815260200190565b60405180910390a350505050565b60007f000000000000000000000000000000000000000000000000000000000000000046141561150a57507f000000000000000000000000000000000000000000000000000000000000000090565b50604080517f00000000000000000000000000000000000000000000000000000000000000006020808301919091527f0000000000000000000000000000000000000000000000000000000000000000828401527f000000000000000000000000000000000000000000000000000000000000000060608301524660808301523060a0808401919091528351808403909101815260c0909201909252805191012090565b600060076000846001600160a01b03166001600160a01b031681526020019081526020016000209050600080600061160484866040518060600160405280602281526020016137506022913962dd7c0042611fdc565b82518754602085015160408601516001600160d01b039093167fffffff000000000000000000000000000000000000000000000000000000000090921691909117600160d01b62ffffff92831602177cffffffffffffffffffffffffffffffffffffffffffffffffffffffffff16600160e81b91909216021787559194509250905080156116e9576040805183516001600160e01b0316815260208085015163ffffffff16908201526001600160a01b0380891692908a16917f56bf5251c21af3be0462e65380f02036c247ea4203fda153f3a9c3e7f8f9318d910160405180910390a35b50505050505050565b6001600160a01b0382166000908152600760205260408120908080611604848662dd7c00426120c7565b6001600160a01b0382166117725760405162461bcd60e51b815260206004820152601f60248201527f45524332303a206d696e7420746f20746865207a65726f2061646472657373006044820152606401610745565b600061177d82612186565b90506001600160a01b038316600090815263010000096020526040812080546001600160e01b03841692906117b390849061353b565b909155506000905080806117d660086001600160e01b03861662dd7c00426120c7565b825160088054602086015160408701516001600160d01b039094167fffffff000000000000000000000000000000000000000000000000000000000090921691909117600160d01b62ffffff92831602177cffffffffffffffffffffffffffffffffffffffffffffffffffffffffff16600160e81b91909316029190911790559194509250905080156118b0576040805183516001600160e01b0316815260208085015163ffffffff16908201527f3375b905d617084fa6b7531688cc8046feb1f1a0b8ba2273de03c59d8d84416c910160405180910390a15b6001600160a01b038087166000908152630100000860205260409020541680156118ed576118e88782876001600160e01b03166116f2565b611901565b6119018788876001600160e01b03166116f2565b6040518681526001600160a01b038816906000907fddf252ad1be2c89b69c2b068fc378daa952ba7f163c4a11628f55a4df523b3ef9060200160405180910390a36116e9565b6001600160a01b0382166119c35760405162461bcd60e51b815260206004820152602160248201527f45524332303a206275726e2066726f6d20746865207a65726f2061646472657360448201527f73000000000000000000000000000000000000000000000000000000000000006064820152608401610745565b60006119ce82612186565b90506000806000611a076008856001600160e01b03166040518060600160405280602281526020016137506022913962dd7c0042611fdc565b825160088054602086015160408701516001600160d01b039094167fffffff000000000000000000000000000000000000000000000000000000000090921691909117600160d01b62ffffff92831602177cffffffffffffffffffffffffffffffffffffffffffffffffffffffffff16600160e81b9190931602919091179055919450925090508015611ae1576040805183516001600160e01b0316815260208085015163ffffffff16908201527f3375b905d617084fa6b7531688cc8046feb1f1a0b8ba2273de03c59d8d84416c910160405180910390a15b6001600160a01b0386166000908152630100000960205260409020546001600160e01b038516811015611b7c5760405162461bcd60e51b815260206004820152602260248201527f45524332303a206275726e20616d6f756e7420657863656564732062616c616e60448201527f63650000000000000000000000000000000000000000000000000000000000006064820152608401610745565b6001600160a01b0380881660009081526301000009602090815260408083206001600160e01b038a16860390556301000008909152902054168015611bd457611bcf8882886001600160e01b03166115ae565b611be8565b611be88889886001600160e01b03166115ae565b6040518781526000906001600160a01b038a16907fddf252ad1be2c89b69c2b068fc378daa952ba7f163c4a11628f55a4df523b3ef9060200160405180910390a35050505050505050565b6060838214611caa5760405162461bcd60e51b815260206004820152602360248201527f5469636b65742f73746172742d656e642d74696d65732d6c656e6774682d6d6160448201527f74636800000000000000000000000000000000000000000000000000000000006064820152608401610745565b8560008567ffffffffffffffff811115611cc657611cc6613739565b604051908082528060200260200182016040528015611cef578160200160208202803683370190505b50905060005b86811015611dc3576040805160608101825284546001600160d01b038116825262ffffff600160d01b820481166020840152600160e81b9091041691810191909152611d949060018b01908a8a85818110611d5257611d52613723565b9050602002016020810190611d679190613433565b898986818110611d7957611d79613723565b9050602002016020810190611d8e9190613433565b42611dcf565b828281518110611da657611da6613723565b602090810291909101015280611dbb816136b2565b915050611cf5565b50979650505050505050565b6000808263ffffffff168463ffffffff1611611deb5783611ded565b825b9050611dfc8787878487612209565b979650505050505050565b6001600160a01b03811660009081526005602052604090208054600181018255905b50919050565b60006105f4611e3c6114bb565b836040517f19010000000000000000000000000000000000000000000000000000000000006020820152602281018390526042810182905260009060620160405160208183030381529060405280519060200120905092915050565b6000806000611ea9878787876122a6565b91509150611eb681612393565b5095945050505050565b604080518082019091526000808252602082018190529081906040805180820190915260008082526020820152611ef78888612587565b60208101519194509150611f189063ffffffff908116908890889061260b16565b15611f3357505084516001600160d01b031691506107cf9050565b6000611f3f89896126dc565b6020810151909350909150611f609063ffffffff808a169190899061275516565b15611f725760009450505050506107cf565b611f848985838a8c604001518b612824565b81518151919550919350600091611f9a91613621565b9050600083602001518560200151611fb29190613660565b9050611fc463ffffffff821683613573565b6001600160e01b03169b9a5050505050505050505050565b604080516060810182526000808252602082018190529181019190915260408051808201909152600080825260208201526040805160608101825288546001600160d01b03811680835262ffffff600160d01b830481166020850152600160e81b909204909116928201929092526000918291829189908b11156120735760405162461bcd60e51b8152600401610745919061349d565b506120838b600101828a8a6129f1565b835192985090965094506120aa906120a5908c906001600160d01b0316613649565b612b3d565b6001600160d01b0316865250939992985090965090945050505050565b604080516060810182526000808252602082018190529181019190915260408051808201909152600080825260208201526040805160608101825287546001600160d01b038116825262ffffff600160d01b820481166020840152600160e81b90910416918101919091526000908190819061214860018b01828a8a6129f1565b8351929850909650945061216a906120a5908b906001600160d01b031661353b565b6001600160d01b03168652509398929750909550909350505050565b60006001600160e01b038211156122055760405162461bcd60e51b815260206004820152602760248201527f53616665436173743a2076616c756520646f65736e27742066697420696e203260448201527f32342062697473000000000000000000000000000000000000000000000000006064820152608401610745565b5090565b600080600061221888886126dc565b915091506000806122298a8a612587565b91509150600061223f8b8b8487878a8f8e612bbc565b905060006122538c8c8588888b8f8f612bbc565b9050816020015181602001516122699190613660565b63ffffffff16826000015182600001516122839190613621565b61228d9190613573565b6001600160e01b03169c9b505050505050505050505050565b6000807f7fffffffffffffffffffffffffffffff5d576e7357a4501ddfe92f46681b20a08311156122dd575060009050600361238a565b8460ff16601b141580156122f557508460ff16601c14155b15612306575060009050600461238a565b6040805160008082526020820180845289905260ff881692820192909252606081018690526080810185905260019060a0016020604051602081039080840390855afa15801561235a573d6000803e3d6000fd5b5050604051601f1901519150506001600160a01b0381166123835760006001925092505061238a565b9150600090505b94509492505050565b60008160048111156123a7576123a761370d565b14156123b05750565b60018160048111156123c4576123c461370d565b14156124125760405162461bcd60e51b815260206004820152601860248201527f45434453413a20696e76616c6964207369676e617475726500000000000000006044820152606401610745565b60028160048111156124265761242661370d565b14156124745760405162461bcd60e51b815260206004820152601f60248201527f45434453413a20696e76616c6964207369676e6174757265206c656e677468006044820152606401610745565b60038160048111156124885761248861370d565b14156124fc5760405162461bcd60e51b815260206004820152602260248201527f45434453413a20696e76616c6964207369676e6174757265202773272076616c60448201527f75650000000000000000000000000000000000000000000000000000000000006064820152608401610745565b60048160048111156125105761251061370d565b14156125845760405162461bcd60e51b815260206004820152602260248201527f45434453413a20696e76616c6964207369676e6174757265202776272076616c60448201527f75650000000000000000000000000000000000000000000000000000000000006064820152608401610745565b50565b60408051808201909152600080825260208201819052906125ba836020015162ffffff16846040015162ffffff16612d90565b9150838262ffffff1662ffffff81106125d5576125d5613723565b604080518082019091529101546001600160e01b0381168252600160e01b900463ffffffff166020820152919491935090915050565b60008163ffffffff168463ffffffff161115801561263557508163ffffffff168363ffffffff1611155b15612651578263ffffffff168463ffffffff1611159050610761565b60008263ffffffff168563ffffffff16116126805761267b63ffffffff8616640100000000613553565b612688565b8463ffffffff165b64ffffffffff16905060008363ffffffff168563ffffffff16116126c0576126bb63ffffffff8616640100000000613553565b6126c8565b8463ffffffff165b64ffffffffff169091111595945050505050565b604080518082019091526000808252602080830191909152820151908362ffffff80841690811061270f5761270f613723565b604080518082019091529101546001600160e01b0381168252600160e01b900463ffffffff166020820181905290915061274e576000915083826125d5565b9250929050565b60008163ffffffff168463ffffffff161115801561277f57508163ffffffff168363ffffffff1611155b1561279a578263ffffffff168463ffffffff16109050610761565b60008263ffffffff168563ffffffff16116127c9576127c463ffffffff8616640100000000613553565b6127d1565b8463ffffffff165b64ffffffffff16905060008363ffffffff168563ffffffff16116128095761280463ffffffff8616640100000000613553565b612811565b8463ffffffff165b64ffffffffff1690911095945050505050565b6040805180820190915260008082526020820152604080518082019091526000808252602082015260008662ffffff1690506000818962ffffff161061286f578862ffffff1661288a565b600161288062ffffff88168461353b565b61288a9190613649565b905060005b600261289b838561353b565b6128a59190613599565b90508a6128b7828962ffffff16612dc0565b62ffffff1662ffffff81106128ce576128ce613723565b604080518082019091529101546001600160e01b0381168252600160e01b900463ffffffff1660208201819052909550806129165761290e82600161353b565b93505061288f565b8b612926838a62ffffff16612dcc565b62ffffff1662ffffff811061293d5761293d613723565b604080518082019091529101546001600160e01b038116825263ffffffff600160e01b9091048116602083015290955060009061298290838116908c908b9061260b16565b90508080156129ab57506129ab8660200151898c63ffffffff1661260b9092919063ffffffff16565b156129b75750506129e3565b806129ce576129c7600184613649565b93506129dc565b6129d983600161353b565b94505b505061288f565b505050965096945050505050565b60408051606081018252600080825260208201819052918101919091526040805180820190915260008082526020820152600080612a2f8888612587565b915050806020015163ffffffff168563ffffffff161015612a925760405162461bcd60e51b815260206004820152601b60248201527f547761624c69622f747761622d74696d652d6d6f6e6f746f6e696300000000006044820152606401610745565b8463ffffffff16816020015163ffffffff161415612ab857869350915060009050612b33565b6000612ac689898989612dda565b90506000612ae2838a600001516001600160d01b031689612f67565b9050808a8a6020015162ffffff1662ffffff8110612b0257612b02613723565b825160209093015163ffffffff16600160e01b026001600160e01b0390931692909217910155909450925060019150505b9450945094915050565b60006001600160d01b038211156122055760405162461bcd60e51b815260206004820152602760248201527f53616665436173743a2076616c756520646f65736e27742066697420696e203260448201527f30382062697473000000000000000000000000000000000000000000000000006064820152608401610745565b6040805180820190915260008082526020820152612bef8383896020015163ffffffff166127559092919063ffffffff16565b15612c55576040518060400160405280886020015185612c0f9190613660565b8a51612c219163ffffffff16906135ad565b8951612c36916001600160d01b0316906134f2565b6001600160e01b031681526020018463ffffffff168152509050612d84565b8263ffffffff16876020015163ffffffff161415612c74575085612d84565b8263ffffffff16866020015163ffffffff161415612c93575084612d84565b612cb28660200151838563ffffffff166127559092919063ffffffff16565b15612cd75750604080518082019091526000815263ffffffff83166020820152612d84565b600080612cec8b8888888e6040015189612824565b91509150600082602001518260200151612d069190613660565b63ffffffff1683600001518360000151612d209190613621565b612d2a9190613573565b90506000836020015187612d3e9190613660565b612d4e9063ffffffff16836135dc565b8451612d5a91906134f2565b604080518082019091526001600160e01b03909116815263ffffffff881660208201529450505050505b98975050505050505050565b600081612d9f575060006105f4565b816001612dac828661353b565b612db69190613649565b61076191906136cd565b600061076182846136cd565b600081612db684600161353b565b6040805160608101825260008082526020820181905291810191909152600080856040015162ffffff1611612e10576001612e16565b84604001515b604080518082019091526000808252602082015290915060028262ffffff161115612eab576000612e4788886126dc565b5090506000612e608262ffffff168562ffffff16612dcc565b9050888162ffffff1662ffffff8110612e7b57612e7b613723565b604080518082019091529101546001600160e01b0381168252600160e01b900463ffffffff166020820152925050505b6020810151829063ffffffff161580612eed57508563ffffffff16612ee58360200151878863ffffffff16612fee9092919063ffffffff16565b63ffffffff16105b15612f155762ffffff83811610612f075762ffffff612f12565b612f1283600161351d565b90505b6000612f2f886020015162ffffff168362ffffff16612dcc565b604080516060810182528a516001600160d01b0316815262ffffff928316602082015293909116908301525092505050949350505050565b60408051808201909152600080825260208201526040518060400160405280612fcd612fa88760200151868763ffffffff16612fee9092919063ffffffff16565b612fb89063ffffffff1687613602565b87516120a591906001600160e01b031661353b565b6001600160d01b0316815263ffffffff841660209091015290509392505050565b60008163ffffffff168463ffffffff161115801561301857508163ffffffff168363ffffffff1611155b1561302e576130278385613660565b9050610761565b60008263ffffffff168563ffffffff161161305d5761305863ffffffff8616640100000000613553565b613065565b8463ffffffff165b64ffffffffff16905060008363ffffffff168563ffffffff161161309d5761309863ffffffff8616640100000000613553565b6130a5565b8463ffffffff165b64ffffffffff169050610c188183613649565b80356001600160a01b03811681146130cf57600080fd5b919050565b60008083601f8401126130e657600080fd5b50813567ffffffffffffffff8111156130fe57600080fd5b6020830191508360208260051b850101111561274e57600080fd5b60006020828403121561312b57600080fd5b610761826130b8565b6000806040838503121561314757600080fd5b613150836130b8565b915061315e602084016130b8565b90509250929050565b60008060006060848603121561317c57600080fd5b613185846130b8565b9250613193602085016130b8565b9150604084013590509250925092565b600080600080600080600060e0888a0312156131be57600080fd5b6131c7886130b8565b96506131d5602089016130b8565b95506040880135945060608801359350608088013560ff811681146131f957600080fd5b9699959850939692959460a0840135945060c09093013592915050565b60008060006040848603121561322b57600080fd5b613234846130b8565b9250602084013567ffffffffffffffff81111561325057600080fd5b61325c868287016130d4565b9497909650939450505050565b60008060008060006060868803121561328157600080fd5b61328a866130b8565b9450602086013567ffffffffffffffff808211156132a757600080fd5b6132b389838a016130d4565b909650945060408801359150808211156132cc57600080fd5b506132d9888289016130d4565b969995985093965092949392505050565b600080604083850312156132fd57600080fd5b613306836130b8565b9150602083013561ffff8116811461331d57600080fd5b809150509250929050565b6000806040838503121561333b57600080fd5b613344836130b8565b946020939093013593505050565b60008060006060848603121561336757600080fd5b613370846130b8565b95602085013595506040909401359392505050565b6000806020838503121561339857600080fd5b823567ffffffffffffffff8111156133af57600080fd5b6133bb858286016130d4565b90969095509350505050565b600080600080604085870312156133dd57600080fd5b843567ffffffffffffffff808211156133f557600080fd5b613401888389016130d4565b9096509450602087013591508082111561341a57600080fd5b50613427878288016130d4565b95989497509550505050565b60006020828403121561344557600080fd5b813563ffffffff8116811461076157600080fd5b6020808252825182820181905260009190848201906040850190845b8181101561349157835183529284019291840191600101613475565b50909695505050505050565b600060208083528351808285015260005b818110156134ca578581018301518582016040015282016134ae565b818111156134dc576000604083870101525b50601f01601f1916929092016040019392505050565b60006001600160e01b03808316818516808303821115613514576135146136e1565b01949350505050565b600062ffffff808316818516808303821115613514576135146136e1565b6000821982111561354e5761354e6136e1565b500190565b600064ffffffffff808316818516808303821115613514576135146136e1565b60006001600160e01b038084168061358d5761358d6136f7565b92169190910492915050565b6000826135a8576135a86136f7565b500490565b60006001600160d01b03808316818516818304811182151516156135d3576135d36136e1565b02949350505050565b60006001600160e01b03808316818516818304811182151516156135d3576135d36136e1565b600081600019048311821515161561361c5761361c6136e1565b500290565b60006001600160e01b0383811690831681811015613641576136416136e1565b039392505050565b60008282101561365b5761365b6136e1565b500390565b600063ffffffff83811690831681811015613641576136416136e1565b600181811c9082168061369157607f821691505b60208210811415611e2957634e487b7160e01b600052602260045260246000fd5b60006000198214156136c6576136c66136e1565b5060010190565b6000826136dc576136dc6136f7565b500690565b634e487b7160e01b600052601160045260246000fd5b634e487b7160e01b600052601260045260246000fd5b634e487b7160e01b600052602160045260246000fd5b634e487b7160e01b600052603260045260246000fd5b634e487b7160e01b600052604160045260246000fdfe45524332303a206275726e20616d6f756e7420657863656564732062616c616e6365a2646970667358221220a29e90304f86efccae855dd6ae987ccc913736cae5a3e91fb4f523ac72c83ea164736f6c63430008060033",
  "devdoc": {
    "author": "PoolTogether Inc Team",
    "kind": "dev",
    "methods": {
      "DOMAIN_SEPARATOR()": {
        "details": "See {IERC20Permit-DOMAIN_SEPARATOR}."
      },
      "allowance(address,address)": {
        "details": "See {IERC20-allowance}."
      },
      "approve(address,uint256)": {
        "details": "See {IERC20-approve}. Requirements: - `spender` cannot be the zero address."
      },
      "balanceOf(address)": {
        "details": "Returns the amount of tokens owned by `account`."
      },
      "constructor": {
        "params": {
          "_controller": "ERC20 ticket controller address (ie: Prize Pool address).",
          "_name": "ERC20 ticket token name.",
          "_symbol": "ERC20 ticket token symbol.",
          "decimals_": "ERC20 ticket token decimals."
        }
      },
      "controllerBurn(address,uint256)": {
        "details": "May be overridden to provide more granular control over burning",
        "params": {
          "_amount": "Amount of tokens to burn",
          "_user": "Address of the holder account to burn tokens from"
        }
      },
      "controllerBurnFrom(address,address,uint256)": {
        "details": "May be overridden to provide more granular control over operator-burning",
        "params": {
          "_amount": "Amount of tokens to burn",
          "_operator": "Address of the operator performing the burn action via the controller contract",
          "_user": "Address of the holder account to burn tokens from"
        }
      },
      "controllerMint(address,uint256)": {
        "details": "May be overridden to provide more granular control over minting",
        "params": {
          "_amount": "Amount of tokens to mint",
          "_user": "Address of the receiver of the minted tokens"
        }
      },
      "decimals()": {
        "details": "This value should be equal to the decimals of the token used to deposit into the pool.",
        "returns": {
          "_0": "uint8 decimals."
        }
      },
      "decreaseAllowance(address,uint256)": {
        "details": "Atomically decreases the allowance granted to `spender` by the caller. This is an alternative to {approve} that can be used as a mitigation for problems described in {IERC20-approve}. Emits an {Approval} event indicating the updated allowance. Requirements: - `spender` cannot be the zero address. - `spender` must have allowance for the caller of at least `subtractedValue`."
      },
      "delegate(address)": {
        "details": "Transfers (including mints) trigger the storage of a TWAB in delegatee(s) account, instead of the targetted sender and/or recipient address(s).\"to\" reset the delegatee use zero address (0x000.000) ",
        "params": {
          "to": "Receipient of delegated TWAB"
        }
      },
      "delegateOf(address)": {
        "params": {
          "user": "Address"
        }
      },
      "getAccountDetails(address)": {
        "params": {
          "user": "The user for whom to fetch the TWAB context"
        },
        "returns": {
          "_0": "The TWAB context, which includes { balance, nextTwabIndex, cardinality }"
        }
      },
      "getAverageBalanceBetween(address,uint256,uint256)": {
        "params": {
          "endTime": "The end time of the time frame.",
          "startTime": "The start time of the time frame.",
          "user": "The user whose balance is checked"
        },
        "returns": {
          "_0": "The average balance that the user held during the time frame."
        }
      },
      "getAverageBalancesBetween(address,uint32[],uint32[])": {
        "params": {
          "endTimes": "The end time of the time frame.",
          "startTimes": "The start time of the time frame.",
          "user": "The user whose balance is checked"
        },
        "returns": {
          "_0": "The average balance that the user held during the time frame."
        }
      },
      "getAverageTotalSuppliesBetween(uint32[],uint32[])": {
        "params": {
          "endTimes": "Array of end times",
          "startTimes": "Array of start times"
        },
        "returns": {
          "_0": "The average total supplies held during the time frame."
        }
      },
      "getBalanceAt(address,uint256)": {
        "params": {
          "timestamp": "Timestamp at which the reserved TWAB should be for.",
          "user": "Address of the user whose TWAB is being fetched."
        }
      },
      "getBalancesAt(address,uint32[])": {
        "params": {
          "timestamps": "Timestamps at which the reserved TWABs should be for.",
          "user": "Address of the user whose TWABs are being fetched."
        },
        "returns": {
          "_0": "uint256[] `_user` TWAB balances."
        }
      },
      "getTotalSuppliesAt(uint32[])": {
        "params": {
          "timestamps": "Timestamp"
        },
        "returns": {
          "_0": "The"
        }
      },
      "getTotalSupplyAt(uint32)": {
        "params": {
          "timestamp": "Timestamp"
        },
        "returns": {
          "_0": "The"
        }
      },
      "getTwab(address,uint16)": {
        "params": {
          "index": "The index of the TWAB to fetch",
          "user": "The user for whom to fetch the TWAB"
        },
        "returns": {
          "_0": "The TWAB, which includes the twab amount and the timestamp."
        }
      },
      "increaseAllowance(address,uint256)": {
        "details": "Atomically increases the allowance granted to `spender` by the caller. This is an alternative to {approve} that can be used as a mitigation for problems described in {IERC20-approve}. Emits an {Approval} event indicating the updated allowance. Requirements: - `spender` cannot be the zero address."
      },
      "name()": {
        "details": "Returns the name of the token."
      },
      "nonces(address)": {
        "details": "See {IERC20Permit-nonces}."
      },
      "permit(address,address,uint256,uint256,uint8,bytes32,bytes32)": {
        "details": "See {IERC20Permit-permit}."
      },
      "symbol()": {
        "details": "Returns the symbol of the token, usually a shorter version of the name."
      },
      "totalSupply()": {
        "details": "Returns the amount of tokens in existence."
      },
      "transfer(address,uint256)": {
        "details": "See {IERC20-transfer}. Requirements: - `recipient` cannot be the zero address. - the caller must have a balance of at least `amount`."
      },
      "transferFrom(address,address,uint256)": {
        "details": "See {IERC20-transferFrom}. Emits an {Approval} event indicating the updated allowance. This is not required by the EIP. See the note at the beginning of {ERC20}. Requirements: - `sender` and `recipient` cannot be the zero address. - `sender` must have a balance of at least `amount`. - the caller must have allowance for ``sender``'s tokens of at least `amount`."
      }
    },
    "stateVariables": {
      "TWAB_TIME_TO_LIVE": {
        "details": "Once the twab ttl expires, its storage slot is recycled."
      }
    },
    "title": "PoolTogether V4 Ticket",
    "version": 1
  },
  "userdoc": {
    "events": {
      "NewTotalSupplyTwab((uint224,uint32))": {
        "notice": "Emitted when a new total supply TWAB has been recorded."
      },
      "NewUserTwab(address,address,(uint224,uint32))": {
        "notice": "Emitted when a new TWAB has been recorded."
      },
      "TicketInitialized(string,string,uint8,address)": {
        "notice": "Emitted when ticket is initialized."
      }
    },
    "kind": "user",
    "methods": {
      "MAX_CARDINALITY()": {
        "notice": "The maximum number of twab entries"
      },
      "TWAB_TIME_TO_LIVE()": {
        "notice": "The minimum length of time a twab should exist."
      },
      "constructor": {
        "notice": "Constructs Ticket with passed parameters."
      },
      "controller()": {
        "notice": "Interface to the contract responsible for controlling mint/burn"
      },
      "controllerBurn(address,uint256)": {
        "notice": "Allows the controller to burn tokens from a user account"
      },
      "controllerBurnFrom(address,address,uint256)": {
        "notice": "Allows an operator via the controller to burn tokens on behalf of a user account"
      },
      "controllerMint(address,uint256)": {
        "notice": "Allows the controller to mint tokens for a user account"
      },
      "decimals()": {
        "notice": "Returns the ERC20 controlled token decimals."
      },
      "delegate(address)": {
        "notice": "Delegate time-weighted average balances to an alternative address."
      },
      "delegateOf(address)": {
        "notice": "ADD DOCS"
      },
      "getAccountDetails(address)": {
        "notice": "Gets a users twab context.  This is a struct with their balance, next twab index, and cardinality."
      },
      "getAverageBalanceBetween(address,uint256,uint256)": {
        "notice": "Calculates the average balance held by a user for a given time frame."
      },
      "getAverageBalancesBetween(address,uint32[],uint32[])": {
        "notice": "Calculates the average balance held by a user for a given time frame."
      },
      "getAverageTotalSuppliesBetween(uint32[],uint32[])": {
        "notice": "Calculates the average total supply balance for a set of given time frames."
      },
      "getBalanceAt(address,uint256)": {
        "notice": "Retrieves `_user` TWAB balance."
      },
      "getBalancesAt(address,uint32[])": {
        "notice": "Retrieves `_user` TWAB balances."
      },
      "getTotalSuppliesAt(uint32[])": {
        "notice": "Calculates the average total supply balance for a set of a given time frame."
      },
      "getTotalSupplyAt(uint32)": {
        "notice": "Calculates the average total supply balance for a set of a given time frame."
      },
      "getTwab(address,uint16)": {
        "notice": "Gets the TWAB at a specific index for a user."
      }
    },
    "notice": "The Ticket extends the standard ERC20 and ControlledToken interfaces with time-weighed average balance functionality. The TWAB (time-weighed average balance) enables contract-to-contract lookups of a user's average balance between timestamps. The timestamp/balance checkpoints are stored in a ring buffer for each user Account. Historical searches of a TWAB(s) are limited to the storage of these checkpoints. A user's average balance can be delegated to an alternative address. When delegating the average weighted balance is added to the delegatee TWAB lookup and removed from the delegaters TWAB lookup.",
    "version": 1
  },
  "storageLayout": {
    "storage": [
      {
        "astId": 55,
        "contract": "@pooltogether/v4-core/contracts/Ticket.sol:Ticket",
        "label": "_balances",
        "offset": 0,
        "slot": "0",
        "type": "t_mapping(t_address,t_uint256)"
      },
      {
        "astId": 61,
        "contract": "@pooltogether/v4-core/contracts/Ticket.sol:Ticket",
        "label": "_allowances",
        "offset": 0,
        "slot": "1",
        "type": "t_mapping(t_address,t_mapping(t_address,t_uint256))"
      },
      {
        "astId": 63,
        "contract": "@pooltogether/v4-core/contracts/Ticket.sol:Ticket",
        "label": "_totalSupply",
        "offset": 0,
        "slot": "2",
        "type": "t_uint256"
      },
      {
        "astId": 65,
        "contract": "@pooltogether/v4-core/contracts/Ticket.sol:Ticket",
        "label": "_name",
        "offset": 0,
        "slot": "3",
        "type": "t_string_storage"
      },
      {
        "astId": 67,
        "contract": "@pooltogether/v4-core/contracts/Ticket.sol:Ticket",
        "label": "_symbol",
        "offset": 0,
        "slot": "4",
        "type": "t_string_storage"
      },
      {
        "astId": 711,
        "contract": "@pooltogether/v4-core/contracts/Ticket.sol:Ticket",
        "label": "_nonces",
        "offset": 0,
        "slot": "5",
        "type": "t_mapping(t_address,t_struct(Counter)1576_storage)"
      },
      {
        "astId": 3686,
        "contract": "@pooltogether/v4-core/contracts/Ticket.sol:Ticket",
        "label": "controller",
        "offset": 0,
        "slot": "6",
        "type": "t_address"
      },
      {
        "astId": 7455,
        "contract": "@pooltogether/v4-core/contracts/Ticket.sol:Ticket",
        "label": "userTwabs",
        "offset": 0,
        "slot": "7",
        "type": "t_mapping(t_address,t_struct(Account)10284_storage)"
      },
      {
        "astId": 7459,
        "contract": "@pooltogether/v4-core/contracts/Ticket.sol:Ticket",
        "label": "totalSupplyTwab",
        "offset": 0,
        "slot": "8",
        "type": "t_struct(Account)10284_storage"
      },
      {
        "astId": 7464,
        "contract": "@pooltogether/v4-core/contracts/Ticket.sol:Ticket",
        "label": "delegates",
        "offset": 0,
        "slot": "16777224",
        "type": "t_mapping(t_address,t_address)"
      },
      {
        "astId": 7469,
        "contract": "@pooltogether/v4-core/contracts/Ticket.sol:Ticket",
        "label": "balances",
        "offset": 0,
        "slot": "16777225",
        "type": "t_mapping(t_address,t_uint256)"
      }
    ],
    "types": {
      "t_address": {
        "encoding": "inplace",
        "label": "address",
        "numberOfBytes": "20"
      },
      "t_array(t_struct(Observation)9857_storage)16777215_storage": {
        "base": "t_struct(Observation)9857_storage",
        "encoding": "inplace",
        "label": "struct ObservationLib.Observation[16777215]",
        "numberOfBytes": "536870880"
      },
      "t_mapping(t_address,t_address)": {
        "encoding": "mapping",
        "key": "t_address",
        "label": "mapping(address => address)",
        "numberOfBytes": "32",
        "value": "t_address"
      },
      "t_mapping(t_address,t_mapping(t_address,t_uint256))": {
        "encoding": "mapping",
        "key": "t_address",
        "label": "mapping(address => mapping(address => uint256))",
        "numberOfBytes": "32",
        "value": "t_mapping(t_address,t_uint256)"
      },
      "t_mapping(t_address,t_struct(Account)10284_storage)": {
        "encoding": "mapping",
        "key": "t_address",
        "label": "mapping(address => struct TwabLib.Account)",
        "numberOfBytes": "32",
        "value": "t_struct(Account)10284_storage"
      },
      "t_mapping(t_address,t_struct(Counter)1576_storage)": {
        "encoding": "mapping",
        "key": "t_address",
        "label": "mapping(address => struct Counters.Counter)",
        "numberOfBytes": "32",
        "value": "t_struct(Counter)1576_storage"
      },
      "t_mapping(t_address,t_uint256)": {
        "encoding": "mapping",
        "key": "t_address",
        "label": "mapping(address => uint256)",
        "numberOfBytes": "32",
        "value": "t_uint256"
      },
      "t_string_storage": {
        "encoding": "bytes",
        "label": "string",
        "numberOfBytes": "32"
      },
      "t_struct(Account)10284_storage": {
        "encoding": "inplace",
        "label": "struct TwabLib.Account",
        "members": [
          {
            "astId": 10278,
            "contract": "@pooltogether/v4-core/contracts/Ticket.sol:Ticket",
            "label": "details",
            "offset": 0,
            "slot": "0",
            "type": "t_struct(AccountDetails)10275_storage"
          },
          {
            "astId": 10283,
            "contract": "@pooltogether/v4-core/contracts/Ticket.sol:Ticket",
            "label": "twabs",
            "offset": 0,
            "slot": "1",
            "type": "t_array(t_struct(Observation)9857_storage)16777215_storage"
          }
        ],
        "numberOfBytes": "536870912"
      },
      "t_struct(AccountDetails)10275_storage": {
        "encoding": "inplace",
        "label": "struct TwabLib.AccountDetails",
        "members": [
          {
            "astId": 10270,
            "contract": "@pooltogether/v4-core/contracts/Ticket.sol:Ticket",
            "label": "balance",
            "offset": 0,
            "slot": "0",
            "type": "t_uint208"
          },
          {
            "astId": 10272,
            "contract": "@pooltogether/v4-core/contracts/Ticket.sol:Ticket",
            "label": "nextTwabIndex",
            "offset": 26,
            "slot": "0",
            "type": "t_uint24"
          },
          {
            "astId": 10274,
            "contract": "@pooltogether/v4-core/contracts/Ticket.sol:Ticket",
            "label": "cardinality",
            "offset": 29,
            "slot": "0",
            "type": "t_uint24"
          }
        ],
        "numberOfBytes": "32"
      },
      "t_struct(Counter)1576_storage": {
        "encoding": "inplace",
        "label": "struct Counters.Counter",
        "members": [
          {
            "astId": 1575,
            "contract": "@pooltogether/v4-core/contracts/Ticket.sol:Ticket",
            "label": "_value",
            "offset": 0,
            "slot": "0",
            "type": "t_uint256"
          }
        ],
        "numberOfBytes": "32"
      },
      "t_struct(Observation)9857_storage": {
        "encoding": "inplace",
        "label": "struct ObservationLib.Observation",
        "members": [
          {
            "astId": 9854,
            "contract": "@pooltogether/v4-core/contracts/Ticket.sol:Ticket",
            "label": "amount",
            "offset": 0,
            "slot": "0",
            "type": "t_uint224"
          },
          {
            "astId": 9856,
            "contract": "@pooltogether/v4-core/contracts/Ticket.sol:Ticket",
            "label": "timestamp",
            "offset": 28,
            "slot": "0",
            "type": "t_uint32"
          }
        ],
        "numberOfBytes": "32"
      },
      "t_uint208": {
        "encoding": "inplace",
        "label": "uint208",
        "numberOfBytes": "26"
      },
      "t_uint224": {
        "encoding": "inplace",
        "label": "uint224",
        "numberOfBytes": "28"
      },
      "t_uint24": {
        "encoding": "inplace",
        "label": "uint24",
        "numberOfBytes": "3"
      },
      "t_uint256": {
        "encoding": "inplace",
        "label": "uint256",
        "numberOfBytes": "32"
      },
      "t_uint32": {
        "encoding": "inplace",
        "label": "uint32",
        "numberOfBytes": "4"
      }
    }
  }
}