{
  "address": "0xfc0E5d492cd1f3C18401c3FCEe8F7B25CAf025c7",
  "abi": [
    {
      "inputs": [
        {
          "internalType": "contract IERC20",
          "name": "_token",
          "type": "address"
        }
      ],
      "name": "drip",
      "outputs": [],
      "stateMutability": "nonpayable",
      "type": "function"
    }
  ],
  "transactionHash": "0x2857ca1004dde6f49c41e1bda730d2d853b9308f5f0f57339ead3b7be9bec83b",
  "args": [],
  "numDeployments": 1,
  "solcInputHash": "8a05b5bf9739ec1002bfa88d4c298128",
  "bytecode": "0x608060405234801561001057600080fd5b50610625806100206000396000f3fe608060405234801561001057600080fd5b506004361061002b5760003560e01c806367a5cd0614610030575b600080fd5b61004361003e3660046104c8565b610045565b005b6040517f70a0823100000000000000000000000000000000000000000000000000000000815230600482015260009073ffffffffffffffffffffffffffffffffffffffff8316906370a082319060240160206040518083038186803b1580156100ad57600080fd5b505afa1580156100c1573d6000803e3d6000fd5b505050506040513d601f19601f820116820180604052508101906100e591906104fe565b90506000811161013c5760405162461bcd60e51b815260206004820152601f60248201527f546f6b656e4661756365742f656d7074792d746f6b656e2d62616c616e63650060448201526064015b60405180910390fd5b61016a3361014c61271084610584565b73ffffffffffffffffffffffffffffffffffffffff8516919061016e565b5050565b6040805173ffffffffffffffffffffffffffffffffffffffff8416602482015260448082018490528251808303909101815260649091019091526020810180517bffffffffffffffffffffffffffffffffffffffffffffffffffffffff167fa9059cbb000000000000000000000000000000000000000000000000000000001790526101fb908490610200565b505050565b6000610262826040518060400160405280602081526020017f5361666545524332303a206c6f772d6c6576656c2063616c6c206661696c65648152508573ffffffffffffffffffffffffffffffffffffffff166102f29092919063ffffffff16565b8051909150156101fb578080602001905181019061028091906104a6565b6101fb5760405162461bcd60e51b815260206004820152602a60248201527f5361666545524332303a204552433230206f7065726174696f6e20646964206e60448201527f6f742073756363656564000000000000000000000000000000000000000000006064820152608401610133565b6060610301848460008561030b565b90505b9392505050565b6060824710156103835760405162461bcd60e51b815260206004820152602660248201527f416464726573733a20696e73756666696369656e742062616c616e636520666f60448201527f722063616c6c00000000000000000000000000000000000000000000000000006064820152608401610133565b73ffffffffffffffffffffffffffffffffffffffff85163b6103e75760405162461bcd60e51b815260206004820152601d60248201527f416464726573733a2063616c6c20746f206e6f6e2d636f6e74726163740000006044820152606401610133565b6000808673ffffffffffffffffffffffffffffffffffffffff1685876040516104109190610517565b60006040518083038185875af1925050503d806000811461044d576040519150601f19603f3d011682016040523d82523d6000602084013e610452565b606091505b509150915061046282828661046d565b979650505050505050565b6060831561047c575081610304565b82511561048c5782518084602001fd5b8160405162461bcd60e51b81526004016101339190610533565b6000602082840312156104b857600080fd5b8151801515811461030457600080fd5b6000602082840312156104da57600080fd5b813573ffffffffffffffffffffffffffffffffffffffff8116811461030457600080fd5b60006020828403121561051057600080fd5b5051919050565b600082516105298184602087016105bf565b9190910192915050565b60208152600082518060208401526105528160408501602087016105bf565b601f017fffffffffffffffffffffffffffffffffffffffffffffffffffffffffffffffe0169190910160400192915050565b6000826105ba577f4e487b7100000000000000000000000000000000000000000000000000000000600052601260045260246000fd5b500490565b60005b838110156105da5781810151838201526020016105c2565b838111156105e9576000848401525b5050505056fea26469706673582212206dc5c37d7cdc4f31df58165492846fa04728dc8a7344b2164b82b56f17bcfa8864736f6c63430008060033",
  "devdoc": {
    "kind": "dev",
    "methods": {
      "drip(address)": {
        "details": "We send 0.01% of our tokens to the caller. Over time, the amount will tend toward and eventually reach zero.",
        "params": {
          "_token": "Address of the token to drip"
        }
      }
    },
    "title": "TokenFaucet",
    "version": 1
  },
  "userdoc": {
    "kind": "user",
    "methods": {
      "drip(address)": {
        "notice": "Drips some tokens to caller."
      }
    },
    "notice": "Allow users to claim tokens that were deposited in this contract.",
    "version": 1
  },
  "storageLayout": {
    "storage": [],
    "types": null
  }
}