{
  "address": "0x4CBe91F97b67d2a06bE5f149025C33729eA51E95",
  "abi": [
    {
      "inputs": [
        {
          "internalType": "address",
          "name": "_owner",
          "type": "address"
        },
        {
          "internalType": "contract ITicket",
          "name": "_ticket",
          "type": "address"
        },
        {
          "internalType": "contract IDrawHistory",
          "name": "_drawHistory",
          "type": "address"
        },
        {
          "internalType": "contract TsunamiDrawSettingsHistory",
          "name": "_tsunamiDrawSettingsHistory",
          "type": "address"
        }
      ],
      "stateMutability": "nonpayable",
      "type": "constructor"
    },
    {
      "anonymous": false,
      "inputs": [
        {
          "indexed": true,
          "internalType": "contract ClaimableDraw",
          "name": "claimableDraw",
          "type": "address"
        }
      ],
      "name": "ClaimableDrawSet",
      "type": "event"
    },
    {
      "anonymous": false,
      "inputs": [
        {
          "indexed": true,
          "internalType": "contract ITicket",
          "name": "ticket",
          "type": "address"
        }
      ],
      "name": "Deployed",
      "type": "event"
    },
    {
      "anonymous": false,
      "inputs": [
        {
          "indexed": true,
          "internalType": "contract IDrawHistory",
          "name": "drawHistory",
          "type": "address"
        }
      ],
      "name": "DrawHistorySet",
      "type": "event"
    },
    {
      "anonymous": false,
      "inputs": [
        {
          "indexed": true,
          "internalType": "address",
          "name": "pendingOwner",
          "type": "address"
        }
      ],
      "name": "OwnershipOffered",
      "type": "event"
    },
    {
      "anonymous": false,
      "inputs": [
        {
          "indexed": true,
          "internalType": "address",
          "name": "previousOwner",
          "type": "address"
        },
        {
          "indexed": true,
          "internalType": "address",
          "name": "newOwner",
          "type": "address"
        }
      ],
      "name": "OwnershipTransferred",
      "type": "event"
    },
    {
      "inputs": [
        {
          "internalType": "address",
          "name": "_user",
          "type": "address"
        },
        {
          "internalType": "uint32[]",
          "name": "_drawIds",
          "type": "uint32[]"
        },
        {
          "internalType": "bytes",
          "name": "_pickIndicesForDraws",
          "type": "bytes"
        }
      ],
      "name": "calculate",
      "outputs": [
        {
          "internalType": "uint256[]",
          "name": "",
          "type": "uint256[]"
        }
      ],
      "stateMutability": "view",
      "type": "function"
    },
    {
      "inputs": [
        {
          "internalType": "address",
          "name": "_user",
          "type": "address"
        },
        {
          "internalType": "uint256[]",
          "name": "_pickIndices",
          "type": "uint256[]"
        },
        {
          "internalType": "uint32",
          "name": "_drawId",
          "type": "uint32"
        }
      ],
      "name": "checkPrizeDistributionIndicesForDrawId",
      "outputs": [
        {
          "components": [
            {
              "internalType": "bool",
              "name": "won",
              "type": "bool"
            },
            {
              "internalType": "uint8",
              "name": "distributionIndex",
              "type": "uint8"
            }
          ],
          "internalType": "struct TsunamiDrawCalculator.PickPrize[]",
          "name": "",
          "type": "tuple[]"
        }
      ],
      "stateMutability": "view",
      "type": "function"
    },
    {
      "inputs": [],
      "name": "claimOwnership",
      "outputs": [],
      "stateMutability": "nonpayable",
      "type": "function"
    },
    {
      "inputs": [],
      "name": "getDrawHistory",
      "outputs": [
        {
          "internalType": "contract IDrawHistory",
          "name": "",
          "type": "address"
        }
      ],
      "stateMutability": "view",
      "type": "function"
    },
    {
      "inputs": [
        {
          "internalType": "address",
          "name": "_user",
          "type": "address"
        },
        {
          "internalType": "uint32[]",
          "name": "_drawIds",
          "type": "uint32[]"
        }
      ],
      "name": "getNormalizedBalancesForDrawIds",
      "outputs": [
        {
          "internalType": "uint256[]",
          "name": "",
          "type": "uint256[]"
        }
      ],
      "stateMutability": "view",
      "type": "function"
    },
    {
      "inputs": [],
      "name": "getTsunamiDrawSettingsHistory",
      "outputs": [
        {
          "internalType": "contract TsunamiDrawSettingsHistory",
          "name": "",
          "type": "address"
        }
      ],
      "stateMutability": "view",
      "type": "function"
    },
    {
      "inputs": [],
      "name": "owner",
      "outputs": [
        {
          "internalType": "address",
          "name": "",
          "type": "address"
        }
      ],
      "stateMutability": "view",
      "type": "function"
    },
    {
      "inputs": [],
      "name": "pendingOwner",
      "outputs": [
        {
          "internalType": "address",
          "name": "",
          "type": "address"
        }
      ],
      "stateMutability": "view",
      "type": "function"
    },
    {
      "inputs": [],
      "name": "renounceOwnership",
      "outputs": [],
      "stateMutability": "nonpayable",
      "type": "function"
    },
    {
      "inputs": [
        {
          "internalType": "contract IDrawHistory",
          "name": "_drawHistory",
          "type": "address"
        }
      ],
      "name": "setDrawHistory",
      "outputs": [
        {
          "internalType": "contract IDrawHistory",
          "name": "",
          "type": "address"
        }
      ],
      "stateMutability": "nonpayable",
      "type": "function"
    },
    {
      "inputs": [
        {
          "internalType": "address",
          "name": "_newOwner",
          "type": "address"
        }
      ],
      "name": "transferOwnership",
      "outputs": [],
      "stateMutability": "nonpayable",
      "type": "function"
    }
  ],
  "transactionHash": "0x718b3dc9dea6f4833e53fecf84bff077f736b6a9408a1e87536905422b57ad88",
  "args": [
    "0x3F0556bCA55Bdbb78A9316936067a47fd4C4C4f4",
    "0xe4A150E8b2c7C8Cc45E55798181762Ef89200E6f",
    "0x603799B6b16d11367cD95EdC29794ad8ea723c51",
    "0xD73118a8F0aE0D7eC379e7cbD192836f37fF3562"
  ],
  "solcInputHash": "c10ecf7ed4019ef1b5b277259dc2440b",
  "bytecode": "0x60c06040523480156200001157600080fd5b50604051620025b7380380620025b783398101604081905262000034916200024a565b83620000408162000158565b506001600160a01b0383166200009d5760405162461bcd60e51b815260206004820152601860248201527f4472617743616c632f7469636b65742d6e6f742d7a65726f000000000000000060448201526064015b60405180910390fd5b6001600160a01b038116620000f55760405162461bcd60e51b815260206004820152601660248201527f4472617743616c632f746473682d6e6f742d7a65726f00000000000000000000604482015260640162000094565b6200010082620001a8565b6001600160601b0319606082811b821660a05284901b166080526040516001600160a01b038416907ff40fcec21964ffb566044d083b4073f29f7f7929110ea19e1b3ebe375d89055e90600090a250505050620002cb565b600080546001600160a01b038381166001600160a01b0319831681178455604051919092169283917f8be0079c531659141344cd1fd0a4f28419497f9722a3daafe3b4186f6b6457e09190a35050565b6001600160a01b038116620002005760405162461bcd60e51b815260206004820152601460248201527f4472617743616c632f64682d6e6f742d7a65726f000000000000000000000000604482015260640162000094565b600280546001600160a01b0319166001600160a01b0383169081179091556040517fba0e8f3a74973e2a13826a827919baef53ee4eb218c95ac51cd17e62e7457e6690600090a250565b600080600080608085870312156200026157600080fd5b84516200026e81620002b2565b60208601519094506200028181620002b2565b60408601519093506200029481620002b2565b6060860151909250620002a781620002b2565b939692955090935050565b6001600160a01b0381168114620002c857600080fd5b50565b60805160601c60a05160601c6122a46200031360003960008181610187015281816103e5015281816105b30152610795015260008181610f2c0152610fbf01526122a46000f3fe608060405234801561001057600080fd5b50600436106100c95760003560e01c8063aaca392e11610081578063cfb40cd31161005b578063cfb40cd314610185578063e30c3978146101ab578063f2fde38b146101bc57600080fd5b8063aaca392e14610141578063b10820de14610154578063bb3ed1611461016557600080fd5b8063715018a6116100b2578063715018a6146101085780638045fbcf146101105780638da5cb5b1461013057600080fd5b80634e71e0c8146100ce5780635ea5c74e146100d8575b600080fd5b6100d66101cf565b005b6100eb6100e63660046118b4565b610262565b6040516001600160a01b0390911681526020015b60405180910390f35b6100d66102de565b61012361011e366004611939565b610353565b6040516100ff9190611ed5565b6000546001600160a01b03166100eb565b61012361014f36600461198e565b61049e565b6002546001600160a01b03166100eb565b6101786101733660046118d1565b6106bb565b6040516100ff9190611e81565b7f00000000000000000000000000000000000000000000000000000000000000006100eb565b6001546001600160a01b03166100eb565b6100d66101ca3660046118b4565b610b03565b6001546001600160a01b0316331461022e5760405162461bcd60e51b815260206004820152601f60248201527f4f776e61626c652f63616c6c65722d6e6f742d70656e64696e674f776e65720060448201526064015b60405180910390fd5b600154610243906001600160a01b0316610c3f565b6001805473ffffffffffffffffffffffffffffffffffffffff19169055565b6000336102776000546001600160a01b031690565b6001600160a01b0316146102cd5760405162461bcd60e51b815260206004820152601860248201527f4f776e61626c652f63616c6c65722d6e6f742d6f776e657200000000000000006044820152606401610225565b6102d682610c9c565b50805b919050565b336102f16000546001600160a01b031690565b6001600160a01b0316146103475760405162461bcd60e51b815260206004820152601860248201527f4f776e61626c652f63616c6c65722d6e6f742d6f776e657200000000000000006044820152606401610225565b6103516000610c3f565b565b60025460405163d0bb78f360e01b81526060916000916001600160a01b039091169063d0bb78f39061038b9087908790600401611f19565b60006040518083038186803b1580156103a357600080fd5b505afa1580156103b7573d6000803e3d6000fd5b505050506040513d6000823e601f3d908101601f191682016040526103df9190810190611b4d565b905060007f00000000000000000000000000000000000000000000000000000000000000006001600160a01b0316639fde0ae786866040518363ffffffff1660e01b8152600401610431929190611f19565b60006040518083038186803b15801561044957600080fd5b505afa15801561045d573d6000803e3d6000fd5b505050506040513d6000823e601f3d908101601f191682016040526104859190810190611c22565b9050610492868383610d49565b925050505b9392505050565b606060006104ae83850185611a3b565b805190915085146105265760405162461bcd60e51b8152602060048201526024808201527f4472617743616c632f696e76616c69642d7069636b2d696e64696365732d6c6560448201527f6e677468000000000000000000000000000000000000000000000000000000006064820152608401610225565b60025460405163d0bb78f360e01b81526000916001600160a01b03169063d0bb78f390610559908a908a90600401611f19565b60006040518083038186803b15801561057157600080fd5b505afa158015610585573d6000803e3d6000fd5b505050506040513d6000823e601f3d908101601f191682016040526105ad9190810190611b4d565b905060007f00000000000000000000000000000000000000000000000000000000000000006001600160a01b0316639fde0ae789896040518363ffffffff1660e01b81526004016105ff929190611f19565b60006040518083038186803b15801561061757600080fd5b505afa15801561062b573d6000803e3d6000fd5b505050506040513d6000823e601f3d908101601f191682016040526106539190810190611c22565b905060006106628a8484610d49565b6040516bffffffffffffffffffffffff1960608d901b1660208201529091506000906034016040516020818303038152906040528051906020012090506106ac82828688876111ab565b9b9a5050505050505050505050565b604080516001808252818301909252606091600091906020808301908036833701905050905082816000815181106106f5576106f5612218565b63ffffffff9092166020928302919091019091015260025460405163d0bb78f360e01b81526000916001600160a01b03169063d0bb78f39061073b908590600401611f59565b60006040518083038186803b15801561075357600080fd5b505afa158015610767573d6000803e3d6000fd5b505050506040513d6000823e601f3d908101601f1916820160405261078f9190810190611b4d565b905060007f00000000000000000000000000000000000000000000000000000000000000006001600160a01b0316639fde0ae7846040518263ffffffff1660e01b81526004016107df9190611f59565b60006040518083038186803b1580156107f757600080fd5b505afa15801561080b573d6000803e3d6000fd5b505050506040513d6000823e601f3d908101601f191682016040526108339190810190611c22565b90506000610842898484610d49565b905060006108848360008151811061085c5761085c612218565b60200260200101518360008151811061087757610877612218565b60200260200101516112f5565b905060006108ab8460008151811061089e5761089e612218565b6020026020010151611336565b905060008967ffffffffffffffff8111156108c8576108c861222e565b60405190808252806020026020018201604052801561090d57816020015b60408051808201909152600080825260208201528152602001906001900390816108e65790505b506040516bffffffffffffffffffffffff1960608f901b16602082015290915060009060340160405160208183030381529060405280519060200120905060005b8b811015610af1576000828e8e8481811061096b5761096b612218565b9050602002013560405160200161098c929190918252602082015260400190565b6040516020818303038152906040528051906020012060001c9050858e8e848181106109ba576109ba612218565b9050602002013510610a0e5760405162461bcd60e51b815260206004820181905260248201527f4472617743616c632f696e73756666696369656e742d757365722d7069636b736044820152606401610225565b6000610a39828b600081518110610a2757610a27612218565b6020026020010151600001518861140e565b905060405180604001604052808a600081518110610a5957610a59612218565b602002602001015160c001515183108015610ab1575060008b600081518110610a8457610a84612218565b602002602001015160c001518481518110610aa157610aa1612218565b602002602001015163ffffffff16115b151581526020018260ff16815250858481518110610ad157610ad1612218565b602002602001018190525050508080610ae9906121c3565b91505061094e565b50909c9b505050505050505050505050565b33610b166000546001600160a01b031690565b6001600160a01b031614610b6c5760405162461bcd60e51b815260206004820152601860248201527f4f776e61626c652f63616c6c65722d6e6f742d6f776e657200000000000000006044820152606401610225565b6001600160a01b038116610be85760405162461bcd60e51b815260206004820152602560248201527f4f776e61626c652f70656e64696e674f776e65722d6e6f742d7a65726f2d616460448201527f64726573730000000000000000000000000000000000000000000000000000006064820152608401610225565b6001805473ffffffffffffffffffffffffffffffffffffffff19166001600160a01b0383169081179091556040517f239a2ddded15777fa246aed5f7e1a9bc69a39d4eb4a397034d1d85766cca7d4c90600090a250565b600080546001600160a01b0383811673ffffffffffffffffffffffffffffffffffffffff19831681178455604051919092169283917f8be0079c531659141344cd1fd0a4f28419497f9722a3daafe3b4186f6b6457e09190a35050565b6001600160a01b038116610cf25760405162461bcd60e51b815260206004820152601460248201527f4472617743616c632f64682d6e6f742d7a65726f0000000000000000000000006044820152606401610225565b6002805473ffffffffffffffffffffffffffffffffffffffff19166001600160a01b0383169081179091556040517fba0e8f3a74973e2a13826a827919baef53ee4eb218c95ac51cd17e62e7457e6690600090a250565b60606000835167ffffffffffffffff811115610d6757610d6761222e565b604051908082528060200260200182016040528015610d90578160200160208202803683370190505b5090506000845167ffffffffffffffff811115610daf57610daf61222e565b604051908082528060200260200182016040528015610dd8578160200160208202803683370190505b50905060005b85518163ffffffff161015610ef857848163ffffffff1681518110610e0557610e05612218565b602002602001015160400151868263ffffffff1681518110610e2957610e29612218565b602002602001015160200151610e3f919061219e565b838263ffffffff1681518110610e5757610e57612218565b63ffffffff9283166020918202929092010152855186918316908110610e7f57610e7f612218565b602002602001015160600151868263ffffffff1681518110610ea357610ea3612218565b602002602001015160200151610eb9919061219e565b828263ffffffff1681518110610ed157610ed1612218565b63ffffffff9092166020928302919091019091015280610ef0816121de565b915050610dde565b506040517f6cdd0be20000000000000000000000000000000000000000000000000000000081526000906001600160a01b037f00000000000000000000000000000000000000000000000000000000000000001690636cdd0be290610f65908a9087908790600401611e43565b60006040518083038186803b158015610f7d57600080fd5b505afa158015610f91573d6000803e3d6000fd5b505050506040513d6000823e601f3d908101601f19168201604052610fb99190810190611d6a565b905060007f00000000000000000000000000000000000000000000000000000000000000006001600160a01b0316637966cd6785856040518363ffffffff1660e01b815260040161100b929190611f6c565b60006040518083038186803b15801561102357600080fd5b505afa158015611037573d6000803e3d6000fd5b505050506040513d6000823e601f3d908101601f1916820160405261105f9190810190611d6a565b90506000875167ffffffffffffffff81111561107d5761107d61222e565b6040519080825280602002602001820160405280156110a6578160200160208202803683370190505b50905060005b885181101561119e5760008382815181106110c9576110c9612218565b60200260200101511161111e5760405162461bcd60e51b815260206004820152601a60248201527f4472617743616c632f746f74616c2d737570706c792d7a65726f0000000000006044820152606401610225565b82818151811061113057611130612218565b602002602001015184828151811061114a5761114a612218565b6020026020010151670de0b6b3a76400006111659190612168565b61116f919061204b565b82828151811061118157611181612218565b602090810291909101015280611196816121c3565b9150506110ac565b5098975050505050505050565b60606000865167ffffffffffffffff8111156111c9576111c961222e565b6040519080825280602002602001820160405280156111f2578160200160208202803683370190505b50905060005b85518163ffffffff1610156112ea576000611244858363ffffffff168151811061122457611224612218565b60200260200101518a8463ffffffff168151811061087757610877612218565b90506112b4878363ffffffff168151811061126157611261612218565b602002602001015160000151828a898663ffffffff168151811061128757611287612218565b6020026020010151898763ffffffff16815181106112a7576112a7612218565b6020026020010151611489565b838363ffffffff16815181106112cc576112cc612218565b602090810291909101015250806112e2816121de565b9150506111f8565b509695505050505050565b6000670de0b6b3a76400008360a0015170ffffffffffffffffffffffffffffffffff16836113239190612168565b61132d919061204b565b90505b92915050565b60606000826020015160ff1667ffffffffffffffff81111561135a5761135a61222e565b604051908082528060200260200182016040528015611383578160200160208202803683370190505b509050600060018460000151600261139b91906120bc565b6113a59190612187565b905060005b846020015160ff168110156114055784516000906113cb9060ff1683612168565b90508061ffff1683901b8483815181106113e7576113e7612218565b602090810291909101015250806113fd816121c3565b9150506113aa565b50909392505050565b80516000908190815b8181101561147e57600085828151811061143357611433612218565b602002602001015190508087168189161461145d576114528484612187565b945050505050610497565b83611467816121c3565b945050508080611476906121c3565b915050611417565b506104928282612187565b6000808260c001515167ffffffffffffffff8111156114aa576114aa61222e565b6040519080825280602002602001820160405280156114d3578160200160208202803683370190505b50905060006114e184611336565b855160808601519192509063ffffffff168111156115415760405162461bcd60e51b815260206004820152601f60248201527f4472617743616c632f657863656564732d6d61782d757365722d7069636b73006044820152606401610225565b60005b818110156116625760008888838151811061156157611561612218565b6020026020010151604051602001611583929190918252602082015260400190565b6040516020818303038152906040528051906020012060001c9050898883815181106115b1576115b1612218565b6020026020010151106116065760405162461bcd60e51b815260206004820181905260248201527f4472617743616c632f696e73756666696369656e742d757365722d7069636b736044820152606401610225565b6000611613828d8761140e565b90508760c001515181101561164d5785818151811061163457611634612218565b602002602001018051809190611649906121c3565b9052505b5050808061165a906121c3565b915050611544565b506000805b8660c00151518110156116e357600085828151811061168857611688612218565b602002602001015111156116d1578481815181106116a8576116a8612218565b60200260200101516116ba8883611711565b6116c49190612168565b6116ce9083612033565b91505b806116db816121c3565b915050611667565b50633b9aca008660e00151826116f99190612168565b611703919061204b565b9a9950505050505050505050565b6000808360c00151838151811061172a5761172a612218565b602002602001015163ffffffff169050600061174a85600001518561175f565b9050611756818361204b565b95945050505050565b60008061177060ff851660026120b0565b9050600061177e84836120b0565b905083156117a857611791600185612187565b61179b90836120b0565b6117a59082612187565b90505b949350505050565b60008083601f8401126117c257600080fd5b50813567ffffffffffffffff8111156117da57600080fd5b6020830191508360208260051b85010111156117f557600080fd5b9250929050565b600082601f83011261180d57600080fd5b8151602061182261181d8361200f565b611fde565b80838252828201915082860187848660051b890101111561184257600080fd5b60005b8581101561186a5781516118588161225c565b84529284019290840190600101611845565b5090979650505050505050565b805170ffffffffffffffffffffffffffffffffff811681146102d957600080fd5b80516102d98161225c565b805160ff811681146102d957600080fd5b6000602082840312156118c657600080fd5b813561049781612244565b600080600080606085870312156118e757600080fd5b84356118f281612244565b9350602085013567ffffffffffffffff81111561190e57600080fd5b61191a878288016117b0565b909450925050604085013561192e8161225c565b939692955090935050565b60008060006040848603121561194e57600080fd5b833561195981612244565b9250602084013567ffffffffffffffff81111561197557600080fd5b611981868287016117b0565b9497909650939450505050565b6000806000806000606086880312156119a657600080fd5b85356119b181612244565b9450602086013567ffffffffffffffff808211156119ce57600080fd5b6119da89838a016117b0565b909650945060408801359150808211156119f357600080fd5b818801915088601f830112611a0757600080fd5b813581811115611a1657600080fd5b896020828501011115611a2857600080fd5b9699959850939650602001949392505050565b60006020808385031215611a4e57600080fd5b823567ffffffffffffffff80821115611a6657600080fd5b818501915085601f830112611a7a57600080fd5b8135611a8861181d8261200f565b80828252858201915085850189878560051b8801011115611aa857600080fd5b60005b84811015611b3e57813586811115611ac257600080fd5b8701603f81018c13611ad357600080fd5b88810135611ae361181d8261200f565b808282528b82019150604084018f60408560051b8701011115611b0557600080fd5b600094505b83851015611b28578035835260019490940193918c01918c01611b0a565b5087525050509287019290870190600101611aab565b50909998505050505050505050565b60006020808385031215611b6057600080fd5b825167ffffffffffffffff811115611b7757600080fd5b8301601f81018513611b8857600080fd5b8051611b9661181d8261200f565b818152838101908385016060808502860187018a1015611bb557600080fd5b60009550855b85811015611c135781838c031215611bd1578687fd5b611bd9611f91565b8351815288840151611bea8161225c565b818a0152604084810151611bfd8161225c565b9082015285529387019391810191600101611bbb565b50919998505050505050505050565b60006020808385031215611c3557600080fd5b825167ffffffffffffffff80821115611c4d57600080fd5b818501915085601f830112611c6157600080fd5b8151611c6f61181d8261200f565b80828252858201915085850189878560051b8801011115611c8f57600080fd5b60005b84811015611b3e57815186811115611ca957600080fd5b8701610100818d03601f1901811315611cc157600080fd5b611cc9611fba565b611cd48b84016118a3565b8152611ce2604084016118a3565b8b820152611cf260608401611898565b6040820152611d0360808401611898565b6060820152611d1460a08401611898565b6080820152611d2560c08401611877565b60a082015260e083015189811115611d3c57600080fd5b611d4a8f8d838701016117fc565b60c08301525091015160e082015284529287019290870190600101611c92565b60006020808385031215611d7d57600080fd5b825167ffffffffffffffff811115611d9457600080fd5b8301601f81018513611da557600080fd5b8051611db361181d8261200f565b80828252848201915084840188868560051b8701011115611dd357600080fd5b600094505b83851015611df6578051835260019490940193918501918501611dd8565b50979650505050505050565b600081518084526020808501945080840160005b83811015611e3857815163ffffffff1687529582019590820190600101611e16565b509495945050505050565b6001600160a01b0384168152606060208201526000611e656060830185611e02565b8281036040840152611e778185611e02565b9695505050505050565b602080825282518282018190526000919060409081850190868401855b82811015611ec857815180511515855286015160ff16868501529284019290850190600101611e9e565b5091979650505050505050565b6020808252825182820181905260009190848201906040850190845b81811015611f0d57835183529284019291840191600101611ef1565b50909695505050505050565b60208082528181018390526000908460408401835b868110156112ea578235611f418161225c565b63ffffffff1682529183019190830190600101611f2e565b60208152600061132d6020830184611e02565b604081526000611f7f6040830185611e02565b82810360208401526117568185611e02565b6040516060810167ffffffffffffffff81118282101715611fb457611fb461222e565b60405290565b604051610100810167ffffffffffffffff81118282101715611fb457611fb461222e565b604051601f8201601f1916810167ffffffffffffffff811182821017156120075761200761222e565b604052919050565b600067ffffffffffffffff8211156120295761202961222e565b5060051b60200190565b6000821982111561204657612046612202565b500190565b60008261206857634e487b7160e01b600052601260045260246000fd5b500490565b600181815b808511156120a857816000190482111561208e5761208e612202565b8085161561209b57918102915b93841c9390800290612072565b509250929050565b600061132d83836120c7565b600061132d60ff8416835b6000826120d657506001611330565b816120e357506000611330565b81600181146120f957600281146121035761211f565b6001915050611330565b60ff84111561211457612114612202565b50506001821b611330565b5060208310610133831016604e8410600b8410161715612142575081810a611330565b61214c838361206d565b806000190482111561216057612160612202565b029392505050565b600081600019048311821515161561218257612182612202565b500290565b60008282101561219957612199612202565b500390565b600063ffffffff838116908316818110156121bb576121bb612202565b039392505050565b60006000198214156121d7576121d7612202565b5060010190565b600063ffffffff808316818114156121f8576121f8612202565b6001019392505050565b634e487b7160e01b600052601160045260246000fd5b634e487b7160e01b600052603260045260246000fd5b634e487b7160e01b600052604160045260246000fd5b6001600160a01b038116811461225957600080fd5b50565b63ffffffff8116811461225957600080fdfea2646970667358221220e4e12afe8fe57328248a379ed1d16fe56942af628dcdbd9266ab4b7b788a9b4a64736f6c63430008060033",
  "devdoc": {
    "events": {
      "DrawHistorySet(address)": {
        "params": {
          "drawHistory": "DrawHistory address"
        }
      }
    },
    "kind": "dev",
    "methods": {
      "calculate(address,uint32[],bytes)": {
        "params": {
          "_drawIds": "draw array for which to calculate prize amounts for",
          "_pickIndicesForDraws": "The encoded pick indices for all Draws. Expected to be just indices of winning claims. Populated values must be less than totalUserPicks.",
          "_user": "User for which to calcualte prize amount"
        },
        "returns": {
          "_0": "An array of amount of prizes awardable"
        }
      },
      "checkPrizeDistributionIndicesForDrawId(address,uint256[],uint32)": {
        "params": {
          "_drawId": "The draw for which to calculate the distribution indices",
          "_pickIndices": "The users pick indices for a draw",
          "_user": "The user for which to calculate the distribution indices"
        }
      },
      "claimOwnership()": {
        "details": "This function is only callable by the `_pendingOwner`."
      },
      "constructor": {
        "params": {
          "_drawHistory": "The address of the draw history to push draws to",
          "_owner": "Address of the TsunamiDrawCalculator owner",
          "_ticket": "Ticket associated with this DrawCalculator",
          "_tsunamiDrawSettingsHistory": "TsunamiDrawSettingsHistory address"
        }
      },
      "getDrawHistory()": {
        "returns": {
          "_0": "IDrawHistory"
        }
      },
      "getNormalizedBalancesForDrawIds(address,uint32[])": {
        "params": {
          "_drawIds": "The drawsId to consider",
          "_user": "The users address"
        },
        "returns": {
          "_0": "Array of balances"
        }
      },
      "getTsunamiDrawSettingsHistory()": {
        "returns": {
          "_0": "IDrawHistory"
        }
      },
      "pendingOwner()": {
        "returns": {
          "_0": "Current `_pendingOwner` address."
        }
      },
      "renounceOwnership()": {
        "details": "Leaves the contract without owner. It will not be possible to call `onlyOwner` functions anymore. Can only be called by the current owner. NOTE: Renouncing ownership will leave the contract without an owner, thereby removing any functionality that is only available to the owner."
      },
      "setDrawHistory(address)": {
        "params": {
          "_drawHistory": "DrawHistory address"
        },
        "returns": {
          "_0": "New DrawHistory address"
        }
      },
      "transferOwnership(address)": {
        "params": {
          "_newOwner": "Address to transfer ownership to."
        }
      }
    },
    "title": "TsunamiDrawCalculator is an implementation of an IDrawCalculator",
    "version": 1
  },
  "userdoc": {
    "events": {
      "ClaimableDrawSet(address)": {
        "notice": "Emitted when the claimableDraw is set/updated"
      },
      "Deployed(address)": {
        "notice": "Emitted when the contract is initialized"
      },
      "DrawHistorySet(address)": {
        "notice": "Emitted when a global DrawHistory variable is set."
      }
    },
    "kind": "user",
    "methods": {
      "calculate(address,uint32[],bytes)": {
        "notice": "Calulates the prize amount for a user for Multiple Draws. Typically called by a ClaimableDraw."
      },
      "checkPrizeDistributionIndicesForDrawId(address,uint256[],uint32)": {
        "notice": "Returns the distribution index for a users pickIndices for a draw"
      },
      "claimOwnership()": {
        "notice": "Allows the `_pendingOwner` address to finalize the transfer."
      },
      "constructor": {
        "notice": "Constructor for TsunamiDrawCalculator"
      },
      "getDrawHistory()": {
        "notice": "Read global DrawHistory variable."
      },
      "getNormalizedBalancesForDrawIds(address,uint32[])": {
        "notice": "Returns a users balances expressed as a fraction of the total supply over time."
      },
      "getTsunamiDrawSettingsHistory()": {
        "notice": "Read global DrawHistory variable."
      },
      "owner()": {
        "notice": "Returns the address of the current owner."
      },
      "pendingOwner()": {
        "notice": "Gets current `_pendingOwner`."
      },
      "renounceOwnership()": {
        "notice": "Renounce ownership of the contract."
      },
      "setDrawHistory(address)": {
        "notice": "Set global DrawHistory reference."
      },
      "transferOwnership(address)": {
        "notice": "Allows current owner to set the `_pendingOwner` address."
      }
    },
    "version": 1
  },
  "storageLayout": {
    "storage": [
      {
        "astId": 3466,
        "contract": "@pooltogether/v4-core/contracts/TsunamiDrawCalculator.sol:TsunamiDrawCalculator",
        "label": "_owner",
        "offset": 0,
        "slot": "0",
        "type": "t_address"
      },
      {
        "astId": 3468,
        "contract": "@pooltogether/v4-core/contracts/TsunamiDrawCalculator.sol:TsunamiDrawCalculator",
        "label": "_pendingOwner",
        "offset": 0,
        "slot": "1",
        "type": "t_address"
      },
      {
        "astId": 6670,
        "contract": "@pooltogether/v4-core/contracts/TsunamiDrawCalculator.sol:TsunamiDrawCalculator",
        "label": "drawHistory",
        "offset": 0,
        "slot": "2",
        "type": "t_contract(IDrawHistory)8549"
      }
    ],
    "types": {
      "t_address": {
        "encoding": "inplace",
        "label": "address",
        "numberOfBytes": "20"
      },
      "t_contract(IDrawHistory)8549": {
        "encoding": "inplace",
        "label": "contract IDrawHistory",
        "numberOfBytes": "20"
      }
    }
  }
}