{
  "address": "0x98B5840A2Db003D93E30544b0782b5908F276A85",
  "abi": [
    {
      "anonymous": false,
      "inputs": [
        {
          "indexed": true,
          "internalType": "contract ClaimableDraw",
          "name": "_claimableDraw",
          "type": "address"
        }
      ],
      "name": "ClaimableDrawSet",
      "type": "event"
    },
    {
      "anonymous": false,
      "inputs": [
        {
          "indexed": true,
          "internalType": "uint32",
          "name": "drawId",
          "type": "uint32"
        },
        {
          "components": [
            {
              "internalType": "uint8",
              "name": "bitRangeSize",
              "type": "uint8"
            },
            {
              "internalType": "uint16",
              "name": "matchCardinality",
              "type": "uint16"
            },
            {
              "internalType": "uint224",
              "name": "pickCost",
              "type": "uint224"
            },
            {
              "internalType": "uint128[]",
              "name": "distributions",
              "type": "uint128[]"
            },
            {
              "internalType": "uint256",
              "name": "prize",
              "type": "uint256"
            }
          ],
          "indexed": false,
          "internalType": "struct DrawLib.DrawSettings",
          "name": "_drawSettings",
          "type": "tuple"
        }
      ],
      "name": "DrawSettingsSet",
      "type": "event"
    },
    {
      "anonymous": false,
      "inputs": [
        {
          "indexed": true,
          "internalType": "contract TicketInterface",
          "name": "_ticket",
          "type": "address"
        }
      ],
      "name": "Initialized",
      "type": "event"
    },
    {
      "anonymous": false,
      "inputs": [
        {
          "indexed": true,
          "internalType": "address",
          "name": "previousManager",
          "type": "address"
        },
        {
          "indexed": true,
          "internalType": "address",
          "name": "newManager",
          "type": "address"
        }
      ],
      "name": "ManagerTransferred",
      "type": "event"
    },
    {
      "anonymous": false,
      "inputs": [
        {
          "indexed": true,
          "internalType": "address",
          "name": "previousOwner",
          "type": "address"
        },
        {
          "indexed": true,
          "internalType": "address",
          "name": "newOwner",
          "type": "address"
        }
      ],
      "name": "OwnershipTransferred",
      "type": "event"
    },
    {
      "inputs": [
        {
          "internalType": "address",
          "name": "_user",
          "type": "address"
        },
        {
          "components": [
            {
              "internalType": "uint256",
              "name": "winningRandomNumber",
              "type": "uint256"
            },
            {
              "internalType": "uint32",
              "name": "timestamp",
              "type": "uint32"
            },
            {
              "internalType": "uint32",
              "name": "drawId",
              "type": "uint32"
            }
          ],
          "internalType": "struct DrawLib.Draw[]",
          "name": "_draws",
          "type": "tuple[]"
        },
        {
          "internalType": "bytes",
          "name": "_pickIndicesForDraws",
          "type": "bytes"
        }
      ],
      "name": "calculate",
      "outputs": [
        {
          "internalType": "uint96[]",
          "name": "",
          "type": "uint96[]"
        }
      ],
      "stateMutability": "view",
      "type": "function"
    },
    {
      "inputs": [],
      "name": "claimableDraw",
      "outputs": [
        {
          "internalType": "contract ClaimableDraw",
          "name": "",
          "type": "address"
        }
      ],
      "stateMutability": "view",
      "type": "function"
    },
    {
      "inputs": [
        {
          "internalType": "contract TicketInterface",
          "name": "_ticket",
          "type": "address"
        },
        {
          "internalType": "address",
          "name": "_drawSettingsManager",
          "type": "address"
        },
        {
          "internalType": "contract ClaimableDraw",
          "name": "_claimableDraw",
          "type": "address"
        }
      ],
      "name": "initialize",
      "outputs": [],
      "stateMutability": "nonpayable",
      "type": "function"
    },
    {
      "inputs": [],
      "name": "manager",
      "outputs": [
        {
          "internalType": "address",
          "name": "",
          "type": "address"
        }
      ],
      "stateMutability": "view",
      "type": "function"
    },
    {
      "inputs": [],
      "name": "owner",
      "outputs": [
        {
          "internalType": "address",
          "name": "",
          "type": "address"
        }
      ],
      "stateMutability": "view",
      "type": "function"
    },
    {
      "inputs": [],
      "name": "renounceOwnership",
      "outputs": [],
      "stateMutability": "nonpayable",
      "type": "function"
    },
    {
      "inputs": [
        {
          "internalType": "contract ClaimableDraw",
          "name": "_claimableDraw",
          "type": "address"
        }
      ],
      "name": "setClaimableDraw",
      "outputs": [
        {
          "internalType": "contract ClaimableDraw",
          "name": "",
          "type": "address"
        }
      ],
      "stateMutability": "nonpayable",
      "type": "function"
    },
    {
      "inputs": [
        {
          "internalType": "uint32",
          "name": "_drawId",
          "type": "uint32"
        },
        {
          "components": [
            {
              "internalType": "uint8",
              "name": "bitRangeSize",
              "type": "uint8"
            },
            {
              "internalType": "uint16",
              "name": "matchCardinality",
              "type": "uint16"
            },
            {
              "internalType": "uint224",
              "name": "pickCost",
              "type": "uint224"
            },
            {
              "internalType": "uint128[]",
              "name": "distributions",
              "type": "uint128[]"
            },
            {
              "internalType": "uint256",
              "name": "prize",
              "type": "uint256"
            }
          ],
          "internalType": "struct DrawLib.DrawSettings",
          "name": "_drawSettings",
          "type": "tuple"
        }
      ],
      "name": "setDrawSettings",
      "outputs": [],
      "stateMutability": "nonpayable",
      "type": "function"
    },
    {
      "inputs": [
        {
          "internalType": "address",
          "name": "_newManager",
          "type": "address"
        }
      ],
      "name": "setManager",
      "outputs": [
        {
          "internalType": "bool",
          "name": "",
          "type": "bool"
        }
      ],
      "stateMutability": "nonpayable",
      "type": "function"
    },
    {
      "inputs": [
        {
          "internalType": "address",
          "name": "newOwner",
          "type": "address"
        }
      ],
      "name": "transferOwnership",
      "outputs": [],
      "stateMutability": "nonpayable",
      "type": "function"
    }
  ],
  "transactionHash": "0xd78728cea209050fe6598131d56838f51414fbc21de12e7e4a471aff0b75c9af",
  "args": [],
  "solcInputHash": "eb7a0e30f615ca63f4ada054592e23a2",
  "bytecode": "0x608060405234801561001057600080fd5b50612317806100206000396000f3fe608060405234801561001057600080fd5b50600436106100be5760003560e01c8063aba964c811610076578063c25425e81161005b578063c25425e814610161578063d0ebdbe714610174578063f2fde38b1461019757600080fd5b8063aba964c81461013b578063c0c53b8b1461014e57600080fd5b8063715018a6116100a7578063715018a6146101005780638da5cb5b1461010a5780639367baa71461011b57600080fd5b8063481c6a75146100c35780634940805f146100ed575b600080fd5b6065546001600160a01b03165b6040516001600160a01b0390911681526020015b60405180910390f35b6067546100d0906001600160a01b031681565b6101086101aa565b005b6033546001600160a01b03166100d0565b61012e610129366004611816565b610215565b6040516100e49190611c74565b6100d06101493660046117f2565b610534565b61010861015c366004611a96565b6105dd565b61010861016f366004611b53565b610768565b6101876101823660046117f2565b61080b565b60405190151581526020016100e4565b6101086101a53660046117f2565b610877565b6033546001600160a01b031633146102095760405162461bcd60e51b815260206004820181905260248201527f4f776e61626c653a2063616c6c6572206973206e6f7420746865206f776e657260448201526064015b60405180910390fd5b6102136000610959565b565b60606000610225838501856118ca565b8051909150851461029d5760405162461bcd60e51b8152602060048201526024808201527f4472617743616c632f696e76616c69642d7069636b2d696e64696365732d6c6560448201527f6e677468000000000000000000000000000000000000000000000000000000006064820152608401610200565b60008567ffffffffffffffff8111156102b8576102b861213a565b6040519080825280602002602001820160405280156102e1578160200160208202803683370190505b50905060008667ffffffffffffffff8111156102ff576102ff61213a565b604051908082528060200260200182016040528015610328578160200160208202803683370190505b50905060005b878110156103d75788888281811061034857610348612124565b90506060020160200160208101906103609190611b38565b83828151811061037257610372612124565b602002602001019063ffffffff16908163ffffffff168152505088888281811061039e5761039e612124565b905060600201600001358282815181106103ba576103ba612124565b6020908102919091010152806103cf816120b9565b91505061032e565b5080518251146104295760405162461bcd60e51b815260206004820152601c60248201527f4472617743616c632f696e76616c69642d647261772d6c656e677468000000006044820152606401610200565b6066546040517f405e22ad0000000000000000000000000000000000000000000000000000000081526000916001600160a01b03169063405e22ad90610475908d908790600401611c17565b60006040518083038186803b15801561048d57600080fd5b505afa1580156104a1573d6000803e3d6000fd5b505050506040513d6000823e601f3d908101601f191682016040526104c991908101906119e1565b6040517fffffffffffffffffffffffffffffffffffffffff00000000000000000000000060608d901b166020820152909150600090603401604051602081830303815290604052805190602001209050610525828285886109b8565b9b9a5050505050505050505050565b6065546000906001600160a01b031633148061055a57506033546001600160a01b031633145b6105cc5760405162461bcd60e51b815260206004820152602360248201527f4d616e616765722f63616c6c65722d6e6f742d6d616e616765722d6f722d6f7760448201527f6e657200000000000000000000000000000000000000000000000000000000006064820152608401610200565b6105d582610bd7565b90505b919050565b600054610100900460ff16806105f6575060005460ff16155b6106685760405162461bcd60e51b815260206004820152602e60248201527f496e697469616c697a61626c653a20636f6e747261637420697320616c72656160448201527f647920696e697469616c697a65640000000000000000000000000000000000006064820152608401610200565b600054610100900460ff1615801561068a576000805461ffff19166101011790555b6001600160a01b0384166106e05760405162461bcd60e51b815260206004820152601860248201527f4472617743616c632f7469636b65742d6e6f742d7a65726f00000000000000006044820152606401610200565b6106e8610cad565b6106f18361080b565b506106fb82610bd7565b506066805473ffffffffffffffffffffffffffffffffffffffff19166001600160a01b0386169081179091556040517f908408e307fc569b417f6cbec5d5a06f44a0a505ac0479b47d421a4b2fd6a1e690600090a28015610762576000805461ff00191690555b50505050565b6065546001600160a01b031633148061078b57506033546001600160a01b031633145b6107fd5760405162461bcd60e51b815260206004820152602360248201527f4d616e616765722f63616c6c65722d6e6f742d6d616e616765722d6f722d6f7760448201527f6e657200000000000000000000000000000000000000000000000000000000006064820152608401610200565b6108078282610d7e565b5050565b6033546000906001600160a01b031633146108685760405162461bcd60e51b815260206004820181905260248201527f4f776e61626c653a2063616c6c6572206973206e6f7420746865206f776e65726044820152606401610200565b610871826110e7565b50919050565b6033546001600160a01b031633146108d15760405162461bcd60e51b815260206004820181905260248201527f4f776e61626c653a2063616c6c6572206973206e6f7420746865206f776e65726044820152606401610200565b6001600160a01b03811661094d5760405162461bcd60e51b815260206004820152602660248201527f4f776e61626c653a206e6577206f776e657220697320746865207a65726f206160448201527f64647265737300000000000000000000000000000000000000000000000000006064820152608401610200565b61095681610959565b50565b603380546001600160a01b0383811673ffffffffffffffffffffffffffffffffffffffff19831681179093556040519116919082907f8be0079c531659141344cd1fd0a4f28419497f9722a3daafe3b4186f6b6457e090600090a35050565b60606000855167ffffffffffffffff8111156109d6576109d661213a565b6040519080825280602002602001820160405280156109ff578160200160208202803683370190505b50905060005b84518163ffffffff161015610bcd5763ffffffff81166000908152606860209081526040808320815160a081018352815460ff81168252610100810461ffff1682860152630100000090047bffffffffffffffffffffffffffffffffffffffffffffffffffffffff1681840152600182018054845181870281018701909552808552919492936060860193909290830182828015610b0657602002820191906000526020600020906000905b82829054906101000a90046fffffffffffffffffffffffffffffffff166fffffffffffffffffffffffffffffffff1681526020019060100190602082600f01049283019260010382029150808411610ab15790505b505050505081526020016002820154815250509050610b85868363ffffffff1681518110610b3657610b36612124565b6020026020010151898463ffffffff1681518110610b5657610b56612124565b602002602001015189888663ffffffff1681518110610b7757610b77612124565b60200260200101518561120c565b838363ffffffff1681518110610b9d57610b9d612124565b6bffffffffffffffffffffffff909216602092830291909101909101525080610bc5816120d4565b915050610a05565b5095945050505050565b60006001600160a01b038216610c555760405162461bcd60e51b815260206004820152602860248201527f4472617743616c632f636c61696d61626c652d647261772d6e6f742d7a65726f60448201527f2d616464726573730000000000000000000000000000000000000000000000006064820152608401610200565b6067805473ffffffffffffffffffffffffffffffffffffffff19166001600160a01b0384169081179091556040517fa96795123a84d88293d426abc7fd21bd6f9daa3e25869355bb65226ecb81c42a90600090a25090565b600054610100900460ff1680610cc6575060005460ff16155b610d385760405162461bcd60e51b815260206004820152602e60248201527f496e697469616c697a61626c653a20636f6e747261637420697320616c72656160448201527f647920696e697469616c697a65640000000000000000000000000000000000006064820152608401610200565b600054610100900460ff16158015610d5a576000805461ffff19166101011790555b610d6261146d565b610d6a61152d565b8015610956576000805461ff001916905550565b600080610d8e6060840184611d9e565b9150819050610da36040850160208601611afe565b61ffff161015610e1b5760405162461bcd60e51b815260206004820152602a60248201527f4472617743616c632f6d6174636843617264696e616c6974792d67742d64697360448201527f747269627574696f6e73000000000000000000000000000000000000000000006064820152608401610200565b610e2b6040840160208501611afe565b610e3790610100611e55565b61ffff16610e486020850185611ba8565b60ff161115610e995760405162461bcd60e51b815260206004820152601f60248201527f4472617743616c632f62697452616e676553697a652d746f6f2d6c61726765006044820152606401610200565b6000610eab6060850160408601611b1b565b7bffffffffffffffffffffffffffffffffffffffffffffffffffffffff1611610f165760405162461bcd60e51b815260206004820152601760248201527f4472617743616c632f7069636b2d636f73742d67742d300000000000000000006044820152606401610200565b60005b81811015610f8357610f2e6060850185611d9e565b82818110610f3e57610f3e612124565b9050602002016020810190610f539190611ae1565b610f6f906fffffffffffffffffffffffffffffffff1684611e3d565b925080610f7b816120b9565b915050610f19565b50670de0b6b3a7640000821115610fdc5760405162461bcd60e51b815260206004820152601e60248201527f4472617743616c632f646973747269627574696f6e732d67742d3130302500006044820152606401610200565b6067546040517fcd74b99a00000000000000000000000000000000000000000000000000000000815263ffffffff861660048201523060248201526001600160a01b039091169063cd74b99a90604401602060405180830381600087803b15801561104657600080fd5b505af115801561105a573d6000803e3d6000fd5b505050506040513d601f19601f8201168201806040525081019061107e9190611a79565b5063ffffffff8416600090815260686020526040902083906110a0828261215d565b9050508363ffffffff167ff8e43f9a4a1d56ea5163b78ffeeb91f20d70f5fbe25439b7184ad5180f126acc846040516110d99190611cc6565b60405180910390a250505050565b6065546000906001600160a01b039081169083166111475760405162461bcd60e51b815260206004820181905260248201527f4d616e616765722f6d616e616765722d6e6f742d7a65726f2d616464726573736044820152606401610200565b806001600160a01b0316836001600160a01b031614156111a95760405162461bcd60e51b815260206004820181905260248201527f4d616e616765722f6578697374696e672d6d616e616765722d616464726573736044820152606401610200565b6065805473ffffffffffffffffffffffffffffffffffffffff19166001600160a01b0385811691821790925560405190918316907f9cb45c728de594dab506a1f1a8554e24c8eeaf983618d5ec5dd7bc6f3c49feee90600090a350600192915050565b60008082604001517bffffffffffffffffffffffffffffffffffffffffffffffffffffffff168661123d9190611e76565b9050600083606001515167ffffffffffffffff81111561125f5761125f61213a565b604051908082528060200260200182016040528015611288578160200160208202803683370190505b5090506000611296856115e3565b905060005b86518110156113ba576000888883815181106112b9576112b9612124565b60200260200101516040516020016112db929190918252602082015260400190565b6040516020818303038152906040528051906020012060001c90508488838151811061130957611309612124565b60200260200101511061135e5760405162461bcd60e51b815260206004820181905260248201527f4472617743616c632f696e73756666696369656e742d757365722d7069636b736044820152606401610200565b600061136b828d866116bd565b90508760600151518110156113a55784818151811061138c5761138c612124565b6020026020010180518091906113a1906120b9565b9052505b505080806113b2906120b9565b91505061129b565b506000805b86606001515181101561143b5760008482815181106113e0576113e0612124565b602002602001015111156114295783818151811061140057611400612124565b60200260200101516114128883611726565b61141c9190611f85565b6114269083611e3d565b91505b80611433816120b9565b9150506113bf565b50670de0b6b3a76400008660800151826114559190611f85565b61145f9190611e76565b9a9950505050505050505050565b600054610100900460ff1680611486575060005460ff16155b6114f85760405162461bcd60e51b815260206004820152602e60248201527f496e697469616c697a61626c653a20636f6e747261637420697320616c72656160448201527f647920696e697469616c697a65640000000000000000000000000000000000006064820152608401610200565b600054610100900460ff16158015610d6a576000805461ffff19166101011790558015610956576000805461ff001916905550565b600054610100900460ff1680611546575060005460ff16155b6115b85760405162461bcd60e51b815260206004820152602e60248201527f496e697469616c697a61626c653a20636f6e747261637420697320616c72656160448201527f647920696e697469616c697a65640000000000000000000000000000000000006064820152608401610200565b600054610100900460ff161580156115da576000805461ffff19166101011790555b610d6a33610959565b60606000826020015161ffff1667ffffffffffffffff8111156116085761160861213a565b604051908082528060200260200182016040528015611631578160200160208202803683370190505b50905060006001846000015160026116499190611ed9565b6116539190611fa4565b905060005b846020015161ffff168110156116b457845160009061167a9060ff1683611f85565b90508061ffff1683901b84838151811061169657611696612124565b602090810291909101015250806116ac816120b9565b915050611658565b50909392505050565b600080805b835181101561170f5760008482815181106116df576116df612124565b6020026020010151905080871681871614156116fc576001830192505b5080611707816120b9565b9150506116c2565b5080835161171d9190611fa4565b95945050505050565b60008082846000015160ff16600261173e9190611ecd565b6117489190611ecd565b905060008460600151848151811061176257611762612124565b60200260200101516fffffffffffffffffffffffffffffffff169050818161178a9190611e76565b925050505b92915050565b60008083601f8401126117a757600080fd5b50813567ffffffffffffffff8111156117bf57600080fd5b6020830191508360208285010111156117d757600080fd5b9250929050565b803563ffffffff811681146105d857600080fd5b60006020828403121561180457600080fd5b813561180f81612265565b9392505050565b60008060008060006060868803121561182e57600080fd5b853561183981612265565b9450602086013567ffffffffffffffff8082111561185657600080fd5b818801915088601f83011261186a57600080fd5b81358181111561187957600080fd5b89602060608302850101111561188e57600080fd5b6020830196508095505060408801359150808211156118ac57600080fd5b506118b988828901611795565b969995985093965092949392505050565b600060208083850312156118dd57600080fd5b823567ffffffffffffffff808211156118f557600080fd5b818501915085601f83011261190957600080fd5b813561191c61191782611e19565b611de8565b80828252858201915085850189878560051b880101111561193c57600080fd5b60005b848110156119d25781358681111561195657600080fd5b8701603f81018c1361196757600080fd5b8881013561197761191782611e19565b808282528b82019150604084018f60408560051b870101111561199957600080fd5b600094505b838510156119bc578035835260019490940193918c01918c0161199e565b508752505050928701929087019060010161193f565b50909998505050505050505050565b600060208083850312156119f457600080fd5b825167ffffffffffffffff811115611a0b57600080fd5b8301601f81018513611a1c57600080fd5b8051611a2a61191782611e19565b80828252848201915084840188868560051b8701011115611a4a57600080fd5b600094505b83851015611a6d578051835260019490940193918501918501611a4f565b50979650505050505050565b600060208284031215611a8b57600080fd5b815161180f81612265565b600080600060608486031215611aab57600080fd5b8335611ab681612265565b92506020840135611ac681612265565b91506040840135611ad681612265565b809150509250925092565b600060208284031215611af357600080fd5b813561180f8161227a565b600060208284031215611b1057600080fd5b813561180f81612298565b600060208284031215611b2d57600080fd5b813561180f816122a8565b600060208284031215611b4a57600080fd5b61180f826117de565b60008060408385031215611b6657600080fd5b611b6f836117de565b9150602083013567ffffffffffffffff811115611b8b57600080fd5b830160a08186031215611b9d57600080fd5b809150509250929050565b600060208284031215611bba57600080fd5b813561180f816122d2565b8183526000602080850194508260005b85811015611c0c578135611be88161227a565b6fffffffffffffffffffffffffffffffff1687529582019590820190600101611bd5565b509495945050505050565b6000604082016001600160a01b03851683526020604081850152818551808452606086019150828701935060005b81811015611c6757845163ffffffff1683529383019391830191600101611c45565b5090979650505050505050565b6020808252825182820181905260009190848201906040850190845b81811015611cba5783516bffffffffffffffffffffffff1683529284019291840191600101611c90565b50909695505050505050565b6020815260008235611cd7816122d2565b60ff81166020840152506020830135611cef81612298565b61ffff81166040840152506040830135611d08816122a8565b7bffffffffffffffffffffffffffffffffffffffffffffffffffffffff81166060840152506060830135601e19843603018112611d4457600080fd5b8301803567ffffffffffffffff811115611d5d57600080fd5b8060051b3603851315611d6f57600080fd5b60a06080850152611d8760c085018260208501611bc5565b915050608084013560a08401528091505092915050565b6000808335601e19843603018112611db557600080fd5b83018035915067ffffffffffffffff821115611dd057600080fd5b6020019150600581901b36038213156117d757600080fd5b604051601f8201601f1916810167ffffffffffffffff81118282101715611e1157611e1161213a565b604052919050565b600067ffffffffffffffff821115611e3357611e3361213a565b5060051b60200190565b60008219821115611e5057611e506120f8565b500190565b600061ffff80841680611e6a57611e6a61210e565b92169190910492915050565b600082611e8557611e8561210e565b500490565b600181815b80851115611ec5578160001904821115611eab57611eab6120f8565b80851615611eb857918102915b93841c9390800290611e8f565b509250929050565b600061180f8383611ee4565b600061180f60ff8416835b600082611ef35750600161178f565b81611f005750600061178f565b8160018114611f165760028114611f2057611f3c565b600191505061178f565b60ff841115611f3157611f316120f8565b50506001821b61178f565b5060208310610133831016604e8410600b8410161715611f5f575081810a61178f565b611f698383611e8a565b8060001904821115611f7d57611f7d6120f8565b029392505050565b6000816000190483118215151615611f9f57611f9f6120f8565b500290565b600082821015611fb657611fb66120f8565b500390565b68010000000000000000831115611fd457611fd461213a565b805483825580841015612039576001600083815260208120828701831c8101838501841c8201915060108860041b168015612020576000198083018054828460200360031b1c16815550505b505b81811015612034578281558301612022565b505050505b506000818152602081208391805b868110156120b05761208761205b85612150565b84546fffffffffffffffffffffffffffffffff600386901b81811b801990931693909116901b16178455565b60208401935060108083019250808311156120a757600092506001840193505b50600101612047565b50505050505050565b60006000198214156120cd576120cd6120f8565b5060010190565b600063ffffffff808316818114156120ee576120ee6120f8565b6001019392505050565b634e487b7160e01b600052601160045260246000fd5b634e487b7160e01b600052601260045260246000fd5b634e487b7160e01b600052603260045260246000fd5b634e487b7160e01b600052604160045260246000fd5b6000813561178f8161227a565b8135612168816122d2565b60ff811690508154817fffffffffffffffffffffffffffffffffffffffffffffffffffffffffffffff00821617835560208401356121a581612298565b62ffff008160081b16905080837fffffffffffffffffffffffffffffffffffffffffffffffffffffffffff00000084161717845560408501356121e7816122a8565b7effffffffffffffffffffffffffffffffffffffffffffffffffffffff0000008160181b16847fff000000000000000000000000000000000000000000000000000000000000008516178317178555505050506122476060830183611d9e565b612255818360018601611fbb565b5050608082013560028201555050565b6001600160a01b038116811461095657600080fd5b6fffffffffffffffffffffffffffffffff8116811461095657600080fd5b61ffff8116811461095657600080fd5b7bffffffffffffffffffffffffffffffffffffffffffffffffffffffff8116811461095657600080fd5b60ff8116811461095657600080fdfea26469706673582212200f1af6cc0b7751dbd045687f31b7bf31cfb06ed910cc5be4fdaac07790b185c764736f6c63430008060033",
  "devdoc": {
    "kind": "dev",
    "methods": {
      "calculate(address,(uint256,uint32,uint32)[],bytes)": {
        "params": {
          "_draws": "draw array for which to calculate prize amounts for",
          "_pickIndicesForDraws": "The encoded pick indices for all Draws. Expected to be just indices of winning claims. Populated values must be less than totalUserPicks.",
          "_user": "User for which to calcualte prize amount"
        },
        "returns": {
          "_0": "An array of amount of prizes awardable"
        }
      },
      "initialize(address,address,address)": {
        "params": {
          "_claimableDraw": "ClaimableDraw associated with this DrawCalculator",
          "_drawSettingsManager": "Address of the DrawSettingsManager. Can be different from the contract owner.",
          "_ticket": "Ticket associated with this DrawCalculator"
        }
      },
      "manager()": {
        "details": "Returns current _manager address.1",
        "returns": {
          "_0": "Current _manager address."
        }
      },
      "owner()": {
        "details": "Returns the address of the current owner."
      },
      "renounceOwnership()": {
        "details": "Leaves the contract without owner. It will not be possible to call `onlyOwner` functions anymore. Can only be called by the current owner. NOTE: Renouncing ownership will leave the contract without an owner, thereby removing any functionality that is only available to the owner."
      },
      "setClaimableDraw(address)": {
        "params": {
          "_claimableDraw": "The address of the ClaimableDraw to update with the updated DrawSettings"
        }
      },
      "setDrawSettings(uint32,(uint8,uint16,uint224,uint128[],uint256))": {
        "params": {
          "_drawId": "The id of the Draw",
          "_drawSettings": "The DrawSettings to set"
        }
      },
      "setManager(address)": {
        "details": "Throws if called by any account other than the owner.",
        "params": {
          "_newManager": "New _manager address."
        },
        "returns": {
          "_0": "Boolean to indicate if the operation was successful or not."
        }
      },
      "transferOwnership(address)": {
        "details": "Transfers ownership of the contract to a new account (`newOwner`). Can only be called by the current owner."
      }
    },
    "title": "TsunamiDrawCalculator is an implmentation of an IDrawCalculator",
    "version": 1
  },
  "userdoc": {
    "events": {
      "ClaimableDrawSet(address)": {
        "notice": "Emitted when the claimableDraw is set/updated"
      },
      "DrawSettingsSet(uint32,(uint8,uint16,uint224,uint128[],uint256))": {
        "notice": "Emitted when the DrawParams are set/updated"
      },
      "Initialized(address)": {
        "notice": "Emitted when the contract is initialized"
      }
    },
    "kind": "user",
    "methods": {
      "calculate(address,(uint256,uint32,uint32)[],bytes)": {
        "notice": "Calulates the prize amount for a user for Multiple Draws. Typically called by a ClaimableDraw."
      },
      "claimableDraw()": {
        "notice": "ClaimableDraw associated with DrawCalculator"
      },
      "initialize(address,address,address)": {
        "notice": "Initializer sets the initial parameters"
      },
      "manager()": {
        "notice": "Gets current _manager."
      },
      "setClaimableDraw(address)": {
        "notice": "Sets DrawSettings for a draw id. only callable by the owner or manager"
      },
      "setDrawSettings(uint32,(uint8,uint16,uint224,uint128[],uint256))": {
        "notice": "Sets DrawSettings for a draw id. only callable by the owner or manager"
      },
      "setManager(address)": {
        "notice": "Set or change of manager."
      }
    },
    "version": 1
  },
  "storageLayout": {
    "storage": [
      {
        "astId": 130,
        "contract": "@pooltogether/v4/contracts/TsunamiDrawCalculator.sol:TsunamiDrawCalculator",
        "label": "_initialized",
        "offset": 0,
        "slot": "0",
        "type": "t_bool"
      },
      {
        "astId": 133,
        "contract": "@pooltogether/v4/contracts/TsunamiDrawCalculator.sol:TsunamiDrawCalculator",
        "label": "_initializing",
        "offset": 1,
        "slot": "0",
        "type": "t_bool"
      },
      {
        "astId": 1781,
        "contract": "@pooltogether/v4/contracts/TsunamiDrawCalculator.sol:TsunamiDrawCalculator",
        "label": "__gap",
        "offset": 0,
        "slot": "1",
        "type": "t_array(t_uint256)50_storage"
      },
      {
        "astId": 10,
        "contract": "@pooltogether/v4/contracts/TsunamiDrawCalculator.sol:TsunamiDrawCalculator",
        "label": "_owner",
        "offset": 0,
        "slot": "51",
        "type": "t_address"
      },
      {
        "astId": 123,
        "contract": "@pooltogether/v4/contracts/TsunamiDrawCalculator.sol:TsunamiDrawCalculator",
        "label": "__gap",
        "offset": 0,
        "slot": "52",
        "type": "t_array(t_uint256)49_storage"
      },
      {
        "astId": 3498,
        "contract": "@pooltogether/v4/contracts/TsunamiDrawCalculator.sol:TsunamiDrawCalculator",
        "label": "_manager",
        "offset": 0,
        "slot": "101",
        "type": "t_address"
      },
      {
        "astId": 6836,
        "contract": "@pooltogether/v4/contracts/TsunamiDrawCalculator.sol:TsunamiDrawCalculator",
        "label": "ticket",
        "offset": 0,
        "slot": "102",
        "type": "t_contract(TicketInterface)8007"
      },
      {
        "astId": 6840,
        "contract": "@pooltogether/v4/contracts/TsunamiDrawCalculator.sol:TsunamiDrawCalculator",
        "label": "claimableDraw",
        "offset": 0,
        "slot": "103",
        "type": "t_contract(ClaimableDraw)4273"
      },
      {
        "astId": 6846,
        "contract": "@pooltogether/v4/contracts/TsunamiDrawCalculator.sol:TsunamiDrawCalculator",
        "label": "drawSettings",
        "offset": 0,
        "slot": "104",
        "type": "t_mapping(t_uint32,t_struct(DrawSettings)8028_storage)"
      }
    ],
    "types": {
      "t_address": {
        "encoding": "inplace",
        "label": "address",
        "numberOfBytes": "20"
      },
      "t_array(t_uint128)dyn_storage": {
        "base": "t_uint128",
        "encoding": "dynamic_array",
        "label": "uint128[]",
        "numberOfBytes": "32"
      },
      "t_array(t_uint256)49_storage": {
        "base": "t_uint256",
        "encoding": "inplace",
        "label": "uint256[49]",
        "numberOfBytes": "1568"
      },
      "t_array(t_uint256)50_storage": {
        "base": "t_uint256",
        "encoding": "inplace",
        "label": "uint256[50]",
        "numberOfBytes": "1600"
      },
      "t_bool": {
        "encoding": "inplace",
        "label": "bool",
        "numberOfBytes": "1"
      },
      "t_contract(ClaimableDraw)4273": {
        "encoding": "inplace",
        "label": "contract ClaimableDraw",
        "numberOfBytes": "20"
      },
      "t_contract(TicketInterface)8007": {
        "encoding": "inplace",
        "label": "contract TicketInterface",
        "numberOfBytes": "20"
      },
      "t_mapping(t_uint32,t_struct(DrawSettings)8028_storage)": {
        "encoding": "mapping",
        "key": "t_uint32",
        "label": "mapping(uint32 => struct DrawLib.DrawSettings)",
        "numberOfBytes": "32",
        "value": "t_struct(DrawSettings)8028_storage"
      },
      "t_struct(DrawSettings)8028_storage": {
        "encoding": "inplace",
        "label": "struct DrawLib.DrawSettings",
        "members": [
          {
            "astId": 8018,
            "contract": "@pooltogether/v4/contracts/TsunamiDrawCalculator.sol:TsunamiDrawCalculator",
            "label": "bitRangeSize",
            "offset": 0,
            "slot": "0",
            "type": "t_uint8"
          },
          {
            "astId": 8020,
            "contract": "@pooltogether/v4/contracts/TsunamiDrawCalculator.sol:TsunamiDrawCalculator",
            "label": "matchCardinality",
            "offset": 1,
            "slot": "0",
            "type": "t_uint16"
          },
          {
            "astId": 8022,
            "contract": "@pooltogether/v4/contracts/TsunamiDrawCalculator.sol:TsunamiDrawCalculator",
            "label": "pickCost",
            "offset": 3,
            "slot": "0",
            "type": "t_uint224"
          },
          {
            "astId": 8025,
            "contract": "@pooltogether/v4/contracts/TsunamiDrawCalculator.sol:TsunamiDrawCalculator",
            "label": "distributions",
            "offset": 0,
            "slot": "1",
            "type": "t_array(t_uint128)dyn_storage"
          },
          {
            "astId": 8027,
            "contract": "@pooltogether/v4/contracts/TsunamiDrawCalculator.sol:TsunamiDrawCalculator",
            "label": "prize",
            "offset": 0,
            "slot": "2",
            "type": "t_uint256"
          }
        ],
        "numberOfBytes": "96"
      },
      "t_uint128": {
        "encoding": "inplace",
        "label": "uint128",
        "numberOfBytes": "16"
      },
      "t_uint16": {
        "encoding": "inplace",
        "label": "uint16",
        "numberOfBytes": "2"
      },
      "t_uint224": {
        "encoding": "inplace",
        "label": "uint224",
        "numberOfBytes": "28"
      },
      "t_uint256": {
        "encoding": "inplace",
        "label": "uint256",
        "numberOfBytes": "32"
      },
      "t_uint32": {
        "encoding": "inplace",
        "label": "uint32",
        "numberOfBytes": "4"
      },
      "t_uint8": {
        "encoding": "inplace",
        "label": "uint8",
        "numberOfBytes": "1"
      }
    }
  }
}