{
  "address": "0x4918D46D6189f65a67FC1f33153417435Ef6a0C9",
  "abi": [
    {
      "inputs": [
        {
          "internalType": "string",
          "name": "name_",
          "type": "string"
        },
        {
          "internalType": "string",
          "name": "symbol_",
          "type": "string"
        },
        {
          "internalType": "contract ITicket",
          "name": "_ticket",
          "type": "address"
        }
      ],
      "stateMutability": "nonpayable",
      "type": "constructor"
    },
    {
      "anonymous": false,
      "inputs": [
        {
          "indexed": true,
          "internalType": "address",
          "name": "owner",
          "type": "address"
        },
        {
          "indexed": true,
          "internalType": "address",
          "name": "spender",
          "type": "address"
        },
        {
          "indexed": false,
          "internalType": "uint256",
          "name": "value",
          "type": "uint256"
        }
      ],
      "name": "Approval",
      "type": "event"
    },
    {
      "anonymous": false,
      "inputs": [
        {
          "indexed": true,
          "internalType": "address",
          "name": "delegator",
          "type": "address"
        },
        {
          "indexed": true,
          "internalType": "uint256",
          "name": "slot",
          "type": "uint256"
        },
        {
          "indexed": true,
          "internalType": "address",
          "name": "delegatee",
          "type": "address"
        },
        {
          "indexed": false,
          "internalType": "uint96",
          "name": "lockUntil",
          "type": "uint96"
        },
        {
          "indexed": false,
          "internalType": "address",
          "name": "user",
          "type": "address"
        }
      ],
      "name": "DelegateeUpdated",
      "type": "event"
    },
    {
      "anonymous": false,
      "inputs": [
        {
          "indexed": true,
          "internalType": "address",
          "name": "delegator",
          "type": "address"
        },
        {
          "indexed": true,
          "internalType": "uint256",
          "name": "slot",
          "type": "uint256"
        },
        {
          "indexed": false,
          "internalType": "uint96",
          "name": "lockUntil",
          "type": "uint96"
        },
        {
          "indexed": true,
          "internalType": "address",
          "name": "delegatee",
          "type": "address"
        },
        {
          "indexed": false,
          "internalType": "contract Delegation",
          "name": "delegation",
          "type": "address"
        },
        {
          "indexed": false,
          "internalType": "address",
          "name": "user",
          "type": "address"
        }
      ],
      "name": "DelegationCreated",
      "type": "event"
    },
    {
      "anonymous": false,
      "inputs": [
        {
          "indexed": true,
          "internalType": "address",
          "name": "delegator",
          "type": "address"
        },
        {
          "indexed": true,
          "internalType": "uint256",
          "name": "slot",
          "type": "uint256"
        },
        {
          "indexed": false,
          "internalType": "uint256",
          "name": "amount",
          "type": "uint256"
        },
        {
          "indexed": true,
          "internalType": "address",
          "name": "user",
          "type": "address"
        }
      ],
      "name": "DelegationFunded",
      "type": "event"
    },
    {
      "anonymous": false,
      "inputs": [
        {
          "indexed": true,
          "internalType": "address",
          "name": "delegator",
          "type": "address"
        },
        {
          "indexed": true,
          "internalType": "uint256",
          "name": "slot",
          "type": "uint256"
        },
        {
          "indexed": false,
          "internalType": "uint256",
          "name": "amount",
          "type": "uint256"
        },
        {
          "indexed": true,
          "internalType": "address",
          "name": "user",
          "type": "address"
        }
      ],
      "name": "DelegationFundedFromStake",
      "type": "event"
    },
    {
      "anonymous": false,
      "inputs": [
        {
          "indexed": true,
          "internalType": "address",
          "name": "delegator",
          "type": "address"
        },
        {
          "indexed": true,
          "internalType": "address",
          "name": "representative",
          "type": "address"
        },
        {
          "indexed": false,
          "internalType": "bool",
          "name": "set",
          "type": "bool"
        }
      ],
      "name": "RepresentativeSet",
      "type": "event"
    },
    {
      "anonymous": false,
      "inputs": [
        {
          "indexed": true,
          "internalType": "contract ITicket",
          "name": "ticket",
          "type": "address"
        }
      ],
      "name": "TicketSet",
      "type": "event"
    },
    {
      "anonymous": false,
      "inputs": [
        {
          "indexed": true,
          "internalType": "address",
          "name": "delegator",
          "type": "address"
        },
        {
          "indexed": false,
          "internalType": "uint256",
          "name": "amount",
          "type": "uint256"
        }
      ],
      "name": "TicketsStaked",
      "type": "event"
    },
    {
      "anonymous": false,
      "inputs": [
        {
          "indexed": true,
          "internalType": "address",
          "name": "delegator",
          "type": "address"
        },
        {
          "indexed": true,
          "internalType": "address",
          "name": "recipient",
          "type": "address"
        },
        {
          "indexed": false,
          "internalType": "uint256",
          "name": "amount",
          "type": "uint256"
        }
      ],
      "name": "TicketsUnstaked",
      "type": "event"
    },
    {
      "anonymous": false,
      "inputs": [
        {
          "indexed": true,
          "internalType": "address",
          "name": "from",
          "type": "address"
        },
        {
          "indexed": true,
          "internalType": "address",
          "name": "to",
          "type": "address"
        },
        {
          "indexed": false,
          "internalType": "uint256",
          "name": "value",
          "type": "uint256"
        }
      ],
      "name": "Transfer",
      "type": "event"
    },
    {
      "anonymous": false,
      "inputs": [
        {
          "indexed": true,
          "internalType": "address",
          "name": "delegator",
          "type": "address"
        },
        {
          "indexed": true,
          "internalType": "uint256",
          "name": "slot",
          "type": "uint256"
        },
        {
          "indexed": false,
          "internalType": "uint256",
          "name": "amount",
          "type": "uint256"
        },
        {
          "indexed": true,
          "internalType": "address",
          "name": "to",
          "type": "address"
        }
      ],
      "name": "TransferredDelegation",
      "type": "event"
    },
    {
      "anonymous": false,
      "inputs": [
        {
          "indexed": true,
          "internalType": "address",
          "name": "delegator",
          "type": "address"
        },
        {
          "indexed": true,
          "internalType": "uint256",
          "name": "slot",
          "type": "uint256"
        },
        {
          "indexed": false,
          "internalType": "uint256",
          "name": "amount",
          "type": "uint256"
        },
        {
          "indexed": true,
          "internalType": "address",
          "name": "user",
          "type": "address"
        }
      ],
      "name": "WithdrewDelegationToStake",
      "type": "event"
    },
    {
      "inputs": [],
      "name": "MAX_LOCK",
      "outputs": [
        {
          "internalType": "uint256",
          "name": "",
          "type": "uint256"
        }
      ],
      "stateMutability": "view",
      "type": "function"
    },
    {
      "inputs": [
        {
          "internalType": "address",
          "name": "owner",
          "type": "address"
        },
        {
          "internalType": "address",
          "name": "spender",
          "type": "address"
        }
      ],
      "name": "allowance",
      "outputs": [
        {
          "internalType": "uint256",
          "name": "",
          "type": "uint256"
        }
      ],
      "stateMutability": "view",
      "type": "function"
    },
    {
      "inputs": [
        {
          "internalType": "address",
          "name": "spender",
          "type": "address"
        },
        {
          "internalType": "uint256",
          "name": "amount",
          "type": "uint256"
        }
      ],
      "name": "approve",
      "outputs": [
        {
          "internalType": "bool",
          "name": "",
          "type": "bool"
        }
      ],
      "stateMutability": "nonpayable",
      "type": "function"
    },
    {
      "inputs": [
        {
          "internalType": "address",
          "name": "account",
          "type": "address"
        }
      ],
      "name": "balanceOf",
      "outputs": [
        {
          "internalType": "uint256",
          "name": "",
          "type": "uint256"
        }
      ],
      "stateMutability": "view",
      "type": "function"
    },
    {
      "inputs": [
        {
          "internalType": "address",
          "name": "_delegator",
          "type": "address"
        },
        {
          "internalType": "uint256",
          "name": "_slot",
          "type": "uint256"
        }
      ],
      "name": "computeDelegationAddress",
      "outputs": [
        {
          "internalType": "address",
          "name": "",
          "type": "address"
        }
      ],
      "stateMutability": "view",
      "type": "function"
    },
    {
      "inputs": [
        {
          "internalType": "address",
          "name": "_delegator",
          "type": "address"
        },
        {
          "internalType": "uint256",
          "name": "_slot",
          "type": "uint256"
        },
        {
          "internalType": "address",
          "name": "_delegatee",
          "type": "address"
        },
        {
          "internalType": "uint96",
          "name": "_lockDuration",
          "type": "uint96"
        }
      ],
      "name": "createDelegation",
      "outputs": [
        {
          "internalType": "contract Delegation",
          "name": "",
          "type": "address"
        }
      ],
      "stateMutability": "nonpayable",
      "type": "function"
    },
    {
      "inputs": [],
      "name": "decimals",
      "outputs": [
        {
          "internalType": "uint8",
          "name": "",
          "type": "uint8"
        }
      ],
      "stateMutability": "view",
      "type": "function"
    },
    {
      "inputs": [
        {
          "internalType": "address",
          "name": "spender",
          "type": "address"
        },
        {
          "internalType": "uint256",
          "name": "subtractedValue",
          "type": "uint256"
        }
      ],
      "name": "decreaseAllowance",
      "outputs": [
        {
          "internalType": "bool",
          "name": "",
          "type": "bool"
        }
      ],
      "stateMutability": "nonpayable",
      "type": "function"
    },
    {
      "inputs": [],
      "name": "delegationInstance",
      "outputs": [
        {
          "internalType": "contract Delegation",
          "name": "",
          "type": "address"
        }
      ],
      "stateMutability": "view",
      "type": "function"
    },
    {
      "inputs": [
        {
          "internalType": "address",
          "name": "_delegator",
          "type": "address"
        },
        {
          "internalType": "uint256",
          "name": "_slot",
          "type": "uint256"
        },
        {
          "internalType": "uint256",
          "name": "_amount",
          "type": "uint256"
        }
      ],
      "name": "fundDelegation",
      "outputs": [
        {
          "internalType": "contract Delegation",
          "name": "",
          "type": "address"
        }
      ],
      "stateMutability": "nonpayable",
      "type": "function"
    },
    {
      "inputs": [
        {
          "internalType": "address",
          "name": "_delegator",
          "type": "address"
        },
        {
          "internalType": "uint256",
          "name": "_slot",
          "type": "uint256"
        },
        {
          "internalType": "uint256",
          "name": "_amount",
          "type": "uint256"
        }
      ],
      "name": "fundDelegationFromStake",
      "outputs": [
        {
          "internalType": "contract Delegation",
          "name": "",
          "type": "address"
        }
      ],
      "stateMutability": "nonpayable",
      "type": "function"
    },
    {
      "inputs": [
        {
          "internalType": "address",
          "name": "_delegator",
          "type": "address"
        },
        {
          "internalType": "uint256",
          "name": "_slot",
          "type": "uint256"
        }
      ],
      "name": "getDelegation",
      "outputs": [
        {
          "internalType": "contract Delegation",
          "name": "delegation",
          "type": "address"
        },
        {
          "internalType": "address",
          "name": "delegatee",
          "type": "address"
        },
        {
          "internalType": "uint256",
          "name": "balance",
          "type": "uint256"
        },
        {
          "internalType": "uint256",
          "name": "lockUntil",
          "type": "uint256"
        },
        {
          "internalType": "bool",
          "name": "wasCreated",
          "type": "bool"
        }
      ],
      "stateMutability": "view",
      "type": "function"
    },
    {
      "inputs": [
        {
          "internalType": "address",
          "name": "spender",
          "type": "address"
        },
        {
          "internalType": "uint256",
          "name": "addedValue",
          "type": "uint256"
        }
      ],
      "name": "increaseAllowance",
      "outputs": [
        {
          "internalType": "bool",
          "name": "",
          "type": "bool"
        }
      ],
      "stateMutability": "nonpayable",
      "type": "function"
    },
    {
      "inputs": [
        {
          "internalType": "address",
          "name": "_delegator",
          "type": "address"
        },
        {
          "internalType": "address",
          "name": "_representative",
          "type": "address"
        }
      ],
      "name": "isRepresentativeOf",
      "outputs": [
        {
          "internalType": "bool",
          "name": "",
          "type": "bool"
        }
      ],
      "stateMutability": "view",
      "type": "function"
    },
    {
      "inputs": [
        {
          "internalType": "bytes[]",
          "name": "_data",
          "type": "bytes[]"
        }
      ],
      "name": "multicall",
      "outputs": [
        {
          "internalType": "bytes[]",
          "name": "",
          "type": "bytes[]"
        }
      ],
      "stateMutability": "nonpayable",
      "type": "function"
    },
    {
      "inputs": [],
      "name": "name",
      "outputs": [
        {
          "internalType": "string",
          "name": "",
          "type": "string"
        }
      ],
      "stateMutability": "view",
      "type": "function"
    },
    {
      "inputs": [
        {
          "internalType": "uint256",
          "name": "_amount",
          "type": "uint256"
        },
        {
          "components": [
            {
              "internalType": "uint256",
              "name": "deadline",
              "type": "uint256"
            },
            {
              "internalType": "uint8",
              "name": "v",
              "type": "uint8"
            },
            {
              "internalType": "bytes32",
              "name": "r",
              "type": "bytes32"
            },
            {
              "internalType": "bytes32",
              "name": "s",
              "type": "bytes32"
            }
          ],
          "internalType": "struct PermitAndMulticall.Signature",
          "name": "_permitSignature",
          "type": "tuple"
        },
        {
          "internalType": "bytes[]",
          "name": "_data",
          "type": "bytes[]"
        }
      ],
      "name": "permitAndMulticall",
      "outputs": [],
      "stateMutability": "nonpayable",
      "type": "function"
    },
    {
      "inputs": [
        {
          "internalType": "address",
          "name": "_representative",
          "type": "address"
        },
        {
          "internalType": "bool",
          "name": "_set",
          "type": "bool"
        }
      ],
      "name": "setRepresentative",
      "outputs": [],
      "stateMutability": "nonpayable",
      "type": "function"
    },
    {
      "inputs": [
        {
          "internalType": "address",
          "name": "_to",
          "type": "address"
        },
        {
          "internalType": "uint256",
          "name": "_amount",
          "type": "uint256"
        }
      ],
      "name": "stake",
      "outputs": [],
      "stateMutability": "nonpayable",
      "type": "function"
    },
    {
      "inputs": [],
      "name": "symbol",
      "outputs": [
        {
          "internalType": "string",
          "name": "",
          "type": "string"
        }
      ],
      "stateMutability": "view",
      "type": "function"
    },
    {
      "inputs": [],
      "name": "ticket",
      "outputs": [
        {
          "internalType": "contract ITicket",
          "name": "",
          "type": "address"
        }
      ],
      "stateMutability": "view",
      "type": "function"
    },
    {
      "inputs": [],
      "name": "totalSupply",
      "outputs": [
        {
          "internalType": "uint256",
          "name": "",
          "type": "uint256"
        }
      ],
      "stateMutability": "view",
      "type": "function"
    },
    {
      "inputs": [
        {
          "internalType": "address",
          "name": "to",
          "type": "address"
        },
        {
          "internalType": "uint256",
          "name": "amount",
          "type": "uint256"
        }
      ],
      "name": "transfer",
      "outputs": [
        {
          "internalType": "bool",
          "name": "",
          "type": "bool"
        }
      ],
      "stateMutability": "nonpayable",
      "type": "function"
    },
    {
      "inputs": [
        {
          "internalType": "uint256",
          "name": "_slot",
          "type": "uint256"
        },
        {
          "internalType": "uint256",
          "name": "_amount",
          "type": "uint256"
        },
        {
          "internalType": "address",
          "name": "_to",
          "type": "address"
        }
      ],
      "name": "transferDelegationTo",
      "outputs": [
        {
          "internalType": "contract Delegation",
          "name": "",
          "type": "address"
        }
      ],
      "stateMutability": "nonpayable",
      "type": "function"
    },
    {
      "inputs": [
        {
          "internalType": "address",
          "name": "from",
          "type": "address"
        },
        {
          "internalType": "address",
          "name": "to",
          "type": "address"
        },
        {
          "internalType": "uint256",
          "name": "amount",
          "type": "uint256"
        }
      ],
      "name": "transferFrom",
      "outputs": [
        {
          "internalType": "bool",
          "name": "",
          "type": "bool"
        }
      ],
      "stateMutability": "nonpayable",
      "type": "function"
    },
    {
      "inputs": [
        {
          "internalType": "address",
          "name": "_to",
          "type": "address"
        },
        {
          "internalType": "uint256",
          "name": "_amount",
          "type": "uint256"
        }
      ],
      "name": "unstake",
      "outputs": [],
      "stateMutability": "nonpayable",
      "type": "function"
    },
    {
      "inputs": [
        {
          "internalType": "address",
          "name": "_delegator",
          "type": "address"
        },
        {
          "internalType": "uint256",
          "name": "_slot",
          "type": "uint256"
        },
        {
          "internalType": "address",
          "name": "_delegatee",
          "type": "address"
        },
        {
          "internalType": "uint96",
          "name": "_lockDuration",
          "type": "uint96"
        }
      ],
      "name": "updateDelegatee",
      "outputs": [
        {
          "internalType": "contract Delegation",
          "name": "",
          "type": "address"
        }
      ],
      "stateMutability": "nonpayable",
      "type": "function"
    },
    {
      "inputs": [
        {
          "internalType": "address",
          "name": "_delegator",
          "type": "address"
        },
        {
          "internalType": "uint256",
          "name": "_slot",
          "type": "uint256"
        },
        {
          "internalType": "uint256",
          "name": "_amount",
          "type": "uint256"
        }
      ],
      "name": "withdrawDelegationToStake",
      "outputs": [
        {
          "internalType": "contract Delegation",
          "name": "",
          "type": "address"
        }
      ],
      "stateMutability": "nonpayable",
      "type": "function"
    }
  ],
  "transactionHash": "0x13d48a2d979a13b85848e84e29e9e520f3175dd2fccd481481db3c225c348aac",
  "args": [
    "PoolTogether Staked aUSDC Ticket",
    "stkPTaUSDC",
    "0x0C8a87436dd0f97F28bF46F330802DfD36aAB155"
  ],
  "numDeployments": 1,
  "solcInputHash": "553ce2acd27a11562243083621af8eb1",
  "bytecode": "0x60a06040523480156200001157600080fd5b506040516200389238038062003892833981016040819052620000349162000317565b8251839083906200004d906003906020850190620001ac565b50805162000063906004906020840190620001ac565b50505060405162000074906200023b565b604051809103906000f08015801562000091573d6000803e3d6000fd5b50600580546001600160a01b0319166001600160a01b0392909216918217905560405163909f1cad60e01b81526000600482015263909f1cad90602401600060405180830381600087803b158015620000e957600080fd5b505af1158015620000fe573d6000803e3d6000fd5b505050506001600160a01b0381166200015d5760405162461bcd60e51b815260206004820181905260248201527f5457414244656c656761746f722f7469636b2d6e6f742d7a65726f2d61646472604482015260640160405180910390fd5b6001600160601b0319606082901b166080526040516001600160a01b038216907f9f9d59c87dbdc6ca82d9e5924782004b9aebc366c505c0ccab12f61e2a9f332190600090a2505050620003f7565b828054620001ba90620003a4565b90600052602060002090601f016020900481019282620001de576000855562000229565b82601f10620001f957805160ff191683800117855562000229565b8280016001018555821562000229579182015b82811115620002295782518255916020019190600101906200020c565b506200023792915062000249565b5090565b6107fc806200309683390190565b5b808211156200023757600081556001016200024a565b600082601f8301126200027257600080fd5b81516001600160401b03808211156200028f576200028f620003e1565b604051601f8301601f19908116603f01168101908282118183101715620002ba57620002ba620003e1565b81604052838152602092508683858801011115620002d757600080fd5b600091505b83821015620002fb5785820183015181830184015290820190620002dc565b838211156200030d5760008385830101525b9695505050505050565b6000806000606084860312156200032d57600080fd5b83516001600160401b03808211156200034557600080fd5b620003538783880162000260565b945060208601519150808211156200036a57600080fd5b50620003798682870162000260565b604086015190935090506001600160a01b03811681146200039957600080fd5b809150509250925092565b600181811c90821680620003b957607f821691505b60208210811415620003db57634e487b7160e01b600052602260045260246000fd5b50919050565b634e487b7160e01b600052604160045260246000fd5b60805160601c612c4162000455600039600081816102e4015281816104c4015281816105c8015281816107a001528181610c8e01528181610d3001528181610df001528181610ea701528181610ff0015261201a0152612c416000f3fe608060405234801561001057600080fd5b50600436106101c45760003560e01c8063889de805116100f9578063ac9650d811610097578063ca40edf111610071578063ca40edf114610418578063dd62ed3e14610460578063e18fa6eb14610499578063e7880ae1146104ac57600080fd5b8063ac9650d8146103d2578063adc9772e146103f2578063c2a672e01461040557600080fd5b806395d89b41116100d357806395d89b4114610391578063982b1f2f14610399578063a457c2d7146103ac578063a9059cbb146103bf57600080fd5b8063889de8051461032f5780638b4b4ec91461034257806390ab08851461035557600080fd5b80635f66501111610166578063666f7af611610140578063666f7af6146102b95780636c59f295146102cc5780636cc25db7146102df57806370a082311461030657600080fd5b80635f6650111461027157806363fc611f1461029c57806365a5d5f0146102af57600080fd5b806318160ddd116101a257806318160ddd1461021f57806323b872dd14610231578063313ce56714610244578063395093511461025e57600080fd5b806306452792146101c957806306fdde03146101de578063095ea7b3146101fc575b600080fd5b6101dc6101d73660046127df565b6104bf565b005b6101e66104f2565b6040516101f391906129fc565b60405180910390f35b61020f61020a36600461259a565b610584565b60405190151581526020016101f3565b6002545b6040519081526020016101f3565b61020f61023f36600461252b565b61059e565b61024c6105c4565b60405160ff90911681526020016101f3565b61020f61026c36600461259a565b61065c565b61028461027f366004612619565b61069b565b6040516001600160a01b0390911681526020016101f3565b600554610284906001600160a01b031681565b61022362ed4e0081565b6102846102c7366004612619565b61071f565b6102846102da3660046125c6565b61080e565b6102847f000000000000000000000000000000000000000000000000000000000000000081565b6102236103143660046124b8565b6001600160a01b031660009081526020819052604090205490565b61028461033d3660046125c6565b610954565b610284610350366004612845565b610a4f565b61020f6103633660046124f2565b6001600160a01b03918216600090815260066020908152604080832093909416825291909152205460ff1690565b6101e6610ab9565b6101dc6103a736600461256c565b610ac8565b61020f6103ba36600461259a565b610ba9565b61020f6103cd36600461259a565b610c5e565b6103e56103e036600461264e565b610c6c565b6040516101f3919061291d565b6101dc61040036600461259a565b610c78565b6101dc61041336600461259a565b610d07565b61042b61042636600461259a565b610d94565b604080516001600160a01b0396871681529590941660208601529284019190915260608301521515608082015260a0016101f3565b61022361046e3660046124f2565b6001600160a01b03918216600090815260016020908152604080832093909416825291909152205490565b6102846104a7366004612619565b610fb7565b6102846104ba36600461259a565b61105d565b6104ec7f000000000000000000000000000000000000000000000000000000000000000085858585611069565b50505050565b60606003805461050190612b00565b80601f016020809104026020016040519081016040528092919081815260200182805461052d90612b00565b801561057a5780601f1061054f5761010080835404028352916020019161057a565b820191906000526020600020905b81548152906001019060200180831161055d57829003601f168201915b5050505050905090565b600033610592818585611141565b60019150505b92915050565b6000336105ac858285611299565b6105b7858585611325565b60019150505b9392505050565b60007f00000000000000000000000000000000000000000000000000000000000000006001600160a01b031663313ce5676040518163ffffffff1660e01b815260040160206040518083038186803b15801561061f57600080fd5b505afa158015610633573d6000803e3d6000fd5b505050506040513d601f19601f82011682018060405250810190610657919061289b565b905090565b3360008181526001602090815260408083206001600160a01b03871684529091528120549091906105929082908690610696908790612aa5565b611141565b60006106a68461153c565b60006106b285856115c5565b90506106bf81308561161b565b6106c9858461163d565b336001600160a01b031684866001600160a01b03167f6862a473baa6176f1c866c69aa93da8508d7afc71b52dddc9d5e8b0bb7aab6f48660405161070f91815260200190565b60405180910390a4949350505050565b60006001600160a01b03841661077c5760405162461bcd60e51b815260206004820181905260248201527f5457414244656c656761746f722f646c6774722d6e6f742d7a65726f2d61647260448201526064015b60405180910390fd5b61078582611715565b600061079185856115c5565b90506107c86001600160a01b037f000000000000000000000000000000000000000000000000000000000000000016338386611765565b336001600160a01b031684866001600160a01b03167f383183291bd9a7fb8bd9c7c86c5013a89d1490c9f4e486da279804b83729a1dc8660405161070f91815260200190565b60006108198561153c565b61082283611816565b610839826bffffffffffffffffffffffff1661186c565b600061084586866115c5565b9050610850816118bf565b4283016bffffffffffffffffffffffff8416156108e8576040517fac2293af0000000000000000000000000000000000000000000000000000000081526bffffffffffffffffffffffff821660048201526001600160a01b0383169063ac2293af90602401600060405180830381600087803b1580156108cf57600080fd5b505af11580156108e3573d6000803e3d6000fd5b505050505b6108f2828661198d565b604080516bffffffffffffffffffffffff831681523360208201526001600160a01b03808816928992918b16917ffd96a87f22afea1e17a7117a4923f1499a1c1eb2bd7c492caf07f3a3c38ade6f910160405180910390a45095945050505050565b600061095f8561153c565b61096883611816565b61097f826bffffffffffffffffffffffff1661186c565b42820160006109d96109d388886040516bffffffffffffffffffffffff19606084901b1660208201526034810182905260009060540160405160208183030381529060405280519060200120905092915050565b83611a13565b90506109e5818661198d565b604080516bffffffffffffffffffffffff841681526001600160a01b03838116602083015233828401529151878316928992908b16917f5533acb96061e404278604d3df68397263be1d4b9df394136a2968802633d8a59181900360600190a49695505050505050565b6000610a5a82611ab9565b6000610a6633866115c5565b9050610a7381848661161b565b826001600160a01b031685336001600160a01b03167f622b7da8a20026f1176ccc7ec0a635a4544a67e99b0125018e3d89b888ce8ebe8760405161070f91815260200190565b60606004805461050190612b00565b6001600160a01b038216610b1e5760405162461bcd60e51b815260206004820152601f60248201527f5457414244656c656761746f722f7265702d6e6f742d7a65726f2d61646472006044820152606401610773565b3360008181526006602090815260408083206001600160a01b0387168085529083529281902080547fffffffffffffffffffffffffffffffffffffffffffffffffffffffffffffff001686151590811790915590519081529192917f50062a33e55b9f3dfcf05fbf1356b7c92313796cfb8526cdee5a497fcbb8cc3391015b60405180910390a35050565b3360008181526001602090815260408083206001600160a01b038716845290915281205490919083811015610c465760405162461bcd60e51b815260206004820152602560248201527f45524332303a2064656372656173656420616c6c6f77616e63652062656c6f7760448201527f207a65726f0000000000000000000000000000000000000000000000000000006064820152608401610773565b610c538286868403611141565b506001949350505050565b600033610592818585611325565b60606105bd8383611b0f565b610c8181611715565b610cb66001600160a01b037f000000000000000000000000000000000000000000000000000000000000000016333084611765565b610cc0828261163d565b816001600160a01b03167f15c2c6e5db9e25d828754c9c5cee6c5c3df074e6ac26e7491c0f8ce7bbd447d682604051610cfb91815260200190565b60405180910390a25050565b610d1082611ab9565b610d1981611715565b610d233382611c09565b610d576001600160a01b037f0000000000000000000000000000000000000000000000000000000000000000168383611d8e565b6040518181526001600160a01b0383169033907ff7128607975b3ff61bc02d19a1c8267e526f7a5b7144dc4efcdac634663fd36990602001610b9d565b6000806000806000610da687876115c5565b94506001600160a01b0385163b15156040517f8d22ea2a0000000000000000000000000000000000000000000000000000000081526001600160a01b0387811660048301529192507f000000000000000000000000000000000000000000000000000000000000000090911690638d22ea2a9060240160206040518083038186803b158015610e3457600080fd5b505afa158015610e48573d6000803e3d6000fd5b505050506040513d601f19601f82011682018060405250810190610e6c91906124d5565b6040517f70a082310000000000000000000000000000000000000000000000000000000081526001600160a01b0387811660048301529195507f0000000000000000000000000000000000000000000000000000000000000000909116906370a082319060240160206040518083038186803b158015610eeb57600080fd5b505afa158015610eff573d6000803e3d6000fd5b505050506040513d601f19601f82011682018060405250810190610f2391906127c6565b92508015610fad57846001600160a01b0316633c78929e6040518163ffffffff1660e01b815260040160206040518083038186803b158015610f6457600080fd5b505afa158015610f78573d6000803e3d6000fd5b505050506040513d601f19601f82011682018060405250810190610f9c91906128b8565b6bffffffffffffffffffffffff1691505b9295509295909350565b6000610fc28461153c565b610fcb82611715565b6000610fd785856115c5565b9050610fe38584611c09565b6110176001600160a01b037f0000000000000000000000000000000000000000000000000000000000000000168285611d8e565b336001600160a01b031684866001600160a01b03167fb1968721eeb35d2206c8aa91805bc908019965ff4cff13c158f89956fb8e92488660405161070f91815260200190565b60006105bd83836115c5565b6001600160a01b03851663d505accf333087873561108d60408a0160208b0161287e565b604080517fffffffff0000000000000000000000000000000000000000000000000000000060e089901b1681526001600160a01b0396871660048201529590941660248601526044850192909252606484015260ff16608483015286013560a4820152606086013560c482015260e401600060405180830381600087803b15801561111757600080fd5b505af115801561112b573d6000803e3d6000fd5b505050506111398282611b0f565b505050505050565b6001600160a01b0383166111bc5760405162461bcd60e51b8152602060048201526024808201527f45524332303a20617070726f76652066726f6d20746865207a65726f2061646460448201527f72657373000000000000000000000000000000000000000000000000000000006064820152608401610773565b6001600160a01b0382166112385760405162461bcd60e51b815260206004820152602260248201527f45524332303a20617070726f766520746f20746865207a65726f20616464726560448201527f73730000000000000000000000000000000000000000000000000000000000006064820152608401610773565b6001600160a01b0383811660008181526001602090815260408083209487168084529482529182902085905590518481527f8c5be1e5ebec7d5bd14f71427d1e84f3dd0314c0f7b2291e5b200ac8c7c3b925910160405180910390a3505050565b6001600160a01b0383811660009081526001602090815260408083209386168352929052205460001981146104ec57818110156113185760405162461bcd60e51b815260206004820152601d60248201527f45524332303a20696e73756666696369656e7420616c6c6f77616e63650000006044820152606401610773565b6104ec8484848403611141565b6001600160a01b0383166113a15760405162461bcd60e51b815260206004820152602560248201527f45524332303a207472616e736665722066726f6d20746865207a65726f20616460448201527f64726573730000000000000000000000000000000000000000000000000000006064820152608401610773565b6001600160a01b03821661141d5760405162461bcd60e51b815260206004820152602360248201527f45524332303a207472616e7366657220746f20746865207a65726f206164647260448201527f65737300000000000000000000000000000000000000000000000000000000006064820152608401610773565b6001600160a01b038316600090815260208190526040902054818110156114ac5760405162461bcd60e51b815260206004820152602660248201527f45524332303a207472616e7366657220616d6f756e742065786365656473206260448201527f616c616e636500000000000000000000000000000000000000000000000000006064820152608401610773565b6001600160a01b038085166000908152602081905260408082208585039055918516815290812080548492906114e3908490612aa5565b92505081905550826001600160a01b0316846001600160a01b03167fddf252ad1be2c89b69c2b068fc378daa952ba7f163c4a11628f55a4df523b3ef8460405161152f91815260200190565b60405180910390a36104ec565b6001600160a01b03811633148061157657506001600160a01b038116600090815260066020908152604080832033845290915290205460ff165b6115c25760405162461bcd60e51b815260206004820152601e60248201527f5457414244656c656761746f722f6e6f742d646c6774722d6f722d72657000006044820152606401610773565b50565b60006105bd61161684846040516bffffffffffffffffffffffff19606084901b1660208201526034810182905260009060540160405160208183030381529060405280519060200120905092915050565b611dd7565b61162481611715565b61162d836118bf565b611638838383611e60565b505050565b6001600160a01b0382166116935760405162461bcd60e51b815260206004820152601f60248201527f45524332303a206d696e7420746f20746865207a65726f2061646472657373006044820152606401610773565b80600260008282546116a59190612aa5565b90915550506001600160a01b038216600090815260208190526040812080548392906116d2908490612aa5565b90915550506040518181526001600160a01b038316906000907fddf252ad1be2c89b69c2b068fc378daa952ba7f163c4a11628f55a4df523b3ef90602001610b9d565b600081116115c25760405162461bcd60e51b815260206004820152601c60248201527f5457414244656c656761746f722f616d6f756e742d67742d7a65726f000000006044820152606401610773565b6040516001600160a01b03808516602483015283166044820152606481018290526104ec9085907f23b872dd00000000000000000000000000000000000000000000000000000000906084015b60408051601f198184030181529190526020810180517bffffffffffffffffffffffffffffffffffffffffffffffffffffffff167fffffffff0000000000000000000000000000000000000000000000000000000090931692909217909152611ee3565b6001600160a01b0381166115c25760405162461bcd60e51b815260206004820181905260248201527f5457414244656c656761746f722f646c67742d6e6f742d7a65726f2d616464726044820152606401610773565b62ed4e008111156115c25760405162461bcd60e51b815260206004820152601b60248201527f5457414244656c656761746f722f6c6f636b2d746f6f2d6c6f6e6700000000006044820152606401610773565b806001600160a01b0316633c78929e6040518163ffffffff1660e01b815260040160206040518083038186803b1580156118f857600080fd5b505afa15801561190c573d6000803e3d6000fd5b505050506040513d601f19601f8201168201806040525081019061193091906128b8565b6bffffffffffffffffffffffff164210156115c25760405162461bcd60e51b815260206004820152601f60248201527f5457414244656c656761746f722f64656c65676174696f6e2d6c6f636b6564006044820152606401610773565b604080516001600160a01b0383166024808301919091528251808303909101815260449091019091526020810180517bffffffffffffffffffffffffffffffffffffffffffffffffffffffff167f5c19a95c0000000000000000000000000000000000000000000000000000000090811790915290611a0c8482611fc8565b5050505050565b6005546000908190611a2e906001600160a01b03168561210c565b6040517f909f1cad0000000000000000000000000000000000000000000000000000000081526bffffffffffffffffffffffff851660048201529091506001600160a01b0382169063909f1cad90602401600060405180830381600087803b158015611a9957600080fd5b505af1158015611aad573d6000803e3d6000fd5b50929695505050505050565b6001600160a01b0381166115c25760405162461bcd60e51b815260206004820152601e60248201527f5457414244656c656761746f722f746f2d6e6f742d7a65726f2d6164647200006044820152606401610773565b60608160008167ffffffffffffffff811115611b2d57611b2d612b82565b604051908082528060200260200182016040528015611b6057816020015b6060815260200190600190039081611b4b5790505b50905060005b82811015611c0057611bd030878784818110611b8457611b84612b6c565b9050602002810190611b969190612a0f565b8080601f0160208091040260200160405190810160405280939291908181526020018383808284376000920191909152506121c392505050565b828281518110611be257611be2612b6c565b60200260200101819052508080611bf890612b3b565b915050611b66565b50949350505050565b6001600160a01b038216611c855760405162461bcd60e51b815260206004820152602160248201527f45524332303a206275726e2066726f6d20746865207a65726f2061646472657360448201527f73000000000000000000000000000000000000000000000000000000000000006064820152608401610773565b6001600160a01b03821660009081526020819052604090205481811015611d145760405162461bcd60e51b815260206004820152602260248201527f45524332303a206275726e20616d6f756e7420657863656564732062616c616e60448201527f63650000000000000000000000000000000000000000000000000000000000006064820152608401610773565b6001600160a01b0383166000908152602081905260408120838303905560028054849290611d43908490612abd565b90915550506040518281526000906001600160a01b038516907fddf252ad1be2c89b69c2b068fc378daa952ba7f163c4a11628f55a4df523b3ef9060200160405180910390a3505050565b6040516001600160a01b0383166024820152604481018290526116389084907fa9059cbb00000000000000000000000000000000000000000000000000000000906064016117b2565b600554600090610598906001600160a01b031683306040517f3d602d80600a3d3981f3363d3d373d3d3d363d730000000000000000000000008152606093841b60148201527f5af43d82803e903d91602b57fd5bf3ff000000000000000000000000000000006028820152921b6038830152604c8201526037808220606c830152605591012090565b604080516001600160a01b038416602482015260448082018490528251808303909101815260649091019091526020810180517bffffffffffffffffffffffffffffffffffffffffffffffffffffffff167fa9059cbb00000000000000000000000000000000000000000000000000000000908117909152906111398582611fc8565b6000611f38826040518060400160405280602081526020017f5361666545524332303a206c6f772d6c6576656c2063616c6c206661696c6564815250856001600160a01b03166121e89092919063ffffffff16565b8051909150156116385780806020019051810190611f5691906127a9565b6116385760405162461bcd60e51b815260206004820152602a60248201527f5361666545524332303a204552433230206f7065726174696f6e20646964206e60448201527f6f742073756363656564000000000000000000000000000000000000000000006064820152608401610773565b60408051600180825281830190925260609160009190816020015b604080518082019091526000815260606020820152815260200190600190039081611fe357905050905060405180604001604052807f00000000000000000000000000000000000000000000000000000000000000006001600160a01b03168152602001848152508160008151811061205e5761205e612b6c565b60209081029190910101526040517fde9443bf0000000000000000000000000000000000000000000000000000000081526001600160a01b0385169063de9443bf906120ae90849060040161297f565b600060405180830381600087803b1580156120c857600080fd5b505af11580156120dc573d6000803e3d6000fd5b505050506040513d6000823e601f3d908101601f191682016040526121049190810190612690565b949350505050565b60006040517f3d602d80600a3d3981f3363d3d373d3d3d363d7300000000000000000000000081528360601b60148201527f5af43d82803e903d91602b57fd5bf300000000000000000000000000000000006028820152826037826000f59150506001600160a01b0381166105985760405162461bcd60e51b815260206004820152601760248201527f455243313136373a2063726561746532206661696c65640000000000000000006044820152606401610773565b60606105bd8383604051806060016040528060278152602001612be5602791396121f7565b606061210484846000856122eb565b60606001600160a01b0384163b6122765760405162461bcd60e51b815260206004820152602660248201527f416464726573733a2064656c65676174652063616c6c20746f206e6f6e2d636f60448201527f6e747261637400000000000000000000000000000000000000000000000000006064820152608401610773565b600080856001600160a01b0316856040516122919190612901565b600060405180830381855af49150503d80600081146122cc576040519150601f19603f3d011682016040523d82523d6000602084013e6122d1565b606091505b50915091506122e1828286612433565b9695505050505050565b6060824710156123635760405162461bcd60e51b815260206004820152602660248201527f416464726573733a20696e73756666696369656e742062616c616e636520666f60448201527f722063616c6c00000000000000000000000000000000000000000000000000006064820152608401610773565b6001600160a01b0385163b6123ba5760405162461bcd60e51b815260206004820152601d60248201527f416464726573733a2063616c6c20746f206e6f6e2d636f6e74726163740000006044820152606401610773565b600080866001600160a01b031685876040516123d69190612901565b60006040518083038185875af1925050503d8060008114612413576040519150601f19603f3d011682016040523d82523d6000602084013e612418565b606091505b5091509150612428828286612433565b979650505050505050565b606083156124425750816105bd565b8251156124525782518084602001fd5b8160405162461bcd60e51b815260040161077391906129fc565b60008083601f84011261247e57600080fd5b50813567ffffffffffffffff81111561249657600080fd5b6020830191508360208260051b85010111156124b157600080fd5b9250929050565b6000602082840312156124ca57600080fd5b81356105bd81612b98565b6000602082840312156124e757600080fd5b81516105bd81612b98565b6000806040838503121561250557600080fd5b823561251081612b98565b9150602083013561252081612b98565b809150509250929050565b60008060006060848603121561254057600080fd5b833561254b81612b98565b9250602084013561255b81612b98565b929592945050506040919091013590565b6000806040838503121561257f57600080fd5b823561258a81612b98565b9150602083013561252081612bad565b600080604083850312156125ad57600080fd5b82356125b881612b98565b946020939093013593505050565b600080600080608085870312156125dc57600080fd5b84356125e781612b98565b93506020850135925060408501356125fe81612b98565b9150606085013561260e81612bca565b939692955090935050565b60008060006060848603121561262e57600080fd5b833561263981612b98565b95602085013595506040909401359392505050565b6000806020838503121561266157600080fd5b823567ffffffffffffffff81111561267857600080fd5b6126848582860161246c565b90969095509350505050565b600060208083850312156126a357600080fd5b825167ffffffffffffffff808211156126bb57600080fd5b8185019150601f86818401126126d057600080fd5b8251828111156126e2576126e2612b82565b8060051b6126f1868201612a74565b8281528681019086880183880189018c101561270c57600080fd5b600093505b8484101561279a5780518781111561272857600080fd5b8801603f81018d1361273957600080fd5b8981015160408982111561274f5761274f612b82565b6127608c601f198b85011601612a74565b8281528f8284860101111561277457600080fd5b612783838e8301848701612ad4565b865250505060019390930192918801918801612711565b509a9950505050505050505050565b6000602082840312156127bb57600080fd5b81516105bd81612bad565b6000602082840312156127d857600080fd5b5051919050565b60008060008084860360c08112156127f657600080fd5b853594506080601f198201121561280c57600080fd5b5060208501925060a085013567ffffffffffffffff81111561282d57600080fd5b6128398782880161246c565b95989497509550505050565b60008060006060848603121561285a57600080fd5b8335925060208401359150604084013561287381612b98565b809150509250925092565b60006020828403121561289057600080fd5b81356105bd81612bbb565b6000602082840312156128ad57600080fd5b81516105bd81612bbb565b6000602082840312156128ca57600080fd5b81516105bd81612bca565b600081518084526128ed816020860160208601612ad4565b601f01601f19169290920160200192915050565b60008251612913818460208701612ad4565b9190910192915050565b6000602080830181845280855180835260408601915060408160051b870101925083870160005b8281101561297257603f198886030184526129608583516128d5565b94509285019290850190600101612944565b5092979650505050505050565b60006020808301818452808551808352604092508286019150828160051b87010184880160005b838110156129ee57888303603f19018552815180516001600160a01b031684528701518784018790526129db878501826128d5565b95880195935050908601906001016129a6565b509098975050505050505050565b6020815260006105bd60208301846128d5565b60008083357fffffffffffffffffffffffffffffffffffffffffffffffffffffffffffffffe1843603018112612a4457600080fd5b83018035915067ffffffffffffffff821115612a5f57600080fd5b6020019150368190038213156124b157600080fd5b604051601f8201601f1916810167ffffffffffffffff81118282101715612a9d57612a9d612b82565b604052919050565b60008219821115612ab857612ab8612b56565b500190565b600082821015612acf57612acf612b56565b500390565b60005b83811015612aef578181015183820152602001612ad7565b838111156104ec5750506000910152565b600181811c90821680612b1457607f821691505b60208210811415612b3557634e487b7160e01b600052602260045260246000fd5b50919050565b6000600019821415612b4f57612b4f612b56565b5060010190565b634e487b7160e01b600052601160045260246000fd5b634e487b7160e01b600052603260045260246000fd5b634e487b7160e01b600052604160045260246000fd5b6001600160a01b03811681146115c257600080fd5b80151581146115c257600080fd5b60ff811681146115c257600080fd5b6bffffffffffffffffffffffff811681146115c257600080fdfe416464726573733a206c6f772d6c6576656c2064656c65676174652063616c6c206661696c6564a2646970667358221220eaa276041816cc3d6c433f3388c3e693963f13496cb2cf334f483aba072d983364736f6c63430008060033608060405234801561001057600080fd5b506107dc806100206000396000f3fe608060405234801561001057600080fd5b506004361061004c5760003560e01c80633c78929e14610051578063909f1cad146100a3578063ac2293af146100b8578063de9443bf146100cb575b600080fd5b600054610081907401000000000000000000000000000000000000000090046bffffffffffffffffffffffff1681565b6040516bffffffffffffffffffffffff90911681526020015b60405180910390f35b6100b66100b136600461049e565b6100eb565b005b6100b66100c636600461049e565b610182565b6100de6100d9366004610429565b610234565b60405161009a919061051b565b60005473ffffffffffffffffffffffffffffffffffffffff16156101565760405162461bcd60e51b815260206004820152601760248201527f44656c65676174696f6e2f616c72656164792d696e697400000000000000000060448201526064015b60405180910390fd5b6bffffffffffffffffffffffff1674010000000000000000000000000000000000000000023317600055565b60005473ffffffffffffffffffffffffffffffffffffffff1633146101e95760405162461bcd60e51b815260206004820152601560248201527f44656c65676174696f6e2f6f6e6c792d6f776e65720000000000000000000000604482015260640161014d565b600080546bffffffffffffffffffffffff909216740100000000000000000000000000000000000000000273ffffffffffffffffffffffffffffffffffffffff909216919091179055565b60005460609073ffffffffffffffffffffffffffffffffffffffff16331461029e5760405162461bcd60e51b815260206004820152601560248201527f44656c65676174696f6e2f6f6e6c792d6f776e65720000000000000000000000604482015260640161014d565b8160008167ffffffffffffffff8111156102ba576102ba610790565b6040519080825280602002602001820160405280156102ed57816020015b60608152602001906001900390816102d85790505b5060408051808201909152600081526060602082015290915060005b83811015610382578686828181106103235761032361077a565b905060200281019061033591906105ae565b61033e9061063c565b91506103528260000151836020015161038d565b8382815181106103645761036461077a565b6020026020010181905250808061037a90610733565b915050610309565b509095945050505050565b60606000808473ffffffffffffffffffffffffffffffffffffffff166000856040516103b991906104ff565b60006040518083038185875af1925050503d80600081146103f6576040519150601f19603f3d011682016040523d82523d6000602084013e6103fb565b606091505b50915091508181906104205760405162461bcd60e51b815260040161014d919061059b565b50949350505050565b6000806020838503121561043c57600080fd5b823567ffffffffffffffff8082111561045457600080fd5b818501915085601f83011261046857600080fd5b81358181111561047757600080fd5b8660208260051b850101111561048c57600080fd5b60209290920196919550909350505050565b6000602082840312156104b057600080fd5b81356bffffffffffffffffffffffff811681146104cc57600080fd5b9392505050565b600081518084526104eb816020860160208601610703565b601f01601f19169290920160200192915050565b60008251610511818460208701610703565b9190910192915050565b6000602080830181845280855180835260408601915060408160051b870101925083870160005b8281101561058e577fffffffffffffffffffffffffffffffffffffffffffffffffffffffffffffffc088860301845261057c8583516104d3565b94509285019290850190600101610542565b5092979650505050505050565b6020815260006104cc60208301846104d3565b600082357fffffffffffffffffffffffffffffffffffffffffffffffffffffffffffffffc183360301811261051157600080fd5b6040805190810167ffffffffffffffff8111828210171561060557610605610790565b60405290565b604051601f8201601f1916810167ffffffffffffffff8111828210171561063457610634610790565b604052919050565b60006040823603121561064e57600080fd5b6106566105e2565b823573ffffffffffffffffffffffffffffffffffffffff8116811461067a57600080fd5b815260208381013567ffffffffffffffff8082111561069857600080fd5b9085019036601f8301126106ab57600080fd5b8135818111156106bd576106bd610790565b6106cf84601f19601f8401160161060b565b915080825236848285010111156106e557600080fd5b80848401858401376000908201840152918301919091525092915050565b60005b8381101561071e578181015183820152602001610706565b8381111561072d576000848401525b50505050565b60007fffffffffffffffffffffffffffffffffffffffffffffffffffffffffffffffff82141561077357634e487b7160e01b600052601160045260246000fd5b5060010190565b634e487b7160e01b600052603260045260246000fd5b634e487b7160e01b600052604160045260246000fdfea2646970667358221220e12294174ea821f82c2a1f83c4f824acb92d2de0e672f2347c9eb5611a26a93564736f6c63430008060033",
  "devdoc": {
    "events": {
      "DelegateeUpdated(address,uint256,address,uint96,address)": {
        "params": {
          "delegatee": "Address of the delegatee",
          "delegator": "Address of the delegator",
          "lockUntil": "Timestamp until which the delegation is locked",
          "slot": "Slot of the delegation",
          "user": "Address of the user who updated the delegatee"
        }
      },
      "DelegationCreated(address,uint256,uint96,address,address,address)": {
        "params": {
          "delegatee": "Address of the delegatee",
          "delegation": "Address of the delegation that was created",
          "delegator": "Delegator of the delegation",
          "lockUntil": "Timestamp until which the delegation is locked",
          "slot": "Slot of the delegation",
          "user": "Address of the user who created the delegation"
        }
      },
      "DelegationFunded(address,uint256,uint256,address)": {
        "params": {
          "amount": "Amount of tickets that were sent to the delegation",
          "delegator": "Address of the delegator",
          "slot": "Slot of the delegation",
          "user": "Address of the user who funded the delegation"
        }
      },
      "DelegationFundedFromStake(address,uint256,uint256,address)": {
        "params": {
          "amount": "Amount of tickets that were sent to the delegation",
          "delegator": "Address of the delegator",
          "slot": "Slot of the delegation",
          "user": "Address of the user who pulled funds from the delegator stake to the delegation"
        }
      },
      "RepresentativeSet(address,address,bool)": {
        "params": {
          "delegator": "Address of the delegator",
          "representative": "Address of the representative",
          "set": "Boolean indicating if the representative was set or unset"
        }
      },
      "TicketSet(address)": {
        "params": {
          "ticket": "Address of the ticket"
        }
      },
      "TicketsStaked(address,uint256)": {
        "params": {
          "amount": "Amount of tickets staked",
          "delegator": "Address of the delegator"
        }
      },
      "TicketsUnstaked(address,address,uint256)": {
        "params": {
          "amount": "Amount of tickets unstaked",
          "delegator": "Address of the delegator",
          "recipient": "Address of the recipient that will receive the tickets"
        }
      },
      "TransferredDelegation(address,uint256,uint256,address)": {
        "params": {
          "amount": "Amount of tickets withdrawn",
          "delegator": "Address of the delegator",
          "slot": "Slot of the delegation",
          "to": "Recipient address of withdrawn tickets"
        }
      },
      "WithdrewDelegationToStake(address,uint256,uint256,address)": {
        "params": {
          "amount": "Amount of tickets withdrawn",
          "delegator": "Address of the delegator",
          "slot": "Slot of the delegation",
          "user": "Address of the user who withdrew the tickets"
        }
      }
    },
    "kind": "dev",
    "methods": {
      "allowance(address,address)": {
        "details": "See {IERC20-allowance}."
      },
      "approve(address,uint256)": {
        "details": "See {IERC20-approve}. NOTE: If `amount` is the maximum `uint256`, the allowance is not updated on `transferFrom`. This is semantically equivalent to an infinite approval. Requirements: - `spender` cannot be the zero address."
      },
      "balanceOf(address)": {
        "details": "See {IERC20-balanceOf}."
      },
      "computeDelegationAddress(address,uint256)": {
        "params": {
          "_delegator": "The user who is delegating tickets",
          "_slot": "The delegation slot"
        },
        "returns": {
          "_0": "The address of the delegation.  This is the address that holds the balance of tickets."
        }
      },
      "constructor": {
        "params": {
          "_ticket": "Address of the ticket contract",
          "name_": "The name for the staked ticket token",
          "symbol_": "The symbol for the staked ticket token"
        }
      },
      "createDelegation(address,uint256,address,uint96)": {
        "details": "The `_delegator` and `_slot` params are used to compute the salt of the delegation",
        "params": {
          "_delegatee": "Address of the delegatee",
          "_delegator": "Address of the delegator that will be able to handle the delegation",
          "_lockDuration": "Duration of time for which the delegation is locked. Must be less than the max duration.",
          "_slot": "Slot of the delegation"
        },
        "returns": {
          "_0": "Returns the address of the Delegation contract that will hold the tickets"
        }
      },
      "decimals()": {
        "details": "This value is equal to the decimals of the ticket being delegated.",
        "returns": {
          "_0": "ERC20 token decimals"
        }
      },
      "decreaseAllowance(address,uint256)": {
        "details": "Atomically decreases the allowance granted to `spender` by the caller. This is an alternative to {approve} that can be used as a mitigation for problems described in {IERC20-approve}. Emits an {Approval} event indicating the updated allowance. Requirements: - `spender` cannot be the zero address. - `spender` must have allowance for the caller of at least `subtractedValue`."
      },
      "fundDelegation(address,uint256,uint256)": {
        "details": "Callable by anyone.Will revert if delegation does not exist.",
        "params": {
          "_amount": "Amount of tickets to transfer",
          "_delegator": "Address of the delegator",
          "_slot": "Slot of the delegation"
        },
        "returns": {
          "_0": "The address of the Delegation"
        }
      },
      "fundDelegationFromStake(address,uint256,uint256)": {
        "details": "Callable only by the `_delegator` or a representative.Will revert if delegation does not exist.Will revert if `_amount` is greater than the staked amount.",
        "params": {
          "_amount": "Amount of tickets to send to the delegation from the staked amount",
          "_delegator": "Address of the delegator",
          "_slot": "Slot of the delegation"
        },
        "returns": {
          "_0": "The address of the Delegation"
        }
      },
      "getDelegation(address,uint256)": {
        "params": {
          "_delegator": "The delegator address",
          "_slot": "The delegation slot they are using"
        },
        "returns": {
          "balance": "The balance of tickets in the delegation",
          "delegatee": "The address that tickets are being delegated to",
          "delegation": "The address that holds tickets for the delegation",
          "lockUntil": "The timestamp at which the delegation unlocks",
          "wasCreated": "Whether or not the delegation has been created"
        }
      },
      "increaseAllowance(address,uint256)": {
        "details": "Atomically increases the allowance granted to `spender` by the caller. This is an alternative to {approve} that can be used as a mitigation for problems described in {IERC20-approve}. Emits an {Approval} event indicating the updated allowance. Requirements: - `spender` cannot be the zero address."
      },
      "isRepresentativeOf(address,address)": {
        "params": {
          "_delegator": "The delegator",
          "_representative": "The representative to check for"
        },
        "returns": {
          "_0": "True if the rep is a rep, false otherwise"
        }
      },
      "multicall(bytes[])": {
        "params": {
          "_data": "An array of encoded function calls.  The calls must be abi-encoded calls to this contract."
        },
        "returns": {
          "_0": "The results from each function call"
        }
      },
      "name()": {
        "details": "Returns the name of the token."
      },
      "permitAndMulticall(uint256,(uint256,uint8,bytes32,bytes32),bytes[])": {
        "params": {
          "_amount": "Amount of tickets to approve",
          "_data": "Datas to call with `functionDelegateCall`",
          "_permitSignature": "Permit signature"
        }
      },
      "setRepresentative(address,bool)": {
        "details": "If `_set` is `true`, `_representative` will be set as representative of `msg.sender`.If `_set` is `false`, `_representative` will be unset as representative of `msg.sender`.",
        "params": {
          "_representative": "Address of the representative",
          "_set": "Set or unset the representative"
        }
      },
      "stake(address,uint256)": {
        "details": "Tickets can be staked on behalf of a `_to` user.",
        "params": {
          "_amount": "Amount of tickets to stake",
          "_to": "Address to which the stake will be attributed"
        }
      },
      "symbol()": {
        "details": "Returns the symbol of the token, usually a shorter version of the name."
      },
      "totalSupply()": {
        "details": "See {IERC20-totalSupply}."
      },
      "transfer(address,uint256)": {
        "details": "See {IERC20-transfer}. Requirements: - `to` cannot be the zero address. - the caller must have a balance of at least `amount`."
      },
      "transferDelegationTo(uint256,uint256,address)": {
        "details": "Tickets are sent directly to the passed `_to` address.Will revert if delegation is still locked.",
        "params": {
          "_amount": "Amount to withdraw",
          "_slot": "Slot of the delegation",
          "_to": "Account to transfer the withdrawn tickets to"
        },
        "returns": {
          "_0": "The address of the Delegation"
        }
      },
      "transferFrom(address,address,uint256)": {
        "details": "See {IERC20-transferFrom}. Emits an {Approval} event indicating the updated allowance. This is not required by the EIP. See the note at the beginning of {ERC20}. NOTE: Does not update the allowance if the current allowance is the maximum `uint256`. Requirements: - `from` and `to` cannot be the zero address. - `from` must have a balance of at least `amount`. - the caller must have allowance for ``from``'s tokens of at least `amount`."
      },
      "unstake(address,uint256)": {
        "details": "If delegator has delegated his whole stake, he will first have to withdraw from a delegation to be able to unstake.",
        "params": {
          "_amount": "Amount of tickets to unstake",
          "_to": "Address of the recipient that will receive the tickets"
        }
      },
      "updateDelegatee(address,uint256,address,uint96)": {
        "details": "Only callable by the `_delegator` or their representative.Will revert if delegation is still locked.",
        "params": {
          "_delegatee": "Address of the delegatee",
          "_delegator": "Address of the delegator",
          "_lockDuration": "Duration of time during which the delegatee cannot be changed nor withdrawn",
          "_slot": "Slot of the delegation"
        },
        "returns": {
          "_0": "The address of the Delegation"
        }
      },
      "withdrawDelegationToStake(address,uint256,uint256)": {
        "details": "Only callable by the `_delegator` or a representative.Will send the tickets to this contract and increase the `_delegator` staked amount.Will revert if delegation is still locked.",
        "params": {
          "_amount": "Amount of tickets to withdraw",
          "_delegator": "Address of the delegator",
          "_slot": "Slot of the delegation"
        },
        "returns": {
          "_0": "The address of the Delegation"
        }
      }
    },
    "stateVariables": {
      "representatives": {
        "details": "Representative can only handle delegation and cannot withdraw tickets to their wallet.delegator => representative => bool allowing representative to represent the delegator"
      }
    },
    "title": "Delegate chances to win to multiple accounts.",
    "version": 1
  },
  "userdoc": {
    "events": {
      "DelegateeUpdated(address,uint256,address,uint96,address)": {
        "notice": "Emitted when a delegatee is updated."
      },
      "DelegationCreated(address,uint256,uint96,address,address,address)": {
        "notice": "Emitted when a new delegation is created."
      },
      "DelegationFunded(address,uint256,uint256,address)": {
        "notice": "Emitted when a delegation is funded."
      },
      "DelegationFundedFromStake(address,uint256,uint256,address)": {
        "notice": "Emitted when a delegation is funded from the staked amount."
      },
      "RepresentativeSet(address,address,bool)": {
        "notice": "Emitted when a representative is set."
      },
      "TicketSet(address)": {
        "notice": "Emitted when ticket associated with this contract has been set."
      },
      "TicketsStaked(address,uint256)": {
        "notice": "Emitted when tickets have been staked."
      },
      "TicketsUnstaked(address,address,uint256)": {
        "notice": "Emitted when tickets have been unstaked."
      },
      "TransferredDelegation(address,uint256,uint256,address)": {
        "notice": "Emitted when a delegator withdraws an amount of tickets from a delegation to a specified wallet."
      },
      "WithdrewDelegationToStake(address,uint256,uint256,address)": {
        "notice": "Emitted when an amount of tickets has been withdrawn from a delegation. The tickets are held by this contract and the delegator stake is increased."
      }
    },
    "kind": "user",
    "methods": {
      "MAX_LOCK()": {
        "notice": "Max lock time during which a delegation cannot be updated."
      },
      "computeDelegationAddress(address,uint256)": {
        "notice": "Computes the address of the delegation for the delegator + slot combination."
      },
      "constructor": {
        "notice": "Creates a new TWAB Delegator that is bound to the given ticket contract."
      },
      "createDelegation(address,uint256,address,uint96)": {
        "notice": "Creates a new delegation. This will create a new Delegation contract for the given slot and have it delegate its tickets to the given delegatee. If a non-zero lock duration is passed, then the delegatee cannot be changed, nor funding withdrawn, until the lock has expired."
      },
      "decimals()": {
        "notice": "Returns the ERC20 token decimals."
      },
      "delegationInstance()": {
        "notice": "The instance to which all proxies will point."
      },
      "fundDelegation(address,uint256,uint256)": {
        "notice": "Fund a delegation by transferring tickets from the caller to the delegation."
      },
      "fundDelegationFromStake(address,uint256,uint256)": {
        "notice": "Fund a delegation using the `_delegator` stake."
      },
      "getDelegation(address,uint256)": {
        "notice": "Allows the caller to easily get the details for a delegation."
      },
      "isRepresentativeOf(address,address)": {
        "notice": "Returns whether or not the given rep is a representative of the delegator."
      },
      "multicall(bytes[])": {
        "notice": "Allows a user to call multiple functions on the same contract.  Useful for EOA who wants to batch transactions."
      },
      "permitAndMulticall(uint256,(uint256,uint8,bytes32,bytes32),bytes[])": {
        "notice": "Alow a user to approve ticket and run various calls in one transaction."
      },
      "setRepresentative(address,bool)": {
        "notice": "Allow an account to set or unset a `_representative` to handle delegation."
      },
      "stake(address,uint256)": {
        "notice": "Stake `_amount` of tickets in this contract."
      },
      "ticket()": {
        "notice": "Prize pool ticket to which this contract is tied to."
      },
      "transferDelegationTo(uint256,uint256,address)": {
        "notice": "Withdraw an `_amount` of tickets from a delegation. The delegator is assumed to be the caller."
      },
      "unstake(address,uint256)": {
        "notice": "Unstake `_amount` of tickets from this contract. Transfers ticket to the passed `_to` address."
      },
      "updateDelegatee(address,uint256,address,uint96)": {
        "notice": "Updates the delegatee and lock duration for a delegation slot."
      },
      "withdrawDelegationToStake(address,uint256,uint256)": {
        "notice": "Withdraw tickets from a delegation. The tickets will be held by this contract and the delegator's stake will increase."
      }
    },
    "notice": "This contract allows accounts to easily delegate a portion of their tickets to multiple delegatees. The delegatees chance of winning prizes is increased by the delegated amount. If a delegator doesn't want to actively manage the delegations, then they can stake on the contract and appoint representatives.",
    "version": 1
  },
  "storageLayout": {
    "storage": [
      {
        "astId": 682,
        "contract": "@pooltogether/v4-twab-delegator/contracts/TWABDelegator.sol:TWABDelegator",
        "label": "_balances",
        "offset": 0,
        "slot": "0",
        "type": "t_mapping(t_address,t_uint256)"
      },
      {
        "astId": 688,
        "contract": "@pooltogether/v4-twab-delegator/contracts/TWABDelegator.sol:TWABDelegator",
        "label": "_allowances",
        "offset": 0,
        "slot": "1",
        "type": "t_mapping(t_address,t_mapping(t_address,t_uint256))"
      },
      {
        "astId": 690,
        "contract": "@pooltogether/v4-twab-delegator/contracts/TWABDelegator.sol:TWABDelegator",
        "label": "_totalSupply",
        "offset": 0,
        "slot": "2",
        "type": "t_uint256"
      },
      {
        "astId": 692,
        "contract": "@pooltogether/v4-twab-delegator/contracts/TWABDelegator.sol:TWABDelegator",
        "label": "_name",
        "offset": 0,
        "slot": "3",
        "type": "t_string_storage"
      },
      {
        "astId": 694,
        "contract": "@pooltogether/v4-twab-delegator/contracts/TWABDelegator.sol:TWABDelegator",
        "label": "_symbol",
        "offset": 0,
        "slot": "4",
        "type": "t_string_storage"
      },
      {
        "astId": 16500,
        "contract": "@pooltogether/v4-twab-delegator/contracts/TWABDelegator.sol:TWABDelegator",
        "label": "delegationInstance",
        "offset": 0,
        "slot": "5",
        "type": "t_contract(Delegation)16488"
      },
      {
        "astId": 16851,
        "contract": "@pooltogether/v4-twab-delegator/contracts/TWABDelegator.sol:TWABDelegator",
        "label": "representatives",
        "offset": 0,
        "slot": "6",
        "type": "t_mapping(t_address,t_mapping(t_address,t_bool))"
      }
    ],
    "types": {
      "t_address": {
        "encoding": "inplace",
        "label": "address",
        "numberOfBytes": "20"
      },
      "t_bool": {
        "encoding": "inplace",
        "label": "bool",
        "numberOfBytes": "1"
      },
      "t_contract(Delegation)16488": {
        "encoding": "inplace",
        "label": "contract Delegation",
        "numberOfBytes": "20"
      },
      "t_mapping(t_address,t_bool)": {
        "encoding": "mapping",
        "key": "t_address",
        "label": "mapping(address => bool)",
        "numberOfBytes": "32",
        "value": "t_bool"
      },
      "t_mapping(t_address,t_mapping(t_address,t_bool))": {
        "encoding": "mapping",
        "key": "t_address",
        "label": "mapping(address => mapping(address => bool))",
        "numberOfBytes": "32",
        "value": "t_mapping(t_address,t_bool)"
      },
      "t_mapping(t_address,t_mapping(t_address,t_uint256))": {
        "encoding": "mapping",
        "key": "t_address",
        "label": "mapping(address => mapping(address => uint256))",
        "numberOfBytes": "32",
        "value": "t_mapping(t_address,t_uint256)"
      },
      "t_mapping(t_address,t_uint256)": {
        "encoding": "mapping",
        "key": "t_address",
        "label": "mapping(address => uint256)",
        "numberOfBytes": "32",
        "value": "t_uint256"
      },
      "t_string_storage": {
        "encoding": "bytes",
        "label": "string",
        "numberOfBytes": "32"
      },
      "t_uint256": {
        "encoding": "inplace",
        "label": "uint256",
        "numberOfBytes": "32"
      }
    }
  }
}