{
  "address": "0xef2d0B09f8b12179175E303546fAAb21B65b713e",
  "abi": [
    {
      "anonymous": false,
      "inputs": [
        {
          "indexed": false,
          "internalType": "uint256",
          "name": "amount",
          "type": "uint256"
        }
      ],
      "name": "AwardCaptured",
      "type": "event"
    },
    {
      "anonymous": false,
      "inputs": [
        {
          "indexed": true,
          "internalType": "address",
          "name": "winner",
          "type": "address"
        },
        {
          "indexed": true,
          "internalType": "address",
          "name": "token",
          "type": "address"
        },
        {
          "indexed": false,
          "internalType": "uint256",
          "name": "amount",
          "type": "uint256"
        }
      ],
      "name": "Awarded",
      "type": "event"
    },
    {
      "anonymous": false,
      "inputs": [
        {
          "indexed": true,
          "internalType": "address",
          "name": "winner",
          "type": "address"
        },
        {
          "indexed": true,
          "internalType": "address",
          "name": "token",
          "type": "address"
        },
        {
          "indexed": false,
          "internalType": "uint256",
          "name": "amount",
          "type": "uint256"
        }
      ],
      "name": "AwardedExternalERC20",
      "type": "event"
    },
    {
      "anonymous": false,
      "inputs": [
        {
          "indexed": true,
          "internalType": "address",
          "name": "winner",
          "type": "address"
        },
        {
          "indexed": true,
          "internalType": "address",
          "name": "token",
          "type": "address"
        },
        {
          "indexed": false,
          "internalType": "uint256[]",
          "name": "tokenIds",
          "type": "uint256[]"
        }
      ],
      "name": "AwardedExternalERC721",
      "type": "event"
    },
    {
      "anonymous": false,
      "inputs": [
        {
          "indexed": true,
          "internalType": "contract ControlledTokenInterface",
          "name": "token",
          "type": "address"
        }
      ],
      "name": "ControlledTokenAdded",
      "type": "event"
    },
    {
      "anonymous": false,
      "inputs": [
        {
          "indexed": true,
          "internalType": "address",
          "name": "user",
          "type": "address"
        },
        {
          "indexed": true,
          "internalType": "address",
          "name": "token",
          "type": "address"
        },
        {
          "indexed": false,
          "internalType": "uint256",
          "name": "amount",
          "type": "uint256"
        }
      ],
      "name": "CreditBurned",
      "type": "event"
    },
    {
      "anonymous": false,
      "inputs": [
        {
          "indexed": true,
          "internalType": "address",
          "name": "user",
          "type": "address"
        },
        {
          "indexed": true,
          "internalType": "address",
          "name": "token",
          "type": "address"
        },
        {
          "indexed": false,
          "internalType": "uint256",
          "name": "amount",
          "type": "uint256"
        }
      ],
      "name": "CreditMinted",
      "type": "event"
    },
    {
      "anonymous": false,
      "inputs": [
        {
          "indexed": false,
          "internalType": "address",
          "name": "token",
          "type": "address"
        },
        {
          "indexed": false,
          "internalType": "uint128",
          "name": "creditLimitMantissa",
          "type": "uint128"
        },
        {
          "indexed": false,
          "internalType": "uint128",
          "name": "creditRateMantissa",
          "type": "uint128"
        }
      ],
      "name": "CreditPlanSet",
      "type": "event"
    },
    {
      "anonymous": false,
      "inputs": [
        {
          "indexed": true,
          "internalType": "address",
          "name": "operator",
          "type": "address"
        },
        {
          "indexed": true,
          "internalType": "address",
          "name": "to",
          "type": "address"
        },
        {
          "indexed": true,
          "internalType": "address",
          "name": "token",
          "type": "address"
        },
        {
          "indexed": false,
          "internalType": "uint256",
          "name": "amount",
          "type": "uint256"
        },
        {
          "indexed": false,
          "internalType": "address",
          "name": "referrer",
          "type": "address"
        }
      ],
      "name": "Deposited",
      "type": "event"
    },
    {
      "anonymous": false,
      "inputs": [
        {
          "indexed": false,
          "internalType": "bytes",
          "name": "error",
          "type": "bytes"
        }
      ],
      "name": "ErrorAwardingExternalERC721",
      "type": "event"
    },
    {
      "anonymous": false,
      "inputs": [
        {
          "indexed": false,
          "internalType": "address",
          "name": "reserveRegistry",
          "type": "address"
        },
        {
          "indexed": false,
          "internalType": "uint256",
          "name": "maxExitFeeMantissa",
          "type": "uint256"
        }
      ],
      "name": "Initialized",
      "type": "event"
    },
    {
      "anonymous": false,
      "inputs": [
        {
          "indexed": true,
          "internalType": "address",
          "name": "operator",
          "type": "address"
        },
        {
          "indexed": true,
          "internalType": "address",
          "name": "from",
          "type": "address"
        },
        {
          "indexed": true,
          "internalType": "address",
          "name": "token",
          "type": "address"
        },
        {
          "indexed": false,
          "internalType": "uint256",
          "name": "amount",
          "type": "uint256"
        },
        {
          "indexed": false,
          "internalType": "uint256",
          "name": "redeemed",
          "type": "uint256"
        },
        {
          "indexed": false,
          "internalType": "uint256",
          "name": "exitFee",
          "type": "uint256"
        }
      ],
      "name": "InstantWithdrawal",
      "type": "event"
    },
    {
      "anonymous": false,
      "inputs": [
        {
          "indexed": false,
          "internalType": "uint256",
          "name": "liquidityCap",
          "type": "uint256"
        }
      ],
      "name": "LiquidityCapSet",
      "type": "event"
    },
    {
      "anonymous": false,
      "inputs": [
        {
          "indexed": true,
          "internalType": "address",
          "name": "previousOwner",
          "type": "address"
        },
        {
          "indexed": true,
          "internalType": "address",
          "name": "newOwner",
          "type": "address"
        }
      ],
      "name": "OwnershipTransferred",
      "type": "event"
    },
    {
      "anonymous": false,
      "inputs": [
        {
          "indexed": true,
          "internalType": "address",
          "name": "prizeStrategy",
          "type": "address"
        }
      ],
      "name": "PrizeStrategySet",
      "type": "event"
    },
    {
      "anonymous": false,
      "inputs": [
        {
          "indexed": false,
          "internalType": "uint256",
          "name": "amount",
          "type": "uint256"
        }
      ],
      "name": "ReserveFeeCaptured",
      "type": "event"
    },
    {
      "anonymous": false,
      "inputs": [
        {
          "indexed": true,
          "internalType": "address",
          "name": "to",
          "type": "address"
        },
        {
          "indexed": false,
          "internalType": "uint256",
          "name": "amount",
          "type": "uint256"
        }
      ],
      "name": "ReserveWithdrawal",
      "type": "event"
    },
    {
      "anonymous": false,
      "inputs": [
        {
          "indexed": true,
          "internalType": "address",
          "name": "to",
          "type": "address"
        },
        {
          "indexed": true,
          "internalType": "address",
          "name": "token",
          "type": "address"
        },
        {
          "indexed": false,
          "internalType": "uint256",
          "name": "amount",
          "type": "uint256"
        }
      ],
      "name": "TransferredExternalERC20",
      "type": "event"
    },
    {
      "anonymous": false,
      "inputs": [
        {
          "indexed": true,
          "internalType": "address",
          "name": "yieldSource",
          "type": "address"
        }
      ],
      "name": "YieldSourcePrizePoolInitialized",
      "type": "event"
    },
    {
      "inputs": [],
      "name": "VERSION",
      "outputs": [
        {
          "internalType": "string",
          "name": "",
          "type": "string"
        }
      ],
      "stateMutability": "view",
      "type": "function"
    },
    {
      "inputs": [],
      "name": "accountedBalance",
      "outputs": [
        {
          "internalType": "uint256",
          "name": "",
          "type": "uint256"
        }
      ],
      "stateMutability": "view",
      "type": "function"
    },
    {
      "inputs": [
        {
          "internalType": "address",
          "name": "to",
          "type": "address"
        },
        {
          "internalType": "uint256",
          "name": "amount",
          "type": "uint256"
        },
        {
          "internalType": "address",
          "name": "controlledToken",
          "type": "address"
        }
      ],
      "name": "award",
      "outputs": [],
      "stateMutability": "nonpayable",
      "type": "function"
    },
    {
      "inputs": [],
      "name": "awardBalance",
      "outputs": [
        {
          "internalType": "uint256",
          "name": "",
          "type": "uint256"
        }
      ],
      "stateMutability": "view",
      "type": "function"
    },
    {
      "inputs": [
        {
          "internalType": "address",
          "name": "to",
          "type": "address"
        },
        {
          "internalType": "address",
          "name": "externalToken",
          "type": "address"
        },
        {
          "internalType": "uint256",
          "name": "amount",
          "type": "uint256"
        }
      ],
      "name": "awardExternalERC20",
      "outputs": [],
      "stateMutability": "nonpayable",
      "type": "function"
    },
    {
      "inputs": [
        {
          "internalType": "address",
          "name": "to",
          "type": "address"
        },
        {
          "internalType": "address",
          "name": "externalToken",
          "type": "address"
        },
        {
          "internalType": "uint256[]",
          "name": "tokenIds",
          "type": "uint256[]"
        }
      ],
      "name": "awardExternalERC721",
      "outputs": [],
      "stateMutability": "nonpayable",
      "type": "function"
    },
    {
      "inputs": [],
      "name": "balance",
      "outputs": [
        {
          "internalType": "uint256",
          "name": "",
          "type": "uint256"
        }
      ],
      "stateMutability": "nonpayable",
      "type": "function"
    },
    {
      "inputs": [
        {
          "internalType": "address",
          "name": "user",
          "type": "address"
        },
        {
          "internalType": "address",
          "name": "controlledToken",
          "type": "address"
        }
      ],
      "name": "balanceOfCredit",
      "outputs": [
        {
          "internalType": "uint256",
          "name": "",
          "type": "uint256"
        }
      ],
      "stateMutability": "nonpayable",
      "type": "function"
    },
    {
      "inputs": [
        {
          "internalType": "address",
          "name": "from",
          "type": "address"
        },
        {
          "internalType": "address",
          "name": "controlledToken",
          "type": "address"
        },
        {
          "internalType": "uint256",
          "name": "amount",
          "type": "uint256"
        }
      ],
      "name": "calculateEarlyExitFee",
      "outputs": [
        {
          "internalType": "uint256",
          "name": "exitFee",
          "type": "uint256"
        },
        {
          "internalType": "uint256",
          "name": "burnedCredit",
          "type": "uint256"
        }
      ],
      "stateMutability": "nonpayable",
      "type": "function"
    },
    {
      "inputs": [
        {
          "internalType": "uint256",
          "name": "amount",
          "type": "uint256"
        }
      ],
      "name": "calculateReserveFee",
      "outputs": [
        {
          "internalType": "uint256",
          "name": "",
          "type": "uint256"
        }
      ],
      "stateMutability": "view",
      "type": "function"
    },
    {
      "inputs": [
        {
          "internalType": "address",
          "name": "_externalToken",
          "type": "address"
        }
      ],
      "name": "canAwardExternal",
      "outputs": [
        {
          "internalType": "bool",
          "name": "",
          "type": "bool"
        }
      ],
      "stateMutability": "view",
      "type": "function"
    },
    {
      "inputs": [],
      "name": "captureAwardBalance",
      "outputs": [
        {
          "internalType": "uint256",
          "name": "",
          "type": "uint256"
        }
      ],
      "stateMutability": "nonpayable",
      "type": "function"
    },
    {
      "inputs": [
        {
          "internalType": "contract ICompLike",
          "name": "compLike",
          "type": "address"
        },
        {
          "internalType": "address",
          "name": "to",
          "type": "address"
        }
      ],
      "name": "compLikeDelegate",
      "outputs": [],
      "stateMutability": "nonpayable",
      "type": "function"
    },
    {
      "inputs": [
        {
          "internalType": "address",
          "name": "controlledToken",
          "type": "address"
        }
      ],
      "name": "creditPlanOf",
      "outputs": [
        {
          "internalType": "uint128",
          "name": "creditLimitMantissa",
          "type": "uint128"
        },
        {
          "internalType": "uint128",
          "name": "creditRateMantissa",
          "type": "uint128"
        }
      ],
      "stateMutability": "view",
      "type": "function"
    },
    {
      "inputs": [
        {
          "internalType": "address",
          "name": "to",
          "type": "address"
        },
        {
          "internalType": "uint256",
          "name": "amount",
          "type": "uint256"
        },
        {
          "internalType": "address",
          "name": "controlledToken",
          "type": "address"
        },
        {
          "internalType": "address",
          "name": "referrer",
          "type": "address"
        }
      ],
      "name": "depositTo",
      "outputs": [],
      "stateMutability": "nonpayable",
      "type": "function"
    },
    {
      "inputs": [
        {
          "internalType": "address",
          "name": "_controlledToken",
          "type": "address"
        },
        {
          "internalType": "uint256",
          "name": "_principal",
          "type": "uint256"
        },
        {
          "internalType": "uint256",
          "name": "_interest",
          "type": "uint256"
        }
      ],
      "name": "estimateCreditAccrualTime",
      "outputs": [
        {
          "internalType": "uint256",
          "name": "durationSeconds",
          "type": "uint256"
        }
      ],
      "stateMutability": "view",
      "type": "function"
    },
    {
      "inputs": [
        {
          "internalType": "contract RegistryInterface",
          "name": "_reserveRegistry",
          "type": "address"
        },
        {
          "internalType": "contract ControlledTokenInterface[]",
          "name": "_controlledTokens",
          "type": "address[]"
        },
        {
          "internalType": "uint256",
          "name": "_maxExitFeeMantissa",
          "type": "uint256"
        }
      ],
      "name": "initialize",
      "outputs": [],
      "stateMutability": "nonpayable",
      "type": "function"
    },
    {
      "inputs": [
        {
          "internalType": "contract RegistryInterface",
          "name": "_reserveRegistry",
          "type": "address"
        },
        {
          "internalType": "contract ControlledTokenInterface[]",
          "name": "_controlledTokens",
          "type": "address[]"
        },
        {
          "internalType": "uint256",
          "name": "_maxExitFeeMantissa",
          "type": "uint256"
        },
        {
          "internalType": "contract IYieldSource",
          "name": "_yieldSource",
          "type": "address"
        }
      ],
      "name": "initializeYieldSourcePrizePool",
      "outputs": [],
      "stateMutability": "nonpayable",
      "type": "function"
    },
    {
      "inputs": [
        {
          "internalType": "contract ControlledTokenInterface",
          "name": "controlledToken",
          "type": "address"
        }
      ],
      "name": "isControlled",
      "outputs": [
        {
          "internalType": "bool",
          "name": "",
          "type": "bool"
        }
      ],
      "stateMutability": "view",
      "type": "function"
    },
    {
      "inputs": [],
      "name": "liquidityCap",
      "outputs": [
        {
          "internalType": "uint256",
          "name": "",
          "type": "uint256"
        }
      ],
      "stateMutability": "view",
      "type": "function"
    },
    {
      "inputs": [],
      "name": "maxExitFeeMantissa",
      "outputs": [
        {
          "internalType": "uint256",
          "name": "",
          "type": "uint256"
        }
      ],
      "stateMutability": "view",
      "type": "function"
    },
    {
      "inputs": [
        {
          "internalType": "address",
          "name": "operator",
          "type": "address"
        },
        {
          "internalType": "address",
          "name": "from",
          "type": "address"
        },
        {
          "internalType": "uint256",
          "name": "tokenId",
          "type": "uint256"
        },
        {
          "internalType": "bytes",
          "name": "data",
          "type": "bytes"
        }
      ],
      "name": "onERC721Received",
      "outputs": [
        {
          "internalType": "bytes4",
          "name": "",
          "type": "bytes4"
        }
      ],
      "stateMutability": "nonpayable",
      "type": "function"
    },
    {
      "inputs": [],
      "name": "owner",
      "outputs": [
        {
          "internalType": "address",
          "name": "",
          "type": "address"
        }
      ],
      "stateMutability": "view",
      "type": "function"
    },
    {
      "inputs": [],
      "name": "prizeStrategy",
      "outputs": [
        {
          "internalType": "address",
          "name": "",
          "type": "address"
        }
      ],
      "stateMutability": "view",
      "type": "function"
    },
    {
      "inputs": [],
      "name": "renounceOwnership",
      "outputs": [],
      "stateMutability": "nonpayable",
      "type": "function"
    },
    {
      "inputs": [],
      "name": "reserveRegistry",
      "outputs": [
        {
          "internalType": "contract RegistryInterface",
          "name": "",
          "type": "address"
        }
      ],
      "stateMutability": "view",
      "type": "function"
    },
    {
      "inputs": [],
      "name": "reserveTotalSupply",
      "outputs": [
        {
          "internalType": "uint256",
          "name": "",
          "type": "uint256"
        }
      ],
      "stateMutability": "view",
      "type": "function"
    },
    {
      "inputs": [
        {
          "internalType": "address",
          "name": "_controlledToken",
          "type": "address"
        },
        {
          "internalType": "uint128",
          "name": "_creditRateMantissa",
          "type": "uint128"
        },
        {
          "internalType": "uint128",
          "name": "_creditLimitMantissa",
          "type": "uint128"
        }
      ],
      "name": "setCreditPlanOf",
      "outputs": [],
      "stateMutability": "nonpayable",
      "type": "function"
    },
    {
      "inputs": [
        {
          "internalType": "uint256",
          "name": "_liquidityCap",
          "type": "uint256"
        }
      ],
      "name": "setLiquidityCap",
      "outputs": [],
      "stateMutability": "nonpayable",
      "type": "function"
    },
    {
      "inputs": [
        {
          "internalType": "address",
          "name": "_prizeStrategy",
          "type": "address"
        }
      ],
      "name": "setPrizeStrategy",
      "outputs": [],
      "stateMutability": "nonpayable",
      "type": "function"
    },
    {
      "inputs": [],
      "name": "token",
      "outputs": [
        {
          "internalType": "address",
          "name": "",
          "type": "address"
        }
      ],
      "stateMutability": "view",
      "type": "function"
    },
    {
      "inputs": [
        {
          "internalType": "uint256",
          "name": "tokenIndex",
          "type": "uint256"
        }
      ],
      "name": "tokenAtIndex",
      "outputs": [
        {
          "internalType": "contract ControlledTokenInterface",
          "name": "",
          "type": "address"
        }
      ],
      "stateMutability": "view",
      "type": "function"
    },
    {
      "inputs": [],
      "name": "tokens",
      "outputs": [
        {
          "internalType": "contract ControlledTokenInterface[]",
          "name": "",
          "type": "address[]"
        }
      ],
      "stateMutability": "view",
      "type": "function"
    },
    {
      "inputs": [
        {
          "internalType": "address",
          "name": "to",
          "type": "address"
        },
        {
          "internalType": "address",
          "name": "externalToken",
          "type": "address"
        },
        {
          "internalType": "uint256",
          "name": "amount",
          "type": "uint256"
        }
      ],
      "name": "transferExternalERC20",
      "outputs": [],
      "stateMutability": "nonpayable",
      "type": "function"
    },
    {
      "inputs": [
        {
          "internalType": "address",
          "name": "newOwner",
          "type": "address"
        }
      ],
      "name": "transferOwnership",
      "outputs": [],
      "stateMutability": "nonpayable",
      "type": "function"
    },
    {
      "inputs": [
        {
          "internalType": "address",
          "name": "from",
          "type": "address"
        },
        {
          "internalType": "uint256",
          "name": "amount",
          "type": "uint256"
        },
        {
          "internalType": "address",
          "name": "controlledToken",
          "type": "address"
        },
        {
          "internalType": "uint256",
          "name": "maximumExitFee",
          "type": "uint256"
        }
      ],
      "name": "withdrawInstantlyFrom",
      "outputs": [
        {
          "internalType": "uint256",
          "name": "",
          "type": "uint256"
        }
      ],
      "stateMutability": "nonpayable",
      "type": "function"
    },
    {
      "inputs": [
        {
          "internalType": "address",
          "name": "to",
          "type": "address"
        }
      ],
      "name": "withdrawReserve",
      "outputs": [
        {
          "internalType": "uint256",
          "name": "",
          "type": "uint256"
        }
      ],
      "stateMutability": "nonpayable",
      "type": "function"
    },
    {
      "inputs": [],
      "name": "yieldSource",
      "outputs": [
        {
          "internalType": "contract IYieldSource",
          "name": "",
          "type": "address"
        }
      ],
      "stateMutability": "view",
      "type": "function"
    }
  ],
  "transactionHash": "0xbb7990359fc90ef626848b073355e169fe040475260e7cea3e678c85e525a9b8",
  "args": [],
  "solcInputHash": "7cee12f50f3976705f4f64a58680c721",
  "bytecode": "0x608060405234801561001057600080fd5b506141f9806100206000396000f3fe608060405234801561001057600080fd5b50600436106102925760003560e01c80638da5cb5b11610160578063b2470e5c116100d8578063e6d8a94b1161008c578063f2fde38b11610071578063f2fde38b146105ed578063fc0c546a14610600578063ffa1ad741461060857600080fd5b8063e6d8a94b146105dc578063edb4e1cf146105e457600080fd5b8063cfa24007116100bd578063cfa2400714610539578063d4a1361d1461054c578063e323f825146105c957600080fd5b8063b2470e5c1461051e578063b69ef8a81461053157600080fd5b80639d63848a1161012f5780639fe32a91116101145780639fe32a91146104e5578063a016240b146104f8578063a7b2cc311461050b57600080fd5b80639d63848a146104c75780639e167519146104dc57600080fd5b80638da5cb5b1461047d5780638e71c1f61461048e57806391ca480e146104a157806398bf3eb6146104b457600080fd5b806352a387ab1161020e57806376687d3d116101c257806379cb8563116101a757806379cb85631461042f5780637b99adb114610442578063888c2b6f1461045557600080fd5b806376687d3d1461041357806378b3d3271461041c57600080fd5b80636a3fd4f9116101f35780636a3fd4f9146103d55780636b1b863a146103f8578063715018a61461040b57600080fd5b806352a387ab146103ba578063630665b4146103cd57600080fd5b80632b0ab144116102655780633ede50c61161024a5780633ede50c61461036957806341f1afc71461037c578063494de9f7146103a757600080fd5b80632b0ab144146103435780632f7627e31461035657600080fd5b80630937eb541461029757806313f55e39146102b2578063150b7a02146102c757806316960d5514610330575b600080fd5b61029f610651565b6040519081526020015b60405180910390f35b6102c56102c0366004613c73565b610660565b005b6102ff6102d5366004613cb4565b7f150b7a020000000000000000000000000000000000000000000000000000000095945050505050565b6040517fffffffff0000000000000000000000000000000000000000000000000000000090911681526020016102a9565b6102c561033e366004613bde565b61072b565b6102c5610351366004613c73565b610978565b6102c5610364366004613ba5565b610a30565b6102c5610377366004613ecc565b610b83565b61038f61038a366004613f86565b610ddc565b6040516001600160a01b0390911681526020016102a9565b61029f6103b5366004613ba5565b610eae565b61029f6103c8366004613b6b565b610fd7565b609d5461029f565b6103e86103e3366004613b6b565b611138565b60405190151581526020016102a9565b6102c5610406366004613d98565b611159565b6102c5611376565b61029f609c5481565b6103e861042a366004613b6b565b6113dc565b61029f61043d366004613e75565b6113e7565b6102c5610450366004613f86565b6113fc565b610468610463366004613c73565b611462565b604080519283526020830191909152016102a9565b6033546001600160a01b031661038f565b60975461038f906001600160a01b031681565b6102c56104af366004613b6b565b61147c565b60995461038f906001600160a01b031681565b6104cf6114df565b6040516102a99190614000565b61029f609a5481565b61029f6104f3366004613f86565b611541565b61029f610506366004613e2d565b611691565b6102c5610519366004613d53565b611909565b60a05461038f906001600160a01b031681565b61029f611a5b565b6102c5610547366004613f25565b611a65565b6105a061055a366004613b6b565b6001600160a01b03166000908152609e60205260409020546fffffffffffffffffffffffffffffffff808216927001000000000000000000000000000000009092041690565b604080516fffffffffffffffffffffffffffffffff9384168152929091166020830152016102a9565b6102c56105d7366004613dda565b611d04565b61029f611eb4565b61029f609b5481565b6102c56105fb366004613b6b565b61202a565b61038f612109565b6106446040518060400160405280600581526020017f332e342e3000000000000000000000000000000000000000000000000000000081525081565b6040516102a991906140a2565b600061065b612113565b905090565b6099546001600160a01b0316336001600160a01b0316146106c85760405162461bcd60e51b815260206004820152601c60248201527f5072697a65506f6f6c2f6f6e6c792d7072697a6553747261746567790000000060448201526064015b60405180910390fd5b6106d383838361223a565b1561072657816001600160a01b0316836001600160a01b03167fb0bac59718cd343c80a813518afcf36846cfcfe6d56e2b3cab9bd49f5f9b251c8360405161071d91815260200190565b60405180910390a35b505050565b6099546001600160a01b0316336001600160a01b03161461078e5760405162461bcd60e51b815260206004820152601c60248201527f5072697a65506f6f6c2f6f6e6c792d7072697a6553747261746567790000000060448201526064016106bf565b60a0546001600160a01b03848116911614156107ec5760405162461bcd60e51b815260206004820181905260248201527f5072697a65506f6f6c2f696e76616c69642d65787465726e616c2d746f6b656e60448201526064016106bf565b806107f657610972565b60005b8181101561092357836001600160a01b03166342842e0e308786868681811061082457610824614182565b6040517fffffffff0000000000000000000000000000000000000000000000000000000060e088901b1681526001600160a01b03958616600482015294909316602485015250602090910201356044820152606401600060405180830381600087803b15801561089357600080fd5b505af19250505080156108a4575060015b610911573d8080156108d2576040519150601f19603f3d011682016040523d82523d6000602084013e6108d7565b606091505b507f17e975018310f88872b58d4d8263adca83cf5c1893496ea2a86923dab15276ad8160405161090791906140a2565b60405180910390a1505b8061091b81614151565b9150506107f9565b50826001600160a01b0316846001600160a01b03167f69c2de32bc4d47f488e72626a6cfdee85089342e52675e7de79c4b417623960c848460405161096992919061404d565b60405180910390a35b50505050565b6099546001600160a01b0316336001600160a01b0316146109db5760405162461bcd60e51b815260206004820152601c60248201527f5072697a65506f6f6c2f6f6e6c792d7072697a6553747261746567790000000060448201526064016106bf565b6109e683838361223a565b1561072657816001600160a01b0316836001600160a01b03167fc65f48aca3b7a99b7443d04b8ffbb073156179bc628dc3f7def50477489734698360405161071d91815260200190565b6033546001600160a01b03163314610a8a5760405162461bcd60e51b815260206004820181905260248201527f4f776e61626c653a2063616c6c6572206973206e6f7420746865206f776e657260448201526064016106bf565b6040516370a0823160e01b81523060048201526000906001600160a01b038416906370a082319060240160206040518083038186803b158015610acc57600080fd5b505afa158015610ae0573d6000803e3d6000fd5b505050506040513d601f19601f82011682018060405250810190610b049190613f9f565b1115610b7f576040517f5c19a95c0000000000000000000000000000000000000000000000000000000081526001600160a01b038281166004830152831690635c19a95c90602401600060405180830381600087803b158015610b6657600080fd5b505af1158015610b7a573d6000803e3d6000fd5b505050505b5050565b600054610100900460ff1680610b9c575060005460ff16155b610bff5760405162461bcd60e51b815260206004820152602e60248201527f496e697469616c697a61626c653a20636f6e747261637420697320616c72656160448201526d191e481a5b9a5d1a585b1a5e995960921b60648201526084016106bf565b600054610100900460ff16158015610c21576000805461ffff19166101011790555b6001600160a01b038416610c9d5760405162461bcd60e51b815260206004820152602260248201527f5072697a65506f6f6c2f7265736572766552656769737472792d6e6f742d7a6560448201527f726f00000000000000000000000000000000000000000000000000000000000060648201526084016106bf565b82518067ffffffffffffffff811115610cb857610cb8614198565b604051908082528060200260200182016040528015610ce1578160200160208202803683370190505b508051610cf691609891602090910190613a15565b5060005b81811015610d3d576000858281518110610d1657610d16614182565b60200260200101519050610d2a81836122cd565b5080610d3581614151565b915050610cfa565b50610d46612341565b610d4e612403565b600019610d5a816124a9565b6097805473ffffffffffffffffffffffffffffffffffffffff19166001600160a01b038816908117909155609a85905560408051918252602082018690527f25ff68dd81b34665b5ba7e553ee5511bf6812e12adb4a7e2c0d9e26b3099ce79910160405180910390a150508015610972576000805461ff001916905550505050565b6000806098805480602002602001604051908101604052809291908181526020018280548015610e3557602002820191906000526020600020905b81546001600160a01b03168152600190910190602001808311610e17575b5050505050905080518310610e8c5760405162461bcd60e51b815260206004820152601d60248201527f5072697a65506f6f6c2f696e76616c69642d746f6b656e2d696e64657800000060448201526064016106bf565b808381518110610e9e57610e9e614182565b6020026020010151915050919050565b600081610eba816124e4565b610f065760405162461bcd60e51b815260206004820152601760248201527f5072697a65506f6f6c2f756e6b6e6f776e2d746f6b656e00000000000000000060448201526064016106bf565b6040516370a0823160e01b81526001600160a01b038086166004830152610f8f9186918691908216906370a082319060240160206040518083038186803b158015610f5057600080fd5b505afa158015610f64573d6000803e3d6000fd5b505050506040513d601f19601f82011682018060405250810190610f889190613f9f565b60006125ae565b50506001600160a01b039081166000908152609f602090815260408083209490931682529290925290205477ffffffffffffffffffffffffffffffffffffffffffffffff1690565b600080609760009054906101000a90046001600160a01b03166001600160a01b031663f5e3542b6040518163ffffffff1660e01b815260040160206040518083038186803b15801561102857600080fd5b505afa15801561103c573d6000803e3d6000fd5b505050506040513d601f19601f820116820180604052508101906110609190613b88565b90506001600160a01b03811633146110ba5760405162461bcd60e51b815260206004820152601660248201527f5072697a65506f6f6c2f6f6e6c792d726573657276650000000000000000000060448201526064016106bf565b609b8054600091829055906110ce826125c4565b90506110ed85826110dd61265c565b6001600160a01b031691906126f2565b846001600160a01b03167f1c71c8e11fd443227c8f8d3dc1a237a3a5e8310b540c7fbcf5169754aedf42c98360405161112891815260200190565b60405180910390a2949350505050565b60006111538260a0546001600160a01b039182169116141590565b92915050565b6099546001600160a01b0316336001600160a01b0316146111bc5760405162461bcd60e51b815260206004820152601c60248201527f5072697a65506f6f6c2f6f6e6c792d7072697a6553747261746567790000000060448201526064016106bf565b806111c6816124e4565b6112125760405162461bcd60e51b815260206004820152601760248201527f5072697a65506f6f6c2f756e6b6e6f776e2d746f6b656e00000000000000000060448201526064016106bf565b8261121c57610972565b609d5483111561126e5760405162461bcd60e51b815260206004820152601d60248201527f5072697a65506f6f6c2f61776172642d657863656564732d617661696c00000060448201526064016106bf565b82609d5461127c919061410e565b609d5561128c848484600061279b565b6000611298838561281c565b6040516370a0823160e01b81526001600160a01b03808816600483015291925061132291879186918216906370a082319060240160206040518083038186803b1580156112e457600080fd5b505afa1580156112f8573d6000803e3d6000fd5b505050506040513d601f19601f8201168201806040525081019061131c9190613f9f565b846125ae565b826001600160a01b0316856001600160a01b03167fe2554529d99ab7a67db6b4cea2b32c7d55ae325f958861e05f304fdded867e318660405161136791815260200190565b60405180910390a35050505050565b6033546001600160a01b031633146113d05760405162461bcd60e51b815260206004820181905260248201527f4f776e61626c653a2063616c6c6572206973206e6f7420746865206f776e657260448201526064016106bf565b6113da600061285d565b565b6000611153826124e4565b60006113f48484846128bc565b949350505050565b6033546001600160a01b031633146114565760405162461bcd60e51b815260206004820181905260248201527f4f776e61626c653a2063616c6c6572206973206e6f7420746865206f776e657260448201526064016106bf565b61145f816124a9565b50565b60008061147085858561292c565b90969095509350505050565b6033546001600160a01b031633146114d65760405162461bcd60e51b815260206004820181905260248201527f4f776e61626c653a2063616c6c6572206973206e6f7420746865206f776e657260448201526064016106bf565b61145f81612af2565b6060609880548060200260200160405190810160405280929190818152602001828054801561153757602002820191906000526020600020905b81546001600160a01b03168152600190910190602001808311611519575b5050505050905090565b600080609760009054906101000a90046001600160a01b03166001600160a01b031663f5e3542b6040518163ffffffff1660e01b815260040160206040518083038186803b15801561159257600080fd5b505afa1580156115a6573d6000803e3d6000fd5b505050506040513d601f19601f820116820180604052508101906115ca9190613b88565b90506001600160a01b0381166115e35750600092915050565b6040517f010dfa580000000000000000000000000000000000000000000000000000000081523060048201526000906001600160a01b0383169063010dfa589060240160206040518083038186803b15801561163e57600080fd5b505afa158015611652573d6000803e3d6000fd5b505050506040513d601f19601f820116820180604052508101906116769190613f9f565b905080611687575060009392505050565b6113f48482612b9f565b6000600260655414156116e65760405162461bcd60e51b815260206004820152601f60248201527f5265656e7472616e637947756172643a207265656e7472616e742063616c6c0060448201526064016106bf565b6002606555826116f5816124e4565b6117415760405162461bcd60e51b815260206004820152601760248201527f5072697a65506f6f6c2f756e6b6e6f776e2d746f6b656e00000000000000000060448201526064016106bf565b60008061174f88878961292c565b91509150848211156117c95760405162461bcd60e51b815260206004820152602760248201527f5072697a65506f6f6c2f657869742d6665652d657863656564732d757365722d60448201527f6d6178696d756d0000000000000000000000000000000000000000000000000060648201526084016106bf565b6117d4888783612bc0565b6001600160a01b03861663631b5dfb336040517fffffffff0000000000000000000000000000000000000000000000000000000060e084901b1681526001600160a01b039182166004820152908b166024820152604481018a9052606401600060405180830381600087803b15801561184c57600080fd5b505af1158015611860573d6000803e3d6000fd5b5050505060008288611872919061410e565b9050600061187f826125c4565b905061188e8a826110dd61265c565b876001600160a01b03168a6001600160a01b03166118a93390565b604080518d8152602081018690529081018890526001600160a01b0391909116907f0271704a58fd2953e49b87d67a0a3ce28a58147de98a5457f60b4686f63850309060600160405180910390a450506001606555509695505050505050565b82611913816124e4565b61195f5760405162461bcd60e51b815260206004820152601760248201527f5072697a65506f6f6c2f756e6b6e6f776e2d746f6b656e00000000000000000060448201526064016106bf565b6033546001600160a01b031633146119b95760405162461bcd60e51b815260206004820181905260248201527f4f776e61626c653a2063616c6c6572206973206e6f7420746865206f776e657260448201526064016106bf565b6040805180820182526fffffffffffffffffffffffffffffffff84811680835286821660208085018281526001600160a01b038b166000818152609e8452889020965191518616700100000000000000000000000000000000029190951617909455845192835292820152918201527ffb0ba2cf86a2b03bcf387753a2192da80a006afa99dd022bb301c78e323bf1b99060600160405180910390a150505050565b600061065b612cab565b600054610100900460ff1680611a7e575060005460ff16155b611ae15760405162461bcd60e51b815260206004820152602e60248201527f496e697469616c697a61626c653a20636f6e747261637420697320616c72656160448201526d191e481a5b9a5d1a585b1a5e995960921b60648201526084016106bf565b600054610100900460ff16158015611b03576000805461ffff19166101011790555b6001600160a01b038216611b7f5760405162461bcd60e51b815260206004820152602a60248201527f5969656c64536f757263655072697a65506f6f6c2f7969656c642d736f75726360448201527f652d6e6f742d7a65726f0000000000000000000000000000000000000000000060648201526084016106bf565b611b8a858585610b83565b60a0805473ffffffffffffffffffffffffffffffffffffffff19166001600160a01b0384169081179091556040517fc89039c50000000000000000000000000000000000000000000000000000000060208201526000919060240160408051601f1981840301815290829052611bff91613fe4565b600060405180830381855afa9150503d8060008114611c3a576040519150601f19603f3d011682016040523d82523d6000602084013e611c3f565b606091505b5050905080611cb65760405162461bcd60e51b815260206004820152602960248201527f5969656c64536f757263655072697a65506f6f6c2f696e76616c69642d79696560448201527f6c642d736f75726365000000000000000000000000000000000000000000000060648201526084016106bf565b6040516001600160a01b038416907f7a0ca506edc9fcd36e010dbcaad57dade17bbac71dfeb53269077098e863eeca90600090a2508015611cfd576000805461ff00191690555b5050505050565b60026065541415611d575760405162461bcd60e51b815260206004820152601f60248201527f5265656e7472616e637947756172643a207265656e7472616e742063616c6c0060448201526064016106bf565b600260655581611d66816124e4565b611db25760405162461bcd60e51b815260206004820152601760248201527f5072697a65506f6f6c2f756e6b6e6f776e2d746f6b656e00000000000000000060448201526064016106bf565b83611dbc81612d42565b611e085760405162461bcd60e51b815260206004820152601f60248201527f5072697a65506f6f6c2f657863656564732d6c69717569646974792d6361700060448201526064016106bf565b33611e158787878761279b565b611e34813088611e2361265c565b6001600160a01b0316929190612d66565b611e3d86612db7565b846001600160a01b0316876001600160a01b0316826001600160a01b03167f6ce569498e0f86f147466ac49211cb2a1ffe06195adb805e383b3f23651091608988604051611e9e9291909182526001600160a01b0316602082015260400190565b60405180910390a4505060016065555050505050565b600060026065541415611f095760405162461bcd60e51b815260206004820152601f60248201527f5265656e7472616e637947756172643a207265656e7472616e742063616c6c0060448201526064016106bf565b60026065556000611f18612113565b90506000611f24612cab565b90506000828211611f36576000611f40565b611f40838361410e565b90506000609d548211611f54576000611f61565b609d54611f61908361410e565b90508015612019576000611f7482611541565b90508015611fd35780609b54611f8a91906140b5565b609b55611f97818361410e565b91507f5f1703ccfa2730d4245350f228079926a37f26a44ecf6978a7eeafff0af1140781604051611fca91815260200190565b60405180910390a15b81609d54611fe191906140b5565b609d556040518281527fce2b6e507c7ca1a20ce136810f524eefc19ba4c7e4866eb6cc0cba76e778d4be9060200160405180910390a1505b609d54945050505050600160655590565b6033546001600160a01b031633146120845760405162461bcd60e51b815260206004820181905260248201527f4f776e61626c653a2063616c6c6572206973206e6f7420746865206f776e657260448201526064016106bf565b6001600160a01b0381166121005760405162461bcd60e51b815260206004820152602660248201527f4f776e61626c653a206e6577206f776e657220697320746865207a65726f206160448201527f646472657373000000000000000000000000000000000000000000000000000060648201526084016106bf565b61145f8161285d565b600061065b61265c565b600080609b5490506000609880548060200260200160405190810160405280929190818152602001828054801561217357602002820191906000526020600020905b81546001600160a01b03168152600190910190602001808311612155575b505083519394506000925050505b818110156122315782818151811061219b5761219b614182565b60200260200101516001600160a01b03166318160ddd6040518163ffffffff1660e01b815260040160206040518083038186803b1580156121db57600080fd5b505afa1580156121ef573d6000803e3d6000fd5b505050506040513d601f19601f820116820180604052508101906122139190613f9f565b61221d90856140b5565b93508061222981614151565b915050612181565b50919392505050565b60006122558360a0546001600160a01b039182169116141590565b6122a15760405162461bcd60e51b815260206004820181905260248201527f5072697a65506f6f6c2f696e76616c69642d65787465726e616c2d746f6b656e60448201526064016106bf565b816122ae575060006122c6565b6122c26001600160a01b03841685846126f2565b5060015b9392505050565b81609882815481106122e1576122e1614182565b60009182526020822001805473ffffffffffffffffffffffffffffffffffffffff19166001600160a01b03938416179055604051918416917f460e712b4a5d801d031ed673dea209b73ab854f7ddeb86b6c48082e92c3eee669190a25050565b600054610100900460ff168061235a575060005460ff16155b6123bd5760405162461bcd60e51b815260206004820152602e60248201527f496e697469616c697a61626c653a20636f6e747261637420697320616c72656160448201526d191e481a5b9a5d1a585b1a5e995960921b60648201526084016106bf565b600054610100900460ff161580156123df576000805461ffff19166101011790555b6123e7612e59565b6123ef612f0a565b801561145f576000805461ff001916905550565b600054610100900460ff168061241c575060005460ff16155b61247f5760405162461bcd60e51b815260206004820152602e60248201527f496e697469616c697a61626c653a20636f6e747261637420697320616c72656160448201526d191e481a5b9a5d1a585b1a5e995960921b60648201526084016106bf565b600054610100900460ff161580156124a1576000805461ffff19166101011790555b6123ef612fb1565b609c8190556040518181527f3ff20538222f568f27ff436c0c49dfd3e48d5b8f86533a3f759dc1c7089775ab9060200160405180910390a150565b600080609880548060200260200160405190810160405280929190818152602001828054801561253d57602002820191906000526020600020905b81546001600160a01b0316815260019091019060200180831161251f575b505083519394506000925050505b818110156125a357846001600160a01b031683828151811061256f5761256f614182565b60200260200101516001600160a01b0316141561259157506001949350505050565b8061259b81614151565b91505061254b565b506000949350505050565b61097284846125bf87878787613068565b613109565b60a0546040517f013054c2000000000000000000000000000000000000000000000000000000008152600481018390526000916001600160a01b03169063013054c290602401602060405180830381600087803b15801561262457600080fd5b505af1158015612638573d6000803e3d6000fd5b505050506040513d601f19601f820116820180604052508101906111539190613f9f565b60a054604080517fc89039c500000000000000000000000000000000000000000000000000000000815290516000926001600160a01b03169163c89039c5916004808301926020929190829003018186803b1580156126ba57600080fd5b505afa1580156126ce573d6000803e3d6000fd5b505050506040513d601f19601f8201168201806040525081019061065b9190613b88565b6040516001600160a01b0383166024820152604481018290526107269084907fa9059cbb00000000000000000000000000000000000000000000000000000000906064015b60408051601f198184030181529190526020810180517bffffffffffffffffffffffffffffffffffffffffffffffffffffffff167fffffffff0000000000000000000000000000000000000000000000000000000090931692909217909152613302565b6040517f5d7b07580000000000000000000000000000000000000000000000000000000081526001600160a01b03858116600483015260248201859052831690635d7b075890604401600060405180830381600087803b1580156127fe57600080fd5b505af1158015612812573d6000803e3d6000fd5b5050505050505050565b6001600160a01b0382166000908152609e60205260408120546122c69083906128589082906fffffffffffffffffffffffffffffffff16612b9f565b6133e7565b603380546001600160a01b0383811673ffffffffffffffffffffffffffffffffffffffff19831681179093556040519116919082907f8be0079c531659141344cd1fd0a4f28419497f9722a3daafe3b4186f6b6457e090600090a35050565b6001600160a01b0383166000908152609e6020526040812054819061290890859070010000000000000000000000000000000090046fffffffffffffffffffffffffffffffff16612b9f565b9050806129195760009150506122c6565b61292381846140cd565b95945050505050565b6040516370a0823160e01b81526001600160a01b03848116600483015260009182918291908616906370a082319060240160206040518083038186803b15801561297557600080fd5b505afa158015612989573d6000803e3d6000fd5b505050506040513d601f19601f820116820180604052508101906129ad9190613f9f565b9050838110156129ff5760405162461bcd60e51b815260206004820152601660248201527f5072697a65506f6f6c2f696e737566662d66756e64730000000000000000000060448201526064016106bf565b612a0c86868360006125ae565b6000612a2186612a1c878561410e565b61281c565b6001600160a01b038088166000908152609f60209081526040808320938c168352929052908120549192509077ffffffffffffffffffffffffffffffffffffffffffffffff168211612abb576001600160a01b038088166000908152609f60209081526040808320938c1683529290522054612ab890839077ffffffffffffffffffffffffffffffffffffffffffffffff1661410e565b90505b6000612ac7888861281c565b9050808211612ad65781612ad8565b805b9450612ae4858261410e565b955050505050935093915050565b6001600160a01b038116612b485760405162461bcd60e51b815260206004820181905260248201527f5072697a65506f6f6c2f7072697a6553747261746567792d6e6f742d7a65726f60448201526064016106bf565b6099805473ffffffffffffffffffffffffffffffffffffffff19166001600160a01b0383169081179091556040517f7f58dc86bc2e435cb77ca0edb1df55e25f90caf2d6bd866971715437d456a21290600090a250565b600080612bac838561340c565b90506113f481670de0b6b3a76400006134a7565b6001600160a01b038083166000908152609f6020908152604080832093871683529290522054612c1490612c0f90839077ffffffffffffffffffffffffffffffffffffffffffffffff1661410e565b6134e9565b6001600160a01b038381166000818152609f602090815260408083209489168084529482529182902080547fffffffffffffffff000000000000000000000000000000000000000000000000166fffffffffffffffffffffffffffffffff96909616959095179094555184815290927ff584c579437bc25785b953cc4d8d247251812751e1871c6130cbdecf95a106cf910161071d565b60a0546040517fb99152d00000000000000000000000000000000000000000000000000000000081523060048201526000916001600160a01b03169063b99152d090602401602060405180830381600087803b158015612d0a57600080fd5b505af1158015612d1e573d6000803e3d6000fd5b505050506040513d601f19601f8201168201806040525081019061065b9190613f9f565b600080612d4d612113565b609c54909150612d5d84836140b5565b11159392505050565b6040516001600160a01b03808516602483015283166044820152606481018290526109729085907f23b872dd0000000000000000000000000000000000000000000000000000000090608401612737565b60a054612de0906001600160a01b031682612dd061265c565b6001600160a01b03169190613575565b60a0546040517f87a6eeef000000000000000000000000000000000000000000000000000000008152600481018390523060248201526001600160a01b03909116906387a6eeef90604401600060405180830381600087803b158015612e4557600080fd5b505af1158015611cfd573d6000803e3d6000fd5b600054610100900460ff1680612e72575060005460ff16155b612ed55760405162461bcd60e51b815260206004820152602e60248201527f496e697469616c697a61626c653a20636f6e747261637420697320616c72656160448201526d191e481a5b9a5d1a585b1a5e995960921b60648201526084016106bf565b600054610100900460ff161580156123ef576000805461ffff1916610101179055801561145f576000805461ff001916905550565b600054610100900460ff1680612f23575060005460ff16155b612f865760405162461bcd60e51b815260206004820152602e60248201527f496e697469616c697a61626c653a20636f6e747261637420697320616c72656160448201526d191e481a5b9a5d1a585b1a5e995960921b60648201526084016106bf565b600054610100900460ff16158015612fa8576000805461ffff19166101011790555b6123ef3361285d565b600054610100900460ff1680612fca575060005460ff16155b61302d5760405162461bcd60e51b815260206004820152602e60248201527f496e697469616c697a61626c653a20636f6e747261637420697320616c72656160448201526d191e481a5b9a5d1a585b1a5e995960921b60648201526084016106bf565b600054610100900460ff1615801561304f576000805461ffff19166101011790555b6001606555801561145f576000805461ff001916905550565b6001600160a01b038381166000908152609f6020908152604080832093881683529290529081208054829190600160e01b900460ff166130ab57600091506130ff565b60006130b88888886136d2565b82549091506130fb908890889088906130ec90869077ffffffffffffffffffffffffffffffffffffffffffffffff166140b5565b6130f691906140b5565b6137a5565b9250505b5095945050505050565b6001600160a01b038083166000908152609f6020908152604080832093871683529290528190205481516060810190925277ffffffffffffffffffffffffffffffffffffffffffffffff16908061315f846134e9565b6fffffffffffffffffffffffffffffffff16815260200161317f426137f4565b63ffffffff908116825260016020928301526001600160a01b038087166000908152609f84526040808220928a168252918452819020845181549486015195909201511515600160e01b027fffffff00ffffffffffffffffffffffffffffffffffffffffffffffffffffffff959093167801000000000000000000000000000000000000000000000000027fffffffff0000000000000000000000000000000000000000000000000000000090941677ffffffffffffffffffffffffffffffffffffffffffffffff909216919091179290921792909216919091179055818110156132b3576001600160a01b038084169085167f2f92d56910619b38bc29fd8e4ca5e56359edac7a0c086cdcd305fb603fa3749161329d848661410e565b60405190815260200160405180910390a3610972565b80821015610972576001600160a01b038084169085167ff584c579437bc25785b953cc4d8d247251812751e1871c6130cbdecf95a106cf6132f4858561410e565b604051908152602001610969565b6000613357826040518060400160405280602081526020017f5361666545524332303a206c6f772d6c6576656c2063616c6c206661696c6564815250856001600160a01b03166138709092919063ffffffff16565b80519091501561072657808060200190518101906133759190613eaa565b6107265760405162461bcd60e51b815260206004820152602a60248201527f5361666545524332303a204552433230206f7065726174696f6e20646964206e60448201527f6f7420737563636565640000000000000000000000000000000000000000000060648201526084016106bf565b6000806133f684609a54612b9f565b905080831115613404578092505b509092915050565b60008261341b57506000611153565b600061342783856140ef565b90508261343485836140cd565b146122c65760405162461bcd60e51b815260206004820152602160248201527f536166654d6174683a206d756c7469706c69636174696f6e206f766572666c6f60448201527f770000000000000000000000000000000000000000000000000000000000000060648201526084016106bf565b60006122c683836040518060400160405280601a81526020017f536166654d6174683a206469766973696f6e206279207a65726f00000000000081525061387f565b60006fffffffffffffffffffffffffffffffff8211156135715760405162461bcd60e51b815260206004820152602760248201527f53616665436173743a2076616c756520646f65736e27742066697420696e203160448201527f323820626974730000000000000000000000000000000000000000000000000060648201526084016106bf565b5090565b80158061361757506040517fdd62ed3e0000000000000000000000000000000000000000000000000000000081523060048201526001600160a01b03838116602483015284169063dd62ed3e9060440160206040518083038186803b1580156135dd57600080fd5b505afa1580156135f1573d6000803e3d6000fd5b505050506040513d601f19601f820116820180604052508101906136159190613f9f565b155b6136895760405162461bcd60e51b815260206004820152603660248201527f5361666545524332303a20617070726f76652066726f6d206e6f6e2d7a65726f60448201527f20746f206e6f6e2d7a65726f20616c6c6f77616e63650000000000000000000060648201526084016106bf565b6040516001600160a01b0383166024820152604481018290526107269084907f095ea7b30000000000000000000000000000000000000000000000000000000090606401612737565b6001600160a01b038281166000908152609f602090815260408083209387168352929052908120547801000000000000000000000000000000000000000000000000810463ffffffff1690600160e01b900460ff166137355760009150506122c6565b6000613741824261410e565b6001600160a01b0386166000908152609e60205260408120549192509061378e9070010000000000000000000000000000000090046fffffffffffffffffffffffffffffffff16836140ef565b905061379a8582612b9f565b979650505050505050565b6001600160a01b0383166000908152609e602052604081205481906137dd9085906fffffffffffffffffffffffffffffffff16612b9f565b9050808311156137eb578092505b50909392505050565b600063ffffffff8211156135715760405162461bcd60e51b815260206004820152602660248201527f53616665436173743a2076616c756520646f65736e27742066697420696e203360448201527f322062697473000000000000000000000000000000000000000000000000000060648201526084016106bf565b60606113f484846000856138ad565b600081836138a05760405162461bcd60e51b81526004016106bf91906140a2565b50600061292384866140cd565b6060824710156139255760405162461bcd60e51b815260206004820152602660248201527f416464726573733a20696e73756666696369656e742062616c616e636520666f60448201527f722063616c6c000000000000000000000000000000000000000000000000000060648201526084016106bf565b843b6139735760405162461bcd60e51b815260206004820152601d60248201527f416464726573733a2063616c6c20746f206e6f6e2d636f6e747261637400000060448201526064016106bf565b600080866001600160a01b0316858760405161398f9190613fe4565b60006040518083038185875af1925050503d80600081146139cc576040519150601f19603f3d011682016040523d82523d6000602084013e6139d1565b606091505b509150915061379a828286606083156139eb5750816122c6565b8251156139fb5782518084602001fd5b8160405162461bcd60e51b81526004016106bf91906140a2565b828054828255906000526020600020908101928215613a77579160200282015b82811115613a77578251825473ffffffffffffffffffffffffffffffffffffffff19166001600160a01b03909116178255602090920191600190910190613a35565b506135719291505b808211156135715760008155600101613a7f565b600082601f830112613aa457600080fd5b8135602067ffffffffffffffff80831115613ac157613ac1614198565b8260051b604051601f19603f83011681018181108482111715613ae657613ae6614198565b60405284815283810192508684018288018501891015613b0557600080fd5b600092505b85831015613b2f57613b1b81613b3b565b845292840192600192909201918401613b0a565b50979650505050505050565b8035613b46816141ae565b919050565b80356fffffffffffffffffffffffffffffffff81168114613b4657600080fd5b600060208284031215613b7d57600080fd5b81356122c6816141ae565b600060208284031215613b9a57600080fd5b81516122c6816141ae565b60008060408385031215613bb857600080fd5b8235613bc3816141ae565b91506020830135613bd3816141ae565b809150509250929050565b60008060008060608587031215613bf457600080fd5b8435613bff816141ae565b93506020850135613c0f816141ae565b9250604085013567ffffffffffffffff80821115613c2c57600080fd5b818701915087601f830112613c4057600080fd5b813581811115613c4f57600080fd5b8860208260051b8501011115613c6457600080fd5b95989497505060200194505050565b600080600060608486031215613c8857600080fd5b8335613c93816141ae565b92506020840135613ca3816141ae565b929592945050506040919091013590565b600080600080600060808688031215613ccc57600080fd5b8535613cd7816141ae565b94506020860135613ce7816141ae565b935060408601359250606086013567ffffffffffffffff80821115613d0b57600080fd5b818801915088601f830112613d1f57600080fd5b813581811115613d2e57600080fd5b896020828501011115613d4057600080fd5b9699959850939650602001949392505050565b600080600060608486031215613d6857600080fd5b8335613d73816141ae565b9250613d8160208501613b4b565b9150613d8f60408501613b4b565b90509250925092565b600080600060608486031215613dad57600080fd5b8335613db8816141ae565b9250602084013591506040840135613dcf816141ae565b809150509250925092565b60008060008060808587031215613df057600080fd5b8435613dfb816141ae565b9350602085013592506040850135613e12816141ae565b91506060850135613e22816141ae565b939692955090935050565b60008060008060808587031215613e4357600080fd5b8435613e4e816141ae565b9350602085013592506040850135613e65816141ae565b9396929550929360600135925050565b600080600060608486031215613e8a57600080fd5b8335613e95816141ae565b95602085013595506040909401359392505050565b600060208284031215613ebc57600080fd5b815180151581146122c657600080fd5b600080600060608486031215613ee157600080fd5b8335613eec816141ae565b9250602084013567ffffffffffffffff811115613f0857600080fd5b613f1486828701613a93565b925050604084013590509250925092565b60008060008060808587031215613f3b57600080fd5b8435613f46816141ae565b9350602085013567ffffffffffffffff811115613f6257600080fd5b613f6e87828801613a93565b935050604085013591506060850135613e22816141ae565b600060208284031215613f9857600080fd5b5035919050565b600060208284031215613fb157600080fd5b5051919050565b60008151808452613fd0816020860160208601614125565b601f01601f19169290920160200192915050565b60008251613ff6818460208701614125565b9190910192915050565b6020808252825182820181905260009190848201906040850190845b818110156140415783516001600160a01b03168352928401929184019160010161401c565b50909695505050505050565b6020815281602082015260007f07ffffffffffffffffffffffffffffffffffffffffffffffffffffffffffffff83111561408657600080fd5b8260051b80856040850137600092016040019182525092915050565b6020815260006122c66020830184613fb8565b600082198211156140c8576140c861416c565b500190565b6000826140ea57634e487b7160e01b600052601260045260246000fd5b500490565b60008160001904831182151516156141095761410961416c565b500290565b6000828210156141205761412061416c565b500390565b60005b83811015614140578181015183820152602001614128565b838111156109725750506000910152565b60006000198214156141655761416561416c565b5060010190565b634e487b7160e01b600052601160045260246000fd5b634e487b7160e01b600052603260045260246000fd5b634e487b7160e01b600052604160045260246000fd5b6001600160a01b038116811461145f57600080fdfea2646970667358221220680a34041e98f3c0df9fde5847568babe93b78a36e97c19df4ec79e3b5ad9a9b64736f6c63430008060033",
  "devdoc": {
    "kind": "dev",
    "methods": {
      "accountedBalance()": {
        "returns": {
          "_0": "The current total of all tokens"
        }
      },
      "award(address,uint256,address)": {
        "details": "The amount awarded must be less than the awardBalance()",
        "params": {
          "amount": "The amount of assets to be awarded",
          "controlledToken": "The address of the asset token being awarded",
          "to": "The address of the winner that receives the award"
        }
      },
      "awardBalance()": {
        "details": "captureAwardBalance() should be called first",
        "returns": {
          "_0": "The total amount of assets to be awarded for the current prize"
        }
      },
      "awardExternalERC20(address,address,uint256)": {
        "details": "Used to award any arbitrary tokens held by the Prize Pool",
        "params": {
          "amount": "The amount of external assets to be awarded",
          "externalToken": "The address of the external asset token being awarded",
          "to": "The address of the winner that receives the award"
        }
      },
      "awardExternalERC721(address,address,uint256[])": {
        "details": "Used to award any arbitrary NFTs held by the Prize Pool",
        "params": {
          "externalToken": "The address of the external NFT token being awarded",
          "to": "The address of the winner that receives the award",
          "tokenIds": "An array of NFT Token IDs to be transferred"
        }
      },
      "balance()": {
        "details": "Returns the total underlying balance of all assets. This includes both principal and interest.",
        "returns": {
          "_0": "The underlying balance of assets"
        }
      },
      "balanceOfCredit(address,address)": {
        "params": {
          "user": "The user whose credit balance should be returned"
        },
        "returns": {
          "_0": "The balance of the users credit"
        }
      },
      "calculateEarlyExitFee(address,address,uint256)": {
        "params": {
          "amount": "The amount of collateral to be withdrawn",
          "controlledToken": "The type of collateral being withdrawn",
          "from": "The user who is withdrawing"
        },
        "returns": {
          "burnedCredit": "The user's credit that was burned",
          "exitFee": "The exit fee"
        }
      },
      "calculateReserveFee(uint256)": {
        "params": {
          "amount": "The prize amount"
        },
        "returns": {
          "_0": "The size of the reserve portion of the prize"
        }
      },
      "canAwardExternal(address)": {
        "details": "Checks with the Prize Pool if a specific token type may be awarded as an external prize",
        "params": {
          "_externalToken": "The address of the token to check"
        },
        "returns": {
          "_0": "True if the token may be awarded, false otherwise"
        }
      },
      "captureAwardBalance()": {
        "details": "This function also captures the reserve fees.",
        "returns": {
          "_0": "The total amount of assets to be awarded for the current prize"
        }
      },
      "compLikeDelegate(address,address)": {
        "params": {
          "compLike": "The COMP-like token held by the prize pool that should be delegated",
          "to": "The address to delegate to"
        }
      },
      "creditPlanOf(address)": {
        "params": {
          "controlledToken": "The controlled token to retrieve the credit rates for"
        },
        "returns": {
          "creditLimitMantissa": "The credit limit fraction.  This number is used to calculate both the credit limit and early exit fee.",
          "creditRateMantissa": "The credit rate. This is the amount of tokens that accrue per second."
        }
      },
      "depositTo(address,uint256,address,address)": {
        "params": {
          "amount": "The amount of assets to deposit",
          "controlledToken": "The address of the type of token the user is minting",
          "referrer": "The referrer of the deposit",
          "to": "The address receiving the newly minted tokens"
        }
      },
      "estimateCreditAccrualTime(address,uint256,uint256)": {
        "params": {
          "_interest": "The amount of interest that must accrue",
          "_principal": "The principal amount on which interest is accruing"
        },
        "returns": {
          "durationSeconds": "The duration of time it will take to accrue the given amount of interest, in seconds."
        }
      },
      "initialize(address,address[],uint256)": {
        "params": {
          "_controlledTokens": "Array of ControlledTokens that are controlled by this Prize Pool.",
          "_maxExitFeeMantissa": "The maximum exit fee size"
        }
      },
      "initializeYieldSourcePrizePool(address,address[],uint256,address)": {
        "params": {
          "_controlledTokens": "Array of addresses for the Ticket and Sponsorship Tokens controlled by the Prize Pool",
          "_maxExitFeeMantissa": "The maximum exit fee size, relative to the withdrawal amount",
          "_yieldSource": "Address of the yield source"
        }
      },
      "isControlled(address)": {
        "details": "Checks if a specific token is controlled by the Prize Pool",
        "params": {
          "controlledToken": "The address of the token to check"
        },
        "returns": {
          "_0": "True if the token is a controlled token, false otherwise"
        }
      },
      "onERC721Received(address,address,uint256,bytes)": {
        "params": {
          "data": "Additional data with no specified format, sent in call to `_to`.",
          "from": "The current owner of the NFT",
          "operator": "The address that acts on behalf of the owner",
          "tokenId": "The NFT to transfer"
        }
      },
      "owner()": {
        "details": "Returns the address of the current owner."
      },
      "renounceOwnership()": {
        "details": "Leaves the contract without owner. It will not be possible to call `onlyOwner` functions anymore. Can only be called by the current owner. NOTE: Renouncing ownership will leave the contract without an owner, thereby removing any functionality that is only available to the owner."
      },
      "setCreditPlanOf(address,uint128,uint128)": {
        "params": {
          "_controlledToken": "The controlled token for whom to set the credit plan",
          "_creditLimitMantissa": "The credit limit to set.  Is a fixed point 18 decimal (like Ether).",
          "_creditRateMantissa": "The credit rate to set.  Is a fixed point 18 decimal (like Ether)."
        }
      },
      "setLiquidityCap(uint256)": {
        "params": {
          "_liquidityCap": "The new liquidity cap for the prize pool"
        }
      },
      "setPrizeStrategy(address)": {
        "params": {
          "_prizeStrategy": "The new prize strategy"
        }
      },
      "token()": {
        "details": "Returns the address of the underlying ERC20 asset",
        "returns": {
          "_0": "The address of the asset"
        }
      },
      "tokenAtIndex(uint256)": {
        "details": "Returns the address of a token in the _tokens array.",
        "returns": {
          "_0": "Address of token"
        }
      },
      "tokens()": {
        "returns": {
          "_0": "An array of controlled token addresses"
        }
      },
      "transferExternalERC20(address,address,uint256)": {
        "details": "Used to transfer out tokens held by the Prize Pool.  Could be liquidated, or anything.",
        "params": {
          "amount": "The amount of external assets to be awarded",
          "externalToken": "The address of the external asset token being awarded",
          "to": "The address of the winner that receives the award"
        }
      },
      "transferOwnership(address)": {
        "details": "Transfers ownership of the contract to a new account (`newOwner`). Can only be called by the current owner."
      },
      "withdrawInstantlyFrom(address,uint256,address,uint256)": {
        "params": {
          "amount": "The amount of tokens to redeem for assets.",
          "controlledToken": "The address of the token to redeem (i.e. ticket or sponsorship)",
          "from": "The address to redeem tokens from.",
          "maximumExitFee": "The maximum exit fee the caller is willing to pay.  This should be pre-calculated by the calculateExitFee() fxn."
        },
        "returns": {
          "_0": "The actual exit fee paid"
        }
      }
    },
    "version": 1
  },
  "userdoc": {
    "kind": "user",
    "methods": {
      "VERSION()": {
        "notice": "Semver Version"
      },
      "accountedBalance()": {
        "notice": "The total of all controlled tokens"
      },
      "award(address,uint256,address)": {
        "notice": "Called by the prize strategy to award prizes."
      },
      "awardBalance()": {
        "notice": "Returns the balance that is available to award."
      },
      "awardExternalERC20(address,address,uint256)": {
        "notice": "Called by the Prize-Strategy to award external ERC20 prizes"
      },
      "awardExternalERC721(address,address,uint256[])": {
        "notice": "Called by the prize strategy to award external ERC721 prizes"
      },
      "balanceOfCredit(address,address)": {
        "notice": "Returns the credit balance for a given user.  Not that this includes both minted credit and pending credit."
      },
      "calculateEarlyExitFee(address,address,uint256)": {
        "notice": "Calculates the early exit fee for the given amount"
      },
      "calculateReserveFee(uint256)": {
        "notice": "Calculates the reserve portion of the given amount of funds.  If there is no reserve address, the portion will be zero."
      },
      "captureAwardBalance()": {
        "notice": "Captures any available interest as award balance."
      },
      "compLikeDelegate(address,address)": {
        "notice": "Delegate the votes for a Compound COMP-like token held by the prize pool"
      },
      "creditPlanOf(address)": {
        "notice": "Returns the credit rate of a controlled token"
      },
      "depositTo(address,uint256,address,address)": {
        "notice": "Deposit assets into the Prize Pool in exchange for tokens"
      },
      "estimateCreditAccrualTime(address,uint256,uint256)": {
        "notice": "Estimates the amount of time it will take for a given amount of funds to accrue the given amount of credit."
      },
      "initialize(address,address[],uint256)": {
        "notice": "Initializes the Prize Pool"
      },
      "initializeYieldSourcePrizePool(address,address[],uint256,address)": {
        "notice": "Initializes the Prize Pool and Yield Service with the required contract connections"
      },
      "onERC721Received(address,address,uint256,bytes)": {
        "notice": "Required for ERC721 safe token transfers from smart contracts."
      },
      "setCreditPlanOf(address,uint128,uint128)": {
        "notice": "Sets the rate at which credit accrues per second.  The credit rate is a fixed point 18 number (like Ether)."
      },
      "setLiquidityCap(uint256)": {
        "notice": "Allows the Governor to set a cap on the amount of liquidity that he pool can hold"
      },
      "setPrizeStrategy(address)": {
        "notice": "Sets the prize strategy of the prize pool.  Only callable by the owner."
      },
      "tokens()": {
        "notice": "An array of the Tokens controlled by the Prize Pool (ie. Tickets, Sponsorship)"
      },
      "transferExternalERC20(address,address,uint256)": {
        "notice": "Called by the Prize-Strategy to transfer out external ERC20 tokens"
      },
      "withdrawInstantlyFrom(address,uint256,address,uint256)": {
        "notice": "Withdraw assets from the Prize Pool instantly.  A fairness fee may be charged for an early exit."
      }
    },
    "version": 1
  },
  "storageLayout": {
    "storage": [
      {
        "astId": 130,
        "contract": "@pooltogether/v4/contracts/prize-pool/YieldSourcePrizePool.sol:YieldSourcePrizePool",
        "label": "_initialized",
        "offset": 0,
        "slot": "0",
        "type": "t_bool"
      },
      {
        "astId": 133,
        "contract": "@pooltogether/v4/contracts/prize-pool/YieldSourcePrizePool.sol:YieldSourcePrizePool",
        "label": "_initializing",
        "offset": 1,
        "slot": "0",
        "type": "t_bool"
      },
      {
        "astId": 1781,
        "contract": "@pooltogether/v4/contracts/prize-pool/YieldSourcePrizePool.sol:YieldSourcePrizePool",
        "label": "__gap",
        "offset": 0,
        "slot": "1",
        "type": "t_array(t_uint256)50_storage"
      },
      {
        "astId": 10,
        "contract": "@pooltogether/v4/contracts/prize-pool/YieldSourcePrizePool.sol:YieldSourcePrizePool",
        "label": "_owner",
        "offset": 0,
        "slot": "51",
        "type": "t_address"
      },
      {
        "astId": 123,
        "contract": "@pooltogether/v4/contracts/prize-pool/YieldSourcePrizePool.sol:YieldSourcePrizePool",
        "label": "__gap",
        "offset": 0,
        "slot": "52",
        "type": "t_array(t_uint256)49_storage"
      },
      {
        "astId": 184,
        "contract": "@pooltogether/v4/contracts/prize-pool/YieldSourcePrizePool.sol:YieldSourcePrizePool",
        "label": "_status",
        "offset": 0,
        "slot": "101",
        "type": "t_uint256"
      },
      {
        "astId": 227,
        "contract": "@pooltogether/v4/contracts/prize-pool/YieldSourcePrizePool.sol:YieldSourcePrizePool",
        "label": "__gap",
        "offset": 0,
        "slot": "102",
        "type": "t_array(t_uint256)49_storage"
      },
      {
        "astId": 9394,
        "contract": "@pooltogether/v4/contracts/prize-pool/YieldSourcePrizePool.sol:YieldSourcePrizePool",
        "label": "reserveRegistry",
        "offset": 0,
        "slot": "151",
        "type": "t_contract(RegistryInterface)11500"
      },
      {
        "astId": 9399,
        "contract": "@pooltogether/v4/contracts/prize-pool/YieldSourcePrizePool.sol:YieldSourcePrizePool",
        "label": "_tokens",
        "offset": 0,
        "slot": "152",
        "type": "t_array(t_contract(ControlledTokenInterface)11730)dyn_storage"
      },
      {
        "astId": 9402,
        "contract": "@pooltogether/v4/contracts/prize-pool/YieldSourcePrizePool.sol:YieldSourcePrizePool",
        "label": "prizeStrategy",
        "offset": 0,
        "slot": "153",
        "type": "t_address"
      },
      {
        "astId": 9405,
        "contract": "@pooltogether/v4/contracts/prize-pool/YieldSourcePrizePool.sol:YieldSourcePrizePool",
        "label": "maxExitFeeMantissa",
        "offset": 0,
        "slot": "154",
        "type": "t_uint256"
      },
      {
        "astId": 9408,
        "contract": "@pooltogether/v4/contracts/prize-pool/YieldSourcePrizePool.sol:YieldSourcePrizePool",
        "label": "reserveTotalSupply",
        "offset": 0,
        "slot": "155",
        "type": "t_uint256"
      },
      {
        "astId": 9411,
        "contract": "@pooltogether/v4/contracts/prize-pool/YieldSourcePrizePool.sol:YieldSourcePrizePool",
        "label": "liquidityCap",
        "offset": 0,
        "slot": "156",
        "type": "t_uint256"
      },
      {
        "astId": 9414,
        "contract": "@pooltogether/v4/contracts/prize-pool/YieldSourcePrizePool.sol:YieldSourcePrizePool",
        "label": "_currentAwardBalance",
        "offset": 0,
        "slot": "157",
        "type": "t_uint256"
      },
      {
        "astId": 9420,
        "contract": "@pooltogether/v4/contracts/prize-pool/YieldSourcePrizePool.sol:YieldSourcePrizePool",
        "label": "_tokenCreditPlans",
        "offset": 0,
        "slot": "158",
        "type": "t_mapping(t_address,t_struct(CreditPlan)9379_storage)"
      },
      {
        "astId": 9428,
        "contract": "@pooltogether/v4/contracts/prize-pool/YieldSourcePrizePool.sol:YieldSourcePrizePool",
        "label": "_tokenCreditBalances",
        "offset": 0,
        "slot": "159",
        "type": "t_mapping(t_address,t_mapping(t_address,t_struct(CreditBalance)9386_storage))"
      },
      {
        "astId": 11209,
        "contract": "@pooltogether/v4/contracts/prize-pool/YieldSourcePrizePool.sol:YieldSourcePrizePool",
        "label": "yieldSource",
        "offset": 0,
        "slot": "160",
        "type": "t_contract(IYieldSource)11764"
      }
    ],
    "types": {
      "t_address": {
        "encoding": "inplace",
        "label": "address",
        "numberOfBytes": "20"
      },
      "t_array(t_contract(ControlledTokenInterface)11730)dyn_storage": {
        "base": "t_contract(ControlledTokenInterface)11730",
        "encoding": "dynamic_array",
        "label": "contract ControlledTokenInterface[]",
        "numberOfBytes": "32"
      },
      "t_array(t_uint256)49_storage": {
        "base": "t_uint256",
        "encoding": "inplace",
        "label": "uint256[49]",
        "numberOfBytes": "1568"
      },
      "t_array(t_uint256)50_storage": {
        "base": "t_uint256",
        "encoding": "inplace",
        "label": "uint256[50]",
        "numberOfBytes": "1600"
      },
      "t_bool": {
        "encoding": "inplace",
        "label": "bool",
        "numberOfBytes": "1"
      },
      "t_contract(ControlledTokenInterface)11730": {
        "encoding": "inplace",
        "label": "contract ControlledTokenInterface",
        "numberOfBytes": "20"
      },
      "t_contract(IYieldSource)11764": {
        "encoding": "inplace",
        "label": "contract IYieldSource",
        "numberOfBytes": "20"
      },
      "t_contract(RegistryInterface)11500": {
        "encoding": "inplace",
        "label": "contract RegistryInterface",
        "numberOfBytes": "20"
      },
      "t_mapping(t_address,t_mapping(t_address,t_struct(CreditBalance)9386_storage))": {
        "encoding": "mapping",
        "key": "t_address",
        "label": "mapping(address => mapping(address => struct PrizePool.CreditBalance))",
        "numberOfBytes": "32",
        "value": "t_mapping(t_address,t_struct(CreditBalance)9386_storage)"
      },
      "t_mapping(t_address,t_struct(CreditBalance)9386_storage)": {
        "encoding": "mapping",
        "key": "t_address",
        "label": "mapping(address => struct PrizePool.CreditBalance)",
        "numberOfBytes": "32",
        "value": "t_struct(CreditBalance)9386_storage"
      },
      "t_mapping(t_address,t_struct(CreditPlan)9379_storage)": {
        "encoding": "mapping",
        "key": "t_address",
        "label": "mapping(address => struct PrizePool.CreditPlan)",
        "numberOfBytes": "32",
        "value": "t_struct(CreditPlan)9379_storage"
      },
      "t_struct(CreditBalance)9386_storage": {
        "encoding": "inplace",
        "label": "struct PrizePool.CreditBalance",
        "members": [
          {
            "astId": 9381,
            "contract": "@pooltogether/v4/contracts/prize-pool/YieldSourcePrizePool.sol:YieldSourcePrizePool",
            "label": "balance",
            "offset": 0,
            "slot": "0",
            "type": "t_uint192"
          },
          {
            "astId": 9383,
            "contract": "@pooltogether/v4/contracts/prize-pool/YieldSourcePrizePool.sol:YieldSourcePrizePool",
            "label": "timestamp",
            "offset": 24,
            "slot": "0",
            "type": "t_uint32"
          },
          {
            "astId": 9385,
            "contract": "@pooltogether/v4/contracts/prize-pool/YieldSourcePrizePool.sol:YieldSourcePrizePool",
            "label": "initialized",
            "offset": 28,
            "slot": "0",
            "type": "t_bool"
          }
        ],
        "numberOfBytes": "32"
      },
      "t_struct(CreditPlan)9379_storage": {
        "encoding": "inplace",
        "label": "struct PrizePool.CreditPlan",
        "members": [
          {
            "astId": 9376,
            "contract": "@pooltogether/v4/contracts/prize-pool/YieldSourcePrizePool.sol:YieldSourcePrizePool",
            "label": "creditLimitMantissa",
            "offset": 0,
            "slot": "0",
            "type": "t_uint128"
          },
          {
            "astId": 9378,
            "contract": "@pooltogether/v4/contracts/prize-pool/YieldSourcePrizePool.sol:YieldSourcePrizePool",
            "label": "creditRateMantissa",
            "offset": 16,
            "slot": "0",
            "type": "t_uint128"
          }
        ],
        "numberOfBytes": "32"
      },
      "t_uint128": {
        "encoding": "inplace",
        "label": "uint128",
        "numberOfBytes": "16"
      },
      "t_uint192": {
        "encoding": "inplace",
        "label": "uint192",
        "numberOfBytes": "24"
      },
      "t_uint256": {
        "encoding": "inplace",
        "label": "uint256",
        "numberOfBytes": "32"
      },
      "t_uint32": {
        "encoding": "inplace",
        "label": "uint32",
        "numberOfBytes": "4"
      }
    }
  }
}