{
  "address": "0x930bCFD7a68572433b8Be18cD08BcffAb5b348f5",
  "abi": [
    {
      "inputs": [
        {
          "internalType": "address",
          "name": "owner",
          "type": "address"
        },
        {
          "internalType": "contract ITsunamiDrawSettingsHistory",
          "name": "_tsunamiDrawSettingsHistory",
          "type": "address"
        },
        {
          "internalType": "contract IDrawCalculatorTimelock",
          "name": "_timelock",
          "type": "address"
        }
      ],
      "stateMutability": "nonpayable",
      "type": "constructor"
    },
    {
      "anonymous": false,
      "inputs": [
        {
          "indexed": true,
          "internalType": "address",
          "name": "previousManager",
          "type": "address"
        },
        {
          "indexed": true,
          "internalType": "address",
          "name": "newManager",
          "type": "address"
        }
      ],
      "name": "ManagerTransferred",
      "type": "event"
    },
    {
      "anonymous": false,
      "inputs": [
        {
          "indexed": true,
          "internalType": "address",
          "name": "pendingOwner",
          "type": "address"
        }
      ],
      "name": "OwnershipOffered",
      "type": "event"
    },
    {
      "anonymous": false,
      "inputs": [
        {
          "indexed": true,
          "internalType": "address",
          "name": "previousOwner",
          "type": "address"
        },
        {
          "indexed": true,
          "internalType": "address",
          "name": "newOwner",
          "type": "address"
        }
      ],
      "name": "OwnershipTransferred",
      "type": "event"
    },
    {
      "inputs": [],
      "name": "claimOwnership",
      "outputs": [],
      "stateMutability": "nonpayable",
      "type": "function"
    },
    {
      "inputs": [],
      "name": "manager",
      "outputs": [
        {
          "internalType": "address",
          "name": "",
          "type": "address"
        }
      ],
      "stateMutability": "view",
      "type": "function"
    },
    {
      "inputs": [],
      "name": "owner",
      "outputs": [
        {
          "internalType": "address",
          "name": "",
          "type": "address"
        }
      ],
      "stateMutability": "view",
      "type": "function"
    },
    {
      "inputs": [],
      "name": "pendingOwner",
      "outputs": [
        {
          "internalType": "address",
          "name": "",
          "type": "address"
        }
      ],
      "stateMutability": "view",
      "type": "function"
    },
    {
      "inputs": [
        {
          "internalType": "uint32",
          "name": "_drawId",
          "type": "uint32"
        },
        {
          "components": [
            {
              "internalType": "uint8",
              "name": "bitRangeSize",
              "type": "uint8"
            },
            {
              "internalType": "uint8",
              "name": "matchCardinality",
              "type": "uint8"
            },
            {
              "internalType": "uint32",
              "name": "drawStartTimestampOffset",
              "type": "uint32"
            },
            {
              "internalType": "uint32",
              "name": "drawEndTimestampOffset",
              "type": "uint32"
            },
            {
              "internalType": "uint32",
              "name": "maxPicksPerUser",
              "type": "uint32"
            },
            {
              "internalType": "uint136",
              "name": "numberOfPicks",
              "type": "uint136"
            },
            {
              "internalType": "uint32[]",
              "name": "distributions",
              "type": "uint32[]"
            },
            {
              "internalType": "uint256",
              "name": "prize",
              "type": "uint256"
            }
          ],
          "internalType": "struct DrawLib.TsunamiDrawSettings",
          "name": "_drawSetting",
          "type": "tuple"
        }
      ],
      "name": "pushDrawSettings",
      "outputs": [],
      "stateMutability": "nonpayable",
      "type": "function"
    },
    {
      "inputs": [],
      "name": "renounceOwnership",
      "outputs": [],
      "stateMutability": "nonpayable",
      "type": "function"
    },
    {
      "inputs": [
        {
          "internalType": "address",
          "name": "_newManager",
          "type": "address"
        }
      ],
      "name": "setManager",
      "outputs": [
        {
          "internalType": "bool",
          "name": "",
          "type": "bool"
        }
      ],
      "stateMutability": "nonpayable",
      "type": "function"
    },
    {
      "inputs": [
        {
          "internalType": "address",
          "name": "_newOwner",
          "type": "address"
        }
      ],
      "name": "transferOwnership",
      "outputs": [],
      "stateMutability": "nonpayable",
      "type": "function"
    }
  ],
  "transactionHash": "0xb9232b592f45766978914c6905f0dba1b3306943e5fff4af3aa58221cb4ff261",
  "args": [
    "0xE0F4217390221aF47855E094F6e112D43C8698fE",
    "0xF0652FeA07cB0fdfF8247dc318976A8F37f44067",
    "0xF7BE06f58f39486AB5Fb39b5915f453EFD65BfE0"
  ],
  "solcInputHash": "c10ecf7ed4019ef1b5b277259dc2440b",
  "bytecode": "0x60a060405234801561001057600080fd5b50604051610c65380380610c6583398101604081905261002f916100c2565b8261003981610072565b5060609190911b6001600160601b031916608052600380546001600160a01b0319166001600160a01b0390921691909117905550610127565b600080546001600160a01b038381166001600160a01b0319831681178455604051919092169283917f8be0079c531659141344cd1fd0a4f28419497f9722a3daafe3b4186f6b6457e09190a35050565b6000806000606084860312156100d757600080fd5b83516100e28161010f565b60208501519093506100f38161010f565b60408501519092506101048161010f565b809150509250925092565b6001600160a01b038116811461012457600080fd5b50565b60805160601c610b2061014560003960006103470152610b206000f3fe608060405234801561001057600080fd5b50600436106100885760003560e01c80638da5cb5b1161005b5780638da5cb5b146100dc578063d0ebdbe7146100ed578063e30c397814610110578063f2fde38b1461012157600080fd5b8063481c6a751461008d5780634e71e0c8146100b75780635676460d146100c1578063715018a6146100d4575b600080fd5b6002546001600160a01b03165b6040516001600160a01b0390911681526020015b60405180910390f35b6100bf610134565b005b6100bf6100cf3660046108a9565b6101c7565b6100bf6103d5565b6000546001600160a01b031661009a565b6101006100fb366004610857565b61044a565b60405190151581526020016100ae565b6001546001600160a01b031661009a565b6100bf61012f366004610857565b6104c6565b6001546001600160a01b031633146101935760405162461bcd60e51b815260206004820152601f60248201527f4f776e61626c652f63616c6c65722d6e6f742d70656e64696e674f776e65720060448201526064015b60405180910390fd5b6001546101a8906001600160a01b0316610602565b6001805473ffffffffffffffffffffffffffffffffffffffff19169055565b336101da6002546001600160a01b031690565b6001600160a01b031614806102085750336101fd6000546001600160a01b031690565b6001600160a01b0316145b61027a5760405162461bcd60e51b815260206004820152602660248201527f4d616e61676561626c652f63616c6c65722d6e6f742d6d616e616765722d6f7260448201527f2d6f776e65720000000000000000000000000000000000000000000000000000606482015260840161018a565b6003546040517fd3c45b8d00000000000000000000000000000000000000000000000000000000815263ffffffff841660048201526001600160a01b039091169063d3c45b8d90602401602060405180830381600087803b1580156102de57600080fd5b505af11580156102f2573d6000803e3d6000fd5b505050506040513d601f19601f820116820180604052508101906103169190610887565b506040517f5676460d0000000000000000000000000000000000000000000000000000000081526001600160a01b037f00000000000000000000000000000000000000000000000000000000000000001690635676460d9061037e90859085906004016109db565b602060405180830381600087803b15801561039857600080fd5b505af11580156103ac573d6000803e3d6000fd5b505050506040513d601f19601f820116820180604052508101906103d09190610887565b505050565b336103e86000546001600160a01b031690565b6001600160a01b03161461043e5760405162461bcd60e51b815260206004820152601860248201527f4f776e61626c652f63616c6c65722d6e6f742d6f776e65720000000000000000604482015260640161018a565b6104486000610602565b565b60003361045f6000546001600160a01b031690565b6001600160a01b0316146104b55760405162461bcd60e51b815260206004820152601860248201527f4f776e61626c652f63616c6c65722d6e6f742d6f776e65720000000000000000604482015260640161018a565b6104be8261065f565b90505b919050565b336104d96000546001600160a01b031690565b6001600160a01b03161461052f5760405162461bcd60e51b815260206004820152601860248201527f4f776e61626c652f63616c6c65722d6e6f742d6f776e65720000000000000000604482015260640161018a565b6001600160a01b0381166105ab5760405162461bcd60e51b815260206004820152602560248201527f4f776e61626c652f70656e64696e674f776e65722d6e6f742d7a65726f2d616460448201527f6472657373000000000000000000000000000000000000000000000000000000606482015260840161018a565b6001805473ffffffffffffffffffffffffffffffffffffffff19166001600160a01b0383169081179091556040517f239a2ddded15777fa246aed5f7e1a9bc69a39d4eb4a397034d1d85766cca7d4c90600090a250565b600080546001600160a01b0383811673ffffffffffffffffffffffffffffffffffffffff19831681178455604051919092169283917f8be0079c531659141344cd1fd0a4f28419497f9722a3daafe3b4186f6b6457e09190a35050565b6002546000906001600160a01b039081169083168114156106e85760405162461bcd60e51b815260206004820152602360248201527f4d616e61676561626c652f6578697374696e672d6d616e616765722d6164647260448201527f6573730000000000000000000000000000000000000000000000000000000000606482015260840161018a565b6002805473ffffffffffffffffffffffffffffffffffffffff19166001600160a01b0385811691821790925560405190918316907f9cb45c728de594dab506a1f1a8554e24c8eeaf983618d5ec5dd7bc6f3c49feee90600090a350600192915050565b600082601f83011261075c57600080fd5b8135602067ffffffffffffffff8083111561077957610779610abb565b8260051b6040517fffffffffffffffffffffffffffffffffffffffffffffffffffffffffffffffe0603f830116810181811084821117156107bc576107bc610abb565b604052848152838101925086840182880185018910156107db57600080fd5b600092505b85831015610805576107f181610832565b8452928401926001929092019184016107e0565b50979650505050505050565b803570ffffffffffffffffffffffffffffffffff811681146104c157600080fd5b803563ffffffff811681146104c157600080fd5b803560ff811681146104c157600080fd5b60006020828403121561086957600080fd5b81356001600160a01b038116811461088057600080fd5b9392505050565b60006020828403121561089957600080fd5b8151801515811461088057600080fd5b600080604083850312156108bc57600080fd5b6108c583610832565b9150602083013567ffffffffffffffff808211156108e257600080fd5b9084019061010082870312156108f757600080fd5b6108ff610a91565b61090883610846565b815261091660208401610846565b602082015261092760408401610832565b604082015261093860608401610832565b606082015261094960808401610832565b608082015261095a60a08401610811565b60a082015260c08301358281111561097157600080fd5b61097d8882860161074b565b60c08301525060e083013560e08201528093505050509250929050565b600081518084526020808501945080840160005b838110156109d057815163ffffffff16875295820195908201906001016109ae565b509495945050505050565b63ffffffff831681526040602082015260ff825116604082015260ff602083015116606082015260006040830151610a1b608084018263ffffffff169052565b50606083015163ffffffff811660a084015250608083015163ffffffff811660c08401525060a083015170ffffffffffffffffffffffffffffffffff811660e08401525060c083015161010083810152610a7961014084018261099a565b905060e0840151610120840152809150509392505050565b604051610100810167ffffffffffffffff81118282101715610ab557610ab5610abb565b60405290565b7f4e487b7100000000000000000000000000000000000000000000000000000000600052604160045260246000fdfea26469706673582212201f7b1cb5b6b2d34a55ef07d576a6eb4a03191ca7a3918d9acd76b35768b5521e64736f6c63430008060033",
  "devdoc": {
    "author": "PoolTogether Inc Team",
    "kind": "dev",
    "methods": {
      "claimOwnership()": {
        "details": "This function is only callable by the `_pendingOwner`."
      },
      "constructor": {
        "params": {
          "_timelock": "Elapsed seconds before new Draw is available",
          "_tsunamiDrawSettingsHistory": "TsunamiDrawSettingsHistory address"
        }
      },
      "manager()": {
        "returns": {
          "_0": "Current `_manager` address."
        }
      },
      "pendingOwner()": {
        "returns": {
          "_0": "Current `_pendingOwner` address."
        }
      },
      "pushDrawSettings(uint32,(uint8,uint8,uint32,uint32,uint32,uint136,uint32[],uint256))": {
        "details": "Restricts new draws by forcing a push timelock.",
        "params": {
          "_drawId": "draw id",
          "_drawSetting": "Draw settings"
        }
      },
      "renounceOwnership()": {
        "details": "Leaves the contract without owner. It will not be possible to call `onlyOwner` functions anymore. Can only be called by the current owner. NOTE: Renouncing ownership will leave the contract without an owner, thereby removing any functionality that is only available to the owner."
      },
      "setManager(address)": {
        "details": "Throws if called by any account other than the owner.",
        "params": {
          "_newManager": "New _manager address."
        },
        "returns": {
          "_0": "Boolean to indicate if the operation was successful or not."
        }
      },
      "transferOwnership(address)": {
        "params": {
          "_newOwner": "Address to transfer ownership to."
        }
      }
    },
    "title": "PoolTogether V4 DrawSettingsTimelockTrigger",
    "version": 1
  },
  "userdoc": {
    "kind": "user",
    "methods": {
      "claimOwnership()": {
        "notice": "Allows the `_pendingOwner` address to finalize the transfer."
      },
      "constructor": {
        "notice": "Initialize DrawSettingsTimelockTrigger smart contract."
      },
      "manager()": {
        "notice": "Gets current `_manager`."
      },
      "owner()": {
        "notice": "Returns the address of the current owner."
      },
      "pendingOwner()": {
        "notice": "Gets current `_pendingOwner`."
      },
      "pushDrawSettings(uint32,(uint8,uint8,uint32,uint32,uint32,uint136,uint32[],uint256))": {
        "notice": "Push Draw onto draws ring buffer history."
      },
      "renounceOwnership()": {
        "notice": "Renounce ownership of the contract."
      },
      "setManager(address)": {
        "notice": "Set or change of manager."
      },
      "transferOwnership(address)": {
        "notice": "Allows current owner to set the `_pendingOwner` address."
      }
    },
    "notice": "DrawSettingsTimelockTrigger(s) acts as an intermediary between multiple V4 smart contracts. The DrawSettingsTimelockTrigger is responsible for pushing Draws to a DrawHistory and routing claim requests from a ClaimableDraw to a DrawCalculator. The primary objective is to  include a \"cooldown\" period for all new Draws. Allowing the correction of a malicously set Draw in the unfortunate event an Owner is compromised.",
    "version": 1
  },
  "storageLayout": {
    "storage": [
      {
        "astId": 3466,
        "contract": "@pooltogether/v4-oracle-timelocks/contracts/DrawSettingsTimelockTrigger.sol:DrawSettingsTimelockTrigger",
        "label": "_owner",
        "offset": 0,
        "slot": "0",
        "type": "t_address"
      },
      {
        "astId": 3468,
        "contract": "@pooltogether/v4-oracle-timelocks/contracts/DrawSettingsTimelockTrigger.sol:DrawSettingsTimelockTrigger",
        "label": "_pendingOwner",
        "offset": 0,
        "slot": "1",
        "type": "t_address"
      },
      {
        "astId": 3364,
        "contract": "@pooltogether/v4-oracle-timelocks/contracts/DrawSettingsTimelockTrigger.sol:DrawSettingsTimelockTrigger",
        "label": "_manager",
        "offset": 0,
        "slot": "2",
        "type": "t_address"
      },
      {
        "astId": 11807,
        "contract": "@pooltogether/v4-oracle-timelocks/contracts/DrawSettingsTimelockTrigger.sol:DrawSettingsTimelockTrigger",
        "label": "timelock",
        "offset": 0,
        "slot": "3",
        "type": "t_contract(IDrawCalculatorTimelock)12002"
      }
    ],
    "types": {
      "t_address": {
        "encoding": "inplace",
        "label": "address",
        "numberOfBytes": "20"
      },
      "t_contract(IDrawCalculatorTimelock)12002": {
        "encoding": "inplace",
        "label": "contract IDrawCalculatorTimelock",
        "numberOfBytes": "20"
      }
    }
  }
}