{
  "address": "0x0f4b8d0cb59765D3D10711Fb3E7b94429469E1e1",
  "abi": [
    {
      "inputs": [
        {
          "internalType": "address",
          "name": "_owner",
          "type": "address"
        },
        {
          "internalType": "contract IDrawHistory",
          "name": "_drawHistory",
          "type": "address"
        },
        {
          "internalType": "contract RNGInterface",
          "name": "_rng",
          "type": "address"
        },
        {
          "internalType": "uint256",
          "name": "_beaconPeriodStart",
          "type": "uint256"
        },
        {
          "internalType": "uint256",
          "name": "_beaconPeriodSeconds",
          "type": "uint256"
        }
      ],
      "stateMutability": "nonpayable",
      "type": "constructor"
    },
    {
      "anonymous": false,
      "inputs": [
        {
          "indexed": false,
          "internalType": "uint256",
          "name": "drawPeriodSeconds",
          "type": "uint256"
        }
      ],
      "name": "BeaconPeriodSecondsUpdated",
      "type": "event"
    },
    {
      "anonymous": false,
      "inputs": [
        {
          "indexed": true,
          "internalType": "address",
          "name": "operator",
          "type": "address"
        },
        {
          "indexed": true,
          "internalType": "uint256",
          "name": "drawPeriodStartedAt",
          "type": "uint256"
        }
      ],
      "name": "BeaconPeriodStarted",
      "type": "event"
    },
    {
      "anonymous": false,
      "inputs": [
        {
          "indexed": true,
          "internalType": "contract IDrawHistory",
          "name": "drawHistory",
          "type": "address"
        },
        {
          "indexed": true,
          "internalType": "contract RNGInterface",
          "name": "rng",
          "type": "address"
        },
        {
          "indexed": false,
          "internalType": "uint256",
          "name": "rngRequestPeriodStart",
          "type": "uint256"
        },
        {
          "indexed": false,
          "internalType": "uint256",
          "name": "drawPeriodSeconds",
          "type": "uint256"
        }
      ],
      "name": "Deployed",
      "type": "event"
    },
    {
      "anonymous": false,
      "inputs": [
        {
          "indexed": true,
          "internalType": "address",
          "name": "operator",
          "type": "address"
        },
        {
          "indexed": true,
          "internalType": "uint32",
          "name": "rngRequestId",
          "type": "uint32"
        },
        {
          "indexed": false,
          "internalType": "uint32",
          "name": "rngLockBlock",
          "type": "uint32"
        }
      ],
      "name": "DrawCancelled",
      "type": "event"
    },
    {
      "anonymous": false,
      "inputs": [
        {
          "indexed": true,
          "internalType": "address",
          "name": "operator",
          "type": "address"
        },
        {
          "indexed": false,
          "internalType": "uint256",
          "name": "randomNumber",
          "type": "uint256"
        }
      ],
      "name": "DrawCompleted",
      "type": "event"
    },
    {
      "anonymous": false,
      "inputs": [
        {
          "indexed": true,
          "internalType": "contract IDrawHistory",
          "name": "previousDrawHistory",
          "type": "address"
        },
        {
          "indexed": true,
          "internalType": "contract IDrawHistory",
          "name": "newDrawHistory",
          "type": "address"
        }
      ],
      "name": "DrawHistoryTransferred",
      "type": "event"
    },
    {
      "anonymous": false,
      "inputs": [
        {
          "indexed": true,
          "internalType": "address",
          "name": "operator",
          "type": "address"
        },
        {
          "indexed": true,
          "internalType": "uint32",
          "name": "rngRequestId",
          "type": "uint32"
        },
        {
          "indexed": false,
          "internalType": "uint32",
          "name": "rngLockBlock",
          "type": "uint32"
        }
      ],
      "name": "DrawStarted",
      "type": "event"
    },
    {
      "anonymous": false,
      "inputs": [
        {
          "indexed": true,
          "internalType": "address",
          "name": "pendingOwner",
          "type": "address"
        }
      ],
      "name": "OwnershipOffered",
      "type": "event"
    },
    {
      "anonymous": false,
      "inputs": [
        {
          "indexed": true,
          "internalType": "address",
          "name": "previousOwner",
          "type": "address"
        },
        {
          "indexed": true,
          "internalType": "address",
          "name": "newOwner",
          "type": "address"
        }
      ],
      "name": "OwnershipTransferred",
      "type": "event"
    },
    {
      "anonymous": false,
      "inputs": [
        {
          "indexed": true,
          "internalType": "contract RNGInterface",
          "name": "rngService",
          "type": "address"
        }
      ],
      "name": "RngServiceUpdated",
      "type": "event"
    },
    {
      "anonymous": false,
      "inputs": [
        {
          "indexed": false,
          "internalType": "uint32",
          "name": "rngTimeout",
          "type": "uint32"
        }
      ],
      "name": "RngTimeoutSet",
      "type": "event"
    },
    {
      "inputs": [],
      "name": "beaconPeriodEndAt",
      "outputs": [
        {
          "internalType": "uint256",
          "name": "",
          "type": "uint256"
        }
      ],
      "stateMutability": "view",
      "type": "function"
    },
    {
      "inputs": [],
      "name": "beaconPeriodRemainingSeconds",
      "outputs": [
        {
          "internalType": "uint256",
          "name": "",
          "type": "uint256"
        }
      ],
      "stateMutability": "view",
      "type": "function"
    },
    {
      "inputs": [],
      "name": "beaconPeriodSeconds",
      "outputs": [
        {
          "internalType": "uint256",
          "name": "",
          "type": "uint256"
        }
      ],
      "stateMutability": "view",
      "type": "function"
    },
    {
      "inputs": [],
      "name": "beaconPeriodStartedAt",
      "outputs": [
        {
          "internalType": "uint256",
          "name": "",
          "type": "uint256"
        }
      ],
      "stateMutability": "view",
      "type": "function"
    },
    {
      "inputs": [
        {
          "internalType": "uint256",
          "name": "currentTime",
          "type": "uint256"
        }
      ],
      "name": "calculateNextBeaconPeriodStartTime",
      "outputs": [
        {
          "internalType": "uint256",
          "name": "",
          "type": "uint256"
        }
      ],
      "stateMutability": "view",
      "type": "function"
    },
    {
      "inputs": [],
      "name": "canCompleteDraw",
      "outputs": [
        {
          "internalType": "bool",
          "name": "",
          "type": "bool"
        }
      ],
      "stateMutability": "view",
      "type": "function"
    },
    {
      "inputs": [],
      "name": "canStartDraw",
      "outputs": [
        {
          "internalType": "bool",
          "name": "",
          "type": "bool"
        }
      ],
      "stateMutability": "view",
      "type": "function"
    },
    {
      "inputs": [],
      "name": "cancelDraw",
      "outputs": [],
      "stateMutability": "nonpayable",
      "type": "function"
    },
    {
      "inputs": [],
      "name": "claimOwnership",
      "outputs": [],
      "stateMutability": "nonpayable",
      "type": "function"
    },
    {
      "inputs": [],
      "name": "completeDraw",
      "outputs": [],
      "stateMutability": "nonpayable",
      "type": "function"
    },
    {
      "inputs": [],
      "name": "drawHistory",
      "outputs": [
        {
          "internalType": "contract IDrawHistory",
          "name": "",
          "type": "address"
        }
      ],
      "stateMutability": "view",
      "type": "function"
    },
    {
      "inputs": [],
      "name": "getLastRngLockBlock",
      "outputs": [
        {
          "internalType": "uint32",
          "name": "",
          "type": "uint32"
        }
      ],
      "stateMutability": "view",
      "type": "function"
    },
    {
      "inputs": [],
      "name": "getLastRngRequestId",
      "outputs": [
        {
          "internalType": "uint32",
          "name": "",
          "type": "uint32"
        }
      ],
      "stateMutability": "view",
      "type": "function"
    },
    {
      "inputs": [],
      "name": "isBeaconPeriodOver",
      "outputs": [
        {
          "internalType": "bool",
          "name": "",
          "type": "bool"
        }
      ],
      "stateMutability": "view",
      "type": "function"
    },
    {
      "inputs": [],
      "name": "isRngCompleted",
      "outputs": [
        {
          "internalType": "bool",
          "name": "",
          "type": "bool"
        }
      ],
      "stateMutability": "view",
      "type": "function"
    },
    {
      "inputs": [],
      "name": "isRngRequested",
      "outputs": [
        {
          "internalType": "bool",
          "name": "",
          "type": "bool"
        }
      ],
      "stateMutability": "view",
      "type": "function"
    },
    {
      "inputs": [],
      "name": "isRngTimedOut",
      "outputs": [
        {
          "internalType": "bool",
          "name": "",
          "type": "bool"
        }
      ],
      "stateMutability": "view",
      "type": "function"
    },
    {
      "inputs": [],
      "name": "nextDrawId",
      "outputs": [
        {
          "internalType": "uint32",
          "name": "",
          "type": "uint32"
        }
      ],
      "stateMutability": "view",
      "type": "function"
    },
    {
      "inputs": [],
      "name": "owner",
      "outputs": [
        {
          "internalType": "address",
          "name": "",
          "type": "address"
        }
      ],
      "stateMutability": "view",
      "type": "function"
    },
    {
      "inputs": [],
      "name": "pendingOwner",
      "outputs": [
        {
          "internalType": "address",
          "name": "",
          "type": "address"
        }
      ],
      "stateMutability": "view",
      "type": "function"
    },
    {
      "inputs": [],
      "name": "renounceOwnership",
      "outputs": [],
      "stateMutability": "nonpayable",
      "type": "function"
    },
    {
      "inputs": [],
      "name": "rng",
      "outputs": [
        {
          "internalType": "contract RNGInterface",
          "name": "",
          "type": "address"
        }
      ],
      "stateMutability": "view",
      "type": "function"
    },
    {
      "inputs": [],
      "name": "rngTimeout",
      "outputs": [
        {
          "internalType": "uint32",
          "name": "",
          "type": "uint32"
        }
      ],
      "stateMutability": "view",
      "type": "function"
    },
    {
      "inputs": [
        {
          "internalType": "uint256",
          "name": "beaconPeriodSeconds",
          "type": "uint256"
        }
      ],
      "name": "setBeaconPeriodSeconds",
      "outputs": [],
      "stateMutability": "nonpayable",
      "type": "function"
    },
    {
      "inputs": [
        {
          "internalType": "contract IDrawHistory",
          "name": "newDrawHistory",
          "type": "address"
        }
      ],
      "name": "setDrawHistory",
      "outputs": [
        {
          "internalType": "contract IDrawHistory",
          "name": "",
          "type": "address"
        }
      ],
      "stateMutability": "nonpayable",
      "type": "function"
    },
    {
      "inputs": [
        {
          "internalType": "contract RNGInterface",
          "name": "rngService",
          "type": "address"
        }
      ],
      "name": "setRngService",
      "outputs": [],
      "stateMutability": "nonpayable",
      "type": "function"
    },
    {
      "inputs": [
        {
          "internalType": "uint32",
          "name": "_rngTimeout",
          "type": "uint32"
        }
      ],
      "name": "setRngTimeout",
      "outputs": [],
      "stateMutability": "nonpayable",
      "type": "function"
    },
    {
      "inputs": [],
      "name": "startDraw",
      "outputs": [],
      "stateMutability": "nonpayable",
      "type": "function"
    },
    {
      "inputs": [
        {
          "internalType": "address",
          "name": "_newOwner",
          "type": "address"
        }
      ],
      "name": "transferOwnership",
      "outputs": [],
      "stateMutability": "nonpayable",
      "type": "function"
    }
  ],
  "transactionHash": "0x1aa609f5ede533630f08584a6c0afb985b18ebfc590f938d6c39129c1171ea6a",
  "args": [
    "0xE0F4217390221aF47855E094F6e112D43C8698fE",
    "0x0d5582cbb15AB05669c2e0952548264d57fd9d0a",
    "0xA932e74d5263A754Ea04432E5c53658434b0484B",
    1632242822,
    600
  ],
  "solcInputHash": "c10ecf7ed4019ef1b5b277259dc2440b",
  "bytecode": "0x60806040523480156200001157600080fd5b50604051620021fa380380620021fa83398101604081905262000034916200049f565b846200004081620001c4565b5060008211620000995760405162461bcd60e51b815260206004820152602a6024820152600080516020620021da8339815191526044820152692d7468616e2d7a65726f60b01b60648201526084015b60405180910390fd5b6001600160a01b038316620000f15760405162461bcd60e51b815260206004820152601760248201527f44726177426561636f6e2f726e672d6e6f742d7a65726f000000000000000000604482015260640162000090565b600280546001600160a01b0319166001600160a01b038516179055620001178162000214565b60068290556200012784620002a4565b5062000135610708620003f4565b826001600160a01b0316846001600160a01b03167f863dd289402cf71b29dea8b439af18e7a86b4b02d6ef3c22b7dd04c7c11c1b37848460405162000184929190918252602082015260400190565b60405180910390a3604051829033907f4e8103970651e921cd5957287228cf1e30140d0e81edecdd0a525f09b349d8c190600090a350505050506200051d565b600080546001600160a01b038381166001600160a01b0319831681178455604051919092169283917f8be0079c531659141344cd1fd0a4f28419497f9722a3daafe3b4186f6b6457e09190a35050565b60008111620002685760405162461bcd60e51b815260206004820152602a6024820152600080516020620021da8339815191526044820152692d7468616e2d7a65726f60b01b606482015260840162000090565b60058190556040518181527f4b775a8df24ef6fe4a6dfa63f74c7239a83d1e9403e76c6b88c041bc4d9b0a24906020015b60405180910390a150565b6007546000906001600160a01b0364010000000090910481169083166200031f5760405162461bcd60e51b815260206004820152602860248201527f44726177426561636f6e2f647261772d686973746f72792d6e6f742d7a65726f6044820152672d6164647265737360c01b606482015260840162000090565b806001600160a01b0316836001600160a01b03161415620003945760405162461bcd60e51b815260206004820152602860248201527f44726177426561636f6e2f6578697374696e672d647261772d686973746f72796044820152672d6164647265737360c01b606482015260840162000090565b60078054600160201b600160c01b0319166401000000006001600160a01b0386811691820292909217909255604051908316907f493214a1c2ee516671031b0d1ebfa3cce3620eb95e78ca8f7d75e097dc774cec90600090a35090919050565b603c8163ffffffff1611620004565760405162461bcd60e51b815260206004820152602160248201527f44726177426561636f6e2f726e672d74696d656f75742d67742d36302d7365636044820152607360f81b606482015260840162000090565b6004805463ffffffff191663ffffffff83169081179091556040519081527f521671714dd36d366adf3fe2efec91d3f58a3131aad68e268821d8144b5d08459060200162000299565b600080600080600060a08688031215620004b857600080fd5b8551620004c58162000504565b6020870151909550620004d88162000504565b6040870151909450620004eb8162000504565b6060870151608090970151959894975095949392505050565b6001600160a01b03811681146200051a57600080fd5b50565b611cad806200052d6000396000f3fe608060405234801561001057600080fd5b50600436106101cf5760003560e01c8063715018a611610104578063a47f55a6116100a2578063e11fb2bd11610071578063e11fb2bd1461036f578063e30c397814610382578063e4a75bb814610393578063f2fde38b1461039b57600080fd5b8063a47f55a61461033b578063d1e776571461034b578063d605787b14610353578063df6e47631461036657600080fd5b80637ec77aa4116100de5780637ec77aa4146102f45780637f4296d71461030f5780638da5cb5b14610322578063a104fd791461033357600080fd5b8063715018a6146102dc578063738bbea8146102e457806375e38f16146102ec57600080fd5b80632ae168a6116101715780634e71e0c81161014b5780634e71e0c8146102805780635020ea56146102885780635ea5c74e1461029b5780636bea5344146102c657600080fd5b80632ae168a614610268578063412a616a146102705780634aba4f6b1461027857600080fd5b8063111070e4116101ad578063111070e4146102125780631b1543a11461022257806322482f64146102355780632a7ad6091461025a57600080fd5b80630996f6e1146101d45780630bdeecbd146101f15780630ff100ef146101fb575b600080fd5b6101dc6103ae565b60405190151581526020015b60405180910390f35b6101f96103cf565b005b61020460055481565b6040519081526020016101e8565b60035463ffffffff1615156101dc565b6101f9610230366004611a0f565b6105b0565b6007546102459063ffffffff1681565b60405163ffffffff90911681526020016101e8565b60035463ffffffff16610245565b6101f961062d565b6101f9610935565b6101dc6109ee565b6101f9610a8d565b6101f9610296366004611a41565b610b1b565b6102ae6102a93660046119a2565b610b95565b6040516001600160a01b0390911681526020016101e8565b600354640100000000900463ffffffff16610245565b6101f9610c0f565b6101dc610c84565b610204610cd2565b6007546102ae9064010000000090046001600160a01b031681565b6101f961031d3660046119a2565b610cdc565b6000546001600160a01b03166102ae565b610204610dfa565b6004546102459063ffffffff1681565b6101dc610e04565b6002546102ae906001600160a01b031681565b61020460065481565b61020461037d366004611a0f565b610e0e565b6001546001600160a01b03166102ae565b6101dc610e19565b6101f96103a93660046119a2565b610e3b565b60006103b8610f77565b80156103ca575060035463ffffffff16155b905090565b60035463ffffffff166104295760405162461bcd60e51b815260206004820152601c60248201527f44726177426561636f6e2f726e672d6e6f742d7265717565737465640000000060448201526064015b60405180910390fd5b6104316109ee565b61047d5760405162461bcd60e51b815260206004820152601b60248201527f44726177426561636f6e2f726e672d6e6f742d636f6d706c65746500000000006044820152606401610420565b6002546003546040517f9d2a5f9800000000000000000000000000000000000000000000000000000000815263ffffffff90911660048201526000916001600160a01b031690639d2a5f9890602401602060405180830381600087803b1580156104e657600080fd5b505af11580156104fa573d6000803e3d6000fd5b505050506040513d601f19601f8201168201806040525081019061051e9190611a28565b600380546bffffffffffffffffffffffff19169055905061053e81610f89565b6105474261109f565b60065560405181815233907fc8d9c06e6b370a882d253a9eab335ea149efddabf9e97685220258c6fc5726fb9060200160405180910390a260065460405133907f4e8103970651e921cd5957287228cf1e30140d0e81edecdd0a525f09b349d8c190600090a350565b336105c36000546001600160a01b031690565b6001600160a01b0316146106195760405162461bcd60e51b815260206004820152601860248201527f4f776e61626c652f63616c6c65722d6e6f742d6f776e657200000000000000006044820152606401610420565b6106216110de565b61062a81611158565b50565b610635610f77565b6106a75760405162461bcd60e51b815260206004820152602160248201527f44726177426561636f6e2f626561636f6e2d706572696f642d6e6f742d6f766560448201527f72000000000000000000000000000000000000000000000000000000000000006064820152608401610420565b60035463ffffffff16156106fd5760405162461bcd60e51b815260206004820181905260248201527f44726177426561636f6e2f726e672d616c72656164792d7265717565737465646044820152606401610420565b600254604080517f0d37b537000000000000000000000000000000000000000000000000000000008152815160009384936001600160a01b0390911692630d37b5379260048083019392829003018186803b15801561075b57600080fd5b505afa15801561076f573d6000803e3d6000fd5b505050506040513d601f19601f8201168201806040525081019061079391906119bf565b90925090506001600160a01b038216158015906107b05750600081115b156107cf576002546107cf906001600160a01b0384811691168361120a565b600254604080517f8678a7b2000000000000000000000000000000000000000000000000000000008152815160009384936001600160a01b0390911692638678a7b2926004808301939282900301818787803b15801561082e57600080fd5b505af1158015610842573d6000803e3d6000fd5b505050506040513d601f19601f820116820180604052508101906108669190611a7b565b6003805463ffffffff808416640100000000027fffffffffffffffffffffffffffffffffffffffffffffffff00000000000000009092169085161717905590925090506108b86108b34290565b6113a3565b600380547fffffffffffffffffffffffffffffffffffffffff00000000ffffffffffffffff166801000000000000000063ffffffff9384160217905560405182821681529083169033907f32c42f2f8791818cebc96a66e90c6abe290f112d07c95172418fd315e13dbd4a9060200160405180910390a350505050565b61093d610c84565b6109895760405162461bcd60e51b815260206004820152601b60248201527f44726177426561636f6e2f726e672d6e6f742d74696d65646f757400000000006044820152606401610420565b600380546bffffffffffffffffffffffff19811690915560405163ffffffff6401000000008304811680835292169190829033907fd322c2dc1859a70438cd7d434377eb0c5e66753f48bf84a9c43dcfcc3df1e69d9060200160405180910390a35050565b6002546003546040517f3a19b9bc00000000000000000000000000000000000000000000000000000000815263ffffffff90911660048201526000916001600160a01b031690633a19b9bc9060240160206040518083038186803b158015610a5557600080fd5b505afa158015610a69573d6000803e3d6000fd5b505050506040513d601f19601f820116820180604052508101906103ca91906119ed565b6001546001600160a01b03163314610ae75760405162461bcd60e51b815260206004820152601f60248201527f4f776e61626c652f63616c6c65722d6e6f742d70656e64696e674f776e6572006044820152606401610420565b600154610afc906001600160a01b0316611423565b6001805473ffffffffffffffffffffffffffffffffffffffff19169055565b33610b2e6000546001600160a01b031690565b6001600160a01b031614610b845760405162461bcd60e51b815260206004820152601860248201527f4f776e61626c652f63616c6c65722d6e6f742d6f776e657200000000000000006044820152606401610420565b610b8c6110de565b61062a81611480565b600033610baa6000546001600160a01b031690565b6001600160a01b031614610c005760405162461bcd60e51b815260206004820152601860248201527f4f776e61626c652f63616c6c65722d6e6f742d6f776e657200000000000000006044820152606401610420565b610c098261155f565b92915050565b33610c226000546001600160a01b031690565b6001600160a01b031614610c785760405162461bcd60e51b815260206004820152601860248201527f4f776e61626c652f63616c6c65722d6e6f742d6f776e657200000000000000006044820152606401610420565b610c826000611423565b565b60035460009068010000000000000000900463ffffffff16610ca65750600090565b600354600454610ccb9163ffffffff6801000000000000000090910481169116611b22565b4211905090565b60006103ca6116ea565b33610cef6000546001600160a01b031690565b6001600160a01b031614610d455760405162461bcd60e51b815260206004820152601860248201527f4f776e61626c652f63616c6c65722d6e6f742d6f776e657200000000000000006044820152606401610420565b610d4d6110de565b60035463ffffffff1615610da35760405162461bcd60e51b815260206004820152601860248201527f44726177426561636f6e2f726e672d696e2d666c6967687400000000000000006044820152606401610420565b6002805473ffffffffffffffffffffffffffffffffffffffff19166001600160a01b0383169081179091556040517ff935763cc7c57ee8ed6318ed71e756cca0731294c9f46ff5b386f36d6ff1417a90600090a250565b60006103ca61171a565b60006103ca610f77565b6000610c098261109f565b6000610e2c60035463ffffffff16151590565b80156103ca57506103ca6109ee565b33610e4e6000546001600160a01b031690565b6001600160a01b031614610ea45760405162461bcd60e51b815260206004820152601860248201527f4f776e61626c652f63616c6c65722d6e6f742d6f776e657200000000000000006044820152606401610420565b6001600160a01b038116610f205760405162461bcd60e51b815260206004820152602560248201527f4f776e61626c652f70656e64696e674f776e65722d6e6f742d7a65726f2d616460448201527f64726573730000000000000000000000000000000000000000000000000000006064820152608401610420565b6001805473ffffffffffffffffffffffffffffffffffffffff19166001600160a01b0383169081179091556040517f239a2ddded15777fa246aed5f7e1a9bc69a39d4eb4a397034d1d85766cca7d4c90600090a250565b6000610f8161171a565b421015905090565b604080516060810182528281524263ffffffff9081166020830190815260075480831684860190815294517f1f1dee360000000000000000000000000000000000000000000000000000000081528451600482015291518316602483015293519091166044820152909164010000000090046001600160a01b031690631f1dee3690606401602060405180830381600087803b15801561102857600080fd5b505af115801561103c573d6000803e3d6000fd5b505050506040513d601f19601f820116820180604052508101906110609190611a5e565b50600780546001919060009061107d90849063ffffffff16611b3a565b92506101000a81548163ffffffff021916908363ffffffff1602179055505050565b6006546005546000919082816110b58487611bda565b6110bf9190611b62565b90506110cb8282611b9d565b6110d59084611b22565b95945050505050565b6003544390640100000000900463ffffffff16158061110c5750600354640100000000900463ffffffff1681105b61062a5760405162461bcd60e51b815260206004820152601860248201527f44726177426561636f6e2f726e672d696e2d666c6967687400000000000000006044820152606401610420565b600081116111ce5760405162461bcd60e51b815260206004820152602a60248201527f44726177426561636f6e2f626561636f6e2d706572696f642d6772656174657260448201527f2d7468616e2d7a65726f000000000000000000000000000000000000000000006064820152608401610420565b60058190556040518181527f4b775a8df24ef6fe4a6dfa63f74c7239a83d1e9403e76c6b88c041bc4d9b0a24906020015b60405180910390a150565b8015806112ac57506040517fdd62ed3e0000000000000000000000000000000000000000000000000000000081523060048201526001600160a01b03838116602483015284169063dd62ed3e9060440160206040518083038186803b15801561127257600080fd5b505afa158015611286573d6000803e3d6000fd5b505050506040513d601f19601f820116820180604052508101906112aa9190611a28565b155b61131e5760405162461bcd60e51b815260206004820152603660248201527f5361666545524332303a20617070726f76652066726f6d206e6f6e2d7a65726f60448201527f20746f206e6f6e2d7a65726f20616c6c6f77616e6365000000000000000000006064820152608401610420565b604080516001600160a01b038416602482015260448082018490528251808303909101815260649091019091526020810180517bffffffffffffffffffffffffffffffffffffffffffffffffffffffff167f095ea7b30000000000000000000000000000000000000000000000000000000017905261139e90849061172c565b505050565b600063ffffffff82111561141f5760405162461bcd60e51b815260206004820152602660248201527f53616665436173743a2076616c756520646f65736e27742066697420696e203360448201527f32206269747300000000000000000000000000000000000000000000000000006064820152608401610420565b5090565b600080546001600160a01b0383811673ffffffffffffffffffffffffffffffffffffffff19831681178455604051919092169283917f8be0079c531659141344cd1fd0a4f28419497f9722a3daafe3b4186f6b6457e09190a35050565b603c8163ffffffff16116114fc5760405162461bcd60e51b815260206004820152602160248201527f44726177426561636f6e2f726e672d74696d656f75742d67742d36302d73656360448201527f73000000000000000000000000000000000000000000000000000000000000006064820152608401610420565b600480547fffffffffffffffffffffffffffffffffffffffffffffffffffffffff000000001663ffffffff83169081179091556040519081527f521671714dd36d366adf3fe2efec91d3f58a3131aad68e268821d8144b5d0845906020016111ff565b6007546000906001600160a01b0364010000000090910481169083166115ed5760405162461bcd60e51b815260206004820152602860248201527f44726177426561636f6e2f647261772d686973746f72792d6e6f742d7a65726f60448201527f2d616464726573730000000000000000000000000000000000000000000000006064820152608401610420565b806001600160a01b0316836001600160a01b031614156116755760405162461bcd60e51b815260206004820152602860248201527f44726177426561636f6e2f6578697374696e672d647261772d686973746f727960448201527f2d616464726573730000000000000000000000000000000000000000000000006064820152608401610420565b600780547fffffffffffffffff0000000000000000000000000000000000000000ffffffff166401000000006001600160a01b0386811691820292909217909255604051908316907f493214a1c2ee516671031b0d1ebfa3cce3620eb95e78ca8f7d75e097dc774cec90600090a35090919050565b6000806116f561171a565b905042818111156117095760009250505090565b6117138183611bda565b9250505090565b60006005546006546103ca9190611b22565b6000611781826040518060400160405280602081526020017f5361666545524332303a206c6f772d6c6576656c2063616c6c206661696c6564815250856001600160a01b03166118119092919063ffffffff16565b80519091501561139e578080602001905181019061179f91906119ed565b61139e5760405162461bcd60e51b815260206004820152602a60248201527f5361666545524332303a204552433230206f7065726174696f6e20646964206e60448201527f6f742073756363656564000000000000000000000000000000000000000000006064820152608401610420565b6060611820848460008561182a565b90505b9392505050565b6060824710156118a25760405162461bcd60e51b815260206004820152602660248201527f416464726573733a20696e73756666696369656e742062616c616e636520666f60448201527f722063616c6c00000000000000000000000000000000000000000000000000006064820152608401610420565b843b6118f05760405162461bcd60e51b815260206004820152601d60248201527f416464726573733a2063616c6c20746f206e6f6e2d636f6e74726163740000006044820152606401610420565b600080866001600160a01b0316858760405161190c9190611ab5565b60006040518083038185875af1925050503d8060008114611949576040519150601f19603f3d011682016040523d82523d6000602084013e61194e565b606091505b509150915061195e828286611969565b979650505050505050565b60608315611978575081611823565b8251156119885782518084602001fd5b8160405162461bcd60e51b81526004016104209190611ad1565b6000602082840312156119b457600080fd5b813561182381611c50565b600080604083850312156119d257600080fd5b82516119dd81611c50565b6020939093015192949293505050565b6000602082840312156119ff57600080fd5b8151801515811461182357600080fd5b600060208284031215611a2157600080fd5b5035919050565b600060208284031215611a3a57600080fd5b5051919050565b600060208284031215611a5357600080fd5b813561182381611c65565b600060208284031215611a7057600080fd5b815161182381611c65565b60008060408385031215611a8e57600080fd5b8251611a9981611c65565b6020840151909250611aaa81611c65565b809150509250929050565b60008251611ac7818460208701611bf1565b9190910192915050565b6020815260008251806020840152611af0816040850160208701611bf1565b601f017fffffffffffffffffffffffffffffffffffffffffffffffffffffffffffffffe0169190910160400192915050565b60008219821115611b3557611b35611c21565b500190565b600063ffffffff808316818516808303821115611b5957611b59611c21565b01949350505050565b600082611b98577f4e487b7100000000000000000000000000000000000000000000000000000000600052601260045260246000fd5b500490565b6000817fffffffffffffffffffffffffffffffffffffffffffffffffffffffffffffffff0483118215151615611bd557611bd5611c21565b500290565b600082821015611bec57611bec611c21565b500390565b60005b83811015611c0c578181015183820152602001611bf4565b83811115611c1b576000848401525b50505050565b7f4e487b7100000000000000000000000000000000000000000000000000000000600052601160045260246000fd5b6001600160a01b038116811461062a57600080fd5b63ffffffff8116811461062a57600080fdfea2646970667358221220201003bab5f602bc775f4ce9699b0bd161331d3a091dc1e0aa88cb5ef0a81f7264736f6c6343000806003344726177426561636f6e2f626561636f6e2d706572696f642d67726561746572",
  "devdoc": {
    "author": "PoolTogether Inc Team",
    "kind": "dev",
    "methods": {
      "beaconPeriodEndAt()": {
        "returns": {
          "_0": "The timestamp at which the beacon period ends."
        }
      },
      "beaconPeriodRemainingSeconds()": {
        "returns": {
          "_0": "The number of seconds remaining until the beacon period can be complete."
        }
      },
      "calculateNextBeaconPeriodStartTime(uint256)": {
        "params": {
          "currentTime": "The timestamp to use as the current time"
        },
        "returns": {
          "_0": "The timestamp at which the next beacon period would start"
        }
      },
      "canCompleteDraw()": {
        "returns": {
          "_0": "True if a Draw can be completed, false otherwise."
        }
      },
      "canStartDraw()": {
        "returns": {
          "_0": "True if a Draw can be started, false otherwise."
        }
      },
      "claimOwnership()": {
        "details": "This function is only callable by the `_pendingOwner`."
      },
      "constructor": {
        "params": {
          "_beaconPeriodSeconds": "The duration of the beacon period in seconds",
          "_beaconPeriodStart": "The starting timestamp of the beacon period.",
          "_drawHistory": "The address of the draw history to push draws to",
          "_owner": "Address of the DrawBeacon owner",
          "_rng": "The RNG service to use"
        }
      },
      "getLastRngLockBlock()": {
        "returns": {
          "_0": "The block number that the RNG request is locked to"
        }
      },
      "getLastRngRequestId()": {
        "returns": {
          "_0": "The current Request ID"
        }
      },
      "isBeaconPeriodOver()": {
        "returns": {
          "_0": "True if the beacon period is over, false otherwise"
        }
      },
      "isRngCompleted()": {
        "returns": {
          "_0": "True if a random number request has completed, false otherwise."
        }
      },
      "isRngRequested()": {
        "returns": {
          "_0": "True if a random number has been requested, false otherwise."
        }
      },
      "isRngTimedOut()": {
        "returns": {
          "_0": "True if a random number request has timed out, false otherwise."
        }
      },
      "pendingOwner()": {
        "returns": {
          "_0": "Current `_pendingOwner` address."
        }
      },
      "renounceOwnership()": {
        "details": "Leaves the contract without owner. It will not be possible to call `onlyOwner` functions anymore. Can only be called by the current owner. NOTE: Renouncing ownership will leave the contract without an owner, thereby removing any functionality that is only available to the owner."
      },
      "setBeaconPeriodSeconds(uint256)": {
        "params": {
          "beaconPeriodSeconds": "The new beacon period in seconds.  Must be greater than zero."
        }
      },
      "setDrawHistory(address)": {
        "details": "All subsequent Draw requests/completions will be pushed to the new DrawHistory.",
        "params": {
          "newDrawHistory": "DrawHistory address"
        },
        "returns": {
          "_0": "DrawHistory"
        }
      },
      "setRngService(address)": {
        "params": {
          "rngService": "The address of the new RNG service interface"
        }
      },
      "setRngTimeout(uint32)": {
        "params": {
          "_rngTimeout": "The RNG request timeout in seconds."
        }
      },
      "startDraw()": {
        "details": "The RNG-Request-Fee is expected to be held within this contract before calling this function"
      },
      "transferOwnership(address)": {
        "params": {
          "_newOwner": "Address to transfer ownership to."
        }
      }
    },
    "stateVariables": {
      "rngTimeout": {
        "details": "If the rng completes the award can still be cancelled."
      }
    },
    "title": "PoolTogether V4 DrawBeacon",
    "version": 1
  },
  "userdoc": {
    "events": {
      "BeaconPeriodSecondsUpdated(uint256)": {
        "notice": "Emit when the drawPeriodSeconds is set."
      },
      "BeaconPeriodStarted(address,uint256)": {
        "notice": "Emit when a draw has opened."
      },
      "Deployed(address,address,uint256,uint256)": {
        "notice": "Emit when the DrawBeacon is initialized."
      },
      "DrawCancelled(address,uint32,uint32)": {
        "notice": "Emit when a draw has been cancelled."
      },
      "DrawCompleted(address,uint256)": {
        "notice": "Emit when a draw has been completed."
      },
      "DrawHistoryTransferred(address,address)": {
        "notice": "Emit when a new DrawHistory has been set."
      },
      "DrawStarted(address,uint32,uint32)": {
        "notice": "Emit when a draw has started."
      },
      "RngServiceUpdated(address)": {
        "notice": "Emit when a RNG service address is set."
      },
      "RngTimeoutSet(uint32)": {
        "notice": "Emit when a draw timeout param is set."
      }
    },
    "kind": "user",
    "methods": {
      "beaconPeriodEndAt()": {
        "notice": "Returns the timestamp at which the beacon period ends"
      },
      "beaconPeriodRemainingSeconds()": {
        "notice": "Returns the number of seconds remaining until the beacon period can be complete."
      },
      "beaconPeriodSeconds()": {
        "notice": "Seconds between beacon period request"
      },
      "beaconPeriodStartedAt()": {
        "notice": "Epoch timestamp when beacon period can start"
      },
      "calculateNextBeaconPeriodStartTime(uint256)": {
        "notice": "Calculates when the next beacon period will start."
      },
      "canCompleteDraw()": {
        "notice": "Returns whether an Draw request can be completed."
      },
      "canStartDraw()": {
        "notice": "Returns whether an Draw request can be started."
      },
      "cancelDraw()": {
        "notice": "Can be called by anyone to cancel the draw request if the RNG has timed out."
      },
      "claimOwnership()": {
        "notice": "Allows the `_pendingOwner` address to finalize the transfer."
      },
      "completeDraw()": {
        "notice": "Completes the Draw (RNG) request and pushes a Draw onto DrawHistory."
      },
      "constructor": {
        "notice": "Deploy the DrawBeacon smart contract."
      },
      "drawHistory()": {
        "notice": "DrawHistory address"
      },
      "getLastRngLockBlock()": {
        "notice": "Returns the block number that the current RNG request has been locked to."
      },
      "getLastRngRequestId()": {
        "notice": "Returns the current RNG Request ID."
      },
      "isBeaconPeriodOver()": {
        "notice": "Returns whether the beacon period is over"
      },
      "isRngCompleted()": {
        "notice": "Returns whether the random number request has completed."
      },
      "isRngRequested()": {
        "notice": "Returns whether a random number has been requested"
      },
      "isRngTimedOut()": {
        "notice": "Returns whether the random number request has timed out."
      },
      "nextDrawId()": {
        "notice": "Next Draw ID to use when pushing a Draw onto DrawHistory"
      },
      "owner()": {
        "notice": "Returns the address of the current owner."
      },
      "pendingOwner()": {
        "notice": "Gets current `_pendingOwner`."
      },
      "renounceOwnership()": {
        "notice": "Renounce ownership of the contract."
      },
      "rng()": {
        "notice": "RNG contract interface"
      },
      "rngTimeout()": {
        "notice": "RNG Request Timeout.  In fact, this is really a \"complete draw\" timeout."
      },
      "setBeaconPeriodSeconds(uint256)": {
        "notice": "Allows the owner to set the beacon period in seconds."
      },
      "setDrawHistory(address)": {
        "notice": "Set global DrawHistory variable."
      },
      "setRngService(address)": {
        "notice": "Sets the RNG service that the Prize Strategy is connected to"
      },
      "setRngTimeout(uint32)": {
        "notice": "Allows the owner to set the RNG request timeout in seconds. This is the time that must elapsed before the RNG request can be cancelled and the pool unlocked."
      },
      "startDraw()": {
        "notice": "Starts the Draw process by starting random number request. The previous beacon period must have ended."
      },
      "transferOwnership(address)": {
        "notice": "Allows current owner to set the `_pendingOwner` address."
      }
    },
    "notice": "Manages RNG (random number generator) requests and pushing Draws onto DrawHistory. The DrawBeacon has 3 major phases for requesting a random number: start, cancel and complete. Once the complete phase is executed a new Draw (using nextDrawId) is pushed to the currently set DrawHistory smart contracts. If the RNG service requires payment (i.e. ChainLink) the DrawBeacon should have an available balance to cover the fees associated with random number generation.",
    "version": 1
  },
  "storageLayout": {
    "storage": [
      {
        "astId": 3466,
        "contract": "@pooltogether/v4-core/contracts/DrawBeacon.sol:DrawBeacon",
        "label": "_owner",
        "offset": 0,
        "slot": "0",
        "type": "t_address"
      },
      {
        "astId": 3468,
        "contract": "@pooltogether/v4-core/contracts/DrawBeacon.sol:DrawBeacon",
        "label": "_pendingOwner",
        "offset": 0,
        "slot": "1",
        "type": "t_address"
      },
      {
        "astId": 4254,
        "contract": "@pooltogether/v4-core/contracts/DrawBeacon.sol:DrawBeacon",
        "label": "rng",
        "offset": 0,
        "slot": "2",
        "type": "t_contract(RNGInterface)3672"
      },
      {
        "astId": 4258,
        "contract": "@pooltogether/v4-core/contracts/DrawBeacon.sol:DrawBeacon",
        "label": "rngRequest",
        "offset": 0,
        "slot": "3",
        "type": "t_struct(RngRequest)4281_storage"
      },
      {
        "astId": 4261,
        "contract": "@pooltogether/v4-core/contracts/DrawBeacon.sol:DrawBeacon",
        "label": "rngTimeout",
        "offset": 0,
        "slot": "4",
        "type": "t_uint32"
      },
      {
        "astId": 4264,
        "contract": "@pooltogether/v4-core/contracts/DrawBeacon.sol:DrawBeacon",
        "label": "beaconPeriodSeconds",
        "offset": 0,
        "slot": "5",
        "type": "t_uint256"
      },
      {
        "astId": 4267,
        "contract": "@pooltogether/v4-core/contracts/DrawBeacon.sol:DrawBeacon",
        "label": "beaconPeriodStartedAt",
        "offset": 0,
        "slot": "6",
        "type": "t_uint256"
      },
      {
        "astId": 4270,
        "contract": "@pooltogether/v4-core/contracts/DrawBeacon.sol:DrawBeacon",
        "label": "nextDrawId",
        "offset": 0,
        "slot": "7",
        "type": "t_uint32"
      },
      {
        "astId": 4274,
        "contract": "@pooltogether/v4-core/contracts/DrawBeacon.sol:DrawBeacon",
        "label": "drawHistory",
        "offset": 4,
        "slot": "7",
        "type": "t_contract(IDrawHistory)8549"
      }
    ],
    "types": {
      "t_address": {
        "encoding": "inplace",
        "label": "address",
        "numberOfBytes": "20"
      },
      "t_contract(IDrawHistory)8549": {
        "encoding": "inplace",
        "label": "contract IDrawHistory",
        "numberOfBytes": "20"
      },
      "t_contract(RNGInterface)3672": {
        "encoding": "inplace",
        "label": "contract RNGInterface",
        "numberOfBytes": "20"
      },
      "t_struct(RngRequest)4281_storage": {
        "encoding": "inplace",
        "label": "struct DrawBeacon.RngRequest",
        "members": [
          {
            "astId": 4276,
            "contract": "@pooltogether/v4-core/contracts/DrawBeacon.sol:DrawBeacon",
            "label": "id",
            "offset": 0,
            "slot": "0",
            "type": "t_uint32"
          },
          {
            "astId": 4278,
            "contract": "@pooltogether/v4-core/contracts/DrawBeacon.sol:DrawBeacon",
            "label": "lockBlock",
            "offset": 4,
            "slot": "0",
            "type": "t_uint32"
          },
          {
            "astId": 4280,
            "contract": "@pooltogether/v4-core/contracts/DrawBeacon.sol:DrawBeacon",
            "label": "requestedAt",
            "offset": 8,
            "slot": "0",
            "type": "t_uint32"
          }
        ],
        "numberOfBytes": "32"
      },
      "t_uint256": {
        "encoding": "inplace",
        "label": "uint256",
        "numberOfBytes": "32"
      },
      "t_uint32": {
        "encoding": "inplace",
        "label": "uint32",
        "numberOfBytes": "4"
      }
    }
  }
}