{
  "address": "0x2c0615F2634A0C1fc24fBDA04b8be59C7538e01f",
  "abi": [
    {
      "anonymous": false,
      "inputs": [
        {
          "indexed": false,
          "internalType": "uint256",
          "name": "drawPeriodSeconds",
          "type": "uint256"
        }
      ],
      "name": "BeaconPeriodSecondsUpdated",
      "type": "event"
    },
    {
      "anonymous": false,
      "inputs": [
        {
          "indexed": true,
          "internalType": "address",
          "name": "operator",
          "type": "address"
        },
        {
          "indexed": true,
          "internalType": "uint256",
          "name": "drawPeriodStartedAt",
          "type": "uint256"
        }
      ],
      "name": "BeaconPeriodStarted",
      "type": "event"
    },
    {
      "anonymous": false,
      "inputs": [
        {
          "indexed": true,
          "internalType": "address",
          "name": "operator",
          "type": "address"
        },
        {
          "indexed": true,
          "internalType": "uint32",
          "name": "rngRequestId",
          "type": "uint32"
        },
        {
          "indexed": false,
          "internalType": "uint32",
          "name": "rngLockBlock",
          "type": "uint32"
        }
      ],
      "name": "DrawCancelled",
      "type": "event"
    },
    {
      "anonymous": false,
      "inputs": [
        {
          "indexed": true,
          "internalType": "address",
          "name": "operator",
          "type": "address"
        },
        {
          "indexed": false,
          "internalType": "uint256",
          "name": "randomNumber",
          "type": "uint256"
        }
      ],
      "name": "DrawCompleted",
      "type": "event"
    },
    {
      "anonymous": false,
      "inputs": [
        {
          "indexed": true,
          "internalType": "contract IDrawHistory",
          "name": "previousDrawHistory",
          "type": "address"
        },
        {
          "indexed": true,
          "internalType": "contract IDrawHistory",
          "name": "newDrawHistory",
          "type": "address"
        }
      ],
      "name": "DrawHistoryTransferred",
      "type": "event"
    },
    {
      "anonymous": false,
      "inputs": [
        {
          "indexed": true,
          "internalType": "address",
          "name": "operator",
          "type": "address"
        },
        {
          "indexed": true,
          "internalType": "uint32",
          "name": "rngRequestId",
          "type": "uint32"
        },
        {
          "indexed": false,
          "internalType": "uint32",
          "name": "rngLockBlock",
          "type": "uint32"
        }
      ],
      "name": "DrawStarted",
      "type": "event"
    },
    {
      "anonymous": false,
      "inputs": [
        {
          "indexed": true,
          "internalType": "contract IDrawHistory",
          "name": "drawHistory",
          "type": "address"
        },
        {
          "indexed": true,
          "internalType": "contract RNGInterface",
          "name": "rng",
          "type": "address"
        },
        {
          "indexed": false,
          "internalType": "uint256",
          "name": "rngRequestPeriodStart",
          "type": "uint256"
        },
        {
          "indexed": false,
          "internalType": "uint256",
          "name": "drawPeriodSeconds",
          "type": "uint256"
        }
      ],
      "name": "Initialized",
      "type": "event"
    },
    {
      "anonymous": false,
      "inputs": [
        {
          "indexed": true,
          "internalType": "address",
          "name": "previousOwner",
          "type": "address"
        },
        {
          "indexed": true,
          "internalType": "address",
          "name": "newOwner",
          "type": "address"
        }
      ],
      "name": "OwnershipTransferred",
      "type": "event"
    },
    {
      "anonymous": false,
      "inputs": [
        {
          "indexed": true,
          "internalType": "contract RNGInterface",
          "name": "rngService",
          "type": "address"
        }
      ],
      "name": "RngServiceUpdated",
      "type": "event"
    },
    {
      "anonymous": false,
      "inputs": [
        {
          "indexed": false,
          "internalType": "uint32",
          "name": "rngTimeout",
          "type": "uint32"
        }
      ],
      "name": "RngTimeoutSet",
      "type": "event"
    },
    {
      "inputs": [],
      "name": "beaconPeriodEndAt",
      "outputs": [
        {
          "internalType": "uint256",
          "name": "",
          "type": "uint256"
        }
      ],
      "stateMutability": "view",
      "type": "function"
    },
    {
      "inputs": [],
      "name": "beaconPeriodRemainingSeconds",
      "outputs": [
        {
          "internalType": "uint256",
          "name": "",
          "type": "uint256"
        }
      ],
      "stateMutability": "view",
      "type": "function"
    },
    {
      "inputs": [],
      "name": "beaconPeriodSeconds",
      "outputs": [
        {
          "internalType": "uint256",
          "name": "",
          "type": "uint256"
        }
      ],
      "stateMutability": "view",
      "type": "function"
    },
    {
      "inputs": [],
      "name": "beaconPeriodStartedAt",
      "outputs": [
        {
          "internalType": "uint256",
          "name": "",
          "type": "uint256"
        }
      ],
      "stateMutability": "view",
      "type": "function"
    },
    {
      "inputs": [
        {
          "internalType": "uint256",
          "name": "currentTime",
          "type": "uint256"
        }
      ],
      "name": "calculateNextBeaconPeriodStartTime",
      "outputs": [
        {
          "internalType": "uint256",
          "name": "",
          "type": "uint256"
        }
      ],
      "stateMutability": "view",
      "type": "function"
    },
    {
      "inputs": [],
      "name": "canCompleteDraw",
      "outputs": [
        {
          "internalType": "bool",
          "name": "",
          "type": "bool"
        }
      ],
      "stateMutability": "view",
      "type": "function"
    },
    {
      "inputs": [],
      "name": "canStartDraw",
      "outputs": [
        {
          "internalType": "bool",
          "name": "",
          "type": "bool"
        }
      ],
      "stateMutability": "view",
      "type": "function"
    },
    {
      "inputs": [],
      "name": "cancelDraw",
      "outputs": [],
      "stateMutability": "nonpayable",
      "type": "function"
    },
    {
      "inputs": [],
      "name": "completeDraw",
      "outputs": [],
      "stateMutability": "nonpayable",
      "type": "function"
    },
    {
      "inputs": [],
      "name": "drawHistory",
      "outputs": [
        {
          "internalType": "contract IDrawHistory",
          "name": "",
          "type": "address"
        }
      ],
      "stateMutability": "view",
      "type": "function"
    },
    {
      "inputs": [],
      "name": "getLastRngLockBlock",
      "outputs": [
        {
          "internalType": "uint32",
          "name": "",
          "type": "uint32"
        }
      ],
      "stateMutability": "view",
      "type": "function"
    },
    {
      "inputs": [],
      "name": "getLastRngRequestId",
      "outputs": [
        {
          "internalType": "uint32",
          "name": "",
          "type": "uint32"
        }
      ],
      "stateMutability": "view",
      "type": "function"
    },
    {
      "inputs": [
        {
          "internalType": "contract IDrawHistory",
          "name": "_drawHistory",
          "type": "address"
        },
        {
          "internalType": "contract RNGInterface",
          "name": "_rng",
          "type": "address"
        },
        {
          "internalType": "uint256",
          "name": "_beaconPeriodStart",
          "type": "uint256"
        },
        {
          "internalType": "uint256",
          "name": "_beaconPeriodSeconds",
          "type": "uint256"
        }
      ],
      "name": "initialize",
      "outputs": [],
      "stateMutability": "nonpayable",
      "type": "function"
    },
    {
      "inputs": [],
      "name": "isBeaconPeriodOver",
      "outputs": [
        {
          "internalType": "bool",
          "name": "",
          "type": "bool"
        }
      ],
      "stateMutability": "view",
      "type": "function"
    },
    {
      "inputs": [],
      "name": "isRngCompleted",
      "outputs": [
        {
          "internalType": "bool",
          "name": "",
          "type": "bool"
        }
      ],
      "stateMutability": "view",
      "type": "function"
    },
    {
      "inputs": [],
      "name": "isRngRequested",
      "outputs": [
        {
          "internalType": "bool",
          "name": "",
          "type": "bool"
        }
      ],
      "stateMutability": "view",
      "type": "function"
    },
    {
      "inputs": [],
      "name": "isRngTimedOut",
      "outputs": [
        {
          "internalType": "bool",
          "name": "",
          "type": "bool"
        }
      ],
      "stateMutability": "view",
      "type": "function"
    },
    {
      "inputs": [],
      "name": "nextDrawId",
      "outputs": [
        {
          "internalType": "uint32",
          "name": "",
          "type": "uint32"
        }
      ],
      "stateMutability": "view",
      "type": "function"
    },
    {
      "inputs": [],
      "name": "owner",
      "outputs": [
        {
          "internalType": "address",
          "name": "",
          "type": "address"
        }
      ],
      "stateMutability": "view",
      "type": "function"
    },
    {
      "inputs": [],
      "name": "renounceOwnership",
      "outputs": [],
      "stateMutability": "nonpayable",
      "type": "function"
    },
    {
      "inputs": [],
      "name": "rng",
      "outputs": [
        {
          "internalType": "contract RNGInterface",
          "name": "",
          "type": "address"
        }
      ],
      "stateMutability": "view",
      "type": "function"
    },
    {
      "inputs": [],
      "name": "rngTimeout",
      "outputs": [
        {
          "internalType": "uint32",
          "name": "",
          "type": "uint32"
        }
      ],
      "stateMutability": "view",
      "type": "function"
    },
    {
      "inputs": [
        {
          "internalType": "uint256",
          "name": "beaconPeriodSeconds",
          "type": "uint256"
        }
      ],
      "name": "setBeaconPeriodSeconds",
      "outputs": [],
      "stateMutability": "nonpayable",
      "type": "function"
    },
    {
      "inputs": [
        {
          "internalType": "contract IDrawHistory",
          "name": "newDrawHistory",
          "type": "address"
        }
      ],
      "name": "setDrawHistory",
      "outputs": [
        {
          "internalType": "contract IDrawHistory",
          "name": "",
          "type": "address"
        }
      ],
      "stateMutability": "nonpayable",
      "type": "function"
    },
    {
      "inputs": [
        {
          "internalType": "contract RNGInterface",
          "name": "rngService",
          "type": "address"
        }
      ],
      "name": "setRngService",
      "outputs": [],
      "stateMutability": "nonpayable",
      "type": "function"
    },
    {
      "inputs": [
        {
          "internalType": "uint32",
          "name": "_rngTimeout",
          "type": "uint32"
        }
      ],
      "name": "setRngTimeout",
      "outputs": [],
      "stateMutability": "nonpayable",
      "type": "function"
    },
    {
      "inputs": [],
      "name": "startDraw",
      "outputs": [],
      "stateMutability": "nonpayable",
      "type": "function"
    },
    {
      "inputs": [
        {
          "internalType": "address",
          "name": "newOwner",
          "type": "address"
        }
      ],
      "name": "transferOwnership",
      "outputs": [],
      "stateMutability": "nonpayable",
      "type": "function"
    }
  ],
  "transactionHash": "0xb2c6890e12581b4b41bc50ed89940335f5133b3c3009065b7383429e5c7129ef",
  "args": [],
  "solcInputHash": "5bd4dfff3996e6e250da2bdbd3154bc0",
  "bytecode": "0x608060405234801561001057600080fd5b50612046806100206000396000f3fe608060405234801561001057600080fd5b50600436106101c45760003560e01c8063738bbea8116100f9578063d1e7765711610097578063e11fb2bd11610071578063e11fb2bd1461035c578063e4a75bb81461036f578063eb990c5914610377578063f2fde38b1461038a57600080fd5b8063d1e7765714610338578063d605787b14610340578063df6e47631461035357600080fd5b80637f4296d7116100d35780637f4296d7146102fc5780638da5cb5b1461030f578063a104fd7914610320578063a47f55a61461032857600080fd5b8063738bbea8146102d157806375e38f16146102d95780637ec77aa4146102e157600080fd5b80632ae168a6116101665780635020ea56116101405780635020ea56146102755780635ea5c74e146102885780636bea5344146102b3578063715018a6146102c957600080fd5b80632ae168a61461025d578063412a616a146102655780634aba4f6b1461026d57600080fd5b8063111070e4116101a2578063111070e4146102075780631b1543a11461021757806322482f641461022a5780632a7ad6091461024f57600080fd5b80630996f6e1146101c95780630bdeecbd146101e65780630ff100ef146101f0575b600080fd5b6101d161039d565b60405190151581526020015b60405180910390f35b6101ee6103be565b005b6101f960685481565b6040519081526020016101dd565b60665463ffffffff1615156101d1565b6101ee610225366004611da8565b61059f565b606a5461023a9063ffffffff1681565b60405163ffffffff90911681526020016101dd565b60665463ffffffff1661023a565b6101ee61060d565b6101ee6108fd565b6101d16109b6565b6101ee610283366004611dda565b610a55565b61029b610296366004611cf5565b610ac0565b6040516001600160a01b0390911681526020016101dd565b606654640100000000900463ffffffff1661023a565b6101ee610b2c565b6101d1610b92565b6101f9610be0565b606a5461029b9064010000000090046001600160a01b031681565b6101ee61030a366004611cf5565b610bea565b6033546001600160a01b031661029b565b6101f9610cf9565b60675461023a9063ffffffff1681565b6101d1610d03565b60655461029b906001600160a01b031681565b6101f960695481565b6101f961036a366004611da8565b610d0d565b6101d1610d18565b6101ee610385366004611d62565b610d3a565b6101ee610398366004611cf5565b610fa2565b60006103a7611081565b80156103b9575060665463ffffffff16155b905090565b60665463ffffffff166104185760405162461bcd60e51b815260206004820152601c60248201527f44726177426561636f6e2f726e672d6e6f742d7265717565737465640000000060448201526064015b60405180910390fd5b6104206109b6565b61046c5760405162461bcd60e51b815260206004820152601b60248201527f44726177426561636f6e2f726e672d6e6f742d636f6d706c6574650000000000604482015260640161040f565b6065546066546040517f9d2a5f9800000000000000000000000000000000000000000000000000000000815263ffffffff90911660048201526000916001600160a01b031690639d2a5f9890602401602060405180830381600087803b1580156104d557600080fd5b505af11580156104e9573d6000803e3d6000fd5b505050506040513d601f19601f8201168201806040525081019061050d9190611dc1565b606680546bffffffffffffffffffffffff19169055905061052d81611093565b610536426111a9565b60695560405181815233907fc8d9c06e6b370a882d253a9eab335ea149efddabf9e97685220258c6fc5726fb9060200160405180910390a260695460405133907f4e8103970651e921cd5957287228cf1e30140d0e81edecdd0a525f09b349d8c190600090a350565b6033546001600160a01b031633146105f95760405162461bcd60e51b815260206004820181905260248201527f4f776e61626c653a2063616c6c6572206973206e6f7420746865206f776e6572604482015260640161040f565b6106016111e8565b61060a81611262565b50565b610615611081565b6106615760405162461bcd60e51b815260206004820181905260248201527f44726177426561636f6e2f7072697a652d706572696f642d6e6f742d6f766572604482015260640161040f565b60665463ffffffff16156106b75760405162461bcd60e51b815260206004820181905260248201527f44726177426561636f6e2f726e672d616c72656164792d726571756573746564604482015260640161040f565b606554604080517f0d37b537000000000000000000000000000000000000000000000000000000008152815160009384936001600160a01b0390911692630d37b5379260048083019392829003018186803b15801561071557600080fd5b505afa158015610729573d6000803e3d6000fd5b505050506040513d601f19601f8201168201806040525081019061074d9190611d12565b90925090506001600160a01b0382161580159061076a5750600081115b1561078957606554610789906001600160a01b03848116911683611314565b606554604080517f8678a7b2000000000000000000000000000000000000000000000000000000008152815160009384936001600160a01b0390911692638678a7b2926004808301939282900301818787803b1580156107e857600080fd5b505af11580156107fc573d6000803e3d6000fd5b505050506040513d601f19601f820116820180604052508101906108209190611e14565b6066805463ffffffff808416640100000000027fffffffffffffffffffffffffffffffffffffffffffffffff000000000000000090921690851617179055909250905061087261086d4290565b6114ad565b606680547fffffffffffffffffffffffffffffffffffffffff00000000ffffffffffffffff166801000000000000000063ffffffff9384160217905582163360405163ffffffff841681526001600160a01b0391909116907f32c42f2f8791818cebc96a66e90c6abe290f112d07c95172418fd315e13dbd4a9060200160405180910390a350505050565b610905610b92565b6109515760405162461bcd60e51b815260206004820152601b60248201527f44726177426561636f6e2f726e672d6e6f742d74696d65646f75740000000000604482015260640161040f565b606680546bffffffffffffffffffffffff19811690915560405163ffffffff6401000000008304811680835292169190829033907fd322c2dc1859a70438cd7d434377eb0c5e66753f48bf84a9c43dcfcc3df1e69d9060200160405180910390a35050565b6065546066546040517f3a19b9bc00000000000000000000000000000000000000000000000000000000815263ffffffff90911660048201526000916001600160a01b031690633a19b9bc9060240160206040518083038186803b158015610a1d57600080fd5b505afa158015610a31573d6000803e3d6000fd5b505050506040513d601f19601f820116820180604052508101906103b99190611d40565b6033546001600160a01b03163314610aaf5760405162461bcd60e51b815260206004820181905260248201527f4f776e61626c653a2063616c6c6572206973206e6f7420746865206f776e6572604482015260640161040f565b610ab76111e8565b61060a8161152d565b6033546000906001600160a01b03163314610b1d5760405162461bcd60e51b815260206004820181905260248201527f4f776e61626c653a2063616c6c6572206973206e6f7420746865206f776e6572604482015260640161040f565b610b268261160c565b92915050565b6033546001600160a01b03163314610b865760405162461bcd60e51b815260206004820181905260248201527f4f776e61626c653a2063616c6c6572206973206e6f7420746865206f776e6572604482015260640161040f565b610b906000611797565b565b60665460009068010000000000000000900463ffffffff16610bb45750600090565b606654606754610bd99163ffffffff6801000000000000000090910481169116611ebb565b4211905090565b60006103b96117f6565b6033546001600160a01b03163314610c445760405162461bcd60e51b815260206004820181905260248201527f4f776e61626c653a2063616c6c6572206973206e6f7420746865206f776e6572604482015260640161040f565b610c4c6111e8565b60665463ffffffff1615610ca25760405162461bcd60e51b815260206004820152601860248201527f44726177426561636f6e2f726e672d696e2d666c696768740000000000000000604482015260640161040f565b6065805473ffffffffffffffffffffffffffffffffffffffff19166001600160a01b0383169081179091556040517ff935763cc7c57ee8ed6318ed71e756cca0731294c9f46ff5b386f36d6ff1417a90600090a250565b60006103b9611826565b60006103b9611081565b6000610b26826111a9565b6000610d2b60665463ffffffff16151590565b80156103b957506103b96109b6565b600054610100900460ff1680610d53575060005460ff16155b610dc55760405162461bcd60e51b815260206004820152602e60248201527f496e697469616c697a61626c653a20636f6e747261637420697320616c72656160448201527f647920696e697469616c697a6564000000000000000000000000000000000000606482015260840161040f565b600054610100900460ff16158015610de7576000805461ffff19166101011790555b60008311610e5d5760405162461bcd60e51b815260206004820152602f60248201527f44726177426561636f6e2f726e672d726571756573742d706572696f642d677260448201527f65617465722d7468616e2d7a65726f0000000000000000000000000000000000606482015260840161040f565b6001600160a01b038416610eb35760405162461bcd60e51b815260206004820152601760248201527f44726177426561636f6e2f726e672d6e6f742d7a65726f000000000000000000604482015260640161040f565b6065805473ffffffffffffffffffffffffffffffffffffffff19166001600160a01b038616179055610ee3611838565b610eec82611262565b6069839055610efa8561160c565b50610f0661070861152d565b836001600160a01b0316856001600160a01b03167f80a4f91a1411c5f4e795a325f8a70cfa7b44e183d7210a793e00a248056638818585604051610f54929190918252602082015260400190565b60405180910390a3604051839033907f4e8103970651e921cd5957287228cf1e30140d0e81edecdd0a525f09b349d8c190600090a38015610f9b576000805461ff00191690555b5050505050565b6033546001600160a01b03163314610ffc5760405162461bcd60e51b815260206004820181905260248201527f4f776e61626c653a2063616c6c6572206973206e6f7420746865206f776e6572604482015260640161040f565b6001600160a01b0381166110785760405162461bcd60e51b815260206004820152602660248201527f4f776e61626c653a206e6577206f776e657220697320746865207a65726f206160448201527f6464726573730000000000000000000000000000000000000000000000000000606482015260840161040f565b61060a81611797565b600061108b611826565b421015905090565b604080516060810182528281524263ffffffff90811660208301908152606a5480831684860190815294517f1f1dee360000000000000000000000000000000000000000000000000000000081528451600482015291518316602483015293519091166044820152909164010000000090046001600160a01b031690631f1dee3690606401602060405180830381600087803b15801561113257600080fd5b505af1158015611146573d6000803e3d6000fd5b505050506040513d601f19601f8201168201806040525081019061116a9190611df7565b50606a80546001919060009061118790849063ffffffff16611ed3565b92506101000a81548163ffffffff021916908363ffffffff1602179055505050565b6069546068546000919082816111bf8487611f73565b6111c99190611efb565b90506111d58282611f36565b6111df9084611ebb565b95945050505050565b6066544390640100000000900463ffffffff1615806112165750606654640100000000900463ffffffff1681105b61060a5760405162461bcd60e51b815260206004820152601860248201527f44726177426561636f6e2f726e672d696e2d666c696768740000000000000000604482015260640161040f565b600081116112d85760405162461bcd60e51b815260206004820152602a60248201527f44726177426561636f6e2f626561636f6e2d706572696f642d6772656174657260448201527f2d7468616e2d7a65726f00000000000000000000000000000000000000000000606482015260840161040f565b60688190556040518181527f4b775a8df24ef6fe4a6dfa63f74c7239a83d1e9403e76c6b88c041bc4d9b0a24906020015b60405180910390a150565b8015806113b657506040517fdd62ed3e0000000000000000000000000000000000000000000000000000000081523060048201526001600160a01b03838116602483015284169063dd62ed3e9060440160206040518083038186803b15801561137c57600080fd5b505afa158015611390573d6000803e3d6000fd5b505050506040513d601f19601f820116820180604052508101906113b49190611dc1565b155b6114285760405162461bcd60e51b815260206004820152603660248201527f5361666545524332303a20617070726f76652066726f6d206e6f6e2d7a65726f60448201527f20746f206e6f6e2d7a65726f20616c6c6f77616e636500000000000000000000606482015260840161040f565b604080516001600160a01b038416602482015260448082018490528251808303909101815260649091019091526020810180517bffffffffffffffffffffffffffffffffffffffffffffffffffffffff167f095ea7b3000000000000000000000000000000000000000000000000000000001790526114a8908490611909565b505050565b600063ffffffff8211156115295760405162461bcd60e51b815260206004820152602660248201527f53616665436173743a2076616c756520646f65736e27742066697420696e203360448201527f3220626974730000000000000000000000000000000000000000000000000000606482015260840161040f565b5090565b603c8163ffffffff16116115a95760405162461bcd60e51b815260206004820152602160248201527f44726177426561636f6e2f726e672d74696d656f75742d67742d36302d73656360448201527f7300000000000000000000000000000000000000000000000000000000000000606482015260840161040f565b606780547fffffffffffffffffffffffffffffffffffffffffffffffffffffffff000000001663ffffffff83169081179091556040519081527f521671714dd36d366adf3fe2efec91d3f58a3131aad68e268821d8144b5d084590602001611309565b606a546000906001600160a01b03640100000000909104811690831661169a5760405162461bcd60e51b815260206004820152602860248201527f44726177426561636f6e2f647261772d686973746f72792d6e6f742d7a65726f60448201527f2d61646472657373000000000000000000000000000000000000000000000000606482015260840161040f565b806001600160a01b0316836001600160a01b031614156117225760405162461bcd60e51b815260206004820152602860248201527f44726177426561636f6e2f6578697374696e672d647261772d686973746f727960448201527f2d61646472657373000000000000000000000000000000000000000000000000606482015260840161040f565b606a80547fffffffffffffffff0000000000000000000000000000000000000000ffffffff166401000000006001600160a01b0386811691820292909217909255604051908316907f493214a1c2ee516671031b0d1ebfa3cce3620eb95e78ca8f7d75e097dc774cec90600090a35090919050565b603380546001600160a01b0383811673ffffffffffffffffffffffffffffffffffffffff19831681179093556040519116919082907f8be0079c531659141344cd1fd0a4f28419497f9722a3daafe3b4186f6b6457e090600090a35050565b600080611801611826565b905042818111156118155760009250505090565b61181f8183611f73565b9250505090565b60006068546069546103b99190611ebb565b600054610100900460ff1680611851575060005460ff16155b6118c35760405162461bcd60e51b815260206004820152602e60248201527f496e697469616c697a61626c653a20636f6e747261637420697320616c72656160448201527f647920696e697469616c697a6564000000000000000000000000000000000000606482015260840161040f565b600054610100900460ff161580156118e5576000805461ffff19166101011790555b6118ed6119ee565b6118f5611aae565b801561060a576000805461ff001916905550565b600061195e826040518060400160405280602081526020017f5361666545524332303a206c6f772d6c6576656c2063616c6c206661696c6564815250856001600160a01b0316611b649092919063ffffffff16565b8051909150156114a8578080602001905181019061197c9190611d40565b6114a85760405162461bcd60e51b815260206004820152602a60248201527f5361666545524332303a204552433230206f7065726174696f6e20646964206e60448201527f6f74207375636365656400000000000000000000000000000000000000000000606482015260840161040f565b600054610100900460ff1680611a07575060005460ff16155b611a795760405162461bcd60e51b815260206004820152602e60248201527f496e697469616c697a61626c653a20636f6e747261637420697320616c72656160448201527f647920696e697469616c697a6564000000000000000000000000000000000000606482015260840161040f565b600054610100900460ff161580156118f5576000805461ffff1916610101179055801561060a576000805461ff001916905550565b600054610100900460ff1680611ac7575060005460ff16155b611b395760405162461bcd60e51b815260206004820152602e60248201527f496e697469616c697a61626c653a20636f6e747261637420697320616c72656160448201527f647920696e697469616c697a6564000000000000000000000000000000000000606482015260840161040f565b600054610100900460ff16158015611b5b576000805461ffff19166101011790555b6118f533611797565b6060611b738484600085611b7d565b90505b9392505050565b606082471015611bf55760405162461bcd60e51b815260206004820152602660248201527f416464726573733a20696e73756666696369656e742062616c616e636520666f60448201527f722063616c6c0000000000000000000000000000000000000000000000000000606482015260840161040f565b843b611c435760405162461bcd60e51b815260206004820152601d60248201527f416464726573733a2063616c6c20746f206e6f6e2d636f6e7472616374000000604482015260640161040f565b600080866001600160a01b03168587604051611c5f9190611e4e565b60006040518083038185875af1925050503d8060008114611c9c576040519150601f19603f3d011682016040523d82523d6000602084013e611ca1565b606091505b5091509150611cb1828286611cbc565b979650505050505050565b60608315611ccb575081611b76565b825115611cdb5782518084602001fd5b8160405162461bcd60e51b815260040161040f9190611e6a565b600060208284031215611d0757600080fd5b8135611b7681611fe9565b60008060408385031215611d2557600080fd5b8251611d3081611fe9565b6020939093015192949293505050565b600060208284031215611d5257600080fd5b81518015158114611b7657600080fd5b60008060008060808587031215611d7857600080fd5b8435611d8381611fe9565b93506020850135611d9381611fe9565b93969395505050506040820135916060013590565b600060208284031215611dba57600080fd5b5035919050565b600060208284031215611dd357600080fd5b5051919050565b600060208284031215611dec57600080fd5b8135611b7681611ffe565b600060208284031215611e0957600080fd5b8151611b7681611ffe565b60008060408385031215611e2757600080fd5b8251611e3281611ffe565b6020840151909250611e4381611ffe565b809150509250929050565b60008251611e60818460208701611f8a565b9190910192915050565b6020815260008251806020840152611e89816040850160208701611f8a565b601f017fffffffffffffffffffffffffffffffffffffffffffffffffffffffffffffffe0169190910160400192915050565b60008219821115611ece57611ece611fba565b500190565b600063ffffffff808316818516808303821115611ef257611ef2611fba565b01949350505050565b600082611f31577f4e487b7100000000000000000000000000000000000000000000000000000000600052601260045260246000fd5b500490565b6000817fffffffffffffffffffffffffffffffffffffffffffffffffffffffffffffffff0483118215151615611f6e57611f6e611fba565b500290565b600082821015611f8557611f85611fba565b500390565b60005b83811015611fa5578181015183820152602001611f8d565b83811115611fb4576000848401525b50505050565b7f4e487b7100000000000000000000000000000000000000000000000000000000600052601160045260246000fd5b6001600160a01b038116811461060a57600080fd5b63ffffffff8116811461060a57600080fdfea2646970667358221220c237b1f394cd8aa53d57f1423ce4cf88a7358d7eb0bbcfa434e330afed79e04864736f6c63430008060033",
  "devdoc": {
    "kind": "dev",
    "methods": {
      "beaconPeriodEndAt()": {
        "returns": {
          "_0": "The timestamp at which the beacon period ends."
        }
      },
      "beaconPeriodRemainingSeconds()": {
        "returns": {
          "_0": "The number of seconds remaining until the beacon period can be complete."
        }
      },
      "calculateNextBeaconPeriodStartTime(uint256)": {
        "params": {
          "currentTime": "The timestamp to use as the current time"
        },
        "returns": {
          "_0": "The timestamp at which the next beacon period would start"
        }
      },
      "canCompleteDraw()": {
        "returns": {
          "_0": "True if a draw can be completed, false otherwise."
        }
      },
      "canStartDraw()": {
        "returns": {
          "_0": "True if a draw can be started, false otherwise."
        }
      },
      "completeDraw()": {
        "details": "Completes the draw request, creates a new draw on the DrawHistory and reset beacon period start."
      },
      "getLastRngLockBlock()": {
        "returns": {
          "_0": "The block number that the RNG request is locked to"
        }
      },
      "getLastRngRequestId()": {
        "returns": {
          "_0": "The current Request ID"
        }
      },
      "initialize(address,address,uint256,uint256)": {
        "params": {
          "_beaconPeriodSeconds": "The duration of the beacon period in seconds",
          "_beaconPeriodStart": "The starting timestamp of the beacon period.",
          "_drawHistory": "The address of the draw history to push draws to",
          "_rng": "The RNG service to use"
        }
      },
      "isBeaconPeriodOver()": {
        "returns": {
          "_0": "True if the beacon period is over, false otherwise"
        }
      },
      "isRngCompleted()": {
        "returns": {
          "_0": "True if a random number request has completed, false otherwise."
        }
      },
      "isRngRequested()": {
        "returns": {
          "_0": "True if a random number has been requested, false otherwise."
        }
      },
      "isRngTimedOut()": {
        "returns": {
          "_0": "True if a random number request has timed out, false otherwise."
        }
      },
      "owner()": {
        "details": "Returns the address of the current owner."
      },
      "renounceOwnership()": {
        "details": "Leaves the contract without owner. It will not be possible to call `onlyOwner` functions anymore. Can only be called by the current owner. NOTE: Renouncing ownership will leave the contract without an owner, thereby removing any functionality that is only available to the owner."
      },
      "setBeaconPeriodSeconds(uint256)": {
        "params": {
          "beaconPeriodSeconds": "The new beacon period in seconds.  Must be greater than zero."
        }
      },
      "setDrawHistory(address)": {
        "details": "External function to set DrawHistory from an authorized manager.",
        "params": {
          "newDrawHistory": "DrawHistory address"
        },
        "returns": {
          "_0": "DrawHistory"
        }
      },
      "setRngService(address)": {
        "params": {
          "rngService": "The address of the new RNG service interface"
        }
      },
      "setRngTimeout(uint32)": {
        "params": {
          "_rngTimeout": "The RNG request timeout in seconds."
        }
      },
      "startDraw()": {
        "details": "The RNG-Request-Fee is expected to be held within this contract before calling this function"
      },
      "transferOwnership(address)": {
        "details": "Transfers ownership of the contract to a new account (`newOwner`). Can only be called by the current owner."
      }
    },
    "version": 1
  },
  "userdoc": {
    "events": {
      "BeaconPeriodSecondsUpdated(uint256)": {
        "notice": "Emit when the drawPeriodSeconds is set."
      },
      "BeaconPeriodStarted(address,uint256)": {
        "notice": "Emit when a draw has opened."
      },
      "DrawCancelled(address,uint32,uint32)": {
        "notice": "Emit when a draw has been cancelled."
      },
      "DrawCompleted(address,uint256)": {
        "notice": "Emit when a draw has been completed."
      },
      "DrawHistoryTransferred(address,address)": {
        "notice": "Emit when a new DrawHistory has been set."
      },
      "DrawStarted(address,uint32,uint32)": {
        "notice": "Emit when a draw has started."
      },
      "Initialized(address,address,uint256,uint256)": {
        "notice": "Emit when the DrawBeacon is initialized."
      },
      "RngServiceUpdated(address)": {
        "notice": "Emit when a RNG service address is set."
      },
      "RngTimeoutSet(uint32)": {
        "notice": "Emit when a draw timeout param is set."
      }
    },
    "kind": "user",
    "methods": {
      "beaconPeriodEndAt()": {
        "notice": "Returns the timestamp at which the beacon period ends"
      },
      "beaconPeriodRemainingSeconds()": {
        "notice": "Returns the number of seconds remaining until the beacon period can be complete."
      },
      "beaconPeriodSeconds()": {
        "notice": "Seconds between beacon period request"
      },
      "beaconPeriodStartedAt()": {
        "notice": "Epoch timestamp when beacon period can start"
      },
      "calculateNextBeaconPeriodStartTime(uint256)": {
        "notice": "Calculates when the next beacon period will start."
      },
      "canCompleteDraw()": {
        "notice": "Returns whether an draw request can be completed."
      },
      "canStartDraw()": {
        "notice": "Returns whether an draw request can be started."
      },
      "cancelDraw()": {
        "notice": "Can be called by anyone to cancel the draw request if the RNG has timed out."
      },
      "completeDraw()": {
        "notice": "Completes the draw request and creates a new draw."
      },
      "drawHistory()": {
        "notice": "DrawHistory contract interface"
      },
      "getLastRngLockBlock()": {
        "notice": "Returns the block number that the current RNG request has been locked to."
      },
      "getLastRngRequestId()": {
        "notice": "Returns the current RNG Request ID."
      },
      "initialize(address,address,uint256,uint256)": {
        "notice": "Initialize the DrawBeacon smart contract."
      },
      "isBeaconPeriodOver()": {
        "notice": "Returns whether the beacon period is over"
      },
      "isRngCompleted()": {
        "notice": "Returns whether the random number request has completed."
      },
      "isRngRequested()": {
        "notice": "Returns whether a random number has been requested"
      },
      "isRngTimedOut()": {
        "notice": "Returns whether the random number request has timed out."
      },
      "nextDrawId()": {
        "notice": "Next draw id to use when pushing a new draw on DrawHistory"
      },
      "rng()": {
        "notice": "RNG contract interface"
      },
      "rngTimeout()": {
        "notice": "RNG Request Timeout.  In fact, this is really a \"complete award\" timeout. If the rng completes the award can still be cancelled."
      },
      "setBeaconPeriodSeconds(uint256)": {
        "notice": "Allows the owner to set the beacon period in seconds."
      },
      "setDrawHistory(address)": {
        "notice": "External function to set DrawHistory."
      },
      "setRngService(address)": {
        "notice": "Sets the RNG service that the Prize Strategy is connected to"
      },
      "setRngTimeout(uint32)": {
        "notice": "Allows the owner to set the RNG request timeout in seconds. This is the time that must elapsed before the RNG request can be cancelled and the pool unlocked."
      },
      "startDraw()": {
        "notice": "Starts the award process by starting random number request.  The beacon period must have ended."
      }
    },
    "version": 1
  },
  "storageLayout": {
    "storage": [
      {
        "astId": 130,
        "contract": "@pooltogether/v4/contracts/DrawBeacon.sol:DrawBeacon",
        "label": "_initialized",
        "offset": 0,
        "slot": "0",
        "type": "t_bool"
      },
      {
        "astId": 133,
        "contract": "@pooltogether/v4/contracts/DrawBeacon.sol:DrawBeacon",
        "label": "_initializing",
        "offset": 1,
        "slot": "0",
        "type": "t_bool"
      },
      {
        "astId": 1781,
        "contract": "@pooltogether/v4/contracts/DrawBeacon.sol:DrawBeacon",
        "label": "__gap",
        "offset": 0,
        "slot": "1",
        "type": "t_array(t_uint256)50_storage"
      },
      {
        "astId": 10,
        "contract": "@pooltogether/v4/contracts/DrawBeacon.sol:DrawBeacon",
        "label": "_owner",
        "offset": 0,
        "slot": "51",
        "type": "t_address"
      },
      {
        "astId": 123,
        "contract": "@pooltogether/v4/contracts/DrawBeacon.sol:DrawBeacon",
        "label": "__gap",
        "offset": 0,
        "slot": "52",
        "type": "t_array(t_uint256)49_storage"
      },
      {
        "astId": 4388,
        "contract": "@pooltogether/v4/contracts/DrawBeacon.sol:DrawBeacon",
        "label": "rng",
        "offset": 0,
        "slot": "101",
        "type": "t_contract(RNGInterface)3554"
      },
      {
        "astId": 4392,
        "contract": "@pooltogether/v4/contracts/DrawBeacon.sol:DrawBeacon",
        "label": "rngRequest",
        "offset": 0,
        "slot": "102",
        "type": "t_struct(RngRequest)4415_storage"
      },
      {
        "astId": 4395,
        "contract": "@pooltogether/v4/contracts/DrawBeacon.sol:DrawBeacon",
        "label": "rngTimeout",
        "offset": 0,
        "slot": "103",
        "type": "t_uint32"
      },
      {
        "astId": 4398,
        "contract": "@pooltogether/v4/contracts/DrawBeacon.sol:DrawBeacon",
        "label": "beaconPeriodSeconds",
        "offset": 0,
        "slot": "104",
        "type": "t_uint256"
      },
      {
        "astId": 4401,
        "contract": "@pooltogether/v4/contracts/DrawBeacon.sol:DrawBeacon",
        "label": "beaconPeriodStartedAt",
        "offset": 0,
        "slot": "105",
        "type": "t_uint256"
      },
      {
        "astId": 4404,
        "contract": "@pooltogether/v4/contracts/DrawBeacon.sol:DrawBeacon",
        "label": "nextDrawId",
        "offset": 0,
        "slot": "106",
        "type": "t_uint32"
      },
      {
        "astId": 4408,
        "contract": "@pooltogether/v4/contracts/DrawBeacon.sol:DrawBeacon",
        "label": "drawHistory",
        "offset": 4,
        "slot": "106",
        "type": "t_contract(IDrawHistory)7869"
      }
    ],
    "types": {
      "t_address": {
        "encoding": "inplace",
        "label": "address",
        "numberOfBytes": "20"
      },
      "t_array(t_uint256)49_storage": {
        "base": "t_uint256",
        "encoding": "inplace",
        "label": "uint256[49]",
        "numberOfBytes": "1568"
      },
      "t_array(t_uint256)50_storage": {
        "base": "t_uint256",
        "encoding": "inplace",
        "label": "uint256[50]",
        "numberOfBytes": "1600"
      },
      "t_bool": {
        "encoding": "inplace",
        "label": "bool",
        "numberOfBytes": "1"
      },
      "t_contract(IDrawHistory)7869": {
        "encoding": "inplace",
        "label": "contract IDrawHistory",
        "numberOfBytes": "20"
      },
      "t_contract(RNGInterface)3554": {
        "encoding": "inplace",
        "label": "contract RNGInterface",
        "numberOfBytes": "20"
      },
      "t_struct(RngRequest)4415_storage": {
        "encoding": "inplace",
        "label": "struct DrawBeacon.RngRequest",
        "members": [
          {
            "astId": 4410,
            "contract": "@pooltogether/v4/contracts/DrawBeacon.sol:DrawBeacon",
            "label": "id",
            "offset": 0,
            "slot": "0",
            "type": "t_uint32"
          },
          {
            "astId": 4412,
            "contract": "@pooltogether/v4/contracts/DrawBeacon.sol:DrawBeacon",
            "label": "lockBlock",
            "offset": 4,
            "slot": "0",
            "type": "t_uint32"
          },
          {
            "astId": 4414,
            "contract": "@pooltogether/v4/contracts/DrawBeacon.sol:DrawBeacon",
            "label": "requestedAt",
            "offset": 8,
            "slot": "0",
            "type": "t_uint32"
          }
        ],
        "numberOfBytes": "32"
      },
      "t_uint256": {
        "encoding": "inplace",
        "label": "uint256",
        "numberOfBytes": "32"
      },
      "t_uint32": {
        "encoding": "inplace",
        "label": "uint32",
        "numberOfBytes": "4"
      }
    }
  }
}