{
  "address": "0x9204F112c5bD29C61e8e0591817f69dfbf135045",
  "abi": [
    {
      "inputs": [
        {
          "internalType": "address",
          "name": "_owner",
          "type": "address"
        },
        {
          "internalType": "contract ITicket",
          "name": "_ticket",
          "type": "address"
        },
        {
          "internalType": "contract IDrawHistory",
          "name": "_drawHistory",
          "type": "address"
        },
        {
          "internalType": "contract PrizeDistributionHistory",
          "name": "_prizeDistributionHistory",
          "type": "address"
        }
      ],
      "stateMutability": "nonpayable",
      "type": "constructor"
    },
    {
      "anonymous": false,
      "inputs": [
        {
          "indexed": true,
          "internalType": "contract ITicket",
          "name": "ticket",
          "type": "address"
        }
      ],
      "name": "Deployed",
      "type": "event"
    },
    {
      "anonymous": false,
      "inputs": [
        {
          "indexed": true,
          "internalType": "contract IDrawHistory",
          "name": "drawHistory",
          "type": "address"
        }
      ],
      "name": "DrawHistorySet",
      "type": "event"
    },
    {
      "anonymous": false,
      "inputs": [
        {
          "indexed": true,
          "internalType": "contract DrawPrizes",
          "name": "claimableDraw",
          "type": "address"
        }
      ],
      "name": "DrawPrizesSet",
      "type": "event"
    },
    {
      "anonymous": false,
      "inputs": [
        {
          "indexed": true,
          "internalType": "address",
          "name": "pendingOwner",
          "type": "address"
        }
      ],
      "name": "OwnershipOffered",
      "type": "event"
    },
    {
      "anonymous": false,
      "inputs": [
        {
          "indexed": true,
          "internalType": "address",
          "name": "previousOwner",
          "type": "address"
        },
        {
          "indexed": true,
          "internalType": "address",
          "name": "newOwner",
          "type": "address"
        }
      ],
      "name": "OwnershipTransferred",
      "type": "event"
    },
    {
      "inputs": [
        {
          "internalType": "address",
          "name": "_user",
          "type": "address"
        },
        {
          "internalType": "uint32[]",
          "name": "_drawIds",
          "type": "uint32[]"
        },
        {
          "internalType": "bytes",
          "name": "_pickIndicesForDraws",
          "type": "bytes"
        }
      ],
      "name": "calculate",
      "outputs": [
        {
          "internalType": "uint256[]",
          "name": "",
          "type": "uint256[]"
        }
      ],
      "stateMutability": "view",
      "type": "function"
    },
    {
      "inputs": [
        {
          "internalType": "address",
          "name": "_user",
          "type": "address"
        },
        {
          "internalType": "uint256[]",
          "name": "_pickIndices",
          "type": "uint256[]"
        },
        {
          "internalType": "uint32",
          "name": "_drawId",
          "type": "uint32"
        }
      ],
      "name": "checkPrizeDistributionIndicesForDrawId",
      "outputs": [
        {
          "components": [
            {
              "internalType": "bool",
              "name": "won",
              "type": "bool"
            },
            {
              "internalType": "uint8",
              "name": "distributionIndex",
              "type": "uint8"
            }
          ],
          "internalType": "struct IDrawCalculator.PickPrize[]",
          "name": "",
          "type": "tuple[]"
        }
      ],
      "stateMutability": "view",
      "type": "function"
    },
    {
      "inputs": [],
      "name": "claimOwnership",
      "outputs": [],
      "stateMutability": "nonpayable",
      "type": "function"
    },
    {
      "inputs": [],
      "name": "getDrawHistory",
      "outputs": [
        {
          "internalType": "contract IDrawHistory",
          "name": "",
          "type": "address"
        }
      ],
      "stateMutability": "view",
      "type": "function"
    },
    {
      "inputs": [
        {
          "internalType": "address",
          "name": "_user",
          "type": "address"
        },
        {
          "internalType": "uint32[]",
          "name": "_drawIds",
          "type": "uint32[]"
        }
      ],
      "name": "getNormalizedBalancesForDrawIds",
      "outputs": [
        {
          "internalType": "uint256[]",
          "name": "",
          "type": "uint256[]"
        }
      ],
      "stateMutability": "view",
      "type": "function"
    },
    {
      "inputs": [],
      "name": "getPrizeDistributionHistory",
      "outputs": [
        {
          "internalType": "contract PrizeDistributionHistory",
          "name": "",
          "type": "address"
        }
      ],
      "stateMutability": "view",
      "type": "function"
    },
    {
      "inputs": [],
      "name": "owner",
      "outputs": [
        {
          "internalType": "address",
          "name": "",
          "type": "address"
        }
      ],
      "stateMutability": "view",
      "type": "function"
    },
    {
      "inputs": [],
      "name": "pendingOwner",
      "outputs": [
        {
          "internalType": "address",
          "name": "",
          "type": "address"
        }
      ],
      "stateMutability": "view",
      "type": "function"
    },
    {
      "inputs": [],
      "name": "renounceOwnership",
      "outputs": [],
      "stateMutability": "nonpayable",
      "type": "function"
    },
    {
      "inputs": [
        {
          "internalType": "contract IDrawHistory",
          "name": "_drawHistory",
          "type": "address"
        }
      ],
      "name": "setDrawHistory",
      "outputs": [
        {
          "internalType": "contract IDrawHistory",
          "name": "",
          "type": "address"
        }
      ],
      "stateMutability": "nonpayable",
      "type": "function"
    },
    {
      "inputs": [
        {
          "internalType": "address",
          "name": "_newOwner",
          "type": "address"
        }
      ],
      "name": "transferOwnership",
      "outputs": [],
      "stateMutability": "nonpayable",
      "type": "function"
    }
  ],
  "transactionHash": "0xd801fa2885941bc3dae9fbf104866060b7260f1218a20434005d89a414ee597a",
  "args": [
    "0x94996399E8c5667f377460D0f3A5037BfC6c1275",
    "0xaB3fFDd8345A580489cafB1FA6023E4CadDf764D",
    "0x82B3F2f92498f9e5002cB328Db73Eb3B1641B9Fd",
    "0x4b3B7CdE9b315025626619F8Bf26F4E66CbE18B6"
  ],
  "solcInputHash": "9708f009c357312991df75253b2932ee",
  "bytecode": "0x60c06040523480156200001157600080fd5b50604051620025c6380380620025c683398101604081905262000034916200024a565b83620000408162000158565b506001600160a01b0383166200009d5760405162461bcd60e51b815260206004820152601860248201527f4472617743616c632f7469636b65742d6e6f742d7a65726f000000000000000060448201526064015b60405180910390fd5b6001600160a01b038116620000f55760405162461bcd60e51b815260206004820152601660248201527f4472617743616c632f746473682d6e6f742d7a65726f00000000000000000000604482015260640162000094565b6200010082620001a8565b6001600160601b0319606082811b821660a05284901b166080526040516001600160a01b038416907ff40fcec21964ffb566044d083b4073f29f7f7929110ea19e1b3ebe375d89055e90600090a250505050620002cb565b600080546001600160a01b038381166001600160a01b0319831681178455604051919092169283917f8be0079c531659141344cd1fd0a4f28419497f9722a3daafe3b4186f6b6457e09190a35050565b6001600160a01b038116620002005760405162461bcd60e51b815260206004820152601460248201527f4472617743616c632f64682d6e6f742d7a65726f000000000000000000000000604482015260640162000094565b600280546001600160a01b0319166001600160a01b0383169081179091556040517fba0e8f3a74973e2a13826a827919baef53ee4eb218c95ac51cd17e62e7457e6690600090a250565b600080600080608085870312156200026157600080fd5b84516200026e81620002b2565b60208601519094506200028181620002b2565b60408601519093506200029481620002b2565b6060860151909250620002a781620002b2565b939692955090935050565b6001600160a01b0381168114620002c857600080fd5b50565b60805160601c60a05160601c6122b3620003136000396000818161010a015281816103e5015281816105b30152610795015260008181610f260152610fb901526122b36000f3fe608060405234801561001057600080fd5b50600436106100c95760003560e01c80638da5cb5b11610081578063bb3ed1611161005b578063bb3ed1611461018b578063e30c3978146101ab578063f2fde38b146101bc57600080fd5b80638da5cb5b14610156578063aaca392e14610167578063b10820de1461017a57600080fd5b80636c87b221116100b25780636c87b22114610108578063715018a61461012e5780638045fbcf1461013657600080fd5b80634e71e0c8146100ce5780635ea5c74e146100d8575b600080fd5b6100d66101cf565b005b6100eb6100e63660046118c6565b610262565b6040516001600160a01b0390911681526020015b60405180910390f35b7f00000000000000000000000000000000000000000000000000000000000000006100eb565b6100d66102de565b61014961014436600461194b565b610353565b6040516100ff9190611f09565b6000546001600160a01b03166100eb565b6101496101753660046119a0565b61049e565b6002546001600160a01b03166100eb565b61019e6101993660046118e3565b6106bb565b6040516100ff9190611eb5565b6001546001600160a01b03166100eb565b6100d66101ca3660046118c6565b610b03565b6001546001600160a01b0316331461022e5760405162461bcd60e51b815260206004820152601f60248201527f4f776e61626c652f63616c6c65722d6e6f742d70656e64696e674f776e65720060448201526064015b60405180910390fd5b600154610243906001600160a01b0316610c3f565b6001805473ffffffffffffffffffffffffffffffffffffffff19169055565b6000336102776000546001600160a01b031690565b6001600160a01b0316146102cd5760405162461bcd60e51b815260206004820152601860248201527f4f776e61626c652f63616c6c65722d6e6f742d6f776e657200000000000000006044820152606401610225565b6102d682610c9c565b50805b919050565b336102f16000546001600160a01b031690565b6001600160a01b0316146103475760405162461bcd60e51b815260206004820152601860248201527f4f776e61626c652f63616c6c65722d6e6f742d6f776e657200000000000000006044820152606401610225565b6103516000610c3f565b565b60025460405163d0bb78f360e01b81526060916000916001600160a01b039091169063d0bb78f39061038b9087908790600401611f4d565b60006040518083038186803b1580156103a357600080fd5b505afa1580156103b7573d6000803e3d6000fd5b505050506040513d6000823e601f3d908101601f191682016040526103df9190810190611b5f565b905060007f00000000000000000000000000000000000000000000000000000000000000006001600160a01b0316639fde0ae786866040518363ffffffff1660e01b8152600401610431929190611f4d565b60006040518083038186803b15801561044957600080fd5b505afa15801561045d573d6000803e3d6000fd5b505050506040513d6000823e601f3d908101601f191682016040526104859190810190611c56565b9050610492868383610d49565b925050505b9392505050565b606060006104ae83850185611a4d565b805190915085146105265760405162461bcd60e51b8152602060048201526024808201527f4472617743616c632f696e76616c69642d7069636b2d696e64696365732d6c6560448201527f6e677468000000000000000000000000000000000000000000000000000000006064820152608401610225565b60025460405163d0bb78f360e01b81526000916001600160a01b03169063d0bb78f390610559908a908a90600401611f4d565b60006040518083038186803b15801561057157600080fd5b505afa158015610585573d6000803e3d6000fd5b505050506040513d6000823e601f3d908101601f191682016040526105ad9190810190611b5f565b905060007f00000000000000000000000000000000000000000000000000000000000000006001600160a01b0316639fde0ae789896040518363ffffffff1660e01b81526004016105ff929190611f4d565b60006040518083038186803b15801561061757600080fd5b505afa15801561062b573d6000803e3d6000fd5b505050506040513d6000823e601f3d908101601f191682016040526106539190810190611c56565b905060006106628a8484610d49565b6040516bffffffffffffffffffffffff1960608d901b1660208201529091506000906034016040516020818303038152906040528051906020012090506106ac82828688876111a5565b9b9a5050505050505050505050565b604080516001808252818301909252606091600091906020808301908036833701905050905082816000815181106106f5576106f5612227565b63ffffffff9092166020928302919091019091015260025460405163d0bb78f360e01b81526000916001600160a01b03169063d0bb78f39061073b908590600401611f8d565b60006040518083038186803b15801561075357600080fd5b505afa158015610767573d6000803e3d6000fd5b505050506040513d6000823e601f3d908101601f1916820160405261078f9190810190611b5f565b905060007f00000000000000000000000000000000000000000000000000000000000000006001600160a01b0316639fde0ae7846040518263ffffffff1660e01b81526004016107df9190611f8d565b60006040518083038186803b1580156107f757600080fd5b505afa15801561080b573d6000803e3d6000fd5b505050506040513d6000823e601f3d908101601f191682016040526108339190810190611c56565b90506000610842898484610d49565b905060006108848360008151811061085c5761085c612227565b60200260200101518360008151811061087757610877612227565b60200260200101516112ef565b905060006108ab8460008151811061089e5761089e612227565b6020026020010151611330565b905060008967ffffffffffffffff8111156108c8576108c861223d565b60405190808252806020026020018201604052801561090d57816020015b60408051808201909152600080825260208201528152602001906001900390816108e65790505b506040516bffffffffffffffffffffffff1960608f901b16602082015290915060009060340160405160208183030381529060405280519060200120905060005b8b811015610af1576000828e8e8481811061096b5761096b612227565b9050602002013560405160200161098c929190918252602082015260400190565b6040516020818303038152906040528051906020012060001c9050858e8e848181106109ba576109ba612227565b9050602002013510610a0e5760405162461bcd60e51b815260206004820181905260248201527f4472617743616c632f696e73756666696369656e742d757365722d7069636b736044820152606401610225565b6000610a39828b600081518110610a2757610a27612227565b60200260200101516000015188611408565b905060405180604001604052808a600081518110610a5957610a59612227565b602002602001015160c001515183108015610ab1575060008b600081518110610a8457610a84612227565b602002602001015160c001518481518110610aa157610aa1612227565b602002602001015163ffffffff16115b151581526020018260ff16815250858481518110610ad157610ad1612227565b602002602001018190525050508080610ae9906121d2565b91505061094e565b50909c9b505050505050505050505050565b33610b166000546001600160a01b031690565b6001600160a01b031614610b6c5760405162461bcd60e51b815260206004820152601860248201527f4f776e61626c652f63616c6c65722d6e6f742d6f776e657200000000000000006044820152606401610225565b6001600160a01b038116610be85760405162461bcd60e51b815260206004820152602560248201527f4f776e61626c652f70656e64696e674f776e65722d6e6f742d7a65726f2d616460448201527f64726573730000000000000000000000000000000000000000000000000000006064820152608401610225565b6001805473ffffffffffffffffffffffffffffffffffffffff19166001600160a01b0383169081179091556040517f239a2ddded15777fa246aed5f7e1a9bc69a39d4eb4a397034d1d85766cca7d4c90600090a250565b600080546001600160a01b0383811673ffffffffffffffffffffffffffffffffffffffff19831681178455604051919092169283917f8be0079c531659141344cd1fd0a4f28419497f9722a3daafe3b4186f6b6457e09190a35050565b6001600160a01b038116610cf25760405162461bcd60e51b815260206004820152601460248201527f4472617743616c632f64682d6e6f742d7a65726f0000000000000000000000006044820152606401610225565b6002805473ffffffffffffffffffffffffffffffffffffffff19166001600160a01b0383169081179091556040517fba0e8f3a74973e2a13826a827919baef53ee4eb218c95ac51cd17e62e7457e6690600090a250565b60606000835167ffffffffffffffff811115610d6757610d6761223d565b604051908082528060200260200182016040528015610d90578160200160208202803683370190505b5090506000845167ffffffffffffffff811115610daf57610daf61223d565b604051908082528060200260200182016040528015610dd8578160200160208202803683370190505b50905060005b85518163ffffffff161015610ef257848163ffffffff1681518110610e0557610e05612227565b60200260200101516040015163ffffffff16868263ffffffff1681518110610e2f57610e2f612227565b60200260200101516040015103838263ffffffff1681518110610e5457610e54612227565b63ffffffff9283166020918202929092010152855186918316908110610e7c57610e7c612227565b60200260200101516060015163ffffffff16868263ffffffff1681518110610ea657610ea6612227565b60200260200101516040015103828263ffffffff1681518110610ecb57610ecb612227565b63ffffffff9092166020928302919091019091015280610eea816121ed565b915050610dde565b506040517f6cdd0be20000000000000000000000000000000000000000000000000000000081526000906001600160a01b037f00000000000000000000000000000000000000000000000000000000000000001690636cdd0be290610f5f908a9087908790600401611e77565b60006040518083038186803b158015610f7757600080fd5b505afa158015610f8b573d6000803e3d6000fd5b505050506040513d6000823e601f3d908101601f19168201604052610fb39190810190611d9e565b905060007f00000000000000000000000000000000000000000000000000000000000000006001600160a01b0316637966cd6785856040518363ffffffff1660e01b8152600401611005929190611fa0565b60006040518083038186803b15801561101d57600080fd5b505afa158015611031573d6000803e3d6000fd5b505050506040513d6000823e601f3d908101601f191682016040526110599190810190611d9e565b90506000875167ffffffffffffffff8111156110775761107761223d565b6040519080825280602002602001820160405280156110a0578160200160208202803683370190505b50905060005b88518110156111985760008382815181106110c3576110c3612227565b6020026020010151116111185760405162461bcd60e51b815260206004820152601a60248201527f4472617743616c632f746f74616c2d737570706c792d7a65726f0000000000006044820152606401610225565b82818151811061112a5761112a612227565b602002602001015184828151811061114457611144612227565b6020026020010151670de0b6b3a764000061115f919061219c565b611169919061207f565b82828151811061117b5761117b612227565b602090810291909101015280611190816121d2565b9150506110a6565b5098975050505050505050565b60606000865167ffffffffffffffff8111156111c3576111c361223d565b6040519080825280602002602001820160405280156111ec578160200160208202803683370190505b50905060005b85518163ffffffff1610156112e457600061123e858363ffffffff168151811061121e5761121e612227565b60200260200101518a8463ffffffff168151811061087757610877612227565b90506112ae878363ffffffff168151811061125b5761125b612227565b602002602001015160000151828a898663ffffffff168151811061128157611281612227565b6020026020010151898763ffffffff16815181106112a1576112a1612227565b6020026020010151611483565b838363ffffffff16815181106112c6576112c6612227565b602090810291909101015250806112dc816121ed565b9150506111f2565b509695505050505050565b6000670de0b6b3a76400008360a0015170ffffffffffffffffffffffffffffffffff168361131d919061219c565b611327919061207f565b90505b92915050565b60606000826020015160ff1667ffffffffffffffff8111156113545761135461223d565b60405190808252806020026020018201604052801561137d578160200160208202803683370190505b509050600060018460000151600261139591906120f0565b61139f91906121bb565b905060005b846020015160ff168110156113ff5784516000906113c59060ff168361219c565b90508061ffff1683901b8483815181106113e1576113e1612227565b602090810291909101015250806113f7816121d2565b9150506113a4565b50909392505050565b80516000908190815b8181101561147857600085828151811061142d5761142d612227565b60200260200101519050808716818916146114575761144c84846121bb565b945050505050610497565b83611461816121d2565b945050508080611470906121d2565b915050611411565b5061049282826121bb565b6000808260c001515167ffffffffffffffff8111156114a4576114a461223d565b6040519080825280602002602001820160405280156114cd578160200160208202803683370190505b50905060006114db84611330565b855160808601519192509063ffffffff1681111561153b5760405162461bcd60e51b815260206004820152601f60248201527f4472617743616c632f657863656564732d6d61782d757365722d7069636b73006044820152606401610225565b60005b8181101561165c5760008888838151811061155b5761155b612227565b602002602001015160405160200161157d929190918252602082015260400190565b6040516020818303038152906040528051906020012060001c9050898883815181106115ab576115ab612227565b6020026020010151106116005760405162461bcd60e51b815260206004820181905260248201527f4472617743616c632f696e73756666696369656e742d757365722d7069636b736044820152606401610225565b600061160d828d87611408565b90508760c00151518110156116475785818151811061162e5761162e612227565b602002602001018051809190611643906121d2565b9052505b50508080611654906121d2565b91505061153e565b506000805b8660c00151518110156116dd57600085828151811061168257611682612227565b602002602001015111156116cb578481815181106116a2576116a2612227565b60200260200101516116b4888361170b565b6116be919061219c565b6116c89083612067565b91505b806116d5816121d2565b915050611661565b50633b9aca008660e00151826116f3919061219c565b6116fd919061207f565b9a9950505050505050505050565b6000808360c00151838151811061172457611724612227565b602002602001015163ffffffff1690506000611744856000015185611759565b9050611750818361207f565b95945050505050565b60008061176a60ff851660026120e4565b9050600061177884836120e4565b905083156117a25761178b6001856121bb565b61179590836120e4565b61179f90826121bb565b90505b949350505050565b60008083601f8401126117bc57600080fd5b50813567ffffffffffffffff8111156117d457600080fd5b6020830191508360208260051b85010111156117ef57600080fd5b9250929050565b600082601f83011261180757600080fd5b8151602061181c61181783612043565b612012565b80838252828201915082860187848660051b890101111561183c57600080fd5b60005b858110156118645781516118528161226b565b8452928401929084019060010161183f565b5090979650505050505050565b805170ffffffffffffffffffffffffffffffffff811681146102d957600080fd5b80516102d98161226b565b805167ffffffffffffffff811681146102d957600080fd5b805160ff811681146102d957600080fd5b6000602082840312156118d857600080fd5b813561049781612253565b600080600080606085870312156118f957600080fd5b843561190481612253565b9350602085013567ffffffffffffffff81111561192057600080fd5b61192c878288016117aa565b90945092505060408501356119408161226b565b939692955090935050565b60008060006040848603121561196057600080fd5b833561196b81612253565b9250602084013567ffffffffffffffff81111561198757600080fd5b611993868287016117aa565b9497909650939450505050565b6000806000806000606086880312156119b857600080fd5b85356119c381612253565b9450602086013567ffffffffffffffff808211156119e057600080fd5b6119ec89838a016117aa565b90965094506040880135915080821115611a0557600080fd5b818801915088601f830112611a1957600080fd5b813581811115611a2857600080fd5b896020828501011115611a3a57600080fd5b9699959850939650602001949392505050565b60006020808385031215611a6057600080fd5b823567ffffffffffffffff80821115611a7857600080fd5b818501915085601f830112611a8c57600080fd5b8135611a9a61181782612043565b80828252858201915085850189878560051b8801011115611aba57600080fd5b60005b84811015611b5057813586811115611ad457600080fd5b8701603f81018c13611ae557600080fd5b88810135611af561181782612043565b808282528b82019150604084018f60408560051b8701011115611b1757600080fd5b600094505b83851015611b3a578035835260019490940193918c01918c01611b1c565b5087525050509287019290870190600101611abd565b50909998505050505050505050565b60006020808385031215611b7257600080fd5b825167ffffffffffffffff811115611b8957600080fd5b8301601f81018513611b9a57600080fd5b8051611ba861181782612043565b8181528381019083850160a0808502860187018a1015611bc757600080fd5b60009550855b85811015611c475781838c031215611be3578687fd5b611beb611fc5565b8351815288840151611bfc8161226b565b818a01526040611c0d85820161189d565b908201526060611c1e85820161189d565b90820152608084810151611c318161226b565b9082015285529387019391810191600101611bcd565b50919998505050505050505050565b60006020808385031215611c6957600080fd5b825167ffffffffffffffff80821115611c8157600080fd5b818501915085601f830112611c9557600080fd5b8151611ca361181782612043565b80828252858201915085850189878560051b8801011115611cc357600080fd5b60005b84811015611b5057815186811115611cdd57600080fd5b8701610100818d03601f1901811315611cf557600080fd5b611cfd611fee565b611d088b84016118b5565b8152611d16604084016118b5565b8b820152611d2660608401611892565b6040820152611d3760808401611892565b6060820152611d4860a08401611892565b6080820152611d5960c08401611871565b60a082015260e083015189811115611d7057600080fd5b611d7e8f8d838701016117f6565b60c08301525091015160e082015284529287019290870190600101611cc6565b60006020808385031215611db157600080fd5b825167ffffffffffffffff811115611dc857600080fd5b8301601f81018513611dd957600080fd5b8051611de761181782612043565b80828252848201915084840188868560051b8701011115611e0757600080fd5b600094505b83851015611e2a578051835260019490940193918501918501611e0c565b50979650505050505050565b600081518084526020808501945080840160005b83811015611e6c57815163ffffffff1687529582019590820190600101611e4a565b509495945050505050565b6001600160a01b0384168152606060208201526000611e996060830185611e36565b8281036040840152611eab8185611e36565b9695505050505050565b602080825282518282018190526000919060409081850190868401855b82811015611efc57815180511515855286015160ff16868501529284019290850190600101611ed2565b5091979650505050505050565b6020808252825182820181905260009190848201906040850190845b81811015611f4157835183529284019291840191600101611f25565b50909695505050505050565b60208082528181018390526000908460408401835b868110156112e4578235611f758161226b565b63ffffffff1682529183019190830190600101611f62565b6020815260006113276020830184611e36565b604081526000611fb36040830185611e36565b82810360208401526117508185611e36565b60405160a0810167ffffffffffffffff81118282101715611fe857611fe861223d565b60405290565b604051610100810167ffffffffffffffff81118282101715611fe857611fe861223d565b604051601f8201601f1916810167ffffffffffffffff8111828210171561203b5761203b61223d565b604052919050565b600067ffffffffffffffff82111561205d5761205d61223d565b5060051b60200190565b6000821982111561207a5761207a612211565b500190565b60008261209c57634e487b7160e01b600052601260045260246000fd5b500490565b600181815b808511156120dc5781600019048211156120c2576120c2612211565b808516156120cf57918102915b93841c93908002906120a6565b509250929050565b600061132783836120fb565b600061132760ff8416835b60008261210a5750600161132a565b816121175750600061132a565b816001811461212d576002811461213757612153565b600191505061132a565b60ff84111561214857612148612211565b50506001821b61132a565b5060208310610133831016604e8410600b8410161715612176575081810a61132a565b61218083836120a1565b806000190482111561219457612194612211565b029392505050565b60008160001904831182151516156121b6576121b6612211565b500290565b6000828210156121cd576121cd612211565b500390565b60006000198214156121e6576121e6612211565b5060010190565b600063ffffffff8083168181141561220757612207612211565b6001019392505050565b634e487b7160e01b600052601160045260246000fd5b634e487b7160e01b600052603260045260246000fd5b634e487b7160e01b600052604160045260246000fd5b6001600160a01b038116811461226857600080fd5b50565b63ffffffff8116811461226857600080fdfea2646970667358221220cfe2482ad466c6aee1c5c226bfc62da1b4e23596c5e097d5a4bde48c1823c7d864736f6c63430008060033",
  "devdoc": {
    "author": "PoolTogether Inc Team",
    "events": {
      "DrawHistorySet(address)": {
        "params": {
          "drawHistory": "DrawHistory address"
        }
      }
    },
    "kind": "dev",
    "methods": {
      "calculate(address,uint32[],bytes)": {
        "params": {
          "data": "The encoded pick indices for all Draws. Expected to be just indices of winning claims. Populated values must be less than totalUserPicks.",
          "drawIds": "draw array for which to calculate prize amounts for",
          "user": "User for which to calcualte prize amount"
        },
        "returns": {
          "_0": "List of awardable prizes ordered by linked drawId"
        }
      },
      "checkPrizeDistributionIndicesForDrawId(address,uint256[],uint32)": {
        "params": {
          "_drawId": "The draw for which to calculate the distribution indices",
          "_pickIndices": "The users pick indices for a draw",
          "_user": "The user for which to calculate the distribution indices"
        },
        "returns": {
          "_0": "List of distributions for Draw.drawId"
        }
      },
      "claimOwnership()": {
        "details": "This function is only callable by the `_pendingOwner`."
      },
      "constructor": {
        "params": {
          "_drawHistory": "The address of the draw history to push draws to",
          "_owner": "Address of the DrawCalculator owner",
          "_prizeDistributionHistory": "PrizeDistributionHistory address",
          "_ticket": "Ticket associated with this DrawCalculator"
        }
      },
      "getDrawHistory()": {
        "returns": {
          "_0": "IDrawHistory"
        }
      },
      "getNormalizedBalancesForDrawIds(address,uint32[])": {
        "params": {
          "_drawIds": "The drawsId to consider",
          "_user": "The users address"
        },
        "returns": {
          "_0": "Array of balances"
        }
      },
      "getPrizeDistributionHistory()": {
        "returns": {
          "_0": "IDrawHistory"
        }
      },
      "pendingOwner()": {
        "returns": {
          "_0": "Current `_pendingOwner` address."
        }
      },
      "renounceOwnership()": {
        "details": "Leaves the contract without owner. It will not be possible to call `onlyOwner` functions anymore. Can only be called by the current owner. NOTE: Renouncing ownership will leave the contract without an owner, thereby removing any functionality that is only available to the owner."
      },
      "setDrawHistory(address)": {
        "params": {
          "_drawHistory": "DrawHistory address"
        },
        "returns": {
          "_0": "New DrawHistory address"
        }
      },
      "transferOwnership(address)": {
        "params": {
          "_newOwner": "Address to transfer ownership to."
        }
      }
    },
    "title": "PoolTogether V4 DrawCalculator",
    "version": 1
  },
  "userdoc": {
    "events": {
      "Deployed(address)": {
        "notice": "Emitted when the contract is initialized"
      },
      "DrawHistorySet(address)": {
        "notice": "Emitted when a global DrawHistory variable is set."
      },
      "DrawPrizesSet(address)": {
        "notice": "Emitted when the claimableDraw is set/updated"
      }
    },
    "kind": "user",
    "methods": {
      "calculate(address,uint32[],bytes)": {
        "notice": "Calulates the prize amount for a user for Multiple Draws. Typically called by a DrawPrizes."
      },
      "checkPrizeDistributionIndicesForDrawId(address,uint256[],uint32)": {
        "notice": "Returns a users balances expressed as a fraction of the total supply over time."
      },
      "claimOwnership()": {
        "notice": "Allows the `_pendingOwner` address to finalize the transfer."
      },
      "constructor": {
        "notice": "Constructor for DrawCalculator"
      },
      "getDrawHistory()": {
        "notice": "Read global DrawHistory variable."
      },
      "getNormalizedBalancesForDrawIds(address,uint32[])": {
        "notice": "Returns a users balances expressed as a fraction of the total supply over time."
      },
      "getPrizeDistributionHistory()": {
        "notice": "Read global DrawHistory variable."
      },
      "owner()": {
        "notice": "Returns the address of the current owner."
      },
      "pendingOwner()": {
        "notice": "Gets current `_pendingOwner`."
      },
      "renounceOwnership()": {
        "notice": "Renounce ownership of the contract."
      },
      "setDrawHistory(address)": {
        "notice": "Set global DrawHistory reference."
      },
      "transferOwnership(address)": {
        "notice": "Allows current owner to set the `_pendingOwner` address."
      }
    },
    "notice": "The DrawCalculator calculates a user's prize by matching a winning random number against their picks. A users picks are generated deterministically based on their address and balance of tickets held. Prize payouts are divided into multiple tiers: grand prize, second place, etc...  A user with a higher average weighted balance (during each draw perid) will be given a large number of pickIndices to choose from, and thus a higher chance to match the randomly generated winning numbers.  The DrawCalculator will retrieve data, like average weighted balance and cost of picks per draw  from the linked Ticket and PrizeDistributionHistory contracts when payouts are being calculated. ",
    "version": 1
  },
  "storageLayout": {
    "storage": [
      {
        "astId": 3466,
        "contract": "@pooltogether/v4-core/contracts/DrawCalculator.sol:DrawCalculator",
        "label": "_owner",
        "offset": 0,
        "slot": "0",
        "type": "t_address"
      },
      {
        "astId": 3468,
        "contract": "@pooltogether/v4-core/contracts/DrawCalculator.sol:DrawCalculator",
        "label": "_pendingOwner",
        "offset": 0,
        "slot": "1",
        "type": "t_address"
      },
      {
        "astId": 4726,
        "contract": "@pooltogether/v4-core/contracts/DrawCalculator.sol:DrawCalculator",
        "label": "drawHistory",
        "offset": 0,
        "slot": "2",
        "type": "t_contract(IDrawHistory)8958"
      }
    ],
    "types": {
      "t_address": {
        "encoding": "inplace",
        "label": "address",
        "numberOfBytes": "20"
      },
      "t_contract(IDrawHistory)8958": {
        "encoding": "inplace",
        "label": "contract IDrawHistory",
        "numberOfBytes": "20"
      }
    }
  }
}