{
  "address": "0x044092f18226004f475A23D51532aE9c245636e7",
  "abi": [
    {
      "inputs": [
        {
          "internalType": "address",
          "name": "_owner",
          "type": "address"
        },
        {
          "internalType": "uint8",
          "name": "_cardinality",
          "type": "uint8"
        }
      ],
      "stateMutability": "nonpayable",
      "type": "constructor"
    },
    {
      "anonymous": false,
      "inputs": [
        {
          "indexed": false,
          "internalType": "uint32",
          "name": "drawId",
          "type": "uint32"
        },
        {
          "indexed": false,
          "internalType": "uint32",
          "name": "timestamp",
          "type": "uint32"
        },
        {
          "indexed": false,
          "internalType": "uint256",
          "name": "winningRandomNumber",
          "type": "uint256"
        }
      ],
      "name": "DrawSet",
      "type": "event"
    },
    {
      "anonymous": false,
      "inputs": [
        {
          "indexed": true,
          "internalType": "address",
          "name": "previousManager",
          "type": "address"
        },
        {
          "indexed": true,
          "internalType": "address",
          "name": "newManager",
          "type": "address"
        }
      ],
      "name": "ManagerTransferred",
      "type": "event"
    },
    {
      "anonymous": false,
      "inputs": [
        {
          "indexed": true,
          "internalType": "address",
          "name": "pendingOwner",
          "type": "address"
        }
      ],
      "name": "OwnershipOffered",
      "type": "event"
    },
    {
      "anonymous": false,
      "inputs": [
        {
          "indexed": true,
          "internalType": "address",
          "name": "previousOwner",
          "type": "address"
        },
        {
          "indexed": true,
          "internalType": "address",
          "name": "newOwner",
          "type": "address"
        }
      ],
      "name": "OwnershipTransferred",
      "type": "event"
    },
    {
      "inputs": [],
      "name": "MAX_CARDINALITY",
      "outputs": [
        {
          "internalType": "uint16",
          "name": "",
          "type": "uint16"
        }
      ],
      "stateMutability": "view",
      "type": "function"
    },
    {
      "inputs": [],
      "name": "claimOwnership",
      "outputs": [],
      "stateMutability": "nonpayable",
      "type": "function"
    },
    {
      "inputs": [
        {
          "internalType": "uint32",
          "name": "drawId",
          "type": "uint32"
        }
      ],
      "name": "getDraw",
      "outputs": [
        {
          "components": [
            {
              "internalType": "uint256",
              "name": "winningRandomNumber",
              "type": "uint256"
            },
            {
              "internalType": "uint32",
              "name": "timestamp",
              "type": "uint32"
            },
            {
              "internalType": "uint32",
              "name": "drawId",
              "type": "uint32"
            }
          ],
          "internalType": "struct DrawLib.Draw",
          "name": "",
          "type": "tuple"
        }
      ],
      "stateMutability": "view",
      "type": "function"
    },
    {
      "inputs": [
        {
          "internalType": "uint32[]",
          "name": "drawIds",
          "type": "uint32[]"
        }
      ],
      "name": "getDraws",
      "outputs": [
        {
          "components": [
            {
              "internalType": "uint256",
              "name": "winningRandomNumber",
              "type": "uint256"
            },
            {
              "internalType": "uint32",
              "name": "timestamp",
              "type": "uint32"
            },
            {
              "internalType": "uint32",
              "name": "drawId",
              "type": "uint32"
            }
          ],
          "internalType": "struct DrawLib.Draw[]",
          "name": "",
          "type": "tuple[]"
        }
      ],
      "stateMutability": "view",
      "type": "function"
    },
    {
      "inputs": [],
      "name": "getNewestDraw",
      "outputs": [
        {
          "components": [
            {
              "internalType": "uint256",
              "name": "winningRandomNumber",
              "type": "uint256"
            },
            {
              "internalType": "uint32",
              "name": "timestamp",
              "type": "uint32"
            },
            {
              "internalType": "uint32",
              "name": "drawId",
              "type": "uint32"
            }
          ],
          "internalType": "struct DrawLib.Draw",
          "name": "",
          "type": "tuple"
        }
      ],
      "stateMutability": "view",
      "type": "function"
    },
    {
      "inputs": [],
      "name": "getOldestDraw",
      "outputs": [
        {
          "components": [
            {
              "internalType": "uint256",
              "name": "winningRandomNumber",
              "type": "uint256"
            },
            {
              "internalType": "uint32",
              "name": "timestamp",
              "type": "uint32"
            },
            {
              "internalType": "uint32",
              "name": "drawId",
              "type": "uint32"
            }
          ],
          "internalType": "struct DrawLib.Draw",
          "name": "",
          "type": "tuple"
        }
      ],
      "stateMutability": "view",
      "type": "function"
    },
    {
      "inputs": [],
      "name": "manager",
      "outputs": [
        {
          "internalType": "address",
          "name": "",
          "type": "address"
        }
      ],
      "stateMutability": "view",
      "type": "function"
    },
    {
      "inputs": [],
      "name": "owner",
      "outputs": [
        {
          "internalType": "address",
          "name": "",
          "type": "address"
        }
      ],
      "stateMutability": "view",
      "type": "function"
    },
    {
      "inputs": [],
      "name": "pendingOwner",
      "outputs": [
        {
          "internalType": "address",
          "name": "",
          "type": "address"
        }
      ],
      "stateMutability": "view",
      "type": "function"
    },
    {
      "inputs": [
        {
          "components": [
            {
              "internalType": "uint256",
              "name": "winningRandomNumber",
              "type": "uint256"
            },
            {
              "internalType": "uint32",
              "name": "timestamp",
              "type": "uint32"
            },
            {
              "internalType": "uint32",
              "name": "drawId",
              "type": "uint32"
            }
          ],
          "internalType": "struct DrawLib.Draw",
          "name": "_draw",
          "type": "tuple"
        }
      ],
      "name": "pushDraw",
      "outputs": [
        {
          "internalType": "uint32",
          "name": "",
          "type": "uint32"
        }
      ],
      "stateMutability": "nonpayable",
      "type": "function"
    },
    {
      "inputs": [],
      "name": "renounceOwnership",
      "outputs": [],
      "stateMutability": "nonpayable",
      "type": "function"
    },
    {
      "inputs": [
        {
          "components": [
            {
              "internalType": "uint256",
              "name": "winningRandomNumber",
              "type": "uint256"
            },
            {
              "internalType": "uint32",
              "name": "timestamp",
              "type": "uint32"
            },
            {
              "internalType": "uint32",
              "name": "drawId",
              "type": "uint32"
            }
          ],
          "internalType": "struct DrawLib.Draw",
          "name": "_newDraw",
          "type": "tuple"
        }
      ],
      "name": "setDraw",
      "outputs": [
        {
          "internalType": "uint32",
          "name": "",
          "type": "uint32"
        }
      ],
      "stateMutability": "nonpayable",
      "type": "function"
    },
    {
      "inputs": [
        {
          "internalType": "address",
          "name": "_newManager",
          "type": "address"
        }
      ],
      "name": "setManager",
      "outputs": [
        {
          "internalType": "bool",
          "name": "",
          "type": "bool"
        }
      ],
      "stateMutability": "nonpayable",
      "type": "function"
    },
    {
      "inputs": [
        {
          "internalType": "address",
          "name": "_newOwner",
          "type": "address"
        }
      ],
      "name": "transferOwnership",
      "outputs": [],
      "stateMutability": "nonpayable",
      "type": "function"
    }
  ],
  "transactionHash": "0xb95e243656d17e77534d79abf28207ce003d16491a52a67993d72bf47bcf3c36",
  "args": [
    "0xE0F4217390221aF47855E094F6e112D43C8698fE",
    8
  ],
  "solcInputHash": "b0872f2c20298ba87c0d5bbb50dadae3",
  "bytecode": "0x608060405234801561001057600080fd5b5060405161146638038061146683398101604081905261002f916100b6565b8161003981610066565b50610203805463ffffffff60401b191660ff92909216680100000000000000000291909117905550610102565b600080546001600160a01b038381166001600160a01b0319831681178455604051919092169283917f8be0079c531659141344cd1fd0a4f28419497f9722a3daafe3b4186f6b6457e09190a35050565b600080604083850312156100c957600080fd5b82516001600160a01b03811681146100e057600080fd5b602084015190925060ff811681146100f757600080fd5b809150509250929050565b611355806101116000396000f3fe608060405234801561001057600080fd5b50600436106100ea5760003560e01c80638200d8731161008c578063d0bb78f311610066578063d0bb78f3146101c3578063d0ebdbe7146101e3578063e30c397814610206578063f2fde38b1461021757600080fd5b80638200d8731461018357806383c34aaf1461019f5780638da5cb5b146101b257600080fd5b8063481c6a75116100c8578063481c6a75146101445780634e71e0c814610169578063648b1b4f14610173578063715018a61461017b57600080fd5b80630b752b2f146100ef5780630edb1d2e1461011c5780631f1dee3614610131575b600080fd5b6101026100fd3660046110fa565b61022a565b60405163ffffffff90911681526020015b60405180910390f35b6101246103a8565b60405161011391906111f6565b61010261013f3660046110fa565b61040f565b6002546001600160a01b03165b6040516001600160a01b039091168152602001610113565b6101716104d3565b005b610124610561565b61017161064d565b61018c61010081565b60405161ffff9091168152602001610113565b6101246101ad36600461116d565b6106c2565b6000546001600160a01b0316610151565b6101d66101d1366004611085565b61077f565b6040516101139190611188565b6101f66101f136600461105c565b6108f1565b6040519015158152602001610113565b6001546001600160a01b0316610151565b61017161022536600461105c565b610965565b60003361023f6000546001600160a01b031690565b6001600160a01b03161461029a5760405162461bcd60e51b815260206004820152601860248201527f4f776e61626c652f63616c6c65722d6e6f742d6f776e6572000000000000000060448201526064015b60405180910390fd5b604080516060810182526102035463ffffffff8082168352640100000000820481166020840152680100000000000000009091048116828401529184015190916000916102ea91849190610aa116565b90508360038263ffffffff166101008110610307576103076112f3565b8251600291909102919091019081556020808301516001909201805460409485015163ffffffff9081166401000000000267ffffffffffffffff19909216948116949094171790558683015187820151885185519285168352931691810191909152918201527f84d11a3d380fed59352cfcc353d2ba7e54e5018af4dc6a7ef7f003b3432cfdc89060600160405180910390a150505060408101515b919050565b6040805160608101825260008082526020820181905291810191909152604080516060810182526102035463ffffffff808216835264010000000082048116602084015268010000000000000000909104169181019190915261040a90610bd1565b905090565b6000336104246002546001600160a01b031690565b6001600160a01b031614806104525750336104476000546001600160a01b031690565b6001600160a01b0316145b6104c45760405162461bcd60e51b815260206004820152602660248201527f4d616e61676561626c652f63616c6c65722d6e6f742d6d616e616765722d6f7260448201527f2d6f776e657200000000000000000000000000000000000000000000000000006064820152608401610291565b6104cd82610bfe565b92915050565b6001546001600160a01b0316331461052d5760405162461bcd60e51b815260206004820152601f60248201527f4f776e61626c652f63616c6c65722d6e6f742d70656e64696e674f776e6572006044820152606401610291565b600154610542906001600160a01b0316610d71565b6001805473ffffffffffffffffffffffffffffffffffffffff19169055565b6040805160608101825260008082526020820181905291810191909152604080516060810182526102035463ffffffff808216835264010000000082048116602084018190526801000000000000000090920416928201929092529060009060039061010081106105d4576105d46112f3565b6040805160608101825260029290920292909201805482526001015463ffffffff80821660208401819052640100000000909204169282019290925291506104cd575060408051606081018252600354815260045463ffffffff8082166020840152640100000000909104169181019190915292915050565b336106606000546001600160a01b031690565b6001600160a01b0316146106b65760405162461bcd60e51b815260206004820152601860248201527f4f776e61626c652f63616c6c65722d6e6f742d6f776e657200000000000000006044820152606401610291565b6106c06000610d71565b565b6040805160608101825260008082526020820181905291810191909152604080516060810182526102035463ffffffff80821683526401000000008204811660208401526801000000000000000090910416918101919091526003906107289084610dce565b63ffffffff16610100811061073f5761073f6112f3565b6040805160608101825260029290920292909201805482526001015463ffffffff8082166020840152640100000000909104169181019190915292915050565b606060008267ffffffffffffffff81111561079c5761079c611309565b6040519080825280602002602001820160405280156107e757816020015b60408051606081018252600080825260208083018290529282015282526000199092019101816107ba5790505b50604080516060810182526102035463ffffffff808216835264010000000082048116602084015268010000000000000000909104169181019190915290915060005b848110156108e75760036108648388888581811061084a5761084a6112f3565b905060200201602081019061085f919061116d565b610dce565b63ffffffff16610100811061087b5761087b6112f3565b6040805160608101825260029290920292909201805482526001015463ffffffff8082166020840152640100000000909104169181019190915283518490839081106108c9576108c96112f3565b602002602001018190525080806108df906112a0565b91505061082a565b5090949350505050565b6000336109066000546001600160a01b031690565b6001600160a01b03161461095c5760405162461bcd60e51b815260206004820152601860248201527f4f776e61626c652f63616c6c65722d6e6f742d6f776e657200000000000000006044820152606401610291565b6104cd82610de1565b336109786000546001600160a01b031690565b6001600160a01b0316146109ce5760405162461bcd60e51b815260206004820152601860248201527f4f776e61626c652f63616c6c65722d6e6f742d6f776e657200000000000000006044820152606401610291565b6001600160a01b038116610a4a5760405162461bcd60e51b815260206004820152602560248201527f4f776e61626c652f70656e64696e674f776e65722d6e6f742d7a65726f2d616460448201527f64726573730000000000000000000000000000000000000000000000000000006064820152608401610291565b6001805473ffffffffffffffffffffffffffffffffffffffff19166001600160a01b0383169081179091556040517f239a2ddded15777fa246aed5f7e1a9bc69a39d4eb4a397034d1d85766cca7d4c90600090a250565b6000610aac83610ecd565b8015610ac85750826000015163ffffffff168263ffffffff1611155b610b145760405162461bcd60e51b815260206004820152600f60248201527f4452422f6675747572652d6472617700000000000000000000000000000000006044820152606401610291565b8251600090610b2490849061127b565b9050836040015163ffffffff168163ffffffff1610610b855760405162461bcd60e51b815260206004820152601060248201527f4452422f657870697265642d64726177000000000000000000000000000000006044820152606401610291565b6000610ba5856020015163ffffffff16866040015163ffffffff16610ef5565b9050610bc88163ffffffff168363ffffffff16876040015163ffffffff16610f25565b95945050505050565b60408051606081018252600080825260208201819052918101919091528151600390610728908490610aa1565b604080516060810182526102035463ffffffff8082168352640100000000820481166020840181905268010000000000000000909204169282019290925260009183906003906101008110610c5557610c556112f3565b82516002919091029190910190815560208201516001909101805460409384015163ffffffff9081166401000000000267ffffffffffffffff199092169381169390931717905590840151610cad91839190610f4f16565b8051610203805460208085015160409586015163ffffffff90811668010000000000000000027fffffffffffffffffffffffffffffffffffffffff00000000ffffffffffffffff9282166401000000000267ffffffffffffffff199095169682169690961793909317169390931790915585830151868301518751855192841683529216928101929092528183015290517f84d11a3d380fed59352cfcc353d2ba7e54e5018af4dc6a7ef7f003b3432cfdc89181900360600190a150506040015190565b600080546001600160a01b0383811673ffffffffffffffffffffffffffffffffffffffff19831681178455604051919092169283917f8be0079c531659141344cd1fd0a4f28419497f9722a3daafe3b4186f6b6457e09190a35050565b6000610dda8383610aa1565b9392505050565b6002546000906001600160a01b03908116908316811415610e6a5760405162461bcd60e51b815260206004820152602360248201527f4d616e61676561626c652f6578697374696e672d6d616e616765722d6164647260448201527f65737300000000000000000000000000000000000000000000000000000000006064820152608401610291565b6002805473ffffffffffffffffffffffffffffffffffffffff19166001600160a01b0385811691821790925560405190918316907f9cb45c728de594dab506a1f1a8554e24c8eeaf983618d5ec5dd7bc6f3c49feee90600090a350600192915050565b6000816020015163ffffffff166000148015610eee5750815163ffffffff16155b1592915050565b600081610f04575060006104cd565b816001610f118286611224565b610f1b9190611264565b610dda91906112bb565b60008183610f338287611224565b610f3d9190611264565b610f4791906112bb565b949350505050565b6040805160608101825260008082526020820181905291810191909152610f7583610ecd565b1580610f9857508251610f8990600161123c565b63ffffffff168263ffffffff16145b610fe45760405162461bcd60e51b815260206004820152601260248201527f4452422f6d7573742d62652d636f6e74696700000000000000000000000000006044820152606401610291565b60405180606001604052808363ffffffff168152602001611019856020015163ffffffff16866040015163ffffffff1661103a565b63ffffffff168152602001846040015163ffffffff16815250905092915050565b600081610f1b846001611224565b803563ffffffff811681146103a357600080fd5b60006020828403121561106e57600080fd5b81356001600160a01b0381168114610dda57600080fd5b6000806020838503121561109857600080fd5b823567ffffffffffffffff808211156110b057600080fd5b818501915085601f8301126110c457600080fd5b8135818111156110d357600080fd5b8660208260051b85010111156110e857600080fd5b60209290920196919550909350505050565b60006060828403121561110c57600080fd5b6040516060810181811067ffffffffffffffff8211171561113d57634e487b7160e01b600052604160045260246000fd5b6040528235815261115060208401611048565b602082015261116160408401611048565b60408201529392505050565b60006020828403121561117f57600080fd5b610dda82611048565b6020808252825182820181905260009190848201906040850190845b818110156111ea576111d78385518051825260208082015163ffffffff9081169184019190915260409182015116910152565b92840192606092909201916001016111a4565b50909695505050505050565b606081016104cd82848051825260208082015163ffffffff9081169184019190915260409182015116910152565b60008219821115611237576112376112dd565b500190565b600063ffffffff80831681851680830382111561125b5761125b6112dd565b01949350505050565b600082821015611276576112766112dd565b500390565b600063ffffffff83811690831681811015611298576112986112dd565b039392505050565b60006000198214156112b4576112b46112dd565b5060010190565b6000826112d857634e487b7160e01b600052601260045260246000fd5b500690565b634e487b7160e01b600052601160045260246000fd5b634e487b7160e01b600052603260045260246000fd5b634e487b7160e01b600052604160045260246000fdfea264697066735822122021f49aa4b60a67ab3258ddca2c724f64a347652a921f91ac71265a5bfe8df44264736f6c63430008060033",
  "devdoc": {
    "author": "PoolTogether Inc Team",
    "kind": "dev",
    "methods": {
      "claimOwnership()": {
        "details": "This function is only callable by the `_pendingOwner`."
      },
      "constructor": {
        "params": {
          "_cardinality": "Draw ring buffer cardinality.",
          "_owner": "Address of the owner of the DrawHistory."
        }
      },
      "getDraw(uint32)": {
        "details": "Read a Draw using the Draw.drawId to calculate position in the draws ring buffer.",
        "params": {
          "drawId": "Draw.drawId"
        },
        "returns": {
          "_0": "DrawLib.Draw"
        }
      },
      "getDraws(uint32[])": {
        "details": "Read multiple Draws using each Draw.drawId to calculate position in the draws ring buffer.",
        "params": {
          "drawIds": "Array of Draw.drawIds"
        },
        "returns": {
          "_0": "DrawLib.Draw[]"
        }
      },
      "getNewestDraw()": {
        "details": "Uses the nextDrawIndex to calculate the most recently added Draw.",
        "returns": {
          "_0": "DrawLib.Draw"
        }
      },
      "getOldestDraw()": {
        "details": "Finds the oldest Draw by comparing and/or diffing totalDraws with the cardinality.",
        "returns": {
          "_0": "DrawLib.Draw"
        }
      },
      "manager()": {
        "returns": {
          "_0": "Current `_manager` address."
        }
      },
      "pendingOwner()": {
        "returns": {
          "_0": "Current `_pendingOwner` address."
        }
      },
      "pushDraw((uint256,uint32,uint32))": {
        "details": "Push new draw onto draws history via authorized manager or owner.",
        "params": {
          "_draw": "DrawLib.Draw"
        },
        "returns": {
          "_0": "Draw.drawId"
        }
      },
      "renounceOwnership()": {
        "details": "Leaves the contract without owner. It will not be possible to call `onlyOwner` functions anymore. Can only be called by the current owner. NOTE: Renouncing ownership will leave the contract without an owner, thereby removing any functionality that is only available to the owner."
      },
      "setDraw((uint256,uint32,uint32))": {
        "details": "Updating a Draw should be used sparingly and only in the event an incorrect Draw parameter has been stored.",
        "params": {
          "_newDraw": "DrawLib.Draw"
        },
        "returns": {
          "_0": "Draw.drawId"
        }
      },
      "setManager(address)": {
        "details": "Throws if called by any account other than the owner.",
        "params": {
          "_newManager": "New _manager address."
        },
        "returns": {
          "_0": "Boolean to indicate if the operation was successful or not."
        }
      },
      "transferOwnership(address)": {
        "params": {
          "_newOwner": "Address to transfer ownership to."
        }
      }
    },
    "stateVariables": {
      "MAX_CARDINALITY": {
        "details": "Once the number of draws created matches the cardinality, previous draws will be overwritten."
      }
    },
    "title": "PoolTogether V4 DrawHistory",
    "version": 1
  },
  "userdoc": {
    "events": {
      "DrawSet(uint32,uint32,uint256)": {
        "notice": "Emit when a new draw has been created."
      }
    },
    "kind": "user",
    "methods": {
      "MAX_CARDINALITY()": {
        "notice": "Draws ring buffer length."
      },
      "claimOwnership()": {
        "notice": "Allows the `_pendingOwner` address to finalize the transfer."
      },
      "constructor": {
        "notice": "Deploy DrawHistory smart contract."
      },
      "getDraw(uint32)": {
        "notice": "Read a Draw from the draws ring buffer."
      },
      "getDraws(uint32[])": {
        "notice": "Read multiple Draws from the draws ring buffer."
      },
      "getNewestDraw()": {
        "notice": "Read newest Draw from the draws ring buffer."
      },
      "getOldestDraw()": {
        "notice": "Read oldest Draw from the draws ring buffer."
      },
      "manager()": {
        "notice": "Gets current `_manager`."
      },
      "owner()": {
        "notice": "Returns the address of the current owner."
      },
      "pendingOwner()": {
        "notice": "Gets current `_pendingOwner`."
      },
      "pushDraw((uint256,uint32,uint32))": {
        "notice": "Push Draw onto draws ring buffer history."
      },
      "renounceOwnership()": {
        "notice": "Renounce ownership of the contract."
      },
      "setDraw((uint256,uint32,uint32))": {
        "notice": "Set existing Draw in draws ring buffer with new parameters."
      },
      "setManager(address)": {
        "notice": "Set or change of manager."
      },
      "transferOwnership(address)": {
        "notice": "Allows current owner to set the `_pendingOwner` address."
      }
    },
    "notice": "The DrawHistory keeps a historical record of Draws created/pushed by DrawBeacon(s). Once a DrawBeacon (on mainnet) completes a RNG request, a new Draw will be added to the DrawHistory draws ring buffer. A DrawHistory will store a limited number of Draws before beginning to overwrite (managed via the cardinality) previous Draws. All mainnet DrawHistory(s) are updated directly from a DrawBeacon, but non-mainnet DrawHistory(s) (Matic, Optimism, Arbitrum, etc...) will receive a cross-chain message, duplicating the mainnet Draw configuration - enabling a prize savings liquidity network.",
    "version": 1
  },
  "storageLayout": {
    "storage": [
      {
        "astId": 3466,
        "contract": "@pooltogether/v4-core/contracts/DrawHistory.sol:DrawHistory",
        "label": "_owner",
        "offset": 0,
        "slot": "0",
        "type": "t_address"
      },
      {
        "astId": 3468,
        "contract": "@pooltogether/v4-core/contracts/DrawHistory.sol:DrawHistory",
        "label": "_pendingOwner",
        "offset": 0,
        "slot": "1",
        "type": "t_address"
      },
      {
        "astId": 3364,
        "contract": "@pooltogether/v4-core/contracts/DrawHistory.sol:DrawHistory",
        "label": "_manager",
        "offset": 0,
        "slot": "2",
        "type": "t_address"
      },
      {
        "astId": 5063,
        "contract": "@pooltogether/v4-core/contracts/DrawHistory.sol:DrawHistory",
        "label": "_draws",
        "offset": 0,
        "slot": "3",
        "type": "t_array(t_struct(Draw)9800_storage)256_storage"
      },
      {
        "astId": 5067,
        "contract": "@pooltogether/v4-core/contracts/DrawHistory.sol:DrawHistory",
        "label": "drawRingBuffer",
        "offset": 0,
        "slot": "515",
        "type": "t_struct(Buffer)9830_storage"
      }
    ],
    "types": {
      "t_address": {
        "encoding": "inplace",
        "label": "address",
        "numberOfBytes": "20"
      },
      "t_array(t_struct(Draw)9800_storage)256_storage": {
        "base": "t_struct(Draw)9800_storage",
        "encoding": "inplace",
        "label": "struct DrawLib.Draw[256]",
        "numberOfBytes": "16384"
      },
      "t_struct(Buffer)9830_storage": {
        "encoding": "inplace",
        "label": "struct DrawRingBuffer.Buffer",
        "members": [
          {
            "astId": 9825,
            "contract": "@pooltogether/v4-core/contracts/DrawHistory.sol:DrawHistory",
            "label": "lastDrawId",
            "offset": 0,
            "slot": "0",
            "type": "t_uint32"
          },
          {
            "astId": 9827,
            "contract": "@pooltogether/v4-core/contracts/DrawHistory.sol:DrawHistory",
            "label": "nextIndex",
            "offset": 4,
            "slot": "0",
            "type": "t_uint32"
          },
          {
            "astId": 9829,
            "contract": "@pooltogether/v4-core/contracts/DrawHistory.sol:DrawHistory",
            "label": "cardinality",
            "offset": 8,
            "slot": "0",
            "type": "t_uint32"
          }
        ],
        "numberOfBytes": "32"
      },
      "t_struct(Draw)9800_storage": {
        "encoding": "inplace",
        "label": "struct DrawLib.Draw",
        "members": [
          {
            "astId": 9795,
            "contract": "@pooltogether/v4-core/contracts/DrawHistory.sol:DrawHistory",
            "label": "winningRandomNumber",
            "offset": 0,
            "slot": "0",
            "type": "t_uint256"
          },
          {
            "astId": 9797,
            "contract": "@pooltogether/v4-core/contracts/DrawHistory.sol:DrawHistory",
            "label": "timestamp",
            "offset": 0,
            "slot": "1",
            "type": "t_uint32"
          },
          {
            "astId": 9799,
            "contract": "@pooltogether/v4-core/contracts/DrawHistory.sol:DrawHistory",
            "label": "drawId",
            "offset": 4,
            "slot": "1",
            "type": "t_uint32"
          }
        ],
        "numberOfBytes": "64"
      },
      "t_uint256": {
        "encoding": "inplace",
        "label": "uint256",
        "numberOfBytes": "32"
      },
      "t_uint32": {
        "encoding": "inplace",
        "label": "uint32",
        "numberOfBytes": "4"
      }
    }
  }
}