{
  "address": "0x07a6C805c9018e071c9257C871601b4066AE470A",
  "abi": [
    {
      "inputs": [],
      "stateMutability": "nonpayable",
      "type": "constructor"
    },
    {
      "anonymous": false,
      "inputs": [
        {
          "indexed": true,
          "internalType": "address",
          "name": "owner",
          "type": "address"
        },
        {
          "indexed": true,
          "internalType": "address",
          "name": "spender",
          "type": "address"
        },
        {
          "indexed": false,
          "internalType": "uint256",
          "name": "value",
          "type": "uint256"
        }
      ],
      "name": "Approval",
      "type": "event"
    },
    {
      "anonymous": false,
      "inputs": [
        {
          "indexed": true,
          "internalType": "address",
          "name": "from",
          "type": "address"
        },
        {
          "indexed": true,
          "internalType": "address",
          "name": "to",
          "type": "address"
        },
        {
          "indexed": false,
          "internalType": "uint256",
          "name": "value",
          "type": "uint256"
        }
      ],
      "name": "Transfer",
      "type": "event"
    },
    {
      "inputs": [
        {
          "internalType": "address",
          "name": "owner",
          "type": "address"
        },
        {
          "internalType": "address",
          "name": "spender",
          "type": "address"
        }
      ],
      "name": "allowance",
      "outputs": [
        {
          "internalType": "uint256",
          "name": "",
          "type": "uint256"
        }
      ],
      "stateMutability": "view",
      "type": "function"
    },
    {
      "inputs": [
        {
          "internalType": "address",
          "name": "spender",
          "type": "address"
        },
        {
          "internalType": "uint256",
          "name": "amount",
          "type": "uint256"
        }
      ],
      "name": "approve",
      "outputs": [
        {
          "internalType": "bool",
          "name": "",
          "type": "bool"
        }
      ],
      "stateMutability": "nonpayable",
      "type": "function"
    },
    {
      "inputs": [
        {
          "internalType": "address",
          "name": "account",
          "type": "address"
        }
      ],
      "name": "balanceOf",
      "outputs": [
        {
          "internalType": "uint256",
          "name": "",
          "type": "uint256"
        }
      ],
      "stateMutability": "view",
      "type": "function"
    },
    {
      "inputs": [
        {
          "internalType": "address",
          "name": "addr",
          "type": "address"
        }
      ],
      "name": "balanceOfToken",
      "outputs": [
        {
          "internalType": "uint256",
          "name": "",
          "type": "uint256"
        }
      ],
      "stateMutability": "nonpayable",
      "type": "function"
    },
    {
      "inputs": [],
      "name": "decimals",
      "outputs": [
        {
          "internalType": "uint8",
          "name": "",
          "type": "uint8"
        }
      ],
      "stateMutability": "view",
      "type": "function"
    },
    {
      "inputs": [
        {
          "internalType": "address",
          "name": "spender",
          "type": "address"
        },
        {
          "internalType": "uint256",
          "name": "subtractedValue",
          "type": "uint256"
        }
      ],
      "name": "decreaseAllowance",
      "outputs": [
        {
          "internalType": "bool",
          "name": "",
          "type": "bool"
        }
      ],
      "stateMutability": "nonpayable",
      "type": "function"
    },
    {
      "inputs": [],
      "name": "depositToken",
      "outputs": [
        {
          "internalType": "address",
          "name": "",
          "type": "address"
        }
      ],
      "stateMutability": "view",
      "type": "function"
    },
    {
      "inputs": [
        {
          "internalType": "address",
          "name": "spender",
          "type": "address"
        },
        {
          "internalType": "uint256",
          "name": "addedValue",
          "type": "uint256"
        }
      ],
      "name": "increaseAllowance",
      "outputs": [
        {
          "internalType": "bool",
          "name": "",
          "type": "bool"
        }
      ],
      "stateMutability": "nonpayable",
      "type": "function"
    },
    {
      "inputs": [],
      "name": "name",
      "outputs": [
        {
          "internalType": "string",
          "name": "",
          "type": "string"
        }
      ],
      "stateMutability": "view",
      "type": "function"
    },
    {
      "inputs": [
        {
          "internalType": "uint256",
          "name": "amount",
          "type": "uint256"
        }
      ],
      "name": "redeemToken",
      "outputs": [
        {
          "internalType": "uint256",
          "name": "",
          "type": "uint256"
        }
      ],
      "stateMutability": "nonpayable",
      "type": "function"
    },
    {
      "inputs": [
        {
          "internalType": "uint256",
          "name": "shares",
          "type": "uint256"
        }
      ],
      "name": "sharesToTokens",
      "outputs": [
        {
          "internalType": "uint256",
          "name": "",
          "type": "uint256"
        }
      ],
      "stateMutability": "view",
      "type": "function"
    },
    {
      "inputs": [
        {
          "internalType": "uint256",
          "name": "amount",
          "type": "uint256"
        },
        {
          "internalType": "address",
          "name": "to",
          "type": "address"
        }
      ],
      "name": "supplyTokenTo",
      "outputs": [],
      "stateMutability": "nonpayable",
      "type": "function"
    },
    {
      "inputs": [],
      "name": "symbol",
      "outputs": [
        {
          "internalType": "string",
          "name": "",
          "type": "string"
        }
      ],
      "stateMutability": "view",
      "type": "function"
    },
    {
      "inputs": [
        {
          "internalType": "uint256",
          "name": "tokens",
          "type": "uint256"
        }
      ],
      "name": "tokensToShares",
      "outputs": [
        {
          "internalType": "uint256",
          "name": "",
          "type": "uint256"
        }
      ],
      "stateMutability": "view",
      "type": "function"
    },
    {
      "inputs": [],
      "name": "totalSupply",
      "outputs": [
        {
          "internalType": "uint256",
          "name": "",
          "type": "uint256"
        }
      ],
      "stateMutability": "view",
      "type": "function"
    },
    {
      "inputs": [
        {
          "internalType": "address",
          "name": "recipient",
          "type": "address"
        },
        {
          "internalType": "uint256",
          "name": "amount",
          "type": "uint256"
        }
      ],
      "name": "transfer",
      "outputs": [
        {
          "internalType": "bool",
          "name": "",
          "type": "bool"
        }
      ],
      "stateMutability": "nonpayable",
      "type": "function"
    },
    {
      "inputs": [
        {
          "internalType": "address",
          "name": "sender",
          "type": "address"
        },
        {
          "internalType": "address",
          "name": "recipient",
          "type": "address"
        },
        {
          "internalType": "uint256",
          "name": "amount",
          "type": "uint256"
        }
      ],
      "name": "transferFrom",
      "outputs": [
        {
          "internalType": "bool",
          "name": "",
          "type": "bool"
        }
      ],
      "stateMutability": "nonpayable",
      "type": "function"
    },
    {
      "inputs": [
        {
          "internalType": "uint256",
          "name": "amount",
          "type": "uint256"
        }
      ],
      "name": "yield",
      "outputs": [],
      "stateMutability": "nonpayable",
      "type": "function"
    }
  ],
  "transactionHash": "0x3a17a9a39d4963ab562a7439e243262c66c9edfa995f7846b4eb45d4e7d431c3",
  "args": [],
  "solcInputHash": "cd602f25f64ef99b8bda18535e71cd0e",
  "bytecode": "0x60806040523480156200001157600080fd5b5060408051808201909152600b8082526a22a9219918102a37b5b2b760a91b60209092019182526200004691600391620000c6565b50604080518082019091526003808252622a25a760e91b60209092019182526200007391600491620000c6565b50604051620000829062000155565b604051809103906000f0801580156200009f573d6000803e3d6000fd5b50603280546001600160a01b0319166001600160a01b0392909216919091179055620001b7565b828054620000d4906200017a565b90600052602060002090601f016020900481019282620000f8576000855562000143565b82601f106200011357805160ff191683800117855562000143565b8280016001018555821562000143579182015b828111156200014357825182559160200191906001019062000126565b506200015192915062000163565b5090565b610d0c80620011c683390190565b5b8082111562000151576000815560010162000164565b600181811c908216806200018f57607f821691505b60208210811415620001b157634e487b7160e01b600052602260045260246000fd5b50919050565b610fff80620001c76000396000f3fe608060405234801561001057600080fd5b50600436106101165760003560e01c8063765287ef116100a2578063a9059cbb11610071578063a9059cbb14610235578063b99152d014610248578063c89039c51461025b578063dd62ed3e14610276578063f3044ac7146102af57600080fd5b8063765287ef146101f257806387a6eeef1461020757806395d89b411461021a578063a457c2d71461022257600080fd5b806323b872dd116100e957806323b872dd1461018157806327def4fd14610194578063313ce567146101a757806339509351146101b657806370a08231146101c957600080fd5b8063013054c21461011b57806306fdde0314610141578063095ea7b31461015657806318160ddd14610179575b600080fd5b61012e610129366004610e64565b6102c2565b6040519081526020015b60405180910390f35b610149610366565b6040516101389190610eb9565b610169610164366004610e18565b6103f8565b6040519015158152602001610138565b60025461012e565b61016961018f366004610ddc565b61040e565b61012e6101a2366004610e64565b6104bd565b60405160128152602001610138565b6101696101c4366004610e18565b610573565b61012e6101d7366004610d8e565b6001600160a01b031660009081526020819052604090205490565b610205610200366004610e64565b6105af565b005b610205610215366004610e96565b610637565b6101496106dd565b610169610230366004610e18565b6106ec565b610169610243366004610e18565b610785565b61012e610256366004610d8e565b610792565b6032546040516001600160a01b039091168152602001610138565b61012e610284366004610da9565b6001600160a01b03918216600090815260016020908152604080832093909416825291909152205490565b61012e6102bd366004610e64565b6107ba565b6000806102ce836107ba565b90506102da3382610852565b60325460405163a9059cbb60e01b8152336004820152602481018590526001600160a01b039091169063a9059cbb90604401602060405180830381600087803b15801561032657600080fd5b505af115801561033a573d6000803e3d6000fd5b505050506040513d601f19601f8201168201806040525081019061035e9190610e42565b509192915050565b60606003805461037590610f7e565b80601f01602080910402602001604051908101604052809291908181526020018280546103a190610f7e565b80156103ee5780601f106103c3576101008083540402835291602001916103ee565b820191906000526020600020905b8154815290600101906020018083116103d157829003601f168201915b5050505050905090565b60006104053384846109a0565b50600192915050565b600061041b848484610ac4565b6001600160a01b0384166000908152600160209081526040808320338452909152902054828110156104a55760405162461bcd60e51b815260206004820152602860248201527f45524332303a207472616e7366657220616d6f756e74206578636565647320616044820152676c6c6f77616e636560c01b60648201526084015b60405180910390fd5b6104b285338584036109a0565b506001949350505050565b6000806104c960025490565b9050806104d7575090919050565b6032546040516370a0823160e01b815230600482015282916001600160a01b0316906370a082319060240160206040518083038186803b15801561051a57600080fd5b505afa15801561052e573d6000803e3d6000fd5b505050506040513d601f19601f820116820180604052508101906105529190610e7d565b61055c9085610f48565b6105669190610f26565b9392505050565b50919050565b3360008181526001602090815260408083206001600160a01b038716845290915281205490916104059185906105aa908690610f0e565b6109a0565b6032546040516340c10f1960e01b8152306004820152602481018390526001600160a01b03909116906340c10f1990604401602060405180830381600087803b1580156105fb57600080fd5b505af115801561060f573d6000803e3d6000fd5b505050506040513d601f19601f820116820180604052508101906106339190610e42565b5050565b6000610642836107ba565b6032546040516323b872dd60e01b8152336004820152306024820152604481018690529192506001600160a01b0316906323b872dd90606401602060405180830381600087803b15801561069557600080fd5b505af11580156106a9573d6000803e3d6000fd5b505050506040513d601f19601f820116820180604052508101906106cd9190610e42565b506106d88282610c93565b505050565b60606004805461037590610f7e565b3360009081526001602090815260408083206001600160a01b03861684529091528120548281101561076e5760405162461bcd60e51b815260206004820152602560248201527f45524332303a2064656372656173656420616c6c6f77616e63652062656c6f77604482015264207a65726f60d81b606482015260840161049c565b61077b33858584036109a0565b5060019392505050565b6000610405338484610ac4565b6001600160a01b0381166000908152602081905260408120546107b4906104bd565b92915050565b6032546040516370a0823160e01b815230600482015260009182916001600160a01b03909116906370a082319060240160206040518083038186803b15801561080257600080fd5b505afa158015610816573d6000803e3d6000fd5b505050506040513d601f19601f8201168201806040525081019061083a9190610e7d565b905080610848575090919050565b8061055260025490565b6001600160a01b0382166108b25760405162461bcd60e51b815260206004820152602160248201527f45524332303a206275726e2066726f6d20746865207a65726f206164647265736044820152607360f81b606482015260840161049c565b6001600160a01b038216600090815260208190526040902054818110156109265760405162461bcd60e51b815260206004820152602260248201527f45524332303a206275726e20616d6f756e7420657863656564732062616c616e604482015261636560f01b606482015260840161049c565b6001600160a01b0383166000908152602081905260408120838303905560028054849290610955908490610f67565b90915550506040518281526000906001600160a01b038516907fddf252ad1be2c89b69c2b068fc378daa952ba7f163c4a11628f55a4df523b3ef9060200160405180910390a3505050565b6001600160a01b038316610a025760405162461bcd60e51b8152602060048201526024808201527f45524332303a20617070726f76652066726f6d20746865207a65726f206164646044820152637265737360e01b606482015260840161049c565b6001600160a01b038216610a635760405162461bcd60e51b815260206004820152602260248201527f45524332303a20617070726f766520746f20746865207a65726f206164647265604482015261737360f01b606482015260840161049c565b6001600160a01b0383811660008181526001602090815260408083209487168084529482529182902085905590518481527f8c5be1e5ebec7d5bd14f71427d1e84f3dd0314c0f7b2291e5b200ac8c7c3b925910160405180910390a3505050565b6001600160a01b038316610b285760405162461bcd60e51b815260206004820152602560248201527f45524332303a207472616e736665722066726f6d20746865207a65726f206164604482015264647265737360d81b606482015260840161049c565b6001600160a01b038216610b8a5760405162461bcd60e51b815260206004820152602360248201527f45524332303a207472616e7366657220746f20746865207a65726f206164647260448201526265737360e81b606482015260840161049c565b6001600160a01b03831660009081526020819052604090205481811015610c025760405162461bcd60e51b815260206004820152602660248201527f45524332303a207472616e7366657220616d6f756e7420657863656564732062604482015265616c616e636560d01b606482015260840161049c565b6001600160a01b03808516600090815260208190526040808220858503905591851681529081208054849290610c39908490610f0e565b92505081905550826001600160a01b0316846001600160a01b03167fddf252ad1be2c89b69c2b068fc378daa952ba7f163c4a11628f55a4df523b3ef84604051610c8591815260200190565b60405180910390a350505050565b6001600160a01b038216610ce95760405162461bcd60e51b815260206004820152601f60248201527f45524332303a206d696e7420746f20746865207a65726f206164647265737300604482015260640161049c565b8060026000828254610cfb9190610f0e565b90915550506001600160a01b03821660009081526020819052604081208054839290610d28908490610f0e565b90915550506040518181526001600160a01b038316906000907fddf252ad1be2c89b69c2b068fc378daa952ba7f163c4a11628f55a4df523b3ef9060200160405180910390a35050565b80356001600160a01b0381168114610d8957600080fd5b919050565b600060208284031215610da057600080fd5b61056682610d72565b60008060408385031215610dbc57600080fd5b610dc583610d72565b9150610dd360208401610d72565b90509250929050565b600080600060608486031215610df157600080fd5b610dfa84610d72565b9250610e0860208501610d72565b9150604084013590509250925092565b60008060408385031215610e2b57600080fd5b610e3483610d72565b946020939093013593505050565b600060208284031215610e5457600080fd5b8151801515811461056657600080fd5b600060208284031215610e7657600080fd5b5035919050565b600060208284031215610e8f57600080fd5b5051919050565b60008060408385031215610ea957600080fd5b82359150610dd360208401610d72565b600060208083528351808285015260005b81811015610ee657858101830151858201604001528201610eca565b81811115610ef8576000604083870101525b50601f01601f1916929092016040019392505050565b60008219821115610f2157610f21610fb3565b500190565b600082610f4357634e487b7160e01b600052601260045260246000fd5b500490565b6000816000190483118215151615610f6257610f62610fb3565b500290565b600082821015610f7957610f79610fb3565b500390565b600181811c90821680610f9257607f821691505b6020821081141561056d57634e487b7160e01b600052602260045260246000fd5b634e487b7160e01b600052601160045260246000fdfea2646970667358221220bb66b32c73e2de65429885520c015fa79fa7e5bc6325f5be2bc9c8f1aa064dc564736f6c63430008060033608060405234801561001057600080fd5b5060408051808201909152600b8082526a22a9219918102a37b5b2b760a91b602090920191825261004391600391610074565b50604080518082019091526003808252622a25a760e91b602090920191825261006e91600491610074565b50610148565b8280546100809061010d565b90600052602060002090601f0160209004810192826100a257600085556100e8565b82601f106100bb57805160ff19168380011785556100e8565b828001600101855582156100e8579182015b828111156100e85782518255916020019190600101906100cd565b506100f49291506100f8565b5090565b5b808211156100f457600081556001016100f9565b600181811c9082168061012157607f821691505b6020821081141561014257634e487b7160e01b600052602260045260246000fd5b50919050565b610bb480620001586000396000f3fe608060405234801561001057600080fd5b50600436106100ea5760003560e01c806340c10f191161008c5780639dc29fac116100665780639dc29fac146101d0578063a457c2d7146101e3578063a9059cbb146101f6578063dd62ed3e1461020957600080fd5b806340c10f191461018c57806370a082311461019f57806395d89b41146101c857600080fd5b80631c9c7903116100c85780631c9c79031461014257806323b872dd14610157578063313ce5671461016a578063395093511461017957600080fd5b806306fdde03146100ef578063095ea7b31461010d57806318160ddd14610130575b600080fd5b6100f7610242565b6040516101049190610aa9565b60405180910390f35b61012061011b366004610a7f565b6102d4565b6040519015158152602001610104565b6002545b604051908152602001610104565b610155610150366004610a43565b6102ea565b005b610120610165366004610a43565b6102fa565b60405160128152602001610104565b610120610187366004610a7f565b6103a9565b61012061019a366004610a7f565b6103e5565b6101346101ad3660046109ee565b6001600160a01b031660009081526020819052604090205490565b6100f76103f1565b6101206101de366004610a7f565b610400565b6101206101f1366004610a7f565b61040c565b610120610204366004610a7f565b6104a5565b610134610217366004610a10565b6001600160a01b03918216600090815260016020908152604080832093909416825291909152205490565b60606003805461025190610b2d565b80601f016020809104026020016040519081016040528092919081815260200182805461027d90610b2d565b80156102ca5780601f1061029f576101008083540402835291602001916102ca565b820191906000526020600020905b8154815290600101906020018083116102ad57829003601f168201915b5050505050905090565b60006102e13384846104b2565b50600192915050565b6102f58383836105d6565b505050565b60006103078484846105d6565b6001600160a01b0384166000908152600160209081526040808320338452909152902054828110156103915760405162461bcd60e51b815260206004820152602860248201527f45524332303a207472616e7366657220616d6f756e74206578636565647320616044820152676c6c6f77616e636560c01b60648201526084015b60405180910390fd5b61039e85338584036104b2565b506001949350505050565b3360008181526001602090815260408083206001600160a01b038716845290915281205490916102e19185906103e0908690610afe565b6104b2565b60006102e183836107a5565b60606004805461025190610b2d565b60006102e18383610884565b3360009081526001602090815260408083206001600160a01b03861684529091528120548281101561048e5760405162461bcd60e51b815260206004820152602560248201527f45524332303a2064656372656173656420616c6c6f77616e63652062656c6f77604482015264207a65726f60d81b6064820152608401610388565b61049b33858584036104b2565b5060019392505050565b60006102e13384846105d6565b6001600160a01b0383166105145760405162461bcd60e51b8152602060048201526024808201527f45524332303a20617070726f76652066726f6d20746865207a65726f206164646044820152637265737360e01b6064820152608401610388565b6001600160a01b0382166105755760405162461bcd60e51b815260206004820152602260248201527f45524332303a20617070726f766520746f20746865207a65726f206164647265604482015261737360f01b6064820152608401610388565b6001600160a01b0383811660008181526001602090815260408083209487168084529482529182902085905590518481527f8c5be1e5ebec7d5bd14f71427d1e84f3dd0314c0f7b2291e5b200ac8c7c3b925910160405180910390a3505050565b6001600160a01b03831661063a5760405162461bcd60e51b815260206004820152602560248201527f45524332303a207472616e736665722066726f6d20746865207a65726f206164604482015264647265737360d81b6064820152608401610388565b6001600160a01b03821661069c5760405162461bcd60e51b815260206004820152602360248201527f45524332303a207472616e7366657220746f20746865207a65726f206164647260448201526265737360e81b6064820152608401610388565b6001600160a01b038316600090815260208190526040902054818110156107145760405162461bcd60e51b815260206004820152602660248201527f45524332303a207472616e7366657220616d6f756e7420657863656564732062604482015265616c616e636560d01b6064820152608401610388565b6001600160a01b0380851660009081526020819052604080822085850390559185168152908120805484929061074b908490610afe565b92505081905550826001600160a01b0316846001600160a01b03167fddf252ad1be2c89b69c2b068fc378daa952ba7f163c4a11628f55a4df523b3ef8460405161079791815260200190565b60405180910390a350505050565b6001600160a01b0382166107fb5760405162461bcd60e51b815260206004820152601f60248201527f45524332303a206d696e7420746f20746865207a65726f2061646472657373006044820152606401610388565b806002600082825461080d9190610afe565b90915550506001600160a01b0382166000908152602081905260408120805483929061083a908490610afe565b90915550506040518181526001600160a01b038316906000907fddf252ad1be2c89b69c2b068fc378daa952ba7f163c4a11628f55a4df523b3ef9060200160405180910390a35050565b6001600160a01b0382166108e45760405162461bcd60e51b815260206004820152602160248201527f45524332303a206275726e2066726f6d20746865207a65726f206164647265736044820152607360f81b6064820152608401610388565b6001600160a01b038216600090815260208190526040902054818110156109585760405162461bcd60e51b815260206004820152602260248201527f45524332303a206275726e20616d6f756e7420657863656564732062616c616e604482015261636560f01b6064820152608401610388565b6001600160a01b0383166000908152602081905260408120838303905560028054849290610987908490610b16565b90915550506040518281526000906001600160a01b038516907fddf252ad1be2c89b69c2b068fc378daa952ba7f163c4a11628f55a4df523b3ef9060200160405180910390a3505050565b80356001600160a01b03811681146109e957600080fd5b919050565b600060208284031215610a0057600080fd5b610a09826109d2565b9392505050565b60008060408385031215610a2357600080fd5b610a2c836109d2565b9150610a3a602084016109d2565b90509250929050565b600080600060608486031215610a5857600080fd5b610a61846109d2565b9250610a6f602085016109d2565b9150604084013590509250925092565b60008060408385031215610a9257600080fd5b610a9b836109d2565b946020939093013593505050565b600060208083528351808285015260005b81811015610ad657858101830151858201604001528201610aba565b81811115610ae8576000604083870101525b50601f01601f1916929092016040019392505050565b60008219821115610b1157610b11610b68565b500190565b600082821015610b2857610b28610b68565b500390565b600181811c90821680610b4157607f821691505b60208210811415610b6257634e487b7160e01b600052602260045260246000fd5b50919050565b634e487b7160e01b600052601160045260246000fdfea264697066735822122044b68c409ef679e06b50105c7c026c877184c41d57f6e93358e42007afd6105e64736f6c63430008060033"
}