{
  "address": "0x0b593cF2CEf2542F64F42799f01D36939014CDeb",
  "abi": [
    {
      "inputs": [
        {
          "internalType": "address",
          "name": "_owner",
          "type": "address"
        }
      ],
      "stateMutability": "nonpayable",
      "type": "constructor"
    },
    {
      "anonymous": false,
      "inputs": [
        {
          "indexed": true,
          "internalType": "address",
          "name": "previousManager",
          "type": "address"
        },
        {
          "indexed": true,
          "internalType": "address",
          "name": "newManager",
          "type": "address"
        }
      ],
      "name": "ManagerTransferred",
      "type": "event"
    },
    {
      "anonymous": false,
      "inputs": [
        {
          "indexed": true,
          "internalType": "address",
          "name": "pendingOwner",
          "type": "address"
        }
      ],
      "name": "OwnershipOffered",
      "type": "event"
    },
    {
      "anonymous": false,
      "inputs": [
        {
          "indexed": true,
          "internalType": "address",
          "name": "previousOwner",
          "type": "address"
        },
        {
          "indexed": true,
          "internalType": "address",
          "name": "newOwner",
          "type": "address"
        }
      ],
      "name": "OwnershipTransferred",
      "type": "event"
    },
    {
      "anonymous": false,
      "inputs": [
        {
          "indexed": true,
          "internalType": "uint32",
          "name": "drawId",
          "type": "uint32"
        },
        {
          "components": [
            {
              "internalType": "uint8",
              "name": "bitRangeSize",
              "type": "uint8"
            },
            {
              "internalType": "uint32",
              "name": "drawId",
              "type": "uint32"
            },
            {
              "internalType": "uint32",
              "name": "maxPicksPerUser",
              "type": "uint32"
            },
            {
              "internalType": "uint32",
              "name": "validityDuration",
              "type": "uint32"
            },
            {
              "internalType": "uint32",
              "name": "endTimestampOffset",
              "type": "uint32"
            },
            {
              "internalType": "uint256",
              "name": "prize",
              "type": "uint256"
            },
            {
              "internalType": "uint32[16]",
              "name": "tiers",
              "type": "uint32[16]"
            }
          ],
          "indexed": false,
          "internalType": "struct IPrizeTierHistory.PrizeTier",
          "name": "prizeTier",
          "type": "tuple"
        }
      ],
      "name": "PrizeTierPushed",
      "type": "event"
    },
    {
      "anonymous": false,
      "inputs": [
        {
          "indexed": true,
          "internalType": "uint32",
          "name": "drawId",
          "type": "uint32"
        },
        {
          "components": [
            {
              "internalType": "uint8",
              "name": "bitRangeSize",
              "type": "uint8"
            },
            {
              "internalType": "uint32",
              "name": "drawId",
              "type": "uint32"
            },
            {
              "internalType": "uint32",
              "name": "maxPicksPerUser",
              "type": "uint32"
            },
            {
              "internalType": "uint32",
              "name": "validityDuration",
              "type": "uint32"
            },
            {
              "internalType": "uint32",
              "name": "endTimestampOffset",
              "type": "uint32"
            },
            {
              "internalType": "uint256",
              "name": "prize",
              "type": "uint256"
            },
            {
              "internalType": "uint32[16]",
              "name": "tiers",
              "type": "uint32[16]"
            }
          ],
          "indexed": false,
          "internalType": "struct IPrizeTierHistory.PrizeTier",
          "name": "prizeTier",
          "type": "tuple"
        }
      ],
      "name": "PrizeTierSet",
      "type": "event"
    },
    {
      "inputs": [],
      "name": "claimOwnership",
      "outputs": [],
      "stateMutability": "nonpayable",
      "type": "function"
    },
    {
      "inputs": [],
      "name": "count",
      "outputs": [
        {
          "internalType": "uint256",
          "name": "",
          "type": "uint256"
        }
      ],
      "stateMutability": "view",
      "type": "function"
    },
    {
      "inputs": [],
      "name": "getNewestDrawId",
      "outputs": [
        {
          "internalType": "uint32",
          "name": "",
          "type": "uint32"
        }
      ],
      "stateMutability": "view",
      "type": "function"
    },
    {
      "inputs": [],
      "name": "getOldestDrawId",
      "outputs": [
        {
          "internalType": "uint32",
          "name": "",
          "type": "uint32"
        }
      ],
      "stateMutability": "view",
      "type": "function"
    },
    {
      "inputs": [
        {
          "internalType": "uint32",
          "name": "_drawId",
          "type": "uint32"
        }
      ],
      "name": "getPrizeTier",
      "outputs": [
        {
          "components": [
            {
              "internalType": "uint8",
              "name": "bitRangeSize",
              "type": "uint8"
            },
            {
              "internalType": "uint32",
              "name": "drawId",
              "type": "uint32"
            },
            {
              "internalType": "uint32",
              "name": "maxPicksPerUser",
              "type": "uint32"
            },
            {
              "internalType": "uint32",
              "name": "validityDuration",
              "type": "uint32"
            },
            {
              "internalType": "uint32",
              "name": "endTimestampOffset",
              "type": "uint32"
            },
            {
              "internalType": "uint256",
              "name": "prize",
              "type": "uint256"
            },
            {
              "internalType": "uint32[16]",
              "name": "tiers",
              "type": "uint32[16]"
            }
          ],
          "internalType": "struct IPrizeTierHistory.PrizeTier",
          "name": "",
          "type": "tuple"
        }
      ],
      "stateMutability": "view",
      "type": "function"
    },
    {
      "inputs": [
        {
          "internalType": "uint32[]",
          "name": "_drawIds",
          "type": "uint32[]"
        }
      ],
      "name": "getPrizeTierList",
      "outputs": [
        {
          "components": [
            {
              "internalType": "uint8",
              "name": "bitRangeSize",
              "type": "uint8"
            },
            {
              "internalType": "uint32",
              "name": "drawId",
              "type": "uint32"
            },
            {
              "internalType": "uint32",
              "name": "maxPicksPerUser",
              "type": "uint32"
            },
            {
              "internalType": "uint32",
              "name": "validityDuration",
              "type": "uint32"
            },
            {
              "internalType": "uint32",
              "name": "endTimestampOffset",
              "type": "uint32"
            },
            {
              "internalType": "uint256",
              "name": "prize",
              "type": "uint256"
            },
            {
              "internalType": "uint32[16]",
              "name": "tiers",
              "type": "uint32[16]"
            }
          ],
          "internalType": "struct IPrizeTierHistory.PrizeTier[]",
          "name": "",
          "type": "tuple[]"
        }
      ],
      "stateMutability": "view",
      "type": "function"
    },
    {
      "inputs": [],
      "name": "manager",
      "outputs": [
        {
          "internalType": "address",
          "name": "",
          "type": "address"
        }
      ],
      "stateMutability": "view",
      "type": "function"
    },
    {
      "inputs": [],
      "name": "owner",
      "outputs": [
        {
          "internalType": "address",
          "name": "",
          "type": "address"
        }
      ],
      "stateMutability": "view",
      "type": "function"
    },
    {
      "inputs": [],
      "name": "pendingOwner",
      "outputs": [
        {
          "internalType": "address",
          "name": "",
          "type": "address"
        }
      ],
      "stateMutability": "view",
      "type": "function"
    },
    {
      "inputs": [
        {
          "components": [
            {
              "internalType": "uint8",
              "name": "bitRangeSize",
              "type": "uint8"
            },
            {
              "internalType": "uint32",
              "name": "drawId",
              "type": "uint32"
            },
            {
              "internalType": "uint32",
              "name": "maxPicksPerUser",
              "type": "uint32"
            },
            {
              "internalType": "uint32",
              "name": "validityDuration",
              "type": "uint32"
            },
            {
              "internalType": "uint32",
              "name": "endTimestampOffset",
              "type": "uint32"
            },
            {
              "internalType": "uint256",
              "name": "prize",
              "type": "uint256"
            },
            {
              "internalType": "uint32[16]",
              "name": "tiers",
              "type": "uint32[16]"
            }
          ],
          "internalType": "struct IPrizeTierHistory.PrizeTier",
          "name": "_prizeTier",
          "type": "tuple"
        }
      ],
      "name": "popAndPush",
      "outputs": [
        {
          "internalType": "uint32",
          "name": "",
          "type": "uint32"
        }
      ],
      "stateMutability": "nonpayable",
      "type": "function"
    },
    {
      "inputs": [
        {
          "components": [
            {
              "internalType": "uint8",
              "name": "bitRangeSize",
              "type": "uint8"
            },
            {
              "internalType": "uint32",
              "name": "drawId",
              "type": "uint32"
            },
            {
              "internalType": "uint32",
              "name": "maxPicksPerUser",
              "type": "uint32"
            },
            {
              "internalType": "uint32",
              "name": "validityDuration",
              "type": "uint32"
            },
            {
              "internalType": "uint32",
              "name": "endTimestampOffset",
              "type": "uint32"
            },
            {
              "internalType": "uint256",
              "name": "prize",
              "type": "uint256"
            },
            {
              "internalType": "uint32[16]",
              "name": "tiers",
              "type": "uint32[16]"
            }
          ],
          "internalType": "struct IPrizeTierHistory.PrizeTier",
          "name": "_nextPrizeTier",
          "type": "tuple"
        }
      ],
      "name": "push",
      "outputs": [
        {
          "internalType": "uint32",
          "name": "",
          "type": "uint32"
        }
      ],
      "stateMutability": "nonpayable",
      "type": "function"
    },
    {
      "inputs": [],
      "name": "renounceOwnership",
      "outputs": [],
      "stateMutability": "nonpayable",
      "type": "function"
    },
    {
      "inputs": [
        {
          "internalType": "address",
          "name": "_newManager",
          "type": "address"
        }
      ],
      "name": "setManager",
      "outputs": [
        {
          "internalType": "bool",
          "name": "",
          "type": "bool"
        }
      ],
      "stateMutability": "nonpayable",
      "type": "function"
    },
    {
      "inputs": [
        {
          "internalType": "address",
          "name": "_newOwner",
          "type": "address"
        }
      ],
      "name": "transferOwnership",
      "outputs": [],
      "stateMutability": "nonpayable",
      "type": "function"
    }
  ],
  "transactionHash": "0xa932abbaf16e152b113bfe37a569eb08c93867e7a9c85ed8f9d5f821260512fb",
  "args": [
    "0xE0F4217390221aF47855E094F6e112D43C8698fE"
  ],
  "solcInputHash": "2da38985b93df03160b22e15da9b8238",
  "bytecode": "0x608060405234801561001057600080fd5b506040516119f73803806119f783398101604081905261002f91610090565b8061003981610040565b50506100c0565b600080546001600160a01b038381166001600160a01b0319831681178455604051919092169283917f8be0079c531659141344cd1fd0a4f28419497f9722a3daafe3b4186f6b6457e09190a35050565b6000602082840312156100a257600080fd5b81516001600160a01b03811681146100b957600080fd5b9392505050565b611928806100cf6000396000f3fe608060405234801561001057600080fd5b50600436106100ea5760003560e01c80634e71e0c81161008c578063d0ebdbe711610066578063d0ebdbe7146101c5578063e30c3978146101e8578063f1143765146101f9578063f2fde38b1461020c57600080fd5b80634e71e0c8146101a2578063715018a6146101ac5780638da5cb5b146101b457600080fd5b8063472b619c116100c8578063472b619c14610135578063481c6a751461013d5780634aac253d146101625780634e602cd81461018257600080fd5b806306661abd146100ef5780633659f5431461010557806339dd7f081461012d575b600080fd5b6003546040519081526020015b60405180910390f35b61011861011336600461143c565b61021f565b60405163ffffffff90911681526020016100fc565b610118610642565b610118610679565b6002546001600160a01b03165b6040516001600160a01b0390911681526020016100fc565b610175610170366004611455565b61069d565b6040516100fc91906115fd565b6101956101903660046113c7565b610730565b6040516100fc91906114ef565b6101aa6107fb565b005b6101aa610889565b6000546001600160a01b031661014a565b6101d86101d336600461139e565b6108fe565b60405190151581526020016100fc565b6001546001600160a01b031661014a565b61011861020736600461143c565b610972565b6101aa61021a36600461139e565b610c4f565b6000336102346002546001600160a01b031690565b6001600160a01b031614806102625750336102576000546001600160a01b031690565b6001600160a01b0316145b6102d95760405162461bcd60e51b815260206004820152602660248201527f4d616e61676561626c652f63616c6c65722d6e6f742d6d616e616765722d6f7260448201527f2d6f776e6572000000000000000000000000000000000000000000000000000060648201526084015b60405180910390fd5b60006003805480602002602001604051908101604052809291908181526020016000905b828210156103f557600084815260208082206040805160e08101825260048702909201805460ff8116845263ffffffff610100820481169585019590955265010000000000810485168484015269010000000000000000008104851660608501526d010000000000000000000000000090049093166080830152600183015460a08301528051610200810191829052919360c0850192916002850191601091908390855b82829054906101000a900463ffffffff1663ffffffff16815260200190600401906020826003010492830192600103820291508084116103a1579050505050505081525050815260200190600101906102fd565b5050505090506000815111156105ac57600380546000919061041990600190611646565b8154811061042957610429611715565b60009182526020918290206040805160e0810182526004909302909101805460ff8116845263ffffffff610100820481169585019590955265010000000000810485168484015269010000000000000000008104851660608501526d010000000000000000000000000090049093166080830152600183015460a08301528051610200810190915290919060c08301906002830160108282826020028201916000905b82829054906101000a900463ffffffff1663ffffffff16815260200190600401906020826003010492830192600103820291508084116104cc5790505050505050815250509050806020015163ffffffff168460200160208101906105319190611455565b63ffffffff16116105aa5760405162461bcd60e51b815260206004820152602a60248201527f5072697a6554696572486973746f72792f6e6f6e2d73657175656e7469616c2d60448201527f7072697a652d746965720000000000000000000000000000000000000000000060648201526084016102d0565b505b6003805460018101825560009190915283906004027fc2575a0e9e593c00f959f8c92f12db2869c3395a3b0502d05e2516446f71f85b016105ed828261174e565b5061060090506040840160208501611455565b63ffffffff167efa6c2cd74e788568ac0c75b649897ed491b894d237486258b420d7e77490bf84604051610634919061153e565b60405180910390a250919050565b6000600360008154811061065857610658611715565b6000918252602090912060049091020154610100900463ffffffff16919050565b600380546000919061068d90600190611646565b8154811061065857610658611715565b6106a561133c565b60008263ffffffff16116107215760405162461bcd60e51b815260206004820152602160248201527f5072697a6554696572486973746f72792f647261772d69642d6e6f742d7a657260448201527f6f0000000000000000000000000000000000000000000000000000000000000060648201526084016102d0565b61072a82610d8b565b92915050565b606060008267ffffffffffffffff81111561074d5761074d61172b565b60405190808252806020026020018201604052801561078657816020015b61077361133c565b81526020019060019003908161076b5790505b50905060005b838110156107f3576107c38585838181106107a9576107a9611715565b90506020020160208101906107be9190611455565b610d8b565b8282815181106107d5576107d5611715565b602002602001018190525080806107eb906116c6565b91505061078c565b509392505050565b6001546001600160a01b031633146108555760405162461bcd60e51b815260206004820152601f60248201527f4f776e61626c652f63616c6c65722d6e6f742d70656e64696e674f776e65720060448201526064016102d0565b60015461086a906001600160a01b0316610fe7565b6001805473ffffffffffffffffffffffffffffffffffffffff19169055565b3361089c6000546001600160a01b031690565b6001600160a01b0316146108f25760405162461bcd60e51b815260206004820152601860248201527f4f776e61626c652f63616c6c65722d6e6f742d6f776e6572000000000000000060448201526064016102d0565b6108fc6000610fe7565b565b6000336109136000546001600160a01b031690565b6001600160a01b0316146109695760405162461bcd60e51b815260206004820152601860248201527f4f776e61626c652f63616c6c65722d6e6f742d6f776e6572000000000000000060448201526064016102d0565b61072a82611044565b6000336109876000546001600160a01b031690565b6001600160a01b0316146109dd5760405162461bcd60e51b815260206004820152601860248201527f4f776e61626c652f63616c6c65722d6e6f742d6f776e6572000000000000000060448201526064016102d0565b600354610a2c5760405162461bcd60e51b815260206004820152601e60248201527f5072697a6554696572486973746f72792f686973746f72792d656d707479000060448201526064016102d0565b6003805460009190610a4090600190611646565b81548110610a5057610a50611715565b60009182526020918290206040805160e0810182526004909302909101805460ff8116845263ffffffff610100820481169585019590955265010000000000810485168484015269010000000000000000008104851660608501526d010000000000000000000000000090049093166080830152600183015460a08301528051610200810190915290919060c08301906002830160108282826020028201916000905b82829054906101000a900463ffffffff1663ffffffff1681526020019060040190602082600301049283019260010382029150808411610af35790505050505050815250509050806020015163ffffffff16836020016020810190610b589190611455565b63ffffffff1614610bab5760405162461bcd60e51b815260206004820181905260248201527f5072697a6554696572486973746f72792f696e76616c69642d647261772d696460448201526064016102d0565b60038054849190610bbe90600190611646565b81548110610bce57610bce611715565b90600052602060002090600402018181610be8919061174e565b50610bfb90506040840160208501611455565b63ffffffff167fec70f602a8e5c0eab140e799c5b7bb34035bd73c6eb882fad555c7c8860817e784604051610c30919061153e565b60405180910390a2610c486040840160208501611455565b9392505050565b33610c626000546001600160a01b031690565b6001600160a01b031614610cb85760405162461bcd60e51b815260206004820152601860248201527f4f776e61626c652f63616c6c65722d6e6f742d6f776e6572000000000000000060448201526064016102d0565b6001600160a01b038116610d345760405162461bcd60e51b815260206004820152602560248201527f4f776e61626c652f70656e64696e674f776e65722d6e6f742d7a65726f2d616460448201527f647265737300000000000000000000000000000000000000000000000000000060648201526084016102d0565b6001805473ffffffffffffffffffffffffffffffffffffffff19166001600160a01b0383169081179091556040517f239a2ddded15777fa246aed5f7e1a9bc69a39d4eb4a397034d1d85766cca7d4c90600090a250565b610d9361133c565b600354600080610da4600184611646565b9050600060038381548110610dbb57610dbb611715565b906000526020600020906004020160000160019054906101000a900463ffffffff169050600060038381548110610df457610df4611715565b600091825260209091206004909102015463ffffffff610100909104811691508281169088161015610e8e5760405162461bcd60e51b815260206004820152602560248201527f5072697a6554696572486973746f72792f647261772d69642d6f75742d6f662d60448201527f72616e676500000000000000000000000000000000000000000000000000000060648201526084016102d0565b8063ffffffff168763ffffffff1610610fa85760038381548110610eb457610eb4611715565b60009182526020918290206040805160e0810182526004909302909101805460ff8116845263ffffffff610100820481169585019590955265010000000000810485168484015269010000000000000000008104851660608501526d010000000000000000000000000090049093166080830152600183015460a08301528051610200810190915290919060c08301906002830160108282826020028201916000905b82829054906101000a900463ffffffff1663ffffffff1681526020019060040190602082600301049283019260010382029150808411610f5757905050505050508152505095505050505050919050565b8163ffffffff168763ffffffff161415610fcf5760038481548110610eb457610eb4611715565b610fdc8785856003611130565b979650505050505050565b600080546001600160a01b0383811673ffffffffffffffffffffffffffffffffffffffff19831681178455604051919092169283917f8be0079c531659141344cd1fd0a4f28419497f9722a3daafe3b4186f6b6457e09190a35050565b6002546000906001600160a01b039081169083168114156110cd5760405162461bcd60e51b815260206004820152602360248201527f4d616e61676561626c652f6578697374696e672d6d616e616765722d6164647260448201527f657373000000000000000000000000000000000000000000000000000000000060648201526084016102d0565b6002805473ffffffffffffffffffffffffffffffffffffffff19166001600160a01b0385811691821790925560405190918316907f9cb45c728de594dab506a1f1a8554e24c8eeaf983618d5ec5dd7bc6f3c49feee90600090a350600192915050565b61113861133c565b600060026111468686611646565b6111509190611624565b61115a908661160c565b9050600083828154811061117057611170611715565b600091825260209091206004909102015463ffffffff61010090910481169150871681141561129c578382815481106111ab576111ab611715565b60009182526020918290206040805160e0810182526004909302909101805460ff8116845263ffffffff610100820481169585019590955265010000000000810485168484015269010000000000000000008104851660608501526d010000000000000000000000000090049093166080830152600183015460a08301528051610200810190915290919060c08301906002830160108282826020028201916000905b82829054906101000a900463ffffffff1663ffffffff168152602001906004019060208260030104928301926001038202915080841161124e57905050505050508152505092505050611334565b8663ffffffff168163ffffffff1610156112c2576112bb82600161160c565b95506112e4565b8663ffffffff168163ffffffff1611156112e4576112e1600183611646565b94505b8486141561132d578663ffffffff168163ffffffff161061131b578361130b600184611646565b815481106111ab576111ab611715565b8382815481106111ab576111ab611715565b5050611138565b949350505050565b6040805160e081018252600080825260208201819052918101829052606081018290526080810182905260a081019190915260c0810161137a61137f565b905290565b6040518061020001604052806010906020820280368337509192915050565b6000602082840312156113b057600080fd5b81356001600160a01b0381168114610c4857600080fd5b600080602083850312156113da57600080fd5b823567ffffffffffffffff808211156113f257600080fd5b818501915085601f83011261140657600080fd5b81358181111561141557600080fd5b8660208260051b850101111561142a57600080fd5b60209290920196919550909350505050565b60006102c0828403121561144f57600080fd5b50919050565b60006020828403121561146757600080fd5b8135610c48816118ce565b60ff815116825260208082015163ffffffff8082168386015280604085015116604086015280606085015116606086015280608085015116608086015260a084015160a086015260c0840151915060c0850160005b60108110156114e65783518316825292840192908401906001016114c7565b50505050505050565b6020808252825182820181905260009190848201906040850190845b818110156115325761151e838551611472565b928401926102c0929092019160010161150b565b50909695505050505050565b6102c08101823561154e816118e3565b60ff168252602083810135611562816118ce565b63ffffffff9081168483015260408501359061157d826118ce565b9081166040850152606085013590611594826118ce565b90811660608501526080850135906115ab826118ce565b808216608086015260a086013560a086015260c08501915060c0860160005b60108110156115f25781356115de816118ce565b8316845292840192908401906001016115ca565b505050505092915050565b6102c0810161072a8284611472565b6000821982111561161f5761161f6116ff565b500190565b60008261164157634e487b7160e01b600052601260045260246000fd5b500490565b600082821015611658576116586116ff565b500390565b81816000805b60108110156116be578335611677816118ce565b835463ffffffff600385901b81811b801990931693909116901b1617835560209390930192600490910190601c8211156116b657600091506001830192505b600101611663565b505050505050565b60007fffffffffffffffffffffffffffffffffffffffffffffffffffffffffffffffff8214156116f8576116f86116ff565b5060010190565b634e487b7160e01b600052601160045260246000fd5b634e487b7160e01b600052603260045260246000fd5b634e487b7160e01b600052604160045260246000fd5b6000813561072a816118ce565b8135611759816118e3565b60ff811690508154817fffffffffffffffffffffffffffffffffffffffffffffffffffffffffffffff0082161783556020840135611796816118ce565b64ffffffff008160081b16837fffffffffffffffffffffffffffffffffffffffffffffffffffffff000000000084161717845550505060408201356117da816118ce565b81547fffffffffffffffffffffffffffffffffffffffffffffff00000000ffffffffff16602882901b68ffffffff0000000000161782555061185f61182160608401611741565b82547fffffffffffffffffffffffffffffffffffffff00000000ffffffffffffffffff1660489190911b6cffffffff00000000000000000016178255565b6118b061186e60808401611741565b82547fffffffffffffffffffffffffffffff00000000ffffffffffffffffffffffffff1660689190911b70ffffffff0000000000000000000000000016178255565b60a082013560018201556118ca60c083016002830161165d565b5050565b63ffffffff811681146118e057600080fd5b50565b60ff811681146118e057600080fdfea2646970667358221220ffc829e65c78f8a2d2166a77397dd58e0a1cf8b65be3c2987ed6fb61603d1f0b64736f6c63430008060033",
  "devdoc": {
    "author": "PoolTogether Inc Team",
    "kind": "dev",
    "methods": {
      "claimOwnership()": {
        "details": "This function is only callable by the `_pendingOwner`."
      },
      "count()": {
        "returns": {
          "_0": "The number of prize tiers that have been pushed"
        }
      },
      "getOldestDrawId()": {
        "returns": {
          "_0": "Draw ID of first PrizeTier record"
        }
      },
      "manager()": {
        "returns": {
          "_0": "Current `_manager` address."
        }
      },
      "pendingOwner()": {
        "returns": {
          "_0": "Current `_pendingOwner` address."
        }
      },
      "renounceOwnership()": {
        "details": "Leaves the contract without owner. It will not be possible to call `onlyOwner` functions anymore. Can only be called by the current owner. NOTE: Renouncing ownership will leave the contract without an owner, thereby removing any functionality that is only available to the owner."
      },
      "setManager(address)": {
        "details": "Throws if called by any account other than the owner.",
        "params": {
          "_newManager": "New _manager address."
        },
        "returns": {
          "_0": "Boolean to indicate if the operation was successful or not."
        }
      },
      "transferOwnership(address)": {
        "params": {
          "_newOwner": "Address to transfer ownership to."
        }
      }
    },
    "title": "PoolTogether V4 IPrizeTierHistory",
    "version": 1
  },
  "userdoc": {
    "events": {
      "PrizeTierPushed(uint32,(uint8,uint32,uint32,uint32,uint32,uint256,uint32[16]))": {
        "notice": "Emit when new PrizeTier is added to history"
      },
      "PrizeTierSet(uint32,(uint8,uint32,uint32,uint32,uint32,uint256,uint32[16]))": {
        "notice": "Emit when existing PrizeTier is updated in history"
      }
    },
    "kind": "user",
    "methods": {
      "claimOwnership()": {
        "notice": "Allows the `_pendingOwner` address to finalize the transfer."
      },
      "count()": {
        "notice": "Returns the number of Prize Tier structs pushed"
      },
      "getOldestDrawId()": {
        "notice": "Read first Draw ID used to initialize history"
      },
      "manager()": {
        "notice": "Gets current `_manager`."
      },
      "owner()": {
        "notice": "Returns the address of the current owner."
      },
      "pendingOwner()": {
        "notice": "Gets current `_pendingOwner`."
      },
      "renounceOwnership()": {
        "notice": "Renounce ownership of the contract."
      },
      "setManager(address)": {
        "notice": "Set or change of manager."
      },
      "transferOwnership(address)": {
        "notice": "Allows current owner to set the `_pendingOwner` address."
      }
    },
    "notice": "IPrizeTierHistory is the base contract for PrizeTierHistory",
    "version": 1
  },
  "storageLayout": {
    "storage": [
      {
        "astId": 2866,
        "contract": "@pooltogether/v4-periphery/contracts/PrizeTierHistory.sol:PrizeTierHistory",
        "label": "_owner",
        "offset": 0,
        "slot": "0",
        "type": "t_address"
      },
      {
        "astId": 2868,
        "contract": "@pooltogether/v4-periphery/contracts/PrizeTierHistory.sol:PrizeTierHistory",
        "label": "_pendingOwner",
        "offset": 0,
        "slot": "1",
        "type": "t_address"
      },
      {
        "astId": 2764,
        "contract": "@pooltogether/v4-periphery/contracts/PrizeTierHistory.sol:PrizeTierHistory",
        "label": "_manager",
        "offset": 0,
        "slot": "2",
        "type": "t_address"
      },
      {
        "astId": 12582,
        "contract": "@pooltogether/v4-periphery/contracts/PrizeTierHistory.sol:PrizeTierHistory",
        "label": "history",
        "offset": 0,
        "slot": "3",
        "type": "t_array(t_struct(PrizeTier)13075_storage)dyn_storage"
      }
    ],
    "types": {
      "t_address": {
        "encoding": "inplace",
        "label": "address",
        "numberOfBytes": "20"
      },
      "t_array(t_struct(PrizeTier)13075_storage)dyn_storage": {
        "base": "t_struct(PrizeTier)13075_storage",
        "encoding": "dynamic_array",
        "label": "struct IPrizeTierHistory.PrizeTier[]",
        "numberOfBytes": "32"
      },
      "t_array(t_uint32)16_storage": {
        "base": "t_uint32",
        "encoding": "inplace",
        "label": "uint32[16]",
        "numberOfBytes": "64"
      },
      "t_struct(PrizeTier)13075_storage": {
        "encoding": "inplace",
        "label": "struct IPrizeTierHistory.PrizeTier",
        "members": [
          {
            "astId": 13060,
            "contract": "@pooltogether/v4-periphery/contracts/PrizeTierHistory.sol:PrizeTierHistory",
            "label": "bitRangeSize",
            "offset": 0,
            "slot": "0",
            "type": "t_uint8"
          },
          {
            "astId": 13062,
            "contract": "@pooltogether/v4-periphery/contracts/PrizeTierHistory.sol:PrizeTierHistory",
            "label": "drawId",
            "offset": 1,
            "slot": "0",
            "type": "t_uint32"
          },
          {
            "astId": 13064,
            "contract": "@pooltogether/v4-periphery/contracts/PrizeTierHistory.sol:PrizeTierHistory",
            "label": "maxPicksPerUser",
            "offset": 5,
            "slot": "0",
            "type": "t_uint32"
          },
          {
            "astId": 13066,
            "contract": "@pooltogether/v4-periphery/contracts/PrizeTierHistory.sol:PrizeTierHistory",
            "label": "validityDuration",
            "offset": 9,
            "slot": "0",
            "type": "t_uint32"
          },
          {
            "astId": 13068,
            "contract": "@pooltogether/v4-periphery/contracts/PrizeTierHistory.sol:PrizeTierHistory",
            "label": "endTimestampOffset",
            "offset": 13,
            "slot": "0",
            "type": "t_uint32"
          },
          {
            "astId": 13070,
            "contract": "@pooltogether/v4-periphery/contracts/PrizeTierHistory.sol:PrizeTierHistory",
            "label": "prize",
            "offset": 0,
            "slot": "1",
            "type": "t_uint256"
          },
          {
            "astId": 13074,
            "contract": "@pooltogether/v4-periphery/contracts/PrizeTierHistory.sol:PrizeTierHistory",
            "label": "tiers",
            "offset": 0,
            "slot": "2",
            "type": "t_array(t_uint32)16_storage"
          }
        ],
        "numberOfBytes": "128"
      },
      "t_uint256": {
        "encoding": "inplace",
        "label": "uint256",
        "numberOfBytes": "32"
      },
      "t_uint32": {
        "encoding": "inplace",
        "label": "uint32",
        "numberOfBytes": "4"
      },
      "t_uint8": {
        "encoding": "inplace",
        "label": "uint8",
        "numberOfBytes": "1"
      }
    }
  }
}