{
  "address": "0x19E9B3E586ff3bd41151fcA6d20bD1D18fD8aB6E",
  "abi": [
    {
      "inputs": [
        {
          "internalType": "address",
          "name": "_owner",
          "type": "address"
        },
        {
          "internalType": "uint8",
          "name": "_cardinality",
          "type": "uint8"
        }
      ],
      "stateMutability": "nonpayable",
      "type": "constructor"
    },
    {
      "anonymous": false,
      "inputs": [
        {
          "indexed": false,
          "internalType": "uint8",
          "name": "cardinality",
          "type": "uint8"
        }
      ],
      "name": "Deployed",
      "type": "event"
    },
    {
      "anonymous": false,
      "inputs": [
        {
          "indexed": true,
          "internalType": "address",
          "name": "previousManager",
          "type": "address"
        },
        {
          "indexed": true,
          "internalType": "address",
          "name": "newManager",
          "type": "address"
        }
      ],
      "name": "ManagerTransferred",
      "type": "event"
    },
    {
      "anonymous": false,
      "inputs": [
        {
          "indexed": true,
          "internalType": "address",
          "name": "pendingOwner",
          "type": "address"
        }
      ],
      "name": "OwnershipOffered",
      "type": "event"
    },
    {
      "anonymous": false,
      "inputs": [
        {
          "indexed": true,
          "internalType": "address",
          "name": "previousOwner",
          "type": "address"
        },
        {
          "indexed": true,
          "internalType": "address",
          "name": "newOwner",
          "type": "address"
        }
      ],
      "name": "OwnershipTransferred",
      "type": "event"
    },
    {
      "anonymous": false,
      "inputs": [
        {
          "indexed": true,
          "internalType": "uint32",
          "name": "drawId",
          "type": "uint32"
        },
        {
          "components": [
            {
              "internalType": "uint8",
              "name": "bitRangeSize",
              "type": "uint8"
            },
            {
              "internalType": "uint8",
              "name": "matchCardinality",
              "type": "uint8"
            },
            {
              "internalType": "uint32",
              "name": "startTimestampOffset",
              "type": "uint32"
            },
            {
              "internalType": "uint32",
              "name": "endTimestampOffset",
              "type": "uint32"
            },
            {
              "internalType": "uint32",
              "name": "maxPicksPerUser",
              "type": "uint32"
            },
            {
              "internalType": "uint32",
              "name": "expiryDuration",
              "type": "uint32"
            },
            {
              "internalType": "uint104",
              "name": "numberOfPicks",
              "type": "uint104"
            },
            {
              "internalType": "uint32[16]",
              "name": "tiers",
              "type": "uint32[16]"
            },
            {
              "internalType": "uint256",
              "name": "prize",
              "type": "uint256"
            }
          ],
          "indexed": false,
          "internalType": "struct IPrizeDistributionBuffer.PrizeDistribution",
          "name": "prizeDistribution",
          "type": "tuple"
        }
      ],
      "name": "PrizeDistributionSet",
      "type": "event"
    },
    {
      "inputs": [],
      "name": "claimOwnership",
      "outputs": [],
      "stateMutability": "nonpayable",
      "type": "function"
    },
    {
      "inputs": [],
      "name": "getBufferCardinality",
      "outputs": [
        {
          "internalType": "uint32",
          "name": "",
          "type": "uint32"
        }
      ],
      "stateMutability": "view",
      "type": "function"
    },
    {
      "inputs": [],
      "name": "getNewestPrizeDistribution",
      "outputs": [
        {
          "components": [
            {
              "internalType": "uint8",
              "name": "bitRangeSize",
              "type": "uint8"
            },
            {
              "internalType": "uint8",
              "name": "matchCardinality",
              "type": "uint8"
            },
            {
              "internalType": "uint32",
              "name": "startTimestampOffset",
              "type": "uint32"
            },
            {
              "internalType": "uint32",
              "name": "endTimestampOffset",
              "type": "uint32"
            },
            {
              "internalType": "uint32",
              "name": "maxPicksPerUser",
              "type": "uint32"
            },
            {
              "internalType": "uint32",
              "name": "expiryDuration",
              "type": "uint32"
            },
            {
              "internalType": "uint104",
              "name": "numberOfPicks",
              "type": "uint104"
            },
            {
              "internalType": "uint32[16]",
              "name": "tiers",
              "type": "uint32[16]"
            },
            {
              "internalType": "uint256",
              "name": "prize",
              "type": "uint256"
            }
          ],
          "internalType": "struct IPrizeDistributionBuffer.PrizeDistribution",
          "name": "prizeDistribution",
          "type": "tuple"
        },
        {
          "internalType": "uint32",
          "name": "drawId",
          "type": "uint32"
        }
      ],
      "stateMutability": "view",
      "type": "function"
    },
    {
      "inputs": [],
      "name": "getOldestPrizeDistribution",
      "outputs": [
        {
          "components": [
            {
              "internalType": "uint8",
              "name": "bitRangeSize",
              "type": "uint8"
            },
            {
              "internalType": "uint8",
              "name": "matchCardinality",
              "type": "uint8"
            },
            {
              "internalType": "uint32",
              "name": "startTimestampOffset",
              "type": "uint32"
            },
            {
              "internalType": "uint32",
              "name": "endTimestampOffset",
              "type": "uint32"
            },
            {
              "internalType": "uint32",
              "name": "maxPicksPerUser",
              "type": "uint32"
            },
            {
              "internalType": "uint32",
              "name": "expiryDuration",
              "type": "uint32"
            },
            {
              "internalType": "uint104",
              "name": "numberOfPicks",
              "type": "uint104"
            },
            {
              "internalType": "uint32[16]",
              "name": "tiers",
              "type": "uint32[16]"
            },
            {
              "internalType": "uint256",
              "name": "prize",
              "type": "uint256"
            }
          ],
          "internalType": "struct IPrizeDistributionBuffer.PrizeDistribution",
          "name": "prizeDistribution",
          "type": "tuple"
        },
        {
          "internalType": "uint32",
          "name": "drawId",
          "type": "uint32"
        }
      ],
      "stateMutability": "view",
      "type": "function"
    },
    {
      "inputs": [
        {
          "internalType": "uint32",
          "name": "_drawId",
          "type": "uint32"
        }
      ],
      "name": "getPrizeDistribution",
      "outputs": [
        {
          "components": [
            {
              "internalType": "uint8",
              "name": "bitRangeSize",
              "type": "uint8"
            },
            {
              "internalType": "uint8",
              "name": "matchCardinality",
              "type": "uint8"
            },
            {
              "internalType": "uint32",
              "name": "startTimestampOffset",
              "type": "uint32"
            },
            {
              "internalType": "uint32",
              "name": "endTimestampOffset",
              "type": "uint32"
            },
            {
              "internalType": "uint32",
              "name": "maxPicksPerUser",
              "type": "uint32"
            },
            {
              "internalType": "uint32",
              "name": "expiryDuration",
              "type": "uint32"
            },
            {
              "internalType": "uint104",
              "name": "numberOfPicks",
              "type": "uint104"
            },
            {
              "internalType": "uint32[16]",
              "name": "tiers",
              "type": "uint32[16]"
            },
            {
              "internalType": "uint256",
              "name": "prize",
              "type": "uint256"
            }
          ],
          "internalType": "struct IPrizeDistributionBuffer.PrizeDistribution",
          "name": "",
          "type": "tuple"
        }
      ],
      "stateMutability": "view",
      "type": "function"
    },
    {
      "inputs": [],
      "name": "getPrizeDistributionCount",
      "outputs": [
        {
          "internalType": "uint32",
          "name": "",
          "type": "uint32"
        }
      ],
      "stateMutability": "view",
      "type": "function"
    },
    {
      "inputs": [
        {
          "internalType": "uint32[]",
          "name": "_drawIds",
          "type": "uint32[]"
        }
      ],
      "name": "getPrizeDistributions",
      "outputs": [
        {
          "components": [
            {
              "internalType": "uint8",
              "name": "bitRangeSize",
              "type": "uint8"
            },
            {
              "internalType": "uint8",
              "name": "matchCardinality",
              "type": "uint8"
            },
            {
              "internalType": "uint32",
              "name": "startTimestampOffset",
              "type": "uint32"
            },
            {
              "internalType": "uint32",
              "name": "endTimestampOffset",
              "type": "uint32"
            },
            {
              "internalType": "uint32",
              "name": "maxPicksPerUser",
              "type": "uint32"
            },
            {
              "internalType": "uint32",
              "name": "expiryDuration",
              "type": "uint32"
            },
            {
              "internalType": "uint104",
              "name": "numberOfPicks",
              "type": "uint104"
            },
            {
              "internalType": "uint32[16]",
              "name": "tiers",
              "type": "uint32[16]"
            },
            {
              "internalType": "uint256",
              "name": "prize",
              "type": "uint256"
            }
          ],
          "internalType": "struct IPrizeDistributionBuffer.PrizeDistribution[]",
          "name": "",
          "type": "tuple[]"
        }
      ],
      "stateMutability": "view",
      "type": "function"
    },
    {
      "inputs": [],
      "name": "manager",
      "outputs": [
        {
          "internalType": "address",
          "name": "",
          "type": "address"
        }
      ],
      "stateMutability": "view",
      "type": "function"
    },
    {
      "inputs": [],
      "name": "owner",
      "outputs": [
        {
          "internalType": "address",
          "name": "",
          "type": "address"
        }
      ],
      "stateMutability": "view",
      "type": "function"
    },
    {
      "inputs": [],
      "name": "pendingOwner",
      "outputs": [
        {
          "internalType": "address",
          "name": "",
          "type": "address"
        }
      ],
      "stateMutability": "view",
      "type": "function"
    },
    {
      "inputs": [
        {
          "internalType": "uint32",
          "name": "_drawId",
          "type": "uint32"
        },
        {
          "components": [
            {
              "internalType": "uint8",
              "name": "bitRangeSize",
              "type": "uint8"
            },
            {
              "internalType": "uint8",
              "name": "matchCardinality",
              "type": "uint8"
            },
            {
              "internalType": "uint32",
              "name": "startTimestampOffset",
              "type": "uint32"
            },
            {
              "internalType": "uint32",
              "name": "endTimestampOffset",
              "type": "uint32"
            },
            {
              "internalType": "uint32",
              "name": "maxPicksPerUser",
              "type": "uint32"
            },
            {
              "internalType": "uint32",
              "name": "expiryDuration",
              "type": "uint32"
            },
            {
              "internalType": "uint104",
              "name": "numberOfPicks",
              "type": "uint104"
            },
            {
              "internalType": "uint32[16]",
              "name": "tiers",
              "type": "uint32[16]"
            },
            {
              "internalType": "uint256",
              "name": "prize",
              "type": "uint256"
            }
          ],
          "internalType": "struct IPrizeDistributionBuffer.PrizeDistribution",
          "name": "_prizeDistribution",
          "type": "tuple"
        }
      ],
      "name": "pushPrizeDistribution",
      "outputs": [
        {
          "internalType": "bool",
          "name": "",
          "type": "bool"
        }
      ],
      "stateMutability": "nonpayable",
      "type": "function"
    },
    {
      "inputs": [],
      "name": "renounceOwnership",
      "outputs": [],
      "stateMutability": "nonpayable",
      "type": "function"
    },
    {
      "inputs": [
        {
          "internalType": "address",
          "name": "_newManager",
          "type": "address"
        }
      ],
      "name": "setManager",
      "outputs": [
        {
          "internalType": "bool",
          "name": "",
          "type": "bool"
        }
      ],
      "stateMutability": "nonpayable",
      "type": "function"
    },
    {
      "inputs": [
        {
          "internalType": "uint32",
          "name": "_drawId",
          "type": "uint32"
        },
        {
          "components": [
            {
              "internalType": "uint8",
              "name": "bitRangeSize",
              "type": "uint8"
            },
            {
              "internalType": "uint8",
              "name": "matchCardinality",
              "type": "uint8"
            },
            {
              "internalType": "uint32",
              "name": "startTimestampOffset",
              "type": "uint32"
            },
            {
              "internalType": "uint32",
              "name": "endTimestampOffset",
              "type": "uint32"
            },
            {
              "internalType": "uint32",
              "name": "maxPicksPerUser",
              "type": "uint32"
            },
            {
              "internalType": "uint32",
              "name": "expiryDuration",
              "type": "uint32"
            },
            {
              "internalType": "uint104",
              "name": "numberOfPicks",
              "type": "uint104"
            },
            {
              "internalType": "uint32[16]",
              "name": "tiers",
              "type": "uint32[16]"
            },
            {
              "internalType": "uint256",
              "name": "prize",
              "type": "uint256"
            }
          ],
          "internalType": "struct IPrizeDistributionBuffer.PrizeDistribution",
          "name": "_prizeDistribution",
          "type": "tuple"
        }
      ],
      "name": "setPrizeDistribution",
      "outputs": [
        {
          "internalType": "uint32",
          "name": "",
          "type": "uint32"
        }
      ],
      "stateMutability": "nonpayable",
      "type": "function"
    },
    {
      "inputs": [
        {
          "internalType": "address",
          "name": "_newOwner",
          "type": "address"
        }
      ],
      "name": "transferOwnership",
      "outputs": [],
      "stateMutability": "nonpayable",
      "type": "function"
    }
  ],
  "transactionHash": "0xc81ae7aebb8eeb9cc710ff8534d6200c12c6bd76b994586fd6594475ba4d1f58",
  "args": [
    "0xE0F4217390221aF47855E094F6e112D43C8698fE",
    8
  ],
  "solcInputHash": "63e4553c950c1009cf8f3bc5aa0936fd",
  "bytecode": "0x60806040523480156200001157600080fd5b506040516200214f3803806200214f8339810160408190526200003491620000f2565b816200004081620000a2565b50610403805463ffffffff60401b191660ff8316680100000000000000008102919091179091556040519081527f7da7688769fade6088b3de366e63c95090bc5b0db6e9b43f043dee741d7544fe9060200160405180910390a1505062000141565b600080546001600160a01b038381166001600160a01b0319831681178455604051919092169283917f8be0079c531659141344cd1fd0a4f28419497f9722a3daafe3b4186f6b6457e09190a35050565b600080604083850312156200010657600080fd5b82516001600160a01b03811681146200011e57600080fd5b602084015190925060ff811681146200013657600080fd5b809150509250929050565b611ffe80620001516000396000f3fe608060405234801561001057600080fd5b50600436106100f55760003560e01c8063715018a611610097578063d0ebdbe711610066578063d0ebdbe7146101f3578063d30a5daf14610206578063e30c397814610226578063f2fde38b1461023757600080fd5b8063715018a6146101ac5780638da5cb5b146101b4578063caeef7ec146101c5578063ce336ce9146101e057600080fd5b806324c21446116100d357806324c21446146101555780633cd8e2d51461015d578063481c6a751461017d5780634e71e0c8146101a257600080fd5b80631124e1dc146100fa57806321e98ad9146101225780632439093a1461013f575b600080fd5b61010d6101083660046118bf565b61024a565b60405190151581526020015b60405180910390f35b61012a610317565b60405163ffffffff9091168152602001610119565b61014761039e565b604051610119929190611b78565b610147610671565b61017061016b3660046118a2565b610804565b6040516101199190611b69565b6002546001600160a01b03165b6040516001600160a01b039091168152602001610119565b6101aa610852565b005b6101aa6108e0565b6000546001600160a01b031661018a565b6104035468010000000000000000900463ffffffff1661012a565b61012a6101ee3660046118bf565b610955565b61010d6102013660046117fd565b610a84565b61021961021436600461182d565b610afd565b6040516101199190611a56565b6001546001600160a01b031661018a565b6101aa6102453660046117fd565b610c08565b60003361025f6002546001600160a01b031690565b6001600160a01b0316148061028d5750336102826000546001600160a01b031690565b6001600160a01b0316145b6103045760405162461bcd60e51b815260206004820152602660248201527f4d616e61676561626c652f63616c6c65722d6e6f742d6d616e616765722d6f7260448201527f2d6f776e6572000000000000000000000000000000000000000000000000000060648201526084015b60405180910390fd5b61030e8383610d44565b90505b92915050565b604080516060810182526104035463ffffffff80821680845264010000000083048216602085015268010000000000000000909204169282019290925260009161036357600091505090565b6020810151600363ffffffff8216610100811061038257610382611d1a565b6004020154610100900460ff1615610311575060400151919050565b6103a661176a565b604080516060810182526104035463ffffffff8082168352640100000000820481166020840181905268010000000000000000909204169282019290925260009160039061010081106103fb576103fb611d1a565b604080516101208101825260049290920292909201805460ff8082168452610100820416602084015262010000810463ffffffff9081168486015266010000000000008204811660608501526a01000000000000000000008204811660808501526e01000000000000000000000000000082041660a0840152720100000000000000000000000000000000000090046cffffffffffffffffffffffffff1660c083015282516102008101938490529192909160e08401916001840190601090826000855b82829054906101000a900463ffffffff1663ffffffff16815260200190600401906020826003010492830192600103820291508084116104bf5750505092845250505060039190910154602090910152815190935063ffffffff166105275760009150509091565b825160ff1661065f5760408051610120810182526003805460ff8082168452610100820416602084015263ffffffff62010000820481168486015266010000000000008204811660608501526a01000000000000000000008204811660808501526e01000000000000000000000000000082041660a08401526cffffffffffffffffffffffffff72010000000000000000000000000000000000009091041660c083015282516102008101938490529192909160e0840191600490601090826000855b82829054906101000a900463ffffffff1663ffffffff16815260200190600401906020826003010492830192600103820291508084116105ea575050509284525050506003919091015460209182015282015182519194509061064e906001611bb3565b6106589190611c13565b9150509091565b6040810151815161064e906001611bb3565b61067961176a565b604080516060810182526104035463ffffffff808216808452640100000000830482166020850152680100000000000000009092048116938301939093526000926003916106ca9184919061123616565b63ffffffff1661010081106106e1576106e1611d1a565b8251604080516101208101825260049390930293909301805460ff8082168552610100820416602085015262010000810463ffffffff9081168587015266010000000000008204811660608601526a01000000000000000000008204811660808601526e01000000000000000000000000000082041660a0850152720100000000000000000000000000000000000090046cffffffffffffffffffffffffff1660c084015283516102008101948590529093919291849160e08401916001840190601090826000855b82829054906101000a900463ffffffff1663ffffffff16815260200190600401906020826003010492830192600103820291508084116107aa57905050505050508152602001600382015481525050915092509250509091565b61080c61176a565b604080516060810182526104035463ffffffff80821683526401000000008204811660208401526801000000000000000090910416918101919091526103119083611366565b6001546001600160a01b031633146108ac5760405162461bcd60e51b815260206004820152601f60248201527f4f776e61626c652f63616c6c65722d6e6f742d70656e64696e674f776e65720060448201526064016102fb565b6001546108c1906001600160a01b03166114ac565b6001805473ffffffffffffffffffffffffffffffffffffffff19169055565b336108f36000546001600160a01b031690565b6001600160a01b0316146109495760405162461bcd60e51b815260206004820152601860248201527f4f776e61626c652f63616c6c65722d6e6f742d6f776e6572000000000000000060448201526064016102fb565b61095360006114ac565b565b60003361096a6000546001600160a01b031690565b6001600160a01b0316146109c05760405162461bcd60e51b815260206004820152601860248201527f4f776e61626c652f63616c6c65722d6e6f742d6f776e6572000000000000000060448201526064016102fb565b604080516060810182526104035463ffffffff80821683526401000000008204811660208401526801000000000000000090910481169282019290925290600090610a0f908390879061123616565b90508360038263ffffffff166101008110610a2c57610a2c611d1a565b60040201610a3a8282611d60565b9050508463ffffffff167f2d81da839b2f3db2ed762907f74df3acecdc30461dba4813694c225ba911e1f685604051610a739190611aa5565b60405180910390a250929392505050565b600033610a996000546001600160a01b031690565b6001600160a01b031614610aef5760405162461bcd60e51b815260206004820152601860248201527f4f776e61626c652f63616c6c65722d6e6f742d6f776e6572000000000000000060448201526064016102fb565b61031182611509565b919050565b60408051606081810183526104035463ffffffff8082168452640100000000820481166020850152680100000000000000009091041692820192909252829060008267ffffffffffffffff811115610b5757610b57611d30565b604051908082528060200260200182016040528015610b9057816020015b610b7d61176a565b815260200190600190039081610b755790505b50905060005b83811015610bfe57610bce83888884818110610bb457610bb4611d1a565b9050602002016020810190610bc991906118a2565b611366565b828281518110610be057610be0611d1a565b60200260200101819052508080610bf690611ca1565b915050610b96565b5095945050505050565b33610c1b6000546001600160a01b031690565b6001600160a01b031614610c715760405162461bcd60e51b815260206004820152601860248201527f4f776e61626c652f63616c6c65722d6e6f742d6f776e6572000000000000000060448201526064016102fb565b6001600160a01b038116610ced5760405162461bcd60e51b815260206004820152602560248201527f4f776e61626c652f70656e64696e674f776e65722d6e6f742d7a65726f2d616460448201527f647265737300000000000000000000000000000000000000000000000000000060648201526084016102fb565b6001805473ffffffffffffffffffffffffffffffffffffffff19166001600160a01b0383169081179091556040517f239a2ddded15777fa246aed5f7e1a9bc69a39d4eb4a397034d1d85766cca7d4c90600090a250565b6000808363ffffffff1611610d9b5760405162461bcd60e51b815260206004820152601560248201527f4472617743616c632f647261772d69642d67742d30000000000000000000000060448201526064016102fb565b6000610dad6040840160208501611920565b60ff1611610dfd5760405162461bcd60e51b815260206004820152601e60248201527f4472617743616c632f6d6174636843617264696e616c6974792d67742d30000060448201526064016102fb565b610e0d6040830160208401611920565b610e1c9060ff16610100611bdb565b61ffff16610e2d6020840184611920565b60ff161115610e7e5760405162461bcd60e51b815260206004820152601f60248201527f4472617743616c632f62697452616e676553697a652d746f6f2d6c617267650060448201526064016102fb565b6000610e8d6020840184611920565b60ff1611610edd5760405162461bcd60e51b815260206004820152601a60248201527f4472617743616c632f62697452616e676553697a652d67742d3000000000000060448201526064016102fb565b6000610eef60a08401608085016118a2565b63ffffffff1611610f425760405162461bcd60e51b815260206004820152601d60248201527f4472617743616c632f6d61785069636b73506572557365722d67742d3000000060448201526064016102fb565b6000610f5460c0840160a085016118a2565b63ffffffff1611610fa75760405162461bcd60e51b815260206004820152601c60248201527f4472617743616c632f6578706972794475726174696f6e2d67742d300000000060448201526064016102fb565b6000806010815b8181101561101b5760008660e0018260108110610fcd57610fcd611d1a565b602002016020810190610fe091906118a2565b63ffffffff169050610ff28186611b9b565b94508015611008578361100481611ca1565b9450505b508061101381611ca1565b915050610fae565b50633b9aca008311156110705760405162461bcd60e51b815260206004820152601660248201527f4472617743616c632f74696572732d67742d313030250000000000000000000060448201526064016102fb565b816110816040870160208801611920565b60ff1610156110f85760405162461bcd60e51b815260206004820152602360248201527f4472617743616c632f6d6174636843617264696e616c6974792d6774652d746960448201527f657273000000000000000000000000000000000000000000000000000000000060648201526084016102fb565b604080516060810182526104035463ffffffff80821683526401000000008204811660208401819052680100000000000000009092041692820192909252908690600390610100811061114d5761114d611d1a565b6004020161115b8282611d60565b50611168905081886115f5565b80516104038054602084015160409485015163ffffffff90811668010000000000000000027fffffffffffffffffffffffffffffffffffffffff00000000ffffffffffffffff928216640100000000027fffffffffffffffffffffffffffffffffffffffffffffffff00000000000000009094169582169590951792909217169290921790559051908816907f2d81da839b2f3db2ed762907f74df3acecdc30461dba4813694c225ba911e1f690611221908990611aa5565b60405180910390a25060019695505050505050565b6000611241836116e0565b801561125d5750826000015163ffffffff168263ffffffff1611155b6112a95760405162461bcd60e51b815260206004820152600f60248201527f4452422f6675747572652d64726177000000000000000000000000000000000060448201526064016102fb565b82516000906112b9908490611c13565b9050836040015163ffffffff168163ffffffff161061131a5760405162461bcd60e51b815260206004820152601060248201527f4452422f657870697265642d647261770000000000000000000000000000000060448201526064016102fb565b600061133a856020015163ffffffff16866040015163ffffffff16611708565b905061135d8163ffffffff168363ffffffff16876040015163ffffffff16611736565b95945050505050565b61136e61176a565b600361137a8484611236565b63ffffffff16610100811061139157611391611d1a565b604080516101208101825260049290920292909201805460ff8082168452610100820416602084015262010000810463ffffffff9081168486015266010000000000008204811660608501526a01000000000000000000008204811660808501526e01000000000000000000000000000082041660a0840152720100000000000000000000000000000000000090046cffffffffffffffffffffffffff1660c083015282516102008101938490529192909160e08401916001840190601090826000855b82829054906101000a900463ffffffff1663ffffffff168152602001906004019060208260030104928301926001038202915080841161145557905050505050508152602001600382015481525050905092915050565b600080546001600160a01b0383811673ffffffffffffffffffffffffffffffffffffffff19831681178455604051919092169283917f8be0079c531659141344cd1fd0a4f28419497f9722a3daafe3b4186f6b6457e09190a35050565b6002546000906001600160a01b039081169083168114156115925760405162461bcd60e51b815260206004820152602360248201527f4d616e61676561626c652f6578697374696e672d6d616e616765722d6164647260448201527f657373000000000000000000000000000000000000000000000000000000000060648201526084016102fb565b6002805473ffffffffffffffffffffffffffffffffffffffff19166001600160a01b0385811691821790925560405190918316907f9cb45c728de594dab506a1f1a8554e24c8eeaf983618d5ec5dd7bc6f3c49feee90600090a350600192915050565b604080516060810182526000808252602082018190529181019190915261161b836116e0565b158061163e5750825161162f906001611bb3565b63ffffffff168263ffffffff16145b61168a5760405162461bcd60e51b815260206004820152601260248201527f4452422f6d7573742d62652d636f6e746967000000000000000000000000000060448201526064016102fb565b60405180606001604052808363ffffffff1681526020016116bf856020015163ffffffff16866040015163ffffffff1661174e565b63ffffffff168152602001846040015163ffffffff16815250905092915050565b6000816020015163ffffffff1660001480156117015750815163ffffffff16155b1592915050565b60008161171757506000610311565b61030e60016117268486611b9b565b6117309190611bfc565b8361175e565b6000611746836117268487611b9b565b949350505050565b600061030e611730846001611b9b565b600061030e8284611cda565b6040805161012081018252600080825260208201819052918101829052606081018290526080810182905260a0810182905260c081019190915260e081016117b06117bd565b8152602001600081525090565b6040518061020001604052806010906020820280368337509192915050565b8035610af881611f89565b8035610af881611fa7565b8035610af881611fb9565b60006020828403121561180f57600080fd5b81356001600160a01b038116811461182657600080fd5b9392505050565b6000806020838503121561184057600080fd5b823567ffffffffffffffff8082111561185857600080fd5b818501915085601f83011261186c57600080fd5b81358181111561187b57600080fd5b8660208260051b850101111561189057600080fd5b60209290920196919550909350505050565b6000602082840312156118b457600080fd5b813561182681611fa7565b6000808284036103208112156118d457600080fd5b83356118df81611fa7565b92506103007fffffffffffffffffffffffffffffffffffffffffffffffffffffffffffffffe08201121561191257600080fd5b506020830190509250929050565b60006020828403121561193257600080fd5b813561182681611fb9565b8060005b601081101561197057813561195581611fa7565b63ffffffff1684526020938401939190910190600101611941565b50505050565b8060005b601081101561197057815163ffffffff1684526020938401939091019060010161197a565b60ff815116825260ff602082015116602083015260408101516119ca604084018263ffffffff169052565b5060608101516119e2606084018263ffffffff169052565b5060808101516119fa608084018263ffffffff169052565b5060a0810151611a1260a084018263ffffffff169052565b5060c0810151611a3360c08401826cffffffffffffffffffffffffff169052565b5060e0810151611a4660e0840182611976565b5061010001516102e09190910152565b6020808252825182820181905260009190848201906040850190845b81811015611a9957611a8583855161199f565b928401926103009290920191600101611a72565b50909695505050505050565b61030081018235611ab581611fb9565b60ff168252611ac6602084016117f2565b60ff166020830152611ada604084016117e7565b63ffffffff166040830152611af1606084016117e7565b63ffffffff166060830152611b08608084016117e7565b63ffffffff166080830152611b1f60a084016117e7565b63ffffffff1660a0830152611b3660c084016117dc565b6cffffffffffffffffffffffffff1660c0830152611b5a60e080840190850161193d565b6102e092830135919092015290565b6103008101610311828461199f565b6103208101611b87828561199f565b63ffffffff83166103008301529392505050565b60008219821115611bae57611bae611cee565b500190565b600063ffffffff808316818516808303821115611bd257611bd2611cee565b01949350505050565b600061ffff80841680611bf057611bf0611d04565b92169190910492915050565b600082821015611c0e57611c0e611cee565b500390565b600063ffffffff83811690831681811015611c3057611c30611cee565b039392505050565b81816000805b6010811015611c99578335611c5281611fa7565b835463ffffffff600385901b81811b801990931693909116901b1617835560209390930192600490910190601c821115611c9157600091506001830192505b600101611c3e565b505050505050565b60007fffffffffffffffffffffffffffffffffffffffffffffffffffffffffffffffff821415611cd357611cd3611cee565b5060010190565b600082611ce957611ce9611d04565b500690565b634e487b7160e01b600052601160045260246000fd5b634e487b7160e01b600052601260045260246000fd5b634e487b7160e01b600052603260045260246000fd5b634e487b7160e01b600052604160045260246000fd5b6000813561031181611f89565b6000813561031181611fa7565b8135611d6b81611fb9565b60ff811690508154817fffffffffffffffffffffffffffffffffffffffffffffffffffffffffffffff0082161783556020840135611da881611fb9565b61ff008160081b16837fffffffffffffffffffffffffffffffffffffffffffffffffffffffffffff0000841617178455505050611e21611dea60408401611d53565b82547fffffffffffffffffffffffffffffffffffffffffffffffffffff00000000ffff1660109190911b65ffffffff000016178255565b611e6b611e3060608401611d53565b82547fffffffffffffffffffffffffffffffffffffffffffff00000000ffffffffffff1660309190911b69ffffffff00000000000016178255565b611eb9611e7a60808401611d53565b82547fffffffffffffffffffffffffffffffffffff00000000ffffffffffffffffffff1660509190911b6dffffffff0000000000000000000016178255565b611f0b611ec860a08401611d53565b82547fffffffffffffffffffffffffffff00000000ffffffffffffffffffffffffffff1660709190911b71ffffffff000000000000000000000000000016178255565b611f6a611f1a60c08401611d46565b82547fff00000000000000000000000000ffffffffffffffffffffffffffffffffffff1660909190911b7effffffffffffffffffffffffff00000000000000000000000000000000000016178255565b611f7a60e0830160018301611c38565b6102e082013560038201555050565b6cffffffffffffffffffffffffff81168114611fa457600080fd5b50565b63ffffffff81168114611fa457600080fd5b60ff81168114611fa457600080fdfea2646970667358221220476fe6474ca7667c427a12137e52b0ddf49c41d4bbc7b9741307a483800c012f64736f6c63430008060033",
  "devdoc": {
    "author": "PoolTogether Inc Team",
    "events": {
      "Deployed(uint8)": {
        "params": {
          "cardinality": "The maximum number of records in the buffer before they begin to expire."
        }
      }
    },
    "kind": "dev",
    "methods": {
      "claimOwnership()": {
        "details": "This function is only callable by the `_pendingOwner`."
      },
      "constructor": {
        "params": {
          "_cardinality": "Cardinality of the `bufferMetadata`",
          "_owner": "Address of the PrizeDistributionBuffer owner"
        }
      },
      "getBufferCardinality()": {
        "returns": {
          "_0": "Ring buffer cardinality"
        }
      },
      "getNewestPrizeDistribution()": {
        "details": "Uses nextDrawIndex to calculate the most recently added PrizeDistribution.",
        "returns": {
          "drawId": "drawId",
          "prizeDistribution": "prizeDistribution"
        }
      },
      "getOldestPrizeDistribution()": {
        "details": "Finds the oldest Draw by buffer.nextIndex and buffer.lastDrawId",
        "returns": {
          "drawId": "drawId",
          "prizeDistribution": "prizeDistribution"
        }
      },
      "getPrizeDistribution(uint32)": {
        "params": {
          "drawId": "drawId"
        },
        "returns": {
          "_0": "prizeDistribution"
        }
      },
      "getPrizeDistributionCount()": {
        "details": "If no Draws have been pushed, it will return 0.If the ring buffer is full, it will return the cardinality.Otherwise, it will return the NewestPrizeDistribution index + 1.",
        "returns": {
          "_0": "Number of PrizeDistributions stored in the prize distributions ring buffer."
        }
      },
      "getPrizeDistributions(uint32[])": {
        "params": {
          "drawIds": "drawIds to get PrizeDistribution for"
        },
        "returns": {
          "_0": "prizeDistributionList"
        }
      },
      "manager()": {
        "returns": {
          "_0": "Current `_manager` address."
        }
      },
      "pendingOwner()": {
        "returns": {
          "_0": "Current `_pendingOwner` address."
        }
      },
      "pushPrizeDistribution(uint32,(uint8,uint8,uint32,uint32,uint32,uint32,uint104,uint32[16],uint256))": {
        "details": "Only callable by the owner or manager",
        "params": {
          "drawId": "Draw ID linked to PrizeDistribution parameters",
          "prizeDistribution": "PrizeDistribution parameters struct"
        }
      },
      "renounceOwnership()": {
        "details": "Leaves the contract without owner. It will not be possible to call `onlyOwner` functions anymore. Can only be called by the current owner. NOTE: Renouncing ownership will leave the contract without an owner, thereby removing any functionality that is only available to the owner."
      },
      "setManager(address)": {
        "details": "Throws if called by any account other than the owner.",
        "params": {
          "_newManager": "New _manager address."
        },
        "returns": {
          "_0": "Boolean to indicate if the operation was successful or not."
        }
      },
      "setPrizeDistribution(uint32,(uint8,uint8,uint32,uint32,uint32,uint32,uint104,uint32[16],uint256))": {
        "details": "Retroactively updates an existing PrizeDistribution and should be thought of as a \"safety\" fallback. If the manager is setting invalid PrizeDistribution parameters the Owner can update the invalid parameters with correct parameters.",
        "returns": {
          "_0": "drawId"
        }
      },
      "transferOwnership(address)": {
        "params": {
          "_newOwner": "Address to transfer ownership to."
        }
      }
    },
    "stateVariables": {
      "MAX_CARDINALITY": {
        "details": "even with daily draws, 256 will give us over 8 months of history."
      },
      "TIERS_CEILING": {
        "details": "It's fixed point 9 because 1e9 is the largest \"1\" that fits into 2**32"
      }
    },
    "title": "PoolTogether V4 PrizeDistributionBuffer",
    "version": 1
  },
  "userdoc": {
    "events": {
      "Deployed(uint8)": {
        "notice": "Emitted when the contract is deployed."
      },
      "PrizeDistributionSet(uint32,(uint8,uint8,uint32,uint32,uint32,uint32,uint104,uint32[16],uint256))": {
        "notice": "Emit when PrizeDistribution is set."
      }
    },
    "kind": "user",
    "methods": {
      "claimOwnership()": {
        "notice": "Allows the `_pendingOwner` address to finalize the transfer."
      },
      "constructor": {
        "notice": "Constructor for PrizeDistributionBuffer"
      },
      "getBufferCardinality()": {
        "notice": "Read a ring buffer cardinality"
      },
      "getNewestPrizeDistribution()": {
        "notice": "Read newest PrizeDistribution from prize distributions ring buffer."
      },
      "getOldestPrizeDistribution()": {
        "notice": "Read oldest PrizeDistribution from prize distributions ring buffer."
      },
      "getPrizeDistribution(uint32)": {
        "notice": "Gets the PrizeDistributionBuffer for a drawId"
      },
      "getPrizeDistributionCount()": {
        "notice": "Gets the number of PrizeDistributions stored in the prize distributions ring buffer."
      },
      "getPrizeDistributions(uint32[])": {
        "notice": "Gets PrizeDistribution list from array of drawIds"
      },
      "manager()": {
        "notice": "Gets current `_manager`."
      },
      "owner()": {
        "notice": "Returns the address of the current owner."
      },
      "pendingOwner()": {
        "notice": "Gets current `_pendingOwner`."
      },
      "pushPrizeDistribution(uint32,(uint8,uint8,uint32,uint32,uint32,uint32,uint104,uint32[16],uint256))": {
        "notice": "Adds new PrizeDistribution record to ring buffer storage."
      },
      "renounceOwnership()": {
        "notice": "Renounce ownership of the contract."
      },
      "setManager(address)": {
        "notice": "Set or change of manager."
      },
      "setPrizeDistribution(uint32,(uint8,uint8,uint32,uint32,uint32,uint32,uint104,uint32[16],uint256))": {
        "notice": "Sets existing PrizeDistribution with new PrizeDistribution parameters in ring buffer storage."
      },
      "transferOwnership(address)": {
        "notice": "Allows current owner to set the `_pendingOwner` address."
      }
    },
    "notice": "The PrizeDistributionBuffer contract provides historical lookups of PrizeDistribution struct parameters (linked with a Draw ID) via a circular ring buffer. Historical PrizeDistribution parameters can be accessed on-chain using a drawId to calculate ring buffer storage slot. The PrizeDistribution parameters can be created by manager/owner and existing PrizeDistribution parameters can only be updated the owner. When adding a new PrizeDistribution basic sanity checks will be used to validate the incoming parameters.",
    "version": 1
  },
  "storageLayout": {
    "storage": [
      {
        "astId": 2866,
        "contract": "@pooltogether/v4-core/contracts/PrizeDistributionBuffer.sol:PrizeDistributionBuffer",
        "label": "_owner",
        "offset": 0,
        "slot": "0",
        "type": "t_address"
      },
      {
        "astId": 2868,
        "contract": "@pooltogether/v4-core/contracts/PrizeDistributionBuffer.sol:PrizeDistributionBuffer",
        "label": "_pendingOwner",
        "offset": 0,
        "slot": "1",
        "type": "t_address"
      },
      {
        "astId": 2764,
        "contract": "@pooltogether/v4-core/contracts/PrizeDistributionBuffer.sol:PrizeDistributionBuffer",
        "label": "_manager",
        "offset": 0,
        "slot": "2",
        "type": "t_address"
      },
      {
        "astId": 5563,
        "contract": "@pooltogether/v4-core/contracts/PrizeDistributionBuffer.sol:PrizeDistributionBuffer",
        "label": "prizeDistributionRingBuffer",
        "offset": 0,
        "slot": "3",
        "type": "t_array(t_struct(PrizeDistribution)8284_storage)256_storage"
      },
      {
        "astId": 5567,
        "contract": "@pooltogether/v4-core/contracts/PrizeDistributionBuffer.sol:PrizeDistributionBuffer",
        "label": "bufferMetadata",
        "offset": 0,
        "slot": "1027",
        "type": "t_struct(Buffer)9086_storage"
      }
    ],
    "types": {
      "t_address": {
        "encoding": "inplace",
        "label": "address",
        "numberOfBytes": "20"
      },
      "t_array(t_struct(PrizeDistribution)8284_storage)256_storage": {
        "base": "t_struct(PrizeDistribution)8284_storage",
        "encoding": "inplace",
        "label": "struct IPrizeDistributionBuffer.PrizeDistribution[256]",
        "numberOfBytes": "32768"
      },
      "t_array(t_uint32)16_storage": {
        "base": "t_uint32",
        "encoding": "inplace",
        "label": "uint32[16]",
        "numberOfBytes": "64"
      },
      "t_struct(Buffer)9086_storage": {
        "encoding": "inplace",
        "label": "struct DrawRingBufferLib.Buffer",
        "members": [
          {
            "astId": 9081,
            "contract": "@pooltogether/v4-core/contracts/PrizeDistributionBuffer.sol:PrizeDistributionBuffer",
            "label": "lastDrawId",
            "offset": 0,
            "slot": "0",
            "type": "t_uint32"
          },
          {
            "astId": 9083,
            "contract": "@pooltogether/v4-core/contracts/PrizeDistributionBuffer.sol:PrizeDistributionBuffer",
            "label": "nextIndex",
            "offset": 4,
            "slot": "0",
            "type": "t_uint32"
          },
          {
            "astId": 9085,
            "contract": "@pooltogether/v4-core/contracts/PrizeDistributionBuffer.sol:PrizeDistributionBuffer",
            "label": "cardinality",
            "offset": 8,
            "slot": "0",
            "type": "t_uint32"
          }
        ],
        "numberOfBytes": "32"
      },
      "t_struct(PrizeDistribution)8284_storage": {
        "encoding": "inplace",
        "label": "struct IPrizeDistributionBuffer.PrizeDistribution",
        "members": [
          {
            "astId": 8265,
            "contract": "@pooltogether/v4-core/contracts/PrizeDistributionBuffer.sol:PrizeDistributionBuffer",
            "label": "bitRangeSize",
            "offset": 0,
            "slot": "0",
            "type": "t_uint8"
          },
          {
            "astId": 8267,
            "contract": "@pooltogether/v4-core/contracts/PrizeDistributionBuffer.sol:PrizeDistributionBuffer",
            "label": "matchCardinality",
            "offset": 1,
            "slot": "0",
            "type": "t_uint8"
          },
          {
            "astId": 8269,
            "contract": "@pooltogether/v4-core/contracts/PrizeDistributionBuffer.sol:PrizeDistributionBuffer",
            "label": "startTimestampOffset",
            "offset": 2,
            "slot": "0",
            "type": "t_uint32"
          },
          {
            "astId": 8271,
            "contract": "@pooltogether/v4-core/contracts/PrizeDistributionBuffer.sol:PrizeDistributionBuffer",
            "label": "endTimestampOffset",
            "offset": 6,
            "slot": "0",
            "type": "t_uint32"
          },
          {
            "astId": 8273,
            "contract": "@pooltogether/v4-core/contracts/PrizeDistributionBuffer.sol:PrizeDistributionBuffer",
            "label": "maxPicksPerUser",
            "offset": 10,
            "slot": "0",
            "type": "t_uint32"
          },
          {
            "astId": 8275,
            "contract": "@pooltogether/v4-core/contracts/PrizeDistributionBuffer.sol:PrizeDistributionBuffer",
            "label": "expiryDuration",
            "offset": 14,
            "slot": "0",
            "type": "t_uint32"
          },
          {
            "astId": 8277,
            "contract": "@pooltogether/v4-core/contracts/PrizeDistributionBuffer.sol:PrizeDistributionBuffer",
            "label": "numberOfPicks",
            "offset": 18,
            "slot": "0",
            "type": "t_uint104"
          },
          {
            "astId": 8281,
            "contract": "@pooltogether/v4-core/contracts/PrizeDistributionBuffer.sol:PrizeDistributionBuffer",
            "label": "tiers",
            "offset": 0,
            "slot": "1",
            "type": "t_array(t_uint32)16_storage"
          },
          {
            "astId": 8283,
            "contract": "@pooltogether/v4-core/contracts/PrizeDistributionBuffer.sol:PrizeDistributionBuffer",
            "label": "prize",
            "offset": 0,
            "slot": "3",
            "type": "t_uint256"
          }
        ],
        "numberOfBytes": "128"
      },
      "t_uint104": {
        "encoding": "inplace",
        "label": "uint104",
        "numberOfBytes": "13"
      },
      "t_uint256": {
        "encoding": "inplace",
        "label": "uint256",
        "numberOfBytes": "32"
      },
      "t_uint32": {
        "encoding": "inplace",
        "label": "uint32",
        "numberOfBytes": "4"
      },
      "t_uint8": {
        "encoding": "inplace",
        "label": "uint8",
        "numberOfBytes": "1"
      }
    }
  }
}