{
  "address": "0xcbCb820ac2d799c928cAeF975Bc5Cda8956d151F",
  "abi": [
    {
      "inputs": [
        {
          "internalType": "address",
          "name": "_owner",
          "type": "address"
        },
        {
          "internalType": "uint8",
          "name": "_cardinality",
          "type": "uint8"
        }
      ],
      "stateMutability": "nonpayable",
      "type": "constructor"
    },
    {
      "anonymous": false,
      "inputs": [
        {
          "indexed": false,
          "internalType": "uint8",
          "name": "cardinality",
          "type": "uint8"
        }
      ],
      "name": "Deployed",
      "type": "event"
    },
    {
      "anonymous": false,
      "inputs": [
        {
          "indexed": false,
          "internalType": "uint32",
          "name": "drawId",
          "type": "uint32"
        },
        {
          "indexed": false,
          "internalType": "uint32",
          "name": "timestamp",
          "type": "uint32"
        },
        {
          "indexed": false,
          "internalType": "uint256",
          "name": "winningRandomNumber",
          "type": "uint256"
        }
      ],
      "name": "DrawSet",
      "type": "event"
    },
    {
      "anonymous": false,
      "inputs": [
        {
          "indexed": true,
          "internalType": "uint32",
          "name": "drawId",
          "type": "uint32"
        },
        {
          "components": [
            {
              "internalType": "uint8",
              "name": "bitRangeSize",
              "type": "uint8"
            },
            {
              "internalType": "uint8",
              "name": "matchCardinality",
              "type": "uint8"
            },
            {
              "internalType": "uint32",
              "name": "startOffsetTimestamp",
              "type": "uint32"
            },
            {
              "internalType": "uint32",
              "name": "endOffsetTimestamp",
              "type": "uint32"
            },
            {
              "internalType": "uint32",
              "name": "maxPicksPerUser",
              "type": "uint32"
            },
            {
              "internalType": "uint136",
              "name": "numberOfPicks",
              "type": "uint136"
            },
            {
              "internalType": "uint32[]",
              "name": "distributions",
              "type": "uint32[]"
            },
            {
              "internalType": "uint256",
              "name": "prize",
              "type": "uint256"
            }
          ],
          "indexed": false,
          "internalType": "struct DrawLib.PrizeDistribution",
          "name": "drawSettings",
          "type": "tuple"
        }
      ],
      "name": "DrawSettingsSet",
      "type": "event"
    },
    {
      "anonymous": false,
      "inputs": [
        {
          "indexed": true,
          "internalType": "address",
          "name": "previousManager",
          "type": "address"
        },
        {
          "indexed": true,
          "internalType": "address",
          "name": "newManager",
          "type": "address"
        }
      ],
      "name": "ManagerTransferred",
      "type": "event"
    },
    {
      "anonymous": false,
      "inputs": [
        {
          "indexed": true,
          "internalType": "address",
          "name": "pendingOwner",
          "type": "address"
        }
      ],
      "name": "OwnershipOffered",
      "type": "event"
    },
    {
      "anonymous": false,
      "inputs": [
        {
          "indexed": true,
          "internalType": "address",
          "name": "previousOwner",
          "type": "address"
        },
        {
          "indexed": true,
          "internalType": "address",
          "name": "newOwner",
          "type": "address"
        }
      ],
      "name": "OwnershipTransferred",
      "type": "event"
    },
    {
      "inputs": [],
      "name": "claimOwnership",
      "outputs": [],
      "stateMutability": "nonpayable",
      "type": "function"
    },
    {
      "inputs": [
        {
          "internalType": "uint32",
          "name": "_drawId",
          "type": "uint32"
        }
      ],
      "name": "getDrawSetting",
      "outputs": [
        {
          "components": [
            {
              "internalType": "uint8",
              "name": "bitRangeSize",
              "type": "uint8"
            },
            {
              "internalType": "uint8",
              "name": "matchCardinality",
              "type": "uint8"
            },
            {
              "internalType": "uint32",
              "name": "startOffsetTimestamp",
              "type": "uint32"
            },
            {
              "internalType": "uint32",
              "name": "endOffsetTimestamp",
              "type": "uint32"
            },
            {
              "internalType": "uint32",
              "name": "maxPicksPerUser",
              "type": "uint32"
            },
            {
              "internalType": "uint136",
              "name": "numberOfPicks",
              "type": "uint136"
            },
            {
              "internalType": "uint32[]",
              "name": "distributions",
              "type": "uint32[]"
            },
            {
              "internalType": "uint256",
              "name": "prize",
              "type": "uint256"
            }
          ],
          "internalType": "struct DrawLib.PrizeDistribution",
          "name": "",
          "type": "tuple"
        }
      ],
      "stateMutability": "view",
      "type": "function"
    },
    {
      "inputs": [
        {
          "internalType": "uint32[]",
          "name": "_drawIds",
          "type": "uint32[]"
        }
      ],
      "name": "getDrawSettings",
      "outputs": [
        {
          "components": [
            {
              "internalType": "uint8",
              "name": "bitRangeSize",
              "type": "uint8"
            },
            {
              "internalType": "uint8",
              "name": "matchCardinality",
              "type": "uint8"
            },
            {
              "internalType": "uint32",
              "name": "startOffsetTimestamp",
              "type": "uint32"
            },
            {
              "internalType": "uint32",
              "name": "endOffsetTimestamp",
              "type": "uint32"
            },
            {
              "internalType": "uint32",
              "name": "maxPicksPerUser",
              "type": "uint32"
            },
            {
              "internalType": "uint136",
              "name": "numberOfPicks",
              "type": "uint136"
            },
            {
              "internalType": "uint32[]",
              "name": "distributions",
              "type": "uint32[]"
            },
            {
              "internalType": "uint256",
              "name": "prize",
              "type": "uint256"
            }
          ],
          "internalType": "struct DrawLib.PrizeDistribution[]",
          "name": "",
          "type": "tuple[]"
        }
      ],
      "stateMutability": "view",
      "type": "function"
    },
    {
      "inputs": [],
      "name": "getNewestDrawSettings",
      "outputs": [
        {
          "components": [
            {
              "internalType": "uint8",
              "name": "bitRangeSize",
              "type": "uint8"
            },
            {
              "internalType": "uint8",
              "name": "matchCardinality",
              "type": "uint8"
            },
            {
              "internalType": "uint32",
              "name": "startOffsetTimestamp",
              "type": "uint32"
            },
            {
              "internalType": "uint32",
              "name": "endOffsetTimestamp",
              "type": "uint32"
            },
            {
              "internalType": "uint32",
              "name": "maxPicksPerUser",
              "type": "uint32"
            },
            {
              "internalType": "uint136",
              "name": "numberOfPicks",
              "type": "uint136"
            },
            {
              "internalType": "uint32[]",
              "name": "distributions",
              "type": "uint32[]"
            },
            {
              "internalType": "uint256",
              "name": "prize",
              "type": "uint256"
            }
          ],
          "internalType": "struct DrawLib.PrizeDistribution",
          "name": "drawSettings",
          "type": "tuple"
        },
        {
          "internalType": "uint32",
          "name": "drawId",
          "type": "uint32"
        }
      ],
      "stateMutability": "view",
      "type": "function"
    },
    {
      "inputs": [],
      "name": "getOldestDrawSettings",
      "outputs": [
        {
          "components": [
            {
              "internalType": "uint8",
              "name": "bitRangeSize",
              "type": "uint8"
            },
            {
              "internalType": "uint8",
              "name": "matchCardinality",
              "type": "uint8"
            },
            {
              "internalType": "uint32",
              "name": "startOffsetTimestamp",
              "type": "uint32"
            },
            {
              "internalType": "uint32",
              "name": "endOffsetTimestamp",
              "type": "uint32"
            },
            {
              "internalType": "uint32",
              "name": "maxPicksPerUser",
              "type": "uint32"
            },
            {
              "internalType": "uint136",
              "name": "numberOfPicks",
              "type": "uint136"
            },
            {
              "internalType": "uint32[]",
              "name": "distributions",
              "type": "uint32[]"
            },
            {
              "internalType": "uint256",
              "name": "prize",
              "type": "uint256"
            }
          ],
          "internalType": "struct DrawLib.PrizeDistribution",
          "name": "drawSettings",
          "type": "tuple"
        },
        {
          "internalType": "uint32",
          "name": "drawId",
          "type": "uint32"
        }
      ],
      "stateMutability": "view",
      "type": "function"
    },
    {
      "inputs": [],
      "name": "manager",
      "outputs": [
        {
          "internalType": "address",
          "name": "",
          "type": "address"
        }
      ],
      "stateMutability": "view",
      "type": "function"
    },
    {
      "inputs": [],
      "name": "owner",
      "outputs": [
        {
          "internalType": "address",
          "name": "",
          "type": "address"
        }
      ],
      "stateMutability": "view",
      "type": "function"
    },
    {
      "inputs": [],
      "name": "pendingOwner",
      "outputs": [
        {
          "internalType": "address",
          "name": "",
          "type": "address"
        }
      ],
      "stateMutability": "view",
      "type": "function"
    },
    {
      "inputs": [
        {
          "internalType": "uint32",
          "name": "_drawId",
          "type": "uint32"
        },
        {
          "components": [
            {
              "internalType": "uint8",
              "name": "bitRangeSize",
              "type": "uint8"
            },
            {
              "internalType": "uint8",
              "name": "matchCardinality",
              "type": "uint8"
            },
            {
              "internalType": "uint32",
              "name": "startOffsetTimestamp",
              "type": "uint32"
            },
            {
              "internalType": "uint32",
              "name": "endOffsetTimestamp",
              "type": "uint32"
            },
            {
              "internalType": "uint32",
              "name": "maxPicksPerUser",
              "type": "uint32"
            },
            {
              "internalType": "uint136",
              "name": "numberOfPicks",
              "type": "uint136"
            },
            {
              "internalType": "uint32[]",
              "name": "distributions",
              "type": "uint32[]"
            },
            {
              "internalType": "uint256",
              "name": "prize",
              "type": "uint256"
            }
          ],
          "internalType": "struct DrawLib.PrizeDistribution",
          "name": "_drawSettings",
          "type": "tuple"
        }
      ],
      "name": "pushDrawSettings",
      "outputs": [
        {
          "internalType": "bool",
          "name": "",
          "type": "bool"
        }
      ],
      "stateMutability": "nonpayable",
      "type": "function"
    },
    {
      "inputs": [],
      "name": "renounceOwnership",
      "outputs": [],
      "stateMutability": "nonpayable",
      "type": "function"
    },
    {
      "inputs": [
        {
          "internalType": "uint32",
          "name": "_drawId",
          "type": "uint32"
        },
        {
          "components": [
            {
              "internalType": "uint8",
              "name": "bitRangeSize",
              "type": "uint8"
            },
            {
              "internalType": "uint8",
              "name": "matchCardinality",
              "type": "uint8"
            },
            {
              "internalType": "uint32",
              "name": "startOffsetTimestamp",
              "type": "uint32"
            },
            {
              "internalType": "uint32",
              "name": "endOffsetTimestamp",
              "type": "uint32"
            },
            {
              "internalType": "uint32",
              "name": "maxPicksPerUser",
              "type": "uint32"
            },
            {
              "internalType": "uint136",
              "name": "numberOfPicks",
              "type": "uint136"
            },
            {
              "internalType": "uint32[]",
              "name": "distributions",
              "type": "uint32[]"
            },
            {
              "internalType": "uint256",
              "name": "prize",
              "type": "uint256"
            }
          ],
          "internalType": "struct DrawLib.PrizeDistribution",
          "name": "_drawSettings",
          "type": "tuple"
        }
      ],
      "name": "setDrawSetting",
      "outputs": [
        {
          "internalType": "uint32",
          "name": "",
          "type": "uint32"
        }
      ],
      "stateMutability": "nonpayable",
      "type": "function"
    },
    {
      "inputs": [
        {
          "internalType": "address",
          "name": "_newManager",
          "type": "address"
        }
      ],
      "name": "setManager",
      "outputs": [
        {
          "internalType": "bool",
          "name": "",
          "type": "bool"
        }
      ],
      "stateMutability": "nonpayable",
      "type": "function"
    },
    {
      "inputs": [
        {
          "internalType": "address",
          "name": "_newOwner",
          "type": "address"
        }
      ],
      "name": "transferOwnership",
      "outputs": [],
      "stateMutability": "nonpayable",
      "type": "function"
    }
  ],
  "transactionHash": "0xb74191587a60e778840c2cd8f6288301dd15e8433e978613abc5986b73cddfb1",
  "args": [
    "0x94996399E8c5667f377460D0f3A5037BfC6c1275",
    8
  ],
  "solcInputHash": "9708f009c357312991df75253b2932ee",
  "bytecode": "0x60806040523480156200001157600080fd5b50604051620021fc380380620021fc8339810160408190526200003491620000f2565b816200004081620000a2565b50610303805463ffffffff60401b191660ff8316680100000000000000008102919091179091556040519081527f7da7688769fade6088b3de366e63c95090bc5b0db6e9b43f043dee741d7544fe9060200160405180910390a1505062000141565b600080546001600160a01b038381166001600160a01b0319831681178455604051919092169283917f8be0079c531659141344cd1fd0a4f28419497f9722a3daafe3b4186f6b6457e09190a35050565b600080604083850312156200010657600080fd5b82516001600160a01b03811681146200011e57600080fd5b602084015190925060ff811681146200013657600080fd5b809150509250929050565b6120ab80620001516000396000f3fe608060405234801561001057600080fd5b50600436106100df5760003560e01c80638da5cb5b1161008c578063d0ebdbe711610066578063d0ebdbe7146101d6578063db8172b9146101e9578063e30c3978146101f1578063f2fde38b1461020257600080fd5b80638da5cb5b146101855780639fde0ae714610196578063a72cdf4e146101b657600080fd5b80635676460d116100bd5780635676460d14610132578063607f004114610155578063715018a61461017d57600080fd5b806315e4a556146100e4578063481c6a75146101035780634e71e0c814610128575b600080fd5b6100ec610215565b6040516100fa929190611b4e565b60405180910390f35b6002546001600160a01b03165b6040516001600160a01b0390911681526020016100fa565b6101306103eb565b005b61014561014036600461184a565b61047e565b60405190151581526020016100fa565b61016861016336600461184a565b610546565b60405163ffffffff90911681526020016100fa565b610130610675565b6000546001600160a01b0316610110565b6101a96101a43660046117b8565b6106ea565b6040516100fa91906119df565b6101c96101c436600461182d565b610827565b6040516100fa9190611b3b565b6101456101e4366004611788565b6108ad565b6100ec610926565b6001546001600160a01b0316610110565b610130610210366004611788565b610c4b565b604080516101008101825260008082526020820181905291810182905260608082018390526080820183905260a0820183905260c082015260e0810191909152604080516060810182526103035463ffffffff808216808452640100000000830482166020850152680100000000000000009092048116938301939093526000926003916102a691849190610d8716565b63ffffffff1661010081106102bd576102bd611e09565b825160408051610100808201835260039490940294909401805460ff808216875294810490941660208087019190915262010000850463ffffffff9081168785015266010000000000008604811660608801526a010000000000000000000086041660808701526e01000000000000000000000000000090940470ffffffffffffffffffffffffffffffffff1660a086015260018101805483518187028101870190945280845291959394869360c08601939092918301828280156103cd57602002820191906000526020600020906000905b82829054906101000a900463ffffffff1663ffffffff16815260200190600401906020826003010492830192600103820291508084116103905790505b50505050508152602001600282015481525050915092509250509091565b6001546001600160a01b0316331461044a5760405162461bcd60e51b815260206004820152601f60248201527f4f776e61626c652f63616c6c65722d6e6f742d70656e64696e674f776e65720060448201526064015b60405180910390fd5b60015461045f906001600160a01b0316610eb7565b6001805473ffffffffffffffffffffffffffffffffffffffff19169055565b6000336104936002546001600160a01b031690565b6001600160a01b031614806104c15750336104b66000546001600160a01b031690565b6001600160a01b0316145b6105335760405162461bcd60e51b815260206004820152602660248201527f4d616e61676561626c652f63616c6c65722d6e6f742d6d616e616765722d6f7260448201527f2d6f776e657200000000000000000000000000000000000000000000000000006064820152608401610441565b61053d8383610f14565b90505b92915050565b60003361055b6000546001600160a01b031690565b6001600160a01b0316146105b15760405162461bcd60e51b815260206004820152601860248201527f4f776e61626c652f63616c6c65722d6e6f742d6f776e657200000000000000006044820152606401610441565b604080516060810182526103035463ffffffff808216835264010000000082048116602084015268010000000000000000909104811692820192909252906000906106009083908790610d8716565b90508360038263ffffffff16610100811061061d5761061d611e09565b6003020161062b8282611e4f565b9050508463ffffffff167f61200abe08d5c25d31be3414a153456b234dc32436a2b509d9e4c60c3136d7c3856040516106649190611a5f565b60405180910390a250929392505050565b336106886000546001600160a01b031690565b6001600160a01b0316146106de5760405162461bcd60e51b815260206004820152601860248201527f4f776e61626c652f63616c6c65722d6e6f742d6f776e657200000000000000006044820152606401610441565b6106e86000610eb7565b565b60408051606081810183526103035463ffffffff808216845264010000000082048116602085015268010000000000000000909104169282019290925260008367ffffffffffffffff81111561074257610742611e1f565b6040519080825280602002602001820160405280156107b057816020015b60408051610100810182526000808252602080830182905292820181905260608083018290526080830182905260a0830182905260c083015260e082015282526000199092019101816107605790505b50905060005b8481101561081e576107ee838787848181106107d4576107d4611e09565b90506020020160208101906107e9919061182d565b611379565b82828151811061080057610800611e09565b6020026020010181905250808061081690611dae565b9150506107b6565b50949350505050565b604080516101008101825260008082526020820181905291810182905260608082018390526080820183905260a0820183905260c082015260e0810191909152604080516060810182526103035463ffffffff80821683526401000000008204811660208401526801000000000000000090910416918101919091526105409083611379565b6000336108c26000546001600160a01b031690565b6001600160a01b0316146109185760405162461bcd60e51b815260206004820152601860248201527f4f776e61626c652f63616c6c65722d6e6f742d6f776e657200000000000000006044820152606401610441565b61054082611500565b919050565b604080516101008101825260008082526020820181905291810182905260608082018390526080820183905260a0820183905260c082015260e0810191909152604080516060810182526103035463ffffffff8082168352640100000000820481166020840181905268010000000000000000909204169282019290925260009160039061010081106109bb576109bb611e09565b60408051610100808201835260039390930293909301805460ff808216865293810490931660208086019190915262010000840463ffffffff9081168685015266010000000000008504811660608701526a010000000000000000000085041660808601526e01000000000000000000000000000090930470ffffffffffffffffffffffffffffffffff1660a0850152600181018054835181860281018601909452808452919360c08601939290830182828015610ac457602002820191906000526020600020906000905b82829054906101000a900463ffffffff1663ffffffff1681526020019060040190602082600301049283019260010382029150808411610a875790505b505050505081526020016002820154815250509250806000015163ffffffff1660001415610af55760009150509091565b825160ff16610c39576040805161010080820183526003805460ff808216855292810490921660208085019190915262010000830463ffffffff9081168587015266010000000000008404811660608601526a010000000000000000000084041660808501526e01000000000000000000000000000090920470ffffffffffffffffffffffffffffffffff1660a0840152600480548551818502810185019096528086529394919360c0860193830182828015610bfd57602002820191906000526020600020906000905b82829054906101000a900463ffffffff1663ffffffff1681526020019060040190602082600301049283019260010382029150808411610bc05790505b505050505081526020016002820154815250509250806020015181600001516001610c289190611c28565b610c329190611c88565b9150509091565b60408101518151610c28906001611c28565b33610c5e6000546001600160a01b031690565b6001600160a01b031614610cb45760405162461bcd60e51b815260206004820152601860248201527f4f776e61626c652f63616c6c65722d6e6f742d6f776e657200000000000000006044820152606401610441565b6001600160a01b038116610d305760405162461bcd60e51b815260206004820152602560248201527f4f776e61626c652f70656e64696e674f776e65722d6e6f742d7a65726f2d616460448201527f64726573730000000000000000000000000000000000000000000000000000006064820152608401610441565b6001805473ffffffffffffffffffffffffffffffffffffffff19166001600160a01b0383169081179091556040517f239a2ddded15777fa246aed5f7e1a9bc69a39d4eb4a397034d1d85766cca7d4c90600090a250565b6000610d92836115ec565b8015610dae5750826000015163ffffffff168263ffffffff1611155b610dfa5760405162461bcd60e51b815260206004820152600f60248201527f4452422f6675747572652d6472617700000000000000000000000000000000006044820152606401610441565b8251600090610e0a908490611c88565b9050836040015163ffffffff168163ffffffff1610610e6b5760405162461bcd60e51b815260206004820152601060248201527f4452422f657870697265642d64726177000000000000000000000000000000006044820152606401610441565b6000610e8b856020015163ffffffff16866040015163ffffffff16611614565b9050610eae8163ffffffff168363ffffffff16876040015163ffffffff16611644565b95945050505050565b600080546001600160a01b0383811673ffffffffffffffffffffffffffffffffffffffff19831681178455604051919092169283917f8be0079c531659141344cd1fd0a4f28419497f9722a3daafe3b4186f6b6457e09190a35050565b600080610f2460c0840184611b76565b91505063ffffffff8416610f7a5760405162461bcd60e51b815260206004820152601560248201527f4472617743616c632f647261772d69642d67742d3000000000000000000000006044820152606401610441565b80610f8b60408501602086016118a2565b60ff1610156110025760405162461bcd60e51b815260206004820152602b60248201527f4472617743616c632f6d6174636843617264696e616c6974792d6774652d646960448201527f73747269627574696f6e730000000000000000000000000000000000000000006064820152608401610441565b61101260408401602085016118a2565b6110219060ff16610100611c50565b61ffff1661103260208501856118a2565b60ff1611156110835760405162461bcd60e51b815260206004820152601f60248201527f4472617743616c632f62697452616e676553697a652d746f6f2d6c61726765006044820152606401610441565b600061109260208501856118a2565b60ff16116110e25760405162461bcd60e51b815260206004820152601a60248201527f4472617743616c632f62697452616e676553697a652d67742d300000000000006044820152606401610441565b60006110f460a085016080860161182d565b63ffffffff16116111475760405162461bcd60e51b815260206004820152601d60248201527f4472617743616c632f6d61785069636b73506572557365722d67742d300000006044820152606401610441565b6000805b828110156111a95761116060c0860186611b76565b8281811061117057611170611e09565b9050602002016020810190611185919061182d565b6111959063ffffffff1683611c10565b9150806111a181611dae565b91505061114b565b50633b9aca008111156111fe5760405162461bcd60e51b815260206004820152601e60248201527f4472617743616c632f646973747269627574696f6e732d67742d3130302500006044820152606401610441565b604080516060810182526103035463ffffffff80821683526401000000008204811660208401819052680100000000000000009092041692820192909252908590600390610100811061125357611253611e09565b600302016112618282611e4f565b5050604080516060810182526103035463ffffffff8082168352640100000000820481166020840152680100000000000000009091048116928201929092526112ac91889061166e16565b80516103038054602084015160409485015163ffffffff90811668010000000000000000027fffffffffffffffffffffffffffffffffffffffff00000000ffffffffffffffff928216640100000000027fffffffffffffffffffffffffffffffffffffffffffffffff00000000000000009094169582169590951792909217169290921790559051908716907f61200abe08d5c25d31be3414a153456b234dc32436a2b509d9e4c60c3136d7c390611365908890611a5f565b60405180910390a250600195945050505050565b604080516101008101825260008082526020820181905291810182905260608082018390526080820183905260a0820183905260c082015260e081019190915260036113c58484610d87565b63ffffffff1661010081106113dc576113dc611e09565b60408051610100808201835260039390930293909301805460ff808216865293810490931660208086019190915262010000840463ffffffff9081168685015266010000000000008504811660608701526a010000000000000000000085041660808601526e01000000000000000000000000000090930470ffffffffffffffffffffffffffffffffff1660a0850152600181018054835181860281018601909452808452919360c086019392908301828280156114e557602002820191906000526020600020906000905b82829054906101000a900463ffffffff1663ffffffff16815260200190600401906020826003010492830192600103820291508084116114a85790505b50505050508152602001600282015481525050905092915050565b6002546000906001600160a01b039081169083168114156115895760405162461bcd60e51b815260206004820152602360248201527f4d616e61676561626c652f6578697374696e672d6d616e616765722d6164647260448201527f65737300000000000000000000000000000000000000000000000000000000006064820152608401610441565b6002805473ffffffffffffffffffffffffffffffffffffffff19166001600160a01b0385811691821790925560405190918316907f9cb45c728de594dab506a1f1a8554e24c8eeaf983618d5ec5dd7bc6f3c49feee90600090a350600192915050565b6000816020015163ffffffff16600014801561160d5750815163ffffffff16155b1592915050565b60008161162357506000610540565b8160016116308286611c10565b61163a9190611c71565b61053d9190611dc9565b600081836116528287611c10565b61165c9190611c71565b6116669190611dc9565b949350505050565b6040805160608101825260008082526020820181905291810191909152611694836115ec565b15806116b7575082516116a8906001611c28565b63ffffffff168263ffffffff16145b6117035760405162461bcd60e51b815260206004820152601260248201527f4452422f6d7573742d62652d636f6e74696700000000000000000000000000006044820152606401610441565b60405180606001604052808363ffffffff168152602001611738856020015163ffffffff16866040015163ffffffff16611759565b63ffffffff168152602001846040015163ffffffff16815250905092915050565b60008161163a846001611c10565b803561092181612032565b803561092181612054565b803561092181612066565b60006020828403121561179a57600080fd5b81356001600160a01b03811681146117b157600080fd5b9392505050565b600080602083850312156117cb57600080fd5b823567ffffffffffffffff808211156117e357600080fd5b818501915085601f8301126117f757600080fd5b81358181111561180657600080fd5b8660208260051b850101111561181b57600080fd5b60209290920196919550909350505050565b60006020828403121561183f57600080fd5b81356117b181612054565b6000806040838503121561185d57600080fd5b823561186881612054565b9150602083013567ffffffffffffffff81111561188457600080fd5b8301610100818603121561189757600080fd5b809150509250929050565b6000602082840312156118b457600080fd5b81356117b181612066565b8183526000602080850194508260005b858110156118fa5781356118e281612054565b63ffffffff16875295820195908201906001016118cf565b509495945050505050565b600081518084526020808501945080840160005b838110156118fa57815163ffffffff1687529582019590820190600101611919565b600061010060ff835116845260ff6020840151166020850152604083015163ffffffff80821660408701528060608601511660608701525050608083015161198b608086018263ffffffff169052565b5060a08301516119b060a086018270ffffffffffffffffffffffffffffffffff169052565b5060c08301518160c08601526119c882860182611905565b91505060e083015160e08501528091505092915050565b6000602080830181845280855180835260408601915060408160051b870101925083870160005b82811015611a52577fffffffffffffffffffffffffffffffffffffffffffffffffffffffffffffffc0888603018452611a4085835161193b565b94509285019290850190600101611a06565b5092979650505050505050565b6020815260008235611a7081612066565b60ff8116602084015250611a866020840161177d565b60ff8116604084015250611a9c60408401611772565b63ffffffff8116606084015250611ab560608401611772565b63ffffffff8116608084015250611ace60808401611772565b63ffffffff811660a084015250611ae760a08401611767565b70ffffffffffffffffffffffffffffffffff811660c084015250611b0e60c0840184611bc7565b6101008060e0860152611b26610120860183856118bf565b60e09690960135940193909352509192915050565b60208152600061053d602083018461193b565b604081526000611b61604083018561193b565b905063ffffffff831660208301529392505050565b6000808335601e19843603018112611b8d57600080fd5b83018035915067ffffffffffffffff821115611ba857600080fd5b6020019150600581901b3603821315611bc057600080fd5b9250929050565b6000808335601e19843603018112611bde57600080fd5b830160208101925035905067ffffffffffffffff811115611bfe57600080fd5b8060051b3603831315611bc057600080fd5b60008219821115611c2357611c23611ddd565b500190565b600063ffffffff808316818516808303821115611c4757611c47611ddd565b01949350505050565b600061ffff80841680611c6557611c65611df3565b92169190910492915050565b600082821015611c8357611c83611ddd565b500390565b600063ffffffff83811690831681811015611ca557611ca5611ddd565b039392505050565b68010000000000000000831115611cd457634e487b7160e01b600052604160045260246000fd5b805483825580841015611d3b576000828152602081206007860160031c81016007840160031c82019150601c8760021b168015611d22576000198083018054828460200360031b1c16815550505b505b81811015611d3757828155600101611d24565b5050505b506000818152602081208391805b86811015611da557611d7d611d5d85611e42565b845463ffffffff600386901b81811b801990931693909116901b16178455565b602084019350600482019150601c821115611d9d57600091506001830192505b600101611d49565b50505050505050565b6000600019821415611dc257611dc2611ddd565b5060010190565b600082611dd857611dd8611df3565b500690565b634e487b7160e01b600052601160045260246000fd5b634e487b7160e01b600052601260045260246000fd5b634e487b7160e01b600052603260045260246000fd5b634e487b7160e01b600052604160045260246000fd5b6000813561054081612032565b6000813561054081612054565b8135611e5a81612066565b60ff811690508154817fffffffffffffffffffffffffffffffffffffffffffffffffffffffffffffff0082161783556020840135611e9781612066565b61ff008160081b16837fffffffffffffffffffffffffffffffffffffffffffffffffffffffffffff0000841617178455505050611f10611ed960408401611e42565b82547fffffffffffffffffffffffffffffffffffffffffffffffffffff00000000ffff1660109190911b65ffffffff000016178255565b611f5a611f1f60608401611e42565b82547fffffffffffffffffffffffffffffffffffffffffffff00000000ffffffffffff1660309190911b69ffffffff00000000000016178255565b611fa8611f6960808401611e42565b82547fffffffffffffffffffffffffffffffffffff00000000ffffffffffffffffffff1660509190911b6dffffffff0000000000000000000016178255565b612007611fb760a08401611e35565b82547fff0000000000000000000000000000000000ffffffffffffffffffffffffffff1660709190911b7effffffffffffffffffffffffffffffffff000000000000000000000000000016178255565b61201460c0830183611b76565b612022818360018601611cad565b505060e082013560028201555050565b70ffffffffffffffffffffffffffffffffff8116811461205157600080fd5b50565b63ffffffff8116811461205157600080fd5b60ff8116811461205157600080fdfea26469706673582212208075fed0cd5c6191207b1721282698cf49e0d8a9599cc7447875f976e5168fa464736f6c63430008060033",
  "devdoc": {
    "author": "PoolTogether Inc Team",
    "kind": "dev",
    "methods": {
      "claimOwnership()": {
        "details": "This function is only callable by the `_pendingOwner`."
      },
      "constructor": {
        "params": {
          "_cardinality": "Cardinality of the `drawSettingsRingBufferData`",
          "_owner": "Address of the PrizeDistributionHistory owner"
        }
      },
      "getDrawSetting(uint32)": {
        "params": {
          "drawId": "Draw.drawId"
        }
      },
      "getDrawSettings(uint32[])": {
        "params": {
          "drawIds": "Draw.drawId"
        }
      },
      "getNewestDrawSettings()": {
        "details": "Uses the nextDrawIndex to calculate the most recently added Draw.",
        "returns": {
          "drawId": "Draw.drawId",
          "drawSettings": "DrawLib.PrizeDistribution"
        }
      },
      "getOldestDrawSettings()": {
        "details": "Finds the oldest Draw by buffer.nextIndex and buffer.lastDrawId",
        "returns": {
          "drawId": "Draw.drawId",
          "drawSettings": "DrawLib.PrizeDistribution"
        }
      },
      "manager()": {
        "returns": {
          "_0": "Current `_manager` address."
        }
      },
      "pendingOwner()": {
        "returns": {
          "_0": "Current `_pendingOwner` address."
        }
      },
      "pushDrawSettings(uint32,(uint8,uint8,uint32,uint32,uint32,uint136,uint32[],uint256))": {
        "details": "Only callable by the owner or manager",
        "params": {
          "draw": "PrizeDistributionHistorySettings struct",
          "drawId": "Draw.drawId"
        }
      },
      "renounceOwnership()": {
        "details": "Leaves the contract without owner. It will not be possible to call `onlyOwner` functions anymore. Can only be called by the current owner. NOTE: Renouncing ownership will leave the contract without an owner, thereby removing any functionality that is only available to the owner."
      },
      "setDrawSetting(uint32,(uint8,uint8,uint32,uint32,uint32,uint136,uint32[],uint256))": {
        "details": "Updating a Draw should be used sparingly and only in the event an incorrect Draw parameter has been stored.",
        "returns": {
          "_0": "Draw.drawId"
        }
      },
      "setManager(address)": {
        "details": "Throws if called by any account other than the owner.",
        "params": {
          "_newManager": "New _manager address."
        },
        "returns": {
          "_0": "Boolean to indicate if the operation was successful or not."
        }
      },
      "transferOwnership(address)": {
        "params": {
          "_newOwner": "Address to transfer ownership to."
        }
      }
    },
    "title": "PoolTogether V4 PrizeDistributionHistory",
    "version": 1
  },
  "userdoc": {
    "events": {
      "DrawSet(uint32,uint32,uint256)": {
        "notice": "Emit when a new draw has been created."
      },
      "DrawSettingsSet(uint32,(uint8,uint8,uint32,uint32,uint32,uint136,uint32[],uint256))": {
        "notice": "Emitted when the DrawParams are set/updated"
      }
    },
    "kind": "user",
    "methods": {
      "claimOwnership()": {
        "notice": "Allows the `_pendingOwner` address to finalize the transfer."
      },
      "constructor": {
        "notice": "Constructor for PrizeDistributionHistory"
      },
      "getDrawSetting(uint32)": {
        "notice": "Gets the PrizeDistributionHistorySettings for a Draw.drawID"
      },
      "getDrawSettings(uint32[])": {
        "notice": "Gets array of PrizeDistributionHistorySettings for Draw.drawID(s)"
      },
      "getNewestDrawSettings()": {
        "notice": "Read newest DrawSettings from the draws ring buffer."
      },
      "getOldestDrawSettings()": {
        "notice": "Read oldest DrawSettings from the draws ring buffer."
      },
      "manager()": {
        "notice": "Gets current `_manager`."
      },
      "owner()": {
        "notice": "Returns the address of the current owner."
      },
      "pendingOwner()": {
        "notice": "Gets current `_pendingOwner`."
      },
      "pushDrawSettings(uint32,(uint8,uint8,uint32,uint32,uint32,uint136,uint32[],uint256))": {
        "notice": "Sets PrizeDistributionHistorySettings for a Draw.drawID."
      },
      "renounceOwnership()": {
        "notice": "Renounce ownership of the contract."
      },
      "setDrawSetting(uint32,(uint8,uint8,uint32,uint32,uint32,uint136,uint32[],uint256))": {
        "notice": "Set existing Draw in draws ring buffer with new parameters."
      },
      "setManager(address)": {
        "notice": "Set or change of manager."
      },
      "transferOwnership(address)": {
        "notice": "Allows current owner to set the `_pendingOwner` address."
      }
    },
    "notice": "The PrizeDistributionHistory stores individual DrawSettings for each Draw.drawId. DrawSettings parameters like cardinality, bitRange, distributions, number of picks and prize. The settings determine the specific distribution model for each individual  draw. Storage of the DrawSetting(s) is handled by ring buffer with a max cardinality of 256 or roughly 5 years of history with a weekly draw cadence.",
    "version": 1
  },
  "storageLayout": {
    "storage": [
      {
        "astId": 3466,
        "contract": "@pooltogether/v4-core/contracts/PrizeDistributionHistory.sol:PrizeDistributionHistory",
        "label": "_owner",
        "offset": 0,
        "slot": "0",
        "type": "t_address"
      },
      {
        "astId": 3468,
        "contract": "@pooltogether/v4-core/contracts/PrizeDistributionHistory.sol:PrizeDistributionHistory",
        "label": "_pendingOwner",
        "offset": 0,
        "slot": "1",
        "type": "t_address"
      },
      {
        "astId": 3364,
        "contract": "@pooltogether/v4-core/contracts/PrizeDistributionHistory.sol:PrizeDistributionHistory",
        "label": "_manager",
        "offset": 0,
        "slot": "2",
        "type": "t_address"
      },
      {
        "astId": 6533,
        "contract": "@pooltogether/v4-core/contracts/PrizeDistributionHistory.sol:PrizeDistributionHistory",
        "label": "_drawSettingsRingBuffer",
        "offset": 0,
        "slot": "3",
        "type": "t_array(t_struct(PrizeDistribution)9665_storage)256_storage"
      },
      {
        "astId": 6537,
        "contract": "@pooltogether/v4-core/contracts/PrizeDistributionHistory.sol:PrizeDistributionHistory",
        "label": "drawSettingsRingBufferData",
        "offset": 0,
        "slot": "771",
        "type": "t_struct(Buffer)9677_storage"
      }
    ],
    "types": {
      "t_address": {
        "encoding": "inplace",
        "label": "address",
        "numberOfBytes": "20"
      },
      "t_array(t_struct(PrizeDistribution)9665_storage)256_storage": {
        "base": "t_struct(PrizeDistribution)9665_storage",
        "encoding": "inplace",
        "label": "struct DrawLib.PrizeDistribution[256]",
        "numberOfBytes": "24576"
      },
      "t_array(t_uint32)dyn_storage": {
        "base": "t_uint32",
        "encoding": "dynamic_array",
        "label": "uint32[]",
        "numberOfBytes": "32"
      },
      "t_struct(Buffer)9677_storage": {
        "encoding": "inplace",
        "label": "struct DrawRingBufferLib.Buffer",
        "members": [
          {
            "astId": 9672,
            "contract": "@pooltogether/v4-core/contracts/PrizeDistributionHistory.sol:PrizeDistributionHistory",
            "label": "lastDrawId",
            "offset": 0,
            "slot": "0",
            "type": "t_uint32"
          },
          {
            "astId": 9674,
            "contract": "@pooltogether/v4-core/contracts/PrizeDistributionHistory.sol:PrizeDistributionHistory",
            "label": "nextIndex",
            "offset": 4,
            "slot": "0",
            "type": "t_uint32"
          },
          {
            "astId": 9676,
            "contract": "@pooltogether/v4-core/contracts/PrizeDistributionHistory.sol:PrizeDistributionHistory",
            "label": "cardinality",
            "offset": 8,
            "slot": "0",
            "type": "t_uint32"
          }
        ],
        "numberOfBytes": "32"
      },
      "t_struct(PrizeDistribution)9665_storage": {
        "encoding": "inplace",
        "label": "struct DrawLib.PrizeDistribution",
        "members": [
          {
            "astId": 9649,
            "contract": "@pooltogether/v4-core/contracts/PrizeDistributionHistory.sol:PrizeDistributionHistory",
            "label": "bitRangeSize",
            "offset": 0,
            "slot": "0",
            "type": "t_uint8"
          },
          {
            "astId": 9651,
            "contract": "@pooltogether/v4-core/contracts/PrizeDistributionHistory.sol:PrizeDistributionHistory",
            "label": "matchCardinality",
            "offset": 1,
            "slot": "0",
            "type": "t_uint8"
          },
          {
            "astId": 9653,
            "contract": "@pooltogether/v4-core/contracts/PrizeDistributionHistory.sol:PrizeDistributionHistory",
            "label": "startOffsetTimestamp",
            "offset": 2,
            "slot": "0",
            "type": "t_uint32"
          },
          {
            "astId": 9655,
            "contract": "@pooltogether/v4-core/contracts/PrizeDistributionHistory.sol:PrizeDistributionHistory",
            "label": "endOffsetTimestamp",
            "offset": 6,
            "slot": "0",
            "type": "t_uint32"
          },
          {
            "astId": 9657,
            "contract": "@pooltogether/v4-core/contracts/PrizeDistributionHistory.sol:PrizeDistributionHistory",
            "label": "maxPicksPerUser",
            "offset": 10,
            "slot": "0",
            "type": "t_uint32"
          },
          {
            "astId": 9659,
            "contract": "@pooltogether/v4-core/contracts/PrizeDistributionHistory.sol:PrizeDistributionHistory",
            "label": "numberOfPicks",
            "offset": 14,
            "slot": "0",
            "type": "t_uint136"
          },
          {
            "astId": 9662,
            "contract": "@pooltogether/v4-core/contracts/PrizeDistributionHistory.sol:PrizeDistributionHistory",
            "label": "distributions",
            "offset": 0,
            "slot": "1",
            "type": "t_array(t_uint32)dyn_storage"
          },
          {
            "astId": 9664,
            "contract": "@pooltogether/v4-core/contracts/PrizeDistributionHistory.sol:PrizeDistributionHistory",
            "label": "prize",
            "offset": 0,
            "slot": "2",
            "type": "t_uint256"
          }
        ],
        "numberOfBytes": "96"
      },
      "t_uint136": {
        "encoding": "inplace",
        "label": "uint136",
        "numberOfBytes": "17"
      },
      "t_uint256": {
        "encoding": "inplace",
        "label": "uint256",
        "numberOfBytes": "32"
      },
      "t_uint32": {
        "encoding": "inplace",
        "label": "uint32",
        "numberOfBytes": "4"
      },
      "t_uint8": {
        "encoding": "inplace",
        "label": "uint8",
        "numberOfBytes": "1"
      }
    }
  }
}