{
  "address": "0xc096CA9c191ea003156e7870714118AfF1CF086A",
  "abi": [
    {
      "inputs": [
        {
          "internalType": "address",
          "name": "_owner",
          "type": "address"
        },
        {
          "internalType": "contract IERC20",
          "name": "_token",
          "type": "address"
        }
      ],
      "stateMutability": "nonpayable",
      "type": "constructor"
    },
    {
      "anonymous": false,
      "inputs": [
        {
          "indexed": false,
          "internalType": "uint256",
          "name": "reserveAccumulated",
          "type": "uint256"
        },
        {
          "indexed": false,
          "internalType": "uint256",
          "name": "withdrawAccumulated",
          "type": "uint256"
        }
      ],
      "name": "Checkpoint",
      "type": "event"
    },
    {
      "anonymous": false,
      "inputs": [
        {
          "indexed": true,
          "internalType": "contract IERC20",
          "name": "token",
          "type": "address"
        }
      ],
      "name": "Deployed",
      "type": "event"
    },
    {
      "anonymous": false,
      "inputs": [
        {
          "indexed": true,
          "internalType": "address",
          "name": "previousManager",
          "type": "address"
        },
        {
          "indexed": true,
          "internalType": "address",
          "name": "newManager",
          "type": "address"
        }
      ],
      "name": "ManagerTransferred",
      "type": "event"
    },
    {
      "anonymous": false,
      "inputs": [
        {
          "indexed": true,
          "internalType": "address",
          "name": "pendingOwner",
          "type": "address"
        }
      ],
      "name": "OwnershipOffered",
      "type": "event"
    },
    {
      "anonymous": false,
      "inputs": [
        {
          "indexed": true,
          "internalType": "address",
          "name": "previousOwner",
          "type": "address"
        },
        {
          "indexed": true,
          "internalType": "address",
          "name": "newOwner",
          "type": "address"
        }
      ],
      "name": "OwnershipTransferred",
      "type": "event"
    },
    {
      "anonymous": false,
      "inputs": [
        {
          "indexed": true,
          "internalType": "address",
          "name": "recipient",
          "type": "address"
        },
        {
          "indexed": false,
          "internalType": "uint256",
          "name": "amount",
          "type": "uint256"
        }
      ],
      "name": "Withdrawn",
      "type": "event"
    },
    {
      "inputs": [],
      "name": "checkpoint",
      "outputs": [],
      "stateMutability": "nonpayable",
      "type": "function"
    },
    {
      "inputs": [],
      "name": "claimOwnership",
      "outputs": [],
      "stateMutability": "nonpayable",
      "type": "function"
    },
    {
      "inputs": [],
      "name": "getCardinality",
      "outputs": [
        {
          "internalType": "uint16",
          "name": "",
          "type": "uint16"
        }
      ],
      "stateMutability": "view",
      "type": "function"
    },
    {
      "inputs": [
        {
          "internalType": "uint32",
          "name": "_startTimestamp",
          "type": "uint32"
        },
        {
          "internalType": "uint32",
          "name": "_endTimestamp",
          "type": "uint32"
        }
      ],
      "name": "getReserveAccumulatedBetween",
      "outputs": [
        {
          "internalType": "uint224",
          "name": "",
          "type": "uint224"
        }
      ],
      "stateMutability": "view",
      "type": "function"
    },
    {
      "inputs": [],
      "name": "getToken",
      "outputs": [
        {
          "internalType": "contract IERC20",
          "name": "",
          "type": "address"
        }
      ],
      "stateMutability": "view",
      "type": "function"
    },
    {
      "inputs": [],
      "name": "manager",
      "outputs": [
        {
          "internalType": "address",
          "name": "",
          "type": "address"
        }
      ],
      "stateMutability": "view",
      "type": "function"
    },
    {
      "inputs": [],
      "name": "owner",
      "outputs": [
        {
          "internalType": "address",
          "name": "",
          "type": "address"
        }
      ],
      "stateMutability": "view",
      "type": "function"
    },
    {
      "inputs": [],
      "name": "pendingOwner",
      "outputs": [
        {
          "internalType": "address",
          "name": "",
          "type": "address"
        }
      ],
      "stateMutability": "view",
      "type": "function"
    },
    {
      "inputs": [],
      "name": "renounceOwnership",
      "outputs": [],
      "stateMutability": "nonpayable",
      "type": "function"
    },
    {
      "inputs": [
        {
          "internalType": "address",
          "name": "_newManager",
          "type": "address"
        }
      ],
      "name": "setManager",
      "outputs": [
        {
          "internalType": "bool",
          "name": "",
          "type": "bool"
        }
      ],
      "stateMutability": "nonpayable",
      "type": "function"
    },
    {
      "inputs": [],
      "name": "token",
      "outputs": [
        {
          "internalType": "contract IERC20",
          "name": "",
          "type": "address"
        }
      ],
      "stateMutability": "view",
      "type": "function"
    },
    {
      "inputs": [
        {
          "internalType": "address",
          "name": "_newOwner",
          "type": "address"
        }
      ],
      "name": "transferOwnership",
      "outputs": [],
      "stateMutability": "nonpayable",
      "type": "function"
    },
    {
      "inputs": [],
      "name": "withdrawAccumulator",
      "outputs": [
        {
          "internalType": "uint224",
          "name": "",
          "type": "uint224"
        }
      ],
      "stateMutability": "view",
      "type": "function"
    },
    {
      "inputs": [
        {
          "internalType": "address",
          "name": "_recipient",
          "type": "address"
        },
        {
          "internalType": "uint256",
          "name": "_amount",
          "type": "uint256"
        }
      ],
      "name": "withdrawTo",
      "outputs": [],
      "stateMutability": "nonpayable",
      "type": "function"
    }
  ],
  "transactionHash": "0xb75ba3c9ad386da7da7ecee227108f5759142b6644c8c6861a3755c245209288",
  "args": [
    "0xE0F4217390221aF47855E094F6e112D43C8698fE",
    "0xAcE995feC00E8f5955fd180F19D15E8E58C5F7b1"
  ],
  "solcInputHash": "b0872f2c20298ba87c0d5bbb50dadae3",
  "bytecode": "0x60a06040523480156200001157600080fd5b5060405162001686380380620016868339810160408190526200003491620000df565b8162000040816200008f565b506001600160601b0319606082901b166080526040516001600160a01b038216907ff40fcec21964ffb566044d083b4073f29f7f7929110ea19e1b3ebe375d89055e90600090a2505062000137565b600080546001600160a01b038381166001600160a01b0319831681178455604051919092169283917f8be0079c531659141344cd1fd0a4f28419497f9722a3daafe3b4186f6b6457e09190a35050565b60008060408385031215620000f357600080fd5b825162000100816200011e565b602084015190925062000113816200011e565b809150509250929050565b6001600160a01b03811681146200013457600080fd5b50565b60805160601c61151b6200016b600039600081816101060152818161021f0152818161030e01526107f2015261151b6000f3fe608060405234801561001057600080fd5b50600436106100ea5760003560e01c80638da5cb5b1161008c578063d0ebdbe711610066578063d0ebdbe7146101d3578063e30c3978146101f6578063f2fde38b14610207578063fc0c546a1461021a57600080fd5b80638da5cb5b146101a7578063af6a9400146101b8578063c2c4c5c1146101cb57600080fd5b8063481c6a75116100c8578063481c6a751461016e5780634e71e0c81461017f578063715018a614610187578063793f37011461018f57600080fd5b8063205c2878146100ef57806321df0da7146101045780632d00ddda14610143575b600080fd5b6101026100fd36600461126b565b610241565b005b7f00000000000000000000000000000000000000000000000000000000000000005b6040516001600160a01b0390911681526020015b60405180910390f35b600354610156906001600160e01b031681565b6040516001600160e01b03909116815260200161013a565b6002546001600160a01b0316610126565b6101026103be565b61010261044c565b620100035460405161ffff909116815260200161013a565b6000546001600160a01b0316610126565b6101566101c63660046112d0565b6104c1565b6101026105f5565b6101e66101e1366004611250565b6105fd565b604051901515815260200161013a565b6001546001600160a01b0316610126565b610102610215366004611250565b610679565b6101267f000000000000000000000000000000000000000000000000000000000000000081565b336102546002546001600160a01b031690565b6001600160a01b031614806102825750336102776000546001600160a01b031690565b6001600160a01b0316145b6102f95760405162461bcd60e51b815260206004820152602660248201527f4d616e61676561626c652f63616c6c65722d6e6f742d6d616e616765722d6f7260448201527f2d6f776e6572000000000000000000000000000000000000000000000000000060648201526084015b60405180910390fd5b6103016107b5565b6103356001600160a01b037f0000000000000000000000000000000000000000000000000000000000000000168383610a26565b600380548291906000906103539084906001600160e01b0316611370565b92506101000a8154816001600160e01b0302191690836001600160e01b03160217905550816001600160a01b03167f7084f5476618d8e60b11ef0d7d3f06914655adb8793e28ff7f018d4c76d505d5826040516103b291815260200190565b60405180910390a25050565b6001546001600160a01b031633146104185760405162461bcd60e51b815260206004820152601f60248201527f4f776e61626c652f63616c6c65722d6e6f742d70656e64696e674f776e65720060448201526064016102f0565b60015461042d906001600160a01b0316610a96565b6001805473ffffffffffffffffffffffffffffffffffffffff19169055565b3361045f6000546001600160a01b031690565b6001600160a01b0316146104b55760405162461bcd60e51b815260206004820152601860248201527f4f776e61626c652f63616c6c65722d6e6f742d6f776e6572000000000000000060448201526064016102f0565b6104bf6000610a96565b565b60008163ffffffff168363ffffffff161061051e5760405162461bcd60e51b815260206004820152601b60248201527f526573657276652f73746172742d6c6573732d7468656e2d656e64000000000060448201526064016102f0565b6201000354604080518082019091526000808252602082015261ffff9091169081156105945760046105516001846113e7565b61ffff1661ffff8110610566576105666114cf565b604080518082019091529101546001600160e01b0381168252600160e01b900463ffffffff16602082015290505b604080518082019091526004546001600160e01b0381168252600160e01b900463ffffffff16602082015260006105cd8383868a610af3565b905060006105dd8484878a610af3565b90506105e9828261140a565b98975050505050505050565b6104bf6107b5565b6000336106126000546001600160a01b031690565b6001600160a01b0316146106685760405162461bcd60e51b815260206004820152601860248201527f4f776e61626c652f63616c6c65722d6e6f742d6f776e6572000000000000000060448201526064016102f0565b61067182610ba2565b90505b919050565b3361068c6000546001600160a01b031690565b6001600160a01b0316146106e25760405162461bcd60e51b815260206004820152601860248201527f4f776e61626c652f63616c6c65722d6e6f742d6f776e6572000000000000000060448201526064016102f0565b6001600160a01b03811661075e5760405162461bcd60e51b815260206004820152602560248201527f4f776e61626c652f70656e64696e674f776e65722d6e6f742d7a65726f2d616460448201527f647265737300000000000000000000000000000000000000000000000000000060648201526084016102f0565b6001805473ffffffffffffffffffffffffffffffffffffffff19166001600160a01b0383169081179091556040517f239a2ddded15777fa246aed5f7e1a9bc69a39d4eb4a397034d1d85766cca7d4c90600090a250565b62010003546040517f70a0823100000000000000000000000000000000000000000000000000000000815230600482015261ffff909116906000907f00000000000000000000000000000000000000000000000000000000000000006001600160a01b0316906370a082319060240160206040518083038186803b15801561083c57600080fd5b505afa158015610850573d6000803e3d6000fd5b505050506040513d601f19601f8201168201806040525081019061087491906112b7565b6003549091506001600160e01b0316600061088e84610c8e565b905080600001516001600160e01b0316826001600160e01b0316846108b3919061139b565b1115610a20574260006108c68486611370565b90508163ffffffff16836020015163ffffffff1614610973576040518060400160405280826001600160e01b031681526020018363ffffffff1681525060048761ffff8110610917576109176114cf565b825160209093015163ffffffff16600160e01b026001600160e01b039093169290921791015562010003805461ffff169060006109538361146d565b91906101000a81548161ffff021916908361ffff160217905550506109da565b604080518082019091526001600160e01b038216815263ffffffff8316602082015260046109a260018961142a565b61ffff81106109b3576109b36114cf565b825160209093015163ffffffff16600160e01b026001600160e01b03909316929092179101555b604080516001600160e01b038084168252861660208201527f21d81d5d656869e8ce3ba8d65526a2f0dbbcd3d36f5f9999eb7c84360e45eced910160405180910390a150505b50505050565b604080516001600160a01b038416602482015260448082018490528251808303909101815260649091019091526020810180516001600160e01b03167fa9059cbb00000000000000000000000000000000000000000000000000000000179052610a91908490610cf7565b505050565b600080546001600160a01b0383811673ffffffffffffffffffffffffffffffffffffffff19831681178455604051919092169283917f8be0079c531659141344cd1fd0a4f28419497f9722a3daafe3b4186f6b6457e09190a35050565b60004261ffff8416610b09576000915050610b9a565b8263ffffffff16856020015163ffffffff161115610b2b576000915050610b9a565b8263ffffffff16866020015163ffffffff1611610b4b5750508351610b9a565b600080610b686004610b5e6001896113e7565b6000888a88610ddc565b915091508463ffffffff16816020015163ffffffff161415610b8f57519250610b9a915050565b50519150610b9a9050565b949350505050565b6002546000906001600160a01b03908116908316811415610c2b5760405162461bcd60e51b815260206004820152602360248201527f4d616e61676561626c652f6578697374696e672d6d616e616765722d6164647260448201527f657373000000000000000000000000000000000000000000000000000000000060648201526084016102f0565b6002805473ffffffffffffffffffffffffffffffffffffffff19166001600160a01b0385811691821790925560405190918316907f9cb45c728de594dab506a1f1a8554e24c8eeaf983618d5ec5dd7bc6f3c49feee90600090a350600192915050565b60408051808201909152600080825260208201528115610674576004610cb560018461142a565b61ffff8110610cc657610cc66114cf565b604080518082019091529101546001600160e01b0381168252600160e01b900463ffffffff16602082015292915050565b6000610d4c826040518060400160405280602081526020017f5361666545524332303a206c6f772d6c6576656c2063616c6c206661696c6564815250856001600160a01b0316610f9f9092919063ffffffff16565b805190915015610a915780806020019051810190610d6a9190611295565b610a915760405162461bcd60e51b815260206004820152602a60248201527f5361666545524332303a204552433230206f7065726174696f6e20646964206e60448201527f6f7420737563636565640000000000000000000000000000000000000000000060648201526084016102f0565b6040805180820190915260008082526020820152604080518082019091526000808252602082015260008661ffff1690506000818961ffff1610610e24578861ffff16610e3e565b6001610e3461ffff88168461139b565b610e3e919061142a565b905060005b6002610e4f838561139b565b610e5991906113d3565b90508a610e6a828961ffff16610fb8565b61ffff1661ffff8110610e7f57610e7f6114cf565b604080518082019091529101546001600160e01b0381168252600160e01b900463ffffffff166020820181905290955080610ec757610ebf82600161139b565b935050610e43565b8b610ed6838a61ffff16610fc4565b61ffff1661ffff8110610eeb57610eeb6114cf565b604080518082019091529101546001600160e01b038116825263ffffffff600160e01b90910481166020830152909550600090610f3090838116908c908b90610fdc16565b9050808015610f595750610f598660200151898c63ffffffff16610fdc9092919063ffffffff16565b15610f65575050610f91565b80610f7c57610f7560018461142a565b9350610f8a565b610f8783600161139b565b94505b5050610e43565b505050965096945050505050565b6060610fae84846000856110ad565b90505b9392505050565b6000610fb1828461148f565b600081610fd284600161139b565b610fb1919061148f565b60008163ffffffff168463ffffffff161115801561100657508163ffffffff168363ffffffff1611155b15611022578263ffffffff168463ffffffff1611159050610fb1565b60008263ffffffff168563ffffffff16116110515761104c63ffffffff86166401000000006113b3565b611059565b8463ffffffff165b64ffffffffff16905060008363ffffffff168563ffffffff16116110915761108c63ffffffff86166401000000006113b3565b611099565b8463ffffffff165b64ffffffffff169091111595945050505050565b6060824710156111255760405162461bcd60e51b815260206004820152602660248201527f416464726573733a20696e73756666696369656e742062616c616e636520666f60448201527f722063616c6c000000000000000000000000000000000000000000000000000060648201526084016102f0565b843b6111735760405162461bcd60e51b815260206004820152601d60248201527f416464726573733a2063616c6c20746f206e6f6e2d636f6e747261637400000060448201526064016102f0565b600080866001600160a01b0316858760405161118f9190611303565b60006040518083038185875af1925050503d80600081146111cc576040519150601f19603f3d011682016040523d82523d6000602084013e6111d1565b606091505b50915091506111e18282866111ec565b979650505050505050565b606083156111fb575081610fb1565b82511561120b5782518084602001fd5b8160405162461bcd60e51b81526004016102f0919061131f565b80356001600160a01b038116811461067457600080fd5b803563ffffffff8116811461067457600080fd5b60006020828403121561126257600080fd5b610fb182611225565b6000806040838503121561127e57600080fd5b61128783611225565b946020939093013593505050565b6000602082840312156112a757600080fd5b81518015158114610fb157600080fd5b6000602082840312156112c957600080fd5b5051919050565b600080604083850312156112e357600080fd5b6112ec8361123c565b91506112fa6020840161123c565b90509250929050565b60008251611315818460208701611441565b9190910192915050565b602081526000825180602084015261133e816040850160208701611441565b601f017fffffffffffffffffffffffffffffffffffffffffffffffffffffffffffffffe0169190910160400192915050565b60006001600160e01b03808316818516808303821115611392576113926114a3565b01949350505050565b600082198211156113ae576113ae6114a3565b500190565b600064ffffffffff808316818516808303821115611392576113926114a3565b6000826113e2576113e26114b9565b500490565b600061ffff83811690831681811015611402576114026114a3565b039392505050565b60006001600160e01b0383811690831681811015611402576114026114a3565b60008282101561143c5761143c6114a3565b500390565b60005b8381101561145c578181015183820152602001611444565b83811115610a205750506000910152565b600061ffff80831681811415611485576114856114a3565b6001019392505050565b60008261149e5761149e6114b9565b500690565b634e487b7160e01b600052601160045260246000fd5b634e487b7160e01b600052601260045260246000fd5b634e487b7160e01b600052603260045260246000fdfea2646970667358221220cd9dd59e9719a3a884beb317d0ab01a69d366ca5016c9d89c2a30fbe214b59b464736f6c63430008060033",
  "devdoc": {
    "author": "PoolTogether Inc Team",
    "kind": "dev",
    "methods": {
      "checkpoint()": {
        "details": "Calculates total desposited tokens since last checkpoint and creates new accumulator checkpoint."
      },
      "claimOwnership()": {
        "details": "This function is only callable by the `_pendingOwner`."
      },
      "getCardinality()": {
        "returns": {
          "_0": "Ring buffer range (i.e. CARDINALITY) "
        }
      },
      "getReserveAccumulatedBetween(uint32,uint32)": {
        "details": "Search the ring buffer for two checkpoint observations and diffs accumulator amount. ",
        "params": {
          "_endTimestamp": "Transfer amount",
          "_startTimestamp": "Account address "
        }
      },
      "getToken()": {
        "returns": {
          "_0": "IERC20"
        }
      },
      "manager()": {
        "returns": {
          "_0": "Current `_manager` address."
        }
      },
      "pendingOwner()": {
        "returns": {
          "_0": "Current `_pendingOwner` address."
        }
      },
      "renounceOwnership()": {
        "details": "Leaves the contract without owner. It will not be possible to call `onlyOwner` functions anymore. Can only be called by the current owner. NOTE: Renouncing ownership will leave the contract without an owner, thereby removing any functionality that is only available to the owner."
      },
      "setManager(address)": {
        "details": "Throws if called by any account other than the owner.",
        "params": {
          "_newManager": "New _manager address."
        },
        "returns": {
          "_0": "Boolean to indicate if the operation was successful or not."
        }
      },
      "transferOwnership(address)": {
        "params": {
          "_newOwner": "Address to transfer ownership to."
        }
      },
      "withdrawTo(address,uint256)": {
        "details": "Creates checkpoint before token transfer. Increments withdrawAccumulator with amount.",
        "params": {
          "_amount": "Transfer amount",
          "_recipient": "Account address "
        }
      }
    },
    "title": "PoolTogether V4 Reserve",
    "version": 1
  },
  "userdoc": {
    "kind": "user",
    "methods": {
      "checkpoint()": {
        "notice": "Create observation checkpoint in ring bufferr."
      },
      "claimOwnership()": {
        "notice": "Allows the `_pendingOwner` address to finalize the transfer."
      },
      "getCardinality()": {
        "notice": "Read global CARDINALITY value."
      },
      "getReserveAccumulatedBetween(uint32,uint32)": {
        "notice": "Calculate token accumulation beween timestamp range."
      },
      "getToken()": {
        "notice": "Read global token value."
      },
      "manager()": {
        "notice": "Gets current `_manager`."
      },
      "owner()": {
        "notice": "Returns the address of the current owner."
      },
      "pendingOwner()": {
        "notice": "Gets current `_pendingOwner`."
      },
      "renounceOwnership()": {
        "notice": "Renounce ownership of the contract."
      },
      "setManager(address)": {
        "notice": "Set or change of manager."
      },
      "transferOwnership(address)": {
        "notice": "Allows current owner to set the `_pendingOwner` address."
      },
      "withdrawTo(address,uint256)": {
        "notice": "Transfer Reserve token balance to recipient address."
      }
    },
    "notice": "The Reserve migrates allotments of token distributions.",
    "version": 1
  },
  "storageLayout": {
    "storage": [
      {
        "astId": 3466,
        "contract": "@pooltogether/v4-core/contracts/Reserve.sol:Reserve",
        "label": "_owner",
        "offset": 0,
        "slot": "0",
        "type": "t_address"
      },
      {
        "astId": 3468,
        "contract": "@pooltogether/v4-core/contracts/Reserve.sol:Reserve",
        "label": "_pendingOwner",
        "offset": 0,
        "slot": "1",
        "type": "t_address"
      },
      {
        "astId": 3364,
        "contract": "@pooltogether/v4-core/contracts/Reserve.sol:Reserve",
        "label": "_manager",
        "offset": 0,
        "slot": "2",
        "type": "t_address"
      },
      {
        "astId": 5741,
        "contract": "@pooltogether/v4-core/contracts/Reserve.sol:Reserve",
        "label": "withdrawAccumulator",
        "offset": 0,
        "slot": "3",
        "type": "t_uint224"
      },
      {
        "astId": 5746,
        "contract": "@pooltogether/v4-core/contracts/Reserve.sol:Reserve",
        "label": "reserveAccumulators",
        "offset": 0,
        "slot": "4",
        "type": "t_array(t_struct(Observation)9981_storage)65535_storage"
      },
      {
        "astId": 5748,
        "contract": "@pooltogether/v4-core/contracts/Reserve.sol:Reserve",
        "label": "cardinality",
        "offset": 0,
        "slot": "65539",
        "type": "t_uint16"
      }
    ],
    "types": {
      "t_address": {
        "encoding": "inplace",
        "label": "address",
        "numberOfBytes": "20"
      },
      "t_array(t_struct(Observation)9981_storage)65535_storage": {
        "base": "t_struct(Observation)9981_storage",
        "encoding": "inplace",
        "label": "struct ObservationLib.Observation[65535]",
        "numberOfBytes": "2097120"
      },
      "t_struct(Observation)9981_storage": {
        "encoding": "inplace",
        "label": "struct ObservationLib.Observation",
        "members": [
          {
            "astId": 9978,
            "contract": "@pooltogether/v4-core/contracts/Reserve.sol:Reserve",
            "label": "amount",
            "offset": 0,
            "slot": "0",
            "type": "t_uint224"
          },
          {
            "astId": 9980,
            "contract": "@pooltogether/v4-core/contracts/Reserve.sol:Reserve",
            "label": "timestamp",
            "offset": 28,
            "slot": "0",
            "type": "t_uint32"
          }
        ],
        "numberOfBytes": "32"
      },
      "t_uint16": {
        "encoding": "inplace",
        "label": "uint16",
        "numberOfBytes": "2"
      },
      "t_uint224": {
        "encoding": "inplace",
        "label": "uint224",
        "numberOfBytes": "28"
      },
      "t_uint32": {
        "encoding": "inplace",
        "label": "uint32",
        "numberOfBytes": "4"
      }
    }
  }
}