{
  "address": "0xFE7cC866E3a244cf665a4ca4cFfEf7aa028Fc88B",
  "abi": [
    {
      "inputs": [
        {
          "internalType": "string",
          "name": "_name",
          "type": "string"
        },
        {
          "internalType": "string",
          "name": "_symbol",
          "type": "string"
        },
        {
          "internalType": "uint8",
          "name": "decimals_",
          "type": "uint8"
        },
        {
          "internalType": "address",
          "name": "_controller",
          "type": "address"
        }
      ],
      "stateMutability": "nonpayable",
      "type": "constructor"
    },
    {
      "anonymous": false,
      "inputs": [
        {
          "indexed": true,
          "internalType": "address",
          "name": "owner",
          "type": "address"
        },
        {
          "indexed": true,
          "internalType": "address",
          "name": "spender",
          "type": "address"
        },
        {
          "indexed": false,
          "internalType": "uint256",
          "name": "value",
          "type": "uint256"
        }
      ],
      "name": "Approval",
      "type": "event"
    },
    {
      "anonymous": false,
      "inputs": [
        {
          "indexed": true,
          "internalType": "address",
          "name": "user",
          "type": "address"
        },
        {
          "indexed": true,
          "internalType": "address",
          "name": "delegate",
          "type": "address"
        }
      ],
      "name": "Delegated",
      "type": "event"
    },
    {
      "anonymous": false,
      "inputs": [
        {
          "indexed": false,
          "internalType": "string",
          "name": "name",
          "type": "string"
        },
        {
          "indexed": false,
          "internalType": "string",
          "name": "symbol",
          "type": "string"
        },
        {
          "indexed": false,
          "internalType": "uint8",
          "name": "decimals",
          "type": "uint8"
        },
        {
          "indexed": false,
          "internalType": "address",
          "name": "controller",
          "type": "address"
        }
      ],
      "name": "Deployed",
      "type": "event"
    },
    {
      "anonymous": false,
      "inputs": [
        {
          "components": [
            {
              "internalType": "uint224",
              "name": "amount",
              "type": "uint224"
            },
            {
              "internalType": "uint32",
              "name": "timestamp",
              "type": "uint32"
            }
          ],
          "indexed": false,
          "internalType": "struct ObservationLib.Observation",
          "name": "newTotalSupplyTwab",
          "type": "tuple"
        }
      ],
      "name": "NewTotalSupplyTwab",
      "type": "event"
    },
    {
      "anonymous": false,
      "inputs": [
        {
          "indexed": true,
          "internalType": "address",
          "name": "ticketHolder",
          "type": "address"
        },
        {
          "indexed": true,
          "internalType": "address",
          "name": "user",
          "type": "address"
        },
        {
          "components": [
            {
              "internalType": "uint224",
              "name": "amount",
              "type": "uint224"
            },
            {
              "internalType": "uint32",
              "name": "timestamp",
              "type": "uint32"
            }
          ],
          "indexed": false,
          "internalType": "struct ObservationLib.Observation",
          "name": "newTwab",
          "type": "tuple"
        }
      ],
      "name": "NewUserTwab",
      "type": "event"
    },
    {
      "anonymous": false,
      "inputs": [
        {
          "indexed": false,
          "internalType": "string",
          "name": "name",
          "type": "string"
        },
        {
          "indexed": false,
          "internalType": "string",
          "name": "symbol",
          "type": "string"
        },
        {
          "indexed": false,
          "internalType": "uint8",
          "name": "decimals",
          "type": "uint8"
        },
        {
          "indexed": false,
          "internalType": "address",
          "name": "controller",
          "type": "address"
        }
      ],
      "name": "TicketInitialized",
      "type": "event"
    },
    {
      "anonymous": false,
      "inputs": [
        {
          "indexed": true,
          "internalType": "address",
          "name": "from",
          "type": "address"
        },
        {
          "indexed": true,
          "internalType": "address",
          "name": "to",
          "type": "address"
        },
        {
          "indexed": false,
          "internalType": "uint256",
          "name": "value",
          "type": "uint256"
        }
      ],
      "name": "Transfer",
      "type": "event"
    },
    {
      "inputs": [],
      "name": "DOMAIN_SEPARATOR",
      "outputs": [
        {
          "internalType": "bytes32",
          "name": "",
          "type": "bytes32"
        }
      ],
      "stateMutability": "view",
      "type": "function"
    },
    {
      "inputs": [
        {
          "internalType": "address",
          "name": "owner",
          "type": "address"
        },
        {
          "internalType": "address",
          "name": "spender",
          "type": "address"
        }
      ],
      "name": "allowance",
      "outputs": [
        {
          "internalType": "uint256",
          "name": "",
          "type": "uint256"
        }
      ],
      "stateMutability": "view",
      "type": "function"
    },
    {
      "inputs": [
        {
          "internalType": "address",
          "name": "spender",
          "type": "address"
        },
        {
          "internalType": "uint256",
          "name": "amount",
          "type": "uint256"
        }
      ],
      "name": "approve",
      "outputs": [
        {
          "internalType": "bool",
          "name": "",
          "type": "bool"
        }
      ],
      "stateMutability": "nonpayable",
      "type": "function"
    },
    {
      "inputs": [
        {
          "internalType": "address",
          "name": "_user",
          "type": "address"
        }
      ],
      "name": "balanceOf",
      "outputs": [
        {
          "internalType": "uint256",
          "name": "",
          "type": "uint256"
        }
      ],
      "stateMutability": "view",
      "type": "function"
    },
    {
      "inputs": [],
      "name": "controller",
      "outputs": [
        {
          "internalType": "address",
          "name": "",
          "type": "address"
        }
      ],
      "stateMutability": "view",
      "type": "function"
    },
    {
      "inputs": [
        {
          "internalType": "address",
          "name": "_user",
          "type": "address"
        },
        {
          "internalType": "uint256",
          "name": "_amount",
          "type": "uint256"
        }
      ],
      "name": "controllerBurn",
      "outputs": [],
      "stateMutability": "nonpayable",
      "type": "function"
    },
    {
      "inputs": [
        {
          "internalType": "address",
          "name": "_operator",
          "type": "address"
        },
        {
          "internalType": "address",
          "name": "_user",
          "type": "address"
        },
        {
          "internalType": "uint256",
          "name": "_amount",
          "type": "uint256"
        }
      ],
      "name": "controllerBurnFrom",
      "outputs": [],
      "stateMutability": "nonpayable",
      "type": "function"
    },
    {
      "inputs": [
        {
          "internalType": "address",
          "name": "_user",
          "type": "address"
        },
        {
          "internalType": "uint256",
          "name": "_amount",
          "type": "uint256"
        }
      ],
      "name": "controllerMint",
      "outputs": [],
      "stateMutability": "nonpayable",
      "type": "function"
    },
    {
      "inputs": [],
      "name": "decimals",
      "outputs": [
        {
          "internalType": "uint8",
          "name": "",
          "type": "uint8"
        }
      ],
      "stateMutability": "view",
      "type": "function"
    },
    {
      "inputs": [
        {
          "internalType": "address",
          "name": "spender",
          "type": "address"
        },
        {
          "internalType": "uint256",
          "name": "subtractedValue",
          "type": "uint256"
        }
      ],
      "name": "decreaseAllowance",
      "outputs": [
        {
          "internalType": "bool",
          "name": "",
          "type": "bool"
        }
      ],
      "stateMutability": "nonpayable",
      "type": "function"
    },
    {
      "inputs": [
        {
          "internalType": "address",
          "name": "to",
          "type": "address"
        }
      ],
      "name": "delegate",
      "outputs": [],
      "stateMutability": "nonpayable",
      "type": "function"
    },
    {
      "inputs": [
        {
          "internalType": "address",
          "name": "_user",
          "type": "address"
        }
      ],
      "name": "delegateOf",
      "outputs": [
        {
          "internalType": "address",
          "name": "",
          "type": "address"
        }
      ],
      "stateMutability": "view",
      "type": "function"
    },
    {
      "inputs": [
        {
          "internalType": "address",
          "name": "_user",
          "type": "address"
        }
      ],
      "name": "getAccountDetails",
      "outputs": [
        {
          "components": [
            {
              "internalType": "uint208",
              "name": "balance",
              "type": "uint208"
            },
            {
              "internalType": "uint24",
              "name": "nextTwabIndex",
              "type": "uint24"
            },
            {
              "internalType": "uint24",
              "name": "cardinality",
              "type": "uint24"
            }
          ],
          "internalType": "struct TwabLib.AccountDetails",
          "name": "",
          "type": "tuple"
        }
      ],
      "stateMutability": "view",
      "type": "function"
    },
    {
      "inputs": [
        {
          "internalType": "address",
          "name": "_user",
          "type": "address"
        },
        {
          "internalType": "uint256",
          "name": "_startTime",
          "type": "uint256"
        },
        {
          "internalType": "uint256",
          "name": "_endTime",
          "type": "uint256"
        }
      ],
      "name": "getAverageBalanceBetween",
      "outputs": [
        {
          "internalType": "uint256",
          "name": "",
          "type": "uint256"
        }
      ],
      "stateMutability": "view",
      "type": "function"
    },
    {
      "inputs": [
        {
          "internalType": "address",
          "name": "user",
          "type": "address"
        },
        {
          "internalType": "uint32[]",
          "name": "startTimes",
          "type": "uint32[]"
        },
        {
          "internalType": "uint32[]",
          "name": "endTimes",
          "type": "uint32[]"
        }
      ],
      "name": "getAverageBalancesBetween",
      "outputs": [
        {
          "internalType": "uint256[]",
          "name": "",
          "type": "uint256[]"
        }
      ],
      "stateMutability": "view",
      "type": "function"
    },
    {
      "inputs": [
        {
          "internalType": "uint32[]",
          "name": "startTimes",
          "type": "uint32[]"
        },
        {
          "internalType": "uint32[]",
          "name": "endTimes",
          "type": "uint32[]"
        }
      ],
      "name": "getAverageTotalSuppliesBetween",
      "outputs": [
        {
          "internalType": "uint256[]",
          "name": "",
          "type": "uint256[]"
        }
      ],
      "stateMutability": "view",
      "type": "function"
    },
    {
      "inputs": [
        {
          "internalType": "address",
          "name": "_user",
          "type": "address"
        },
        {
          "internalType": "uint256",
          "name": "_target",
          "type": "uint256"
        }
      ],
      "name": "getBalanceAt",
      "outputs": [
        {
          "internalType": "uint256",
          "name": "",
          "type": "uint256"
        }
      ],
      "stateMutability": "view",
      "type": "function"
    },
    {
      "inputs": [
        {
          "internalType": "address",
          "name": "_user",
          "type": "address"
        },
        {
          "internalType": "uint32[]",
          "name": "_targets",
          "type": "uint32[]"
        }
      ],
      "name": "getBalancesAt",
      "outputs": [
        {
          "internalType": "uint256[]",
          "name": "",
          "type": "uint256[]"
        }
      ],
      "stateMutability": "view",
      "type": "function"
    },
    {
      "inputs": [
        {
          "internalType": "uint32[]",
          "name": "_targets",
          "type": "uint32[]"
        }
      ],
      "name": "getTotalSuppliesAt",
      "outputs": [
        {
          "internalType": "uint256[]",
          "name": "",
          "type": "uint256[]"
        }
      ],
      "stateMutability": "view",
      "type": "function"
    },
    {
      "inputs": [
        {
          "internalType": "uint32",
          "name": "_target",
          "type": "uint32"
        }
      ],
      "name": "getTotalSupplyAt",
      "outputs": [
        {
          "internalType": "uint256",
          "name": "",
          "type": "uint256"
        }
      ],
      "stateMutability": "view",
      "type": "function"
    },
    {
      "inputs": [
        {
          "internalType": "address",
          "name": "_user",
          "type": "address"
        },
        {
          "internalType": "uint16",
          "name": "_index",
          "type": "uint16"
        }
      ],
      "name": "getTwab",
      "outputs": [
        {
          "components": [
            {
              "internalType": "uint224",
              "name": "amount",
              "type": "uint224"
            },
            {
              "internalType": "uint32",
              "name": "timestamp",
              "type": "uint32"
            }
          ],
          "internalType": "struct ObservationLib.Observation",
          "name": "",
          "type": "tuple"
        }
      ],
      "stateMutability": "view",
      "type": "function"
    },
    {
      "inputs": [
        {
          "internalType": "address",
          "name": "spender",
          "type": "address"
        },
        {
          "internalType": "uint256",
          "name": "addedValue",
          "type": "uint256"
        }
      ],
      "name": "increaseAllowance",
      "outputs": [
        {
          "internalType": "bool",
          "name": "",
          "type": "bool"
        }
      ],
      "stateMutability": "nonpayable",
      "type": "function"
    },
    {
      "inputs": [],
      "name": "name",
      "outputs": [
        {
          "internalType": "string",
          "name": "",
          "type": "string"
        }
      ],
      "stateMutability": "view",
      "type": "function"
    },
    {
      "inputs": [
        {
          "internalType": "address",
          "name": "owner",
          "type": "address"
        }
      ],
      "name": "nonces",
      "outputs": [
        {
          "internalType": "uint256",
          "name": "",
          "type": "uint256"
        }
      ],
      "stateMutability": "view",
      "type": "function"
    },
    {
      "inputs": [
        {
          "internalType": "address",
          "name": "owner",
          "type": "address"
        },
        {
          "internalType": "address",
          "name": "spender",
          "type": "address"
        },
        {
          "internalType": "uint256",
          "name": "value",
          "type": "uint256"
        },
        {
          "internalType": "uint256",
          "name": "deadline",
          "type": "uint256"
        },
        {
          "internalType": "uint8",
          "name": "v",
          "type": "uint8"
        },
        {
          "internalType": "bytes32",
          "name": "r",
          "type": "bytes32"
        },
        {
          "internalType": "bytes32",
          "name": "s",
          "type": "bytes32"
        }
      ],
      "name": "permit",
      "outputs": [],
      "stateMutability": "nonpayable",
      "type": "function"
    },
    {
      "inputs": [],
      "name": "symbol",
      "outputs": [
        {
          "internalType": "string",
          "name": "",
          "type": "string"
        }
      ],
      "stateMutability": "view",
      "type": "function"
    },
    {
      "inputs": [],
      "name": "totalSupply",
      "outputs": [
        {
          "internalType": "uint256",
          "name": "",
          "type": "uint256"
        }
      ],
      "stateMutability": "view",
      "type": "function"
    },
    {
      "inputs": [
        {
          "internalType": "address",
          "name": "recipient",
          "type": "address"
        },
        {
          "internalType": "uint256",
          "name": "amount",
          "type": "uint256"
        }
      ],
      "name": "transfer",
      "outputs": [
        {
          "internalType": "bool",
          "name": "",
          "type": "bool"
        }
      ],
      "stateMutability": "nonpayable",
      "type": "function"
    },
    {
      "inputs": [
        {
          "internalType": "address",
          "name": "sender",
          "type": "address"
        },
        {
          "internalType": "address",
          "name": "recipient",
          "type": "address"
        },
        {
          "internalType": "uint256",
          "name": "amount",
          "type": "uint256"
        }
      ],
      "name": "transferFrom",
      "outputs": [
        {
          "internalType": "bool",
          "name": "",
          "type": "bool"
        }
      ],
      "stateMutability": "nonpayable",
      "type": "function"
    }
  ],
  "transactionHash": "0x3543a5e8eb78fd155341ba6567c693f9a7a04facf3157a72f1c42a3208bf22dd",
  "args": [
    "Ticket",
    "TICK",
    18,
    "0xdd42d57861d3861b77F0FC55b31521fa5B2DE257"
  ],
  "solcInputHash": "3016cc01e6fa1ea04dcb1ee229d02cd3",
  "bytecode": "0x6101606040527f6e71edae12b1b97f4d1f60370fef10105fa2faae0126114a169c64845d6126c9610120523480156200003757600080fd5b5060405162003bbe38038062003bbe8339810160408190526200005a91620003f9565b838383836040518060400160405280601c81526020017f506f6f6c546f67657468657220436f6e74726f6c6c6564546f6b656e0000000081525080604051806040016040528060018152602001603160f81b81525086868160039080519060200190620000c9929190620002c2565b508051620000df906004906020840190620002c2565b5050825160209384012082519284019290922060c083815260e08290524660a0818152604080517f8b73c3c69bb8fe3d512ecc4cf759cc79239f7b179b0ffacaa9a75d522b39400f818a018190528183019890985260608101959095526080808601939093523085830152805180860390920182529390920190925280519401939093209092526101005250506001600160a01b038116620001dc5760405162461bcd60e51b815260206004820152602b60248201527f436f6e74726f6c6c6564546f6b656e2f636f6e74726f6c6c65722d6e6f742d7a60448201526a65726f2d6164647265737360a81b60648201526084015b60405180910390fd5b600680546001600160a01b0319166001600160a01b03831617905560ff8216620002495760405162461bcd60e51b815260206004820181905260248201527f436f6e74726f6c6c6564546f6b656e2f646563696d616c732d67742d7a65726f6044820152606401620001d3565b7fff0000000000000000000000000000000000000000000000000000000000000060f883901b16610140526040517fde72fc29218361f33503847e6f32be813f9ec92fc7c772bb59e46675c890fd0e90620002ac908690869086908690620004cb565b60405180910390a150505050505050506200059f565b828054620002d0906200054c565b90600052602060002090601f016020900481019282620002f457600085556200033f565b82601f106200030f57805160ff19168380011785556200033f565b828001600101855582156200033f579182015b828111156200033f57825182559160200191906001019062000322565b506200034d92915062000351565b5090565b5b808211156200034d576000815560010162000352565b600082601f8301126200037a57600080fd5b81516001600160401b038082111562000397576200039762000589565b604051601f8301601f19908116603f01168101908282118183101715620003c257620003c262000589565b81604052838152866020858801011115620003dc57600080fd5b620003ef84602083016020890162000519565b9695505050505050565b600080600080608085870312156200041057600080fd5b84516001600160401b03808211156200042857600080fd5b620004368883890162000368565b955060208701519150808211156200044d57600080fd5b506200045c8782880162000368565b935050604085015160ff811681146200047457600080fd5b60608601519092506001600160a01b03811681146200049257600080fd5b939692955090935050565b60008151808452620004b781602086016020860162000519565b601f01601f19169290920160200192915050565b608081526000620004e060808301876200049d565b8281036020840152620004f481876200049d565b60ff95909516604084015250506001600160a01b039190911660609091015292915050565b60005b83811015620005365781810151838201526020016200051c565b8381111562000546576000848401525b50505050565b600181811c908216806200056157607f821691505b602082108114156200058357634e487b7160e01b600052602260045260246000fd5b50919050565b634e487b7160e01b600052604160045260246000fd5b60805160a05160c05160e05161010051610120516101405160f81c6135c1620005fd600039600061032101526000610e0d015260006114b701526000611506015260006114e1015260006114650152600061148e01526135c16000f3fe608060405234801561001057600080fd5b50600436106101cf5760003560e01c8063631b5dfb1161010457806390596dd1116100a2578063d505accf11610071578063d505accf146104e5578063dd62ed3e146104f8578063f77c479114610531578063f95946e31461054457600080fd5b806390596dd1146104a457806395d89b41146104b7578063a457c2d7146104bf578063a9059cbb146104d257600080fd5b80637966cd67116100de5780637966cd67146104245780637ecebe00146104375780638d22ea2a1461044a5780638f02fee41461049157600080fd5b8063631b5dfb146103eb5780636cdd0be2146103fe57806370a082311461041157600080fd5b8063313ce56711610171578063395093511161014b5780633950935114610390578063405e22ad146103a35780635c19a95c146103c35780635d7b0758146103d857600080fd5b8063313ce5671461031a5780633644e5151461034b57806336bb2a381461035357600080fd5b806318160ddd116101ad57806318160ddd1461023257806323b872dd1461024357806326ca8adb146102565780632aceb5341461026957600080fd5b806301292efb146101d457806306fdde03146101fa578063095ea7b31461020f575b600080fd5b6101e76101e236600461324d565b610557565b6040519081526020015b60405180910390f35b6102026105a9565b6040516101f191906132b7565b61022261021d366004613142565b61063b565b60405190151581526020016101f1565b6008546001600160d01b03166101e7565b610222610251366004612f81565b610651565b6101e7610264366004613142565b610717565b6102e2610277366004612f33565b6040805160608082018352600080835260208084018290529284018190526001600160a01b03949094168452600782529282902082519384018352546001600160d01b038116845262ffffff600160d01b8204811692850192909252600160e81b9004169082015290565b6040805182516001600160d01b0316815260208084015162ffffff9081169183019190915292820151909216908201526060016101f1565b60405160ff7f00000000000000000000000000000000000000000000000000000000000000001681526020016101f1565b6101e7610786565b610366610361366004613104565b610795565b6040805182516001600160e01b0316815260209283015163ffffffff1692810192909252016101f1565b61022261039e366004613142565b61080d565b6103b66103b1366004613030565b610849565b6040516101f19190613273565b6103d66103d1366004612f33565b610965565b005b6103d66103e6366004613142565b610a73565b6103d66103f9366004612f81565b610adb565b6103b661040c366004613083565b610b96565b6101e761041f366004612f33565b610bc8565b6103b66104323660046131e1565b610be9565b6101e7610445366004612f33565b610c02565b610479610458366004612f33565b6001600160a01b039081166000908152630100000860205260409020541690565b6040516001600160a01b0390911681526020016101f1565b6101e761049f36600461316c565b610c20565b6103d66104b2366004613142565b610c88565b610202610cec565b6102226104cd366004613142565b610cfb565b6102226104e0366004613142565b610dac565b6103d66104f3366004612fbd565b610db9565b6101e7610506366004612f4e565b6001600160a01b03918216600090815260016020908152604080832093909416825291909152205490565b600654610479906001600160a01b031681565b6103b661055236600461319f565b610f1d565b604080516060810182526008546001600160d01b038116825262ffffff600160d01b820481166020840152600160e81b90910416918101919091526000906105a3906009908442611000565b92915050565b6060600380546105b890613497565b80601f01602080910402602001604051908101604052809291908181526020018280546105e490613497565b80156106315780601f1061060657610100808354040283529160200191610631565b820191906000526020600020905b81548152906001019060200180831161061457829003601f168201915b5050505050905090565b600061064833848461102c565b50600192915050565b600061065e848484611184565b6001600160a01b0384166000908152600160209081526040808320338452909152902054828110156106fd5760405162461bcd60e51b815260206004820152602860248201527f45524332303a207472616e7366657220616d6f756e742065786365656473206160448201527f6c6c6f77616e636500000000000000000000000000000000000000000000000060648201526084015b60405180910390fd5b61070a853385840361102c565b60019150505b9392505050565b6001600160a01b0382166000908152600760209081526040808320815160608101835281546001600160d01b038116825262ffffff600160d01b8204811695830195909552600160e81b9004909316918301919091529061077e9060018301908542611000565b949350505050565b6000610790611461565b905090565b60408051808201909152600080825260208201526001600160a01b038316600090815260076020526040902060010161ffff831662ffffff81106107db576107db61353d565b604080518082019091529101546001600160e01b0381168252600160e01b900463ffffffff1660208201529392505050565b3360008181526001602090815260408083206001600160a01b03871684529091528120549091610648918590610844908690613355565b61102c565b60608160008167ffffffffffffffff81111561086757610867613553565b604051908082528060200260200182016040528015610890578160200160208202803683370190505b506001600160a01b0387166000908152600760209081526040808320815160608101835281546001600160d01b038116825262ffffff600160d01b8204811695830195909552600160e81b900490931691830191909152929350905b848110156109585761092983600101838a8a8581811061090e5761090e61353d565b9050602002016020810190610923919061324d565b42611000565b84828151811061093b5761093b61353d565b602090810291909101015280610950816134cc565b9150506108ec565b5091979650505050505050565b336000908152630100000960209081526040808320546301000008909252909120546001600160a01b031680156109af576109aa3382846001600160e01b0316611554565b6109c3565b6109c33333846001600160e01b0316611554565b6001600160a01b038316156109eb576109e63384846001600160e01b0316611694565b6109ff565b6109ff3333846001600160e01b0316611694565b3360008181526301000008602052604080822080547fffffffffffffffffffffffff0000000000000000000000000000000000000000166001600160a01b03881690811790915590519092917f4bc154dd35d6a5cb9206482ecb473cdbf2473006d6bce728b9cc0741bcc59ea291a3505050565b6006546001600160a01b03163314610acd5760405162461bcd60e51b815260206004820152601f60248201527f436f6e74726f6c6c6564546f6b656e2f6f6e6c792d636f6e74726f6c6c65720060448201526064016106f4565b610ad782826116ba565b5050565b6006546001600160a01b03163314610b355760405162461bcd60e51b815260206004820152601f60248201527f436f6e74726f6c6c6564546f6b656e2f6f6e6c792d636f6e74726f6c6c65720060448201526064016106f4565b816001600160a01b0316836001600160a01b031614610b87576001600160a01b03828116600090815260016020908152604080832093871683529290522054610b879083908590610844908590613463565b610b9182826118e1565b505050565b6001600160a01b0385166000908152600760205260409020606090610bbe9086868686611bc9565b9695505050505050565b6001600160a01b0381166000908152630100000960205260408120546105a3565b6060610bf9600886868686611bc9565b95945050505050565b6001600160a01b0381166000908152600560205260408120546105a3565b6001600160a01b0383166000908152600760209081526040808320815160608101835281546001600160d01b038116825262ffffff600160d01b8204811695830195909552600160e81b90049093169183019190915290610bf9906001830190868642611d65565b6006546001600160a01b03163314610ce25760405162461bcd60e51b815260206004820152601f60248201527f436f6e74726f6c6c6564546f6b656e2f6f6e6c792d636f6e74726f6c6c65720060448201526064016106f4565b610ad782826118e1565b6060600480546105b890613497565b3360009081526001602090815260408083206001600160a01b038616845290915281205482811015610d955760405162461bcd60e51b815260206004820152602560248201527f45524332303a2064656372656173656420616c6c6f77616e63652062656c6f7760448201527f207a65726f00000000000000000000000000000000000000000000000000000060648201526084016106f4565b610da2338585840361102c565b5060019392505050565b6000610648338484611184565b83421115610e095760405162461bcd60e51b815260206004820152601d60248201527f45524332305065726d69743a206578706972656420646561646c696e6500000060448201526064016106f4565b60007f0000000000000000000000000000000000000000000000000000000000000000888888610e388c611d9d565b6040805160208101969096526001600160a01b0394851690860152929091166060840152608083015260a082015260c0810186905260e0016040516020818303038152906040528051906020012090506000610e9382611dc5565b90506000610ea382878787611e2e565b9050896001600160a01b0316816001600160a01b031614610f065760405162461bcd60e51b815260206004820152601e60248201527f45524332305065726d69743a20696e76616c6964207369676e6174757265000060448201526064016106f4565b610f118a8a8a61102c565b50505050505050505050565b60608160008167ffffffffffffffff811115610f3b57610f3b613553565b604051908082528060200260200182016040528015610f64578160200160208202803683370190505b50604080516060810182526008546001600160d01b038116825262ffffff600160d01b820481166020840152600160e81b909104169181019190915290915060005b83811015610ff557610fc660098389898581811061090e5761090e61353d565b838281518110610fd857610fd861353d565b602090810291909101015280610fed816134cc565b915050610fa6565b509095945050505050565b6000808263ffffffff168463ffffffff161161101c578361101e565b825b9050610bbe86868386611e56565b6001600160a01b0383166110a75760405162461bcd60e51b8152602060048201526024808201527f45524332303a20617070726f76652066726f6d20746865207a65726f2061646460448201527f726573730000000000000000000000000000000000000000000000000000000060648201526084016106f4565b6001600160a01b0382166111235760405162461bcd60e51b815260206004820152602260248201527f45524332303a20617070726f766520746f20746865207a65726f20616464726560448201527f737300000000000000000000000000000000000000000000000000000000000060648201526084016106f4565b6001600160a01b0383811660008181526001602090815260408083209487168084529482529182902085905590518481527f8c5be1e5ebec7d5bd14f71427d1e84f3dd0314c0f7b2291e5b200ac8c7c3b925910160405180910390a3505050565b6001600160a01b0383166112005760405162461bcd60e51b815260206004820152602560248201527f45524332303a207472616e736665722066726f6d20746865207a65726f20616460448201527f647265737300000000000000000000000000000000000000000000000000000060648201526084016106f4565b6001600160a01b03821661127c5760405162461bcd60e51b815260206004820152602360248201527f45524332303a207472616e7366657220746f20746865207a65726f206164647260448201527f657373000000000000000000000000000000000000000000000000000000000060648201526084016106f4565b80826001600160a01b0316846001600160a01b03161461140e576001600160a01b0384166000908152630100000960205260409020546001600160e01b0382168110156113315760405162461bcd60e51b815260206004820152602660248201527f45524332303a207472616e7366657220616d6f756e742065786365656473206260448201527f616c616e6365000000000000000000000000000000000000000000000000000060648201526084016106f4565b6001600160a01b038086166000908152630100000960205260408082206001600160e01b038616808603909155928716825281208054909190611375908490613355565b90915550506001600160a01b038086166000908152630100000860205260409020541680156113ae576113a9868286611554565b6113b9565b6113b9868786611554565b6001600160a01b038086166000908152630100000860205260409020541680156113f6576113f18682866001600160e01b0316611694565b61140a565b61140a8687866001600160e01b0316611694565b5050505b826001600160a01b0316846001600160a01b03167fddf252ad1be2c89b69c2b068fc378daa952ba7f163c4a11628f55a4df523b3ef8460405161145391815260200190565b60405180910390a350505050565b60007f00000000000000000000000000000000000000000000000000000000000000004614156114b057507f000000000000000000000000000000000000000000000000000000000000000090565b50604080517f00000000000000000000000000000000000000000000000000000000000000006020808301919091527f0000000000000000000000000000000000000000000000000000000000000000828401527f000000000000000000000000000000000000000000000000000000000000000060608301524660808301523060a0808401919091528351808403909101815260c0909201909252805191012090565b600060076000846001600160a01b03166001600160a01b03168152602001908152602001600020905060008060006115a6848660405180606001604052806022815260200161356a6022913942611f72565b82518754602085015160408601516001600160d01b039093167fffffff000000000000000000000000000000000000000000000000000000000090921691909117600160d01b62ffffff92831602177cffffffffffffffffffffffffffffffffffffffffffffffffffffffffff16600160e81b919092160217875591945092509050801561168b576040805183516001600160e01b0316815260208085015163ffffffff16908201526001600160a01b0380891692908a16917f56bf5251c21af3be0462e65380f02036c247ea4203fda153f3a9c3e7f8f9318d910160405180910390a35b50505050505050565b6001600160a01b03821660009081526007602052604081209080806115a6848642612054565b6001600160a01b0382166117105760405162461bcd60e51b815260206004820152601f60248201527f45524332303a206d696e7420746f20746865207a65726f20616464726573730060448201526064016106f4565b600061171b8261210a565b90506001600160a01b038316600090815263010000096020526040812080546001600160e01b0384169290611751908490613355565b9091555060009050808061177060086001600160e01b03861642612054565b825160088054602086015160408701516001600160d01b039094167fffffff000000000000000000000000000000000000000000000000000000000090921691909117600160d01b62ffffff92831602177cffffffffffffffffffffffffffffffffffffffffffffffffffffffffff16600160e81b919093160291909117905591945092509050801561184a576040805183516001600160e01b0316815260208085015163ffffffff16908201527f3375b905d617084fa6b7531688cc8046feb1f1a0b8ba2273de03c59d8d84416c910160405180910390a15b6001600160a01b03808716600090815263010000086020526040902054168015611887576118828782876001600160e01b0316611694565b61189b565b61189b8788876001600160e01b0316611694565b6040518681526001600160a01b038816906000907fddf252ad1be2c89b69c2b068fc378daa952ba7f163c4a11628f55a4df523b3ef9060200160405180910390a361168b565b6001600160a01b03821661195d5760405162461bcd60e51b815260206004820152602160248201527f45524332303a206275726e2066726f6d20746865207a65726f2061646472657360448201527f730000000000000000000000000000000000000000000000000000000000000060648201526084016106f4565b60006119688261210a565b9050600080600061199d6008856001600160e01b031660405180606001604052806022815260200161356a6022913942611f72565b825160088054602086015160408701516001600160d01b039094167fffffff000000000000000000000000000000000000000000000000000000000090921691909117600160d01b62ffffff92831602177cffffffffffffffffffffffffffffffffffffffffffffffffffffffffff16600160e81b9190931602919091179055919450925090508015611a77576040805183516001600160e01b0316815260208085015163ffffffff16908201527f3375b905d617084fa6b7531688cc8046feb1f1a0b8ba2273de03c59d8d84416c910160405180910390a15b6001600160a01b0386166000908152630100000960205260409020546001600160e01b038516811015611b125760405162461bcd60e51b815260206004820152602260248201527f45524332303a206275726e20616d6f756e7420657863656564732062616c616e60448201527f636500000000000000000000000000000000000000000000000000000000000060648201526084016106f4565b6001600160a01b0380881660009081526301000009602090815260408083206001600160e01b038a16860390556301000008909152902054168015611b6a57611b658882886001600160e01b0316611554565b611b7e565b611b7e8889886001600160e01b0316611554565b6040518781526000906001600160a01b038a16907fddf252ad1be2c89b69c2b068fc378daa952ba7f163c4a11628f55a4df523b3ef9060200160405180910390a35050505050505050565b6060838214611c405760405162461bcd60e51b815260206004820152602360248201527f5469636b65742f73746172742d656e642d74696d65732d6c656e6774682d6d6160448201527f746368000000000000000000000000000000000000000000000000000000000060648201526084016106f4565b8560008567ffffffffffffffff811115611c5c57611c5c613553565b604051908082528060200260200182016040528015611c85578160200160208202803683370190505b50905060005b86811015611d59576040805160608101825284546001600160d01b038116825262ffffff600160d01b820481166020840152600160e81b9091041691810191909152611d2a9060018b01908a8a85818110611ce857611ce861353d565b9050602002016020810190611cfd919061324d565b898986818110611d0f57611d0f61353d565b9050602002016020810190611d24919061324d565b42611d65565b828281518110611d3c57611d3c61353d565b602090810291909101015280611d51816134cc565b915050611c8b565b50979650505050505050565b6000808263ffffffff168463ffffffff1611611d815783611d83565b825b9050611d92878787848761218d565b979650505050505050565b6001600160a01b03811660009081526005602052604090208054600181018255905b50919050565b60006105a3611dd2611461565b836040517f19010000000000000000000000000000000000000000000000000000000000006020820152602281018390526042810182905260009060620160405160208183030381529060405280519060200120905092915050565b6000806000611e3f8787878761222a565b91509150611e4c81612317565b5095945050505050565b604080518082019091526000808252602082018190529081906040805180820190915260008082526020820152611e8d888861250b565b60208101519194509150611eae9063ffffffff908116908890889061258b16565b15611ec957505084516001600160d01b0316915061077e9050565b6000611ed5898961265c565b6020810151909350909150611ef69063ffffffff808a16919089906126d516565b15611f0857600094505050505061077e565b611f1a8985838a8c604001518b6127a4565b81518151919550919350600091611f309161343b565b9050600083602001518560200151611f48919061347a565b9050611f5a63ffffffff82168361338d565b6001600160e01b03169b9a5050505050505050505050565b604080516060810182526000808252602082018190529181019190915260408051808201909152600080825260208201526040805160608101825287546001600160d01b03811680835262ffffff600160d01b830481166020850152600160e81b9092049091169282019290925260009186908811156120055760405162461bcd60e51b81526004016106f491906132b7565b50612014886001018287612971565b8351929650909450925061203b906120369089906001600160d01b0316613463565b612ae4565b6001600160d01b03168452509196909550909350915050565b604080516060810182526000808252602082018190529181019190915260408051808201909152600080825260208201526040805160608101825286546001600160d01b038116825262ffffff600160d01b820481166020840152600160e81b90910416918101919091526000906120d0600188018287612971565b835192965090945092506120f2906120369088906001600160d01b0316613355565b6001600160d01b031684525091959094509092509050565b60006001600160e01b038211156121895760405162461bcd60e51b815260206004820152602760248201527f53616665436173743a2076616c756520646f65736e27742066697420696e203260448201527f323420626974730000000000000000000000000000000000000000000000000060648201526084016106f4565b5090565b600080600061219c888861265c565b915091506000806121ad8a8a61250b565b9150915060006121c38b8b8487878a8f8e612b63565b905060006121d78c8c8588888b8f8f612b63565b9050816020015181602001516121ed919061347a565b63ffffffff1682600001518260000151612207919061343b565b612211919061338d565b6001600160e01b03169c9b505050505050505050505050565b6000807f7fffffffffffffffffffffffffffffff5d576e7357a4501ddfe92f46681b20a0831115612261575060009050600361230e565b8460ff16601b1415801561227957508460ff16601c14155b1561228a575060009050600461230e565b6040805160008082526020820180845289905260ff881692820192909252606081018690526080810185905260019060a0016020604051602081039080840390855afa1580156122de573d6000803e3d6000fd5b5050604051601f1901519150506001600160a01b0381166123075760006001925092505061230e565b9150600090505b94509492505050565b600081600481111561232b5761232b613527565b14156123345750565b600181600481111561234857612348613527565b14156123965760405162461bcd60e51b815260206004820152601860248201527f45434453413a20696e76616c6964207369676e6174757265000000000000000060448201526064016106f4565b60028160048111156123aa576123aa613527565b14156123f85760405162461bcd60e51b815260206004820152601f60248201527f45434453413a20696e76616c6964207369676e6174757265206c656e6774680060448201526064016106f4565b600381600481111561240c5761240c613527565b14156124805760405162461bcd60e51b815260206004820152602260248201527f45434453413a20696e76616c6964207369676e6174757265202773272076616c60448201527f756500000000000000000000000000000000000000000000000000000000000060648201526084016106f4565b600481600481111561249457612494613527565b14156125085760405162461bcd60e51b815260206004820152602260248201527f45434453413a20696e76616c6964207369676e6174757265202776272076616c60448201527f756500000000000000000000000000000000000000000000000000000000000060648201526084016106f4565b50565b604080518082019091526000808252602082018190529061253a836020015162ffffff1662ffffff8016612d37565b9150838262ffffff1662ffffff81106125555761255561353d565b604080518082019091529101546001600160e01b0381168252600160e01b900463ffffffff166020820152919491935090915050565b60008163ffffffff168463ffffffff16111580156125b557508163ffffffff168363ffffffff1611155b156125d1578263ffffffff168463ffffffff1611159050610710565b60008263ffffffff168563ffffffff1611612600576125fb63ffffffff861664010000000061336d565b612608565b8463ffffffff165b64ffffffffff16905060008363ffffffff168563ffffffff16116126405761263b63ffffffff861664010000000061336d565b612648565b8463ffffffff165b64ffffffffff169091111595945050505050565b604080518082019091526000808252602080830191909152820151908362ffffff80841690811061268f5761268f61353d565b604080518082019091529101546001600160e01b0381168252600160e01b900463ffffffff16602082018190529091506126ce57600091508382612555565b9250929050565b60008163ffffffff168463ffffffff16111580156126ff57508163ffffffff168363ffffffff1611155b1561271a578263ffffffff168463ffffffff16109050610710565b60008263ffffffff168563ffffffff16116127495761274463ffffffff861664010000000061336d565b612751565b8463ffffffff165b64ffffffffff16905060008363ffffffff168563ffffffff16116127895761278463ffffffff861664010000000061336d565b612791565b8463ffffffff165b64ffffffffff1690911095945050505050565b6040805180820190915260008082526020820152604080518082019091526000808252602082015260008662ffffff1690506000818962ffffff16106127ef578862ffffff1661280a565b600161280062ffffff881684613355565b61280a9190613463565b905060005b600261281b8385613355565b61282591906133b3565b90508a612837828962ffffff16612d67565b62ffffff1662ffffff811061284e5761284e61353d565b604080518082019091529101546001600160e01b0381168252600160e01b900463ffffffff1660208201819052909550806128965761288e826001613355565b93505061280f565b8b6128a6838a62ffffff16612d73565b62ffffff1662ffffff81106128bd576128bd61353d565b604080518082019091529101546001600160e01b038116825263ffffffff600160e01b9091048116602083015290955060009061290290838116908c908b9061258b16565b905080801561292b575061292b8660200151898c63ffffffff1661258b9092919063ffffffff16565b15612937575050612963565b8061294e57612947600184613463565b935061295c565b612959836001613355565b94505b505061280f565b505050965096945050505050565b604080516060810182526000808252602082018190529181019190915260408051808201909152600080825260208201526000806129af878761250b565b915050806020015163ffffffff168563ffffffff161015612a125760405162461bcd60e51b815260206004820152601b60248201527f547761624c69622f747761622d74696d652d6d6f6e6f746f6e6963000000000060448201526064016106f4565b8463ffffffff16816020015163ffffffff161415612a3857859350915060009050612adb565b6000612a528288600001516001600160d01b031688612d81565b90508088886020015162ffffff1662ffffff8110612a7257612a7261353d565b825160209384015163ffffffff16600160e01b026001600160e01b0390911617910155870151612aa99062ffffff90811690612d73565b62ffffff16602088015260408701805160019190612ac8908390613337565b62ffffff16905250869450925060019150505b93509350939050565b60006001600160d01b038211156121895760405162461bcd60e51b815260206004820152602760248201527f53616665436173743a2076616c756520646f65736e27742066697420696e203260448201527f303820626974730000000000000000000000000000000000000000000000000060648201526084016106f4565b6040805180820190915260008082526020820152612b968383896020015163ffffffff166126d59092919063ffffffff16565b15612bfc576040518060400160405280886020015185612bb6919061347a565b8a51612bc89163ffffffff16906133c7565b8951612bdd916001600160d01b03169061330c565b6001600160e01b031681526020018463ffffffff168152509050612d2b565b8263ffffffff16876020015163ffffffff161415612c1b575085612d2b565b8263ffffffff16866020015163ffffffff161415612c3a575084612d2b565b612c598660200151838563ffffffff166126d59092919063ffffffff16565b15612c7e5750604080518082019091526000815263ffffffff83166020820152612d2b565b600080612c938b8888888e60400151896127a4565b91509150600082602001518260200151612cad919061347a565b63ffffffff1683600001518360000151612cc7919061343b565b612cd1919061338d565b90506000836020015187612ce5919061347a565b612cf59063ffffffff16836133f6565b8451612d01919061330c565b604080518082019091526001600160e01b03909116815263ffffffff881660208201529450505050505b98975050505050505050565b600081612d46575060006105a3565b816001612d538286613355565b612d5d9190613463565b61071091906134e7565b600061071082846134e7565b600081612d5d846001613355565b60408051808201909152600080825260208201526040518060400160405280612de7612dc28760200151868763ffffffff16612e089092919063ffffffff16565b612dd29063ffffffff168761341c565b875161203691906001600160e01b0316613355565b6001600160d01b0316815263ffffffff841660209091015290509392505050565b60008163ffffffff168463ffffffff1611158015612e3257508163ffffffff168363ffffffff1611155b15612e4857612e41838561347a565b9050610710565b60008263ffffffff168563ffffffff1611612e7757612e7263ffffffff861664010000000061336d565b612e7f565b8463ffffffff165b64ffffffffff16905060008363ffffffff168563ffffffff1611612eb757612eb263ffffffff861664010000000061336d565b612ebf565b8463ffffffff165b64ffffffffff169050610bbe8183613463565b80356001600160a01b0381168114612ee957600080fd5b919050565b60008083601f840112612f0057600080fd5b50813567ffffffffffffffff811115612f1857600080fd5b6020830191508360208260051b85010111156126ce57600080fd5b600060208284031215612f4557600080fd5b61071082612ed2565b60008060408385031215612f6157600080fd5b612f6a83612ed2565b9150612f7860208401612ed2565b90509250929050565b600080600060608486031215612f9657600080fd5b612f9f84612ed2565b9250612fad60208501612ed2565b9150604084013590509250925092565b600080600080600080600060e0888a031215612fd857600080fd5b612fe188612ed2565b9650612fef60208901612ed2565b95506040880135945060608801359350608088013560ff8116811461301357600080fd5b9699959850939692959460a0840135945060c09093013592915050565b60008060006040848603121561304557600080fd5b61304e84612ed2565b9250602084013567ffffffffffffffff81111561306a57600080fd5b61307686828701612eee565b9497909650939450505050565b60008060008060006060868803121561309b57600080fd5b6130a486612ed2565b9450602086013567ffffffffffffffff808211156130c157600080fd5b6130cd89838a01612eee565b909650945060408801359150808211156130e657600080fd5b506130f388828901612eee565b969995985093965092949392505050565b6000806040838503121561311757600080fd5b61312083612ed2565b9150602083013561ffff8116811461313757600080fd5b809150509250929050565b6000806040838503121561315557600080fd5b61315e83612ed2565b946020939093013593505050565b60008060006060848603121561318157600080fd5b61318a84612ed2565b95602085013595506040909401359392505050565b600080602083850312156131b257600080fd5b823567ffffffffffffffff8111156131c957600080fd5b6131d585828601612eee565b90969095509350505050565b600080600080604085870312156131f757600080fd5b843567ffffffffffffffff8082111561320f57600080fd5b61321b88838901612eee565b9096509450602087013591508082111561323457600080fd5b5061324187828801612eee565b95989497509550505050565b60006020828403121561325f57600080fd5b813563ffffffff8116811461071057600080fd5b6020808252825182820181905260009190848201906040850190845b818110156132ab5783518352928401929184019160010161328f565b50909695505050505050565b600060208083528351808285015260005b818110156132e4578581018301518582016040015282016132c8565b818111156132f6576000604083870101525b50601f01601f1916929092016040019392505050565b60006001600160e01b0380831681851680830382111561332e5761332e6134fb565b01949350505050565b600062ffffff80831681851680830382111561332e5761332e6134fb565b60008219821115613368576133686134fb565b500190565b600064ffffffffff80831681851680830382111561332e5761332e6134fb565b60006001600160e01b03808416806133a7576133a7613511565b92169190910492915050565b6000826133c2576133c2613511565b500490565b60006001600160d01b03808316818516818304811182151516156133ed576133ed6134fb565b02949350505050565b60006001600160e01b03808316818516818304811182151516156133ed576133ed6134fb565b6000816000190483118215151615613436576134366134fb565b500290565b60006001600160e01b038381169083168181101561345b5761345b6134fb565b039392505050565b600082821015613475576134756134fb565b500390565b600063ffffffff8381169083168181101561345b5761345b6134fb565b600181811c908216806134ab57607f821691505b60208210811415611dbf57634e487b7160e01b600052602260045260246000fd5b60006000198214156134e0576134e06134fb565b5060010190565b6000826134f6576134f6613511565b500690565b634e487b7160e01b600052601160045260246000fd5b634e487b7160e01b600052601260045260246000fd5b634e487b7160e01b600052602160045260246000fd5b634e487b7160e01b600052603260045260246000fd5b634e487b7160e01b600052604160045260246000fdfe45524332303a206275726e20616d6f756e7420657863656564732062616c616e6365a2646970667358221220f35e835e24ecc0aed7c5a45255c75d832aebff714e97eff644e79ace347d2f4b64736f6c63430008060033",
  "devdoc": {
    "author": "PoolTogether Inc Team",
    "kind": "dev",
    "methods": {
      "DOMAIN_SEPARATOR()": {
        "details": "See {IERC20Permit-DOMAIN_SEPARATOR}."
      },
      "allowance(address,address)": {
        "details": "See {IERC20-allowance}."
      },
      "approve(address,uint256)": {
        "details": "See {IERC20-approve}. Requirements: - `spender` cannot be the zero address."
      },
      "balanceOf(address)": {
        "details": "Returns the amount of tokens owned by `account`."
      },
      "constructor": {
        "params": {
          "_controller": "ERC20 ticket controller address (ie: Prize Pool address).",
          "_name": "ERC20 ticket token name.",
          "_symbol": "ERC20 ticket token symbol.",
          "decimals_": "ERC20 ticket token decimals."
        }
      },
      "controllerBurn(address,uint256)": {
        "details": "May be overridden to provide more granular control over burning",
        "params": {
          "_amount": "Amount of tokens to burn",
          "_user": "Address of the holder account to burn tokens from"
        }
      },
      "controllerBurnFrom(address,address,uint256)": {
        "details": "May be overridden to provide more granular control over operator-burning",
        "params": {
          "_amount": "Amount of tokens to burn",
          "_operator": "Address of the operator performing the burn action via the controller contract",
          "_user": "Address of the holder account to burn tokens from"
        }
      },
      "controllerMint(address,uint256)": {
        "details": "May be overridden to provide more granular control over minting",
        "params": {
          "_amount": "Amount of tokens to mint",
          "_user": "Address of the receiver of the minted tokens"
        }
      },
      "decimals()": {
        "details": "This value should be equal to the decimals of the token used to deposit into the pool.",
        "returns": {
          "_0": "uint8 decimals."
        }
      },
      "decreaseAllowance(address,uint256)": {
        "details": "Atomically decreases the allowance granted to `spender` by the caller. This is an alternative to {approve} that can be used as a mitigation for problems described in {IERC20-approve}. Emits an {Approval} event indicating the updated allowance. Requirements: - `spender` cannot be the zero address. - `spender` must have allowance for the caller of at least `subtractedValue`."
      },
      "delegate(address)": {
        "details": "Transfers (including mints) trigger the storage of a TWAB in delegatee(s) account, instead of the targetted sender and/or recipient address(s).\"to\" reset the delegatee use zero address (0x000.000) ",
        "params": {
          "to": "Receipient of delegated TWAB"
        }
      },
      "delegateOf(address)": {
        "params": {
          "user": "Address"
        }
      },
      "getAccountDetails(address)": {
        "params": {
          "user": "The user for whom to fetch the TWAB context"
        },
        "returns": {
          "_0": "The TWAB context, which includes { balance, nextTwabIndex, cardinality }"
        }
      },
      "getAverageBalanceBetween(address,uint256,uint256)": {
        "params": {
          "endTime": "The end time of the time frame.",
          "startTime": "The start time of the time frame.",
          "user": "The user whose balance is checked"
        },
        "returns": {
          "_0": "The average balance that the user held during the time frame."
        }
      },
      "getAverageBalancesBetween(address,uint32[],uint32[])": {
        "params": {
          "endTimes": "The end time of the time frame.",
          "startTimes": "The start time of the time frame.",
          "user": "The user whose balance is checked"
        },
        "returns": {
          "_0": "The average balance that the user held during the time frame."
        }
      },
      "getAverageTotalSuppliesBetween(uint32[],uint32[])": {
        "params": {
          "endTimes": "Array of end times",
          "startTimes": "Array of start times"
        },
        "returns": {
          "_0": "The average total supplies held during the time frame."
        }
      },
      "getBalanceAt(address,uint256)": {
        "params": {
          "timestamp": "Timestamp at which the reserved TWAB should be for.",
          "user": "Address of the user whose TWAB is being fetched."
        }
      },
      "getBalancesAt(address,uint32[])": {
        "params": {
          "timestamps": "Timestamps at which the reserved TWABs should be for.",
          "user": "Address of the user whose TWABs are being fetched."
        },
        "returns": {
          "_0": "uint256[] `_user` TWAB balances."
        }
      },
      "getTotalSuppliesAt(uint32[])": {
        "params": {
          "timestamps": "Timestamp"
        },
        "returns": {
          "_0": "The"
        }
      },
      "getTotalSupplyAt(uint32)": {
        "params": {
          "timestamp": "Timestamp"
        },
        "returns": {
          "_0": "The"
        }
      },
      "getTwab(address,uint16)": {
        "params": {
          "index": "The index of the TWAB to fetch",
          "user": "The user for whom to fetch the TWAB"
        },
        "returns": {
          "_0": "The TWAB, which includes the twab amount and the timestamp."
        }
      },
      "increaseAllowance(address,uint256)": {
        "details": "Atomically increases the allowance granted to `spender` by the caller. This is an alternative to {approve} that can be used as a mitigation for problems described in {IERC20-approve}. Emits an {Approval} event indicating the updated allowance. Requirements: - `spender` cannot be the zero address."
      },
      "name()": {
        "details": "Returns the name of the token."
      },
      "nonces(address)": {
        "details": "See {IERC20Permit-nonces}."
      },
      "permit(address,address,uint256,uint256,uint8,bytes32,bytes32)": {
        "details": "See {IERC20Permit-permit}."
      },
      "symbol()": {
        "details": "Returns the symbol of the token, usually a shorter version of the name."
      },
      "totalSupply()": {
        "details": "Returns the amount of tokens in existence."
      },
      "transfer(address,uint256)": {
        "details": "See {IERC20-transfer}. Requirements: - `recipient` cannot be the zero address. - the caller must have a balance of at least `amount`."
      },
      "transferFrom(address,address,uint256)": {
        "details": "See {IERC20-transferFrom}. Emits an {Approval} event indicating the updated allowance. This is not required by the EIP. See the note at the beginning of {ERC20}. Requirements: - `sender` and `recipient` cannot be the zero address. - `sender` must have a balance of at least `amount`. - the caller must have allowance for ``sender``'s tokens of at least `amount`."
      }
    },
    "title": "PoolTogether V4 Ticket",
    "version": 1
  },
  "userdoc": {
    "events": {
      "NewTotalSupplyTwab((uint224,uint32))": {
        "notice": "Emitted when a new total supply TWAB has been recorded."
      },
      "NewUserTwab(address,address,(uint224,uint32))": {
        "notice": "Emitted when a new TWAB has been recorded."
      },
      "TicketInitialized(string,string,uint8,address)": {
        "notice": "Emitted when ticket is initialized."
      }
    },
    "kind": "user",
    "methods": {
      "constructor": {
        "notice": "Constructs Ticket with passed parameters."
      },
      "controller()": {
        "notice": "Interface to the contract responsible for controlling mint/burn"
      },
      "controllerBurn(address,uint256)": {
        "notice": "Allows the controller to burn tokens from a user account"
      },
      "controllerBurnFrom(address,address,uint256)": {
        "notice": "Allows an operator via the controller to burn tokens on behalf of a user account"
      },
      "controllerMint(address,uint256)": {
        "notice": "Allows the controller to mint tokens for a user account"
      },
      "decimals()": {
        "notice": "Returns the ERC20 controlled token decimals."
      },
      "delegate(address)": {
        "notice": "Delegate time-weighted average balances to an alternative address."
      },
      "delegateOf(address)": {
        "notice": "ADD DOCS"
      },
      "getAccountDetails(address)": {
        "notice": "Gets a users twab context.  This is a struct with their balance, next twab index, and cardinality."
      },
      "getAverageBalanceBetween(address,uint256,uint256)": {
        "notice": "Calculates the average balance held by a user for a given time frame."
      },
      "getAverageBalancesBetween(address,uint32[],uint32[])": {
        "notice": "Calculates the average balance held by a user for a given time frame."
      },
      "getAverageTotalSuppliesBetween(uint32[],uint32[])": {
        "notice": "Calculates the average total supply balance for a set of given time frames."
      },
      "getBalanceAt(address,uint256)": {
        "notice": "Retrieves `_user` TWAB balance."
      },
      "getBalancesAt(address,uint32[])": {
        "notice": "Retrieves `_user` TWAB balances."
      },
      "getTotalSuppliesAt(uint32[])": {
        "notice": "Calculates the average total supply balance for a set of a given time frame."
      },
      "getTotalSupplyAt(uint32)": {
        "notice": "Calculates the average total supply balance for a set of a given time frame."
      },
      "getTwab(address,uint16)": {
        "notice": "Gets the TWAB at a specific index for a user."
      }
    },
    "notice": "The Ticket extends the standard ERC20 and ControlledToken interfaces with time-weighed average balance functionality. The TWAB (time-weighed average balance) enables contract-to-contract lookups of a user's average balance between timestamps. The timestamp/balance checkpoints are stored in a ring buffer for each user Account. Historical searches of a TWAB(s) are limited to the storage of these checkpoints. A user's average balance can be delegated to an alternative address. When delegating the average weighted balance is added to the delegatee TWAB lookup and removed from the delegaters TWAB lookup.",
    "version": 1
  },
  "storageLayout": {
    "storage": [
      {
        "astId": 55,
        "contract": "@pooltogether/v4-core/contracts/Ticket.sol:Ticket",
        "label": "_balances",
        "offset": 0,
        "slot": "0",
        "type": "t_mapping(t_address,t_uint256)"
      },
      {
        "astId": 61,
        "contract": "@pooltogether/v4-core/contracts/Ticket.sol:Ticket",
        "label": "_allowances",
        "offset": 0,
        "slot": "1",
        "type": "t_mapping(t_address,t_mapping(t_address,t_uint256))"
      },
      {
        "astId": 63,
        "contract": "@pooltogether/v4-core/contracts/Ticket.sol:Ticket",
        "label": "_totalSupply",
        "offset": 0,
        "slot": "2",
        "type": "t_uint256"
      },
      {
        "astId": 65,
        "contract": "@pooltogether/v4-core/contracts/Ticket.sol:Ticket",
        "label": "_name",
        "offset": 0,
        "slot": "3",
        "type": "t_string_storage"
      },
      {
        "astId": 67,
        "contract": "@pooltogether/v4-core/contracts/Ticket.sol:Ticket",
        "label": "_symbol",
        "offset": 0,
        "slot": "4",
        "type": "t_string_storage"
      },
      {
        "astId": 711,
        "contract": "@pooltogether/v4-core/contracts/Ticket.sol:Ticket",
        "label": "_nonces",
        "offset": 0,
        "slot": "5",
        "type": "t_mapping(t_address,t_struct(Counter)1576_storage)"
      },
      {
        "astId": 3398,
        "contract": "@pooltogether/v4-core/contracts/Ticket.sol:Ticket",
        "label": "controller",
        "offset": 0,
        "slot": "6",
        "type": "t_address"
      },
      {
        "astId": 7224,
        "contract": "@pooltogether/v4-core/contracts/Ticket.sol:Ticket",
        "label": "userTwabs",
        "offset": 0,
        "slot": "7",
        "type": "t_mapping(t_address,t_struct(Account)10105_storage)"
      },
      {
        "astId": 7228,
        "contract": "@pooltogether/v4-core/contracts/Ticket.sol:Ticket",
        "label": "totalSupplyTwab",
        "offset": 0,
        "slot": "8",
        "type": "t_struct(Account)10105_storage"
      },
      {
        "astId": 7233,
        "contract": "@pooltogether/v4-core/contracts/Ticket.sol:Ticket",
        "label": "delegates",
        "offset": 0,
        "slot": "16777224",
        "type": "t_mapping(t_address,t_address)"
      },
      {
        "astId": 7238,
        "contract": "@pooltogether/v4-core/contracts/Ticket.sol:Ticket",
        "label": "balances",
        "offset": 0,
        "slot": "16777225",
        "type": "t_mapping(t_address,t_uint256)"
      }
    ],
    "types": {
      "t_address": {
        "encoding": "inplace",
        "label": "address",
        "numberOfBytes": "20"
      },
      "t_array(t_struct(Observation)9677_storage)16777215_storage": {
        "base": "t_struct(Observation)9677_storage",
        "encoding": "inplace",
        "label": "struct ObservationLib.Observation[16777215]",
        "numberOfBytes": "536870880"
      },
      "t_mapping(t_address,t_address)": {
        "encoding": "mapping",
        "key": "t_address",
        "label": "mapping(address => address)",
        "numberOfBytes": "32",
        "value": "t_address"
      },
      "t_mapping(t_address,t_mapping(t_address,t_uint256))": {
        "encoding": "mapping",
        "key": "t_address",
        "label": "mapping(address => mapping(address => uint256))",
        "numberOfBytes": "32",
        "value": "t_mapping(t_address,t_uint256)"
      },
      "t_mapping(t_address,t_struct(Account)10105_storage)": {
        "encoding": "mapping",
        "key": "t_address",
        "label": "mapping(address => struct TwabLib.Account)",
        "numberOfBytes": "32",
        "value": "t_struct(Account)10105_storage"
      },
      "t_mapping(t_address,t_struct(Counter)1576_storage)": {
        "encoding": "mapping",
        "key": "t_address",
        "label": "mapping(address => struct Counters.Counter)",
        "numberOfBytes": "32",
        "value": "t_struct(Counter)1576_storage"
      },
      "t_mapping(t_address,t_uint256)": {
        "encoding": "mapping",
        "key": "t_address",
        "label": "mapping(address => uint256)",
        "numberOfBytes": "32",
        "value": "t_uint256"
      },
      "t_string_storage": {
        "encoding": "bytes",
        "label": "string",
        "numberOfBytes": "32"
      },
      "t_struct(Account)10105_storage": {
        "encoding": "inplace",
        "label": "struct TwabLib.Account",
        "members": [
          {
            "astId": 10099,
            "contract": "@pooltogether/v4-core/contracts/Ticket.sol:Ticket",
            "label": "details",
            "offset": 0,
            "slot": "0",
            "type": "t_struct(AccountDetails)10096_storage"
          },
          {
            "astId": 10104,
            "contract": "@pooltogether/v4-core/contracts/Ticket.sol:Ticket",
            "label": "twabs",
            "offset": 0,
            "slot": "1",
            "type": "t_array(t_struct(Observation)9677_storage)16777215_storage"
          }
        ],
        "numberOfBytes": "536870912"
      },
      "t_struct(AccountDetails)10096_storage": {
        "encoding": "inplace",
        "label": "struct TwabLib.AccountDetails",
        "members": [
          {
            "astId": 10091,
            "contract": "@pooltogether/v4-core/contracts/Ticket.sol:Ticket",
            "label": "balance",
            "offset": 0,
            "slot": "0",
            "type": "t_uint208"
          },
          {
            "astId": 10093,
            "contract": "@pooltogether/v4-core/contracts/Ticket.sol:Ticket",
            "label": "nextTwabIndex",
            "offset": 26,
            "slot": "0",
            "type": "t_uint24"
          },
          {
            "astId": 10095,
            "contract": "@pooltogether/v4-core/contracts/Ticket.sol:Ticket",
            "label": "cardinality",
            "offset": 29,
            "slot": "0",
            "type": "t_uint24"
          }
        ],
        "numberOfBytes": "32"
      },
      "t_struct(Counter)1576_storage": {
        "encoding": "inplace",
        "label": "struct Counters.Counter",
        "members": [
          {
            "astId": 1575,
            "contract": "@pooltogether/v4-core/contracts/Ticket.sol:Ticket",
            "label": "_value",
            "offset": 0,
            "slot": "0",
            "type": "t_uint256"
          }
        ],
        "numberOfBytes": "32"
      },
      "t_struct(Observation)9677_storage": {
        "encoding": "inplace",
        "label": "struct ObservationLib.Observation",
        "members": [
          {
            "astId": 9674,
            "contract": "@pooltogether/v4-core/contracts/Ticket.sol:Ticket",
            "label": "amount",
            "offset": 0,
            "slot": "0",
            "type": "t_uint224"
          },
          {
            "astId": 9676,
            "contract": "@pooltogether/v4-core/contracts/Ticket.sol:Ticket",
            "label": "timestamp",
            "offset": 28,
            "slot": "0",
            "type": "t_uint32"
          }
        ],
        "numberOfBytes": "32"
      },
      "t_uint208": {
        "encoding": "inplace",
        "label": "uint208",
        "numberOfBytes": "26"
      },
      "t_uint224": {
        "encoding": "inplace",
        "label": "uint224",
        "numberOfBytes": "28"
      },
      "t_uint24": {
        "encoding": "inplace",
        "label": "uint24",
        "numberOfBytes": "3"
      },
      "t_uint256": {
        "encoding": "inplace",
        "label": "uint256",
        "numberOfBytes": "32"
      },
      "t_uint32": {
        "encoding": "inplace",
        "label": "uint32",
        "numberOfBytes": "4"
      }
    }
  }
}