{
  "address": "0x3938AB5846109479dD5a6C8b4DA8EBd2A196570A",
  "abi": [
    {
      "anonymous": false,
      "inputs": [
        {
          "indexed": true,
          "internalType": "address",
          "name": "owner",
          "type": "address"
        },
        {
          "indexed": true,
          "internalType": "address",
          "name": "spender",
          "type": "address"
        },
        {
          "indexed": false,
          "internalType": "uint256",
          "name": "value",
          "type": "uint256"
        }
      ],
      "name": "Approval",
      "type": "event"
    },
    {
      "anonymous": false,
      "inputs": [
        {
          "indexed": true,
          "internalType": "address",
          "name": "user",
          "type": "address"
        },
        {
          "indexed": true,
          "internalType": "address",
          "name": "delegate",
          "type": "address"
        }
      ],
      "name": "Delegated",
      "type": "event"
    },
    {
      "anonymous": false,
      "inputs": [
        {
          "indexed": false,
          "internalType": "string",
          "name": "_name",
          "type": "string"
        },
        {
          "indexed": false,
          "internalType": "string",
          "name": "_symbol",
          "type": "string"
        },
        {
          "indexed": false,
          "internalType": "uint8",
          "name": "_decimals",
          "type": "uint8"
        },
        {
          "indexed": false,
          "internalType": "address",
          "name": "_controller",
          "type": "address"
        }
      ],
      "name": "Initialized",
      "type": "event"
    },
    {
      "anonymous": false,
      "inputs": [
        {
          "components": [
            {
              "internalType": "uint224",
              "name": "amount",
              "type": "uint224"
            },
            {
              "internalType": "uint32",
              "name": "timestamp",
              "type": "uint32"
            }
          ],
          "indexed": false,
          "internalType": "struct TwabLibrary.Twab",
          "name": "newTotalSupplyTwab",
          "type": "tuple"
        }
      ],
      "name": "NewTotalSupplyTwab",
      "type": "event"
    },
    {
      "anonymous": false,
      "inputs": [
        {
          "indexed": true,
          "internalType": "address",
          "name": "ticketHolder",
          "type": "address"
        },
        {
          "indexed": true,
          "internalType": "address",
          "name": "user",
          "type": "address"
        },
        {
          "components": [
            {
              "internalType": "uint224",
              "name": "amount",
              "type": "uint224"
            },
            {
              "internalType": "uint32",
              "name": "timestamp",
              "type": "uint32"
            }
          ],
          "indexed": false,
          "internalType": "struct TwabLibrary.Twab",
          "name": "newTwab",
          "type": "tuple"
        }
      ],
      "name": "NewUserTwab",
      "type": "event"
    },
    {
      "anonymous": false,
      "inputs": [
        {
          "indexed": false,
          "internalType": "string",
          "name": "name",
          "type": "string"
        },
        {
          "indexed": false,
          "internalType": "string",
          "name": "symbol",
          "type": "string"
        },
        {
          "indexed": false,
          "internalType": "uint8",
          "name": "decimals",
          "type": "uint8"
        },
        {
          "indexed": false,
          "internalType": "address",
          "name": "controller",
          "type": "address"
        }
      ],
      "name": "TicketInitialized",
      "type": "event"
    },
    {
      "anonymous": false,
      "inputs": [
        {
          "indexed": true,
          "internalType": "address",
          "name": "from",
          "type": "address"
        },
        {
          "indexed": true,
          "internalType": "address",
          "name": "to",
          "type": "address"
        },
        {
          "indexed": false,
          "internalType": "uint256",
          "name": "value",
          "type": "uint256"
        }
      ],
      "name": "Transfer",
      "type": "event"
    },
    {
      "inputs": [],
      "name": "DOMAIN_SEPARATOR",
      "outputs": [
        {
          "internalType": "bytes32",
          "name": "",
          "type": "bytes32"
        }
      ],
      "stateMutability": "view",
      "type": "function"
    },
    {
      "inputs": [],
      "name": "MAX_CARDINALITY",
      "outputs": [
        {
          "internalType": "uint16",
          "name": "",
          "type": "uint16"
        }
      ],
      "stateMutability": "view",
      "type": "function"
    },
    {
      "inputs": [],
      "name": "TWAB_TIME_TO_LIVE",
      "outputs": [
        {
          "internalType": "uint32",
          "name": "",
          "type": "uint32"
        }
      ],
      "stateMutability": "view",
      "type": "function"
    },
    {
      "inputs": [
        {
          "internalType": "address",
          "name": "owner",
          "type": "address"
        },
        {
          "internalType": "address",
          "name": "spender",
          "type": "address"
        }
      ],
      "name": "allowance",
      "outputs": [
        {
          "internalType": "uint256",
          "name": "",
          "type": "uint256"
        }
      ],
      "stateMutability": "view",
      "type": "function"
    },
    {
      "inputs": [
        {
          "internalType": "address",
          "name": "spender",
          "type": "address"
        },
        {
          "internalType": "uint256",
          "name": "amount",
          "type": "uint256"
        }
      ],
      "name": "approve",
      "outputs": [
        {
          "internalType": "bool",
          "name": "",
          "type": "bool"
        }
      ],
      "stateMutability": "nonpayable",
      "type": "function"
    },
    {
      "inputs": [
        {
          "internalType": "address",
          "name": "_user",
          "type": "address"
        }
      ],
      "name": "balanceOf",
      "outputs": [
        {
          "internalType": "uint256",
          "name": "",
          "type": "uint256"
        }
      ],
      "stateMutability": "view",
      "type": "function"
    },
    {
      "inputs": [],
      "name": "controller",
      "outputs": [
        {
          "internalType": "address",
          "name": "",
          "type": "address"
        }
      ],
      "stateMutability": "view",
      "type": "function"
    },
    {
      "inputs": [
        {
          "internalType": "address",
          "name": "_user",
          "type": "address"
        },
        {
          "internalType": "uint256",
          "name": "_amount",
          "type": "uint256"
        }
      ],
      "name": "controllerBurn",
      "outputs": [],
      "stateMutability": "nonpayable",
      "type": "function"
    },
    {
      "inputs": [
        {
          "internalType": "address",
          "name": "_operator",
          "type": "address"
        },
        {
          "internalType": "address",
          "name": "_user",
          "type": "address"
        },
        {
          "internalType": "uint256",
          "name": "_amount",
          "type": "uint256"
        }
      ],
      "name": "controllerBurnFrom",
      "outputs": [],
      "stateMutability": "nonpayable",
      "type": "function"
    },
    {
      "inputs": [
        {
          "internalType": "address",
          "name": "_user",
          "type": "address"
        },
        {
          "internalType": "uint256",
          "name": "_amount",
          "type": "uint256"
        }
      ],
      "name": "controllerMint",
      "outputs": [],
      "stateMutability": "nonpayable",
      "type": "function"
    },
    {
      "inputs": [],
      "name": "decimals",
      "outputs": [
        {
          "internalType": "uint8",
          "name": "",
          "type": "uint8"
        }
      ],
      "stateMutability": "view",
      "type": "function"
    },
    {
      "inputs": [
        {
          "internalType": "address",
          "name": "spender",
          "type": "address"
        },
        {
          "internalType": "uint256",
          "name": "subtractedValue",
          "type": "uint256"
        }
      ],
      "name": "decreaseAllowance",
      "outputs": [
        {
          "internalType": "bool",
          "name": "",
          "type": "bool"
        }
      ],
      "stateMutability": "nonpayable",
      "type": "function"
    },
    {
      "inputs": [
        {
          "internalType": "address",
          "name": "to",
          "type": "address"
        }
      ],
      "name": "delegate",
      "outputs": [],
      "stateMutability": "nonpayable",
      "type": "function"
    },
    {
      "inputs": [
        {
          "internalType": "address",
          "name": "_user",
          "type": "address"
        }
      ],
      "name": "delegateOf",
      "outputs": [
        {
          "internalType": "address",
          "name": "",
          "type": "address"
        }
      ],
      "stateMutability": "view",
      "type": "function"
    },
    {
      "inputs": [
        {
          "internalType": "address",
          "name": "_user",
          "type": "address"
        }
      ],
      "name": "getAccountDetails",
      "outputs": [
        {
          "components": [
            {
              "internalType": "uint224",
              "name": "balance",
              "type": "uint224"
            },
            {
              "internalType": "uint16",
              "name": "nextTwabIndex",
              "type": "uint16"
            },
            {
              "internalType": "uint16",
              "name": "cardinality",
              "type": "uint16"
            }
          ],
          "internalType": "struct Ticket.AccountDetails",
          "name": "",
          "type": "tuple"
        }
      ],
      "stateMutability": "view",
      "type": "function"
    },
    {
      "inputs": [
        {
          "internalType": "address",
          "name": "_user",
          "type": "address"
        },
        {
          "internalType": "uint256",
          "name": "_startTime",
          "type": "uint256"
        },
        {
          "internalType": "uint256",
          "name": "_endTime",
          "type": "uint256"
        }
      ],
      "name": "getAverageBalanceBetween",
      "outputs": [
        {
          "internalType": "uint256",
          "name": "",
          "type": "uint256"
        }
      ],
      "stateMutability": "view",
      "type": "function"
    },
    {
      "inputs": [
        {
          "internalType": "address",
          "name": "_user",
          "type": "address"
        },
        {
          "internalType": "uint256",
          "name": "_target",
          "type": "uint256"
        }
      ],
      "name": "getBalanceAt",
      "outputs": [
        {
          "internalType": "uint256",
          "name": "",
          "type": "uint256"
        }
      ],
      "stateMutability": "view",
      "type": "function"
    },
    {
      "inputs": [
        {
          "internalType": "address",
          "name": "_user",
          "type": "address"
        },
        {
          "internalType": "uint32[]",
          "name": "_targets",
          "type": "uint32[]"
        }
      ],
      "name": "getBalancesAt",
      "outputs": [
        {
          "internalType": "uint256[]",
          "name": "",
          "type": "uint256[]"
        }
      ],
      "stateMutability": "view",
      "type": "function"
    },
    {
      "inputs": [
        {
          "internalType": "uint32[]",
          "name": "_targets",
          "type": "uint32[]"
        }
      ],
      "name": "getTotalSupplies",
      "outputs": [
        {
          "internalType": "uint256[]",
          "name": "",
          "type": "uint256[]"
        }
      ],
      "stateMutability": "view",
      "type": "function"
    },
    {
      "inputs": [
        {
          "internalType": "uint32",
          "name": "_target",
          "type": "uint32"
        }
      ],
      "name": "getTotalSupply",
      "outputs": [
        {
          "internalType": "uint256",
          "name": "",
          "type": "uint256"
        }
      ],
      "stateMutability": "view",
      "type": "function"
    },
    {
      "inputs": [
        {
          "internalType": "address",
          "name": "_user",
          "type": "address"
        },
        {
          "internalType": "uint16",
          "name": "_index",
          "type": "uint16"
        }
      ],
      "name": "getTwab",
      "outputs": [
        {
          "components": [
            {
              "internalType": "uint224",
              "name": "amount",
              "type": "uint224"
            },
            {
              "internalType": "uint32",
              "name": "timestamp",
              "type": "uint32"
            }
          ],
          "internalType": "struct TwabLibrary.Twab",
          "name": "",
          "type": "tuple"
        }
      ],
      "stateMutability": "view",
      "type": "function"
    },
    {
      "inputs": [
        {
          "internalType": "address",
          "name": "spender",
          "type": "address"
        },
        {
          "internalType": "uint256",
          "name": "addedValue",
          "type": "uint256"
        }
      ],
      "name": "increaseAllowance",
      "outputs": [
        {
          "internalType": "bool",
          "name": "",
          "type": "bool"
        }
      ],
      "stateMutability": "nonpayable",
      "type": "function"
    },
    {
      "inputs": [
        {
          "internalType": "string",
          "name": "_name",
          "type": "string"
        },
        {
          "internalType": "string",
          "name": "_symbol",
          "type": "string"
        },
        {
          "internalType": "uint8",
          "name": "decimals_",
          "type": "uint8"
        },
        {
          "internalType": "address",
          "name": "_controller",
          "type": "address"
        }
      ],
      "name": "initialize",
      "outputs": [],
      "stateMutability": "nonpayable",
      "type": "function"
    },
    {
      "inputs": [],
      "name": "name",
      "outputs": [
        {
          "internalType": "string",
          "name": "",
          "type": "string"
        }
      ],
      "stateMutability": "view",
      "type": "function"
    },
    {
      "inputs": [
        {
          "internalType": "address",
          "name": "owner",
          "type": "address"
        }
      ],
      "name": "nonces",
      "outputs": [
        {
          "internalType": "uint256",
          "name": "",
          "type": "uint256"
        }
      ],
      "stateMutability": "view",
      "type": "function"
    },
    {
      "inputs": [
        {
          "internalType": "address",
          "name": "owner",
          "type": "address"
        },
        {
          "internalType": "address",
          "name": "spender",
          "type": "address"
        },
        {
          "internalType": "uint256",
          "name": "value",
          "type": "uint256"
        },
        {
          "internalType": "uint256",
          "name": "deadline",
          "type": "uint256"
        },
        {
          "internalType": "uint8",
          "name": "v",
          "type": "uint8"
        },
        {
          "internalType": "bytes32",
          "name": "r",
          "type": "bytes32"
        },
        {
          "internalType": "bytes32",
          "name": "s",
          "type": "bytes32"
        }
      ],
      "name": "permit",
      "outputs": [],
      "stateMutability": "nonpayable",
      "type": "function"
    },
    {
      "inputs": [],
      "name": "symbol",
      "outputs": [
        {
          "internalType": "string",
          "name": "",
          "type": "string"
        }
      ],
      "stateMutability": "view",
      "type": "function"
    },
    {
      "inputs": [],
      "name": "totalSupply",
      "outputs": [
        {
          "internalType": "uint256",
          "name": "",
          "type": "uint256"
        }
      ],
      "stateMutability": "view",
      "type": "function"
    },
    {
      "inputs": [
        {
          "internalType": "address",
          "name": "recipient",
          "type": "address"
        },
        {
          "internalType": "uint256",
          "name": "amount",
          "type": "uint256"
        }
      ],
      "name": "transfer",
      "outputs": [
        {
          "internalType": "bool",
          "name": "",
          "type": "bool"
        }
      ],
      "stateMutability": "nonpayable",
      "type": "function"
    },
    {
      "inputs": [
        {
          "internalType": "address",
          "name": "sender",
          "type": "address"
        },
        {
          "internalType": "address",
          "name": "recipient",
          "type": "address"
        },
        {
          "internalType": "uint256",
          "name": "amount",
          "type": "uint256"
        }
      ],
      "name": "transferFrom",
      "outputs": [
        {
          "internalType": "bool",
          "name": "",
          "type": "bool"
        }
      ],
      "stateMutability": "nonpayable",
      "type": "function"
    }
  ],
  "transactionHash": "0x1fa2467a0d72a5c66ee1a13a2c2ed31c349201b00c05060200efbae814b9a506",
  "args": [],
  "solcInputHash": "eb7a0e30f615ca63f4ada054592e23a2",
  "bytecode": "0x608060405234801561001057600080fd5b50613fbb806100206000396000f3fe608060405234801561001057600080fd5b50600436106101da5760003560e01c8063631b5dfb1161010457806395d89b41116100a2578063d505accf11610071578063d505accf146104f9578063dd62ed3e1461050c578063de7ea79d14610545578063f77c47911461055857600080fd5b806395d89b41146104b8578063a457c2d7146104c0578063a9059cbb146104d3578063cf42dca8146104e657600080fd5b80638200d873116100de5780638200d873146104305780638d22ea2a1461044c5780638f02fee41461049257806390596dd1146104a557600080fd5b8063631b5dfb146103f757806370a082311461040a5780637ecebe001461041d57600080fd5b80633613f9211161017c578063405e22ad1161014b578063405e22ad1461039c5780634382b0f6146103bc5780635c19a95c146103cf5780635d7b0758146103e457600080fd5b80633613f921146103255780633644e5151461034457806336bb2a381461034c578063395093511461038957600080fd5b806323b872dd116101b857806323b872dd1461023b57806326ca8adb1461024e5780632aceb53414610261578063313ce5671461031057600080fd5b806306fdde03146101df578063095ea7b3146101fd57806318160ddd14610220575b600080fd5b6101e761056b565b6040516101f49190613cc8565b60405180910390f35b61021061020b366004613a6a565b6105fd565b60405190151581526020016101f4565b60cf546001600160e01b03165b6040519081526020016101f4565b610210610249366004613933565b610614565b61022d61025c366004613a6a565b6106da565b6102d961026f3660046138e5565b6040805160608082018352600080835260208084018290529284018190526001600160a01b0394909416845260cd82529282902082519384018352546001600160e01b038116845261ffff600160e01b8204811692850192909252600160f01b9004169082015290565b6040805182516001600160e01b0316815260208084015161ffff9081169183019190915292820151909216908201526060016101f4565b60ce5460405160ff90911681526020016101f4565b61032f62dd7c0081565b60405163ffffffff90911681526020016101f4565b61022d610747565b61035f61035a366004613a2c565b610756565b6040805182516001600160e01b0316815260209283015163ffffffff1692810192909252016101f4565b610210610397366004613a6a565b6107cc565b6103af6103aa3660046139d9565b610808565b6040516101f49190613c37565b61022d6103ca366004613b99565b610928565b6103e26103dd3660046138e5565b610978565b005b6103e26103f2366004613a6a565b610a83565b6103e2610405366004613933565b610af4565b61022d6104183660046138e5565b610bc1565b61022d61042b3660046138e5565b610be1565b61043961ffff81565b60405161ffff90911681526020016101f4565b61047a61045a3660046138e5565b6001600160a01b039081166000908152620100cf60205260409020541690565b6040516001600160a01b0390911681526020016101f4565b61022d6104a0366004613a94565b610bff565b6103e26104b3366004613a6a565b610c6e565b6101e7610cdb565b6102106104ce366004613a6a565b610cea565b6102106104e1366004613a6a565b610d9b565b6103af6104f4366004613ac7565b610da8565b6103e261050736600461396f565b610e8a565b61022d61051a366004613900565b6001600160a01b03918216600090815260346020908152604080832093909416825291909152205490565b6103e2610553366004613b09565b610fd0565b60cc5461047a906001600160a01b031681565b60606036805461057a90613ea7565b80601f01602080910402602001604051908101604052809291908181526020018280546105a690613ea7565b80156105f35780601f106105c8576101008083540402835291602001916105f3565b820191906000526020600020905b8154815290600101906020018083116105d657829003601f168201915b5050505050905090565b600061060a3384846112f2565b5060015b92915050565b600061062184848461144a565b6001600160a01b0384166000908152603460209081526040808320338452909152902054828110156106c05760405162461bcd60e51b815260206004820152602860248201527f45524332303a207472616e7366657220616d6f756e742065786365656473206160448201527f6c6c6f77616e636500000000000000000000000000000000000000000000000060648201526084015b60405180910390fd5b6106cd85338584036112f2565b60019150505b9392505050565b6001600160a01b038216600090815260cd60209081526040808320815160608101835281546001600160e01b038116825261ffff600160e01b8204811695830195909552600160f01b9004909316918301919091529061073f90600183019085611723565b949350505050565b600061075161173f565b905090565b60408051808201909152600080825260208201526001600160a01b038316600090815260cd6020526040902060010161ffff80841690811061079a5761079a613f37565b604080518082019091529101546001600160e01b0381168252600160e01b900463ffffffff1660208201529392505050565b3360008181526034602090815260408083206001600160a01b0387168452909152812054909161060a918590610803908690613d6c565b6112f2565b60608160008167ffffffffffffffff81111561082657610826613f4d565b60405190808252806020026020018201604052801561084f578160200160208202803683370190505b506001600160a01b038716600090815260cd60209081526040808320815160608101835281546001600160e01b038116825261ffff600160e01b8204811695830195909552600160f01b900490931691830191909152929350905b8481101561091b576108ec83600101838a8a858181106108cc576108cc613f37565b90506020020160208101906108e19190613b99565b63ffffffff16611723565b8482815181106108fe576108fe613f37565b60209081029190910101528061091381613edc565b9150506108aa565b5091979650505050505050565b6040805160608101825260cf546001600160e01b038116825261ffff600160e01b820481166020840152600160f01b909104169181019190915260009061060e9060d09063ffffffff8516611723565b336000908152620100d06020908152604080832054620100cf909252909120546001600160a01b031680156109c0576109bb3382846001600160e01b03166117ba565b6109d4565b6109d43333846001600160e01b03166117ba565b6001600160a01b038316156109fc576109f73384846001600160e01b0316611878565b610a10565b610a103333846001600160e01b0316611878565b336000818152620100cf602052604080822080547fffffffffffffffffffffffff0000000000000000000000000000000000000000166001600160a01b03881690811790915590519092917f4bc154dd35d6a5cb9206482ecb473cdbf2473006d6bce728b9cc0741bcc59ea291a3505050565b60cc546001600160a01b0316336001600160a01b031614610ae65760405162461bcd60e51b815260206004820152601f60248201527f436f6e74726f6c6c6564546f6b656e2f6f6e6c792d636f6e74726f6c6c65720060448201526064016106b7565b610af0828261189c565b5050565b60cc546001600160a01b0316336001600160a01b031614610b575760405162461bcd60e51b815260206004820152601f60248201527f436f6e74726f6c6c6564546f6b656e2f6f6e6c792d636f6e74726f6c6c65720060448201526064016106b7565b816001600160a01b0316836001600160a01b031614610bb2576001600160a01b038281166000908152603460209081526040808320938716835292905290812054610ba3908390613e73565b9050610bb08385836112f2565b505b610bbc8282611a3c565b505050565b6001600160a01b0381166000908152620100d0602052604081205461060e565b6001600160a01b03811660009081526099602052604081205461060e565b6001600160a01b038316600090815260cd60209081526040808320815160608101835281546001600160e01b038116825261ffff600160e01b8204811695830195909552600160f01b90049093169183019190915290610c659060018301908686611c96565b95945050505050565b60cc546001600160a01b0316336001600160a01b031614610cd15760405162461bcd60e51b815260206004820152601f60248201527f436f6e74726f6c6c6564546f6b656e2f6f6e6c792d636f6e74726f6c6c65720060448201526064016106b7565b610af08282611a3c565b60606037805461057a90613ea7565b3360009081526034602090815260408083206001600160a01b038616845290915281205482811015610d845760405162461bcd60e51b815260206004820152602560248201527f45524332303a2064656372656173656420616c6c6f77616e63652062656c6f7760448201527f207a65726f00000000000000000000000000000000000000000000000000000060648201526084016106b7565b610d9133858584036112f2565b5060019392505050565b600061060a33848461144a565b60608160008167ffffffffffffffff811115610dc657610dc6613f4d565b604051908082528060200260200182016040528015610def578160200160208202803683370190505b506040805160608101825260cf546001600160e01b038116825261ffff600160e01b820481166020840152600160f01b909104169181019190915290915060005b83811015610e7f57610e5060d0838989858181106108cc576108cc613f37565b838281518110610e6257610e62613f37565b602090810291909101015280610e7781613edc565b915050610e30565b509095945050505050565b83421115610eda5760405162461bcd60e51b815260206004820152601d60248201527f45524332305065726d69743a206578706972656420646561646c696e6500000060448201526064016106b7565b6000609a54888888610eeb8c611cb3565b6040805160208101969096526001600160a01b0394851690860152929091166060840152608083015260a082015260c0810186905260e0016040516020818303038152906040528051906020012090506000610f4682611cdb565b90506000610f5682878787611d44565b9050896001600160a01b0316816001600160a01b031614610fb95760405162461bcd60e51b815260206004820152601e60248201527f45524332305065726d69743a20696e76616c6964207369676e6174757265000060448201526064016106b7565b610fc48a8a8a6112f2565b50505050505050505050565b600054610100900460ff1680610fe9575060005460ff16155b61104c5760405162461bcd60e51b815260206004820152602e60248201527f496e697469616c697a61626c653a20636f6e747261637420697320616c72656160448201526d191e481a5b9a5d1a585b1a5e995960921b60648201526084016106b7565b600054610100900460ff1615801561106e576000805461ffff19166101011790555b6110e187878080601f01602080910402602001604051908101604052809392919081815260200183838082843760009201919091525050604080516020601f8b018190048102820181019092528981529250899150889081908401838280828437600092019190915250611f1a92505050565b61111f6040518060400160405280601381526020017f506f6f6c546f676574686572205469636b657400000000000000000000000000815250611fe0565b60008360ff16116111725760405162461bcd60e51b815260206004820152601760248201527f5469636b65742f646563696d616c732d67742d7a65726f00000000000000000060448201526064016106b7565b60ce80547fffffffffffffffffffffffffffffffffffffffffffffffffffffffffffffff001660ff85161790556001600160a01b03821661121b5760405162461bcd60e51b815260206004820152602260248201527f5469636b65742f636f6e74726f6c6c65722d6e6f742d7a65726f2d616464726560448201527f737300000000000000000000000000000000000000000000000000000000000060648201526084016106b7565b61129687878080601f01602080910402602001604051908101604052809392919081815260200183838082843760009201919091525050604080516020601f8b0181900481028201810190925289815292508991508890819084018382808284376000920191909152505060ce5460ff1691508690506120e3565b7f18bb14f696b97c9ff8d44ac723d7b0663bd32189c6e86b9f4cce10bceccbf4898787878787876040516112cf96959493929190613c7b565b60405180910390a180156112e9576000805461ff00191690555b50505050505050565b6001600160a01b03831661136d5760405162461bcd60e51b8152602060048201526024808201527f45524332303a20617070726f76652066726f6d20746865207a65726f2061646460448201527f726573730000000000000000000000000000000000000000000000000000000060648201526084016106b7565b6001600160a01b0382166113e95760405162461bcd60e51b815260206004820152602260248201527f45524332303a20617070726f766520746f20746865207a65726f20616464726560448201527f737300000000000000000000000000000000000000000000000000000000000060648201526084016106b7565b6001600160a01b0383811660008181526034602090815260408083209487168084529482529182902085905590518481527f8c5be1e5ebec7d5bd14f71427d1e84f3dd0314c0f7b2291e5b200ac8c7c3b925910160405180910390a3505050565b6001600160a01b0383166114c65760405162461bcd60e51b815260206004820152602560248201527f45524332303a207472616e736665722066726f6d20746865207a65726f20616460448201527f647265737300000000000000000000000000000000000000000000000000000060648201526084016106b7565b6001600160a01b0382166115425760405162461bcd60e51b815260206004820152602360248201527f45524332303a207472616e7366657220746f20746865207a65726f206164647260448201527f657373000000000000000000000000000000000000000000000000000000000060648201526084016106b7565b80826001600160a01b0316846001600160a01b0316146116d0576001600160a01b0384166000908152620100d060205260409020546001600160e01b0382168110156115f65760405162461bcd60e51b815260206004820152602660248201527f45524332303a207472616e7366657220616d6f756e742065786365656473206260448201527f616c616e6365000000000000000000000000000000000000000000000000000060648201526084016106b7565b6001600160a01b038086166000908152620100d060205260408082206001600160e01b038616808603909155928716825281208054909190611639908490613d6c565b90915550506001600160a01b038086166000908152620100cf60205260409020541680156116715761166c8682866117ba565b61167c565b61167c8687866117ba565b6001600160a01b038086166000908152620100cf60205260409020541680156116b8576116b38682866001600160e01b0316611878565b6116cc565b6116cc8687866001600160e01b0316611878565b5050505b826001600160a01b0316846001600160a01b03167fddf252ad1be2c89b69c2b068fc378daa952ba7f163c4a11628f55a4df523b3ef8460405161171591815260200190565b60405180910390a350505050565b600061073f83604001518460200151868660000151864261231c565b60006107517f8b73c3c69bb8fe3d512ecc4cf759cc79239f7b179b0ffacaa9a75d522b39400f61176e60655490565b6066546040805160208101859052908101839052606081018290524660808201523060a082015260009060c0016040516020818303038152906040528051906020012090509392505050565b600060cd6000846001600160a01b03166001600160a01b0316815260200190815260200160002090506000806118098385604051806060016040528060228152602001613f6460229139612362565b915091508015611870576040805183516001600160e01b0316815260208085015163ffffffff16908201526001600160a01b0380881692908916917f56bf5251c21af3be0462e65380f02036c247ea4203fda153f3a9c3e7f8f9318d910160405180910390a35b505050505050565b6001600160a01b038216600090815260cd60205260408120908061180983856124d7565b6001600160a01b0382166118f25760405162461bcd60e51b815260206004820152601f60248201527f45524332303a206d696e7420746f20746865207a65726f20616464726573730060448201526064016106b7565b60006118fd82612619565b90506001600160a01b0383166000908152620100d06020526040812080546001600160e01b0384169290611932908490613d6c565b90915550600090508061194f60cf6001600160e01b0385166124d7565b9150915080156119a6576040805183516001600160e01b0316815260208085015163ffffffff16908201527f3375b905d617084fa6b7531688cc8046feb1f1a0b8ba2273de03c59d8d84416c910160405180910390a15b6001600160a01b038086166000908152620100cf60205260409020541680156119e2576119dd8682866001600160e01b0316611878565b6119f6565b6119f68687866001600160e01b0316611878565b6040518581526001600160a01b038716906000907fddf252ad1be2c89b69c2b068fc378daa952ba7f163c4a11628f55a4df523b3ef9060200160405180910390a3611870565b6001600160a01b038216611ab85760405162461bcd60e51b815260206004820152602160248201527f45524332303a206275726e2066726f6d20746865207a65726f2061646472657360448201527f730000000000000000000000000000000000000000000000000000000000000060648201526084016106b7565b6000611ac382612619565b9050600080611af560cf846001600160e01b0316604051806060016040528060228152602001613f6460229139612362565b915091508015611b4c576040805183516001600160e01b0316815260208085015163ffffffff16908201527f3375b905d617084fa6b7531688cc8046feb1f1a0b8ba2273de03c59d8d84416c910160405180910390a15b6001600160a01b0385166000908152620100d060205260409020546001600160e01b038416811015611be65760405162461bcd60e51b815260206004820152602260248201527f45524332303a206275726e20616d6f756e7420657863656564732062616c616e60448201527f636500000000000000000000000000000000000000000000000000000000000060648201526084016106b7565b6001600160a01b038087166000908152620100d0602090815260408083206001600160e01b03891686039055620100cf909152902054168015611c3c57611c378782876001600160e01b03166117ba565b611c50565b611c508788876001600160e01b03166117ba565b6040518681526000906001600160a01b038916907fddf252ad1be2c89b69c2b068fc378daa952ba7f163c4a11628f55a4df523b3ef9060200160405180910390a36112e9565b6000610c658460400151856020015187876000015187874261269c565b6001600160a01b03811660009081526099602052604090208054600181018255905b50919050565b600061060e611ce861173f565b836040517f19010000000000000000000000000000000000000000000000000000000000006020820152602281018390526042810182905260009060620160405160208183030381529060405280519060200120905092915050565b60007f7fffffffffffffffffffffffffffffff5d576e7357a4501ddfe92f46681b20a0821115611ddc5760405162461bcd60e51b815260206004820152602260248201527f45434453413a20696e76616c6964207369676e6174757265202773272076616c60448201527f756500000000000000000000000000000000000000000000000000000000000060648201526084016106b7565b8360ff16601b1480611df157508360ff16601c145b611e635760405162461bcd60e51b815260206004820152602260248201527f45434453413a20696e76616c6964207369676e6174757265202776272076616c60448201527f756500000000000000000000000000000000000000000000000000000000000060648201526084016106b7565b6040805160008082526020820180845288905260ff871692820192909252606081018590526080810184905260019060a0016020604051602081039080840390855afa158015611eb7573d6000803e3d6000fd5b5050604051601f1901519150506001600160a01b038116610c655760405162461bcd60e51b815260206004820152601860248201527f45434453413a20696e76616c6964207369676e6174757265000000000000000060448201526064016106b7565b600054610100900460ff1680611f33575060005460ff16155b611f965760405162461bcd60e51b815260206004820152602e60248201527f496e697469616c697a61626c653a20636f6e747261637420697320616c72656160448201526d191e481a5b9a5d1a585b1a5e995960921b60648201526084016106b7565b600054610100900460ff16158015611fb8576000805461ffff19166101011790555b611fc06126d9565b611fca838361278c565b8015610bbc576000805461ff0019169055505050565b600054610100900460ff1680611ff9575060005460ff16155b61205c5760405162461bcd60e51b815260206004820152602e60248201527f496e697469616c697a61626c653a20636f6e747261637420697320616c72656160448201526d191e481a5b9a5d1a585b1a5e995960921b60648201526084016106b7565b600054610100900460ff1615801561207e576000805461ffff19166101011790555b6120866126d9565b6120c5826040518060400160405280600181526020017f3100000000000000000000000000000000000000000000000000000000000000815250612868565b6120ce82612939565b8015610af0576000805461ff00191690555050565b600054610100900460ff16806120fc575060005460ff16155b61215f5760405162461bcd60e51b815260206004820152602e60248201527f496e697469616c697a61626c653a20636f6e747261637420697320616c72656160448201526d191e481a5b9a5d1a585b1a5e995960921b60648201526084016106b7565b600054610100900460ff16158015612181576000805461ffff19166101011790555b6001600160a01b0382166121fd5760405162461bcd60e51b815260206004820152602360248201527f436f6e74726f6c6c6564546f6b656e2f636f6e74726f6c6c65722d6e6f742d7a60448201527f65726f000000000000000000000000000000000000000000000000000000000060648201526084016106b7565b60cc80547fffffffffffffffffffffffff0000000000000000000000000000000000000000166001600160a01b03841617905561223a8585611f1a565b6122786040518060400160405280601c81526020017f506f6f6c546f67657468657220436f6e74726f6c6c6564546f6b656e00000000815250611fe0565b60cc80547fffffffffffffffffffffff00ffffffffffffffffffffffffffffffffffffffff167401000000000000000000000000000000000000000060ff868116820292909217928390556040517f41bc1176d7b9b7bc036f385a7e5b08b0662a7afa0844af8a599ad431150227e1936122fb938a938a93920416908790613cdb565b60405180910390a18015612315576000805461ff00191690555b5050505050565b60008061232888612a10565b9050600061233a8861ffff1683612a24565b90506123538786886001600160e01b0316848689612a5a565b925050505b9695505050505050565b60408051808201909152600080825260208201526040805160608101825285546001600160e01b03811680835261ffff600160e01b830481166020850152600160f01b909204909116928201929092526000918291829186908811156123db5760405162461bcd60e51b81526004016106b79190613cc8565b506123fc8160000151826020015183604001518b6001014262dd7c00612c28565b6040805160608101909152855192995090975092955090935081906124349061242f908b906001600160e01b0316613e73565b612619565b6001600160e01b03908116825261ffff95861660208084019190915294861660409283015282518b549584015193909201518616600160f01b027dffffffffffffffffffffffffffffffffffffffffffffffffffffffffffff93909616600160e01b027fffff0000000000000000000000000000000000000000000000000000000000009095169116179290921791909116919091179095559094909350915050565b60408051808201909152600080825260208201526040805160608101825284546001600160e01b03811680835261ffff600160e01b8304811660208501819052600160f01b909304169383018490526000938493849390926125449290919060018b014262dd7c00612c28565b6040805160608101909152855192995090975092955090935081906125779061242f908a906001600160e01b0316613d6c565b6001600160e01b03908116825261ffff95861660208084019190915294861660409283015282518a549584015193909201518616600160f01b027dffffffffffffffffffffffffffffffffffffffffffffffffffffffffffff93909616600160e01b027fffff00000000000000000000000000000000000000000000000000000000000090951691161792909217919091169190911790945590939092509050565b60006001600160e01b038211156126985760405162461bcd60e51b815260206004820152602760248201527f53616665436173743a2076616c756520646f65736e27742066697420696e203260448201527f323420626974730000000000000000000000000000000000000000000000000060648201526084016106b7565b5090565b6000806126a889612a10565b905060006126ba8961ffff1683612a24565b90506126cb8888838989878a612c65565b9a9950505050505050505050565b600054610100900460ff16806126f2575060005460ff16155b6127555760405162461bcd60e51b815260206004820152602e60248201527f496e697469616c697a61626c653a20636f6e747261637420697320616c72656160448201526d191e481a5b9a5d1a585b1a5e995960921b60648201526084016106b7565b600054610100900460ff16158015612777576000805461ffff19166101011790555b8015612789576000805461ff00191690555b50565b600054610100900460ff16806127a5575060005460ff16155b6128085760405162461bcd60e51b815260206004820152602e60248201527f496e697469616c697a61626c653a20636f6e747261637420697320616c72656160448201526d191e481a5b9a5d1a585b1a5e995960921b60648201526084016106b7565b600054610100900460ff1615801561282a576000805461ffff19166101011790555b825161283d90603690602086019061379a565b50815161285190603790602085019061379a565b508015610bbc576000805461ff0019169055505050565b600054610100900460ff1680612881575060005460ff16155b6128e45760405162461bcd60e51b815260206004820152602e60248201527f496e697469616c697a61626c653a20636f6e747261637420697320616c72656160448201526d191e481a5b9a5d1a585b1a5e995960921b60648201526084016106b7565b600054610100900460ff16158015612906576000805461ffff19166101011790555b82516020808501919091208351918401919091206065919091556066558015610bbc576000805461ff0019169055505050565b600054610100900460ff1680612952575060005460ff16155b6129b55760405162461bcd60e51b815260206004820152602e60248201527f496e697469616c697a61626c653a20636f6e747261637420697320616c72656160448201526d191e481a5b9a5d1a585b1a5e995960921b60648201526084016106b7565b600054610100900460ff161580156129d7576000805461ffff19166101011790555b7f6e71edae12b1b97f4d1f60370fef10105fa2faae0126114a169c64845d6126c9609a558015610af0576000805461ff00191690555050565b6000808261ffff161161269857600161060e565b600061ffff8216612a375750600061060e565b6106d36001612a4a61ffff851686613d6c565b612a549190613e73565b83612dcc565b6000808263ffffffff168763ffffffff1611612a765786612a78565b825b60408051808201909152600080825260208201529091506000898761ffff1661ffff8110612aa857612aa8613f37565b604080518082019091529101546001600160e01b038116825263ffffffff600160e01b909104811660208301819052919250612ae9919085908890612ddc16565b15612af957879350505050612358565b6000612b13612b09896001613d24565b61ffff1688612dcc565b90508a8161ffff1661ffff8110612b2c57612b2c613f37565b604080518082019091529101546001600160e01b0381168252600160e01b900463ffffffff1660208201819052909250612b8f5750506040805180820190915289546001600160e01b0381168252600160e01b900463ffffffff16602082015260005b612bae8260200151878663ffffffff16612ead9092919063ffffffff16565b15612bc0576000945050505050612358565b612bce8b89838d8b8b612f7c565b81518151919550919350600091612be491613e4b565b9050600083602001518560200151612bfc9190613e8a565b9050612c0e63ffffffff821683613dc3565b6001600160e01b03169d9c50505050505050505050505050565b604080518082019091526000808252602082018190529081906000612c51878b8b8b8a8a613141565b929d919c509a509098509650505050505050565b60008463ffffffff168463ffffffff1611612ce85760405162461bcd60e51b815260206004820152602860248201527f73746172742074696d65206d7573742062652067726561746572207468616e2060448201527f656e642074696d6500000000000000000000000000000000000000000000000060648201526084016106b7565b6000612d02612cf8886001613d24565b61ffff1685612dcc565b90506000898261ffff1661ffff8110612d1d57612d1d613f37565b604080518082019091529101546001600160e01b0381168252600160e01b900463ffffffff1660208201819052909150612d815750506040805180820190915288546001600160e01b0381168252600160e01b900463ffffffff1660208201526000905b6126cb8a8a6040518060a001604052808c61ffff1681526020018661ffff1681526020018b63ffffffff1681526020018a63ffffffff1681526020018961ffff168152508488613249565b60006106d361ffff831684613ef7565b60008163ffffffff168463ffffffff1611158015612e0657508163ffffffff168363ffffffff1611155b15612e22578263ffffffff168463ffffffff16111590506106d3565b60008263ffffffff168563ffffffff1611612e5157612e4c63ffffffff8616640100000000613da3565b612e59565b8463ffffffff165b64ffffffffff16905060008363ffffffff168563ffffffff1611612e9157612e8c63ffffffff8616640100000000613da3565b612e99565b8463ffffffff165b64ffffffffff169091111595945050505050565b60008163ffffffff168463ffffffff1611158015612ed757508163ffffffff168363ffffffff1611155b15612ef2578263ffffffff168463ffffffff161090506106d3565b60008263ffffffff168563ffffffff1611612f2157612f1c63ffffffff8616640100000000613da3565b612f29565b8463ffffffff165b64ffffffffff16905060008363ffffffff168563ffffffff1611612f6157612f5c63ffffffff8616640100000000613da3565b612f69565b8463ffffffff165b64ffffffffff1690911095945050505050565b6040805180820190915260008082526020820152604080518082019091526000808252602082015260008661ffff1690506000818961ffff1610612fc4578861ffff16612fde565b6001612fd461ffff881684613d6c565b612fde9190613e73565b905060005b6002612fef8385613d6c565b612ff99190613de9565b90508a6130068289612dcc565b61ffff1661ffff811061301b5761301b613f37565b604080518082019091529101546001600160e01b0381168252600160e01b900463ffffffff1660208201819052909550806130635761305b826001613d6c565b935050612fe3565b8b613078613072846001613d6c565b8a612dcc565b61ffff1661ffff811061308d5761308d613f37565b604080518082019091529101546001600160e01b038116825263ffffffff600160e01b909104811660208301529095506000906130d290838116908c908b90612ddc16565b90508080156130fb57506130fb8660200151898c63ffffffff16612ddc9092919063ffffffff16565b15613107575050613133565b8061311e57613117600184613e73565b935061312c565b613129836001613d6c565b94505b5050612fe3565b505050965096945050505050565b604080518082019091526000808252602082018190529081906000808a61316c8a61ffff168a612a24565b61ffff1661ffff811061318157613181613f37565b604080518082019091529101546001600160e01b038116825263ffffffff600160e01b909104811660208301819052919250881614156131cc5788945087935091506000905061323c565b6131d98b8a8a8a8a613359565b909550935060006131f4826001600160e01b038d168a613483565b9050808c8b61ffff1661ffff811061320e5761320e613f37565b825160209093015163ffffffff16600160e01b026001600160e01b0390931692909217910155925060019150505b9650965096509692505050565b6000808263ffffffff16856060015163ffffffff161161326d57846060015161326f565b825b9050600087866000015161ffff1661ffff811061328e5761328e613f37565b60408051808201825291909201546001600160e01b0381168252600160e01b900463ffffffff166020808301919091528851908901519289015160808a01519294506000936132e7938d9387938c9391928f908d61350a565b905060006133088a84898b600001518c60200151898f8f608001518e61350a565b90508160200151816020015161331e9190613e8a565b63ffffffff16826000015182600001516133389190613e4b565b6133429190613dc3565b6001600160e01b03169a9950505050505050505050565b6000806000808661ffff1611613370576001613372565b855b604080518082019091526000808252602082015290915060028261ffff1611156133f857886133b56133a961ffff8b166001613d84565b63ffffffff1684612dcc565b61ffff1661ffff81106133ca576133ca613f37565b604080518082019091529101546001600160e01b0381168252600160e01b900463ffffffff16602082015290505b819250806020015163ffffffff166000148061343d57508463ffffffff166134358260200151888963ffffffff166136d09092919063ffffffff16565b63ffffffff16105b156134635761ffff828116106134555761ffff613460565b613460826001613d24565b92505b6134756133a961ffff8a166001613d84565b935050509550959350505050565b604080518082019091526000808252602082015260405180604001604052806134e96134c48760200151868763ffffffff166136d09092919063ffffffff16565b6134d49063ffffffff1687613e2c565b875161242f91906001600160e01b0316613d6c565b6001600160e01b031681526020018363ffffffff1681525090509392505050565b604080518082019091526000808252602082015261353d85838b6020015163ffffffff16612ead9092919063ffffffff16565b156135985760405180604001604052808a602001518761355d9190613e8a565b61356d9063ffffffff1687613dfd565b8b516135799190613d4a565b6001600160e01b031681526020018663ffffffff1681525090506136c3565b8463ffffffff16896020015163ffffffff1614156135b75750876136c3565b8463ffffffff16886020015163ffffffff1614156135d65750866136c3565b6135f58860200151838763ffffffff16612ead9092919063ffffffff16565b1561361a5750604080518082019091526000815263ffffffff851660208201526136c3565b60008061362b8c8a8a8a8989612f7c565b915091506000826020015182602001516136459190613e8a565b63ffffffff168360000151836000015161365f9190613e4b565b6136699190613dc3565b9050600083602001518961367d9190613e8a565b61368d9063ffffffff1683613dfd565b84516136999190613d4a565b604080518082019091526001600160e01b03909116815263ffffffff8a1660208201529450505050505b9998505050505050505050565b60008163ffffffff168463ffffffff16111580156136fa57508163ffffffff168363ffffffff1611155b15613710576137098385613e8a565b90506106d3565b60008263ffffffff168563ffffffff161161373f5761373a63ffffffff8616640100000000613da3565b613747565b8463ffffffff165b64ffffffffff16905060008363ffffffff168563ffffffff161161377f5761377a63ffffffff8616640100000000613da3565b613787565b8463ffffffff165b64ffffffffff1690506123588183613e73565b8280546137a690613ea7565b90600052602060002090601f0160209004810192826137c8576000855561380e565b82601f106137e157805160ff191683800117855561380e565b8280016001018555821561380e579182015b8281111561380e5782518255916020019190600101906137f3565b506126989291505b808211156126985760008155600101613816565b80356001600160a01b038116811461384157600080fd5b919050565b60008083601f84011261385857600080fd5b50813567ffffffffffffffff81111561387057600080fd5b6020830191508360208260051b850101111561388b57600080fd5b9250929050565b60008083601f8401126138a457600080fd5b50813567ffffffffffffffff8111156138bc57600080fd5b60208301915083602082850101111561388b57600080fd5b803560ff8116811461384157600080fd5b6000602082840312156138f757600080fd5b6106d38261382a565b6000806040838503121561391357600080fd5b61391c8361382a565b915061392a6020840161382a565b90509250929050565b60008060006060848603121561394857600080fd5b6139518461382a565b925061395f6020850161382a565b9150604084013590509250925092565b600080600080600080600060e0888a03121561398a57600080fd5b6139938861382a565b96506139a16020890161382a565b955060408801359450606088013593506139bd608089016138d4565b925060a0880135915060c0880135905092959891949750929550565b6000806000604084860312156139ee57600080fd5b6139f78461382a565b9250602084013567ffffffffffffffff811115613a1357600080fd5b613a1f86828701613846565b9497909650939450505050565b60008060408385031215613a3f57600080fd5b613a488361382a565b9150602083013561ffff81168114613a5f57600080fd5b809150509250929050565b60008060408385031215613a7d57600080fd5b613a868361382a565b946020939093013593505050565b600080600060608486031215613aa957600080fd5b613ab28461382a565b95602085013595506040909401359392505050565b60008060208385031215613ada57600080fd5b823567ffffffffffffffff811115613af157600080fd5b613afd85828601613846565b90969095509350505050565b60008060008060008060808789031215613b2257600080fd5b863567ffffffffffffffff80821115613b3a57600080fd5b613b468a838b01613892565b90985096506020890135915080821115613b5f57600080fd5b50613b6c89828a01613892565b9095509350613b7f9050604088016138d4565b9150613b8d6060880161382a565b90509295509295509295565b600060208284031215613bab57600080fd5b813563ffffffff811681146106d357600080fd5b818352818160208501375060006020828401015260006020601f19601f840116840101905092915050565b6000815180845260005b81811015613c1057602081850181015186830182015201613bf4565b81811115613c22576000602083870101525b50601f01601f19169290920160200192915050565b6020808252825182820181905260009190848201906040850190845b81811015613c6f57835183529284019291840191600101613c53565b50909695505050505050565b608081526000613c8f60808301888a613bbf565b8281036020840152613ca2818789613bbf565b91505060ff841660408301526001600160a01b0383166060830152979650505050505050565b6020815260006106d36020830184613bea565b608081526000613cee6080830187613bea565b8281036020840152613d008187613bea565b91505060ff841660408301526001600160a01b038316606083015295945050505050565b600061ffff808316818516808303821115613d4157613d41613f0b565b01949350505050565b60006001600160e01b03808316818516808303821115613d4157613d41613f0b565b60008219821115613d7f57613d7f613f0b565b500190565b600063ffffffff808316818516808303821115613d4157613d41613f0b565b600064ffffffffff808316818516808303821115613d4157613d41613f0b565b60006001600160e01b0380841680613ddd57613ddd613f21565b92169190910492915050565b600082613df857613df8613f21565b500490565b60006001600160e01b0380831681851681830481118215151615613e2357613e23613f0b565b02949350505050565b6000816000190483118215151615613e4657613e46613f0b565b500290565b60006001600160e01b0383811690831681811015613e6b57613e6b613f0b565b039392505050565b600082821015613e8557613e85613f0b565b500390565b600063ffffffff83811690831681811015613e6b57613e6b613f0b565b600181811c90821680613ebb57607f821691505b60208210811415611cd557634e487b7160e01b600052602260045260246000fd5b6000600019821415613ef057613ef0613f0b565b5060010190565b600082613f0657613f06613f21565b500690565b634e487b7160e01b600052601160045260246000fd5b634e487b7160e01b600052601260045260246000fd5b634e487b7160e01b600052603260045260246000fd5b634e487b7160e01b600052604160045260246000fdfe45524332303a206275726e20616d6f756e7420657863656564732062616c616e6365a26469706673582212204bfda4ca9a253212432605378ae9d664d016101f15fbc5576e5d163b3eff9e2f64736f6c63430008060033",
  "devdoc": {
    "author": "PoolTogether Inc.",
    "events": {
      "NewTotalSupplyTwab((uint224,uint32))": {
        "params": {
          "newTotalSupplyTwab": "Updated TWAB of tickets total supply after a successful total supply TWAB recording."
        }
      },
      "NewUserTwab(address,address,(uint224,uint32))": {
        "params": {
          "newTwab": "Updated TWAB of a ticket holder after a successful TWAB recording.",
          "ticketHolder": "The Ticket holder address.",
          "user": "The recipient of the ticket power (may be the same as the ticketHolder)"
        }
      },
      "TicketInitialized(string,string,uint8,address)": {
        "params": {
          "controller": "Token controller address.",
          "decimals": "Ticket decimals.",
          "name": "Ticket name (eg: PoolTogether Dai Ticket (Compound)).",
          "symbol": "Ticket symbol (eg: PcDAI)."
        }
      }
    },
    "kind": "dev",
    "methods": {
      "DOMAIN_SEPARATOR()": {
        "details": "See {IERC20Permit-DOMAIN_SEPARATOR}."
      },
      "allowance(address,address)": {
        "details": "See {IERC20-allowance}."
      },
      "approve(address,uint256)": {
        "details": "See {IERC20-approve}. Requirements: - `spender` cannot be the zero address."
      },
      "balanceOf(address)": {
        "returns": {
          "_0": "uint224 `_user` ticket token balance."
        }
      },
      "controllerBurn(address,uint256)": {
        "details": "May be overridden to provide more granular control over burning",
        "params": {
          "_amount": "Amount of tokens to burn",
          "_user": "Address of the holder account to burn tokens from"
        }
      },
      "controllerBurnFrom(address,address,uint256)": {
        "details": "May be overridden to provide more granular control over operator-burning",
        "params": {
          "_amount": "Amount of tokens to burn",
          "_operator": "Address of the operator performing the burn action via the controller contract",
          "_user": "Address of the holder account to burn tokens from"
        }
      },
      "controllerMint(address,uint256)": {
        "details": "May be overridden to provide more granular control over minting",
        "params": {
          "_amount": "Amount of tokens to mint",
          "_user": "Address of the receiver of the minted tokens"
        }
      },
      "decimals()": {
        "details": "This value should be equal to the decimals of the token used to deposit into the pool.",
        "returns": {
          "_0": "uint8 decimals."
        }
      },
      "decreaseAllowance(address,uint256)": {
        "details": "Atomically decreases the allowance granted to `spender` by the caller. This is an alternative to {approve} that can be used as a mitigation for problems described in {IERC20-approve}. Emits an {Approval} event indicating the updated allowance. Requirements: - `spender` cannot be the zero address. - `spender` must have allowance for the caller of at least `subtractedValue`."
      },
      "getAccountDetails(address)": {
        "params": {
          "_user": "The user for whom to fetch the TWAB context"
        },
        "returns": {
          "_0": "The TWAB context, which includes { balance, nextTwabIndex, cardinality }"
        }
      },
      "getAverageBalanceBetween(address,uint256,uint256)": {
        "params": {
          "_endTime": "The end time of the time frame.",
          "_startTime": "The start time of the time frame.",
          "_user": "The user whose balance is checked"
        },
        "returns": {
          "_0": "The average balance that the user held during the time frame."
        }
      },
      "getBalanceAt(address,uint256)": {
        "params": {
          "_target": "Timestamp at which the reserved TWAB should be for.",
          "_user": "Address of the user whose TWAB is being fetched."
        }
      },
      "getBalancesAt(address,uint32[])": {
        "params": {
          "_targets": "Timestamps at which the reserved TWABs should be for.",
          "_user": "Address of the user whose TWABs are being fetched."
        },
        "returns": {
          "_0": "uint256[] `_user` TWAB balances."
        }
      },
      "getTotalSupplies(uint32[])": {
        "params": {
          "_targets": "Timestamps at which the reserved TWABs should be for."
        },
        "returns": {
          "_0": "uint256[] ticket TWAB `totalSupplies`."
        }
      },
      "getTotalSupply(uint32)": {
        "params": {
          "_target": "Timestamp at which the reserved TWAB should be for."
        }
      },
      "getTwab(address,uint16)": {
        "params": {
          "_index": "The index of the TWAB to fetch",
          "_user": "The user for whom to fetch the TWAB"
        },
        "returns": {
          "_0": "The TWAB, which includes the twab amount and the timestamp."
        }
      },
      "increaseAllowance(address,uint256)": {
        "details": "Atomically increases the allowance granted to `spender` by the caller. This is an alternative to {approve} that can be used as a mitigation for problems described in {IERC20-approve}. Emits an {Approval} event indicating the updated allowance. Requirements: - `spender` cannot be the zero address."
      },
      "initialize(string,string,uint8,address)": {
        "params": {
          "_name": "ERC20 ticket token name.",
          "_symbol": "ERC20 ticket token symbol.",
          "decimals_": "ERC20 ticket token decimals."
        }
      },
      "name()": {
        "details": "Returns the name of the token."
      },
      "nonces(address)": {
        "details": "See {IERC20Permit-nonces}."
      },
      "permit(address,address,uint256,uint256,uint8,bytes32,bytes32)": {
        "details": "See {IERC20Permit-permit}."
      },
      "symbol()": {
        "details": "Returns the symbol of the token, usually a shorter version of the name."
      },
      "totalSupply()": {
        "returns": {
          "_0": "uint256 Total supply of the ERC20 ticket token."
        }
      },
      "transfer(address,uint256)": {
        "details": "See {IERC20-transfer}. Requirements: - `recipient` cannot be the zero address. - the caller must have a balance of at least `amount`."
      },
      "transferFrom(address,address,uint256)": {
        "details": "See {IERC20-transferFrom}. Emits an {Approval} event indicating the updated allowance. This is not required by the EIP. See the note at the beginning of {ERC20}. Requirements: - `sender` and `recipient` cannot be the zero address. - `sender` must have a balance of at least `amount`. - the caller must have allowance for ``sender``'s tokens of at least `amount`."
      }
    },
    "stateVariables": {
      "TWAB_TIME_TO_LIVE": {
        "details": "Once the twab ttl expires, its storage slot is recycled."
      }
    },
    "title": "An ERC20 token that allows you to see user's past balances, and average balance held between timestamps.",
    "version": 1
  },
  "userdoc": {
    "events": {
      "NewTotalSupplyTwab((uint224,uint32))": {
        "notice": "Emitted when a new total supply TWAB has been recorded."
      },
      "NewUserTwab(address,address,(uint224,uint32))": {
        "notice": "Emitted when a new TWAB has been recorded."
      },
      "TicketInitialized(string,string,uint8,address)": {
        "notice": "Emitted when ticket is initialized."
      }
    },
    "kind": "user",
    "methods": {
      "MAX_CARDINALITY()": {
        "notice": "The maximum number of twab entries"
      },
      "TWAB_TIME_TO_LIVE()": {
        "notice": "The minimum length of time a twab should exist."
      },
      "balanceOf(address)": {
        "notice": "Returns the ERC20 ticket token balance of a ticket holder."
      },
      "controller()": {
        "notice": "Interface to the contract responsible for controlling mint/burn"
      },
      "controllerBurn(address,uint256)": {
        "notice": "Allows the controller to burn tokens from a user account"
      },
      "controllerBurnFrom(address,address,uint256)": {
        "notice": "Allows an operator via the controller to burn tokens on behalf of a user account"
      },
      "controllerMint(address,uint256)": {
        "notice": "Allows the controller to mint tokens for a user account"
      },
      "decimals()": {
        "notice": "Returns the ERC20 ticket token decimals."
      },
      "getAccountDetails(address)": {
        "notice": "Gets a users twap context.  This is a struct with their balance, next twab index, and cardinality."
      },
      "getAverageBalanceBetween(address,uint256,uint256)": {
        "notice": "Calculates the average balance held by a user for a given time frame."
      },
      "getBalanceAt(address,uint256)": {
        "notice": "Retrieves `_user` TWAB balance."
      },
      "getBalancesAt(address,uint32[])": {
        "notice": "Retrieves `_user` TWAB balances."
      },
      "getTotalSupplies(uint32[])": {
        "notice": "Retrieves ticket TWAB `totalSupplies`."
      },
      "getTotalSupply(uint32)": {
        "notice": "Retrieves ticket TWAB `totalSupply`."
      },
      "getTwab(address,uint16)": {
        "notice": "Gets the TWAB at a specific index for a user."
      },
      "initialize(string,string,uint8,address)": {
        "notice": "Initializes Ticket with passed parameters."
      },
      "totalSupply()": {
        "notice": "Returns the ERC20 ticket token total supply."
      }
    },
    "version": 1
  },
  "storageLayout": {
    "storage": [
      {
        "astId": 130,
        "contract": "@pooltogether/v4/contracts/Ticket.sol:Ticket",
        "label": "_initialized",
        "offset": 0,
        "slot": "0",
        "type": "t_bool"
      },
      {
        "astId": 133,
        "contract": "@pooltogether/v4/contracts/Ticket.sol:Ticket",
        "label": "_initializing",
        "offset": 1,
        "slot": "0",
        "type": "t_bool"
      },
      {
        "astId": 1781,
        "contract": "@pooltogether/v4/contracts/Ticket.sol:Ticket",
        "label": "__gap",
        "offset": 0,
        "slot": "1",
        "type": "t_array(t_uint256)50_storage"
      },
      {
        "astId": 247,
        "contract": "@pooltogether/v4/contracts/Ticket.sol:Ticket",
        "label": "_balances",
        "offset": 0,
        "slot": "51",
        "type": "t_mapping(t_address,t_uint256)"
      },
      {
        "astId": 253,
        "contract": "@pooltogether/v4/contracts/Ticket.sol:Ticket",
        "label": "_allowances",
        "offset": 0,
        "slot": "52",
        "type": "t_mapping(t_address,t_mapping(t_address,t_uint256))"
      },
      {
        "astId": 255,
        "contract": "@pooltogether/v4/contracts/Ticket.sol:Ticket",
        "label": "_totalSupply",
        "offset": 0,
        "slot": "53",
        "type": "t_uint256"
      },
      {
        "astId": 257,
        "contract": "@pooltogether/v4/contracts/Ticket.sol:Ticket",
        "label": "_name",
        "offset": 0,
        "slot": "54",
        "type": "t_string_storage"
      },
      {
        "astId": 259,
        "contract": "@pooltogether/v4/contracts/Ticket.sol:Ticket",
        "label": "_symbol",
        "offset": 0,
        "slot": "55",
        "type": "t_string_storage"
      },
      {
        "astId": 800,
        "contract": "@pooltogether/v4/contracts/Ticket.sol:Ticket",
        "label": "__gap",
        "offset": 0,
        "slot": "56",
        "type": "t_array(t_uint256)45_storage"
      },
      {
        "astId": 2048,
        "contract": "@pooltogether/v4/contracts/Ticket.sol:Ticket",
        "label": "_HASHED_NAME",
        "offset": 0,
        "slot": "101",
        "type": "t_bytes32"
      },
      {
        "astId": 2050,
        "contract": "@pooltogether/v4/contracts/Ticket.sol:Ticket",
        "label": "_HASHED_VERSION",
        "offset": 0,
        "slot": "102",
        "type": "t_bytes32"
      },
      {
        "astId": 2187,
        "contract": "@pooltogether/v4/contracts/Ticket.sol:Ticket",
        "label": "__gap",
        "offset": 0,
        "slot": "103",
        "type": "t_array(t_uint256)50_storage"
      },
      {
        "astId": 930,
        "contract": "@pooltogether/v4/contracts/Ticket.sol:Ticket",
        "label": "_nonces",
        "offset": 0,
        "slot": "153",
        "type": "t_mapping(t_address,t_struct(Counter)1788_storage)"
      },
      {
        "astId": 932,
        "contract": "@pooltogether/v4/contracts/Ticket.sol:Ticket",
        "label": "_PERMIT_TYPEHASH",
        "offset": 0,
        "slot": "154",
        "type": "t_bytes32"
      },
      {
        "astId": 1100,
        "contract": "@pooltogether/v4/contracts/Ticket.sol:Ticket",
        "label": "__gap",
        "offset": 0,
        "slot": "155",
        "type": "t_array(t_uint256)49_storage"
      },
      {
        "astId": 11607,
        "contract": "@pooltogether/v4/contracts/Ticket.sol:Ticket",
        "label": "controller",
        "offset": 0,
        "slot": "204",
        "type": "t_address"
      },
      {
        "astId": 11610,
        "contract": "@pooltogether/v4/contracts/Ticket.sol:Ticket",
        "label": "_decimals",
        "offset": 20,
        "slot": "204",
        "type": "t_uint8"
      },
      {
        "astId": 5682,
        "contract": "@pooltogether/v4/contracts/Ticket.sol:Ticket",
        "label": "userTwabs",
        "offset": 0,
        "slot": "205",
        "type": "t_mapping(t_address,t_struct(Account)5643_storage)"
      },
      {
        "astId": 5685,
        "contract": "@pooltogether/v4/contracts/Ticket.sol:Ticket",
        "label": "_decimals",
        "offset": 0,
        "slot": "206",
        "type": "t_uint8"
      },
      {
        "astId": 5689,
        "contract": "@pooltogether/v4/contracts/Ticket.sol:Ticket",
        "label": "totalSupplyTwab",
        "offset": 0,
        "slot": "207",
        "type": "t_struct(Account)5643_storage"
      },
      {
        "astId": 5694,
        "contract": "@pooltogether/v4/contracts/Ticket.sol:Ticket",
        "label": "delegates",
        "offset": 0,
        "slot": "65743",
        "type": "t_mapping(t_address,t_address)"
      },
      {
        "astId": 5699,
        "contract": "@pooltogether/v4/contracts/Ticket.sol:Ticket",
        "label": "balances",
        "offset": 0,
        "slot": "65744",
        "type": "t_mapping(t_address,t_uint256)"
      }
    ],
    "types": {
      "t_address": {
        "encoding": "inplace",
        "label": "address",
        "numberOfBytes": "20"
      },
      "t_array(t_struct(Twab)8220_storage)65535_storage": {
        "base": "t_struct(Twab)8220_storage",
        "encoding": "inplace",
        "label": "struct TwabLibrary.Twab[65535]",
        "numberOfBytes": "2097120"
      },
      "t_array(t_uint256)45_storage": {
        "base": "t_uint256",
        "encoding": "inplace",
        "label": "uint256[45]",
        "numberOfBytes": "1440"
      },
      "t_array(t_uint256)49_storage": {
        "base": "t_uint256",
        "encoding": "inplace",
        "label": "uint256[49]",
        "numberOfBytes": "1568"
      },
      "t_array(t_uint256)50_storage": {
        "base": "t_uint256",
        "encoding": "inplace",
        "label": "uint256[50]",
        "numberOfBytes": "1600"
      },
      "t_bool": {
        "encoding": "inplace",
        "label": "bool",
        "numberOfBytes": "1"
      },
      "t_bytes32": {
        "encoding": "inplace",
        "label": "bytes32",
        "numberOfBytes": "32"
      },
      "t_mapping(t_address,t_address)": {
        "encoding": "mapping",
        "key": "t_address",
        "label": "mapping(address => address)",
        "numberOfBytes": "32",
        "value": "t_address"
      },
      "t_mapping(t_address,t_mapping(t_address,t_uint256))": {
        "encoding": "mapping",
        "key": "t_address",
        "label": "mapping(address => mapping(address => uint256))",
        "numberOfBytes": "32",
        "value": "t_mapping(t_address,t_uint256)"
      },
      "t_mapping(t_address,t_struct(Account)5643_storage)": {
        "encoding": "mapping",
        "key": "t_address",
        "label": "mapping(address => struct Ticket.Account)",
        "numberOfBytes": "32",
        "value": "t_struct(Account)5643_storage"
      },
      "t_mapping(t_address,t_struct(Counter)1788_storage)": {
        "encoding": "mapping",
        "key": "t_address",
        "label": "mapping(address => struct CountersUpgradeable.Counter)",
        "numberOfBytes": "32",
        "value": "t_struct(Counter)1788_storage"
      },
      "t_mapping(t_address,t_uint256)": {
        "encoding": "mapping",
        "key": "t_address",
        "label": "mapping(address => uint256)",
        "numberOfBytes": "32",
        "value": "t_uint256"
      },
      "t_string_storage": {
        "encoding": "bytes",
        "label": "string",
        "numberOfBytes": "32"
      },
      "t_struct(Account)5643_storage": {
        "encoding": "inplace",
        "label": "struct Ticket.Account",
        "members": [
          {
            "astId": 5637,
            "contract": "@pooltogether/v4/contracts/Ticket.sol:Ticket",
            "label": "details",
            "offset": 0,
            "slot": "0",
            "type": "t_struct(AccountDetails)5634_storage"
          },
          {
            "astId": 5642,
            "contract": "@pooltogether/v4/contracts/Ticket.sol:Ticket",
            "label": "twabs",
            "offset": 0,
            "slot": "1",
            "type": "t_array(t_struct(Twab)8220_storage)65535_storage"
          }
        ],
        "numberOfBytes": "2097152"
      },
      "t_struct(AccountDetails)5634_storage": {
        "encoding": "inplace",
        "label": "struct Ticket.AccountDetails",
        "members": [
          {
            "astId": 5629,
            "contract": "@pooltogether/v4/contracts/Ticket.sol:Ticket",
            "label": "balance",
            "offset": 0,
            "slot": "0",
            "type": "t_uint224"
          },
          {
            "astId": 5631,
            "contract": "@pooltogether/v4/contracts/Ticket.sol:Ticket",
            "label": "nextTwabIndex",
            "offset": 28,
            "slot": "0",
            "type": "t_uint16"
          },
          {
            "astId": 5633,
            "contract": "@pooltogether/v4/contracts/Ticket.sol:Ticket",
            "label": "cardinality",
            "offset": 30,
            "slot": "0",
            "type": "t_uint16"
          }
        ],
        "numberOfBytes": "32"
      },
      "t_struct(Counter)1788_storage": {
        "encoding": "inplace",
        "label": "struct CountersUpgradeable.Counter",
        "members": [
          {
            "astId": 1787,
            "contract": "@pooltogether/v4/contracts/Ticket.sol:Ticket",
            "label": "_value",
            "offset": 0,
            "slot": "0",
            "type": "t_uint256"
          }
        ],
        "numberOfBytes": "32"
      },
      "t_struct(Twab)8220_storage": {
        "encoding": "inplace",
        "label": "struct TwabLibrary.Twab",
        "members": [
          {
            "astId": 8217,
            "contract": "@pooltogether/v4/contracts/Ticket.sol:Ticket",
            "label": "amount",
            "offset": 0,
            "slot": "0",
            "type": "t_uint224"
          },
          {
            "astId": 8219,
            "contract": "@pooltogether/v4/contracts/Ticket.sol:Ticket",
            "label": "timestamp",
            "offset": 28,
            "slot": "0",
            "type": "t_uint32"
          }
        ],
        "numberOfBytes": "32"
      },
      "t_uint16": {
        "encoding": "inplace",
        "label": "uint16",
        "numberOfBytes": "2"
      },
      "t_uint224": {
        "encoding": "inplace",
        "label": "uint224",
        "numberOfBytes": "28"
      },
      "t_uint256": {
        "encoding": "inplace",
        "label": "uint256",
        "numberOfBytes": "32"
      },
      "t_uint32": {
        "encoding": "inplace",
        "label": "uint32",
        "numberOfBytes": "4"
      },
      "t_uint8": {
        "encoding": "inplace",
        "label": "uint8",
        "numberOfBytes": "1"
      }
    }
  }
}