{
  "address": "0xdeC5E93b04d7A3c472982B9F6340C778CbA09Afa",
  "abi": [
    {
      "inputs": [
        {
          "internalType": "string",
          "name": "_name",
          "type": "string"
        },
        {
          "internalType": "string",
          "name": "_symbol",
          "type": "string"
        },
        {
          "internalType": "uint8",
          "name": "decimals_",
          "type": "uint8"
        },
        {
          "internalType": "address",
          "name": "_controller",
          "type": "address"
        }
      ],
      "stateMutability": "nonpayable",
      "type": "constructor"
    },
    {
      "anonymous": false,
      "inputs": [
        {
          "indexed": true,
          "internalType": "address",
          "name": "owner",
          "type": "address"
        },
        {
          "indexed": true,
          "internalType": "address",
          "name": "spender",
          "type": "address"
        },
        {
          "indexed": false,
          "internalType": "uint256",
          "name": "value",
          "type": "uint256"
        }
      ],
      "name": "Approval",
      "type": "event"
    },
    {
      "anonymous": false,
      "inputs": [
        {
          "indexed": true,
          "internalType": "address",
          "name": "user",
          "type": "address"
        },
        {
          "indexed": true,
          "internalType": "address",
          "name": "delegate",
          "type": "address"
        }
      ],
      "name": "Delegated",
      "type": "event"
    },
    {
      "anonymous": false,
      "inputs": [
        {
          "indexed": false,
          "internalType": "string",
          "name": "name",
          "type": "string"
        },
        {
          "indexed": false,
          "internalType": "string",
          "name": "symbol",
          "type": "string"
        },
        {
          "indexed": false,
          "internalType": "uint8",
          "name": "decimals",
          "type": "uint8"
        },
        {
          "indexed": false,
          "internalType": "address",
          "name": "controller",
          "type": "address"
        }
      ],
      "name": "Deployed",
      "type": "event"
    },
    {
      "anonymous": false,
      "inputs": [
        {
          "components": [
            {
              "internalType": "uint224",
              "name": "amount",
              "type": "uint224"
            },
            {
              "internalType": "uint32",
              "name": "timestamp",
              "type": "uint32"
            }
          ],
          "indexed": false,
          "internalType": "struct TwabLibrary.Twab",
          "name": "newTotalSupplyTwab",
          "type": "tuple"
        }
      ],
      "name": "NewTotalSupplyTwab",
      "type": "event"
    },
    {
      "anonymous": false,
      "inputs": [
        {
          "indexed": true,
          "internalType": "address",
          "name": "ticketHolder",
          "type": "address"
        },
        {
          "indexed": true,
          "internalType": "address",
          "name": "user",
          "type": "address"
        },
        {
          "components": [
            {
              "internalType": "uint224",
              "name": "amount",
              "type": "uint224"
            },
            {
              "internalType": "uint32",
              "name": "timestamp",
              "type": "uint32"
            }
          ],
          "indexed": false,
          "internalType": "struct TwabLibrary.Twab",
          "name": "newTwab",
          "type": "tuple"
        }
      ],
      "name": "NewUserTwab",
      "type": "event"
    },
    {
      "anonymous": false,
      "inputs": [
        {
          "indexed": false,
          "internalType": "string",
          "name": "name",
          "type": "string"
        },
        {
          "indexed": false,
          "internalType": "string",
          "name": "symbol",
          "type": "string"
        },
        {
          "indexed": false,
          "internalType": "uint8",
          "name": "decimals",
          "type": "uint8"
        },
        {
          "indexed": false,
          "internalType": "address",
          "name": "controller",
          "type": "address"
        }
      ],
      "name": "TicketInitialized",
      "type": "event"
    },
    {
      "anonymous": false,
      "inputs": [
        {
          "indexed": true,
          "internalType": "address",
          "name": "from",
          "type": "address"
        },
        {
          "indexed": true,
          "internalType": "address",
          "name": "to",
          "type": "address"
        },
        {
          "indexed": false,
          "internalType": "uint256",
          "name": "value",
          "type": "uint256"
        }
      ],
      "name": "Transfer",
      "type": "event"
    },
    {
      "inputs": [],
      "name": "DOMAIN_SEPARATOR",
      "outputs": [
        {
          "internalType": "bytes32",
          "name": "",
          "type": "bytes32"
        }
      ],
      "stateMutability": "view",
      "type": "function"
    },
    {
      "inputs": [],
      "name": "MAX_CARDINALITY",
      "outputs": [
        {
          "internalType": "uint16",
          "name": "",
          "type": "uint16"
        }
      ],
      "stateMutability": "view",
      "type": "function"
    },
    {
      "inputs": [],
      "name": "TWAB_TIME_TO_LIVE",
      "outputs": [
        {
          "internalType": "uint32",
          "name": "",
          "type": "uint32"
        }
      ],
      "stateMutability": "view",
      "type": "function"
    },
    {
      "inputs": [
        {
          "internalType": "address",
          "name": "owner",
          "type": "address"
        },
        {
          "internalType": "address",
          "name": "spender",
          "type": "address"
        }
      ],
      "name": "allowance",
      "outputs": [
        {
          "internalType": "uint256",
          "name": "",
          "type": "uint256"
        }
      ],
      "stateMutability": "view",
      "type": "function"
    },
    {
      "inputs": [
        {
          "internalType": "address",
          "name": "spender",
          "type": "address"
        },
        {
          "internalType": "uint256",
          "name": "amount",
          "type": "uint256"
        }
      ],
      "name": "approve",
      "outputs": [
        {
          "internalType": "bool",
          "name": "",
          "type": "bool"
        }
      ],
      "stateMutability": "nonpayable",
      "type": "function"
    },
    {
      "inputs": [
        {
          "internalType": "address",
          "name": "_user",
          "type": "address"
        }
      ],
      "name": "balanceOf",
      "outputs": [
        {
          "internalType": "uint256",
          "name": "",
          "type": "uint256"
        }
      ],
      "stateMutability": "view",
      "type": "function"
    },
    {
      "inputs": [],
      "name": "controller",
      "outputs": [
        {
          "internalType": "address",
          "name": "",
          "type": "address"
        }
      ],
      "stateMutability": "view",
      "type": "function"
    },
    {
      "inputs": [
        {
          "internalType": "address",
          "name": "_user",
          "type": "address"
        },
        {
          "internalType": "uint256",
          "name": "_amount",
          "type": "uint256"
        }
      ],
      "name": "controllerBurn",
      "outputs": [],
      "stateMutability": "nonpayable",
      "type": "function"
    },
    {
      "inputs": [
        {
          "internalType": "address",
          "name": "_operator",
          "type": "address"
        },
        {
          "internalType": "address",
          "name": "_user",
          "type": "address"
        },
        {
          "internalType": "uint256",
          "name": "_amount",
          "type": "uint256"
        }
      ],
      "name": "controllerBurnFrom",
      "outputs": [],
      "stateMutability": "nonpayable",
      "type": "function"
    },
    {
      "inputs": [
        {
          "internalType": "address",
          "name": "_user",
          "type": "address"
        },
        {
          "internalType": "uint256",
          "name": "_amount",
          "type": "uint256"
        }
      ],
      "name": "controllerMint",
      "outputs": [],
      "stateMutability": "nonpayable",
      "type": "function"
    },
    {
      "inputs": [],
      "name": "decimals",
      "outputs": [
        {
          "internalType": "uint8",
          "name": "",
          "type": "uint8"
        }
      ],
      "stateMutability": "view",
      "type": "function"
    },
    {
      "inputs": [
        {
          "internalType": "address",
          "name": "spender",
          "type": "address"
        },
        {
          "internalType": "uint256",
          "name": "subtractedValue",
          "type": "uint256"
        }
      ],
      "name": "decreaseAllowance",
      "outputs": [
        {
          "internalType": "bool",
          "name": "",
          "type": "bool"
        }
      ],
      "stateMutability": "nonpayable",
      "type": "function"
    },
    {
      "inputs": [
        {
          "internalType": "address",
          "name": "to",
          "type": "address"
        }
      ],
      "name": "delegate",
      "outputs": [],
      "stateMutability": "nonpayable",
      "type": "function"
    },
    {
      "inputs": [
        {
          "internalType": "address",
          "name": "_user",
          "type": "address"
        }
      ],
      "name": "delegateOf",
      "outputs": [
        {
          "internalType": "address",
          "name": "",
          "type": "address"
        }
      ],
      "stateMutability": "view",
      "type": "function"
    },
    {
      "inputs": [
        {
          "internalType": "address",
          "name": "_user",
          "type": "address"
        }
      ],
      "name": "getAccountDetails",
      "outputs": [
        {
          "components": [
            {
              "internalType": "uint224",
              "name": "balance",
              "type": "uint224"
            },
            {
              "internalType": "uint16",
              "name": "nextTwabIndex",
              "type": "uint16"
            },
            {
              "internalType": "uint16",
              "name": "cardinality",
              "type": "uint16"
            }
          ],
          "internalType": "struct Ticket.AccountDetails",
          "name": "",
          "type": "tuple"
        }
      ],
      "stateMutability": "view",
      "type": "function"
    },
    {
      "inputs": [
        {
          "internalType": "address",
          "name": "_user",
          "type": "address"
        },
        {
          "internalType": "uint256",
          "name": "_startTime",
          "type": "uint256"
        },
        {
          "internalType": "uint256",
          "name": "_endTime",
          "type": "uint256"
        }
      ],
      "name": "getAverageBalanceBetween",
      "outputs": [
        {
          "internalType": "uint256",
          "name": "",
          "type": "uint256"
        }
      ],
      "stateMutability": "view",
      "type": "function"
    },
    {
      "inputs": [
        {
          "internalType": "address",
          "name": "user",
          "type": "address"
        },
        {
          "internalType": "uint32[]",
          "name": "startTimes",
          "type": "uint32[]"
        },
        {
          "internalType": "uint32[]",
          "name": "endTimes",
          "type": "uint32[]"
        }
      ],
      "name": "getAverageBalancesBetween",
      "outputs": [
        {
          "internalType": "uint256[]",
          "name": "",
          "type": "uint256[]"
        }
      ],
      "stateMutability": "view",
      "type": "function"
    },
    {
      "inputs": [
        {
          "internalType": "uint32[]",
          "name": "startTimes",
          "type": "uint32[]"
        },
        {
          "internalType": "uint32[]",
          "name": "endTimes",
          "type": "uint32[]"
        }
      ],
      "name": "getAverageTotalSuppliesBetween",
      "outputs": [
        {
          "internalType": "uint256[]",
          "name": "",
          "type": "uint256[]"
        }
      ],
      "stateMutability": "view",
      "type": "function"
    },
    {
      "inputs": [
        {
          "internalType": "address",
          "name": "_user",
          "type": "address"
        },
        {
          "internalType": "uint256",
          "name": "_target",
          "type": "uint256"
        }
      ],
      "name": "getBalanceAt",
      "outputs": [
        {
          "internalType": "uint256",
          "name": "",
          "type": "uint256"
        }
      ],
      "stateMutability": "view",
      "type": "function"
    },
    {
      "inputs": [
        {
          "internalType": "address",
          "name": "_user",
          "type": "address"
        },
        {
          "internalType": "uint32[]",
          "name": "_targets",
          "type": "uint32[]"
        }
      ],
      "name": "getBalancesAt",
      "outputs": [
        {
          "internalType": "uint256[]",
          "name": "",
          "type": "uint256[]"
        }
      ],
      "stateMutability": "view",
      "type": "function"
    },
    {
      "inputs": [
        {
          "internalType": "uint32[]",
          "name": "_targets",
          "type": "uint32[]"
        }
      ],
      "name": "getTotalSupplies",
      "outputs": [
        {
          "internalType": "uint256[]",
          "name": "",
          "type": "uint256[]"
        }
      ],
      "stateMutability": "view",
      "type": "function"
    },
    {
      "inputs": [
        {
          "internalType": "uint32",
          "name": "_target",
          "type": "uint32"
        }
      ],
      "name": "getTotalSupply",
      "outputs": [
        {
          "internalType": "uint256",
          "name": "",
          "type": "uint256"
        }
      ],
      "stateMutability": "view",
      "type": "function"
    },
    {
      "inputs": [
        {
          "internalType": "address",
          "name": "_user",
          "type": "address"
        },
        {
          "internalType": "uint16",
          "name": "_index",
          "type": "uint16"
        }
      ],
      "name": "getTwab",
      "outputs": [
        {
          "components": [
            {
              "internalType": "uint224",
              "name": "amount",
              "type": "uint224"
            },
            {
              "internalType": "uint32",
              "name": "timestamp",
              "type": "uint32"
            }
          ],
          "internalType": "struct TwabLibrary.Twab",
          "name": "",
          "type": "tuple"
        }
      ],
      "stateMutability": "view",
      "type": "function"
    },
    {
      "inputs": [
        {
          "internalType": "address",
          "name": "spender",
          "type": "address"
        },
        {
          "internalType": "uint256",
          "name": "addedValue",
          "type": "uint256"
        }
      ],
      "name": "increaseAllowance",
      "outputs": [
        {
          "internalType": "bool",
          "name": "",
          "type": "bool"
        }
      ],
      "stateMutability": "nonpayable",
      "type": "function"
    },
    {
      "inputs": [],
      "name": "name",
      "outputs": [
        {
          "internalType": "string",
          "name": "",
          "type": "string"
        }
      ],
      "stateMutability": "view",
      "type": "function"
    },
    {
      "inputs": [
        {
          "internalType": "address",
          "name": "owner",
          "type": "address"
        }
      ],
      "name": "nonces",
      "outputs": [
        {
          "internalType": "uint256",
          "name": "",
          "type": "uint256"
        }
      ],
      "stateMutability": "view",
      "type": "function"
    },
    {
      "inputs": [
        {
          "internalType": "address",
          "name": "owner",
          "type": "address"
        },
        {
          "internalType": "address",
          "name": "spender",
          "type": "address"
        },
        {
          "internalType": "uint256",
          "name": "value",
          "type": "uint256"
        },
        {
          "internalType": "uint256",
          "name": "deadline",
          "type": "uint256"
        },
        {
          "internalType": "uint8",
          "name": "v",
          "type": "uint8"
        },
        {
          "internalType": "bytes32",
          "name": "r",
          "type": "bytes32"
        },
        {
          "internalType": "bytes32",
          "name": "s",
          "type": "bytes32"
        }
      ],
      "name": "permit",
      "outputs": [],
      "stateMutability": "nonpayable",
      "type": "function"
    },
    {
      "inputs": [],
      "name": "symbol",
      "outputs": [
        {
          "internalType": "string",
          "name": "",
          "type": "string"
        }
      ],
      "stateMutability": "view",
      "type": "function"
    },
    {
      "inputs": [],
      "name": "totalSupply",
      "outputs": [
        {
          "internalType": "uint256",
          "name": "",
          "type": "uint256"
        }
      ],
      "stateMutability": "view",
      "type": "function"
    },
    {
      "inputs": [
        {
          "internalType": "address",
          "name": "recipient",
          "type": "address"
        },
        {
          "internalType": "uint256",
          "name": "amount",
          "type": "uint256"
        }
      ],
      "name": "transfer",
      "outputs": [
        {
          "internalType": "bool",
          "name": "",
          "type": "bool"
        }
      ],
      "stateMutability": "nonpayable",
      "type": "function"
    },
    {
      "inputs": [
        {
          "internalType": "address",
          "name": "sender",
          "type": "address"
        },
        {
          "internalType": "address",
          "name": "recipient",
          "type": "address"
        },
        {
          "internalType": "uint256",
          "name": "amount",
          "type": "uint256"
        }
      ],
      "name": "transferFrom",
      "outputs": [
        {
          "internalType": "bool",
          "name": "",
          "type": "bool"
        }
      ],
      "stateMutability": "nonpayable",
      "type": "function"
    }
  ],
  "transactionHash": "0x46b7196df60d23858e153e1a3e1ce0a2c670921bc67aff441508433768508806",
  "args": [
    "Ticket",
    "TICK",
    18,
    "0xF66E1ebB2101a155D0BF58BbB7E4f80a87d3CccD"
  ],
  "solcInputHash": "c10ecf7ed4019ef1b5b277259dc2440b",
  "bytecode": "0x6101606040527f6e71edae12b1b97f4d1f60370fef10105fa2faae0126114a169c64845d6126c9610120523480156200003757600080fd5b5060405162003ed038038062003ed08339810160408190526200005a91620003f9565b838383836040518060400160405280601c81526020017f506f6f6c546f67657468657220436f6e74726f6c6c6564546f6b656e0000000081525080604051806040016040528060018152602001603160f81b81525086868160039080519060200190620000c9929190620002c2565b508051620000df906004906020840190620002c2565b5050825160209384012082519284019290922060c083815260e08290524660a0818152604080517f8b73c3c69bb8fe3d512ecc4cf759cc79239f7b179b0ffacaa9a75d522b39400f818a018190528183019890985260608101959095526080808601939093523085830152805180860390920182529390920190925280519401939093209092526101005250506001600160a01b038116620001dc5760405162461bcd60e51b815260206004820152602b60248201527f436f6e74726f6c6c6564546f6b656e2f636f6e74726f6c6c65722d6e6f742d7a60448201526a65726f2d6164647265737360a81b60648201526084015b60405180910390fd5b600680546001600160a01b0319166001600160a01b03831617905560ff8216620002495760405162461bcd60e51b815260206004820181905260248201527f436f6e74726f6c6c6564546f6b656e2f646563696d616c732d67742d7a65726f6044820152606401620001d3565b7fff0000000000000000000000000000000000000000000000000000000000000060f883901b16610140526040517fde72fc29218361f33503847e6f32be813f9ec92fc7c772bb59e46675c890fd0e90620002ac908690869086908690620004cb565b60405180910390a150505050505050506200059f565b828054620002d0906200054c565b90600052602060002090601f016020900481019282620002f457600085556200033f565b82601f106200030f57805160ff19168380011785556200033f565b828001600101855582156200033f579182015b828111156200033f57825182559160200191906001019062000322565b506200034d92915062000351565b5090565b5b808211156200034d576000815560010162000352565b600082601f8301126200037a57600080fd5b81516001600160401b038082111562000397576200039762000589565b604051601f8301601f19908116603f01168101908282118183101715620003c257620003c262000589565b81604052838152866020858801011115620003dc57600080fd5b620003ef84602083016020890162000519565b9695505050505050565b600080600080608085870312156200041057600080fd5b84516001600160401b03808211156200042857600080fd5b620004368883890162000368565b955060208701519150808211156200044d57600080fd5b506200045c8782880162000368565b935050604085015160ff811681146200047457600080fd5b60608601519092506001600160a01b03811681146200049257600080fd5b939692955090935050565b60008151808452620004b781602086016020860162000519565b601f01601f19169290920160200192915050565b608081526000620004e060808301876200049d565b8281036020840152620004f481876200049d565b60ff95909516604084015250506001600160a01b039190911660609091015292915050565b60005b83811015620005365781810151838201526020016200051c565b8381111562000546576000848401525b50505050565b600181811c908216806200056157607f821691505b602082108114156200058357634e487b7160e01b600052602260045260246000fd5b50919050565b634e487b7160e01b600052604160045260246000fd5b60805160a05160c05160e05161010051610120516101405160f81c6138d3620005fd600039600061032201526000611206015260006117b901526000611808015260006117e3015260006117670152600061179001526138d36000f3fe608060405234801561001057600080fd5b50600436106101e55760003560e01c8063631b5dfb1161010f57806390596dd1116100a2578063cf42dca811610071578063cf42dca814610533578063d505accf14610546578063dd62ed3e14610559578063f77c47911461059257600080fd5b806390596dd1146104f257806395d89b4114610505578063a457c2d71461050d578063a9059cbb1461052057600080fd5b80637ecebe00116100de5780637ecebe001461046a5780638200d8731461047d5780638d22ea2a146104995780638f02fee4146104df57600080fd5b8063631b5dfb1461041e5780636cdd0be21461043157806370a08231146104445780637966cd671461045757600080fd5b80633613f92111610187578063405e22ad11610156578063405e22ad146103c35780634382b0f6146103e35780635c19a95c146103f65780635d7b07581461040b57600080fd5b80633613f9211461034c5780633644e5151461036b57806336bb2a381461037357806339509351146103b057600080fd5b806323b872dd116101c357806323b872dd1461024657806326ca8adb146102595780632aceb5341461026c578063313ce5671461031b57600080fd5b806306fdde03146101ea578063095ea7b31461020857806318160ddd1461022b575b600080fd5b6101f26105a5565b6040516101ff91906135f0565b60405180910390f35b61021b61021636600461347b565b610637565b60405190151581526020016101ff565b6008546001600160e01b03165b6040519081526020016101ff565b61021b6102543660046132ba565b61064e565b61023861026736600461347b565b610714565b6102e461027a36600461326c565b6040805160608082018352600080835260208084018290529284018190526001600160a01b03949094168452600782529282902082519384018352546001600160e01b038116845261ffff600160e01b8204811692850192909252600160f01b9004169082015290565b6040805182516001600160e01b0316815260208084015161ffff9081169183019190915292820151909216908201526060016101ff565b60405160ff7f00000000000000000000000000000000000000000000000000000000000000001681526020016101ff565b61035662dd7c0081565b60405163ffffffff90911681526020016101ff565b610238610781565b61038661038136600461343d565b610790565b6040805182516001600160e01b0316815260209283015163ffffffff1692810192909252016101ff565b61021b6103be36600461347b565b610806565b6103d66103d1366004613369565b610842565b6040516101ff91906135ac565b6102386103f1366004613586565b610962565b61040961040436600461326c565b6109b2565b005b61040961041936600461347b565b610abd565b61040961042c3660046132ba565b610b25565b6103d661043f3660046133bc565b610be9565b61023861045236600461326c565b610d99565b6103d661046536600461351a565b610db9565b61023861047836600461326c565b610f12565b61048661ffff81565b60405161ffff90911681526020016101ff565b6104c76104a736600461326c565b6001600160a01b0390811660009081526201000860205260409020541690565b6040516001600160a01b0390911681526020016101ff565b6102386104ed3660046134a5565b610f30565b61040961050036600461347b565b610f9f565b6101f2611003565b61021b61051b36600461347b565b611012565b61021b61052e36600461347b565b6110c3565b6103d66105413660046134d8565b6110d0565b6104096105543660046132f6565b6111b2565b610238610567366004613287565b6001600160a01b03918216600090815260016020908152604080832093909416825291909152205490565b6006546104c7906001600160a01b031681565b6060600380546105b4906137a9565b80601f01602080910402602001604051908101604052809291908181526020018280546105e0906137a9565b801561062d5780601f106106025761010080835404028352916020019161062d565b820191906000526020600020905b81548152906001019060200180831161061057829003601f168201915b5050505050905090565b6000610644338484611316565b5060015b92915050565b600061065b84848461146e565b6001600160a01b0384166000908152600160209081526040808320338452909152902054828110156106fa5760405162461bcd60e51b815260206004820152602860248201527f45524332303a207472616e7366657220616d6f756e742065786365656473206160448201527f6c6c6f77616e636500000000000000000000000000000000000000000000000060648201526084015b60405180910390fd5b6107078533858403611316565b60019150505b9392505050565b6001600160a01b0382166000908152600760209081526040808320815160608101835281546001600160e01b038116825261ffff600160e01b8204811695830195909552600160f01b9004909316918301919091529061077990600183019085611747565b949350505050565b600061078b611763565b905090565b60408051808201909152600080825260208201526001600160a01b038316600090815260076020526040902060010161ffff8084169081106107d4576107d461384f565b604080518082019091529101546001600160e01b0381168252600160e01b900463ffffffff1660208201529392505050565b3360008181526001602090815260408083206001600160a01b0387168452909152812054909161064491859061083d90869061368d565b611316565b60608160008167ffffffffffffffff81111561086057610860613865565b604051908082528060200260200182016040528015610889578160200160208202803683370190505b506001600160a01b0387166000908152600760209081526040808320815160608101835281546001600160e01b038116825261ffff600160e01b8204811695830195909552600160f01b900490931691830191909152929350905b848110156109555761092683600101838a8a858181106109065761090661384f565b905060200201602081019061091b9190613586565b63ffffffff16611747565b8482815181106109385761093861384f565b60209081029190910101528061094d816137de565b9150506108e4565b5091979650505050505050565b604080516060810182526008546001600160e01b038116825261ffff600160e01b820481166020840152600160f01b90910416918101919091526000906106489060099063ffffffff8516611747565b33600090815262010009602090815260408083205462010008909252909120546001600160a01b031680156109fa576109f53382846001600160e01b0316611856565b610a0e565b610a0e3333846001600160e01b0316611856565b6001600160a01b03831615610a3657610a313384846001600160e01b0316611914565b610a4a565b610a4a3333846001600160e01b0316611914565b33600081815262010008602052604080822080547fffffffffffffffffffffffff0000000000000000000000000000000000000000166001600160a01b03881690811790915590519092917f4bc154dd35d6a5cb9206482ecb473cdbf2473006d6bce728b9cc0741bcc59ea291a3505050565b6006546001600160a01b03163314610b175760405162461bcd60e51b815260206004820152601f60248201527f436f6e74726f6c6c6564546f6b656e2f6f6e6c792d636f6e74726f6c6c65720060448201526064016106f1565b610b218282611938565b5050565b6006546001600160a01b03163314610b7f5760405162461bcd60e51b815260206004820152601f60248201527f436f6e74726f6c6c6564546f6b656e2f6f6e6c792d636f6e74726f6c6c65720060448201526064016106f1565b816001600160a01b0316836001600160a01b031614610bda576001600160a01b038281166000908152600160209081526040808320938716835292905290812054610bcb908390613775565b9050610bd8838583611316565b505b610be48282611ad8565b505050565b6060838214610c605760405162461bcd60e51b815260206004820152602360248201527f5469636b65742f73746172742d656e642d74696d65732d6c656e6774682d6d6160448201527f746368000000000000000000000000000000000000000000000000000000000060648201526084016106f1565b6001600160a01b0386166000908152600760205260408120908567ffffffffffffffff811115610c9257610c92613865565b604051908082528060200260200182016040528015610cbb578160200160208202803683370190505b50905060005b86811015610d8d576040805160608101825284546001600160e01b038116825261ffff600160e01b820481166020840152600160f01b9091041691810191909152610d5e9060018501908a8a85818110610d1d57610d1d61384f565b9050602002016020810190610d329190613586565b898986818110610d4457610d4461384f565b9050602002016020810190610d599190613586565b611d36565b828281518110610d7057610d7061384f565b602090810291909101015280610d85816137de565b915050610cc1565b50979650505050505050565b6001600160a01b0381166000908152620100096020526040812054610648565b6060838214610e305760405162461bcd60e51b815260206004820152602360248201527f5469636b65742f73746172742d656e642d74696d65732d6c656e6774682d6d6160448201527f746368000000000000000000000000000000000000000000000000000000000060648201526084016106f1565b600860008567ffffffffffffffff811115610e4d57610e4d613865565b604051908082528060200260200182016040528015610e76578160200160208202803683370190505b50905060005b86811015610f07576040805160608101825284546001600160e01b038116825261ffff600160e01b820481166020840152600160f01b9091041691810191909152610ed89060018501908a8a85818110610d1d57610d1d61384f565b828281518110610eea57610eea61384f565b602090810291909101015280610eff816137de565b915050610e7c565b509695505050505050565b6001600160a01b038116600090815260056020526040812054610648565b6001600160a01b0383166000908152600760209081526040808320815160608101835281546001600160e01b038116825261ffff600160e01b8204811695830195909552600160f01b90049093169183019190915290610f969060018301908686611d36565b95945050505050565b6006546001600160a01b03163314610ff95760405162461bcd60e51b815260206004820152601f60248201527f436f6e74726f6c6c6564546f6b656e2f6f6e6c792d636f6e74726f6c6c65720060448201526064016106f1565b610b218282611ad8565b6060600480546105b4906137a9565b3360009081526001602090815260408083206001600160a01b0386168452909152812054828110156110ac5760405162461bcd60e51b815260206004820152602560248201527f45524332303a2064656372656173656420616c6c6f77616e63652062656c6f7760448201527f207a65726f00000000000000000000000000000000000000000000000000000060648201526084016106f1565b6110b93385858403611316565b5060019392505050565b600061064433848461146e565b60608160008167ffffffffffffffff8111156110ee576110ee613865565b604051908082528060200260200182016040528015611117578160200160208202803683370190505b50604080516060810182526008546001600160e01b038116825261ffff600160e01b820481166020840152600160f01b909104169181019190915290915060005b838110156111a7576111786009838989858181106109065761090661384f565b83828151811061118a5761118a61384f565b60209081029190910101528061119f816137de565b915050611158565b509095945050505050565b834211156112025760405162461bcd60e51b815260206004820152601d60248201527f45524332305065726d69743a206578706972656420646561646c696e6500000060448201526064016106f1565b60007f00000000000000000000000000000000000000000000000000000000000000008888886112318c611d53565b6040805160208101969096526001600160a01b0394851690860152929091166060840152608083015260a082015260c0810186905260e001604051602081830303815290604052805190602001209050600061128c82611d7b565b9050600061129c82878787611de4565b9050896001600160a01b0316816001600160a01b0316146112ff5760405162461bcd60e51b815260206004820152601e60248201527f45524332305065726d69743a20696e76616c6964207369676e6174757265000060448201526064016106f1565b61130a8a8a8a611316565b50505050505050505050565b6001600160a01b0383166113915760405162461bcd60e51b8152602060048201526024808201527f45524332303a20617070726f76652066726f6d20746865207a65726f2061646460448201527f726573730000000000000000000000000000000000000000000000000000000060648201526084016106f1565b6001600160a01b03821661140d5760405162461bcd60e51b815260206004820152602260248201527f45524332303a20617070726f766520746f20746865207a65726f20616464726560448201527f737300000000000000000000000000000000000000000000000000000000000060648201526084016106f1565b6001600160a01b0383811660008181526001602090815260408083209487168084529482529182902085905590518481527f8c5be1e5ebec7d5bd14f71427d1e84f3dd0314c0f7b2291e5b200ac8c7c3b925910160405180910390a3505050565b6001600160a01b0383166114ea5760405162461bcd60e51b815260206004820152602560248201527f45524332303a207472616e736665722066726f6d20746865207a65726f20616460448201527f647265737300000000000000000000000000000000000000000000000000000060648201526084016106f1565b6001600160a01b0382166115665760405162461bcd60e51b815260206004820152602360248201527f45524332303a207472616e7366657220746f20746865207a65726f206164647260448201527f657373000000000000000000000000000000000000000000000000000000000060648201526084016106f1565b80826001600160a01b0316846001600160a01b0316146116f4576001600160a01b03841660009081526201000960205260409020546001600160e01b03821681101561161a5760405162461bcd60e51b815260206004820152602660248201527f45524332303a207472616e7366657220616d6f756e742065786365656473206260448201527f616c616e6365000000000000000000000000000000000000000000000000000060648201526084016106f1565b6001600160a01b0380861660009081526201000960205260408082206001600160e01b03861680860390915592871682528120805490919061165d90849061368d565b90915550506001600160a01b03808616600090815262010008602052604090205416801561169557611690868286611856565b6116a0565b6116a0868786611856565b6001600160a01b0380861660009081526201000860205260409020541680156116dc576116d78682866001600160e01b0316611914565b6116f0565b6116f08687866001600160e01b0316611914565b5050505b826001600160a01b0316846001600160a01b03167fddf252ad1be2c89b69c2b068fc378daa952ba7f163c4a11628f55a4df523b3ef8460405161173991815260200190565b60405180910390a350505050565b6000610779836040015184602001518686600001518642611e0c565b60007f00000000000000000000000000000000000000000000000000000000000000004614156117b257507f000000000000000000000000000000000000000000000000000000000000000090565b50604080517f00000000000000000000000000000000000000000000000000000000000000006020808301919091527f0000000000000000000000000000000000000000000000000000000000000000828401527f000000000000000000000000000000000000000000000000000000000000000060608301524660808301523060a0808401919091528351808403909101815260c0909201909252805191012090565b600060076000846001600160a01b03166001600160a01b0316815260200190815260200160002090506000806118a5838560405180606001604052806022815260200161387c60229139611e56565b91509150801561190c576040805183516001600160e01b0316815260208085015163ffffffff16908201526001600160a01b0380881692908916917f56bf5251c21af3be0462e65380f02036c247ea4203fda153f3a9c3e7f8f9318d910160405180910390a35b505050505050565b6001600160a01b038216600090815260076020526040812090806118a58385611fcb565b6001600160a01b03821661198e5760405162461bcd60e51b815260206004820152601f60248201527f45524332303a206d696e7420746f20746865207a65726f20616464726573730060448201526064016106f1565b60006119998261210d565b90506001600160a01b0383166000908152620100096020526040812080546001600160e01b03841692906119ce90849061368d565b9091555060009050806119eb60086001600160e01b038516611fcb565b915091508015611a42576040805183516001600160e01b0316815260208085015163ffffffff16908201527f3375b905d617084fa6b7531688cc8046feb1f1a0b8ba2273de03c59d8d84416c910160405180910390a15b6001600160a01b038086166000908152620100086020526040902054168015611a7e57611a798682866001600160e01b0316611914565b611a92565b611a928687866001600160e01b0316611914565b6040518581526001600160a01b038716906000907fddf252ad1be2c89b69c2b068fc378daa952ba7f163c4a11628f55a4df523b3ef9060200160405180910390a361190c565b6001600160a01b038216611b545760405162461bcd60e51b815260206004820152602160248201527f45524332303a206275726e2066726f6d20746865207a65726f2061646472657360448201527f730000000000000000000000000000000000000000000000000000000000000060648201526084016106f1565b6000611b5f8261210d565b9050600080611b916008846001600160e01b031660405180606001604052806022815260200161387c60229139611e56565b915091508015611be8576040805183516001600160e01b0316815260208085015163ffffffff16908201527f3375b905d617084fa6b7531688cc8046feb1f1a0b8ba2273de03c59d8d84416c910160405180910390a15b6001600160a01b03851660009081526201000960205260409020546001600160e01b038416811015611c825760405162461bcd60e51b815260206004820152602260248201527f45524332303a206275726e20616d6f756e7420657863656564732062616c616e60448201527f636500000000000000000000000000000000000000000000000000000000000060648201526084016106f1565b6001600160a01b03808716600090815262010009602090815260408083206001600160e01b0389168603905562010008909152902054168015611cd857611cd38782876001600160e01b0316611856565b611cec565b611cec8788876001600160e01b0316611856565b6040518681526000906001600160a01b038916907fddf252ad1be2c89b69c2b068fc378daa952ba7f163c4a11628f55a4df523b3ef9060200160405180910390a350505050505050565b6000610f9684604001518560200151878760000151878742612190565b6001600160a01b03811660009081526005602052604090208054600181018255905b50919050565b6000610648611d88611763565b836040517f19010000000000000000000000000000000000000000000000000000000000006020820152602281018390526042810182905260009060620160405160208183030381529060405280519060200120905092915050565b6000806000611df5878787876121d1565b91509150611e02816122be565b5095945050505050565b600080611e18886124b2565b90506000611e2e8861ffff168361ffff166124c6565b9050611e478786886001600160e01b03168486896124f6565b925050505b9695505050505050565b60408051808201909152600080825260208201526040805160608101825285546001600160e01b03811680835261ffff600160e01b830481166020850152600160f01b90920490911692820192909252600091829182918690881115611ecf5760405162461bcd60e51b81526004016106f191906135f0565b50611ef08160000151826020015183604001518b6001014262dd7c006126be565b604080516060810190915285519299509097509295509093508190611f2890611f23908b906001600160e01b0316613775565b61210d565b6001600160e01b03908116825261ffff95861660208084019190915294861660409283015282518b549584015193909201518616600160f01b027dffffffffffffffffffffffffffffffffffffffffffffffffffffffffffff93909616600160e01b027fffff0000000000000000000000000000000000000000000000000000000000009095169116179290921791909116919091179095559094909350915050565b60408051808201909152600080825260208201526040805160608101825284546001600160e01b03811680835261ffff600160e01b8304811660208501819052600160f01b909304169383018490526000938493849390926120389290919060018b014262dd7c006126be565b60408051606081019091528551929950909750929550909350819061206b90611f23908a906001600160e01b031661368d565b6001600160e01b03908116825261ffff95861660208084019190915294861660409283015282518a549584015193909201518616600160f01b027dffffffffffffffffffffffffffffffffffffffffffffffffffffffffffff93909616600160e01b027fffff00000000000000000000000000000000000000000000000000000000000090951691161792909217919091169190911790945590939092509050565b60006001600160e01b0382111561218c5760405162461bcd60e51b815260206004820152602760248201527f53616665436173743a2076616c756520646f65736e27742066697420696e203260448201527f323420626974730000000000000000000000000000000000000000000000000060648201526084016106f1565b5090565b60008061219c896124b2565b905060006121b28961ffff168361ffff166124c6565b90506121c38888838989878a6126fb565b9a9950505050505050505050565b6000807f7fffffffffffffffffffffffffffffff5d576e7357a4501ddfe92f46681b20a083111561220857506000905060036122b5565b8460ff16601b1415801561222057508460ff16601c14155b1561223157506000905060046122b5565b6040805160008082526020820180845289905260ff881692820192909252606081018690526080810185905260019060a0016020604051602081039080840390855afa158015612285573d6000803e3d6000fd5b5050604051601f1901519150506001600160a01b0381166122ae576000600192509250506122b5565b9150600090505b94509492505050565b60008160048111156122d2576122d2613839565b14156122db5750565b60018160048111156122ef576122ef613839565b141561233d5760405162461bcd60e51b815260206004820152601860248201527f45434453413a20696e76616c6964207369676e6174757265000000000000000060448201526064016106f1565b600281600481111561235157612351613839565b141561239f5760405162461bcd60e51b815260206004820152601f60248201527f45434453413a20696e76616c6964207369676e6174757265206c656e6774680060448201526064016106f1565b60038160048111156123b3576123b3613839565b14156124275760405162461bcd60e51b815260206004820152602260248201527f45434453413a20696e76616c6964207369676e6174757265202773272076616c60448201527f756500000000000000000000000000000000000000000000000000000000000060648201526084016106f1565b600481600481111561243b5761243b613839565b14156124af5760405162461bcd60e51b815260206004820152602260248201527f45434453413a20696e76616c6964207369676e6174757265202776272076616c60448201527f756500000000000000000000000000000000000000000000000000000000000060648201526084016106f1565b50565b6000808261ffff161161218c576001610648565b6000816124d557506000610648565b8160016124e2828661368d565b6124ec9190613775565b61070d91906137f9565b6000808263ffffffff168763ffffffff16116125125786612514565b825b60408051808201909152600080825260208201529091506000898761ffff1661ffff81106125445761254461384f565b604080518082019091529101546001600160e01b038116825263ffffffff600160e01b90910481166020830181905291925061258591908590889061283616565b1561259557879350505050611e4c565b60006125a98861ffff168861ffff16612907565b90508a8161ffff1661ffff81106125c2576125c261384f565b604080518082019091529101546001600160e01b0381168252600160e01b900463ffffffff16602082018190529092506126255750506040805180820190915289546001600160e01b0381168252600160e01b900463ffffffff16602082015260005b6126448260200151878663ffffffff166129159092919063ffffffff16565b15612656576000945050505050611e4c565b6126648b89838d8b8b6129e4565b8151815191955091935060009161267a9161374d565b9050600083602001518560200151612692919061378c565b90506126a463ffffffff8216836136c5565b6001600160e01b03169d9c50505050505050505050505050565b6040805180820190915260008082526020820181905290819060006126e7878b8b8b8a8a612ba7565b929d919c509a509098509650505050505050565b60008463ffffffff168463ffffffff16116127585760405162461bcd60e51b815260206004820152601e60248201527f545741422f737461727454696d652d67742d7468616e2d656e6454696d65000060448201526064016106f1565b600061276c8761ffff168561ffff16612907565b90506000898261ffff1661ffff81106127875761278761384f565b604080518082019091529101546001600160e01b0381168252600160e01b900463ffffffff16602082018190529091506127eb5750506040805180820190915288546001600160e01b0381168252600160e01b900463ffffffff1660208201526000905b6121c38a8a6040518060a001604052808c61ffff1681526020018661ffff1681526020018b63ffffffff1681526020018a63ffffffff1681526020018961ffff168152508488612cb3565b60008163ffffffff168463ffffffff161115801561286057508163ffffffff168363ffffffff1611155b1561287c578263ffffffff168463ffffffff161115905061070d565b60008263ffffffff168563ffffffff16116128ab576128a663ffffffff86166401000000006136a5565b6128b3565b8463ffffffff165b64ffffffffff16905060008363ffffffff168563ffffffff16116128eb576128e663ffffffff86166401000000006136a5565b6128f3565b8463ffffffff165b64ffffffffff169091111595945050505050565b6000816124ec84600161368d565b60008163ffffffff168463ffffffff161115801561293f57508163ffffffff168363ffffffff1611155b1561295a578263ffffffff168463ffffffff1610905061070d565b60008263ffffffff168563ffffffff16116129895761298463ffffffff86166401000000006136a5565b612991565b8463ffffffff165b64ffffffffff16905060008363ffffffff168563ffffffff16116129c9576129c463ffffffff86166401000000006136a5565b6129d1565b8463ffffffff165b64ffffffffff1690911095945050505050565b6040805180820190915260008082526020820152604080518082019091526000808252602082015260008661ffff1690506000818961ffff1610612a2c578861ffff16612a46565b6001612a3c61ffff88168461368d565b612a469190613775565b905060005b6002612a57838561368d565b612a6191906136eb565b90508a612a72828961ffff16612dc3565b61ffff1661ffff8110612a8757612a8761384f565b604080518082019091529101546001600160e01b0381168252600160e01b900463ffffffff166020820181905290955080612acf57612ac782600161368d565b935050612a4b565b8b612ade838a61ffff16612907565b61ffff1661ffff8110612af357612af361384f565b604080518082019091529101546001600160e01b038116825263ffffffff600160e01b90910481166020830152909550600090612b3890838116908c908b9061283616565b9050808015612b615750612b618660200151898c63ffffffff166128369092919063ffffffff16565b15612b6d575050612b99565b80612b8457612b7d600184613775565b9350612b92565b612b8f83600161368d565b94505b5050612a4b565b505050965096945050505050565b604080518082019091526000808252602082018190529081906000808a612bd68a61ffff168a61ffff166124c6565b61ffff1661ffff8110612beb57612beb61384f565b604080518082019091529101546001600160e01b038116825263ffffffff600160e01b90910481166020830181905291925088161415612c3657889450879350915060009050612ca6565b612c438b8a8a8a8a612dcf565b90955093506000612c5e826001600160e01b038d168a612eed565b9050808c8b61ffff1661ffff8110612c7857612c7861384f565b825160209093015163ffffffff16600160e01b026001600160e01b0390931692909217910155925060019150505b9650965096509692505050565b6000808263ffffffff16856060015163ffffffff1611612cd7578460600151612cd9565b825b9050600087866000015161ffff1661ffff8110612cf857612cf861384f565b60408051808201825291909201546001600160e01b0381168252600160e01b900463ffffffff166020808301919091528851908901519289015160808a0151929450600093612d51938d9387938c9391928f908d612f74565b90506000612d728a84898b600001518c60200151898f8f608001518e612f74565b905081602001518160200151612d88919061378c565b63ffffffff1682600001518260000151612da2919061374d565b612dac91906136c5565b6001600160e01b03169a9950505050505050505050565b600061070d82846137f9565b6000806000808661ffff1611612de6576001612de8565b855b604080518082019091526000808252602082015290915060028261ffff161115612e625788612e1f8961ffff168461ffff16612907565b61ffff1661ffff8110612e3457612e3461384f565b604080518082019091529101546001600160e01b0381168252600160e01b900463ffffffff16602082015290505b819250806020015163ffffffff1660001480612ea757508463ffffffff16612e9f8260200151888963ffffffff1661313a9092919063ffffffff16565b63ffffffff16105b15612ecd5761ffff82811610612ebf5761ffff612eca565b612eca826001613645565b92505b612edf8861ffff168461ffff16612907565b935050509550959350505050565b60408051808201909152600080825260208201526040518060400160405280612f53612f2e8760200151868763ffffffff1661313a9092919063ffffffff16565b612f3e9063ffffffff168761372e565b8751611f2391906001600160e01b031661368d565b6001600160e01b031681526020018363ffffffff1681525090509392505050565b6040805180820190915260008082526020820152612fa785838b6020015163ffffffff166129159092919063ffffffff16565b156130025760405180604001604052808a6020015187612fc7919061378c565b612fd79063ffffffff16876136ff565b8b51612fe3919061366b565b6001600160e01b031681526020018663ffffffff16815250905061312d565b8463ffffffff16896020015163ffffffff16141561302157508761312d565b8463ffffffff16886020015163ffffffff16141561304057508661312d565b61305f8860200151838763ffffffff166129159092919063ffffffff16565b156130845750604080518082019091526000815263ffffffff8516602082015261312d565b6000806130958c8a8a8a89896129e4565b915091506000826020015182602001516130af919061378c565b63ffffffff16836000015183600001516130c9919061374d565b6130d391906136c5565b905060008360200151896130e7919061378c565b6130f79063ffffffff16836136ff565b8451613103919061366b565b604080518082019091526001600160e01b03909116815263ffffffff8a1660208201529450505050505b9998505050505050505050565b60008163ffffffff168463ffffffff161115801561316457508163ffffffff168363ffffffff1611155b1561317a57613173838561378c565b905061070d565b60008263ffffffff168563ffffffff16116131a9576131a463ffffffff86166401000000006136a5565b6131b1565b8463ffffffff165b64ffffffffff16905060008363ffffffff168563ffffffff16116131e9576131e463ffffffff86166401000000006136a5565b6131f1565b8463ffffffff165b64ffffffffff169050611e4c8183613775565b80356001600160a01b038116811461321b57600080fd5b919050565b60008083601f84011261323257600080fd5b50813567ffffffffffffffff81111561324a57600080fd5b6020830191508360208260051b850101111561326557600080fd5b9250929050565b60006020828403121561327e57600080fd5b61070d82613204565b6000806040838503121561329a57600080fd5b6132a383613204565b91506132b160208401613204565b90509250929050565b6000806000606084860312156132cf57600080fd5b6132d884613204565b92506132e660208501613204565b9150604084013590509250925092565b600080600080600080600060e0888a03121561331157600080fd5b61331a88613204565b965061332860208901613204565b95506040880135945060608801359350608088013560ff8116811461334c57600080fd5b9699959850939692959460a0840135945060c09093013592915050565b60008060006040848603121561337e57600080fd5b61338784613204565b9250602084013567ffffffffffffffff8111156133a357600080fd5b6133af86828701613220565b9497909650939450505050565b6000806000806000606086880312156133d457600080fd5b6133dd86613204565b9450602086013567ffffffffffffffff808211156133fa57600080fd5b61340689838a01613220565b9096509450604088013591508082111561341f57600080fd5b5061342c88828901613220565b969995985093965092949392505050565b6000806040838503121561345057600080fd5b61345983613204565b9150602083013561ffff8116811461347057600080fd5b809150509250929050565b6000806040838503121561348e57600080fd5b61349783613204565b946020939093013593505050565b6000806000606084860312156134ba57600080fd5b6134c384613204565b95602085013595506040909401359392505050565b600080602083850312156134eb57600080fd5b823567ffffffffffffffff81111561350257600080fd5b61350e85828601613220565b90969095509350505050565b6000806000806040858703121561353057600080fd5b843567ffffffffffffffff8082111561354857600080fd5b61355488838901613220565b9096509450602087013591508082111561356d57600080fd5b5061357a87828801613220565b95989497509550505050565b60006020828403121561359857600080fd5b813563ffffffff8116811461070d57600080fd5b6020808252825182820181905260009190848201906040850190845b818110156135e4578351835292840192918401916001016135c8565b50909695505050505050565b600060208083528351808285015260005b8181101561361d57858101830151858201604001528201613601565b8181111561362f576000604083870101525b50601f01601f1916929092016040019392505050565b600061ffff8083168185168083038211156136625761366261380d565b01949350505050565b60006001600160e01b038083168185168083038211156136625761366261380d565b600082198211156136a0576136a061380d565b500190565b600064ffffffffff8083168185168083038211156136625761366261380d565b60006001600160e01b03808416806136df576136df613823565b92169190910492915050565b6000826136fa576136fa613823565b500490565b60006001600160e01b03808316818516818304811182151516156137255761372561380d565b02949350505050565b60008160001904831182151516156137485761374861380d565b500290565b60006001600160e01b038381169083168181101561376d5761376d61380d565b039392505050565b6000828210156137875761378761380d565b500390565b600063ffffffff8381169083168181101561376d5761376d61380d565b600181811c908216806137bd57607f821691505b60208210811415611d7557634e487b7160e01b600052602260045260246000fd5b60006000198214156137f2576137f261380d565b5060010190565b60008261380857613808613823565b500690565b634e487b7160e01b600052601160045260246000fd5b634e487b7160e01b600052601260045260246000fd5b634e487b7160e01b600052602160045260246000fd5b634e487b7160e01b600052603260045260246000fd5b634e487b7160e01b600052604160045260246000fdfe45524332303a206275726e20616d6f756e7420657863656564732062616c616e6365a26469706673582212204ed21d98cd3838b524bbba3122992a6d957c0bcc2467d3ad2520a630d350467564736f6c63430008060033",
  "devdoc": {
    "author": "PoolTogether Inc.",
    "kind": "dev",
    "methods": {
      "DOMAIN_SEPARATOR()": {
        "details": "See {IERC20Permit-DOMAIN_SEPARATOR}."
      },
      "allowance(address,address)": {
        "details": "See {IERC20-allowance}."
      },
      "approve(address,uint256)": {
        "details": "See {IERC20-approve}. Requirements: - `spender` cannot be the zero address."
      },
      "balanceOf(address)": {
        "returns": {
          "_0": "uint224 `_user` ticket token balance."
        }
      },
      "constructor": {
        "params": {
          "_controller": "ERC20 ticket controller address (ie: Prize Pool address).",
          "_name": "ERC20 ticket token name.",
          "_symbol": "ERC20 ticket token symbol.",
          "decimals_": "ERC20 ticket token decimals."
        }
      },
      "controllerBurn(address,uint256)": {
        "details": "May be overridden to provide more granular control over burning",
        "params": {
          "_amount": "Amount of tokens to burn",
          "_user": "Address of the holder account to burn tokens from"
        }
      },
      "controllerBurnFrom(address,address,uint256)": {
        "details": "May be overridden to provide more granular control over operator-burning",
        "params": {
          "_amount": "Amount of tokens to burn",
          "_operator": "Address of the operator performing the burn action via the controller contract",
          "_user": "Address of the holder account to burn tokens from"
        }
      },
      "controllerMint(address,uint256)": {
        "details": "May be overridden to provide more granular control over minting",
        "params": {
          "_amount": "Amount of tokens to mint",
          "_user": "Address of the receiver of the minted tokens"
        }
      },
      "decimals()": {
        "details": "This value should be equal to the decimals of the token used to deposit into the pool.",
        "returns": {
          "_0": "uint8 decimals."
        }
      },
      "decreaseAllowance(address,uint256)": {
        "details": "Atomically decreases the allowance granted to `spender` by the caller. This is an alternative to {approve} that can be used as a mitigation for problems described in {IERC20-approve}. Emits an {Approval} event indicating the updated allowance. Requirements: - `spender` cannot be the zero address. - `spender` must have allowance for the caller of at least `subtractedValue`."
      },
      "getAccountDetails(address)": {
        "params": {
          "_user": "The user for whom to fetch the TWAB context"
        },
        "returns": {
          "_0": "The TWAB context, which includes { balance, nextTwabIndex, cardinality }"
        }
      },
      "getAverageBalanceBetween(address,uint256,uint256)": {
        "params": {
          "_endTime": "The end time of the time frame.",
          "_startTime": "The start time of the time frame.",
          "_user": "The user whose balance is checked"
        },
        "returns": {
          "_0": "The average balance that the user held during the time frame."
        }
      },
      "getAverageBalancesBetween(address,uint32[],uint32[])": {
        "params": {
          "endTimes": "The end time of the time frame.",
          "startTimes": "The start time of the time frame.",
          "user": "The user whose balance is checked"
        },
        "returns": {
          "_0": "The average balance that the user held during the time frame."
        }
      },
      "getAverageTotalSuppliesBetween(uint32[],uint32[])": {
        "params": {
          "endTimes": "Array of end times",
          "startTimes": "Array of start times"
        },
        "returns": {
          "_0": "The average total supplies held during the time frame."
        }
      },
      "getBalanceAt(address,uint256)": {
        "params": {
          "_target": "Timestamp at which the reserved TWAB should be for.",
          "_user": "Address of the user whose TWAB is being fetched."
        }
      },
      "getBalancesAt(address,uint32[])": {
        "params": {
          "_targets": "Timestamps at which the reserved TWABs should be for.",
          "_user": "Address of the user whose TWABs are being fetched."
        },
        "returns": {
          "_0": "uint256[] `_user` TWAB balances."
        }
      },
      "getTotalSupplies(uint32[])": {
        "params": {
          "_targets": "Timestamps at which the reserved TWABs should be for."
        },
        "returns": {
          "_0": "uint256[] ticket TWAB `totalSupplies`."
        }
      },
      "getTotalSupply(uint32)": {
        "params": {
          "_target": "Timestamp at which the reserved TWAB should be for."
        }
      },
      "getTwab(address,uint16)": {
        "params": {
          "_index": "The index of the TWAB to fetch",
          "_user": "The user for whom to fetch the TWAB"
        },
        "returns": {
          "_0": "The TWAB, which includes the twab amount and the timestamp."
        }
      },
      "increaseAllowance(address,uint256)": {
        "details": "Atomically increases the allowance granted to `spender` by the caller. This is an alternative to {approve} that can be used as a mitigation for problems described in {IERC20-approve}. Emits an {Approval} event indicating the updated allowance. Requirements: - `spender` cannot be the zero address."
      },
      "name()": {
        "details": "Returns the name of the token."
      },
      "nonces(address)": {
        "details": "See {IERC20Permit-nonces}."
      },
      "permit(address,address,uint256,uint256,uint8,bytes32,bytes32)": {
        "details": "See {IERC20Permit-permit}."
      },
      "symbol()": {
        "details": "Returns the symbol of the token, usually a shorter version of the name."
      },
      "totalSupply()": {
        "returns": {
          "_0": "uint256 Total supply of the ERC20 ticket token."
        }
      },
      "transfer(address,uint256)": {
        "details": "See {IERC20-transfer}. Requirements: - `recipient` cannot be the zero address. - the caller must have a balance of at least `amount`."
      },
      "transferFrom(address,address,uint256)": {
        "details": "See {IERC20-transferFrom}. Emits an {Approval} event indicating the updated allowance. This is not required by the EIP. See the note at the beginning of {ERC20}. Requirements: - `sender` and `recipient` cannot be the zero address. - `sender` must have a balance of at least `amount`. - the caller must have allowance for ``sender``'s tokens of at least `amount`."
      }
    },
    "stateVariables": {
      "TWAB_TIME_TO_LIVE": {
        "details": "Once the twab ttl expires, its storage slot is recycled."
      }
    },
    "title": "An ERC20 token that allows you to see user's past balances, and average balance held between timestamps.",
    "version": 1
  },
  "userdoc": {
    "events": {
      "NewTotalSupplyTwab((uint224,uint32))": {
        "notice": "Emitted when a new total supply TWAB has been recorded."
      },
      "NewUserTwab(address,address,(uint224,uint32))": {
        "notice": "Emitted when a new TWAB has been recorded."
      },
      "TicketInitialized(string,string,uint8,address)": {
        "notice": "Emitted when ticket is initialized."
      }
    },
    "kind": "user",
    "methods": {
      "MAX_CARDINALITY()": {
        "notice": "The maximum number of twab entries"
      },
      "TWAB_TIME_TO_LIVE()": {
        "notice": "The minimum length of time a twab should exist."
      },
      "balanceOf(address)": {
        "notice": "Returns the ERC20 ticket token balance of a ticket holder."
      },
      "constructor": {
        "notice": "Constructs Ticket with passed parameters."
      },
      "controller()": {
        "notice": "Interface to the contract responsible for controlling mint/burn"
      },
      "controllerBurn(address,uint256)": {
        "notice": "Allows the controller to burn tokens from a user account"
      },
      "controllerBurnFrom(address,address,uint256)": {
        "notice": "Allows an operator via the controller to burn tokens on behalf of a user account"
      },
      "controllerMint(address,uint256)": {
        "notice": "Allows the controller to mint tokens for a user account"
      },
      "decimals()": {
        "notice": "Returns the ERC20 controlled token decimals."
      },
      "getAccountDetails(address)": {
        "notice": "Gets a users twap context.  This is a struct with their balance, next twab index, and cardinality."
      },
      "getAverageBalanceBetween(address,uint256,uint256)": {
        "notice": "Calculates the average balance held by a user for a given time frame."
      },
      "getAverageBalancesBetween(address,uint32[],uint32[])": {
        "notice": "Calculates the average balance held by a user for given time frames."
      },
      "getAverageTotalSuppliesBetween(uint32[],uint32[])": {
        "notice": "Calculates the average total supply balance for a set of given time frames."
      },
      "getBalanceAt(address,uint256)": {
        "notice": "Retrieves `_user` TWAB balance."
      },
      "getBalancesAt(address,uint32[])": {
        "notice": "Retrieves `_user` TWAB balances."
      },
      "getTotalSupplies(uint32[])": {
        "notice": "Retrieves ticket TWAB `totalSupplies`."
      },
      "getTotalSupply(uint32)": {
        "notice": "Retrieves ticket TWAB `totalSupply`."
      },
      "getTwab(address,uint16)": {
        "notice": "Gets the TWAB at a specific index for a user."
      },
      "totalSupply()": {
        "notice": "Returns the ERC20 ticket token total supply."
      }
    },
    "version": 1
  },
  "storageLayout": {
    "storage": [
      {
        "astId": 55,
        "contract": "@pooltogether/v4-core/contracts/Ticket.sol:Ticket",
        "label": "_balances",
        "offset": 0,
        "slot": "0",
        "type": "t_mapping(t_address,t_uint256)"
      },
      {
        "astId": 61,
        "contract": "@pooltogether/v4-core/contracts/Ticket.sol:Ticket",
        "label": "_allowances",
        "offset": 0,
        "slot": "1",
        "type": "t_mapping(t_address,t_mapping(t_address,t_uint256))"
      },
      {
        "astId": 63,
        "contract": "@pooltogether/v4-core/contracts/Ticket.sol:Ticket",
        "label": "_totalSupply",
        "offset": 0,
        "slot": "2",
        "type": "t_uint256"
      },
      {
        "astId": 65,
        "contract": "@pooltogether/v4-core/contracts/Ticket.sol:Ticket",
        "label": "_name",
        "offset": 0,
        "slot": "3",
        "type": "t_string_storage"
      },
      {
        "astId": 67,
        "contract": "@pooltogether/v4-core/contracts/Ticket.sol:Ticket",
        "label": "_symbol",
        "offset": 0,
        "slot": "4",
        "type": "t_string_storage"
      },
      {
        "astId": 711,
        "contract": "@pooltogether/v4-core/contracts/Ticket.sol:Ticket",
        "label": "_nonces",
        "offset": 0,
        "slot": "5",
        "type": "t_mapping(t_address,t_struct(Counter)1576_storage)"
      },
      {
        "astId": 4060,
        "contract": "@pooltogether/v4-core/contracts/Ticket.sol:Ticket",
        "label": "controller",
        "offset": 0,
        "slot": "6",
        "type": "t_address"
      },
      {
        "astId": 5409,
        "contract": "@pooltogether/v4-core/contracts/Ticket.sol:Ticket",
        "label": "userTwabs",
        "offset": 0,
        "slot": "7",
        "type": "t_mapping(t_address,t_struct(Account)5403_storage)"
      },
      {
        "astId": 5413,
        "contract": "@pooltogether/v4-core/contracts/Ticket.sol:Ticket",
        "label": "totalSupplyTwab",
        "offset": 0,
        "slot": "8",
        "type": "t_struct(Account)5403_storage"
      },
      {
        "astId": 5418,
        "contract": "@pooltogether/v4-core/contracts/Ticket.sol:Ticket",
        "label": "delegates",
        "offset": 0,
        "slot": "65544",
        "type": "t_mapping(t_address,t_address)"
      },
      {
        "astId": 5423,
        "contract": "@pooltogether/v4-core/contracts/Ticket.sol:Ticket",
        "label": "balances",
        "offset": 0,
        "slot": "65545",
        "type": "t_mapping(t_address,t_uint256)"
      }
    ],
    "types": {
      "t_address": {
        "encoding": "inplace",
        "label": "address",
        "numberOfBytes": "20"
      },
      "t_array(t_struct(Twab)9390_storage)65535_storage": {
        "base": "t_struct(Twab)9390_storage",
        "encoding": "inplace",
        "label": "struct TwabLibrary.Twab[65535]",
        "numberOfBytes": "2097120"
      },
      "t_mapping(t_address,t_address)": {
        "encoding": "mapping",
        "key": "t_address",
        "label": "mapping(address => address)",
        "numberOfBytes": "32",
        "value": "t_address"
      },
      "t_mapping(t_address,t_mapping(t_address,t_uint256))": {
        "encoding": "mapping",
        "key": "t_address",
        "label": "mapping(address => mapping(address => uint256))",
        "numberOfBytes": "32",
        "value": "t_mapping(t_address,t_uint256)"
      },
      "t_mapping(t_address,t_struct(Account)5403_storage)": {
        "encoding": "mapping",
        "key": "t_address",
        "label": "mapping(address => struct Ticket.Account)",
        "numberOfBytes": "32",
        "value": "t_struct(Account)5403_storage"
      },
      "t_mapping(t_address,t_struct(Counter)1576_storage)": {
        "encoding": "mapping",
        "key": "t_address",
        "label": "mapping(address => struct Counters.Counter)",
        "numberOfBytes": "32",
        "value": "t_struct(Counter)1576_storage"
      },
      "t_mapping(t_address,t_uint256)": {
        "encoding": "mapping",
        "key": "t_address",
        "label": "mapping(address => uint256)",
        "numberOfBytes": "32",
        "value": "t_uint256"
      },
      "t_string_storage": {
        "encoding": "bytes",
        "label": "string",
        "numberOfBytes": "32"
      },
      "t_struct(Account)5403_storage": {
        "encoding": "inplace",
        "label": "struct Ticket.Account",
        "members": [
          {
            "astId": 5397,
            "contract": "@pooltogether/v4-core/contracts/Ticket.sol:Ticket",
            "label": "details",
            "offset": 0,
            "slot": "0",
            "type": "t_struct(AccountDetails)5394_storage"
          },
          {
            "astId": 5402,
            "contract": "@pooltogether/v4-core/contracts/Ticket.sol:Ticket",
            "label": "twabs",
            "offset": 0,
            "slot": "1",
            "type": "t_array(t_struct(Twab)9390_storage)65535_storage"
          }
        ],
        "numberOfBytes": "2097152"
      },
      "t_struct(AccountDetails)5394_storage": {
        "encoding": "inplace",
        "label": "struct Ticket.AccountDetails",
        "members": [
          {
            "astId": 5389,
            "contract": "@pooltogether/v4-core/contracts/Ticket.sol:Ticket",
            "label": "balance",
            "offset": 0,
            "slot": "0",
            "type": "t_uint224"
          },
          {
            "astId": 5391,
            "contract": "@pooltogether/v4-core/contracts/Ticket.sol:Ticket",
            "label": "nextTwabIndex",
            "offset": 28,
            "slot": "0",
            "type": "t_uint16"
          },
          {
            "astId": 5393,
            "contract": "@pooltogether/v4-core/contracts/Ticket.sol:Ticket",
            "label": "cardinality",
            "offset": 30,
            "slot": "0",
            "type": "t_uint16"
          }
        ],
        "numberOfBytes": "32"
      },
      "t_struct(Counter)1576_storage": {
        "encoding": "inplace",
        "label": "struct Counters.Counter",
        "members": [
          {
            "astId": 1575,
            "contract": "@pooltogether/v4-core/contracts/Ticket.sol:Ticket",
            "label": "_value",
            "offset": 0,
            "slot": "0",
            "type": "t_uint256"
          }
        ],
        "numberOfBytes": "32"
      },
      "t_struct(Twab)9390_storage": {
        "encoding": "inplace",
        "label": "struct TwabLibrary.Twab",
        "members": [
          {
            "astId": 9387,
            "contract": "@pooltogether/v4-core/contracts/Ticket.sol:Ticket",
            "label": "amount",
            "offset": 0,
            "slot": "0",
            "type": "t_uint224"
          },
          {
            "astId": 9389,
            "contract": "@pooltogether/v4-core/contracts/Ticket.sol:Ticket",
            "label": "timestamp",
            "offset": 28,
            "slot": "0",
            "type": "t_uint32"
          }
        ],
        "numberOfBytes": "32"
      },
      "t_uint16": {
        "encoding": "inplace",
        "label": "uint16",
        "numberOfBytes": "2"
      },
      "t_uint224": {
        "encoding": "inplace",
        "label": "uint224",
        "numberOfBytes": "28"
      },
      "t_uint256": {
        "encoding": "inplace",
        "label": "uint256",
        "numberOfBytes": "32"
      },
      "t_uint32": {
        "encoding": "inplace",
        "label": "uint32",
        "numberOfBytes": "4"
      }
    }
  }
}