{
  "address": "0x7f9D557626D32d88F80852D7A05454f91FAD2D5f",
  "abi": [
    {
      "anonymous": false,
      "inputs": [
        {
          "indexed": true,
          "internalType": "contract ClaimableDraw",
          "name": "claimableDraw",
          "type": "address"
        }
      ],
      "name": "ClaimableDrawSet",
      "type": "event"
    },
    {
      "anonymous": false,
      "inputs": [
        {
          "indexed": true,
          "internalType": "uint32",
          "name": "drawId",
          "type": "uint32"
        },
        {
          "components": [
            {
              "internalType": "uint8",
              "name": "bitRangeSize",
              "type": "uint8"
            },
            {
              "internalType": "uint16",
              "name": "matchCardinality",
              "type": "uint16"
            },
            {
              "internalType": "uint224",
              "name": "pickCost",
              "type": "uint224"
            },
            {
              "internalType": "uint128[]",
              "name": "distributions",
              "type": "uint128[]"
            },
            {
              "internalType": "uint256",
              "name": "prize",
              "type": "uint256"
            }
          ],
          "indexed": false,
          "internalType": "struct DrawLib.DrawSettings",
          "name": "drawSettings",
          "type": "tuple"
        }
      ],
      "name": "DrawSettingsSet",
      "type": "event"
    },
    {
      "anonymous": false,
      "inputs": [
        {
          "indexed": true,
          "internalType": "contract ITicket",
          "name": "ticket",
          "type": "address"
        }
      ],
      "name": "Initialized",
      "type": "event"
    },
    {
      "anonymous": false,
      "inputs": [
        {
          "indexed": true,
          "internalType": "address",
          "name": "newManager",
          "type": "address"
        }
      ],
      "name": "ManagerTransferred",
      "type": "event"
    },
    {
      "anonymous": false,
      "inputs": [
        {
          "indexed": true,
          "internalType": "address",
          "name": "previousOwner",
          "type": "address"
        },
        {
          "indexed": true,
          "internalType": "address",
          "name": "newOwner",
          "type": "address"
        }
      ],
      "name": "OwnershipTransferred",
      "type": "event"
    },
    {
      "inputs": [
        {
          "internalType": "address",
          "name": "_user",
          "type": "address"
        },
        {
          "components": [
            {
              "internalType": "uint256",
              "name": "winningRandomNumber",
              "type": "uint256"
            },
            {
              "internalType": "uint32",
              "name": "timestamp",
              "type": "uint32"
            },
            {
              "internalType": "uint32",
              "name": "drawId",
              "type": "uint32"
            }
          ],
          "internalType": "struct DrawLib.Draw[]",
          "name": "_draws",
          "type": "tuple[]"
        },
        {
          "internalType": "bytes",
          "name": "_pickIndicesForDraws",
          "type": "bytes"
        }
      ],
      "name": "calculate",
      "outputs": [
        {
          "internalType": "uint96[]",
          "name": "",
          "type": "uint96[]"
        }
      ],
      "stateMutability": "view",
      "type": "function"
    },
    {
      "inputs": [],
      "name": "claimableDraw",
      "outputs": [
        {
          "internalType": "contract ClaimableDraw",
          "name": "",
          "type": "address"
        }
      ],
      "stateMutability": "view",
      "type": "function"
    },
    {
      "inputs": [
        {
          "internalType": "uint32",
          "name": "_drawId",
          "type": "uint32"
        }
      ],
      "name": "getDrawSettings",
      "outputs": [
        {
          "components": [
            {
              "internalType": "uint8",
              "name": "bitRangeSize",
              "type": "uint8"
            },
            {
              "internalType": "uint16",
              "name": "matchCardinality",
              "type": "uint16"
            },
            {
              "internalType": "uint224",
              "name": "pickCost",
              "type": "uint224"
            },
            {
              "internalType": "uint128[]",
              "name": "distributions",
              "type": "uint128[]"
            },
            {
              "internalType": "uint256",
              "name": "prize",
              "type": "uint256"
            }
          ],
          "internalType": "struct DrawLib.DrawSettings",
          "name": "",
          "type": "tuple"
        }
      ],
      "stateMutability": "view",
      "type": "function"
    },
    {
      "inputs": [
        {
          "internalType": "contract ITicket",
          "name": "_ticket",
          "type": "address"
        },
        {
          "internalType": "address",
          "name": "_drawSettingsManager",
          "type": "address"
        },
        {
          "internalType": "contract ClaimableDraw",
          "name": "_claimableDraw",
          "type": "address"
        }
      ],
      "name": "initialize",
      "outputs": [],
      "stateMutability": "nonpayable",
      "type": "function"
    },
    {
      "inputs": [],
      "name": "manager",
      "outputs": [
        {
          "internalType": "address",
          "name": "",
          "type": "address"
        }
      ],
      "stateMutability": "view",
      "type": "function"
    },
    {
      "inputs": [],
      "name": "owner",
      "outputs": [
        {
          "internalType": "address",
          "name": "",
          "type": "address"
        }
      ],
      "stateMutability": "view",
      "type": "function"
    },
    {
      "inputs": [],
      "name": "renounceOwnership",
      "outputs": [],
      "stateMutability": "nonpayable",
      "type": "function"
    },
    {
      "inputs": [
        {
          "internalType": "contract ClaimableDraw",
          "name": "_claimableDraw",
          "type": "address"
        }
      ],
      "name": "setClaimableDraw",
      "outputs": [
        {
          "internalType": "contract ClaimableDraw",
          "name": "",
          "type": "address"
        }
      ],
      "stateMutability": "nonpayable",
      "type": "function"
    },
    {
      "inputs": [
        {
          "internalType": "uint32",
          "name": "_drawId",
          "type": "uint32"
        },
        {
          "components": [
            {
              "internalType": "uint8",
              "name": "bitRangeSize",
              "type": "uint8"
            },
            {
              "internalType": "uint16",
              "name": "matchCardinality",
              "type": "uint16"
            },
            {
              "internalType": "uint224",
              "name": "pickCost",
              "type": "uint224"
            },
            {
              "internalType": "uint128[]",
              "name": "distributions",
              "type": "uint128[]"
            },
            {
              "internalType": "uint256",
              "name": "prize",
              "type": "uint256"
            }
          ],
          "internalType": "struct DrawLib.DrawSettings",
          "name": "_drawSettings",
          "type": "tuple"
        }
      ],
      "name": "setDrawSettings",
      "outputs": [
        {
          "internalType": "bool",
          "name": "success",
          "type": "bool"
        }
      ],
      "stateMutability": "nonpayable",
      "type": "function"
    },
    {
      "inputs": [
        {
          "internalType": "address",
          "name": "_newManager",
          "type": "address"
        }
      ],
      "name": "setManager",
      "outputs": [
        {
          "internalType": "bool",
          "name": "",
          "type": "bool"
        }
      ],
      "stateMutability": "nonpayable",
      "type": "function"
    },
    {
      "inputs": [
        {
          "internalType": "address",
          "name": "newOwner",
          "type": "address"
        }
      ],
      "name": "transferOwnership",
      "outputs": [],
      "stateMutability": "nonpayable",
      "type": "function"
    }
  ],
  "transactionHash": "0x5ea6fc87f63eecb4c49c2c63dec078192beace64a3366eaac5ca628c7d778b83",
  "args": [],
  "solcInputHash": "5bd4dfff3996e6e250da2bdbd3154bc0",
  "bytecode": "0x608060405234801561001057600080fd5b506124fc806100206000396000f3fe608060405234801561001057600080fd5b50600436106100c95760003560e01c80639367baa711610081578063c25425e81161005b578063c25425e814610190578063d0ebdbe7146101b3578063f2fde38b146101c657600080fd5b80639367baa71461014a578063aba964c81461016a578063c0c53b8b1461017d57600080fd5b80634940805f116100b25780634940805f1461011c578063715018a61461012f5780638da5cb5b1461013957600080fd5b806312ac8c24146100ce578063481c6a75146100f7575b600080fd5b6100e16100dc366004611ca7565b6101d9565b6040516100ee9190611ef8565b60405180910390f35b6065546001600160a01b03165b6040516001600160a01b0390911681526020016100ee565b606754610104906001600160a01b031681565b6101376102fc565b005b6033546001600160a01b0316610104565b61015d610158366004611985565b610367565b6040516100ee9190611de3565b610104610178366004611961565b610686565b61013761018b366004611c05565b61072f565b6101a361019e366004611cc2565b6108ba565b60405190151581526020016100ee565b6101a36101c1366004611961565b610965565b6101376101d4366004611961565b6109d1565b6040805160a081018252600080825260208201819052918101829052606080820152608081019190915263ffffffff82166000908152606860209081526040808320815160a081018352815460ff81168252610100810461ffff1682860152630100000090046001600160e01b0316818401526001820180548451818702810187019095528085529194929360608601939092908301828280156102e057602002820191906000526020600020906000905b82829054906101000a90046fffffffffffffffffffffffffffffffff166fffffffffffffffffffffffffffffffff1681526020019060100190602082600f0104928301926001038202915080841161028b5790505b5050509183525050600291909101546020909101529392505050565b6033546001600160a01b0316331461035b5760405162461bcd60e51b815260206004820181905260248201527f4f776e61626c653a2063616c6c6572206973206e6f7420746865206f776e657260448201526064015b60405180910390fd5b6103656000610ab3565b565b6060600061037783850185611a39565b805190915085146103ef5760405162461bcd60e51b8152602060048201526024808201527f4472617743616c632f696e76616c69642d7069636b2d696e64696365732d6c6560448201527f6e677468000000000000000000000000000000000000000000000000000000006064820152608401610352565b60008567ffffffffffffffff81111561040a5761040a612334565b604051908082528060200260200182016040528015610433578160200160208202803683370190505b50905060008667ffffffffffffffff81111561045157610451612334565b60405190808252806020026020018201604052801561047a578160200160208202803683370190505b50905060005b878110156105295788888281811061049a5761049a61231e565b90506060020160200160208101906104b29190611ca7565b8382815181106104c4576104c461231e565b602002602001019063ffffffff16908163ffffffff16815250508888828181106104f0576104f061231e565b9050606002016000013582828151811061050c5761050c61231e565b602090810291909101015280610521816122b3565b915050610480565b50805182511461057b5760405162461bcd60e51b815260206004820152601c60248201527f4472617743616c632f696e76616c69642d647261772d6c656e677468000000006044820152606401610352565b6066546040517f405e22ad0000000000000000000000000000000000000000000000000000000081526000916001600160a01b03169063405e22ad906105c7908d908790600401611d86565b60006040518083038186803b1580156105df57600080fd5b505afa1580156105f3573d6000803e3d6000fd5b505050506040513d6000823e601f3d908101601f1916820160405261061b9190810190611b50565b6040517fffffffffffffffffffffffffffffffffffffffff00000000000000000000000060608d901b16602082015290915060009060340160405160208183030381529060405280519060200120905061067782828588610b12565b9b9a5050505050505050505050565b6065546000906001600160a01b03163314806106ac57506033546001600160a01b031633145b61071e5760405162461bcd60e51b815260206004820152602360248201527f4d616e616765722f63616c6c65722d6e6f742d6d616e616765722d6f722d6f7760448201527f6e657200000000000000000000000000000000000000000000000000000000006064820152608401610352565b61072782610d1c565b90505b919050565b600054610100900460ff1680610748575060005460ff16155b6107ba5760405162461bcd60e51b815260206004820152602e60248201527f496e697469616c697a61626c653a20636f6e747261637420697320616c72656160448201527f647920696e697469616c697a65640000000000000000000000000000000000006064820152608401610352565b600054610100900460ff161580156107dc576000805461ffff19166101011790555b6001600160a01b0384166108325760405162461bcd60e51b815260206004820152601860248201527f4472617743616c632f7469636b65742d6e6f742d7a65726f00000000000000006044820152606401610352565b61083a610df2565b61084383610965565b5061084d82610d1c565b506066805473ffffffffffffffffffffffffffffffffffffffff19166001600160a01b0386169081179091556040517f908408e307fc569b417f6cbec5d5a06f44a0a505ac0479b47d421a4b2fd6a1e690600090a280156108b4576000805461ff00191690555b50505050565b6065546000906001600160a01b03163314806108e057506033546001600160a01b031633145b6109525760405162461bcd60e51b815260206004820152602360248201527f4d616e616765722f63616c6c65722d6e6f742d6d616e616765722d6f722d6f7760448201527f6e657200000000000000000000000000000000000000000000000000000000006064820152608401610352565b61095c8383610ec3565b90505b92915050565b6033546000906001600160a01b031633146109c25760405162461bcd60e51b815260206004820181905260248201527f4f776e61626c653a2063616c6c6572206973206e6f7420746865206f776e65726044820152606401610352565b6109cb8261127c565b50919050565b6033546001600160a01b03163314610a2b5760405162461bcd60e51b815260206004820181905260248201527f4f776e61626c653a2063616c6c6572206973206e6f7420746865206f776e65726044820152606401610352565b6001600160a01b038116610aa75760405162461bcd60e51b815260206004820152602660248201527f4f776e61626c653a206e6577206f776e657220697320746865207a65726f206160448201527f64647265737300000000000000000000000000000000000000000000000000006064820152608401610352565b610ab081610ab3565b50565b603380546001600160a01b0383811673ffffffffffffffffffffffffffffffffffffffff19831681179093556040519116919082907f8be0079c531659141344cd1fd0a4f28419497f9722a3daafe3b4186f6b6457e090600090a35050565b60606000855167ffffffffffffffff811115610b3057610b30612334565b604051908082528060200260200182016040528015610b59578160200160208202803683370190505b50905060005b84518163ffffffff161015610d125763ffffffff81166000908152606860209081526040808320815160a081018352815460ff81168252610100810461ffff1682860152630100000090046001600160e01b031681840152600182018054845181870281018701909552808552919492936060860193909290830182828015610c4b57602002820191906000526020600020906000905b82829054906101000a90046fffffffffffffffffffffffffffffffff166fffffffffffffffffffffffffffffffff1681526020019060100190602082600f01049283019260010382029150808411610bf65790505b505050505081526020016002820154815250509050610cca868363ffffffff1681518110610c7b57610c7b61231e565b6020026020010151898463ffffffff1681518110610c9b57610c9b61231e565b602002602001015189888663ffffffff1681518110610cbc57610cbc61231e565b60200260200101518561139b565b838363ffffffff1681518110610ce257610ce261231e565b6bffffffffffffffffffffffff909216602092830291909101909101525080610d0a816122ce565b915050610b5f565b5095945050505050565b60006001600160a01b038216610d9a5760405162461bcd60e51b815260206004820152602860248201527f4472617743616c632f636c61696d61626c652d647261772d6e6f742d7a65726f60448201527f2d616464726573730000000000000000000000000000000000000000000000006064820152608401610352565b6067805473ffffffffffffffffffffffffffffffffffffffff19166001600160a01b0384169081179091556040517fa96795123a84d88293d426abc7fd21bd6f9daa3e25869355bb65226ecb81c42a90600090a25090565b600054610100900460ff1680610e0b575060005460ff16155b610e7d5760405162461bcd60e51b815260206004820152602e60248201527f496e697469616c697a61626c653a20636f6e747261637420697320616c72656160448201527f647920696e697469616c697a65640000000000000000000000000000000000006064820152608401610352565b600054610100900460ff16158015610e9f576000805461ffff19166101011790555b610ea76115e7565b610eaf6116a7565b8015610ab0576000805461ff001916905550565b60008080610ed46060850185611f98565b9150819050610ee96040860160208701611c6d565b61ffff161015610f615760405162461bcd60e51b815260206004820152602a60248201527f4472617743616c632f6d6174636843617264696e616c6974792d67742d64697360448201527f747269627574696f6e73000000000000000000000000000000000000000000006064820152608401610352565b610f716040850160208601611c6d565b610f7d9061010061204f565b61ffff16610f8e6020860186611d17565b60ff161115610fdf5760405162461bcd60e51b815260206004820152601f60248201527f4472617743616c632f62697452616e676553697a652d746f6f2d6c61726765006044820152606401610352565b6000610fee6020860186611d17565b60ff161161103e5760405162461bcd60e51b815260206004820152601a60248201527f4472617743616c632f62697452616e676553697a652d67742d300000000000006044820152606401610352565b60006110506060860160408701611c8a565b6001600160e01b0316116110a65760405162461bcd60e51b815260206004820152601760248201527f4472617743616c632f7069636b2d636f73742d67742d300000000000000000006044820152606401610352565b60005b81811015611113576110be6060860186611f98565b828181106110ce576110ce61231e565b90506020020160208101906110e39190611c50565b6110ff906fffffffffffffffffffffffffffffffff1684612037565b92508061110b816122b3565b9150506110a9565b50670de0b6b3a764000082111561116c5760405162461bcd60e51b815260206004820152601e60248201527f4472617743616c632f646973747269627574696f6e732d67742d3130302500006044820152606401610352565b6067546040517fcd74b99a00000000000000000000000000000000000000000000000000000000815263ffffffff871660048201523060248201526001600160a01b039091169063cd74b99a90604401602060405180830381600087803b1580156111d657600080fd5b505af11580156111ea573d6000803e3d6000fd5b505050506040513d601f19601f8201168201806040525081019061120e9190611be8565b5063ffffffff8516600090815260686020526040902084906112308282612357565b9050508463ffffffff167ff8e43f9a4a1d56ea5163b78ffeeb91f20d70f5fbe25439b7184ad5180f126acc856040516112699190611e35565b60405180910390a2506001949350505050565b6065546000906001600160a01b039081169083166112dc5760405162461bcd60e51b815260206004820181905260248201527f4d616e616765722f6d616e616765722d6e6f742d7a65726f2d616464726573736044820152606401610352565b806001600160a01b0316836001600160a01b0316141561133e5760405162461bcd60e51b815260206004820181905260248201527f4d616e616765722f6578697374696e672d6d616e616765722d616464726573736044820152606401610352565b6065805473ffffffffffffffffffffffffffffffffffffffff19166001600160a01b0385169081179091556040517fcec439ab23c9526560087cb80f125a4b035e1da85484bcd969ac3affcf99463590600090a250600192915050565b60008082604001516001600160e01b0316866113b79190612070565b9050600083606001515167ffffffffffffffff8111156113d9576113d9612334565b604051908082528060200260200182016040528015611402578160200160208202803683370190505b50905060006114108561175d565b905060005b8651811015611534576000888883815181106114335761143361231e565b6020026020010151604051602001611455929190918252602082015260400190565b6040516020818303038152906040528051906020012060001c9050848883815181106114835761148361231e565b6020026020010151106114d85760405162461bcd60e51b815260206004820181905260248201527f4472617743616c632f696e73756666696369656e742d757365722d7069636b736044820152606401610352565b60006114e5828d86611837565b905087606001515181101561151f578481815181106115065761150661231e565b60200260200101805180919061151b906122b3565b9052505b5050808061152c906122b3565b915050611415565b506000805b8660600151518110156115b557600084828151811061155a5761155a61231e565b602002602001015111156115a35783818151811061157a5761157a61231e565b602002602001015161158c88836118a0565b611596919061217f565b6115a09083612037565b91505b806115ad816122b3565b915050611539565b50670de0b6b3a76400008660800151826115cf919061217f565b6115d99190612070565b9a9950505050505050505050565b600054610100900460ff1680611600575060005460ff16155b6116725760405162461bcd60e51b815260206004820152602e60248201527f496e697469616c697a61626c653a20636f6e747261637420697320616c72656160448201527f647920696e697469616c697a65640000000000000000000000000000000000006064820152608401610352565b600054610100900460ff16158015610eaf576000805461ffff19166101011790558015610ab0576000805461ff001916905550565b600054610100900460ff16806116c0575060005460ff16155b6117325760405162461bcd60e51b815260206004820152602e60248201527f496e697469616c697a61626c653a20636f6e747261637420697320616c72656160448201527f647920696e697469616c697a65640000000000000000000000000000000000006064820152608401610352565b600054610100900460ff16158015611754576000805461ffff19166101011790555b610eaf33610ab3565b60606000826020015161ffff1667ffffffffffffffff81111561178257611782612334565b6040519080825280602002602001820160405280156117ab578160200160208202803683370190505b50905060006001846000015160026117c391906120d3565b6117cd919061219e565b905060005b846020015161ffff1681101561182e5784516000906117f49060ff168361217f565b90508061ffff1683901b8483815181106118105761181061231e565b60209081029190910101525080611826816122b3565b9150506117d2565b50909392505050565b600080805b83518110156118895760008482815181106118595761185961231e565b602002602001015190508087168187161415611876576001830192505b5080611881816122b3565b91505061183c565b50808351611897919061219e565b95945050505050565b60008082846000015160ff1660026118b891906120c7565b6118c291906120c7565b90506000846060015184815181106118dc576118dc61231e565b60200260200101516fffffffffffffffffffffffffffffffff16905081816118979190612070565b60008083601f84011261191657600080fd5b50813567ffffffffffffffff81111561192e57600080fd5b60208301915083602082850101111561194657600080fd5b9250929050565b803563ffffffff8116811461072a57600080fd5b60006020828403121561197357600080fd5b813561197e8161245f565b9392505050565b60008060008060006060868803121561199d57600080fd5b85356119a88161245f565b9450602086013567ffffffffffffffff808211156119c557600080fd5b818801915088601f8301126119d957600080fd5b8135818111156119e857600080fd5b8960206060830285010111156119fd57600080fd5b602083019650809550506040880135915080821115611a1b57600080fd5b50611a2888828901611904565b969995985093965092949392505050565b60006020808385031215611a4c57600080fd5b823567ffffffffffffffff80821115611a6457600080fd5b818501915085601f830112611a7857600080fd5b8135611a8b611a8682612013565b611fe2565b80828252858201915085850189878560051b8801011115611aab57600080fd5b60005b84811015611b4157813586811115611ac557600080fd5b8701603f81018c13611ad657600080fd5b88810135611ae6611a8682612013565b808282528b82019150604084018f60408560051b8701011115611b0857600080fd5b600094505b83851015611b2b578035835260019490940193918c01918c01611b0d565b5087525050509287019290870190600101611aae565b50909998505050505050505050565b60006020808385031215611b6357600080fd5b825167ffffffffffffffff811115611b7a57600080fd5b8301601f81018513611b8b57600080fd5b8051611b99611a8682612013565b80828252848201915084840188868560051b8701011115611bb957600080fd5b600094505b83851015611bdc578051835260019490940193918501918501611bbe565b50979650505050505050565b600060208284031215611bfa57600080fd5b815161197e8161245f565b600080600060608486031215611c1a57600080fd5b8335611c258161245f565b92506020840135611c358161245f565b91506040840135611c458161245f565b809150509250925092565b600060208284031215611c6257600080fd5b813561197e81612474565b600060208284031215611c7f57600080fd5b813561197e81612492565b600060208284031215611c9c57600080fd5b813561197e816124a2565b600060208284031215611cb957600080fd5b61095c8261194d565b60008060408385031215611cd557600080fd5b611cde8361194d565b9150602083013567ffffffffffffffff811115611cfa57600080fd5b830160a08186031215611d0c57600080fd5b809150509250929050565b600060208284031215611d2957600080fd5b813561197e816124b7565b8183526000602080850194508260005b85811015611d7b578135611d5781612474565b6fffffffffffffffffffffffffffffffff1687529582019590820190600101611d44565b509495945050505050565b6000604082016001600160a01b03851683526020604081850152818551808452606086019150828701935060005b81811015611dd657845163ffffffff1683529383019391830191600101611db4565b5090979650505050505050565b6020808252825182820181905260009190848201906040850190845b81811015611e295783516bffffffffffffffffffffffff1683529284019291840191600101611dff565b50909695505050505050565b6020815260008235611e46816124b7565b60ff81166020840152506020830135611e5e81612492565b61ffff81166040840152506040830135611e77816124a2565b6001600160e01b0381166060840152506060830135601e19843603018112611e9e57600080fd5b8301803567ffffffffffffffff811115611eb757600080fd5b8060051b3603851315611ec957600080fd5b60a06080850152611ee160c085018260208501611d34565b915050608084013560a08401528091505092915050565b6000602080835260c0830160ff8551168285015261ffff828601511660408501526001600160e01b036040860151166060850152606085015160a0608086015281815180845260e0870191508483019350600092505b80831015611f805783516fffffffffffffffffffffffffffffffff168252928401926001929092019190840190611f4e565b50608087015160a08701528094505050505092915050565b6000808335601e19843603018112611faf57600080fd5b83018035915067ffffffffffffffff821115611fca57600080fd5b6020019150600581901b360382131561194657600080fd5b604051601f8201601f1916810167ffffffffffffffff8111828210171561200b5761200b612334565b604052919050565b600067ffffffffffffffff82111561202d5761202d612334565b5060051b60200190565b6000821982111561204a5761204a6122f2565b500190565b600061ffff8084168061206457612064612308565b92169190910492915050565b60008261207f5761207f612308565b500490565b600181815b808511156120bf5781600019048211156120a5576120a56122f2565b808516156120b257918102915b93841c9390800290612089565b509250929050565b600061095c83836120de565b600061095c60ff8416835b6000826120ed5750600161095f565b816120fa5750600061095f565b8160018114612110576002811461211a57612136565b600191505061095f565b60ff84111561212b5761212b6122f2565b50506001821b61095f565b5060208310610133831016604e8410600b8410161715612159575081810a61095f565b6121638383612084565b8060001904821115612177576121776122f2565b029392505050565b6000816000190483118215151615612199576121996122f2565b500290565b6000828210156121b0576121b06122f2565b500390565b680100000000000000008311156121ce576121ce612334565b805483825580841015612233576001600083815260208120828701831c8101838501841c8201915060108860041b16801561221a576000198083018054828460200360031b1c16815550505b505b8181101561222e57828155830161221c565b505050505b506000818152602081208391805b868110156122aa576122816122558561234a565b84546fffffffffffffffffffffffffffffffff600386901b81811b801990931693909116901b16178455565b60208401935060108083019250808311156122a157600092506001840193505b50600101612241565b50505050505050565b60006000198214156122c7576122c76122f2565b5060010190565b600063ffffffff808316818114156122e8576122e86122f2565b6001019392505050565b634e487b7160e01b600052601160045260246000fd5b634e487b7160e01b600052601260045260246000fd5b634e487b7160e01b600052603260045260246000fd5b634e487b7160e01b600052604160045260246000fd5b6000813561095f81612474565b8135612362816124b7565b60ff811690508154817fffffffffffffffffffffffffffffffffffffffffffffffffffffffffffffff008216178355602084013561239f81612492565b62ffff008160081b16905080837fffffffffffffffffffffffffffffffffffffffffffffffffffffffffff00000084161717845560408501356123e1816124a2565b7effffffffffffffffffffffffffffffffffffffffffffffffffffffff0000008160181b16847fff000000000000000000000000000000000000000000000000000000000000008516178317178555505050506124416060830183611f98565b61244f8183600186016121b5565b5050608082013560028201555050565b6001600160a01b0381168114610ab057600080fd5b6fffffffffffffffffffffffffffffffff81168114610ab057600080fd5b61ffff81168114610ab057600080fd5b6001600160e01b0381168114610ab057600080fd5b60ff81168114610ab057600080fdfea2646970667358221220f100ff204e0a0b0f700514dc1d68ac7c03267e1a264e748e3960366fd2e0b69a64736f6c63430008060033",
  "devdoc": {
    "kind": "dev",
    "methods": {
      "calculate(address,(uint256,uint32,uint32)[],bytes)": {
        "params": {
          "_draws": "draw array for which to calculate prize amounts for",
          "_pickIndicesForDraws": "The encoded pick indices for all Draws. Expected to be just indices of winning claims. Populated values must be less than totalUserPicks.",
          "_user": "User for which to calcualte prize amount"
        },
        "returns": {
          "_0": "An array of amount of prizes awardable"
        }
      },
      "getDrawSettings(uint32)": {
        "params": {
          "_drawId": "The id of the Draw"
        }
      },
      "initialize(address,address,address)": {
        "params": {
          "_claimableDraw": "ClaimableDraw associated with this DrawCalculator",
          "_drawSettingsManager": "Address of the DrawSettingsManager. Can be different from the contract owner.",
          "_ticket": "Ticket associated with this DrawCalculator"
        }
      },
      "manager()": {
        "details": "Returns current _manager address.1",
        "returns": {
          "_0": "Current _manager address."
        }
      },
      "owner()": {
        "details": "Returns the address of the current owner."
      },
      "renounceOwnership()": {
        "details": "Leaves the contract without owner. It will not be possible to call `onlyOwner` functions anymore. Can only be called by the current owner. NOTE: Renouncing ownership will leave the contract without an owner, thereby removing any functionality that is only available to the owner."
      },
      "setClaimableDraw(address)": {
        "params": {
          "_claimableDraw": "The address of the ClaimableDraw to update with the updated DrawSettings"
        }
      },
      "setDrawSettings(uint32,(uint8,uint16,uint224,uint128[],uint256))": {
        "params": {
          "_drawId": "The id of the Draw",
          "_drawSettings": "The DrawSettings to set"
        }
      },
      "setManager(address)": {
        "details": "Throws if called by any account other than the owner.",
        "params": {
          "_newManager": "New _manager address."
        },
        "returns": {
          "_0": "Boolean to indicate if the operation was successful or not."
        }
      },
      "transferOwnership(address)": {
        "details": "Transfers ownership of the contract to a new account (`newOwner`). Can only be called by the current owner."
      }
    },
    "title": "TsunamiDrawCalculator is an implmentation of an IDrawCalculator",
    "version": 1
  },
  "userdoc": {
    "events": {
      "ClaimableDrawSet(address)": {
        "notice": "Emitted when the claimableDraw is set/updated"
      },
      "DrawSettingsSet(uint32,(uint8,uint16,uint224,uint128[],uint256))": {
        "notice": "Emitted when the DrawParams are set/updated"
      },
      "Initialized(address)": {
        "notice": "Emitted when the contract is initialized"
      }
    },
    "kind": "user",
    "methods": {
      "calculate(address,(uint256,uint32,uint32)[],bytes)": {
        "notice": "Calulates the prize amount for a user for Multiple Draws. Typically called by a ClaimableDraw."
      },
      "claimableDraw()": {
        "notice": "ClaimableDraw associated with DrawCalculator"
      },
      "getDrawSettings(uint32)": {
        "notice": "Gets the DrawSettings for a draw id"
      },
      "initialize(address,address,address)": {
        "notice": "Initializer sets the initial parameters"
      },
      "manager()": {
        "notice": "Gets current _manager."
      },
      "setClaimableDraw(address)": {
        "notice": "Sets DrawSettings for a draw id. only callable by the owner or manager"
      },
      "setDrawSettings(uint32,(uint8,uint16,uint224,uint128[],uint256))": {
        "notice": "Sets DrawSettings for a draw id. only callable by the owner or manager"
      },
      "setManager(address)": {
        "notice": "Set or change of manager."
      }
    },
    "version": 1
  },
  "storageLayout": {
    "storage": [
      {
        "astId": 130,
        "contract": "@pooltogether/v4/contracts/TsunamiDrawCalculator.sol:TsunamiDrawCalculator",
        "label": "_initialized",
        "offset": 0,
        "slot": "0",
        "type": "t_bool"
      },
      {
        "astId": 133,
        "contract": "@pooltogether/v4/contracts/TsunamiDrawCalculator.sol:TsunamiDrawCalculator",
        "label": "_initializing",
        "offset": 1,
        "slot": "0",
        "type": "t_bool"
      },
      {
        "astId": 1781,
        "contract": "@pooltogether/v4/contracts/TsunamiDrawCalculator.sol:TsunamiDrawCalculator",
        "label": "__gap",
        "offset": 0,
        "slot": "1",
        "type": "t_array(t_uint256)50_storage"
      },
      {
        "astId": 10,
        "contract": "@pooltogether/v4/contracts/TsunamiDrawCalculator.sol:TsunamiDrawCalculator",
        "label": "_owner",
        "offset": 0,
        "slot": "51",
        "type": "t_address"
      },
      {
        "astId": 123,
        "contract": "@pooltogether/v4/contracts/TsunamiDrawCalculator.sol:TsunamiDrawCalculator",
        "label": "__gap",
        "offset": 0,
        "slot": "52",
        "type": "t_array(t_uint256)49_storage"
      },
      {
        "astId": 3408,
        "contract": "@pooltogether/v4/contracts/TsunamiDrawCalculator.sol:TsunamiDrawCalculator",
        "label": "_manager",
        "offset": 0,
        "slot": "101",
        "type": "t_address"
      },
      {
        "astId": 6775,
        "contract": "@pooltogether/v4/contracts/TsunamiDrawCalculator.sol:TsunamiDrawCalculator",
        "label": "ticket",
        "offset": 0,
        "slot": "102",
        "type": "t_contract(ITicket)8171"
      },
      {
        "astId": 6779,
        "contract": "@pooltogether/v4/contracts/TsunamiDrawCalculator.sol:TsunamiDrawCalculator",
        "label": "claimableDraw",
        "offset": 0,
        "slot": "103",
        "type": "t_contract(ClaimableDraw)4180"
      },
      {
        "astId": 6785,
        "contract": "@pooltogether/v4/contracts/TsunamiDrawCalculator.sol:TsunamiDrawCalculator",
        "label": "drawSettings",
        "offset": 0,
        "slot": "104",
        "type": "t_mapping(t_uint32,t_struct(DrawSettings)8192_storage)"
      }
    ],
    "types": {
      "t_address": {
        "encoding": "inplace",
        "label": "address",
        "numberOfBytes": "20"
      },
      "t_array(t_uint128)dyn_storage": {
        "base": "t_uint128",
        "encoding": "dynamic_array",
        "label": "uint128[]",
        "numberOfBytes": "32"
      },
      "t_array(t_uint256)49_storage": {
        "base": "t_uint256",
        "encoding": "inplace",
        "label": "uint256[49]",
        "numberOfBytes": "1568"
      },
      "t_array(t_uint256)50_storage": {
        "base": "t_uint256",
        "encoding": "inplace",
        "label": "uint256[50]",
        "numberOfBytes": "1600"
      },
      "t_bool": {
        "encoding": "inplace",
        "label": "bool",
        "numberOfBytes": "1"
      },
      "t_contract(ClaimableDraw)4180": {
        "encoding": "inplace",
        "label": "contract ClaimableDraw",
        "numberOfBytes": "20"
      },
      "t_contract(ITicket)8171": {
        "encoding": "inplace",
        "label": "contract ITicket",
        "numberOfBytes": "20"
      },
      "t_mapping(t_uint32,t_struct(DrawSettings)8192_storage)": {
        "encoding": "mapping",
        "key": "t_uint32",
        "label": "mapping(uint32 => struct DrawLib.DrawSettings)",
        "numberOfBytes": "32",
        "value": "t_struct(DrawSettings)8192_storage"
      },
      "t_struct(DrawSettings)8192_storage": {
        "encoding": "inplace",
        "label": "struct DrawLib.DrawSettings",
        "members": [
          {
            "astId": 8182,
            "contract": "@pooltogether/v4/contracts/TsunamiDrawCalculator.sol:TsunamiDrawCalculator",
            "label": "bitRangeSize",
            "offset": 0,
            "slot": "0",
            "type": "t_uint8"
          },
          {
            "astId": 8184,
            "contract": "@pooltogether/v4/contracts/TsunamiDrawCalculator.sol:TsunamiDrawCalculator",
            "label": "matchCardinality",
            "offset": 1,
            "slot": "0",
            "type": "t_uint16"
          },
          {
            "astId": 8186,
            "contract": "@pooltogether/v4/contracts/TsunamiDrawCalculator.sol:TsunamiDrawCalculator",
            "label": "pickCost",
            "offset": 3,
            "slot": "0",
            "type": "t_uint224"
          },
          {
            "astId": 8189,
            "contract": "@pooltogether/v4/contracts/TsunamiDrawCalculator.sol:TsunamiDrawCalculator",
            "label": "distributions",
            "offset": 0,
            "slot": "1",
            "type": "t_array(t_uint128)dyn_storage"
          },
          {
            "astId": 8191,
            "contract": "@pooltogether/v4/contracts/TsunamiDrawCalculator.sol:TsunamiDrawCalculator",
            "label": "prize",
            "offset": 0,
            "slot": "2",
            "type": "t_uint256"
          }
        ],
        "numberOfBytes": "96"
      },
      "t_uint128": {
        "encoding": "inplace",
        "label": "uint128",
        "numberOfBytes": "16"
      },
      "t_uint16": {
        "encoding": "inplace",
        "label": "uint16",
        "numberOfBytes": "2"
      },
      "t_uint224": {
        "encoding": "inplace",
        "label": "uint224",
        "numberOfBytes": "28"
      },
      "t_uint256": {
        "encoding": "inplace",
        "label": "uint256",
        "numberOfBytes": "32"
      },
      "t_uint32": {
        "encoding": "inplace",
        "label": "uint32",
        "numberOfBytes": "4"
      },
      "t_uint8": {
        "encoding": "inplace",
        "label": "uint8",
        "numberOfBytes": "1"
      }
    }
  }
}