{
  "address": "0xb9e647c26Aa25239Bd8d2007a656deFDe0688993",
  "abi": [
    {
      "anonymous": false,
      "inputs": [
        {
          "indexed": true,
          "internalType": "uint256",
          "name": "promotionId",
          "type": "uint256"
        },
        {
          "indexed": false,
          "internalType": "uint256",
          "name": "amount",
          "type": "uint256"
        }
      ],
      "name": "PromotionCancelled",
      "type": "event"
    },
    {
      "anonymous": false,
      "inputs": [
        {
          "indexed": true,
          "internalType": "uint256",
          "name": "promotionId",
          "type": "uint256"
        }
      ],
      "name": "PromotionCreated",
      "type": "event"
    },
    {
      "anonymous": false,
      "inputs": [
        {
          "indexed": true,
          "internalType": "uint256",
          "name": "promotionId",
          "type": "uint256"
        },
        {
          "indexed": false,
          "internalType": "uint256",
          "name": "amount",
          "type": "uint256"
        },
        {
          "indexed": false,
          "internalType": "uint256",
          "name": "numberOfEpochs",
          "type": "uint256"
        }
      ],
      "name": "PromotionExtended",
      "type": "event"
    },
    {
      "anonymous": false,
      "inputs": [
        {
          "indexed": true,
          "internalType": "uint256",
          "name": "promotionId",
          "type": "uint256"
        },
        {
          "indexed": false,
          "internalType": "uint256[]",
          "name": "epochIds",
          "type": "uint256[]"
        },
        {
          "indexed": false,
          "internalType": "uint256",
          "name": "amount",
          "type": "uint256"
        }
      ],
      "name": "RewardsClaimed",
      "type": "event"
    },
    {
      "inputs": [
        {
          "internalType": "uint256",
          "name": "_epochs",
          "type": "uint256"
        },
        {
          "internalType": "uint256",
          "name": "_epochId",
          "type": "uint256"
        }
      ],
      "name": "_updateClaimedEpoch",
      "outputs": [
        {
          "internalType": "uint256",
          "name": "",
          "type": "uint256"
        }
      ],
      "stateMutability": "pure",
      "type": "function"
    },
    {
      "inputs": [
        {
          "internalType": "uint256",
          "name": "_promotionId",
          "type": "uint256"
        },
        {
          "internalType": "address",
          "name": "_to",
          "type": "address"
        }
      ],
      "name": "cancelPromotion",
      "outputs": [
        {
          "internalType": "bool",
          "name": "",
          "type": "bool"
        }
      ],
      "stateMutability": "nonpayable",
      "type": "function"
    },
    {
      "inputs": [
        {
          "internalType": "address",
          "name": "_user",
          "type": "address"
        },
        {
          "internalType": "uint256",
          "name": "_promotionId",
          "type": "uint256"
        },
        {
          "internalType": "uint256[]",
          "name": "_epochIds",
          "type": "uint256[]"
        }
      ],
      "name": "claimRewards",
      "outputs": [
        {
          "internalType": "uint256",
          "name": "",
          "type": "uint256"
        }
      ],
      "stateMutability": "nonpayable",
      "type": "function"
    },
    {
      "inputs": [
        {
          "internalType": "address",
          "name": "_ticket",
          "type": "address"
        },
        {
          "internalType": "contract IERC20",
          "name": "_token",
          "type": "address"
        },
        {
          "internalType": "uint216",
          "name": "_tokensPerEpoch",
          "type": "uint216"
        },
        {
          "internalType": "uint32",
          "name": "_startTimestamp",
          "type": "uint32"
        },
        {
          "internalType": "uint32",
          "name": "_epochDuration",
          "type": "uint32"
        },
        {
          "internalType": "uint8",
          "name": "_numberOfEpochs",
          "type": "uint8"
        }
      ],
      "name": "createPromotion",
      "outputs": [
        {
          "internalType": "uint256",
          "name": "",
          "type": "uint256"
        }
      ],
      "stateMutability": "nonpayable",
      "type": "function"
    },
    {
      "inputs": [
        {
          "internalType": "uint256",
          "name": "_promotionId",
          "type": "uint256"
        },
        {
          "internalType": "uint8",
          "name": "_numberOfEpochs",
          "type": "uint8"
        }
      ],
      "name": "extendPromotion",
      "outputs": [
        {
          "internalType": "bool",
          "name": "",
          "type": "bool"
        }
      ],
      "stateMutability": "nonpayable",
      "type": "function"
    },
    {
      "inputs": [
        {
          "internalType": "uint256",
          "name": "_promotionId",
          "type": "uint256"
        }
      ],
      "name": "getCurrentEpochId",
      "outputs": [
        {
          "internalType": "uint256",
          "name": "",
          "type": "uint256"
        }
      ],
      "stateMutability": "view",
      "type": "function"
    },
    {
      "inputs": [
        {
          "internalType": "uint256",
          "name": "_promotionId",
          "type": "uint256"
        }
      ],
      "name": "getPromotion",
      "outputs": [
        {
          "components": [
            {
              "internalType": "address",
              "name": "creator",
              "type": "address"
            },
            {
              "internalType": "address",
              "name": "ticket",
              "type": "address"
            },
            {
              "internalType": "contract IERC20",
              "name": "token",
              "type": "address"
            },
            {
              "internalType": "uint216",
              "name": "tokensPerEpoch",
              "type": "uint216"
            },
            {
              "internalType": "uint32",
              "name": "startTimestamp",
              "type": "uint32"
            },
            {
              "internalType": "uint32",
              "name": "epochDuration",
              "type": "uint32"
            },
            {
              "internalType": "uint8",
              "name": "numberOfEpochs",
              "type": "uint8"
            }
          ],
          "internalType": "struct ITwabRewards.Promotion",
          "name": "",
          "type": "tuple"
        }
      ],
      "stateMutability": "view",
      "type": "function"
    },
    {
      "inputs": [
        {
          "internalType": "uint256",
          "name": "_promotionId",
          "type": "uint256"
        }
      ],
      "name": "getRemainingRewards",
      "outputs": [
        {
          "internalType": "uint256",
          "name": "",
          "type": "uint256"
        }
      ],
      "stateMutability": "view",
      "type": "function"
    },
    {
      "inputs": [
        {
          "internalType": "address",
          "name": "_user",
          "type": "address"
        },
        {
          "internalType": "uint256",
          "name": "_promotionId",
          "type": "uint256"
        },
        {
          "internalType": "uint256[]",
          "name": "_epochIds",
          "type": "uint256[]"
        }
      ],
      "name": "getRewardsAmount",
      "outputs": [
        {
          "internalType": "uint256[]",
          "name": "",
          "type": "uint256[]"
        }
      ],
      "stateMutability": "view",
      "type": "function"
    }
  ],
  "transactionHash": "0x67a2d842f25695f67e3095062d7b0c6932c98f3c4a3c43994a239bbae97ac9b3",
  "args": [],
  "solcInputHash": "cacbd7b68ea6843282aa5b60bcaacabf",
  "bytecode": "0x608060405234801561001057600080fd5b50612219806100206000396000f3fe608060405234801561001057600080fd5b50600436106100a35760003560e01c80639057ed8111610076578063a49588451161005b578063a4958845146101c7578063b2ff9a2c146101da578063f824d0fb146101f057600080fd5b80639057ed81146101a1578063a05170cc146101b457600080fd5b806307392ef7146100a8578063096fe668146100ce57806314fdecca146100f15780637752328914610181575b600080fd5b6100bb6100b6366004611cb4565b610203565b6040519081526020015b60405180910390f35b6100e16100dc366004611eab565b610455565b60405190151581526020016100c5565b6101046100ff366004611e27565b610613565b6040516100c59190600060e0820190506001600160a01b03808451168352806020850151166020840152806040850151166040840152506001600160d81b036060840151166060830152608083015163ffffffff80821660808501528060a08601511660a0850152505060ff60c08401511660c083015292915050565b61019461018f366004611cb4565b61071e565b6040516100c59190611f97565b6100e16101af366004611e59565b6107ce565b6100bb6101c2366004611c2e565b610b67565b6100bb6101d5366004611e27565b610e50565b6100bb6101e8366004611e89565b6001901b1790565b6100bb6101fe366004611e27565b610e5b565b60008381526002602090815260408083206001600160a01b03881684529091528120548190815b848110156103045760008686838181106102465761024661219f565b90506020020135905061025a898983610e66565b156102d25760405162461bcd60e51b815260206004820152602360248201527f54776162526577617264732f726577617264732d616c72656164792d636c616960448201527f6d6564000000000000000000000000000000000000000000000000000000000060648201526084015b60405180910390fd5b6102dd898983610eac565b6102e79085612033565b93506001901b9190911790806102fc8161216e565b91505061022a565b5060008681526002602090815260408083206001600160a01b038b168452909152902081905561040f87836103fb896040805160e081018252600080825260208201819052918101829052606081018290526080810182905260a0810182905260c08101919091525060009081526020818152604091829020825160e08101845281546001600160a01b039081168252600183015481169382019390935260028201549092169282019290925260038201546001600160d81b0381166060830152600160d81b900463ffffffff908116608083015260049092015491821660a082015264010000000090910460ff1660c082015290565b604001516001600160a01b03169190611285565b857fd4d34012815a37cfd53f09c485fe0c00d5c412befbb63d2a19820dff71c4d50086868560405161044393929190611f38565b60405180910390a25095945050505050565b600061046083611333565b600061052e846040805160e081018252600080825260208201819052918101829052606081018290526080810182905260a0810182905260c08101919091525060009081526020818152604091829020825160e08101845281546001600160a01b039081168252600183015481169382019390935260028201549092169282019290925260038201546001600160d81b0381166060830152600160d81b900463ffffffff908116608083015260049092015491821660a082015264010000000090910460ff1660c082015290565b90506000838260c001516105429190612073565b6000868152602081905260408120600401805460ff808516640100000000027fffffffffffffffffffffffffffffffffffffffffffffffffffffff00ffffffff90921691909117909155606085015192935090916105a19187166120ba565b60408401516001600160d81b039190911691506105c9906001600160a01b031633308461148f565b6040805182815260ff8416602082015287917f26149736fc65f54602a80ef06252f7689dd136632fa2708e0cc2891eeb5f9cb691015b60405180910390a250600195945050505050565b6040805160e081018252600080825260208201819052918101829052606081018290526080810182905260a0810182905260c0810191909152610718826040805160e081018252600080825260208201819052918101829052606081018290526080810182905260a0810182905260c08101919091525060009081526020818152604091829020825160e08101845281546001600160a01b039081168252600183015481169382019390935260028201549092169282019290925260038201546001600160d81b0381166060830152600160d81b900463ffffffff908116608083015260049092015491821660a082015264010000000090910460ff1660c082015290565b92915050565b606060008267ffffffffffffffff81111561073b5761073b6121b5565b604051908082528060200260200182016040528015610764578160200160208202803683370190505b50905060005b838110156107c45761079587878787858181106107895761078961219f565b90506020020135610eac565b8282815181106107a7576107a761219f565b6020908102919091010152806107bc8161216e565b91505061076a565b5095945050505050565b60008261089d816040805160e081018252600080825260208201819052918101829052606081018290526080810182905260a0810182905260c08101919091525060009081526020818152604091829020825160e08101845281546001600160a01b039081168252600183015481169382019390935260028201549092169282019290925260038201546001600160d81b0381166060830152600160d81b900463ffffffff908116608083015260049092015491821660a082015264010000000090910460ff1660c082015290565b516001600160a01b0316331461091b5760405162461bcd60e51b815260206004820152602260248201527f54776162526577617264732f6f6e6c792d70726f6d6f74696f6e2d637265617460448201527f6f7200000000000000000000000000000000000000000000000000000000000060648201526084016102c9565b61092484611333565b6001600160a01b0383166109a05760405162461bcd60e51b815260206004820152602660248201527f54776162526577617264732f726563697069656e742d6e6f742d7a65726f2d6160448201527f646472657373000000000000000000000000000000000000000000000000000060648201526084016102c9565b6000610a6e856040805160e081018252600080825260208201819052918101829052606081018290526080810182905260a0810182905260c08101919091525060009081526020818152604091829020825160e08101845281546001600160a01b039081168252600183015481169382019390935260028201549092169282019290925260038201546001600160d81b0381166060830152600160d81b900463ffffffff908116608083015260049092015491821660a082015264010000000090910460ff1660c082015290565b90506000610a7b866114e6565b6000878152602081905260409081902080547fffffffffffffffffffffffff000000000000000000000000000000000000000090811682556001820180548216905560028201805490911690556003810180547fff0000000000000000000000000000000000000000000000000000000000000016905560040180547fffffffffffffffffffffffffffffffffffffffffffffffffffffff0000000000169055830151909150610b35906001600160a01b03168683611285565b857f844a7b43ca86c9f049aa258ab7241f0544cfc93f2ec9170dca1a4fbd79f2b798826040516105ff91815260200190565b6000610b72876115ea565b60006001546001610b839190612033565b9050806001819055506040518060e00160405280336001600160a01b03168152602001896001600160a01b03168152602001886001600160a01b03168152602001876001600160d81b031681526020018663ffffffff1681526020018563ffffffff1681526020018460ff1681525060008083815260200190815260200160002060008201518160000160006101000a8154816001600160a01b0302191690836001600160a01b0316021790555060208201518160010160006101000a8154816001600160a01b0302191690836001600160a01b0316021790555060408201518160020160006101000a8154816001600160a01b0302191690836001600160a01b0316021790555060608201518160030160006101000a8154816001600160d81b0302191690836001600160d81b03160217905550608082015181600301601b6101000a81548163ffffffff021916908363ffffffff16021790555060a08201518160040160006101000a81548163ffffffff021916908363ffffffff16021790555060c08201518160040160046101000a81548160ff021916908360ff1602179055509050506000876001600160a01b031663dd62ed3e30306040518363ffffffff1660e01b8152600401610d6f9291906001600160a01b0392831681529116602082015260400190565b60206040518083038186803b158015610d8757600080fd5b505afa158015610d9b573d6000803e3d6000fd5b505050506040513d601f19601f82011682018060405250810190610dbf9190611e40565b9050600019811015610dec57610dec30610ddb8360001961212b565b6001600160a01b038b169190611784565b610e193330610dfe60ff88168b6120ba565b6001600160a01b038c169291906001600160d81b031661148f565b60405182907faedc1797e973574eb0e43205c473287ca44eb1c9d0f677dbb0ec8cfc72bb68f390600090a250979650505050505050565b6000610718826114e6565b600061071882611877565b60008281526002602090815260408083206001600160a01b0387168452909152812054821c6001908116908114610e9e576000610ea1565b60015b9150505b9392505050565b600080610f7b846040805160e081018252600080825260208201819052918101829052606081018290526080810182905260a0810182905260c08101919091525060009081526020818152604091829020825160e08101845281546001600160a01b039081168252600183015481169382019390935260028201549092169282019290925260038201546001600160d81b0381166060830152600160d81b900463ffffffff908116608083015260049092015491821660a082015264010000000090910460ff1660c082015290565b60a081015190915063ffffffff166000610f9585836120e9565b836080015163ffffffff16610faa9190612033565b90506000610fb88383612033565b90508042116110095760405162461bcd60e51b815260206004820152601a60248201527f54776162526577617264732f65706f63682d6e6f742d6f76657200000000000060448201526064016102c9565b60208401516040517f98b16f360000000000000000000000000000000000000000000000000000000081526001600160a01b038a8116600483015267ffffffffffffffff808616602484015284166044830152600091908316906398b16f369060640160206040518083038186803b15801561108457600080fd5b505afa158015611098573d6000803e3d6000fd5b505050506040513d601f19601f820116820180604052508101906110bc9190611e40565b604080516001808252818301909252919250600091906020808301908036833701905050905084816000815181106110f6576110f661219f565b67ffffffffffffffff929092166020928302919091019091015260408051600180825281830190925260009181602001602082028036833701905050905084816000815181106111485761114861219f565b67ffffffffffffffff909216602092830291909101909101526040517f8e6d536a0000000000000000000000000000000000000000000000000000000081526000906001600160a01b03861690638e6d536a906111ab9086908690600401611fdb565b60006040518083038186803b1580156111c357600080fd5b505afa1580156111d7573d6000803e3d6000fd5b505050506040513d6000823e601f3d908101601f191682016040526111ff9190810190611d40565b90506000816000815181106112165761121661219f565b6020026020010151111561127257806000815181106112375761123761219f565b6020026020010151848a606001516001600160d81b031661125891906120e9565b6112629190612098565b9950505050505050505050610ea5565b5060009c9b505050505050505050505050565b6040516001600160a01b03831660248201526044810182905261132e9084907fa9059cbb00000000000000000000000000000000000000000000000000000000906064015b60408051601f198184030181529190526020810180517bffffffffffffffffffffffffffffffffffffffffffffffffffffffff167fffffffff0000000000000000000000000000000000000000000000000000000090931692909217909152611973565b505050565b6000611401826040805160e081018252600080825260208201819052918101829052606081018290526080810182905260a0810182905260c08101919091525060009081526020818152604091829020825160e08101845281546001600160a01b039081168252600183015481169382019390935260028201549092169282019290925260038201546001600160d81b0381166060830152600160d81b900463ffffffff908116608083015260049092015491821660a082015264010000000090910460ff1660c082015290565b905060008160c0015160ff168260a0015161141c9190612108565b826080015161142b919061204b565b63ffffffff1690506000811180156114435750428110155b61132e5760405162461bcd60e51b815260206004820181905260248201527f54776162526577617264732f70726f6d6f74696f6e2d6e6f742d61637469766560448201526064016102c9565b6040516001600160a01b03808516602483015283166044820152606481018290526114e09085907f23b872dd00000000000000000000000000000000000000000000000000000000906084016112ca565b50505050565b6000806115b5836040805160e081018252600080825260208201819052918101829052606081018290526080810182905260a0810182905260c08101919091525060009081526020818152604091829020825160e08101845281546001600160a01b039081168252600183015481169382019390935260028201549092169282019290925260038201546001600160d81b0381166060830152600160d81b900463ffffffff908116608083015260049092015491821660a082015264010000000090910460ff1660c082015290565b90506115c083611877565b8160c0015160ff166115d2919061212b565b81606001516001600160d81b0316610ea591906120e9565b6001600160a01b0381166116665760405162461bcd60e51b815260206004820152602360248201527f54776162526577617264732f7469636b65742d6e6f742d7a65726f2d6164647260448201527f657373000000000000000000000000000000000000000000000000000000000060648201526084016102c9565b6040517ff77c479100000000000000000000000000000000000000000000000000000000602082015260009081906001600160a01b0384169060240160408051601f19818403018152908290526116bc91611f1c565b600060405180830381855afa9150503d80600081146116f7576040519150601f19603f3d011682016040523d82523d6000602084013e6116fc565b606091505b50915091506000808251111561172357818060200190518101906117209190611c11565b90505b82801561173857506001600160a01b03811615155b6114e05760405162461bcd60e51b815260206004820152601a60248201527f54776162526577617264732f696e76616c69642d7469636b657400000000000060448201526064016102c9565b6040517fdd62ed3e0000000000000000000000000000000000000000000000000000000081523060048201526001600160a01b038381166024830152600091839186169063dd62ed3e9060440160206040518083038186803b1580156117e957600080fd5b505afa1580156117fd573d6000803e3d6000fd5b505050506040513d601f19601f820116820180604052508101906118219190611e40565b61182b9190612033565b6040516001600160a01b0385166024820152604481018290529091506114e09085907f095ea7b300000000000000000000000000000000000000000000000000000000906064016112ca565b600080611946836040805160e081018252600080825260208201819052918101829052606081018290526080810182905260a0810182905260c08101919091525060009081526020818152604091829020825160e08101845281546001600160a01b039081168252600183015481169382019390935260028201549092169282019290925260038201546001600160d81b0381166060830152600160d81b900463ffffffff908116608083015260049092015491821660a082015264010000000090910460ff1660c082015290565b90508060a0015163ffffffff16816080015163ffffffff1642611969919061212b565b610ea59190612098565b60006119c8826040518060400160405280602081526020017f5361666545524332303a206c6f772d6c6576656c2063616c6c206661696c6564815250856001600160a01b0316611a589092919063ffffffff16565b80519091501561132e57808060200190518101906119e69190611e05565b61132e5760405162461bcd60e51b815260206004820152602a60248201527f5361666545524332303a204552433230206f7065726174696f6e20646964206e60448201527f6f7420737563636565640000000000000000000000000000000000000000000060648201526084016102c9565b6060611a678484600085611a6f565b949350505050565b606082471015611ae75760405162461bcd60e51b815260206004820152602660248201527f416464726573733a20696e73756666696369656e742062616c616e636520666f60448201527f722063616c6c000000000000000000000000000000000000000000000000000060648201526084016102c9565b843b611b355760405162461bcd60e51b815260206004820152601d60248201527f416464726573733a2063616c6c20746f206e6f6e2d636f6e747261637400000060448201526064016102c9565b600080866001600160a01b03168587604051611b519190611f1c565b60006040518083038185875af1925050503d8060008114611b8e576040519150601f19603f3d011682016040523d82523d6000602084013e611b93565b606091505b5091509150611ba3828286611bae565b979650505050505050565b60608315611bbd575081610ea5565b825115611bcd5782518084602001fd5b8160405162461bcd60e51b81526004016102c99190612000565b803563ffffffff81168114611bfb57600080fd5b919050565b803560ff81168114611bfb57600080fd5b600060208284031215611c2357600080fd5b8151610ea5816121cb565b60008060008060008060c08789031215611c4757600080fd5b8635611c52816121cb565b95506020870135611c62816121cb565b945060408701356001600160d81b0381168114611c7e57600080fd5b9350611c8c60608801611be7565b9250611c9a60808801611be7565b9150611ca860a08801611c00565b90509295509295509295565b60008060008060608587031215611cca57600080fd5b8435611cd5816121cb565b935060208501359250604085013567ffffffffffffffff80821115611cf957600080fd5b818701915087601f830112611d0d57600080fd5b813581811115611d1c57600080fd5b8860208260051b8501011115611d3157600080fd5b95989497505060200194505050565b60006020808385031215611d5357600080fd5b825167ffffffffffffffff80821115611d6b57600080fd5b818501915085601f830112611d7f57600080fd5b815181811115611d9157611d916121b5565b8060051b604051601f19603f83011681018181108582111715611db657611db66121b5565b604052828152858101935084860182860187018a1015611dd557600080fd5b600095505b83861015611df8578051855260019590950194938601938601611dda565b5098975050505050505050565b600060208284031215611e1757600080fd5b81518015158114610ea557600080fd5b600060208284031215611e3957600080fd5b5035919050565b600060208284031215611e5257600080fd5b5051919050565b60008060408385031215611e6c57600080fd5b823591506020830135611e7e816121cb565b809150509250929050565b60008060408385031215611e9c57600080fd5b50508035926020909101359150565b60008060408385031215611ebe57600080fd5b82359150611ece60208401611c00565b90509250929050565b600081518084526020808501945080840160005b83811015611f1157815167ffffffffffffffff1687529582019590820190600101611eeb565b509495945050505050565b60008251611f2e818460208701612142565b9190910192915050565b6040815282604082015260007f07ffffffffffffffffffffffffffffffffffffffffffffffffffffffffffffff841115611f7157600080fd5b8360051b8086606085013760009083016060019081526020909201929092529392505050565b6020808252825182820181905260009190848201906040850190845b81811015611fcf57835183529284019291840191600101611fb3565b50909695505050505050565b604081526000611fee6040830185611ed7565b8281036020840152610ea18185611ed7565b602081526000825180602084015261201f816040850160208701612142565b601f01601f19169190910160400192915050565b6000821982111561204657612046612189565b500190565b600063ffffffff80831681851680830382111561206a5761206a612189565b01949350505050565b600060ff821660ff84168060ff0382111561209057612090612189565b019392505050565b6000826120b557634e487b7160e01b600052601260045260246000fd5b500490565b60006001600160d81b03808316818516818304811182151516156120e0576120e0612189565b02949350505050565b600081600019048311821515161561210357612103612189565b500290565b600063ffffffff808316818516818304811182151516156120e0576120e0612189565b60008282101561213d5761213d612189565b500390565b60005b8381101561215d578181015183820152602001612145565b838111156114e05750506000910152565b600060001982141561218257612182612189565b5060010190565b634e487b7160e01b600052601160045260246000fd5b634e487b7160e01b600052603260045260246000fd5b634e487b7160e01b600052604160045260246000fd5b6001600160a01b03811681146121e057600080fd5b5056fea26469706673582212203ec53a2a0ec1c534c4022b2b70f4e77c442990b44d5200babd5522f6ec1f313064736f6c63430008060033",
  "devdoc": {
    "author": "PoolTogether Inc Team",
    "events": {
      "PromotionCancelled(uint256,uint256)": {
        "params": {
          "amount": "Amount of tokens transferred to the promotion creator",
          "promotionId": "Id of the promotion being cancelled"
        }
      },
      "PromotionCreated(uint256)": {
        "params": {
          "promotionId": "Id of the newly created promotion"
        }
      },
      "PromotionExtended(uint256,uint256,uint256)": {
        "params": {
          "amount": "Amount of tokens transferred to the recipient address",
          "numberOfEpochs": "New total number of epochs after extending the promotion",
          "promotionId": "Id of the promotion being extended"
        }
      },
      "RewardsClaimed(uint256,uint256[],uint256)": {
        "params": {
          "amount": "Amount of tokens transferred to the recipient address",
          "epochIds": "Ids of the epochs being claimed",
          "promotionId": "Id of the promotion for which epoch rewards were claimed"
        }
      }
    },
    "kind": "dev",
    "methods": {
      "_updateClaimedEpoch(uint256,uint256)": {
        "details": "Bits are stored in a uint256 from right to left. Let's take the example of the following 8 bits word. 0110 0011 To set the boolean value to 1 for the epoch id 2, we need to create a mask by shifting 1 to the left by 2 bits. We get: 0000 0001 << 2 = 0000 0100 We then OR the mask with the word to set the value. We get: 0110 0011 | 0000 0100 = 0110 0111",
        "params": {
          "_epochId": "Id of the epoch to set the boolean for",
          "_epochs": "Tightly packed epoch ids with their boolean values"
        },
        "returns": {
          "_0": "Tightly packed epoch ids with the newly boolean value set"
        }
      },
      "cancelPromotion(uint256,address)": {
        "params": {
          "_promotionId": "Promotion id to cancel",
          "_to": "Address that will receive the remaining tokens if there are any left"
        },
        "returns": {
          "_0": "true if cancelation was successful"
        }
      },
      "claimRewards(address,uint256,uint256[])": {
        "details": "Rewards can be claimed on behalf of a user.Rewards can only be claimed for a past epoch.",
        "params": {
          "_epochIds": "Epoch ids to claim rewards for",
          "_promotionId": "Promotion id to claim rewards for",
          "_user": "Address of the user to claim rewards for"
        },
        "returns": {
          "_0": "Amount of rewards claimed"
        }
      },
      "createPromotion(address,address,uint216,uint32,uint32,uint8)": {
        "details": "For sake of simplicity, `msg.sender` will be the creator of the promotion.We approve the contract to spend the max amount of reward tokens in order to save on gas when claiming rewards.`_latestPromotionId` starts at 0 and is incremented by 1 for each new promotion. So the first promotion will have id 1, the second 2, etc.",
        "params": {
          "_epochDuration": "Duration of one epoch in seconds",
          "_numberOfEpochs": "Number of epochs the promotion will last for",
          "_startTimestamp": "Timestamp at which the promotion starts",
          "_ticket": "Prize Pool ticket address for which the promotion is created",
          "_token": "Address of the token to be distributed",
          "_tokensPerEpoch": "Number of tokens to be distributed per epoch"
        },
        "returns": {
          "_0": "Id of the newly created promotion"
        }
      },
      "extendPromotion(uint256,uint8)": {
        "params": {
          "_numberOfEpochs": "Number of epochs to add",
          "_promotionId": "Promotion id to extend"
        },
        "returns": {
          "_0": "true if the operation was successful"
        }
      },
      "getCurrentEpochId(uint256)": {
        "details": "Epoch ids and their boolean values are tightly packed and stored in a uint256, so epoch id starts at 0.",
        "params": {
          "_promotionId": "Promotion id to get current epoch for"
        },
        "returns": {
          "_0": "Epoch id"
        }
      },
      "getPromotion(uint256)": {
        "params": {
          "_promotionId": "Promotion id to get settings for"
        },
        "returns": {
          "_0": "Promotion settings"
        }
      },
      "getRemainingRewards(uint256)": {
        "params": {
          "_promotionId": "Promotion id to get the total amount of tokens left to be rewarded for"
        },
        "returns": {
          "_0": "Amount of tokens left to be rewarded"
        }
      },
      "getRewardsAmount(address,uint256,uint256[])": {
        "details": "Will be 0 if user has already claimed rewards for the epoch.",
        "params": {
          "_epochIds": "Epoch ids to get reward amount for",
          "_promotionId": "Promotion id from which the epoch is",
          "_user": "Address of the user to get amount of rewards for"
        },
        "returns": {
          "_0": "Amount of tokens to be rewarded"
        }
      }
    },
    "stateVariables": {
      "_claimedEpochs": {
        "details": "_claimedEpochs[promotionId][user] => claimedEpochsWe pack epochs claimed by a user into a uint256. So we can't store more than 255 epochs."
      },
      "_latestPromotionId": {
        "details": "Starts at 0 and is incremented by 1 for each new promotion. So the first promotion will have id 1, the second 2, etc."
      }
    },
    "title": "PoolTogether V4 TwabRewards",
    "version": 1
  },
  "userdoc": {
    "events": {
      "PromotionCancelled(uint256,uint256)": {
        "notice": "Emmited when a promotion is cancelled."
      },
      "PromotionCreated(uint256)": {
        "notice": "Emmited when a promotion is created."
      },
      "PromotionExtended(uint256,uint256,uint256)": {
        "notice": "Emmited when a promotion is extended."
      },
      "RewardsClaimed(uint256,uint256[],uint256)": {
        "notice": "Emmited when rewards have been claimed."
      }
    },
    "kind": "user",
    "methods": {
      "_updateClaimedEpoch(uint256,uint256)": {
        "notice": "Set boolean value for a specific epoch."
      },
      "cancelPromotion(uint256,address)": {
        "notice": "Cancel currently active promotion and send promotion tokens back to the creator."
      },
      "claimRewards(address,uint256,uint256[])": {
        "notice": "Claim rewards for a given promotion and epoch."
      },
      "createPromotion(address,address,uint216,uint32,uint32,uint8)": {
        "notice": "Create a new promotion."
      },
      "extendPromotion(uint256,uint8)": {
        "notice": "Extend promotion by adding more epochs."
      },
      "getCurrentEpochId(uint256)": {
        "notice": "Get the current epoch id of a promotion."
      },
      "getPromotion(uint256)": {
        "notice": "Get settings for a specific promotion."
      },
      "getRemainingRewards(uint256)": {
        "notice": "Get the total amount of tokens left to be rewarded."
      },
      "getRewardsAmount(address,uint256,uint256[])": {
        "notice": "Get amount of tokens to be rewarded for a given epoch."
      }
    },
    "notice": "Contract to distribute rewards to depositors in a pool.",
    "version": 1
  },
  "storageLayout": {
    "storage": [
      {
        "astId": 13863,
        "contract": "@pooltogether/v4-periphery/contracts/TwabRewards.sol:TwabRewards",
        "label": "_promotions",
        "offset": 0,
        "slot": "0",
        "type": "t_mapping(t_uint256,t_struct(Promotion)14938_storage)"
      },
      {
        "astId": 13866,
        "contract": "@pooltogether/v4-periphery/contracts/TwabRewards.sol:TwabRewards",
        "label": "_latestPromotionId",
        "offset": 0,
        "slot": "1",
        "type": "t_uint256"
      },
      {
        "astId": 13873,
        "contract": "@pooltogether/v4-periphery/contracts/TwabRewards.sol:TwabRewards",
        "label": "_claimedEpochs",
        "offset": 0,
        "slot": "2",
        "type": "t_mapping(t_uint256,t_mapping(t_address,t_uint256))"
      }
    ],
    "types": {
      "t_address": {
        "encoding": "inplace",
        "label": "address",
        "numberOfBytes": "20"
      },
      "t_contract(IERC20)663": {
        "encoding": "inplace",
        "label": "contract IERC20",
        "numberOfBytes": "20"
      },
      "t_mapping(t_address,t_uint256)": {
        "encoding": "mapping",
        "key": "t_address",
        "label": "mapping(address => uint256)",
        "numberOfBytes": "32",
        "value": "t_uint256"
      },
      "t_mapping(t_uint256,t_mapping(t_address,t_uint256))": {
        "encoding": "mapping",
        "key": "t_uint256",
        "label": "mapping(uint256 => mapping(address => uint256))",
        "numberOfBytes": "32",
        "value": "t_mapping(t_address,t_uint256)"
      },
      "t_mapping(t_uint256,t_struct(Promotion)14938_storage)": {
        "encoding": "mapping",
        "key": "t_uint256",
        "label": "mapping(uint256 => struct ITwabRewards.Promotion)",
        "numberOfBytes": "32",
        "value": "t_struct(Promotion)14938_storage"
      },
      "t_struct(Promotion)14938_storage": {
        "encoding": "inplace",
        "label": "struct ITwabRewards.Promotion",
        "members": [
          {
            "astId": 14924,
            "contract": "@pooltogether/v4-periphery/contracts/TwabRewards.sol:TwabRewards",
            "label": "creator",
            "offset": 0,
            "slot": "0",
            "type": "t_address"
          },
          {
            "astId": 14926,
            "contract": "@pooltogether/v4-periphery/contracts/TwabRewards.sol:TwabRewards",
            "label": "ticket",
            "offset": 0,
            "slot": "1",
            "type": "t_address"
          },
          {
            "astId": 14929,
            "contract": "@pooltogether/v4-periphery/contracts/TwabRewards.sol:TwabRewards",
            "label": "token",
            "offset": 0,
            "slot": "2",
            "type": "t_contract(IERC20)663"
          },
          {
            "astId": 14931,
            "contract": "@pooltogether/v4-periphery/contracts/TwabRewards.sol:TwabRewards",
            "label": "tokensPerEpoch",
            "offset": 0,
            "slot": "3",
            "type": "t_uint216"
          },
          {
            "astId": 14933,
            "contract": "@pooltogether/v4-periphery/contracts/TwabRewards.sol:TwabRewards",
            "label": "startTimestamp",
            "offset": 27,
            "slot": "3",
            "type": "t_uint32"
          },
          {
            "astId": 14935,
            "contract": "@pooltogether/v4-periphery/contracts/TwabRewards.sol:TwabRewards",
            "label": "epochDuration",
            "offset": 0,
            "slot": "4",
            "type": "t_uint32"
          },
          {
            "astId": 14937,
            "contract": "@pooltogether/v4-periphery/contracts/TwabRewards.sol:TwabRewards",
            "label": "numberOfEpochs",
            "offset": 4,
            "slot": "4",
            "type": "t_uint8"
          }
        ],
        "numberOfBytes": "160"
      },
      "t_uint216": {
        "encoding": "inplace",
        "label": "uint216",
        "numberOfBytes": "27"
      },
      "t_uint256": {
        "encoding": "inplace",
        "label": "uint256",
        "numberOfBytes": "32"
      },
      "t_uint32": {
        "encoding": "inplace",
        "label": "uint32",
        "numberOfBytes": "4"
      },
      "t_uint8": {
        "encoding": "inplace",
        "label": "uint8",
        "numberOfBytes": "1"
      }
    }
  }
}