{
  "address": "0x3D99eB28985adcd105947Fbb8D90b49cCe1ec562",
  "abi": [
    {
      "anonymous": false,
      "inputs": [
        {
          "indexed": false,
          "internalType": "uint256",
          "name": "amount",
          "type": "uint256"
        }
      ],
      "name": "AwardCaptured",
      "type": "event"
    },
    {
      "anonymous": false,
      "inputs": [
        {
          "indexed": true,
          "internalType": "address",
          "name": "winner",
          "type": "address"
        },
        {
          "indexed": true,
          "internalType": "contract IControlledToken",
          "name": "token",
          "type": "address"
        },
        {
          "indexed": false,
          "internalType": "uint256",
          "name": "amount",
          "type": "uint256"
        }
      ],
      "name": "Awarded",
      "type": "event"
    },
    {
      "anonymous": false,
      "inputs": [
        {
          "indexed": true,
          "internalType": "address",
          "name": "winner",
          "type": "address"
        },
        {
          "indexed": true,
          "internalType": "address",
          "name": "token",
          "type": "address"
        },
        {
          "indexed": false,
          "internalType": "uint256",
          "name": "amount",
          "type": "uint256"
        }
      ],
      "name": "AwardedExternalERC20",
      "type": "event"
    },
    {
      "anonymous": false,
      "inputs": [
        {
          "indexed": true,
          "internalType": "address",
          "name": "winner",
          "type": "address"
        },
        {
          "indexed": true,
          "internalType": "address",
          "name": "token",
          "type": "address"
        },
        {
          "indexed": false,
          "internalType": "uint256[]",
          "name": "tokenIds",
          "type": "uint256[]"
        }
      ],
      "name": "AwardedExternalERC721",
      "type": "event"
    },
    {
      "anonymous": false,
      "inputs": [
        {
          "indexed": true,
          "internalType": "contract IControlledToken",
          "name": "token",
          "type": "address"
        }
      ],
      "name": "ControlledTokenAdded",
      "type": "event"
    },
    {
      "anonymous": false,
      "inputs": [
        {
          "indexed": true,
          "internalType": "address",
          "name": "operator",
          "type": "address"
        },
        {
          "indexed": true,
          "internalType": "address",
          "name": "to",
          "type": "address"
        },
        {
          "indexed": true,
          "internalType": "contract IControlledToken",
          "name": "token",
          "type": "address"
        },
        {
          "indexed": false,
          "internalType": "uint256",
          "name": "amount",
          "type": "uint256"
        }
      ],
      "name": "Deposited",
      "type": "event"
    },
    {
      "anonymous": false,
      "inputs": [
        {
          "indexed": false,
          "internalType": "bytes",
          "name": "error",
          "type": "bytes"
        }
      ],
      "name": "ErrorAwardingExternalERC721",
      "type": "event"
    },
    {
      "anonymous": false,
      "inputs": [
        {
          "indexed": false,
          "internalType": "address",
          "name": "reserveRegistry",
          "type": "address"
        }
      ],
      "name": "Initialized",
      "type": "event"
    },
    {
      "anonymous": false,
      "inputs": [
        {
          "indexed": false,
          "internalType": "uint256",
          "name": "liquidityCap",
          "type": "uint256"
        }
      ],
      "name": "LiquidityCapSet",
      "type": "event"
    },
    {
      "anonymous": false,
      "inputs": [
        {
          "indexed": true,
          "internalType": "address",
          "name": "previousOwner",
          "type": "address"
        },
        {
          "indexed": true,
          "internalType": "address",
          "name": "newOwner",
          "type": "address"
        }
      ],
      "name": "OwnershipTransferred",
      "type": "event"
    },
    {
      "anonymous": false,
      "inputs": [
        {
          "indexed": true,
          "internalType": "address",
          "name": "prizeStrategy",
          "type": "address"
        }
      ],
      "name": "PrizeStrategySet",
      "type": "event"
    },
    {
      "anonymous": false,
      "inputs": [
        {
          "indexed": true,
          "internalType": "address",
          "name": "to",
          "type": "address"
        },
        {
          "indexed": true,
          "internalType": "address",
          "name": "token",
          "type": "address"
        },
        {
          "indexed": false,
          "internalType": "uint256",
          "name": "amount",
          "type": "uint256"
        }
      ],
      "name": "TransferredExternalERC20",
      "type": "event"
    },
    {
      "anonymous": false,
      "inputs": [
        {
          "indexed": true,
          "internalType": "address",
          "name": "operator",
          "type": "address"
        },
        {
          "indexed": true,
          "internalType": "address",
          "name": "from",
          "type": "address"
        },
        {
          "indexed": true,
          "internalType": "contract IControlledToken",
          "name": "token",
          "type": "address"
        },
        {
          "indexed": false,
          "internalType": "uint256",
          "name": "amount",
          "type": "uint256"
        },
        {
          "indexed": false,
          "internalType": "uint256",
          "name": "redeemed",
          "type": "uint256"
        }
      ],
      "name": "Withdrawal",
      "type": "event"
    },
    {
      "anonymous": false,
      "inputs": [
        {
          "indexed": true,
          "internalType": "address",
          "name": "yieldSource",
          "type": "address"
        }
      ],
      "name": "YieldSourcePrizePoolInitialized",
      "type": "event"
    },
    {
      "inputs": [],
      "name": "VERSION",
      "outputs": [
        {
          "internalType": "string",
          "name": "",
          "type": "string"
        }
      ],
      "stateMutability": "view",
      "type": "function"
    },
    {
      "inputs": [],
      "name": "accountedBalance",
      "outputs": [
        {
          "internalType": "uint256",
          "name": "",
          "type": "uint256"
        }
      ],
      "stateMutability": "view",
      "type": "function"
    },
    {
      "inputs": [
        {
          "internalType": "address",
          "name": "_to",
          "type": "address"
        },
        {
          "internalType": "uint256",
          "name": "_amount",
          "type": "uint256"
        },
        {
          "internalType": "contract IControlledToken",
          "name": "_controlledToken",
          "type": "address"
        }
      ],
      "name": "award",
      "outputs": [],
      "stateMutability": "nonpayable",
      "type": "function"
    },
    {
      "inputs": [],
      "name": "awardBalance",
      "outputs": [
        {
          "internalType": "uint256",
          "name": "",
          "type": "uint256"
        }
      ],
      "stateMutability": "view",
      "type": "function"
    },
    {
      "inputs": [
        {
          "internalType": "address",
          "name": "_to",
          "type": "address"
        },
        {
          "internalType": "address",
          "name": "_externalToken",
          "type": "address"
        },
        {
          "internalType": "uint256",
          "name": "_amount",
          "type": "uint256"
        }
      ],
      "name": "awardExternalERC20",
      "outputs": [],
      "stateMutability": "nonpayable",
      "type": "function"
    },
    {
      "inputs": [
        {
          "internalType": "address",
          "name": "to",
          "type": "address"
        },
        {
          "internalType": "address",
          "name": "externalToken",
          "type": "address"
        },
        {
          "internalType": "uint256[]",
          "name": "tokenIds",
          "type": "uint256[]"
        }
      ],
      "name": "awardExternalERC721",
      "outputs": [],
      "stateMutability": "nonpayable",
      "type": "function"
    },
    {
      "inputs": [],
      "name": "balance",
      "outputs": [
        {
          "internalType": "uint256",
          "name": "",
          "type": "uint256"
        }
      ],
      "stateMutability": "nonpayable",
      "type": "function"
    },
    {
      "inputs": [
        {
          "internalType": "address",
          "name": "_externalToken",
          "type": "address"
        }
      ],
      "name": "canAwardExternal",
      "outputs": [
        {
          "internalType": "bool",
          "name": "",
          "type": "bool"
        }
      ],
      "stateMutability": "view",
      "type": "function"
    },
    {
      "inputs": [],
      "name": "captureAwardBalance",
      "outputs": [
        {
          "internalType": "uint256",
          "name": "",
          "type": "uint256"
        }
      ],
      "stateMutability": "nonpayable",
      "type": "function"
    },
    {
      "inputs": [
        {
          "internalType": "contract ICompLike",
          "name": "_compLike",
          "type": "address"
        },
        {
          "internalType": "address",
          "name": "_to",
          "type": "address"
        }
      ],
      "name": "compLikeDelegate",
      "outputs": [],
      "stateMutability": "nonpayable",
      "type": "function"
    },
    {
      "inputs": [
        {
          "internalType": "address",
          "name": "to",
          "type": "address"
        },
        {
          "internalType": "uint256",
          "name": "amount",
          "type": "uint256"
        },
        {
          "internalType": "contract IControlledToken",
          "name": "controlledToken",
          "type": "address"
        }
      ],
      "name": "depositTo",
      "outputs": [],
      "stateMutability": "nonpayable",
      "type": "function"
    },
    {
      "inputs": [
        {
          "internalType": "contract IControlledToken[]",
          "name": "_controlledTokens",
          "type": "address[]"
        }
      ],
      "name": "initialize",
      "outputs": [],
      "stateMutability": "nonpayable",
      "type": "function"
    },
    {
      "inputs": [
        {
          "internalType": "contract IControlledToken[]",
          "name": "_controlledTokens",
          "type": "address[]"
        },
        {
          "internalType": "contract IYieldSource",
          "name": "_yieldSource",
          "type": "address"
        }
      ],
      "name": "initializeYieldSourcePrizePool",
      "outputs": [],
      "stateMutability": "nonpayable",
      "type": "function"
    },
    {
      "inputs": [
        {
          "internalType": "contract IControlledToken",
          "name": "controlledToken",
          "type": "address"
        }
      ],
      "name": "isControlled",
      "outputs": [
        {
          "internalType": "bool",
          "name": "",
          "type": "bool"
        }
      ],
      "stateMutability": "view",
      "type": "function"
    },
    {
      "inputs": [],
      "name": "liquidityCap",
      "outputs": [
        {
          "internalType": "uint256",
          "name": "",
          "type": "uint256"
        }
      ],
      "stateMutability": "view",
      "type": "function"
    },
    {
      "inputs": [
        {
          "internalType": "address",
          "name": "_operator",
          "type": "address"
        },
        {
          "internalType": "address",
          "name": "_from",
          "type": "address"
        },
        {
          "internalType": "uint256",
          "name": "_tokenId",
          "type": "uint256"
        },
        {
          "internalType": "bytes",
          "name": "_data",
          "type": "bytes"
        }
      ],
      "name": "onERC721Received",
      "outputs": [
        {
          "internalType": "bytes4",
          "name": "",
          "type": "bytes4"
        }
      ],
      "stateMutability": "nonpayable",
      "type": "function"
    },
    {
      "inputs": [],
      "name": "owner",
      "outputs": [
        {
          "internalType": "address",
          "name": "",
          "type": "address"
        }
      ],
      "stateMutability": "view",
      "type": "function"
    },
    {
      "inputs": [],
      "name": "prizeStrategy",
      "outputs": [
        {
          "internalType": "address",
          "name": "",
          "type": "address"
        }
      ],
      "stateMutability": "view",
      "type": "function"
    },
    {
      "inputs": [],
      "name": "renounceOwnership",
      "outputs": [],
      "stateMutability": "nonpayable",
      "type": "function"
    },
    {
      "inputs": [
        {
          "internalType": "uint256",
          "name": "_liquidityCap",
          "type": "uint256"
        }
      ],
      "name": "setLiquidityCap",
      "outputs": [],
      "stateMutability": "nonpayable",
      "type": "function"
    },
    {
      "inputs": [
        {
          "internalType": "address",
          "name": "_prizeStrategy",
          "type": "address"
        }
      ],
      "name": "setPrizeStrategy",
      "outputs": [],
      "stateMutability": "nonpayable",
      "type": "function"
    },
    {
      "inputs": [],
      "name": "token",
      "outputs": [
        {
          "internalType": "address",
          "name": "",
          "type": "address"
        }
      ],
      "stateMutability": "view",
      "type": "function"
    },
    {
      "inputs": [
        {
          "internalType": "uint256",
          "name": "tokenIndex",
          "type": "uint256"
        }
      ],
      "name": "tokenAtIndex",
      "outputs": [
        {
          "internalType": "contract IControlledToken",
          "name": "",
          "type": "address"
        }
      ],
      "stateMutability": "view",
      "type": "function"
    },
    {
      "inputs": [],
      "name": "tokens",
      "outputs": [
        {
          "internalType": "contract IControlledToken[]",
          "name": "",
          "type": "address[]"
        }
      ],
      "stateMutability": "view",
      "type": "function"
    },
    {
      "inputs": [
        {
          "internalType": "address",
          "name": "_to",
          "type": "address"
        },
        {
          "internalType": "address",
          "name": "_externalToken",
          "type": "address"
        },
        {
          "internalType": "uint256",
          "name": "_amount",
          "type": "uint256"
        }
      ],
      "name": "transferExternalERC20",
      "outputs": [],
      "stateMutability": "nonpayable",
      "type": "function"
    },
    {
      "inputs": [
        {
          "internalType": "address",
          "name": "newOwner",
          "type": "address"
        }
      ],
      "name": "transferOwnership",
      "outputs": [],
      "stateMutability": "nonpayable",
      "type": "function"
    },
    {
      "inputs": [
        {
          "internalType": "address",
          "name": "from",
          "type": "address"
        },
        {
          "internalType": "uint256",
          "name": "amount",
          "type": "uint256"
        },
        {
          "internalType": "contract IControlledToken",
          "name": "controlledToken",
          "type": "address"
        }
      ],
      "name": "withdrawFrom",
      "outputs": [
        {
          "internalType": "uint256",
          "name": "",
          "type": "uint256"
        }
      ],
      "stateMutability": "nonpayable",
      "type": "function"
    },
    {
      "inputs": [],
      "name": "yieldSource",
      "outputs": [
        {
          "internalType": "contract IYieldSource",
          "name": "",
          "type": "address"
        }
      ],
      "stateMutability": "view",
      "type": "function"
    }
  ],
  "transactionHash": "0xb0071dd0764d581735c61a1fff883e020dfe46e8353321ebc753312961acd59e",
  "args": [],
  "solcInputHash": "5bd4dfff3996e6e250da2bdbd3154bc0",
  "bytecode": "0x608060405234801561001057600080fd5b50612d83806100206000396000f3fe608060405234801561001057600080fd5b50600436106101c45760003560e01c806378b3d327116100f9578063b2470e5c11610097578063e6d8a94b11610071578063e6d8a94b146103ee578063f2fde38b146103f6578063fc0c546a14610409578063ffa1ad741461041157600080fd5b8063b2470e5c146103c0578063b69ef8a8146103d3578063e162402f146103db57600080fd5b806391ca480e116100d357806391ca480e1461037257806398bf3eb6146103855780639d63848a14610398578063a224cee7146103ad57600080fd5b806378b3d3271461033b5780637b99adb11461034e5780638da5cb5b1461036157600080fd5b806341f1afc7116101665780636a3fd4f9116101405780636a3fd4f9146102f45780636b1b863a14610317578063715018a61461032a57806376687d3d1461033257600080fd5b806341f1afc7146102ae578063475bd83d146102d9578063630665b4146102ec57600080fd5b806316960d55116101a257806316960d551461026257806320acd9f3146102755780632b0ab144146102885780632f7627e31461029b57600080fd5b80630937eb54146101c957806313f55e39146101e4578063150b7a02146101f9575b600080fd5b6101d161045a565b6040519081526020015b60405180910390f35b6101f76101f2366004612958565b610469565b005b610231610207366004612999565b7f150b7a020000000000000000000000000000000000000000000000000000000095945050505050565b6040517fffffffff0000000000000000000000000000000000000000000000000000000090911681526020016101db565b6101f76102703660046128c3565b610534565b6101f7610283366004612a38565b610781565b6101f7610296366004612958565b61091d565b6101f76102a9366004612b23565b6109d5565b6102c16102bc366004612b51565b610b41565b6040516001600160a01b0390911681526020016101db565b6101f76102e7366004612aaf565b610c13565b609a546101d1565b610307610302366004612889565b610ead565b60405190151581526020016101db565b6101f7610325366004612a38565b610ece565b6101f7611044565b6101d160995481565b610307610349366004612889565b6110aa565b6101f761035c366004612b51565b6110b5565b6033546001600160a01b03166102c1565b6101f7610380366004612889565b61111b565b6098546102c1906001600160a01b031681565b6103a061117e565b6040516101db9190612bcb565b6101f76103bb366004612a7a565b6111e0565b609b546102c1906001600160a01b031681565b6101d1611352565b6101d16103e9366004612a38565b61135c565b6101d161153a565b6101f7610404366004612889565b611645565b6102c1611724565b61044d6040518060400160405280600581526020017f332e342e3000000000000000000000000000000000000000000000000000000081525081565b6040516101db9190612c6d565b600061046461172e565b905090565b6098546001600160a01b0316336001600160a01b0316146104d15760405162461bcd60e51b815260206004820152601c60248201527f5072697a65506f6f6c2f6f6e6c792d7072697a6553747261746567790000000060448201526064015b60405180910390fd5b6104dc838383611850565b1561052f57816001600160a01b0316836001600160a01b03167fb0bac59718cd343c80a813518afcf36846cfcfe6d56e2b3cab9bd49f5f9b251c8360405161052691815260200190565b60405180910390a35b505050565b6098546001600160a01b0316336001600160a01b0316146105975760405162461bcd60e51b815260206004820152601c60248201527f5072697a65506f6f6c2f6f6e6c792d7072697a6553747261746567790000000060448201526064016104c8565b609b546001600160a01b03848116911614156105f55760405162461bcd60e51b815260206004820181905260248201527f5072697a65506f6f6c2f696e76616c69642d65787465726e616c2d746f6b656e60448201526064016104c8565b806105ff5761077b565b60005b8181101561072c57836001600160a01b03166342842e0e308786868681811061062d5761062d612d0c565b6040517fffffffff0000000000000000000000000000000000000000000000000000000060e088901b1681526001600160a01b03958616600482015294909316602485015250602090910201356044820152606401600060405180830381600087803b15801561069c57600080fd5b505af19250505080156106ad575060015b61071a573d8080156106db576040519150601f19603f3d011682016040523d82523d6000602084013e6106e0565b606091505b507f17e975018310f88872b58d4d8263adca83cf5c1893496ea2a86923dab15276ad816040516107109190612c6d565b60405180910390a1505b8061072481612cdb565b915050610602565b50826001600160a01b0316846001600160a01b03167f69c2de32bc4d47f488e72626a6cfdee85089342e52675e7de79c4b417623960c8484604051610772929190612c18565b60405180910390a35b50505050565b600260655414156107d45760405162461bcd60e51b815260206004820152601f60248201527f5265656e7472616e637947756172643a207265656e7472616e742063616c6c0060448201526064016104c8565b6002606555806107e3816118e3565b61082f5760405162461bcd60e51b815260206004820152601760248201527f5072697a65506f6f6c2f756e6b6e6f776e2d746f6b656e00000000000000000060448201526064016104c8565b82610839816119ad565b6108855760405162461bcd60e51b815260206004820152601f60248201527f5072697a65506f6f6c2f657863656564732d6c69717569646974792d6361700060448201526064016104c8565b336108918686866119e3565b6108b081308761089f611a63565b6001600160a01b0316929190611af9565b6108b985611baa565b836001600160a01b0316866001600160a01b0316826001600160a01b03167f4174a9435a04d04d274c76779cad136a41fde6937c56241c09ab9d3c7064a1a98860405161090891815260200190565b60405180910390a45050600160655550505050565b6098546001600160a01b0316336001600160a01b0316146109805760405162461bcd60e51b815260206004820152601c60248201527f5072697a65506f6f6c2f6f6e6c792d7072697a6553747261746567790000000060448201526064016104c8565b61098b838383611850565b1561052f57816001600160a01b0316836001600160a01b03167fc65f48aca3b7a99b7443d04b8ffbb073156179bc628dc3f7def50477489734698360405161052691815260200190565b6033546001600160a01b03163314610a2f5760405162461bcd60e51b815260206004820181905260248201527f4f776e61626c653a2063616c6c6572206973206e6f7420746865206f776e657260448201526064016104c8565b6040517f70a082310000000000000000000000000000000000000000000000000000000081523060048201526000906001600160a01b038416906370a082319060240160206040518083038186803b158015610a8a57600080fd5b505afa158015610a9e573d6000803e3d6000fd5b505050506040513d601f19601f82011682018060405250810190610ac29190612b6a565b1115610b3d576040517f5c19a95c0000000000000000000000000000000000000000000000000000000081526001600160a01b038281166004830152831690635c19a95c90602401600060405180830381600087803b158015610b2457600080fd5b505af1158015610b38573d6000803e3d6000fd5b505050505b5050565b6000806097805480602002602001604051908101604052809291908181526020018280548015610b9a57602002820191906000526020600020905b81546001600160a01b03168152600190910190602001808311610b7c575b5050505050905080518310610bf15760405162461bcd60e51b815260206004820152601d60248201527f5072697a65506f6f6c2f696e76616c69642d746f6b656e2d696e64657800000060448201526064016104c8565b808381518110610c0357610c03612d0c565b6020026020010151915050919050565b600054610100900460ff1680610c2c575060005460ff16155b610c8f5760405162461bcd60e51b815260206004820152602e60248201527f496e697469616c697a61626c653a20636f6e747261637420697320616c72656160448201526d191e481a5b9a5d1a585b1a5e995960921b60648201526084016104c8565b600054610100900460ff16158015610cb1576000805461ffff19166101011790555b6001600160a01b038216610d2d5760405162461bcd60e51b815260206004820152603260248201527f5969656c64536f757263655072697a65506f6f6c2f7969656c642d736f75726360448201527f652d6e6f742d7a65726f2d61646472657373000000000000000000000000000060648201526084016104c8565b610d36836111e0565b609b805473ffffffffffffffffffffffffffffffffffffffff19166001600160a01b0384169081179091556040517fc89039c50000000000000000000000000000000000000000000000000000000060208201526000919060240160408051601f1981840301815290829052610dab91612baf565b600060405180830381855afa9150503d8060008114610de6576040519150601f19603f3d011682016040523d82523d6000602084013e610deb565b606091505b5050905080610e625760405162461bcd60e51b815260206004820152602960248201527f5969656c64536f757263655072697a65506f6f6c2f696e76616c69642d79696560448201527f6c642d736f75726365000000000000000000000000000000000000000000000060648201526084016104c8565b6040516001600160a01b038416907f7a0ca506edc9fcd36e010dbcaad57dade17bbac71dfeb53269077098e863eeca90600090a250801561052f576000805461ff0019169055505050565b6000610ec882609b546001600160a01b039182169116141590565b92915050565b6098546001600160a01b0316336001600160a01b031614610f315760405162461bcd60e51b815260206004820152601c60248201527f5072697a65506f6f6c2f6f6e6c792d7072697a6553747261746567790000000060448201526064016104c8565b80610f3b816118e3565b610f875760405162461bcd60e51b815260206004820152601760248201527f5072697a65506f6f6c2f756e6b6e6f776e2d746f6b656e00000000000000000060448201526064016104c8565b82610f915761077b565b609a54831115610fe35760405162461bcd60e51b815260206004820152601d60248201527f5072697a65506f6f6c2f61776172642d657863656564732d617661696c00000060448201526064016104c8565b82609a54610ff19190612c98565b609a55610fff8484846119e3565b816001600160a01b0316846001600160a01b03167fe2554529d99ab7a67db6b4cea2b32c7d55ae325f958861e05f304fdded867e318560405161077291815260200190565b6033546001600160a01b0316331461109e5760405162461bcd60e51b815260206004820181905260248201527f4f776e61626c653a2063616c6c6572206973206e6f7420746865206f776e657260448201526064016104c8565b6110a86000611c53565b565b6000610ec8826118e3565b6033546001600160a01b0316331461110f5760405162461bcd60e51b815260206004820181905260248201527f4f776e61626c653a2063616c6c6572206973206e6f7420746865206f776e657260448201526064016104c8565b61111881611cb2565b50565b6033546001600160a01b031633146111755760405162461bcd60e51b815260206004820181905260248201527f4f776e61626c653a2063616c6c6572206973206e6f7420746865206f776e657260448201526064016104c8565b61111881611ced565b606060978054806020026020016040519081016040528092919081815260200182805480156111d657602002820191906000526020600020905b81546001600160a01b031681526001909101906020018083116111b8575b5050505050905090565b600054610100900460ff16806111f9575060005460ff16155b61125c5760405162461bcd60e51b815260206004820152602e60248201527f496e697469616c697a61626c653a20636f6e747261637420697320616c72656160448201526d191e481a5b9a5d1a585b1a5e995960921b60648201526084016104c8565b600054610100900460ff1615801561127e576000805461ffff19166101011790555b81518067ffffffffffffffff81111561129957611299612d22565b6040519080825280602002602001820160405280156112c2578160200160208202803683370190505b5080516112d79160979160209091019061274a565b5060005b8181101561131e5760008482815181106112f7576112f7612d0c565b6020026020010151905061130b8183611d9a565b508061131681612cdb565b9150506112db565b50611327611e8a565b61132f611f4c565b60001961133b81611cb2565b50508015610b3d576000805461ff00191690555050565b6000610464611ff2565b6000600260655414156113b15760405162461bcd60e51b815260206004820152601f60248201527f5265656e7472616e637947756172643a207265656e7472616e742063616c6c0060448201526064016104c8565b6002606555816113c0816118e3565b61140c5760405162461bcd60e51b815260206004820152601760248201527f5072697a65506f6f6c2f756e6b6e6f776e2d746f6b656e00000000000000000060448201526064016104c8565b6001600160a01b03831663631b5dfb336040517fffffffff0000000000000000000000000000000000000000000000000000000060e084901b1681526001600160a01b039182166004820152908816602482015260448101879052606401600060405180830381600087803b15801561148457600080fd5b505af1158015611498573d6000803e3d6000fd5b5050505060006114a785612089565b90506114c686826114b6611a63565b6001600160a01b03169190612121565b836001600160a01b0316866001600160a01b03166114e13390565b6001600160a01b03167fe56473357106d0cdea364a045d5ab7abb44b6bd1c0f092ba3734983a43459f8f8885604051611524929190918252602082015260400190565b60405180910390a4600160655595945050505050565b60006002606554141561158f5760405162461bcd60e51b815260206004820152601f60248201527f5265656e7472616e637947756172643a207265656e7472616e742063616c6c0060448201526064016104c8565b6002606555600061159e61172e565b905060006115aa611ff2565b905060008282116115bc5760006115c6565b6115c68383612c98565b90506000609a5482116115da5760006115e7565b609a546115e79083612c98565b905080156116345780609a546115fd9190612c80565b609a556040518181527fce2b6e507c7ca1a20ce136810f524eefc19ba4c7e4866eb6cc0cba76e778d4be9060200160405180910390a15b609a54945050505050600160655590565b6033546001600160a01b0316331461169f5760405162461bcd60e51b815260206004820181905260248201527f4f776e61626c653a2063616c6c6572206973206e6f7420746865206f776e657260448201526064016104c8565b6001600160a01b03811661171b5760405162461bcd60e51b815260206004820152602660248201527f4f776e61626c653a206e6577206f776e657220697320746865207a65726f206160448201527f646472657373000000000000000000000000000000000000000000000000000060648201526084016104c8565b61111881611c53565b6000610464611a63565b6000806000609780548060200260200160405190810160405280929190818152602001828054801561178957602002820191906000526020600020905b81546001600160a01b0316815260019091019060200180831161176b575b505083519394506000925050505b81811015611847578281815181106117b1576117b1612d0c565b60200260200101516001600160a01b03166318160ddd6040518163ffffffff1660e01b815260040160206040518083038186803b1580156117f157600080fd5b505afa158015611805573d6000803e3d6000fd5b505050506040513d601f19601f820116820180604052508101906118299190612b6a565b6118339085612c80565b93508061183f81612cdb565b915050611797565b50919392505050565b600061186b83609b546001600160a01b039182169116141590565b6118b75760405162461bcd60e51b815260206004820181905260248201527f5072697a65506f6f6c2f696e76616c69642d65787465726e616c2d746f6b656e60448201526064016104c8565b816118c4575060006118dc565b6118d86001600160a01b0384168584612121565b5060015b9392505050565b600080609780548060200260200160405190810160405280929190818152602001828054801561193c57602002820191906000526020600020905b81546001600160a01b0316815260019091019060200180831161191e575b505083519394506000925050505b818110156119a257846001600160a01b031683828151811061196e5761196e612d0c565b60200260200101516001600160a01b0316141561199057506001949350505050565b8061199a81612cdb565b91505061194a565b506000949350505050565b6099546000906000198114156119c65750600192915050565b80836119d061172e565b6119da9190612c80565b11159392505050565b6040517f5d7b07580000000000000000000000000000000000000000000000000000000081526001600160a01b03848116600483015260248201849052821690635d7b075890604401600060405180830381600087803b158015611a4657600080fd5b505af1158015611a5a573d6000803e3d6000fd5b50505050505050565b609b54604080517fc89039c500000000000000000000000000000000000000000000000000000000815290516000926001600160a01b03169163c89039c5916004808301926020929190829003018186803b158015611ac157600080fd5b505afa158015611ad5573d6000803e3d6000fd5b505050506040513d601f19601f8201168201806040525081019061046491906128a6565b6040516001600160a01b038085166024830152831660448201526064810182905261077b9085907f23b872dd00000000000000000000000000000000000000000000000000000000906084015b60408051601f198184030181529190526020810180517bffffffffffffffffffffffffffffffffffffffffffffffffffffffff167fffffffff000000000000000000000000000000000000000000000000000000009093169290921790915261216a565b609b54611bd3906001600160a01b031682611bc3611a63565b6001600160a01b0316919061224f565b609b546040517f87a6eeef000000000000000000000000000000000000000000000000000000008152600481018390523060248201526001600160a01b03909116906387a6eeef90604401600060405180830381600087803b158015611c3857600080fd5b505af1158015611c4c573d6000803e3d6000fd5b5050505050565b603380546001600160a01b0383811673ffffffffffffffffffffffffffffffffffffffff19831681179093556040519116919082907f8be0079c531659141344cd1fd0a4f28419497f9722a3daafe3b4186f6b6457e090600090a35050565b60998190556040518181527f3ff20538222f568f27ff436c0c49dfd3e48d5b8f86533a3f759dc1c7089775ab9060200160405180910390a150565b6001600160a01b038116611d435760405162461bcd60e51b815260206004820181905260248201527f5072697a65506f6f6c2f7072697a6553747261746567792d6e6f742d7a65726f60448201526064016104c8565b6098805473ffffffffffffffffffffffffffffffffffffffff19166001600160a01b0383169081179091556040517f7f58dc86bc2e435cb77ca0edb1df55e25f90caf2d6bd866971715437d456a21290600090a250565b6001600160a01b038216611e165760405162461bcd60e51b815260206004820152602a60248201527f5072697a65506f6f6c2f636f6e74726f6c6c6564546f6b656e2d6e6f742d7a6560448201527f726f2d616464726573730000000000000000000000000000000000000000000060648201526084016104c8565b8160978281548110611e2a57611e2a612d0c565b60009182526020822001805473ffffffffffffffffffffffffffffffffffffffff19166001600160a01b03938416179055604051918416917f460e712b4a5d801d031ed673dea209b73ab854f7ddeb86b6c48082e92c3eee669190a25050565b600054610100900460ff1680611ea3575060005460ff16155b611f065760405162461bcd60e51b815260206004820152602e60248201527f496e697469616c697a61626c653a20636f6e747261637420697320616c72656160448201526d191e481a5b9a5d1a585b1a5e995960921b60648201526084016104c8565b600054610100900460ff16158015611f28576000805461ffff19166101011790555b611f306123ac565b611f3861245d565b8015611118576000805461ff001916905550565b600054610100900460ff1680611f65575060005460ff16155b611fc85760405162461bcd60e51b815260206004820152602e60248201527f496e697469616c697a61626c653a20636f6e747261637420697320616c72656160448201526d191e481a5b9a5d1a585b1a5e995960921b60648201526084016104c8565b600054610100900460ff16158015611fea576000805461ffff19166101011790555b611f38612504565b609b546040517fb99152d00000000000000000000000000000000000000000000000000000000081523060048201526000916001600160a01b03169063b99152d090602401602060405180830381600087803b15801561205157600080fd5b505af1158015612065573d6000803e3d6000fd5b505050506040513d601f19601f820116820180604052508101906104649190612b6a565b609b546040517f013054c2000000000000000000000000000000000000000000000000000000008152600481018390526000916001600160a01b03169063013054c290602401602060405180830381600087803b1580156120e957600080fd5b505af11580156120fd573d6000803e3d6000fd5b505050506040513d601f19601f82011682018060405250810190610ec89190612b6a565b6040516001600160a01b03831660248201526044810182905261052f9084907fa9059cbb0000000000000000000000000000000000000000000000000000000090606401611b46565b60006121bf826040518060400160405280602081526020017f5361666545524332303a206c6f772d6c6576656c2063616c6c206661696c6564815250856001600160a01b03166125bb9092919063ffffffff16565b80519091501561052f57808060200190518101906121dd9190612b01565b61052f5760405162461bcd60e51b815260206004820152602a60248201527f5361666545524332303a204552433230206f7065726174696f6e20646964206e60448201527f6f7420737563636565640000000000000000000000000000000000000000000060648201526084016104c8565b8015806122f157506040517fdd62ed3e0000000000000000000000000000000000000000000000000000000081523060048201526001600160a01b03838116602483015284169063dd62ed3e9060440160206040518083038186803b1580156122b757600080fd5b505afa1580156122cb573d6000803e3d6000fd5b505050506040513d601f19601f820116820180604052508101906122ef9190612b6a565b155b6123635760405162461bcd60e51b815260206004820152603660248201527f5361666545524332303a20617070726f76652066726f6d206e6f6e2d7a65726f60448201527f20746f206e6f6e2d7a65726f20616c6c6f77616e63650000000000000000000060648201526084016104c8565b6040516001600160a01b03831660248201526044810182905261052f9084907f095ea7b30000000000000000000000000000000000000000000000000000000090606401611b46565b600054610100900460ff16806123c5575060005460ff16155b6124285760405162461bcd60e51b815260206004820152602e60248201527f496e697469616c697a61626c653a20636f6e747261637420697320616c72656160448201526d191e481a5b9a5d1a585b1a5e995960921b60648201526084016104c8565b600054610100900460ff16158015611f38576000805461ffff19166101011790558015611118576000805461ff001916905550565b600054610100900460ff1680612476575060005460ff16155b6124d95760405162461bcd60e51b815260206004820152602e60248201527f496e697469616c697a61626c653a20636f6e747261637420697320616c72656160448201526d191e481a5b9a5d1a585b1a5e995960921b60648201526084016104c8565b600054610100900460ff161580156124fb576000805461ffff19166101011790555b611f3833611c53565b600054610100900460ff168061251d575060005460ff16155b6125805760405162461bcd60e51b815260206004820152602e60248201527f496e697469616c697a61626c653a20636f6e747261637420697320616c72656160448201526d191e481a5b9a5d1a585b1a5e995960921b60648201526084016104c8565b600054610100900460ff161580156125a2576000805461ffff19166101011790555b60016065558015611118576000805461ff001916905550565b60606125ca84846000856125d2565b949350505050565b60608247101561264a5760405162461bcd60e51b815260206004820152602660248201527f416464726573733a20696e73756666696369656e742062616c616e636520666f60448201527f722063616c6c000000000000000000000000000000000000000000000000000060648201526084016104c8565b843b6126985760405162461bcd60e51b815260206004820152601d60248201527f416464726573733a2063616c6c20746f206e6f6e2d636f6e747261637400000060448201526064016104c8565b600080866001600160a01b031685876040516126b49190612baf565b60006040518083038185875af1925050503d80600081146126f1576040519150601f19603f3d011682016040523d82523d6000602084013e6126f6565b606091505b5091509150612706828286612711565b979650505050505050565b606083156127205750816118dc565b8251156127305782518084602001fd5b8160405162461bcd60e51b81526004016104c89190612c6d565b8280548282559060005260206000209081019282156127ac579160200282015b828111156127ac578251825473ffffffffffffffffffffffffffffffffffffffff19166001600160a01b0390911617825560209092019160019091019061276a565b506127b89291506127bc565b5090565b5b808211156127b857600081556001016127bd565b600082601f8301126127e257600080fd5b8135602067ffffffffffffffff808311156127ff576127ff612d22565b8260051b604051601f19603f8301168101818110848211171561282457612824612d22565b6040528481528381019250868401828801850189101561284357600080fd5b600092505b8583101561286d5761285981612879565b845292840192600192909201918401612848565b50979650505050505050565b803561288481612d38565b919050565b60006020828403121561289b57600080fd5b81356118dc81612d38565b6000602082840312156128b857600080fd5b81516118dc81612d38565b600080600080606085870312156128d957600080fd5b84356128e481612d38565b935060208501356128f481612d38565b9250604085013567ffffffffffffffff8082111561291157600080fd5b818701915087601f83011261292557600080fd5b81358181111561293457600080fd5b8860208260051b850101111561294957600080fd5b95989497505060200194505050565b60008060006060848603121561296d57600080fd5b833561297881612d38565b9250602084013561298881612d38565b929592945050506040919091013590565b6000806000806000608086880312156129b157600080fd5b85356129bc81612d38565b945060208601356129cc81612d38565b935060408601359250606086013567ffffffffffffffff808211156129f057600080fd5b818801915088601f830112612a0457600080fd5b813581811115612a1357600080fd5b896020828501011115612a2557600080fd5b9699959850939650602001949392505050565b600080600060608486031215612a4d57600080fd5b8335612a5881612d38565b9250602084013591506040840135612a6f81612d38565b809150509250925092565b600060208284031215612a8c57600080fd5b813567ffffffffffffffff811115612aa357600080fd5b6125ca848285016127d1565b60008060408385031215612ac257600080fd5b823567ffffffffffffffff811115612ad957600080fd5b612ae5858286016127d1565b9250506020830135612af681612d38565b809150509250929050565b600060208284031215612b1357600080fd5b815180151581146118dc57600080fd5b60008060408385031215612b3657600080fd5b8235612b4181612d38565b91506020830135612af681612d38565b600060208284031215612b6357600080fd5b5035919050565b600060208284031215612b7c57600080fd5b5051919050565b60008151808452612b9b816020860160208601612caf565b601f01601f19169290920160200192915050565b60008251612bc1818460208701612caf565b9190910192915050565b6020808252825182820181905260009190848201906040850190845b81811015612c0c5783516001600160a01b031683529284019291840191600101612be7565b50909695505050505050565b6020815281602082015260007f07ffffffffffffffffffffffffffffffffffffffffffffffffffffffffffffff831115612c5157600080fd5b8260051b80856040850137600092016040019182525092915050565b6020815260006118dc6020830184612b83565b60008219821115612c9357612c93612cf6565b500190565b600082821015612caa57612caa612cf6565b500390565b60005b83811015612cca578181015183820152602001612cb2565b8381111561077b5750506000910152565b6000600019821415612cef57612cef612cf6565b5060010190565b634e487b7160e01b600052601160045260246000fd5b634e487b7160e01b600052603260045260246000fd5b634e487b7160e01b600052604160045260246000fd5b6001600160a01b038116811461111857600080fdfea264697066735822122075b5b8580511e27e91cae40c2c553597e8389e993d02b7c93eec1128b3c06c2e64736f6c63430008060033",
  "devdoc": {
    "kind": "dev",
    "methods": {
      "accountedBalance()": {
        "returns": {
          "_0": "The current total of all tokens"
        }
      },
      "award(address,uint256,address)": {
        "details": "The amount awarded must be less than the awardBalance()",
        "params": {
          "_amount": "The amount of assets to be awarded",
          "_controlledToken": "The address of the asset token being awarded",
          "_to": "The address of the winner that receives the award"
        }
      },
      "awardBalance()": {
        "details": "captureAwardBalance() should be called first",
        "returns": {
          "_0": "The total amount of assets to be awarded for the current prize"
        }
      },
      "awardExternalERC20(address,address,uint256)": {
        "details": "Used to award any arbitrary tokens held by the Prize Pool",
        "params": {
          "_amount": "The amount of external assets to be awarded",
          "_externalToken": "The address of the external asset token being awarded",
          "_to": "The address of the winner that receives the award"
        }
      },
      "awardExternalERC721(address,address,uint256[])": {
        "details": "Used to award any arbitrary NFTs held by the Prize Pool",
        "params": {
          "externalToken": "The address of the external NFT token being awarded",
          "to": "The address of the winner that receives the award",
          "tokenIds": "An array of NFT Token IDs to be transferred"
        }
      },
      "balance()": {
        "details": "Returns the total underlying balance of all assets. This includes both principal and interest.",
        "returns": {
          "_0": "The underlying balance of assets"
        }
      },
      "canAwardExternal(address)": {
        "details": "Checks with the Prize Pool if a specific token type may be awarded as an external prize",
        "params": {
          "_externalToken": "The address of the token to check"
        },
        "returns": {
          "_0": "True if the token may be awarded, false otherwise"
        }
      },
      "captureAwardBalance()": {
        "returns": {
          "_0": "The total amount of assets to be awarded for the current prize"
        }
      },
      "compLikeDelegate(address,address)": {
        "params": {
          "_compLike": "The COMP-like token held by the prize pool that should be delegated",
          "_to": "The address to delegate to"
        }
      },
      "depositTo(address,uint256,address)": {
        "params": {
          "amount": "The amount of assets to deposit",
          "controlledToken": "The address of the type of token the user is minting",
          "to": "The address receiving the newly minted tokens"
        }
      },
      "initialize(address[])": {
        "params": {
          "_controlledTokens": "Array of ControlledTokens that are controlled by this Prize Pool."
        }
      },
      "initializeYieldSourcePrizePool(address[],address)": {
        "params": {
          "_controlledTokens": "Array of addresses for the Ticket and Sponsorship Tokens controlled by the Prize Pool",
          "_yieldSource": "Address of the yield source"
        }
      },
      "isControlled(address)": {
        "details": "Checks if a specific token is controlled by the Prize Pool",
        "params": {
          "controlledToken": "The address of the token to check"
        },
        "returns": {
          "_0": "True if the token is a controlled token, false otherwise"
        }
      },
      "onERC721Received(address,address,uint256,bytes)": {
        "params": {
          "_data": "Additional data with no specified format, sent in call to `_to`.",
          "_from": "The current owner of the NFT",
          "_operator": "The address that acts on behalf of the owner",
          "_tokenId": "The NFT to transfer"
        }
      },
      "owner()": {
        "details": "Returns the address of the current owner."
      },
      "renounceOwnership()": {
        "details": "Leaves the contract without owner. It will not be possible to call `onlyOwner` functions anymore. Can only be called by the current owner. NOTE: Renouncing ownership will leave the contract without an owner, thereby removing any functionality that is only available to the owner."
      },
      "setLiquidityCap(uint256)": {
        "params": {
          "_liquidityCap": "The new liquidity cap for the prize pool"
        }
      },
      "setPrizeStrategy(address)": {
        "params": {
          "_prizeStrategy": "The new prize strategy"
        }
      },
      "token()": {
        "details": "Returns the address of the underlying ERC20 asset",
        "returns": {
          "_0": "The address of the asset"
        }
      },
      "tokenAtIndex(uint256)": {
        "details": "Returns the address of a token in the _tokens array.",
        "returns": {
          "_0": "Address of token"
        }
      },
      "tokens()": {
        "returns": {
          "_0": "An array of controlled token addresses"
        }
      },
      "transferExternalERC20(address,address,uint256)": {
        "details": "Used to transfer out tokens held by the Prize Pool.  Could be liquidated, or anything.",
        "params": {
          "_amount": "The amount of external assets to be awarded",
          "_externalToken": "The address of the external asset token being awarded",
          "_to": "The address of the winner that receives the award"
        }
      },
      "transferOwnership(address)": {
        "details": "Transfers ownership of the contract to a new account (`newOwner`). Can only be called by the current owner."
      },
      "withdrawFrom(address,uint256,address)": {
        "params": {
          "amount": "The amount of tokens to redeem for assets.",
          "controlledToken": "The address of the token to redeem (i.e. ticket or sponsorship)",
          "from": "The address to redeem tokens from."
        },
        "returns": {
          "_0": "The actual exit fee paid"
        }
      }
    },
    "version": 1
  },
  "userdoc": {
    "kind": "user",
    "methods": {
      "VERSION()": {
        "notice": "Semver Version"
      },
      "accountedBalance()": {
        "notice": "The total of all controlled tokens"
      },
      "award(address,uint256,address)": {
        "notice": "Called by the prize strategy to award prizes."
      },
      "awardBalance()": {
        "notice": "Returns the balance that is available to award."
      },
      "awardExternalERC20(address,address,uint256)": {
        "notice": "Called by the Prize-Strategy to award external ERC20 prizes"
      },
      "awardExternalERC721(address,address,uint256[])": {
        "notice": "Called by the prize strategy to award external ERC721 prizes"
      },
      "captureAwardBalance()": {
        "notice": "Captures any available interest as award balance."
      },
      "compLikeDelegate(address,address)": {
        "notice": "Delegate the votes for a Compound COMP-like token held by the prize pool"
      },
      "depositTo(address,uint256,address)": {
        "notice": "Deposit assets into the Prize Pool in exchange for tokens"
      },
      "initialize(address[])": {
        "notice": "Initializes the Prize Pool"
      },
      "initializeYieldSourcePrizePool(address[],address)": {
        "notice": "Initializes the Prize Pool and Yield Service with the required contract connections"
      },
      "onERC721Received(address,address,uint256,bytes)": {
        "notice": "Required for ERC721 safe token transfers from smart contracts."
      },
      "setLiquidityCap(uint256)": {
        "notice": "Allows the Governor to set a cap on the amount of liquidity that he pool can hold"
      },
      "setPrizeStrategy(address)": {
        "notice": "Sets the prize strategy of the prize pool.  Only callable by the owner."
      },
      "tokens()": {
        "notice": "An array of the Tokens controlled by the Prize Pool (ie. Tickets, Sponsorship)"
      },
      "transferExternalERC20(address,address,uint256)": {
        "notice": "Called by the Prize-Strategy to transfer out external ERC20 tokens"
      },
      "withdrawFrom(address,uint256,address)": {
        "notice": "Withdraw assets from the Prize Pool instantly.  A fairness fee may be charged for an early exit."
      }
    },
    "version": 1
  },
  "storageLayout": {
    "storage": [
      {
        "astId": 130,
        "contract": "@pooltogether/v4/contracts/prize-pool/YieldSourcePrizePool.sol:YieldSourcePrizePool",
        "label": "_initialized",
        "offset": 0,
        "slot": "0",
        "type": "t_bool"
      },
      {
        "astId": 133,
        "contract": "@pooltogether/v4/contracts/prize-pool/YieldSourcePrizePool.sol:YieldSourcePrizePool",
        "label": "_initializing",
        "offset": 1,
        "slot": "0",
        "type": "t_bool"
      },
      {
        "astId": 1781,
        "contract": "@pooltogether/v4/contracts/prize-pool/YieldSourcePrizePool.sol:YieldSourcePrizePool",
        "label": "__gap",
        "offset": 0,
        "slot": "1",
        "type": "t_array(t_uint256)50_storage"
      },
      {
        "astId": 10,
        "contract": "@pooltogether/v4/contracts/prize-pool/YieldSourcePrizePool.sol:YieldSourcePrizePool",
        "label": "_owner",
        "offset": 0,
        "slot": "51",
        "type": "t_address"
      },
      {
        "astId": 123,
        "contract": "@pooltogether/v4/contracts/prize-pool/YieldSourcePrizePool.sol:YieldSourcePrizePool",
        "label": "__gap",
        "offset": 0,
        "slot": "52",
        "type": "t_array(t_uint256)49_storage"
      },
      {
        "astId": 184,
        "contract": "@pooltogether/v4/contracts/prize-pool/YieldSourcePrizePool.sol:YieldSourcePrizePool",
        "label": "_status",
        "offset": 0,
        "slot": "101",
        "type": "t_uint256"
      },
      {
        "astId": 227,
        "contract": "@pooltogether/v4/contracts/prize-pool/YieldSourcePrizePool.sol:YieldSourcePrizePool",
        "label": "__gap",
        "offset": 0,
        "slot": "102",
        "type": "t_array(t_uint256)49_storage"
      },
      {
        "astId": 9409,
        "contract": "@pooltogether/v4/contracts/prize-pool/YieldSourcePrizePool.sol:YieldSourcePrizePool",
        "label": "_tokens",
        "offset": 0,
        "slot": "151",
        "type": "t_array(t_contract(IControlledToken)7604)dyn_storage"
      },
      {
        "astId": 9412,
        "contract": "@pooltogether/v4/contracts/prize-pool/YieldSourcePrizePool.sol:YieldSourcePrizePool",
        "label": "prizeStrategy",
        "offset": 0,
        "slot": "152",
        "type": "t_address"
      },
      {
        "astId": 9415,
        "contract": "@pooltogether/v4/contracts/prize-pool/YieldSourcePrizePool.sol:YieldSourcePrizePool",
        "label": "liquidityCap",
        "offset": 0,
        "slot": "153",
        "type": "t_uint256"
      },
      {
        "astId": 9418,
        "contract": "@pooltogether/v4/contracts/prize-pool/YieldSourcePrizePool.sol:YieldSourcePrizePool",
        "label": "_currentAwardBalance",
        "offset": 0,
        "slot": "154",
        "type": "t_uint256"
      },
      {
        "astId": 10377,
        "contract": "@pooltogether/v4/contracts/prize-pool/YieldSourcePrizePool.sol:YieldSourcePrizePool",
        "label": "yieldSource",
        "offset": 0,
        "slot": "155",
        "type": "t_contract(IYieldSource)10641"
      }
    ],
    "types": {
      "t_address": {
        "encoding": "inplace",
        "label": "address",
        "numberOfBytes": "20"
      },
      "t_array(t_contract(IControlledToken)7604)dyn_storage": {
        "base": "t_contract(IControlledToken)7604",
        "encoding": "dynamic_array",
        "label": "contract IControlledToken[]",
        "numberOfBytes": "32"
      },
      "t_array(t_uint256)49_storage": {
        "base": "t_uint256",
        "encoding": "inplace",
        "label": "uint256[49]",
        "numberOfBytes": "1568"
      },
      "t_array(t_uint256)50_storage": {
        "base": "t_uint256",
        "encoding": "inplace",
        "label": "uint256[50]",
        "numberOfBytes": "1600"
      },
      "t_bool": {
        "encoding": "inplace",
        "label": "bool",
        "numberOfBytes": "1"
      },
      "t_contract(IControlledToken)7604": {
        "encoding": "inplace",
        "label": "contract IControlledToken",
        "numberOfBytes": "20"
      },
      "t_contract(IYieldSource)10641": {
        "encoding": "inplace",
        "label": "contract IYieldSource",
        "numberOfBytes": "20"
      },
      "t_uint256": {
        "encoding": "inplace",
        "label": "uint256",
        "numberOfBytes": "32"
      }
    }
  }
}