{
  "address": "0x7902159116c98Fc26730ea2FFc952502402E7A11",
  "abi": [
    {
      "inputs": [
        {
          "internalType": "address",
          "name": "_owner",
          "type": "address"
        },
        {
          "internalType": "contract IYieldSource",
          "name": "_yieldSource",
          "type": "address"
        }
      ],
      "stateMutability": "nonpayable",
      "type": "constructor"
    },
    {
      "anonymous": false,
      "inputs": [
        {
          "indexed": false,
          "internalType": "uint256",
          "name": "amount",
          "type": "uint256"
        }
      ],
      "name": "AwardCaptured",
      "type": "event"
    },
    {
      "anonymous": false,
      "inputs": [
        {
          "indexed": true,
          "internalType": "address",
          "name": "winner",
          "type": "address"
        },
        {
          "indexed": true,
          "internalType": "contract IControlledToken",
          "name": "token",
          "type": "address"
        },
        {
          "indexed": false,
          "internalType": "uint256",
          "name": "amount",
          "type": "uint256"
        }
      ],
      "name": "Awarded",
      "type": "event"
    },
    {
      "anonymous": false,
      "inputs": [
        {
          "indexed": true,
          "internalType": "address",
          "name": "winner",
          "type": "address"
        },
        {
          "indexed": true,
          "internalType": "address",
          "name": "token",
          "type": "address"
        },
        {
          "indexed": false,
          "internalType": "uint256",
          "name": "amount",
          "type": "uint256"
        }
      ],
      "name": "AwardedExternalERC20",
      "type": "event"
    },
    {
      "anonymous": false,
      "inputs": [
        {
          "indexed": true,
          "internalType": "address",
          "name": "winner",
          "type": "address"
        },
        {
          "indexed": true,
          "internalType": "address",
          "name": "token",
          "type": "address"
        },
        {
          "indexed": false,
          "internalType": "uint256[]",
          "name": "tokenIds",
          "type": "uint256[]"
        }
      ],
      "name": "AwardedExternalERC721",
      "type": "event"
    },
    {
      "anonymous": false,
      "inputs": [
        {
          "indexed": false,
          "internalType": "uint256",
          "name": "balanceCap",
          "type": "uint256"
        }
      ],
      "name": "BalanceCapSet",
      "type": "event"
    },
    {
      "anonymous": false,
      "inputs": [
        {
          "indexed": true,
          "internalType": "contract IControlledToken",
          "name": "token",
          "type": "address"
        }
      ],
      "name": "ControlledTokenAdded",
      "type": "event"
    },
    {
      "anonymous": false,
      "inputs": [
        {
          "indexed": true,
          "internalType": "address",
          "name": "yieldSource",
          "type": "address"
        }
      ],
      "name": "Deployed",
      "type": "event"
    },
    {
      "anonymous": false,
      "inputs": [
        {
          "indexed": true,
          "internalType": "address",
          "name": "operator",
          "type": "address"
        },
        {
          "indexed": true,
          "internalType": "address",
          "name": "to",
          "type": "address"
        },
        {
          "indexed": true,
          "internalType": "contract IControlledToken",
          "name": "token",
          "type": "address"
        },
        {
          "indexed": false,
          "internalType": "uint256",
          "name": "amount",
          "type": "uint256"
        }
      ],
      "name": "Deposited",
      "type": "event"
    },
    {
      "anonymous": false,
      "inputs": [
        {
          "indexed": false,
          "internalType": "bytes",
          "name": "error",
          "type": "bytes"
        }
      ],
      "name": "ErrorAwardingExternalERC721",
      "type": "event"
    },
    {
      "anonymous": false,
      "inputs": [
        {
          "indexed": false,
          "internalType": "uint256",
          "name": "liquidityCap",
          "type": "uint256"
        }
      ],
      "name": "LiquidityCapSet",
      "type": "event"
    },
    {
      "anonymous": false,
      "inputs": [
        {
          "indexed": true,
          "internalType": "address",
          "name": "pendingOwner",
          "type": "address"
        }
      ],
      "name": "OwnershipOffered",
      "type": "event"
    },
    {
      "anonymous": false,
      "inputs": [
        {
          "indexed": true,
          "internalType": "address",
          "name": "previousOwner",
          "type": "address"
        },
        {
          "indexed": true,
          "internalType": "address",
          "name": "newOwner",
          "type": "address"
        }
      ],
      "name": "OwnershipTransferred",
      "type": "event"
    },
    {
      "anonymous": false,
      "inputs": [
        {
          "indexed": true,
          "internalType": "address",
          "name": "prizeStrategy",
          "type": "address"
        }
      ],
      "name": "PrizeStrategySet",
      "type": "event"
    },
    {
      "anonymous": false,
      "inputs": [
        {
          "indexed": true,
          "internalType": "contract IControlledToken",
          "name": "ticket",
          "type": "address"
        }
      ],
      "name": "TicketSet",
      "type": "event"
    },
    {
      "anonymous": false,
      "inputs": [
        {
          "indexed": true,
          "internalType": "address",
          "name": "to",
          "type": "address"
        },
        {
          "indexed": true,
          "internalType": "address",
          "name": "token",
          "type": "address"
        },
        {
          "indexed": false,
          "internalType": "uint256",
          "name": "amount",
          "type": "uint256"
        }
      ],
      "name": "TransferredExternalERC20",
      "type": "event"
    },
    {
      "anonymous": false,
      "inputs": [
        {
          "indexed": true,
          "internalType": "address",
          "name": "operator",
          "type": "address"
        },
        {
          "indexed": true,
          "internalType": "address",
          "name": "from",
          "type": "address"
        },
        {
          "indexed": true,
          "internalType": "contract IControlledToken",
          "name": "token",
          "type": "address"
        },
        {
          "indexed": false,
          "internalType": "uint256",
          "name": "amount",
          "type": "uint256"
        },
        {
          "indexed": false,
          "internalType": "uint256",
          "name": "redeemed",
          "type": "uint256"
        }
      ],
      "name": "Withdrawal",
      "type": "event"
    },
    {
      "inputs": [],
      "name": "VERSION",
      "outputs": [
        {
          "internalType": "string",
          "name": "",
          "type": "string"
        }
      ],
      "stateMutability": "view",
      "type": "function"
    },
    {
      "inputs": [],
      "name": "accountedBalance",
      "outputs": [
        {
          "internalType": "uint256",
          "name": "",
          "type": "uint256"
        }
      ],
      "stateMutability": "view",
      "type": "function"
    },
    {
      "inputs": [
        {
          "internalType": "address",
          "name": "_to",
          "type": "address"
        },
        {
          "internalType": "uint256",
          "name": "_amount",
          "type": "uint256"
        }
      ],
      "name": "award",
      "outputs": [],
      "stateMutability": "nonpayable",
      "type": "function"
    },
    {
      "inputs": [],
      "name": "awardBalance",
      "outputs": [
        {
          "internalType": "uint256",
          "name": "",
          "type": "uint256"
        }
      ],
      "stateMutability": "view",
      "type": "function"
    },
    {
      "inputs": [
        {
          "internalType": "address",
          "name": "_to",
          "type": "address"
        },
        {
          "internalType": "address",
          "name": "_externalToken",
          "type": "address"
        },
        {
          "internalType": "uint256",
          "name": "_amount",
          "type": "uint256"
        }
      ],
      "name": "awardExternalERC20",
      "outputs": [],
      "stateMutability": "nonpayable",
      "type": "function"
    },
    {
      "inputs": [
        {
          "internalType": "address",
          "name": "to",
          "type": "address"
        },
        {
          "internalType": "address",
          "name": "externalToken",
          "type": "address"
        },
        {
          "internalType": "uint256[]",
          "name": "tokenIds",
          "type": "uint256[]"
        }
      ],
      "name": "awardExternalERC721",
      "outputs": [],
      "stateMutability": "nonpayable",
      "type": "function"
    },
    {
      "inputs": [],
      "name": "balance",
      "outputs": [
        {
          "internalType": "uint256",
          "name": "",
          "type": "uint256"
        }
      ],
      "stateMutability": "nonpayable",
      "type": "function"
    },
    {
      "inputs": [],
      "name": "balanceCap",
      "outputs": [
        {
          "internalType": "uint256",
          "name": "",
          "type": "uint256"
        }
      ],
      "stateMutability": "view",
      "type": "function"
    },
    {
      "inputs": [
        {
          "internalType": "address",
          "name": "_externalToken",
          "type": "address"
        }
      ],
      "name": "canAwardExternal",
      "outputs": [
        {
          "internalType": "bool",
          "name": "",
          "type": "bool"
        }
      ],
      "stateMutability": "view",
      "type": "function"
    },
    {
      "inputs": [],
      "name": "captureAwardBalance",
      "outputs": [
        {
          "internalType": "uint256",
          "name": "",
          "type": "uint256"
        }
      ],
      "stateMutability": "nonpayable",
      "type": "function"
    },
    {
      "inputs": [],
      "name": "claimOwnership",
      "outputs": [],
      "stateMutability": "nonpayable",
      "type": "function"
    },
    {
      "inputs": [
        {
          "internalType": "contract ICompLike",
          "name": "_compLike",
          "type": "address"
        },
        {
          "internalType": "address",
          "name": "_to",
          "type": "address"
        }
      ],
      "name": "compLikeDelegate",
      "outputs": [],
      "stateMutability": "nonpayable",
      "type": "function"
    },
    {
      "inputs": [
        {
          "internalType": "address",
          "name": "_to",
          "type": "address"
        },
        {
          "internalType": "uint256",
          "name": "_amount",
          "type": "uint256"
        }
      ],
      "name": "depositTo",
      "outputs": [],
      "stateMutability": "nonpayable",
      "type": "function"
    },
    {
      "inputs": [],
      "name": "getTicket",
      "outputs": [
        {
          "internalType": "contract IControlledToken",
          "name": "",
          "type": "address"
        }
      ],
      "stateMutability": "view",
      "type": "function"
    },
    {
      "inputs": [
        {
          "internalType": "contract IControlledToken",
          "name": "_controlledToken",
          "type": "address"
        }
      ],
      "name": "isControlled",
      "outputs": [
        {
          "internalType": "bool",
          "name": "",
          "type": "bool"
        }
      ],
      "stateMutability": "view",
      "type": "function"
    },
    {
      "inputs": [],
      "name": "liquidityCap",
      "outputs": [
        {
          "internalType": "uint256",
          "name": "",
          "type": "uint256"
        }
      ],
      "stateMutability": "view",
      "type": "function"
    },
    {
      "inputs": [
        {
          "internalType": "address",
          "name": "",
          "type": "address"
        },
        {
          "internalType": "address",
          "name": "",
          "type": "address"
        },
        {
          "internalType": "uint256",
          "name": "",
          "type": "uint256"
        },
        {
          "internalType": "bytes",
          "name": "",
          "type": "bytes"
        }
      ],
      "name": "onERC721Received",
      "outputs": [
        {
          "internalType": "bytes4",
          "name": "",
          "type": "bytes4"
        }
      ],
      "stateMutability": "nonpayable",
      "type": "function"
    },
    {
      "inputs": [],
      "name": "owner",
      "outputs": [
        {
          "internalType": "address",
          "name": "",
          "type": "address"
        }
      ],
      "stateMutability": "view",
      "type": "function"
    },
    {
      "inputs": [],
      "name": "pendingOwner",
      "outputs": [
        {
          "internalType": "address",
          "name": "",
          "type": "address"
        }
      ],
      "stateMutability": "view",
      "type": "function"
    },
    {
      "inputs": [],
      "name": "prizeStrategy",
      "outputs": [
        {
          "internalType": "address",
          "name": "",
          "type": "address"
        }
      ],
      "stateMutability": "view",
      "type": "function"
    },
    {
      "inputs": [],
      "name": "renounceOwnership",
      "outputs": [],
      "stateMutability": "nonpayable",
      "type": "function"
    },
    {
      "inputs": [
        {
          "internalType": "uint256",
          "name": "_balanceCap",
          "type": "uint256"
        }
      ],
      "name": "setBalanceCap",
      "outputs": [
        {
          "internalType": "bool",
          "name": "",
          "type": "bool"
        }
      ],
      "stateMutability": "nonpayable",
      "type": "function"
    },
    {
      "inputs": [
        {
          "internalType": "uint256",
          "name": "_liquidityCap",
          "type": "uint256"
        }
      ],
      "name": "setLiquidityCap",
      "outputs": [],
      "stateMutability": "nonpayable",
      "type": "function"
    },
    {
      "inputs": [
        {
          "internalType": "address",
          "name": "_prizeStrategy",
          "type": "address"
        }
      ],
      "name": "setPrizeStrategy",
      "outputs": [],
      "stateMutability": "nonpayable",
      "type": "function"
    },
    {
      "inputs": [
        {
          "internalType": "contract IControlledToken",
          "name": "_ticket",
          "type": "address"
        }
      ],
      "name": "setTicket",
      "outputs": [
        {
          "internalType": "bool",
          "name": "",
          "type": "bool"
        }
      ],
      "stateMutability": "nonpayable",
      "type": "function"
    },
    {
      "inputs": [],
      "name": "ticket",
      "outputs": [
        {
          "internalType": "contract IControlledToken",
          "name": "",
          "type": "address"
        }
      ],
      "stateMutability": "view",
      "type": "function"
    },
    {
      "inputs": [],
      "name": "token",
      "outputs": [
        {
          "internalType": "address",
          "name": "",
          "type": "address"
        }
      ],
      "stateMutability": "view",
      "type": "function"
    },
    {
      "inputs": [
        {
          "internalType": "address",
          "name": "_to",
          "type": "address"
        },
        {
          "internalType": "address",
          "name": "_externalToken",
          "type": "address"
        },
        {
          "internalType": "uint256",
          "name": "_amount",
          "type": "uint256"
        }
      ],
      "name": "transferExternalERC20",
      "outputs": [],
      "stateMutability": "nonpayable",
      "type": "function"
    },
    {
      "inputs": [
        {
          "internalType": "address",
          "name": "_newOwner",
          "type": "address"
        }
      ],
      "name": "transferOwnership",
      "outputs": [],
      "stateMutability": "nonpayable",
      "type": "function"
    },
    {
      "inputs": [
        {
          "internalType": "address",
          "name": "_from",
          "type": "address"
        },
        {
          "internalType": "uint256",
          "name": "_amount",
          "type": "uint256"
        }
      ],
      "name": "withdrawFrom",
      "outputs": [
        {
          "internalType": "uint256",
          "name": "",
          "type": "uint256"
        }
      ],
      "stateMutability": "nonpayable",
      "type": "function"
    },
    {
      "inputs": [],
      "name": "yieldSource",
      "outputs": [
        {
          "internalType": "contract IYieldSource",
          "name": "",
          "type": "address"
        }
      ],
      "stateMutability": "view",
      "type": "function"
    }
  ],
  "transactionHash": "0x025d3427acf627ce34ac81e3dfc1aa90c6f2a827ad785aa1a8c3afd35cd65f89",
  "args": [
    "0x94996399E8c5667f377460D0f3A5037BfC6c1275",
    "0x3C1BdD75B704f3cf67e6D691c43eFf37309d97f5"
  ],
  "solcInputHash": "9708f009c357312991df75253b2932ee",
  "bytecode": "0x60806040523480156200001157600080fd5b50604051620027683803806200276883398101604081905262000034916200028c565b8180620000418162000201565b5060016002556200005460001962000251565b506001600160a01b038116620000cc5760405162461bcd60e51b815260206004820152603260248201527f5969656c64536f757263655072697a65506f6f6c2f7969656c642d736f757263604482015271652d6e6f742d7a65726f2d6164647265737360701b60648201526084015b60405180910390fd5b600880546001600160a01b0319166001600160a01b03831690811790915560405163c89039c560e01b60208201526000919060240160408051601f19818403018152908290526200011d91620002cb565b600060405180830381855afa9150503d80600081146200015a576040519150601f19603f3d011682016040523d82523d6000602084013e6200015f565b606091505b5050905080620001c45760405162461bcd60e51b815260206004820152602960248201527f5969656c64536f757263655072697a65506f6f6c2f696e76616c69642d7969656044820152686c642d736f7572636560b81b6064820152608401620000c3565b6040516001600160a01b038316907ff40fcec21964ffb566044d083b4073f29f7f7929110ea19e1b3ebe375d89055e90600090a250505062000322565b600080546001600160a01b038381166001600160a01b0319831681178455604051919092169283917f8be0079c531659141344cd1fd0a4f28419497f9722a3daafe3b4186f6b6457e09190a35050565b60068190556040518181527f3ff20538222f568f27ff436c0c49dfd3e48d5b8f86533a3f759dc1c7089775ab9060200160405180910390a150565b60008060408385031215620002a057600080fd5b8251620002ad8162000309565b6020840151909250620002c08162000309565b809150509250929050565b6000825160005b81811015620002ee5760208186018101518583015201620002d2565b81811115620002fe576000828501525b509190910192915050565b6001600160a01b03811681146200031f57600080fd5b50565b61243680620003326000396000f3fe608060405234801561001057600080fd5b50600436106101e55760003560e01c80637b99adb11161010f578063c002c4d6116100a2578063fc0c546a11610071578063fc0c546a1461042c578063fcc8d82a14610434578063ffa1ad741461043d578063ffaad6a51461048657600080fd5b8063c002c4d6146103ef578063e30c397814610400578063e6d8a94b14610411578063f2fde38b1461041957600080fd5b806398bf3eb6116100de57806398bf3eb6146103ae578063aec9c307146103c1578063b2470e5c146103d4578063b69ef8a8146103e757600080fd5b80637b99adb1146103645780638da5cb5b1461037757806391ca480e146103885780639470b0bd1461039b57600080fd5b80634e71e0c8116101875780636cc25db7116101565780636cc25db714610315578063715018a61461034057806376687d3d1461034857806378b3d3271461035157600080fd5b80634e71e0c8146102df5780635d8a776e146102e7578063630665b4146102fa5780636a3fd4f91461030257600080fd5b806316960d55116101c357806316960d55146102835780631c65c78b146102965780632b0ab144146102b95780632f7627e3146102cc57600080fd5b80630937eb54146101ea57806313f55e3914610205578063150b7a021461021a575b600080fd5b6101f2610499565b6040519081526020015b60405180910390f35b6102186102133660046120ce565b6104a8565b005b61025261022836600461210f565b7f150b7a020000000000000000000000000000000000000000000000000000000095945050505050565b6040517fffffffff0000000000000000000000000000000000000000000000000000000090911681526020016101fc565b610218610291366004612039565b61056a565b6102a96102a4366004611fff565b6107ae565b60405190151581526020016101fc565b6102186102c73660046120ce565b610957565b6102186102da3660046121fc565b610a06565b610218610b81565b6102186102f53660046121ae565b610c0f565b6007546101f2565b6102a9610310366004611fff565b610d31565b600354610328906001600160a01b031681565b6040516001600160a01b0390911681526020016101fc565b610218610d52565b6101f260065481565b6102a961035f366004611fff565b610dc7565b610218610372366004612235565b610dd2565b6000546001600160a01b0316610328565b610218610396366004611fff565b610e47565b6101f26103a93660046121ae565b610eb9565b600454610328906001600160a01b031681565b6102a96103cf366004612235565b61101a565b600854610328906001600160a01b031681565b6101f2611096565b6003546001600160a01b0316610328565b6001546001600160a01b0316610328565b6101f26110a0565b610218610427366004611fff565b6111a9565b6103286112e5565b6101f260055481565b6104796040518060400160405280600581526020017f342e302e3000000000000000000000000000000000000000000000000000000081525081565b6040516101fc9190612304565b6102186104943660046121ae565b6112ef565b60006104a3611494565b905090565b6004546001600160a01b031633146105075760405162461bcd60e51b815260206004820152601c60248201527f5072697a65506f6f6c2f6f6e6c792d7072697a6553747261746567790000000060448201526064015b60405180910390fd5b61051283838361152a565b1561056557816001600160a01b0316836001600160a01b03167fb0bac59718cd343c80a813518afcf36846cfcfe6d56e2b3cab9bd49f5f9b251c8360405161055c91815260200190565b60405180910390a35b505050565b6004546001600160a01b031633146105c45760405162461bcd60e51b815260206004820152601c60248201527f5072697a65506f6f6c2f6f6e6c792d7072697a6553747261746567790000000060448201526064016104fe565b6008546001600160a01b03848116911614156106225760405162461bcd60e51b815260206004820181905260248201527f5072697a65506f6f6c2f696e76616c69642d65787465726e616c2d746f6b656e60448201526064016104fe565b8061062c576107a8565b60005b8181101561075957836001600160a01b03166342842e0e308786868681811061065a5761065a6123bc565b6040517fffffffff0000000000000000000000000000000000000000000000000000000060e088901b1681526001600160a01b03958616600482015294909316602485015250602090910201356044820152606401600060405180830381600087803b1580156106c957600080fd5b505af19250505080156106da575060015b610747573d808015610708576040519150601f19603f3d011682016040523d82523d6000602084013e61070d565b606091505b507f17e975018310f88872b58d4d8263adca83cf5c1893496ea2a86923dab15276ad8160405161073d9190612304565b60405180910390a1505b8061075181612372565b91505061062f565b50826001600160a01b0316846001600160a01b03167f69c2de32bc4d47f488e72626a6cfdee85089342e52675e7de79c4b417623960c848460405161079f9291906122af565b60405180910390a35b50505050565b6000336107c36000546001600160a01b031690565b6001600160a01b0316146108195760405162461bcd60e51b815260206004820152601860248201527f4f776e61626c652f63616c6c65722d6e6f742d6f776e6572000000000000000060448201526064016104fe565b816001600160a01b0381166108965760405162461bcd60e51b815260206004820152602160248201527f5072697a65506f6f6c2f7469636b65742d6e6f742d7a65726f2d61646472657360448201527f730000000000000000000000000000000000000000000000000000000000000060648201526084016104fe565b6003546001600160a01b0316156108ef5760405162461bcd60e51b815260206004820152601c60248201527f5072697a65506f6f6c2f7469636b65742d616c72656164792d7365740000000060448201526064016104fe565b6003805473ffffffffffffffffffffffffffffffffffffffff19166001600160a01b0385169081179091556040517f9f9d59c87dbdc6ca82d9e5924782004b9aebc366c505c0ccab12f61e2a9f332190600090a261094e6000196115bd565b50600192915050565b6004546001600160a01b031633146109b15760405162461bcd60e51b815260206004820152601c60248201527f5072697a65506f6f6c2f6f6e6c792d7072697a6553747261746567790000000060448201526064016104fe565b6109bc83838361152a565b1561056557816001600160a01b0316836001600160a01b03167fc65f48aca3b7a99b7443d04b8ffbb073156179bc628dc3f7def50477489734698360405161055c91815260200190565b33610a196000546001600160a01b031690565b6001600160a01b031614610a6f5760405162461bcd60e51b815260206004820152601860248201527f4f776e61626c652f63616c6c65722d6e6f742d6f776e6572000000000000000060448201526064016104fe565b6040517f70a082310000000000000000000000000000000000000000000000000000000081523060048201526000906001600160a01b038416906370a082319060240160206040518083038186803b158015610aca57600080fd5b505afa158015610ade573d6000803e3d6000fd5b505050506040513d601f19601f82011682018060405250810190610b02919061224e565b1115610b7d576040517f5c19a95c0000000000000000000000000000000000000000000000000000000081526001600160a01b038281166004830152831690635c19a95c90602401600060405180830381600087803b158015610b6457600080fd5b505af1158015610b78573d6000803e3d6000fd5b505050505b5050565b6001546001600160a01b03163314610bdb5760405162461bcd60e51b815260206004820152601f60248201527f4f776e61626c652f63616c6c65722d6e6f742d70656e64696e674f776e65720060448201526064016104fe565b600154610bf0906001600160a01b03166115f9565b6001805473ffffffffffffffffffffffffffffffffffffffff19169055565b6004546001600160a01b03163314610c695760405162461bcd60e51b815260206004820152601c60248201527f5072697a65506f6f6c2f6f6e6c792d7072697a6553747261746567790000000060448201526064016104fe565b80610c72575050565b600754811115610cc45760405162461bcd60e51b815260206004820152601d60248201527f5072697a65506f6f6c2f61776172642d657863656564732d617661696c00000060448201526064016104fe565b80600754610cd2919061232f565b6007556003546001600160a01b0316610cec838383611656565b806001600160a01b0316836001600160a01b03167fe2554529d99ab7a67db6b4cea2b32c7d55ae325f958861e05f304fdded867e318460405161055c91815260200190565b6000610d4c826008546001600160a01b039182169116141590565b92915050565b33610d656000546001600160a01b031690565b6001600160a01b031614610dbb5760405162461bcd60e51b815260206004820152601860248201527f4f776e61626c652f63616c6c65722d6e6f742d6f776e6572000000000000000060448201526064016104fe565b610dc560006115f9565b565b6000610d4c826116d6565b33610de56000546001600160a01b031690565b6001600160a01b031614610e3b5760405162461bcd60e51b815260206004820152601860248201527f4f776e61626c652f63616c6c65722d6e6f742d6f776e6572000000000000000060448201526064016104fe565b610e44816116ff565b50565b33610e5a6000546001600160a01b031690565b6001600160a01b031614610eb05760405162461bcd60e51b815260206004820152601860248201527f4f776e61626c652f63616c6c65722d6e6f742d6f776e6572000000000000000060448201526064016104fe565b610e4481611734565b6000600280541415610f0d5760405162461bcd60e51b815260206004820152601f60248201527f5265656e7472616e637947756172643a207265656e7472616e742063616c6c0060448201526064016104fe565b600280556003546040517f631b5dfb0000000000000000000000000000000000000000000000000000000081523360048201526001600160a01b0385811660248301526044820185905290911690819063631b5dfb90606401600060405180830381600087803b158015610f8057600080fd5b505af1158015610f94573d6000803e3d6000fd5b505050506000610fa3846117e1565b9050610fc28582610fb2611879565b6001600160a01b0316919061190f565b60408051858152602081018390526001600160a01b03808516929088169133917fe56473357106d0cdea364a045d5ab7abb44b6bd1c0f092ba3734983a43459f8f910160405180910390a46001600255949350505050565b60003361102f6000546001600160a01b031690565b6001600160a01b0316146110855760405162461bcd60e51b815260206004820152601860248201527f4f776e61626c652f63616c6c65722d6e6f742d6f776e6572000000000000000060448201526064016104fe565b61108e826115bd565b506001919050565b60006104a36119b8565b60006002805414156110f45760405162461bcd60e51b815260206004820152601f60248201527f5265656e7472616e637947756172643a207265656e7472616e742063616c6c0060448201526064016104fe565b600280556000611102611494565b9050600061110e6119b8565b9050600082821161112057600061112a565b61112a838361232f565b90506000600754821161113e57600061114b565b60075461114b908361232f565b9050801561119857806007546111619190612317565b6007556040518181527fce2b6e507c7ca1a20ce136810f524eefc19ba4c7e4866eb6cc0cba76e778d4be9060200160405180910390a15b600754945050505050600160025590565b336111bc6000546001600160a01b031690565b6001600160a01b0316146112125760405162461bcd60e51b815260206004820152601860248201527f4f776e61626c652f63616c6c65722d6e6f742d6f776e6572000000000000000060448201526064016104fe565b6001600160a01b03811661128e5760405162461bcd60e51b815260206004820152602560248201527f4f776e61626c652f70656e64696e674f776e65722d6e6f742d7a65726f2d616460448201527f647265737300000000000000000000000000000000000000000000000000000060648201526084016104fe565b6001805473ffffffffffffffffffffffffffffffffffffffff19166001600160a01b0383169081179091556040517f239a2ddded15777fa246aed5f7e1a9bc69a39d4eb4a397034d1d85766cca7d4c90600090a250565b60006104a3611879565b6002805414156113415760405162461bcd60e51b815260206004820152601f60248201527f5265656e7472616e637947756172643a207265656e7472616e742063616c6c0060448201526064016104fe565b600280558061134f81611a2b565b61139b5760405162461bcd60e51b815260206004820152601f60248201527f5072697a65506f6f6c2f657863656564732d6c69717569646974792d6361700060448201526064016104fe565b336113a68184611a61565b6113f25760405162461bcd60e51b815260206004820152601d60248201527f5072697a65506f6f6c2f657863656564732d62616c616e63652d63617000000060448201526064016104fe565b6003546001600160a01b0316611409858583611656565b611428823086611417611879565b6001600160a01b0316929190611b34565b61143184611b85565b806001600160a01b0316856001600160a01b0316836001600160a01b03167f4174a9435a04d04d274c76779cad136a41fde6937c56241c09ab9d3c7064a1a98760405161148091815260200190565b60405180910390a450506001600255505050565b600354604080517f18160ddd00000000000000000000000000000000000000000000000000000000815290516000926001600160a01b0316916318160ddd916004808301926020929190829003018186803b1580156114f257600080fd5b505afa158015611506573d6000803e3d6000fd5b505050506040513d601f19601f820116820180604052508101906104a3919061224e565b6000611545836008546001600160a01b039182169116141590565b6115915760405162461bcd60e51b815260206004820181905260248201527f5072697a65506f6f6c2f696e76616c69642d65787465726e616c2d746f6b656e60448201526064016104fe565b8161159e575060006115b6565b6115b26001600160a01b038416858461190f565b5060015b9392505050565b60058190556040518181527f439b9ac8f2088164a8d80921758209db1623cf1a37a48913679ef3a43d7a5cf7906020015b60405180910390a150565b600080546001600160a01b0383811673ffffffffffffffffffffffffffffffffffffffff19831681178455604051919092169283917f8be0079c531659141344cd1fd0a4f28419497f9722a3daafe3b4186f6b6457e09190a35050565b6040517f5d7b07580000000000000000000000000000000000000000000000000000000081526001600160a01b03848116600483015260248201849052821690635d7b075890604401600060405180830381600087803b1580156116b957600080fd5b505af11580156116cd573d6000803e3d6000fd5b50505050505050565b6003546000906001600160a01b03838116911614156116f757506001919050565b506000919050565b60068190556040518181527f3ff20538222f568f27ff436c0c49dfd3e48d5b8f86533a3f759dc1c7089775ab906020016115ee565b6001600160a01b03811661178a5760405162461bcd60e51b815260206004820181905260248201527f5072697a65506f6f6c2f7072697a6553747261746567792d6e6f742d7a65726f60448201526064016104fe565b6004805473ffffffffffffffffffffffffffffffffffffffff19166001600160a01b0383169081179091556040517f7f58dc86bc2e435cb77ca0edb1df55e25f90caf2d6bd866971715437d456a21290600090a250565b6008546040517f013054c2000000000000000000000000000000000000000000000000000000008152600481018390526000916001600160a01b03169063013054c290602401602060405180830381600087803b15801561184157600080fd5b505af1158015611855573d6000803e3d6000fd5b505050506040513d601f19601f82011682018060405250810190610d4c919061224e565b600854604080517fc89039c500000000000000000000000000000000000000000000000000000000815290516000926001600160a01b03169163c89039c5916004808301926020929190829003018186803b1580156118d757600080fd5b505afa1580156118eb573d6000803e3d6000fd5b505050506040513d601f19601f820116820180604052508101906104a3919061201c565b6040516001600160a01b0383166024820152604481018290526105659084907fa9059cbb00000000000000000000000000000000000000000000000000000000906064015b60408051601f198184030181529190526020810180517bffffffffffffffffffffffffffffffffffffffffffffffffffffffff167fffffffff0000000000000000000000000000000000000000000000000000000090931692909217909152611c2e565b6008546040517fb99152d00000000000000000000000000000000000000000000000000000000081523060048201526000916001600160a01b03169063b99152d090602401602060405180830381600087803b158015611a1757600080fd5b505af1158015611506573d6000803e3d6000fd5b600654600090600019811415611a445750600192915050565b8083611a4e611494565b611a589190612317565b11159392505050565b6003546005546000916001600160a01b031690600019811415611a8957600192505050610d4c565b6040517f70a082310000000000000000000000000000000000000000000000000000000081526001600160a01b038681166004830152829186918516906370a082319060240160206040518083038186803b158015611ae757600080fd5b505afa158015611afb573d6000803e3d6000fd5b505050506040513d601f19601f82011682018060405250810190611b1f919061224e565b611b299190612317565b111595945050505050565b6040516001600160a01b03808516602483015283166044820152606481018290526107a89085907f23b872dd0000000000000000000000000000000000000000000000000000000090608401611954565b600854611bae906001600160a01b031682611b9e611879565b6001600160a01b03169190611d13565b6008546040517f87a6eeef000000000000000000000000000000000000000000000000000000008152600481018390523060248201526001600160a01b03909116906387a6eeef90604401600060405180830381600087803b158015611c1357600080fd5b505af1158015611c27573d6000803e3d6000fd5b5050505050565b6000611c83826040518060400160405280602081526020017f5361666545524332303a206c6f772d6c6576656c2063616c6c206661696c6564815250856001600160a01b0316611e709092919063ffffffff16565b8051909150156105655780806020019051810190611ca191906121da565b6105655760405162461bcd60e51b815260206004820152602a60248201527f5361666545524332303a204552433230206f7065726174696f6e20646964206e60448201527f6f7420737563636565640000000000000000000000000000000000000000000060648201526084016104fe565b801580611db557506040517fdd62ed3e0000000000000000000000000000000000000000000000000000000081523060048201526001600160a01b03838116602483015284169063dd62ed3e9060440160206040518083038186803b158015611d7b57600080fd5b505afa158015611d8f573d6000803e3d6000fd5b505050506040513d601f19601f82011682018060405250810190611db3919061224e565b155b611e275760405162461bcd60e51b815260206004820152603660248201527f5361666545524332303a20617070726f76652066726f6d206e6f6e2d7a65726f60448201527f20746f206e6f6e2d7a65726f20616c6c6f77616e63650000000000000000000060648201526084016104fe565b6040516001600160a01b0383166024820152604481018290526105659084907f095ea7b30000000000000000000000000000000000000000000000000000000090606401611954565b6060611e7f8484600085611e87565b949350505050565b606082471015611eff5760405162461bcd60e51b815260206004820152602660248201527f416464726573733a20696e73756666696369656e742062616c616e636520666f60448201527f722063616c6c000000000000000000000000000000000000000000000000000060648201526084016104fe565b843b611f4d5760405162461bcd60e51b815260206004820152601d60248201527f416464726573733a2063616c6c20746f206e6f6e2d636f6e747261637400000060448201526064016104fe565b600080866001600160a01b03168587604051611f699190612293565b60006040518083038185875af1925050503d8060008114611fa6576040519150601f19603f3d011682016040523d82523d6000602084013e611fab565b606091505b5091509150611fbb828286611fc6565b979650505050505050565b60608315611fd55750816115b6565b825115611fe55782518084602001fd5b8160405162461bcd60e51b81526004016104fe9190612304565b60006020828403121561201157600080fd5b81356115b6816123eb565b60006020828403121561202e57600080fd5b81516115b6816123eb565b6000806000806060858703121561204f57600080fd5b843561205a816123eb565b9350602085013561206a816123eb565b9250604085013567ffffffffffffffff8082111561208757600080fd5b818701915087601f83011261209b57600080fd5b8135818111156120aa57600080fd5b8860208260051b85010111156120bf57600080fd5b95989497505060200194505050565b6000806000606084860312156120e357600080fd5b83356120ee816123eb565b925060208401356120fe816123eb565b929592945050506040919091013590565b60008060008060006080868803121561212757600080fd5b8535612132816123eb565b94506020860135612142816123eb565b935060408601359250606086013567ffffffffffffffff8082111561216657600080fd5b818801915088601f83011261217a57600080fd5b81358181111561218957600080fd5b89602082850101111561219b57600080fd5b9699959850939650602001949392505050565b600080604083850312156121c157600080fd5b82356121cc816123eb565b946020939093013593505050565b6000602082840312156121ec57600080fd5b815180151581146115b657600080fd5b6000806040838503121561220f57600080fd5b823561221a816123eb565b9150602083013561222a816123eb565b809150509250929050565b60006020828403121561224757600080fd5b5035919050565b60006020828403121561226057600080fd5b5051919050565b6000815180845261227f816020860160208601612346565b601f01601f19169290920160200192915050565b600082516122a5818460208701612346565b9190910192915050565b6020815281602082015260007f07ffffffffffffffffffffffffffffffffffffffffffffffffffffffffffffff8311156122e857600080fd5b8260051b80856040850137600092016040019182525092915050565b6020815260006115b66020830184612267565b6000821982111561232a5761232a61238d565b500190565b6000828210156123415761234161238d565b500390565b60005b83811015612361578181015183820152602001612349565b838111156107a85750506000910152565b60006000198214156123865761238661238d565b5060010190565b7f4e487b7100000000000000000000000000000000000000000000000000000000600052601160045260246000fd5b7f4e487b7100000000000000000000000000000000000000000000000000000000600052603260045260246000fd5b6001600160a01b0381168114610e4457600080fdfea2646970667358221220c5c635e2aab2d84f1d39ecfc27b1f8819dc30337f772ac4e78fbbf31c63f78de64736f6c63430008060033",
  "devdoc": {
    "author": "PoolTogether Inc Team",
    "events": {
      "Deployed(address)": {
        "details": "Emitted when yield source prize pool is deployed.",
        "params": {
          "yieldSource": "Address of the yield source."
        }
      }
    },
    "kind": "dev",
    "methods": {
      "accountedBalance()": {
        "returns": {
          "_0": "The current total of all tokens"
        }
      },
      "award(address,uint256)": {
        "details": "The amount awarded must be less than the awardBalance()",
        "params": {
          "amount": "The amount of assets to be awarded",
          "to": "The address of the winner that receives the award"
        }
      },
      "awardBalance()": {
        "details": "captureAwardBalance() should be called first",
        "returns": {
          "_0": "The total amount of assets to be awarded for the current prize"
        }
      },
      "awardExternalERC20(address,address,uint256)": {
        "details": "Used to award any arbitrary tokens held by the Prize Pool",
        "params": {
          "amount": "The amount of external assets to be awarded",
          "externalToken": "The address of the external asset token being awarded",
          "to": "The address of the winner that receives the award"
        }
      },
      "awardExternalERC721(address,address,uint256[])": {
        "details": "Used to award any arbitrary NFTs held by the Prize Pool",
        "params": {
          "externalToken": "The address of the external NFT token being awarded",
          "to": "The address of the winner that receives the award",
          "tokenIds": "An array of NFT Token IDs to be transferred"
        }
      },
      "balance()": {
        "returns": {
          "_0": "The underlying balance of assets"
        }
      },
      "canAwardExternal(address)": {
        "details": "Checks with the Prize Pool if a specific token type may be awarded as an external prize",
        "params": {
          "_externalToken": "The address of the token to check"
        },
        "returns": {
          "_0": "True if the token may be awarded, false otherwise"
        }
      },
      "captureAwardBalance()": {
        "details": "This function also captures the reserve fees.",
        "returns": {
          "_0": "The total amount of assets to be awarded for the current prize"
        }
      },
      "claimOwnership()": {
        "details": "This function is only callable by the `_pendingOwner`."
      },
      "compLikeDelegate(address,address)": {
        "params": {
          "_compLike": "The COMP-like token held by the prize pool that should be delegated",
          "_to": "The address to delegate to"
        }
      },
      "constructor": {
        "params": {
          "_owner": "Address of the Yield Source Prize Pool owner",
          "_yieldSource": "Address of the yield source"
        }
      },
      "depositTo(address,uint256)": {
        "params": {
          "amount": "The amount of assets to deposit",
          "to": "The address receiving the newly minted tokens"
        }
      },
      "getTicket()": {
        "details": "Returns the address of the prize pool ticket.",
        "returns": {
          "_0": "The address of the prize pool ticket."
        }
      },
      "isControlled(address)": {
        "details": "Checks if a specific token is controlled by the Prize Pool",
        "params": {
          "_controlledToken": "The address of the token to check"
        },
        "returns": {
          "_0": "True if the token is a controlled token, false otherwise"
        }
      },
      "onERC721Received(address,address,uint256,bytes)": {
        "details": "Whenever an {IERC721} `tokenId` token is transferred to this contract via {IERC721-safeTransferFrom} by `operator` from `from`, this function is called. It must return its Solidity selector to confirm the token transfer. If any other value is returned or the interface is not implemented by the recipient, the transfer will be reverted. The selector can be obtained in Solidity with `IERC721.onERC721Received.selector`."
      },
      "pendingOwner()": {
        "returns": {
          "_0": "Current `_pendingOwner` address."
        }
      },
      "renounceOwnership()": {
        "details": "Leaves the contract without owner. It will not be possible to call `onlyOwner` functions anymore. Can only be called by the current owner. NOTE: Renouncing ownership will leave the contract without an owner, thereby removing any functionality that is only available to the owner."
      },
      "setBalanceCap(uint256)": {
        "details": "If a user wins, his balance can go over the cap. He will be able to withdraw the excess but not deposit.Needs to be called after deploying a prize pool to be able to deposit into it.",
        "params": {
          "_balanceCap": "New balance cap."
        },
        "returns": {
          "_0": "True if new balance cap has been successfully set."
        }
      },
      "setLiquidityCap(uint256)": {
        "params": {
          "_liquidityCap": "The new liquidity cap for the prize pool"
        }
      },
      "setPrizeStrategy(address)": {
        "params": {
          "_prizeStrategy": "The new prize strategy.  Must implement DrawPrizesPrizeStrategy"
        }
      },
      "setTicket(address)": {
        "params": {
          "_ticket": "Address of the ticket to set."
        },
        "returns": {
          "_0": "True if ticket has been successfully set."
        }
      },
      "token()": {
        "details": "Returns the address of the underlying ERC20 asset",
        "returns": {
          "_0": "The address of the asset"
        }
      },
      "transferExternalERC20(address,address,uint256)": {
        "details": "Used to transfer out tokens held by the Prize Pool.  Could be liquidated, or anything.",
        "params": {
          "amount": "The amount of external assets to be awarded",
          "externalToken": "The address of the external asset token being awarded",
          "to": "The address of the winner that receives the award"
        }
      },
      "transferOwnership(address)": {
        "params": {
          "_newOwner": "Address to transfer ownership to."
        }
      },
      "withdrawFrom(address,uint256)": {
        "params": {
          "amount": "The amount of tokens to redeem for assets.",
          "from": "The address to redeem tokens from."
        },
        "returns": {
          "_0": "The actual amount withdrawn"
        }
      }
    },
    "title": "PoolTogether V4 YieldSourcePrizePool",
    "version": 1
  },
  "userdoc": {
    "kind": "user",
    "methods": {
      "VERSION()": {
        "notice": "Semver Version"
      },
      "accountedBalance()": {
        "notice": "The total of all controlled tokens"
      },
      "award(address,uint256)": {
        "notice": "Called by the prize strategy to award prizes."
      },
      "awardBalance()": {
        "notice": "Returns the balance that is available to award."
      },
      "awardExternalERC20(address,address,uint256)": {
        "notice": "Called by the Prize-Strategy to award external ERC20 prizes"
      },
      "awardExternalERC721(address,address,uint256[])": {
        "notice": "Called by the prize strategy to award external ERC721 prizes"
      },
      "balanceCap()": {
        "notice": "The total amount of tickets a user can hold."
      },
      "captureAwardBalance()": {
        "notice": "Captures any available interest as award balance."
      },
      "claimOwnership()": {
        "notice": "Allows the `_pendingOwner` address to finalize the transfer."
      },
      "compLikeDelegate(address,address)": {
        "notice": "Delegate the votes for a Compound COMP-like token held by the prize pool"
      },
      "constructor": {
        "notice": "Deploy the Prize Pool and Yield Service with the required contract connections"
      },
      "depositTo(address,uint256)": {
        "notice": "Deposit assets into the Prize Pool in exchange for tokens"
      },
      "liquidityCap()": {
        "notice": "The total amount of funds that the prize pool can hold."
      },
      "owner()": {
        "notice": "Returns the address of the current owner."
      },
      "pendingOwner()": {
        "notice": "Gets current `_pendingOwner`."
      },
      "prizeStrategy()": {
        "notice": "The Prize Strategy that this Prize Pool is bound to."
      },
      "renounceOwnership()": {
        "notice": "Renounce ownership of the contract."
      },
      "setBalanceCap(uint256)": {
        "notice": "Allows the owner to set a balance cap per `token` for the pool."
      },
      "setLiquidityCap(uint256)": {
        "notice": "Allows the Governor to set a cap on the amount of liquidity that he pool can hold"
      },
      "setPrizeStrategy(address)": {
        "notice": "Sets the prize strategy of the prize pool.  Only callable by the owner."
      },
      "setTicket(address)": {
        "notice": "Set prize pool ticket."
      },
      "ticket()": {
        "notice": "Prize Pool ticket. Can only be set once by calling `setTicket()`."
      },
      "transferExternalERC20(address,address,uint256)": {
        "notice": "Called by the Prize-Strategy to transfer out external ERC20 tokens"
      },
      "transferOwnership(address)": {
        "notice": "Allows current owner to set the `_pendingOwner` address."
      },
      "withdrawFrom(address,uint256)": {
        "notice": "Withdraw assets from the Prize Pool instantly.  A fairness fee may be charged for an early exit."
      },
      "yieldSource()": {
        "notice": "Address of the yield source."
      }
    },
    "notice": "The Yield Source Prize Pool uses a yield source contract to generate prizes.         Funds that are deposited into the prize pool are then deposited into a yield source. (i.e. Aave, Compound, etc...)",
    "version": 1
  },
  "storageLayout": {
    "storage": [
      {
        "astId": 3466,
        "contract": "@pooltogether/v4-core/contracts/prize-pool/YieldSourcePrizePool.sol:YieldSourcePrizePool",
        "label": "_owner",
        "offset": 0,
        "slot": "0",
        "type": "t_address"
      },
      {
        "astId": 3468,
        "contract": "@pooltogether/v4-core/contracts/prize-pool/YieldSourcePrizePool.sol:YieldSourcePrizePool",
        "label": "_pendingOwner",
        "offset": 0,
        "slot": "1",
        "type": "t_address"
      },
      {
        "astId": 10,
        "contract": "@pooltogether/v4-core/contracts/prize-pool/YieldSourcePrizePool.sol:YieldSourcePrizePool",
        "label": "_status",
        "offset": 0,
        "slot": "2",
        "type": "t_uint256"
      },
      {
        "astId": 11189,
        "contract": "@pooltogether/v4-core/contracts/prize-pool/YieldSourcePrizePool.sol:YieldSourcePrizePool",
        "label": "ticket",
        "offset": 0,
        "slot": "3",
        "type": "t_contract(IControlledToken)8631"
      },
      {
        "astId": 11192,
        "contract": "@pooltogether/v4-core/contracts/prize-pool/YieldSourcePrizePool.sol:YieldSourcePrizePool",
        "label": "prizeStrategy",
        "offset": 0,
        "slot": "4",
        "type": "t_address"
      },
      {
        "astId": 11195,
        "contract": "@pooltogether/v4-core/contracts/prize-pool/YieldSourcePrizePool.sol:YieldSourcePrizePool",
        "label": "balanceCap",
        "offset": 0,
        "slot": "5",
        "type": "t_uint256"
      },
      {
        "astId": 11198,
        "contract": "@pooltogether/v4-core/contracts/prize-pool/YieldSourcePrizePool.sol:YieldSourcePrizePool",
        "label": "liquidityCap",
        "offset": 0,
        "slot": "6",
        "type": "t_uint256"
      },
      {
        "astId": 11201,
        "contract": "@pooltogether/v4-core/contracts/prize-pool/YieldSourcePrizePool.sol:YieldSourcePrizePool",
        "label": "_currentAwardBalance",
        "offset": 0,
        "slot": "7",
        "type": "t_uint256"
      },
      {
        "astId": 12119,
        "contract": "@pooltogether/v4-core/contracts/prize-pool/YieldSourcePrizePool.sol:YieldSourcePrizePool",
        "label": "yieldSource",
        "offset": 0,
        "slot": "8",
        "type": "t_contract(IYieldSource)13695"
      }
    ],
    "types": {
      "t_address": {
        "encoding": "inplace",
        "label": "address",
        "numberOfBytes": "20"
      },
      "t_contract(IControlledToken)8631": {
        "encoding": "inplace",
        "label": "contract IControlledToken",
        "numberOfBytes": "20"
      },
      "t_contract(IYieldSource)13695": {
        "encoding": "inplace",
        "label": "contract IYieldSource",
        "numberOfBytes": "20"
      },
      "t_uint256": {
        "encoding": "inplace",
        "label": "uint256",
        "numberOfBytes": "32"
      }
    }
  }
}